:020000040800F2
:1000000000000220990600089506000851860008A5
:1000100095060008950600089506000800000000F7
:10002000000000000000000000000000950600082D
:10003000950600080000000095060008D585000818
:100040009506000895060008950600089506000824
:100050009506000895060008950600089506000814
:10006000950600089506000895060008996C00089A
:10007000A56C0008155A0008B16C0008BD6C00089A
:1000800051800008C5610008950600089506000823
:1000900095060008950600089506000895060008D4
:1000A00095060008950600089506000895060008C4
:1000B000217400082D74000839740008F9610008E3
:1000C000950600080562000895060008117E0108E3
:1000D0001D7E0108857E0008B17E0008E57E0008CF
:1000E0009506000895060008000000009506000827
:1000F0009506000895060008950600089506000874
:1001000095060008F171000845740008297E010871
:10011000197F00084D7F0008950600089506000825
:1001200095060008950600084D7E0108817E0108AD
:1001300085800008950600089506000895060008C9
:1001400000000000000000000000000000000000AF
:10015000950600089506000895060008817F0008AE
:100160001162000895060008E58500080986000868
:10017000950600082D8600089506000895060008DB
:100180009506000895060008B57F0008E97F00087D
:10019000357E0108417E0108950600089506000895
:1001A00095060008950600089506000895060008C3
:1001B000B96900089506000895060008950600082C
:1001C0009506000895060008D5540008E15400087B
:1001D00095060008ED5400089506000895060008ED
:1001E0009506000895060008950600089506000883
:1001F0009506000895060008950600089506000873
:100200009506000895060008950600089506000862
:100210009506000895060008950600089506000852
:1002200095060008950600089506000800000000E5
:1002300095060008950600080000000095060008D5
:100240009506000895060008950600089506000822
:100250009506000895060008950600089506000812
:100260009506000895060008950600089506000802
:1002700095060008950600081D8000080000000093
:100280009506000895060008950600080000000085
:080290000000000095060008C3
:1002A00010B5054C237833B9044B13B10448AFF3B0
:1002B00000800123237010BD80070024000000008F
:1002C00048DF010808B5034B1BB103490348AFF3EE
:1002D000008008BD000000008407002448DF0108FA
:1002E000034613F8012B002AFBD1181A0138704776
:1002F00001F0FF01102A2BDB10F0070F08D010F8D7
:10030000013B013A8B422DD010F0070F42B3F6D1DA
:10031000F0B441EA012141EA014122F007047FF0F3
:1003200000070023F0E80256083C85EA010586EA4A
:10033000010685FA47F5A3FA87F586FA47F6A5FA86
:1003400087F68EB9EED1F0BC01F0FF0102F0070292
:1003500032B110F8013B013A83EA010313B1F8D13D
:100360000020704701387047002D06BF354603381E
:10037000073815F0010F07D1013015F4807F02BF57
:10038000013015F4C03F0130F0BC0138704700BFA8
:1003900053B94AB9002908BF00281CBF4FF0FF31EC
:1003A0004FF0FF3000F074B9ADF1080C6DE904CEE8
:1003B00000F006F8DDF804E0DDE9022304B0704740
:1003C0002DE9F047089D04468E46002B4DD18A4208
:1003D000944669D9B2FA82F252B101FA02F3C2F13B
:1003E000200120FA01F10CFA02FC41EA030E9440CC
:1003F0004FEA1C48210CBEFBF8F61FFA8CF708FBED
:1004000016E341EA034306FB07F199420AD91CEBC4
:10041000030306F1FF3080F01F81994240F21C81F6
:10042000023E63445B1AA4B2B3FBF8F008FB10333E
:1004300044EA034400FB07F7A7420AD91CEB040473
:1004400000F1FF3380F00A81A74240F20781644443
:10045000023840EA0640E41B00261DB1D4400023C8
:10046000C5E900433146BDE8F0878B4209D9002D2C
:1004700000F0EF800026C5E9000130463146BDE8B6
:10048000F087B3FA83F6002E4AD18B4202D3824220
:1004900000F2F980841A61EB030301209E46002DCF
:1004A000E0D0C5E9004EDDE702B9FFDEB2FA82F224
:1004B000002A40F09280A1EB0C014FEA1C471FFA82
:1004C0008CFE0126200CB1FBF7F307FB131140EA69
:1004D00001410EFB03F0884208D91CEB010103F136
:1004E000FF3802D2884200F2CB804346091AA4B2F8
:1004F000B1FBF7F007FB101144EA01440EFB00FECC
:10050000A64508D91CEB040400F1FF3102D2A64530
:1005100000F2BB800846A4EB0E0440EA03409CE7CF
:10052000C6F12007B34022FA07FC4CEA030C20FA7C
:1005300007F401FA06F31C43F9404FEA1C4900FA9C
:1005400006F3B1FBF9F8200C1FFA8CFE09FB181119
:1005500040EA014108FB0EF0884202FA06F20BD98C
:100560001CEB010108F1FF3A80F08880884240F2DC
:100570008580A8F102086144091AA4B2B1FBF9F020
:1005800009FB101144EA014100FB0EFE8E4508D91B
:100590001CEB010100F1FF346CD28E456AD90238A0
:1005A000614440EA0840A0FB0294A1EB0E01A14285
:1005B000C846A64656D353D05DB1B3EB080261EBF3
:1005C0000E0101FA07F722FA06F3F1401F43C5E9CD
:1005D000007100263146BDE8F087C2F12003D84003
:1005E0000CFA02FC21FA03F3914001434FEA1C4745
:1005F0001FFA8CFEB3FBF7F007FB10360B0C43EA37
:10060000064300FB0EF69E4204FA02F408D91CEBE6
:10061000030300F1FF382FD29E422DD902386344E4
:100620009B1B89B2B3FBF7F607FB163341EA034184
:1006300006FB0EF38B4208D91CEB010106F1FF38D3
:1006400016D28B4214D9023E6144C91A46EA0046CA
:1006500038E72E46284605E70646E3E61846F8E65C
:100660004B45A9D2B9EB020864EB0C0E0138A3E7A5
:100670004646EAE7204694E74046D1E7D0467BE786
:10068000023B614432E7304609E76444023842E7FE
:10069000704700BFFEE700BF0B480C4A904203D0F2
:1006A000121A0B4919F0CEFC0A480B4A904203D0AB
:1006B000121A002119F0D4FC08F028FA19F08EFC67
:1006C00002F06CFBFEE700BF000000247C07002462
:1006D00080DF01088007002450130124034B03EB43
:1006E000800203445268187B53681847AC09002401
:1006F000074B1A5C52B903EB800219184FF0010C3A
:10070000526803F800C0087B136818470020704740
:10071000AC09002430B4054C04EB800504446D683A
:10072000207BAC68A44630BC604700BFAC09002405
:1007300030B4054C04EB800504446D68207BEC6804
:10074000A44630BC604700BFAC090024044B03EB57
:10075000000C03EB80035B689CF80C001B691847D6
:10076000AC09002410B404689CB121788446224668
:100770003A2913D01F2911D912F8013F1F2B0ED986
:100780003A2BF9D10134A1F13000A24201D1012864
:100790000CD94FF0FF305DF8044B70470B463A2BF5
:1007A000F0D0044B18785DF8044B70470132CCF858
:1007B0000020F8E79C07002438B50D4640B10368D7
:1007C00004462BB11A781AB18088DA88904203D097
:1007D000092000232B6038BD5878FFF77FFF10F009
:1007E0000100F5D12368F5E72DE9F0410026D0F8A6
:1007F00000808E758369002B5AD0C36A07460D4668
:1008000001331ED0D8F80C301888002861D001F1CF
:100810001506012400E01C46002101F0D5FF631CF1
:10082000002856D0B4F5807F53D006F8010FD8F8D1
:100830000C2032F814000028EDD12C440023A375BD
:10084000AE7DD7F81CC000204FF02E080CF1FF3110
:10085000024611F8013F0132202B18D0052B08BFAA
:10086000E523092A26D02C1863727EB9A3F141072B
:10087000192F0AD8082A9CF80CE08CBF10270827EB
:100880001EEA070F01D02033DBB2A37501300B2A1B
:10089000DFD12C18B6B1002363729CF80B302B7299
:1008A000DCF81C302B60DCF816301A0CEB80AA80C8
:1008B000BDE8F0812C180EB984F81680013084F858
:1008C0000980D0E7A6759CF80C30002B08BF2C4699
:1008D000E1E7002400232C44A375AE7DB1E700BFFF
:1008E0002DE9F041456B00F13808044601232A4602
:1008F00041464078FFF71CFFC0B9A26A0746236A49
:10090000AA1AE0709A420ED2A678012E01D80AE007
:10091000236A1D44013E012341462A466078FFF7C1
:1009200007FF012EF4D13846BDE8F0810127384693
:10093000BDE8F08170B5C37804465BB92378032B1A
:100940000FD0002260781146FFF700FF003818BF73
:10095000012070BDFFF7C4FF0028FAD12378032BD4
:10096000EFD12579012DECD104F138064FF4007256
:100970000021304619F074FB55233146722684F865
:1009800036322B466569612084F81C62522284F855
:100990001D622E0A84F83A0084F81F0284F820525F
:1009A000206984F821622E0C2D0E84F8382084F8FA
:1009B0003920412284F82352050A84F83B2084F828
:1009C0001E2284F82402626A84F82552050C000E67
:1009D000013284F8226284F82702AA20626384F834
:1009E000370284F826526078FFF7A2FE00232371B5
:1009F000A7E700BF38B5C37804460D4663B90123A5
:100A00002A4604F138016078FFF784FE10B1012016
:100A10004FF0FF35656338BDFFF762FF0028EED069
:100A200038BD00BF70B54FF0FF3600230446B14219
:100A3000C37046630CD00D460A46012300F138010D
:100A40004078FFF767FE10B10420666370BD6563F0
:100A50004AF65523B4F836229A421AD194F838301F
:100A6000E92B07D0A36B0D4A03F0FF13934201D08B
:100A7000022070BDD4F86E30094A23F07F439342C0
:100A800009D0D4F88A00074B984214BF02200020F6
:100A900070BD032070BD002070BD00BFEB00900052
:100AA00046415400464154330023F0B50B6085B0F5
:100AB0000E461446FFF756FE051EC0F2BC808C4B56
:100AC00053F82570002F00F0C380376004F0FE0457
:100AD0003B787BB17878FFF701FEC6070AD4002C7B
:100AE00000F0A28010F0040400F09E800A2420464A
:100AF00005B0F0BDE8B2002378703B70FFF7F8FD59
:100B0000C50700F194800CB14407EFD400213846AA
:100B1000FFF788FF02286DD0042800F0908001289C
:100B200000F281800025B7F84330B3F5007F7AD119
:100B3000B7F84E2002B9FA6D97F848303A62591E5C
:100B4000BB7001296FD897F8451088B278810028CA
:100B500069D0481E084266D1B7F8496030073E8127
:100B600061D1B7F84B0000B9B86DB7F846E0BEF1F7
:100B7000000F58D002FB03F30EEB16141C44A042E6
:100B800051D3001B8842B0FBF1FC4CD34FF6F571FA
:100B90008C455FD840F6F5710EEB05002C447D6264
:100BA0008C450CF102013C63F961B86273D8002EE8
:100BB00039D0034401EB410001F00101FB6201EB7C
:100BC0005001012001F2FF11B2EB512F2BD34FF056
:100BD000FF338022C7E904333A71464A0021464C6C
:100BE0001388FC600C4601333870B9619BB21380E6
:100BF000FB8019E06C4607F5FB7307F236252046AB
:100C00001A79114602B19968103340F8041B9D42CD
:100C1000F6D104F1100654F8045B03208DB9B442F8
:100C2000F9D104280BD00D24204605B0F0BD0324D3
:100C3000204605B0F0BD0B24204605B0F0BD0124D0
:100C4000F2E729463846FFF7EDFE0128E7D86AE7C4
:100C50000C24E9E70EEB05010CF102032C447D6244
:100C6000B962B7F862103C633143FB61DBD19B0092
:100C7000796E03F2FF13F962B2EB532FD3D3B7F8B7
:100C800068204FF0FF338021012A3971C7E904330E
:100C900008D00320A1E7002EC5D00344490002205C
:100CA000FB628FE7691C7B6B994204D03846FFF7E3
:100CB000A1FE0028EDD14AF65523B7F836220021CF
:100CC0009A423971E5D1BA6B0C4B9A42E1D103F1EA
:100CD000FF53D7F81C2203F5005320339A42D8D192
:100CE000D7F820220320D7F82432C7E9043274E76A
:100CF000A0070024A8070024AC0700245252614139
:100D00002DE9F843037804460D461646022B06D01B
:100D1000032B6AD0012B27D00220BDE8F883876A15
:100D2000436B07EB11279F4200F09080C378002BA4
:100D300040F0B68004F1380801233A466078414615
:100D4000FFF7E8FC00284AD167636D00C6F307226D
:100D50000123002005F4FF7508EB050108F8056084
:100D60004A70E370BDE8F88301EB5107826A436B78
:100D700002EB5728984563D0C378002B40F08A8057
:100D800004F138090123424660784946FFF7C2FC66
:100D900028BBC4F8348015F0010507F10108C7F33A
:100DA00008075ED019F8073003F00F0343EA061373
:100DB00009F807300123A76AE37007EB5827636B34
:100DC0009F4278D02046FFF78BFD0028A5D1012354
:100DD0003A4649466078FFF79DFC002839D04FF02D
:100DE000FF3301206363BDE8F883826A436B02EB43
:100DF000D118984527D0C378002B57D104F1380774
:100E00000123424660783946FFF784FC0028E6D18A
:100E1000C4F83480AD0026F0704205F4FE757B59AD
:100E2000791903F070431A43130C7A55100A8B702A
:100E3000120E01234870CA700020E370BDE8F883E9
:100E400000F13809A7E700F13807E3E700F13808B7
:100E50007BE7C8F30801676349447DB1C6F3071215
:100E600012E009F807600123A76AE37007EB58272F
:100E7000636B9F42A6D1C8F3080149440B78C6F3BF
:100E8000032223F00F06324301230A700020E3708F
:100E9000BDE8F883FFF724FD00283FF471AF3CE77D
:100EA000FFF71EFD00283FF445AF36E7FFF718FDBA
:100EB0000028A3D031E7C8F3080309EB0301CDE70D
:100EC00001294CD9C36999422DE9F0410C460546E8
:100ED00002D30120BDE8F0810378022B5AD0032B06
:100EE0003FD0012BF5D101EB5106826A436B02EB37
:100EF00056279F420ED0C378002B79D101233A4662
:100F000005F138016878FFF705FC00285FD1AA6A6F
:100F10003B466F63771CC6F3080602EB57282E4446
:100F2000434596F838600DD0EB78002B65D101234E
:100F3000424605F138016878FFF7ECFB002846D1FE
:100F4000C5F83480C7F30807E3073D4495F8380037
:100F500046EA00204CBF0009C0F30B00BAE70120AD
:100F60007047866A436B06EBD1169E4229D0C37840
:100F700093BB05F138070123324668783946FFF7FD
:100F8000C9FB20BB6E63A40004F4FE74385920F042
:100F900070409FE7866A436B06EB11269E4213D092
:100FA000C37803BB05F13807012332466878394618
:100FB000FFF7B0FB58B96E63640004F4FF74385B4C
:100FC00088E700F13807DEE700F13807F4E74FF073
:100FD000FF3318466B637DE7FFF782FC0028C8D01B
:100FE0004FF0FF3076E7FFF77BFC0028DAD0F7E719
:100FF000FFF776FC002881D0F2E72846FFF770FC67
:10100000002894D0ECE700BF0129F8B50E4605682A
:101010002AD9EB698B4227D90746114632BB2846AD
:1010200014E0EB699E4226461ED2FFF769FEE0B946
:10103000EB696A69991E501C8A4204D22A79686158
:1010400042F001022A71A3421CD938683146FFF7E9
:1010500037FF04463146002228469CB1012C03D0BC
:10106000631C11D0012EDCD80220F8BD9342FBD9BD
:10107000012AF9D04FF0FF322846FFF741FE002841
:10108000E3D0F8BD0020F8BD0120F8BD2DE9F04106
:1010900005460F46066800294BD1D6F81080F36943
:1010A000B8F1000F35D14FF00108444606E00128A1
:1010B0003AD0431C38D0444538D0F36901349C42BF
:1010C00004D3B8F1010F4FF002042FD02146286855
:1010D000FFF7F6FE0028EAD1012C24D9F3699C42DF
:1010E00021D24FF0FF3221463046FFF709FE00B90A
:1010F000A7B950BBF3697269023B34619A4201D8C7
:10110000013A72613379204643F001033371BDE83F
:10111000F081434598BF4FF00108C6E7012F02D088
:10112000F3699F4216D30120BDE8F0810020BDE89D
:10113000F0813046FFF7C4FE0128F4D9421C06D0E6
:10114000F3698342F0D8B846AFE70128EBD14FF0FE
:10115000FF30E9E7224639463046FFF7D1FDC8E7C0
:101160002DE9F04F056983B083692035B5F5001F7F
:101170003BD2002B39D0C5F3080804460768B8F104
:10118000000F08D007F13806464400202561E661CB
:1011900003B0BDE8F08F0E4601334169836141B36E
:1011A000B7F80A9009F1FF3919EA5529EAD138460A
:1011B000FFF786FE0128834623D9B0F1FF3F5DD0BB
:1011C000FA6982421FD9831E07F138060193023A59
:1011D0000199C4F814B08A4204D9B7F80A903B6B5D
:1011E00001FB0939C4F81890CEE7042003B0BDE82C
:1011F000F08F3B89B3EB551FC4D800230420A361B3
:10120000C6E70220C4E7002EF7D061692046FFF749
:101210003DFF8346002839D00128F2D0B0F1FF3FCE
:101220002CD0FA78002A33D107F13806ABF102034B
:101230004FF4007200213046019318F011FFF86955
:10124000019B821E934229D279893A6B019B03FB51
:1012500001227A6329B34FF0000A05E07A6B78899E
:10126000013250457A630BD94FF0010338460AF139
:10127000010AFB70FFF734FB0028EFD0012087E75D
:10128000F869A2EB0A027A630246A0E707207FE72B
:101290003846FFF725FB0028C6D0EFE77989002202
:1012A000D7E78A46EDE700BF2DE9F04704464FF047
:1012B000FF08042025684646D4F8189005F1380741
:1012C000B9F1000F32D06B6B4B4513D0EB78002B8C
:1012D00064D101234A4639466878FFF71BFA38B1D2
:1012E0004FF0FF3301206B630023A361BDE8F0875B
:1012F000C5F83490E1690A78002A58D0CB7AE52AFB
:1013000003F03F03A37105D02E2A03D023F0200061
:10131000082810D1FF2600212046FFF721FF0028D2
:10132000E2D1D4F81890B9F1000FCCD10028DBD16C
:101330000020BDE8F0870F2B46D1500634D5236935
:1013400002F0BF0691F80D80E3624B7B4345E1D18B
:101350004B8B002BDED10B780122DFF894E04FF6A7
:10136000FF7A23F04003D5F80C900EF10C0C013BF2
:1013700003EB430003EB8003104609E0FE2B10460D
:10138000C8D829F813200133E64512D01EF8012FE2
:101390008A5A0028F2D15245F6D0BBE72846FFF71B
:1013A0009FFA002895D09FE7B242B3D1CDE7042041
:1013B0009AE70A78520604D5FE2BABD8002229F80A
:1013C0001320013EF6B2A6E76EB901F10B02F3015C
:1013D00043EA560611F8013B53FA86F69142F6B2FB
:1013E000F5D14645A4D04FF0FF330020E3627DE7FE
:1013F00008D00108B1F5001F42D2CA06F8B50D4663
:1014000020D18168064607680561E9B17B89B5EBA3
:10141000432F4FEA432435D3384607E0012811D93A
:10142000FB6983420ED9AC422DD83068FFF748FDE6
:10143000431CA5EB04050146F0D10120F8BD0023B3
:10144000C6E905130220F8BD3B78022B13D83B896F
:10145000B3EB551FF6D9FA6AB2617161002AF1D077
:1014600007F13803C5F3080102EB552200200B44B5
:10147000C6E90623F8BDFB6A002BE8D01946C5E78C
:1014800002207047FB69023B881E9842D7D27B89B5
:101490003A6B00FB0322B261DFE700BF2DE9F04F9A
:1014A0000021054607682DED028B85B0FFF7A2FFEE
:1014B000C8B94FF0FF094FF0FF3307F13808CA46AB
:1014C000EB62AC697B6B9C4213D0FB78002B4FD155
:1014D0000123224641467878FFF71CF940B14FF0CE
:1014E000FF3301207B6305B0BDEC028BBDE8F08FBC
:1014F0007C63EC692678002E00F0AB80E27AE52E62
:1015000002F03F03AB7103D0100711D50F2B39D078
:101510004FF0FF334FF0FF0AEB6200212846FFF740
:101520001FFE0028CDD005B0BDEC028BBDE8F08FCA
:101530000F2B27D0BAF1000F77D095F82B0010F0C1
:101540000100E5D195F8201005F1210214F8013BC6
:1015500005F12B065B1A002BDAD112F8011B14F8E7
:10156000013BB242A3EB0103F5D1002BD0D1BAE786
:101570003846FFF7B5F90028AAD005B0BDEC028BBC
:10158000BDE8F08F95F82B305906C6D4720647D5C2
:101590002B6906F0BF0694F80D90EB62637B4B4518
:1015A00040D1638B002B3DD194F800A00123F96852
:1015B00008EE108A0AF03F0A029601950E460AF1DB
:1015C000FF3ADFF8C0B0184625460AEB4A020391FD
:1015D00000970AEB820A13E0BAF1FE0F204618D8F2
:1015E00001F012F9804636F81A00BA4601F00CF9FB
:1015F000804520460DD1224B9B452CD01BF8013F46
:101600000AF10107EC5A0028E6D14FF6FF739C421D
:10161000F1D0DDE9007518EE108A4FF0FF0A7CE783
:10162000B245BBD04FF0FF0A77E704F10B0022462A
:101630004FEACA1312F8011B43EA5A0A824251FACE
:101640008AFA5FFA8AFAF3D1D1457FF476AF0020A7
:1016500049E7042047E72C46009F029E18EE108AB7
:101660002378019D5B0600D520B906F1FF3A5FFAA9
:101670008AFA52E7039B33F81A30002BF5D0D1E7F2
:1016800014D0010808D001082DE9F04F0B7883B081
:101690000E4607462F2BD0F800B037D05C2B37D042
:1016A000DBF81830836033781F2B3AD95A461F2B4A
:1016B000D56898B240F22181A5F10209B046012413
:1016C00008E029F8020F631C18F8010F1F2840F2E8
:1016D0001A811C462F2804F1FF3A2CD05C282AD00E
:1016E000B4F5807F0ED0012101F06EF850B17F2853
:1016F000E7D82223B14A03E012F8013F002BE0D0E3
:101700009842F9D1062003B0BDE8F08F16F8013FEA
:101710002F2BFBD05C2BF9D00023BB6033781F2B21
:10172000C4D880230021384687F82B3003B0BDE8A9
:10173000F04FFFF75FBE335D32195C2B02D02F2BC9
:1017400040F05C81631C33441E4613F8012B2F2AA2
:10175000FAD05C2AF8D0BAF1010F4FF0000800F07F
:10176000DA80BAF1020F40F0DC806B882E2B00F09B
:101770001381934A05EB420205E0BAF1010A00F039
:10178000BC8032F8023D202BF7D02E2BF5D04FF045
:101790002033002225F81A207B623B62C7F82730ED
:1017A0002888202802D02E2840F0FC802A460023DA
:1017B00032F8020F1C4601332028F9D02E28F7D02A
:1017C00048F00308023405EB4A0333F8022D2E2AB1
:1017D00002D0BAF1010AF8D190B300230822BC4626
:1017E000314699461F462E465B461546E3460A4655
:1017F000202803D02E283AD1544538D048F0030889
:1018000036F8140001340028F2D159469B463B4675
:1018100016460F4691F820102A46E52902D10521E7
:1018200087F82010082A00F0958003F00C020C2A9B
:1018300004D003F00303032B40F0968048F0020825
:1018400087F82B803846FFF729FE97F82B3060B3D6
:1018500004287FF458AF9C0640F1E48059073AD53C
:101860008023002087F82B3003B0BDE8F08F4D4572
:1018700034D9A4EB0A01B1FA81F1490971BB7F287F
:1018800058D82B21DFF840C103E01CF8011F0029C4
:101890007AD08142F9D148F003085F200BEB0901AF
:1018A00009F1010981F82000AAE75A073FF52BAF9B
:1018B000BB79DB0640F1B4803B699BF80010C3F3B1
:1018C00008020BF13803032913445A8B02D19B8A77
:1018D00042EA0342BA603A683378E8E60B2D00F03A
:1018E0008F80544502D048F003088ED8BF0054467C
:1018F0000B254FF00809FFB282E7002306202B805A
:1019000003B0BDE8F08FA2461E444FF00408BAF1C0
:10191000010F7FF426AF2B882E2B45D04FF00042CD
:1019200028E7BAF1000FE8D06FF00042524435F8D2
:1019300012301FE7CDE9003200F046FFDDE900324A
:10194000F8B1204948F00208084410F8800C00283B
:10195000A1D096E79B0003F00C020C2A3FF46EAF77
:1019600018F0020F08D06BE718F0020F7FF468AF91
:10197000012B08BF48F01008042A08BF48F00808E7
:101980005EE748F0020886E7A0F1410119292CD84A
:1019900047F00207C0B281E72A882E2A7FF4E9AE19
:1019A000042302E001240EE7022300222E2420203B
:1019B000EA5207F1200201230DE000BF74CF0108B5
:1019C0000100008088CF010880CF01080B2B107028
:1019D00006D001330132591E8A45F7D91470F8E751
:1019E00048F0200887F82B802CE7A0F16101192925
:1019F0009CBF203847F00107C0B24FE71646AAE661
:101A0000594616469B4648F0030891F820203B466D
:101A10000F46E52A7FF409AF052281F8202004E76C
:101A2000052070E613F0040F08BF05206BE600BF29
:101A30002DE9F04F2DED028B90F82B308BB013F089
:101A4000A002009340F03081D0F800A00646DAF8FA
:101A50000CE0BEF80030002B00F0C98193467246BE
:101A600032F8023F0BF1010B002BF9D106F12003F4
:101A70000DF11C0893E8070088E80700009A02931C
:101A8000D1076DD56FF01F054022B1460127AD1B70
:101A900086F82B20AE4C7346029EB446052F98E87C
:101AA0000700ACE803002CF8022B4FEA12428CF836
:101AB000002071D9198800296ED09C463B46102021
:101AC00001F00102490802EB4303DA0348BF634017
:101AD0000138F5D13CF8021F0029F0D10DF11B0CA3
:101AE000072203F00F004FEA131E013A00F1300104
:101AF000392988BF00F137010F2B73460CF8011903
:101B0000EFD802F128037E216B4403F8141C002A4D
:101B100044D009F11F01002302E001339A4203D0AF
:101B200011F8010F2028F8D120334B4402F128018D
:101B3000072A0DEB01004FF0200102D810F8141C09
:101B4000013203F8011BE9180729EFD94846FFF7CE
:101B5000A5FC28BB0137642F16D0DAF80C309CE7BF
:101B6000009B54469B0726D57A4B0BF10C070021AE
:101B70003046A3FB0737FFF73DFC8146BF0801371E
:101B800008B3042840F03A814FF0070948460BB0EB
:101B9000BDEC028BBDE8F08F3B469FE71346C3E7E1
:101BA00004284E468146F1D1009B346886F82B30DC
:101BB000009B9B07D8D400213046FFF71BFC012770
:101BC00081460028DDD1054604F13808D6F818B062
:101BD000636B9B4516D0E378002B5FD101235A46F7
:101BE00041466078FEF796FD50B14FF001094FF085
:101BF000FF33484663630BB0BDEC028BBDE8F08F4A
:101C0000C4F834B0F3691B78E52B0BD0B3FA83F238
:101C100052093BB1154601213046FFF7A1FA0028D1
:101C2000D4D0AEE70135AF42F5D17B1E00933ED153
:101C3000B469DAF834309C4211D09AF80330002BA2
:101C400040F0DE80012322460AF138019AF80100B3
:101C5000FEF760FD002840F0C380CAF8344020221F
:101C60000021F06918F0FCF9F36906F12B01029AE2
:101C7000013B12F8010B914203F8010FF9D196F8DC
:101C80002B300122F169484603F018030B738AF8E0
:101C900003200BB0BDEC028BBDE8F08F2046FEF7B1
:101CA0001FFE00289AD06CE74FF006096EE73169F5
:101CB0003046009BA1EB4311FFF79CFB01900028ED
:101CC00040F0A68006F12B01029AC30143EA5003BB
:101CD00012F8010B50FA83F38A42D8B2F5D10AF117
:101CE0003803DFF874B0019008EE103ACDF80C908C
:101CF000B469DAF834309C420FD09AF80330002BE4
:101D000077D10123224618EE101A9AF80100FEF747
:101D100001FD002864D1CAF834409DF800900F27D7
:101D2000F169002509F1FF30DAF80CE0CF722B469B
:101D300000EB4002019F01244FF6FF7800EB820088
:101D40004FF0FF0C2A464F730D738D76CD761DE054
:101D5000211001004FECC44E08D001083EF81030AD
:101D6000180A0B5568705BB901324FF6FF730D2AE4
:101D700023D01BF802000C1801F800C084F801C041
:101D8000013238460D2A11D01BF80240434501EBC1
:101D9000040500F10107E1D1013201F804C0074652
:101DA0000C440D2A384684F801C0EDD14FF6FF727D
:101DB000934202D03EF817300BB949F04009012395
:101DC00081F80090304600218AF80330FFF7C8F907
:101DD000A0B9009B013B00938AD1DDF80C9027E766
:101DE0004FF0FF334FF00109CAF83430CEE69B467E
:101DF0003CE65046FEF774FD002882D08146C5E6D9
:101E00005046FEF76DFD00283FF41CAF8146BDE64D
:101E1000DDF80490BAE600BF30B585B015460190F4
:101E200003A800910391FEF79DFC031E1BDB0F4CE2
:101E300054F8231009B100220A70019959B1002207
:101E4000012D44F823100A700AD101A96846FEF753
:101E50002BFE05B030BD084644F8231005B030BD58
:101E6000104605B030BD0B2005B030BDA0070024E2
:101E70002DE9F04790B00191002800F0838002F036
:101E80003F071646044603A901A83A46FEF70CFE92
:101E9000054628B100232360284610B0BDE8F0872E
:101EA000039B04A801990493FFF7EEFB80B99DF909
:101EB0003B30002B6BDB16F01C0F10D09DF816305A
:101EC00013F0110F65D1730740F1CA800825E1E7CF
:101ED00016F01C0F01D004285FD00546DAE79DF804
:101EE0001630DA0657D4B10701D5DA0751D4DDF838
:101EF0000C903B0748BF47F04007D9F834302362C5
:101F00000B9B636299F800205E8B032A02D19A8AA8
:101F100046EA02460021A66004F12C0AD3F81C8090
:101F2000B9F806304FF4007227745046C4F8009098
:101F3000C4F80C80A162A3806174E161616118F052
:101F40008FF8BF06A8D5B8F1000FA5D0B9F80A30B0
:101F5000C4F81480B8EB432F4FEA432706D884E037
:101F6000701C00F0B880474580F0B580314620688D
:101F7000FEF7A6FF0128A8EB07080646F0D80225C1
:101F8000A06187E70925284610B0BDE8F08706253F
:101F900080E707257EE704257CE704A847F00807CB
:101FA000FFF746FD002898D106F010FB0B9BC6B248
:101FB000C0F30742C0F30721000E9E734FF0200CC0
:101FC000D9731A7458740B9BDDF80C909E75D975F3
:101FD0001A7658760B9B83F80BC099F800200B9B60
:101FE000032A5E8B02D19A8A46EA024600229A763A
:101FF000DA7699F80010032901D11A755A750B9BEE
:1020000000221A775A779A77DA77012389F8033012
:10201000002E3FF46EAF04A83146D9F83480FEF7A5
:10202000F3FF00287FF459AFDDF80C90D9F8343075
:1020300098453AD099F80330002B42D1012342460B
:1020400009F1380199F80100FEF764FB88B34FF0FD
:10205000FF31039B01250E44C9F834101E6119E7B6
:102060003007A1D4DDF80C9047E7A661C8F3080358
:10207000002B3FF411AF0398023EC369023B9E421E
:1020800004D24289036B06FB02320AB9022501E73A
:1020900002EB582251460123E2614078FEF73AFBF9
:1020A00000283FF4F9AE0125F4E6013EC9F81060BE
:1020B0001FE7013EC9F83480DDF80C90C9F81060C4
:1020C00017E74846FEF70CFC0028B7D0039B013EFB
:1020D00005461E61DEE6711CA6610CBF01230023CC
:1020E000C4D11D46D6E600BF2DE9F04F1E4687B08D
:1020F0000023884605A9044633601746FEF75CFBBB
:102100000546002861D1657C002D5ED194F810A0B1
:102110001AF0010A00F0A1806069E3681B1A9F426F
:1021200028BF1F46002F50D004F50B7304F12C0B71
:10213000CDE90135C0F3080363BB0599430A4A8919
:10214000013A12EA502244D0A069CB690238023B1E
:1021500098424BD2B1F80AC00B6B0CFB0030002840
:1021600044D0B7F5007F02EB000946D2E2694A4548
:102170000BD094F91030002B71DB487801234A46CC
:102180005946FEF7C7FA002860D16369C4F81C906D
:10219000C3F30803C3F5007C5B4408F1FF32BC4580
:1021A00028BFBC4603EB0C0013F8011B834202F866
:1021B000011FF9D16069B7EB0C073368E044604454
:1021C000634460613360B5D1029D284607B0BDE825
:1021D000F08F38BBA068012808D9431C36D0059978
:1021E000A0610238CB69023B9842B3D302231D465B
:1021F0006374284607B0BDE8F08F02EB57207D0AD4
:1022000060454878414688BFACEB02054A462B46FC
:10221000FEF780FAD0B994F91020002A33DB4FEA98
:10222000452CC7E7A06A38B3216804304989B3FB5D
:10223000F1F3016829B9D9E75B1A50F8081F0029A2
:10224000D4D08B42F8D240681844C4E755460123E5
:102250002846637407B0BDE8F08F0725B5E74878D6
:1022600001235946FEF764FA0028EFD1237C059933
:1022700003F07F03237480E7A16920680392FEF7CF
:102280001FFE039AA7E7E269A2EB0909A945C6D296
:1022900008EB492904F12C01019809F1FF3211F8EA
:1022A000013B814202F8013FF9D1B8E770B3F8B5BC
:1022B000036804462BB11A781AB18188DA889142F2
:1022C00001D00920F8BD5878FEF708FAC207F8D403
:1022D000237C13F04000F5D01B06266847D406F097
:1022E00075F9276A736B05469F4212D0F378002B6D
:1022F0004AD101233A4606F138017078FEF70AFA0E
:1023000030B14FF0FF3301207363F8BD09207047EF
:102310007763636ADA7A42F02002DA72A26821688F
:10232000C2F307209A76D8760978032903D1120CD4
:102330001A75120A5A75E26830469D75110A1A77A5
:102340005977110C120E9977DA772A0ADA752A0C66
:102350002D0E1A7600225D769A74DA740123F370DA
:10236000FEF7E8FA237C23F040032374F8BD012331
:10237000E26904F12C017078FEF7DAF950B9237C98
:1023800003F07F032374AAE73046FEF7A9FA00287A
:10239000AFD0F8BD0120F8BD10B582B00446FFF7FC
:1023A00085FF08B102B010BD01A92046FEF704FA6E
:1023B0000028F7D1206002B010BD00BF2DE9F04F1A
:1023C00085B00D46044603A9FEF7F6F9064660B946
:1023D000667C56B9A36A63B16F1C6ED0E268954201
:1023E00028BF15466561002D4CD1304605B0BDE8CB
:1023F000F08FE368AB4204D2227C12F0020F08BFD8
:102400001D46002263696261002DEED0039AB2F886
:102410000A804FEA4828002B49D0013B6A1EB3FBD3
:10242000F8F1B2FBF8F28A4241D3C8F10002A76981
:102430001340ED1A6361002F00F0B680454513D8B4
:10244000E6E0FEF723FE0746002800F0AC807B1C88
:102450006FD0012F66D9039BDB69BB4262D9A845C7
:102460006369A76180F0D480227C434439462046CA
:102470009207A5EB08056361E3D42068FEF720FD11
:102480000746E4E7681E2268191D5B68400A528906
:10249000B0FBF2F22BB950E0D21A51F8083F002BF2
:1024A0004BD09342F8D94B6813449A1E47E0A76873
:1024B000002F6CD00023A761BDE71F46D4F8088029
:1024C0004FF0020957F804ABB8F1000F17D1D1450E
:1024D000C3F8009000F28A8000233B6085E709F191
:1024E0000209CA4505D33B4643F808BBC7F8048038
:1024F0001F46039BDB698B4240F2B1808846414610
:102500004FF0000B03E0481C13D08D42E7D1206848
:102510000D46FEF7D5FC01280BF1010B05F1010575
:102520000146F0D802231E466374304605B0BDE86C
:10253000F08F01231E46637457E76FF00102039F7B
:10254000A361FB69023B9342ECD979893B6B02FBA7
:102550000133002BE6D0C5F30805002D3FF445AF4D
:102560000139E2690840C518AA423FF43EAF94F928
:10257000103004F12C01002B60DB012378782A460F
:10258000FEF7C8F806460028D3D1E5612DE73946A5
:102590002046FEF77BFD01280746C3D0411CC8D06A
:1025A0006369A06087E76369E2689A4259D2227C36
:1025B000E360C3F3080342F040022274002B3FF4AF
:1025C00014AFE269BA423FF410AF94F91030002B17
:1025D0000EDB04F12C01039A012350783A46FEF7F2
:1025E00099F806460028A4D1E761FEE61126FCE62C
:1025F000039B04F12C01587801230191FEF798F810
:10260000002896D1237C019903F07F032374E2E72D
:102610002B44C5F308026361FAB10399B81ECA6975
:10262000023A9042BFF47EAF4A890F6B00FB0277FB
:10263000002F3FF477AF07EB5527B5E778780123F4
:102640000191FEF775F800287FF473AF237C039F98
:1026500003F07F03019923748FE71746A4E7A36A69
:1026600035E7C3F30803A9E710B584B0019100284A
:1026700032D00446002203A901A8FEF715FA18B1CA
:102680000023236004B010BD039B20460199236002
:10269000FEF7FAFFE0B994F92B30002B1FDBA3798A
:1026A000DB0617D5039BE16918784A8B032802D112
:1026B000898A42EA0142A260DB8800212046A38089
:1026C000FEF798FE042805D00028D9D104B010BD2B
:1026D0000428D5D10520D3E7092004B010BD039B01
:1026E000EAE700BF98B1036810B504462BB11A7829
:1026F0001AB18188DA88914201D0092010BD58783A
:10270000FDF7ECFF10F00100F7D1206010BD0920AB
:10271000704700BF20B3036870B5044633B11A7820
:1027200022B10D46DA888188914201D0092070BD1E
:102730005878FDF7D3FFC307F8D49DB12046FEF7C4
:10274000B3FD10F0FB06F2D129462046FEF74CF807
:1027500031462046FEF704FD042808BF002070BD66
:102760000920704729462046BDE87040FEF742BE6A
:10277000144B9A7B012A01D90120704793F80EC0AF
:1027800000225FFA8CFC03F80C2093F80EC003EBD8
:102790008C0CCCF8040093F80EC0987B9C448CF809
:1027A0000C2000F1010C30305FFA8CFC83F80EC075
:1027B0004FF03A0C2F23087081F801C010468B703F
:1027C000CA707047AC0900247F2814D981B90D4A1A
:1027D000C72303E080290DD032F8023F98421FFA48
:1027E00081FC01F10101F5D10CF1800080B270474C
:1027F000FF2801D900207047024B803833F81000C1
:10280000704700BF18D00108B0F5805F244A41F638
:102810007D51244B34BF6121134610B5043303E0CE
:102820000433DAB133F8041C1C46B1B1884214D326
:1028300033F8022C5FFA82FC120A0CEB010E704591
:10284000EEDA082A09D8DFE802F00512181B1E216B
:1028500024270E00411A33F8110010BD04EB4C037D
:1028600034F81C10DAE7A0F5E35080B210BD431A2B
:1028700003F00103C01A80B210BD103880B210BD41
:10288000203880B210BD303880B210BD1A3880B206
:1028900010BD083080B210BD503880B210BD00BFEE
:1028A0000CD3010818D10108704700BF704700BF62
:1028B000704700BF704700BF704700BFF7EE007A57
:1028C00010B5B4EEE70A04462DED028BF1EE10FAD6
:1028D00069DD9FED427AB4EEC70AF1EE10FA6ADDC7
:1028E0009FED3F0A9FED3F6ADFED3F6A3F4BF7EEFA
:1028F000008A94ED087AFEEE007A9FED3D8A4FF053
:102900008042236338EEC77A84ED0D6AC4ED0E6A07
:10291000226027EE277A84ED028A84ED097A16F088
:102920009FFB94ED0D7AD4ED027A84ED0A0A87EECE
:10293000270AB1EE400A16F093FBD4ED006A94ED3D
:102940000E7AC8EEA67A84ED038A84ED080AC7EEF3
:10295000086A38EEC07A77EEE87A67EE877AB1EEE9
:10296000660AC4ED097A16F07BFBFAEE087A94ED5C
:10297000006AB6EE007A012384ED078AC7EE866A04
:10298000C4ED017A84ED068A84ED0B0A84F83C30AC
:10299000BDEC028B77EEE67AF0EEE77A67EE877AA7
:1029A000C4ED047A10BDBAEE040A0123B0EE006A49
:1029B000F0EE676A9BE7BDEEC07ADFED0D5AB0EE30
:1029C000005A17EE103AB8EEC77AC7EE876A85EE5E
:1029D000076A86EEA50AB1EE400A88E700803B4808
:1029E0000D745AB83EC32E373EC3AE3600EE020019
:1029F000CDCCCC3DB0EEC06AD0ED066AF7EE007AE1
:102A0000F4EEC66A10B5F1EE10FA04462DED048B13
:102A1000C8BF90ED0B7A82B0D8BF90ED0A7AF0EE85
:102A2000408A01A8D4ED089A77EEC77A94ED079A08
:102A300094ED098A67EE867AE6EE877AC4ED067A27
:102A4000B0EEE70A16F07EFBDFED206A9FED207AFC
:102A5000B3EE043ADFED1F5AA0EE267ADFED1E7AC0
:102A6000DFED1E2A94ED016ADFED1D3AD4ED046A14
:102A70009FED1C4AB0EE475A9DED017ADFED1A4AF0
:102A8000B8EEC77AE0EE055AE0EE257A77EE277ABF
:102A9000B0EE467A67EEA27A97EE837AC7FE237A83
:102AA00068EE277AE9EE897A37EEA67AC4ED077ADE
:102AB00027EE047A27EE240A16F0D2FA84ED050AEE
:102AC00028EE800A02B0BDEC048B10BDA8A19D3F8A
:102AD000F5CA83C0FBB3C040E09248C09B209A3E39
:102AE00000000000CDCC4C3D8E5D13402DE9F84335
:102AF000904689464A6843460968184800F014FD24
:102B0000D9F80040B8F1000F26D00025144F94EDFD
:102B1000000A2E4612480135FFF76CFFF4EC017AEB
:102B200097ED057AA84567EE877A44ED017AEED1F4
:102B3000D9F80440002594ED000A0948FFF75AFF30
:102B4000F4EC017A97ED057AB54205F1010567EEDF
:102B5000877A44ED017AEED1BDE8F883C8B300244A
:102B6000C009002410B59FED101A82B00F4CB0EED2
:102B7000410A8DED011AF0EE410A204602F0C0FB39
:102B8000A4F1D80000F054FE9DED011A2046BFEEDE
:102B9000000AF0EE410A02F0B3FB0A2002B0BDE8E1
:102BA000104005F0C7BD00BF00000000BC2100249C
:102BB00038B5244C2DED028BDFED238AA4F1D80526
:102BC00020469FED228AB0EE681AF0EE680AB0EE59
:102BD000680A02F095FB284600F02AFE642005F002
:102BE000A9FDB0EE481AF0EE480A2046B0EE480AB9
:102BF00002F086FB284600F01BFE642005F09AFDDB
:102C0000B0EE681AF0EE680A2046B0EE680A02F0EC
:102C100077FB284600F00CFE642005F08BFDB0EE3B
:102C2000481AF0EE480A2046B0EE480A02F068FB67
:102C3000284600F0FDFD6420BDEC028BBDE8384065
:102C400005F078BDBC21002400007F430000000097
:102C5000124B1348B3F92420996AB1FBF2F170B515
:102C6000104D114C296002F0C5FA104B204693ED2F
:102C7000000A00F0E5FB0E4B204693ED000A00F041
:102C800007FC2046012100F0D5FB2B682046094AAD
:102C90000949BDE8704000F091BB00BF2C1C002426
:102CA000C8D30108BC090024C8B3002404000024D0
:102CB00008000024000000C0000000C110B5314C25
:102CC00031482DED028B00F0ADFD2046FFF7F6FDFB
:102CD000DFED2E7A94ED0E6AB7EE008A94ED087A55
:102CE00086EE270ADFED2A6A2A4BC4ED027A2360BA
:102CF00038EE477A27EE267A84ED097AB1EE400A5B
:102D000016F0AEF994ED0D7AD4ED027A84ED0A0A4C
:102D100087EE270AB1EE400A16F0A2F9D4ED006A58
:102D20009FED1D7AC8EE267A94ED0E6A84ED037A43
:102D300084ED080AC6EE076A38EE407A77EEC87A64
:102D400067EE877AB1EE660AC4ED097A16F088F963
:102D5000FAEE087A94ED006AB6EE007A012384ED6B
:102D60000B0AC7EE866AC4ED017A84F83C30BDECEC
:102D7000028B77EEE67AF0EEE77A67EE877AC4EDBB
:102D8000047A10BDC0090024E42000240AD7233CA3
:102D9000AAAA2ABF00004040CDCCCC3D70B500218E
:102DA00088B03D4800F0E4FD012002F031FA042132
:102DB000394800F00BFD0321374800F01DFDFFF7F7
:102DC0007DFFFFF7CFFEFFF7CDFE3448344A35498B
:102DD00000F0F0FA314800F00DF9002851D0FFF76B
:102DE000E7FE2E4800F02AF9002845D0FFF7E0FE64
:102DF00006212A4800F0B6FA002847D0FFF728FF3E
:102E0000254800F011FD28492348002400F0DCFC8F
:102E1000264802F0EFF94FF0FF3304A903A8069308
:102E20008DF81C400394CDE9044404F011FB03A881
:102E300004F098FB014603A8019104F08FFB0546BE
:102E40001B4805F079FC03A804F088FB06462A46D7
:102E50000199751B174802F0CDF931462A461648EC
:102E600002F0C8F903A804F06DFB0146134802F014
:102E7000C1F9204608B070BD114802F0BBF901202D
:102E8000F8E7104802F0B6F90120F3E70E4802F027
:102E9000B1F90120EEE700BFE42000242C0C00244F
:102EA000000000C0000000C1ED2A000844D4010861
:102EB00000C2EB0B5CD401086CD401087CD401087F
:102EC0002CD4010818D40108FCD30108F8B5384FF8
:102ED0000025384C384A3846384916F059F804F578
:102EE000C070256065612562E56302F0C7F9344A68
:102EF00040F20F733349C4F8382204F51472A4F871
:102F00003C3240F201132046C4F89051C4F84852B4
:102F1000C4F84C522C4EC4E99023274A16F038F8D6
:102F20002A4B2B494FF07E502A4A06F2C45E596064
:102F30004FF496511F609C60316101215D61F06129
:102F40007561B161C3E903254FF07C5206F124039A
:102F5000C6E90045C6E9025532620024002101227B
:102F60001D48DFF88CC09C601C731C61596199611D
:102F700083F82440DA63C3F840C05864C3E90044CE
:102F8000C3E9074248337345E7D10B4A13490E485A
:102F9000C6F8C44515F0FCFF074A1149114815F061
:102FA000F7FF054A10491148BDE8F84015F0F0BF99
:102FB000C4B30024E420002400000024AD2800084D
:102FC0000080707FB1280008C8B300242C0C0024B6
:102FD000601C0024000A00240000A040B92800085A
:102FE000B5280008C0090024A9280008E020002412
:102FF000CDCC4C3F70B584B0032301260024054698
:1030000001A900688DF80C40CDE9013604F03EF8C6
:1030100010B1204604B070BD3146686805F0B2FAC0
:103020006868324604490430FEF7F6FEB0FA80F0D4
:10303000400904B070BD00BF88D40108F0B5074650
:10304000F3B000214FF48052183017F009F8796876
:10305000684601F27441FFF707FB002840D104469F
:103060002CA96846FFF756FB45F62E7230BB9DF83B
:10307000C6301BB39DF8B83013F0120FF0D1BDF875
:10308000C6300CAD0DF1C60193422846E8D017F0CA
:10309000E9FD15490646284617F0EDFD034613499C
:1030A0002846C3B107EBC4100134721B2946A4B2F1
:1030B0001830013216F0C6FF1E2CD1D9684607F52C
:1030C0008057FFF70FFB00237C83E01A3B8318BF78
:1030D000012073B0F0BD17F0CEFD0028E2D1EBE780
:1030E000002073B0F0BD00BF90D4010898D401084F
:1030F000F0B50D468FB006462C226B4603A9284634
:10310000FEF7F2FF00283BD1009B04462C2B02D097
:1031100020460FB0F0BD039B05994348434A069FE4
:10312000834208BF9142DDF830C00CBF0124002467
:103130002AD13F4C3F4B9F4208BFA4450CBF0124FE
:10314000002434D106F58057BDF82230099ABB849B
:10315000BDF92E30FA61FB84002B0D9AB8BF0733FE
:103160003A62DB10B2FBF3F3BB626969F068F962A3
:10317000FFF724F9B0FA80F4640920460FB0F0BDDF
:10318000002420460FB0F0BD834218BF9142294A67
:1031900014BF0123002397420CBF002303F0010357
:1031A00013B1234B9C45B3D106F58057DDE79F4211
:1031B00006F58057D9D1099B24212846FB61BDF82B
:1031C0002230BB84BDF82E30FB84FFF7F7F810E007
:1031D000009A042A16D102A92846FEF785FF019A13
:1031E000134B28469A421CD06969029B1944FFF789
:1031F000E5F86B4601A904222846FEF775FF6B46E9
:103200000028E5D00A4B019A9A4281D1B7F92630BD
:103210003A6A002BB8BF0733DB10B2FBF3F3BB6293
:10322000A3E7029B3B62F1E75249464657415645A8
:1032300064617461666D74202DE9F04F03694FF08D
:10324000000900F5805583B0C3F800904369C3F8C6
:103250000090AE6AB6F1807F03D9484603B0BDE85E
:10326000F08FB5F924804FEA8834B4F1804F74D2DE
:103270000746002C6ED04FEAC83B584615F08FFE2B
:1032800000EB0B0A0446824503D05A46494616F025
:10329000E7FE4645F8682CBF4FF000094FF00109E2
:1032A000C26843699A4208BF49F00109B9F1000FA9
:1032B00043D1B6FBF8F84E46A8EB0601B5F9242039
:1032C00001ABB1F5804F28BF4FF4804101FB02F202
:1032D00021465200FEF708FF88BBB5F92410019A79
:1032E0004B009A42B2FBF3FC1FD303467200D7E9AE
:1032F00004E00EE034F923102EF80210A11C31F97D
:10330000231001339C45815202F102020DD9B5F917
:1033100024100129EED134F9131001339C45815258
:103320002EF8021002F10202F1D8F86866444269F0
:10333000C3689A4201D0B045BED84FF00109002CB5
:103340008BD02046AAEB040115F027FE484603B0B7
:10335000BDE8F08F4FEAC83A9BE7014815F030FE10
:10336000A0D4010838B500F580535A8B8A420CD39B
:103370001B8B05460C468B4213D105EBC411012271
:10338000E8681831FEF774FD08B1002038BDE9681F
:103390002846FFF7ADFE40B12846BDE83840FFF7AC
:1033A0004BBFC068FEF7F8FFE7E7E868FEF7F4FFF9
:1033B000002038BDC0E90412704700BFF7EE006A74
:1033C000DFED1B7A844686EEA77AF8B50646C36021
:1033D0005CF86C7BC0E9011200F20C605CF8204CD8
:1033E0000125DFED137A4FF0000EAC424CF8285C5B
:1033F0004CED0D7A4CF8383C4CF8487C0CED0C7ACE
:103400004CF82C4C4CE9111207D14FF07E544FF080
:10341000FF354CF8344C4CF8285C0CF824EC0CF1DB
:10342000480C8445DAD117F08BFBC6F8C805F8BD07
:1034300000000000142928BF14218161704700BFDB
:10344000B2EE047A9FED0E5ADFED0E5ADFED0E6AF2
:10345000F0EE477A9FED0D6AE0EE057AC7FE877AB7
:10346000C7FEE67AC7FE877AC7FEE67A67EEA57AD8
:1034700067EE867AFCEEE77AC0ED047A704700BF0B
:1034800000E03A456F12833A00803B4500803B479D
:10349000C368013B07EE903AF8EE677A27EE800AA0
:1034A000BCEEC00A80ED050A704700BF002100F1A4
:1034B000240300F2C45C03E0013148339C4532D060
:1034C0001A7B002AF8D182698A42F6D910B4D0E971
:1034D0000442D0ED077A07EE104A1969006AF8EE47
:1034E000476A8A425C6328BF521A012187EEA67A96
:1034F0001A639A6A19731962012A4FF00001DA619E
:10350000596183ED067A05D14FF07E524FF0FF31BD
:103510005A61196200225DF8044BC3ED0E7AD8623D
:1035200083F8242070477047002B00F033812DE989
:10353000F04F9B46814600F16C03884617464FF0DA
:10354000000A00F20C652DED068B83B001939FED10
:103550009C9A4846019C0026F0EE499AFFF7A6FF88
:1035600002E04834AC422DD014F83C3C002BF8D09B
:1035700014F8243CFBB954ED0A7A54F82C3CF8EECC
:10358000E77A14ED0D7A54ED0C6A022BA6EEA77AB9
:1035900000F09880032B30D0012B00F0A680F7EECE
:1035A000007AB4EEE77AF1EE10FA36DD012344ED4D
:1035B0000D7A04F8243C002304F83C3C48340136DE
:1035C000AC42D1D1002E00F09F8007EE906AF8EE59
:1035D000677AC9EEA76A89EE277AC8ED006A87ED97
:1035E000007A0AF1010A08F104080437D345AED184
:1035F00003B0BDEC068BBDE8F08FF7EE007AB4EEB9
:10360000E77AF1EE10FA40F3B680F0EE007A4FF070
:10361000FF3344F8283C37EEC77A54ED057A54ED71
:10362000046AF8EE677A54F8182C54F8383C04ED24
:103630000D7A67EE877A67EEA67AFCEEE77A17EEE8
:10364000901A114499420A46B5D254F80C0CDFED99
:103650005D6A022854E9111331F9121033F912305E
:1036600007EE901A08EE103AF8EEE77AB8EEC88A3C
:1036700027EEA6AA28EE268A70D003285BD0012860
:1036800047D0F7EE008A78EEC78AF7EE007A14ED9D
:10369000070A77EEC07AF5EE407AF1EE10FA7AD4A6
:1036A000F1EEE7AAB5EE400AF1EE10FA7CD4F1EEA5
:1036B000C06A6AEE287A28EE287AE7EEAA9AA7EE80
:1036C000269A7BE7F7EE007AB4EEE77AF1EE10FA8D
:1036D000C8BF37EE677AB5EEC07AF1EE10FA9CD526
:1036E000F7EE007A37EE277A97E7B5EEC07A4FF01B
:1036F000FF32002144F8282CF1EE10FA8DD504F8A1
:10370000243C44F8341C56E70023C8F800303B60E2
:1037100067E754ED027AB4EEE77AF1EE10FA36D9A3
:1037200077EE677A54ED016AB7EE007AA7EEE67A93
:10373000F0EE478AA9E7B7EEC77A9FED1F0B27EE99
:10374000000B15F04DFCB7EE007BB6EE006B37EECC
:10375000407B27EE067BF7EEC78B96E7F0EE006A1C
:10376000FFEE007AF7EE008AE7EE267AB0EEE77A0F
:1037700078EEC78A89E7B5EEC07AF1EE10FA7FF5E8
:103780004CAF0123B1EE477A44F8283C45E7F7EE09
:10379000008A7AE77047B0EE670A15F0FDFCF0EE9C
:1037A00040AA14ED070A7DE715F0F6FCF0EE406A3A
:1037B0007FE700BFAFF30080182D4454FB21194070
:1037C000000000000000003800F068B938B5044679
:1037D00000F088F9D4F8A850204600F09FF9284658
:1037E00001F032FCD4F8AC50204600F097F928469E
:1037F000BDE8384001F028BC38B5044600F052F965
:10380000D4F8A850204600F089F9284601F01CFCA5
:10381000D4F8AC50204600F081F92846BDE8384085
:1038200001F012BC00F05AB9183002F087B800BF9E
:1038300010B50446D83001F093FD04F59670BDE84C
:10384000104001F08DBD00BFF0B54FF481718FB015
:1038500000F1D80701254FF4C0624FF4E063ADF8E2
:10386000081000F5967402993846ADF80C2008AEA1
:10387000ADF810300095DDE9032301F019FD40F2A9
:1038800001134FF480722046ADF814304FF480637A
:10389000059900950BADADF81820ADF81C30DDE9A9
:1038A000062301F005FD3046072105F047FE96E8A6
:1038B000070085E807002946384601F03BFD96E8F9
:1038C000070085E807002946204601F033FD384609
:1038D00001F046FD20460FB0BDE8F04001F040BDCC
:1038E0002DE9F04140F2024304460222002504F192
:1038F000180704F1A8062DED028B8EB09FED1B8AF0
:10390000ADF80C3005A8039901F0F6FD02220DF187
:103910002600ADF81020049901F0EEFD04230222E8
:1039200005A9384601F0FCFD04F1680204F18803A2
:10393000C4E92A232946384656F8048B02F014F8C5
:1039400001462046019100F0E9F80023F0EE480A14
:10395000019940461A4601F045FB25B10EB0BDEC79
:10396000028BBDE8F0810125E4E700BF6F12033B45
:103970002DE9F04104469AB00027019100F08CF83F
:103980000199204600F08AF940F6061304F1B006CA
:103990009FED400AADF8143004F1C005304605999A
:1039A00001F0ECFC4FF4007328469FED3A0AADF8A5
:1039B000183004F5C878069901F0E0FC40F60332AF
:1039C00040F201639FED330AADF8082004F1400096
:1039D0000299ADF80C70C4F8D0600FAEC4F8D450A2
:1039E00007ADADF81030DDE9032301F059FB2046A7
:1039F000FFF72AFF2046FFF773FF284601F03EFC41
:103A000001230DF12C0E04F5C07C1593189347F695
:103A10001223169719930223179395E80F008CE849
:103A20000F008EE80F0086E80F00BDF840301490BC
:103A3000ADF84E30BDF84230D4E9625EADF84C309E
:103A4000C4E9655EBEF1000F04D0724639462846CF
:103A500016F006FB13A9404604F0CAFB04F5D27029
:103A600001F020FC3021204600F03CF8D4F8A850AA
:103A7000204600F053F8284601F0E6FAD4F8AC509E
:103A8000204600F04BF828461AB0BDE8F04101F09E
:103A9000DBBA00BF00000000704700BF143001F027
:103AA0006DBA00BF38B500F1140504462DED028B48
:103AB000284601F01FFA284601F018FA2846B0EE11
:103AC000408A01F001FAD0ED007AF8EE677A88EECC
:103AD000277ABDEC028B84ED0E7A38BD143001F0EC
:103AE00005BA00BF38B500F1140504462DED028B70
:103AF000284601F0EDF9284601F0F8F92846B0EE25
:103B0000408A01F0E1F9D0ED007AF8EE677A88EEAC
:103B1000277ABDEC028B84ED0E7A38BD90ED0E0A4B
:103B2000704700BF10B540F203338EB000244FF64B
:103B30000B7240F20341ADF8083009A80123ADF83B
:103B40001020ADF824202246ADF80C100094029904
:103B500007940C94CDE90544CDE90A4402F006F837
:103B600004A8012322460399009401F0FFFF09A84D
:103B700002F0E2F810B901200EB010BD04A802F066
:103B8000DBF8A0420CBF022020460EB010BD00BFE3
:103B90002DE9F04103239AB0012700240646CDE920
:103BA00014373B4BCDE9104340F20453CDE916479F
:103BB000ADF84830FFF7B6FFB842054625D00228D9
:103BC00045D040F60132334B0DF12C081894ADF876
:103BD0002C200B981997CDF84A3000F0E3F810A983
:103BE00006F13C0003F0E4F8302003224FF07E534E
:103BF00041460D930E93CDE90B02F26B06F11400D2
:103C000001F02AF91AB0BDE8F0811023214A06A973
:103C100006908DF828300DF12C081F4BCDF84A2066
:103C200007930294CDE91804CDE9080402A802F034
:103C3000F5FA0823029A03A94046ADF80C508DF816
:103C40000E40049505930B9400F0ECF8C7E70020B4
:103C50000121104B0DF12C083A460094CDF84A3062
:103C60004FF60B730C94ADF82C302346CDE91801B8
:103C700040F601314046ADF818100699CDE90D44E3
:103C800001F074FF2146404602F062F8A7E700BF4A
:103C900004020404040604030704010B2DE9F047A1
:103CA00004462DED028B82B000294DD0012140F257
:103CB000011200230091ADF804208DF80630364A39
:103CC0000127364B04F10409354904F129086260E3
:103CD00040F20272A36040F60663E16004F1250A37
:103CE000A4F82520A4F82930278284F8277084F8C6
:103CF0002B7004F0C1FE054604F024FD694606461B
:103D000050BB4DB304F130008DF8067004F03CFE5A
:103D1000072D3CD104F114052046FFF739FF284652
:103D200001F0E4F82846B0EE408A01F0CDF8D0ED7D
:103D3000007AF8EE677A88EE277A84ED0E7A02B080
:103D4000BDEC028BBDE8F08740F2011300918DF8C5
:103D50000610ADF80430B2E704F1300004F014FEB0
:103D6000072D11D04946204602F0A2FC0EB9002DC5
:103D7000D0D1504601F0F6FF404601F0F3FF04F1C8
:103D8000120000F079F9C5E7002EF2D1C2E74946EA
:103D9000204602F08DFCBDE705080509050705066C
:103DA000050A060610B584B003460124ADF80400E8
:103DB00003A8ADF80C30ADF80E4001F0D3FF21465A
:103DC00003A802F0ABF8204604F0B4FC002103A8DD
:103DD00002F0A4F8204604F0ADFC214603A802F04E
:103DE0009DF804B010BD00BF10B5C2F3002384B02D
:103DF0000C46017C8DF80D2043EA4402FA2402238C
:103E00008DF80C2003AA009402F09EFA18B1012448
:103E1000204604B010BD04460A2004F08BFC204666
:103E200004B010BD034670B543F8042B044684B0BB
:103E300007C983E80700A37983B91A210B461E221C
:103E4000FA2523742046ADF80C20022303AA00951E
:103E500002F07AFA28B1012004B070BD1B210B4694
:103E6000EDE70A2004F066FC4FF4B85200950223F7
:103E7000ADF80C20204603AA217C02F065FA002848
:103E8000E9D10A2004F056FC41F2027200950223A7
:103E9000ADF80C20204603AA217C02F055FA002838
:103EA000D9D10A2004F046FC042200950223ADF883
:103EB0000C20204603AA217C02F046FA0028CAD131
:103EC0000A2004F037FC062200950223ADF80C20EE
:103ED000204603AA217C02F037FA0028BBD10A2031
:103EE00004F028FC41F2082200950223ADF80C20D2
:103EF000204603AA217C02F027FA0028ABD10A2031
:103F0000064604F017FC0095022303AA217C2046F4
:103F1000ADF80C6002F018FA00289CD1304604F08D
:103F200009FC009522790C232046002A8DF80C30DC
:103F300003AA4FF0020314BF622142218DF80D1035
:103F4000217C02F001FA002885D1304604F0F2FB12
:103F50002279D4E902310B43DBB20AB943F04003C2
:103F600062790AB143F020030E22FA258DF80D3054
:103F70002046009502238DF80C2003AA217C02F034
:103F8000E3F900287FF467AF0A2004F0D3FB102286
:103F900000950223ADF80C20204603AA217C02F0F4
:103FA000D3F900287FF457AF0A2004F0C3FB122195
:103FB00000950223ADF80C1003AA217C204602F0E4
:103FC000C3F900287FF447AF0A2004F0B3FB0122B5
:103FD00009212046FFF708FF003818BF01203BE702
:103FE000F0B5102387B0234C0122002501260027BD
:103FF00002A920460195CDE902234FF48052CDE974
:1040000004670DF04DFA642005F054FE02A94FF448
:1040100080522046CDE9046702261027CDE90267C9
:104020000DF03EFA0322102302A92046CDE9022317
:1040300000230422CDE904234FF480520DF030FA1E
:1040400040F23223042202A9019310232046CDE935
:104050000223019A012305924FF4805204930DF03C
:104060001FFA40F6060120460DF03AFA284607B03E
:10407000F0BD00BF9CB900241C4B00221C494FF02E
:10408000400C30B5054689B00220596007219A607E
:104090001A620124DA620A224FF4006EDC60069292
:1040A0002022CDE9000104200821CDE902010320EE
:1040B0001021CDE9040108206946C3E904024FF448
:1040C000C072181DC3E906C24FF48052C3E909E269
:1040D0000DF0BCF938B92846FFF782FF003818BF49
:1040E000012009B030BD204609B030BD98B9002488
:1040F00040410052614A0021D0B513688EB00A9148
:10410000002B40F0B9805E4B01214FF683700C24E8
:1041100011600221D3F8D4200026032742F48052F4
:10412000C3F8D420D3F8D42002F480520092009A2D
:10413000D3F8E02042F01002C3F8E020D3F8E020EA
:1041400002F010020192019AD3F8E02042F04002FE
:10415000C3F8E020D3F8E02002F040020292029A75
:10416000D3F8E02042F00802C3F8E020D3F8E020C2
:1041700002F008020392039AD3F8E02042F480721E
:10418000C3F8E020D3F8E02002F480720492049A8D
:10419000D3F8E02042F08002C3F8E020D3F8E0201A
:1041A00002F080020592059AD3F8E02042F0200246
:1041B000C3F8E020D3F8E02002F020020692069A2D
:1041C000D3F8E02042F00402C3F8E020D3F8E03056
:1041D0000C9403F0040307930323079A0B93CDE990
:1041E000080108A9274807F0EBFB48F23712022321
:1041F00008A925480C94CDE90823CDE90A6707F002
:10420000DFFB4CF20372022308A920480C94CDE98D
:104210000823CDE90A6707F0D3FB40F2FF620223CF
:1042200008A91B480C94CDE90823CDE90A6707F0DB
:10423000C7FB4FF60C72022308A916480C94CDE96F
:104240000823CDE90A6707F0BBFB4FF63F020223C4
:1042500008A911480C94CDE90823CDE90A6707F0B5
:10426000AFFB2022022308A90A480C94CDE90A6773
:10427000CDE9082307F0A4FB0EB0D0BD94B900240B
:10428000004402580010025800180258000C02584E
:1042900000200258001C0258001402582DE9F04F6B
:1042A000DFF8108406460D46144608F118002DED7F
:1042B000028B89B000AF02F073FED8F8183073B3E8
:1042C000D8F81C30D8F80490002B43690BBF4FF08E
:1042D000080A4FF0100A4FF0020B4FF0040BB9F12F
:1042E000000F2AD0A200EA46012B02F1070222F0B9
:1042F0000702ADEB020D6846ADEB020D694600F01A
:104300003F81022B00F0D680002B6FD02246C84799
:10431000D5462437BD46BDEC028BBDE8F08FD8F8FA
:104320001C30002BF5D0D8F804904FF0080A4FF05D
:10433000020B4369B9F1000FD4D1FB61D8F800300A
:10434000BB61002BE5D0D54802F09CFE6B46BBF16B
:10435000020F786108EE103AFB6900F083816A462B
:104360005146A2EBC40295466200EA46B2FBFBF25C
:10437000AAEBC40085460AEB8200EE46F861ADEB7D
:10438000010DF8690EEB820CC7F810C0EC46ADEBDE
:10439000010D00EB8201CCF80400CCF8081001EB11
:1043A00082013869E946CCF80C1000EB8201CCF8A8
:1043B00000A001EB8202C9E900E0C9E90212012B69
:1043C00000F06483022B00F06C82002B00F08081EF
:1043D000620849466046BB69984718EE103A243790
:1043E0009D46BD46BDEC028BBDE8F08F002C8DD004
:1043F0001A46D8ED0C6A9FEDB27A8446331D36F921
:1044000022E00CF1080C07EE90EA33F922E00232C8
:10441000F8EEE77A944267EE877A67EEA67A4CED7B
:10442000027A07EE90EAF8EEE77A67EE877A67EEAF
:10443000A67A4CED017AE2D8F9612246C847984E37
:10444000D8ED0D6A0020F9692B1D9FED9E7A9FED36
:104450009E6ADFED9E5A22E0F4EEC67AF1EE10FA83
:10446000C0F2C88447F6FE72D1ED017A45F82020EB
:1044700066EEA77AF4EEC77AF1EE10FA40F2F08019
:10448000F4EEC67AF1EE10FAC0F2D58447F6FE7269
:1044900043F820200230083184427FF639AFD1ED55
:1044A000007A66EEA77AF4EEC77AF1EE10FAD3D866
:1044B0003246D9E7002C3FF429AFD8ED0C6A844688
:1044C0009FED787A0022331D8E4656F822100CF1AB
:1044D000080C07EE901A53F822100232F8EEE77A31
:1044E000944267EE877A67EEA67A4CED027A07EE81
:1044F000901AF8EEE77A67EE877A67EEA67A4CEDC7
:10450000017AE2D871462246C7F81CE0C847664ED9
:10451000D8ED0D6A0020F9692B1D9FED6A7A9FED99
:104520006A6ADFF894C120E0F4EEC67AF1EE10FA80
:10453000C0F279843246D1ED017A45F8202066EE4A
:10454000A77AF4EEC77AF1EE10FA40F28780F4EE23
:10455000C67AF1EE10FAC0F25E84324643F82020AB
:104560000230083184427FF6D3AED1ED007A66EE98
:10457000A77AF4EEC77AF1EE10FAD5D86246DAE7F8
:10458000002C3FF4C3AED8ED0C6A86469FED477A07
:104590004FF0000C331D56F82C200EF1080E82F45B
:1045A0000002A2F5000207EE902A53F82C200CF12D
:1045B000020CF8EEE77A82F400026445A2F50002EC
:1045C00067EE877A67EEA67A4EED027A07EE902ABA
:1045D000F8EEE77A67EE877A67EEA67A4EED017A13
:1045E000D9D8F9612246C847314ED8ED0D6A00206E
:1045F000F9692B1D9FED337A9FED336ADFF8BCC05C
:104600001FE0F4EEC67AF1EE10FAC0F2FC833246F7
:10461000D1ED017A45F8202066EEA77AF4EEC77A4C
:10462000F1EE10FA18D9F4EEC67AF1EE10FAC0F2F3
:10463000DA83324643F820200230083184427FF684
:1046400067AED1ED007A66EEA77AF4EEC77AF1EEA6
:1046500010FAD6D86246DBE76246EBE762467DE7B2
:10466000324615E7A100D6466208073121F007015E
:10467000ADEB010DEA46ADEB010D6946ADEB0E0D5C
:104680000AEB8200EC46ADEB0E0D01EB8202F86105
:10469000E946CCE900A0C9E9001290E6ECB9002493
:1046A0000280FFFF000000300082FF7F0000003426
:1046B00082FF7F00D0B90024007E00807E0080FF52
:1046C0000000003804FF7FBF04FF7F3F00FEFF466D
:1046D000002C00F0C982BBF1020FD8F8242000F0B2
:1046E000FA827969C7F8049002EB810E5FED0C5AEB
:1046F0008A00DCF808100EF104007A611A46DCF832
:104700000C303B61331DD7F810903D61FD69C7E95E
:1047100002CB8C46834636F92210D8ED0C7A06EE91
:10472000101A33F9221006EE901A3EF92210B8EE54
:10473000C66A07EE101AF8EEE66A3BF92210B8EEE8
:10474000C77A26EE256A66EEA56A27EE257A26EE5A
:10475000276A66EEA76A27EE277A07EE901A5108B5
:104760000232F8EEE77A0AEB8100944280ED006AAB
:1047700005EB810067EEA57AC0ED006A0CEB8100C5
:1047800009EB810180ED007A98ED0C7A67EE877A6B
:10479000C1ED007ABFD8D7F804903D69D7E902CBC4
:1047A00060466208BB6949469847D8F82C307A6958
:1047B000D8ED0D6A1A441FED3D7A1FED3D6A2B1DA1
:1047C000904602F1040A5FED3F5A0022A84ED9E953
:1047D00000EC51E0F4EEC67AF1EE10FAC0F2C782B6
:1047E00047F6FE7045F822000CEB0100D0ED007A90
:1047F00066EEA77AF4EEC77AF1EE10FA4BD9F4EE32
:10480000C67AF1EE10FAC0F2BA8247F6FE70BBF13A
:10481000020F43F822002BD0D9F808000844D0ED4D
:10482000007A66EEA77AF4EEC77AF1EE10FA36D97E
:10483000F4EEC67AF1EE10FAC0F2CD8247F6FE70C1
:1048400048F82200D9F80C000144D1ED007A66EE58
:10485000A77AF4EEC77AF1EE10FA1ED9F4EEC67A12
:10486000F1EE10FAC0F2AF8247F6FE714AF822105C
:10487000023294427FF6B1AD51080EEB81008900FF
:10488000D0ED007A66EEA77AF4EEC77AF1EE10FA70
:10489000A0D83046A6E73046B9E73146E6E73046CD
:1048A000CEE7002C00F0E081BBF1020FD8F82430F5
:1048B00000F0E1817A69DCF8081003EB820EC7F89A
:1048C00004909300DFED6B5A0EF1040000227B612F
:1048D000DCF80C303B61331DD7F810903D61FD6969
:1048E000C7E902CB8C46834656F82210D8ED0C7AE5
:1048F00007EE101A53F82210B8EEC76A07EE101A26
:104900005EF82210F8EEC76A07EE101A26EE256A46
:104910005BF82210B8EEC77A66EEA56A26EE276A23
:1049200027EE257A66EEA76A27EE277A07EE901A19
:1049300051080232F8EEE77A0AEB8100944280EDEA
:10494000006A05EB810067EEA57AC0ED006A0CEB0A
:10495000810009EB810180ED007A98ED0C7A67EE19
:10496000877AC1ED007ABFD8D7F804903D69D7E9BE
:1049700002CB60466208BB6949469847D8F82C309C
:104980007A69D8ED0D6A1A449FED3E7A9FED3E6A32
:10499000131D9246DFF8E4C00022FB612B1D364E4A
:1049A000D9E9008E4EE0F4EEC67AF1EE10FAC0F2CC
:1049B000FC81304645F822000EEB0100D0ED007A74
:1049C00066EEA77AF4EEC77AF1EE10FA49D9F4EE62
:1049D000C67AF1EE10FAC0F2EF813046BBF1020F59
:1049E00043F822002AD0D9F808000844D0ED007A14
:1049F00066EEA77AF4EEC77AF1EE10FA35D9F4EE46
:104A0000C67AF1EE10FAC0F2C98130464AF82200A7
:104A1000D9F80C000144D1ED007A66EEA77AF4EEE5
:104A2000C77AF1EE10FA1ED9F4EEC67AF1EE10FA5A
:104A3000C0F2AD813146F86940F82210023294424A
:104A40007FF6CBAC510808EB81008900D0ED007AED
:104A500066EEA77AF4EEC77AF1EE10FAA3D86046B4
:104A6000A8E76046BAE76146E5E76046CEE700BFE3
:104A70000280FFFF000000300082FF7F007E008088
:104A80000000003404FF7FBF04FF7F3F002C00F0D4
:104A9000EB807A690021D8F82430C7F8109003EB36
:104AA000820ED7F81C909300FD610EF104021FEDF9
:104AB0000C6A7B61331D154656F821204808D8ED55
:104AC0000C6ABBF1020F82F40002A2F5000207EEAD
:104AD000902A53F8212082F40002B8EEE77AA2F57A
:104AE000000227EE067A07EE902A0AEB8002F8EE23
:104AF000E77A27EE267A67EE867A82ED007A09EB6E
:104B000080024FEA800067EEA67AC2ED007A27D0D5
:104B10005EF8212082F40002A2F5000207EE902A3E
:104B200055F8212082F40002B8EEE77AA2F50002DF
:104B300027EE067A07EE902ADCF80820F8EEE77AEE
:104B4000024427EE267A67EE867A82ED007A98EDA7
:104B50000C7ADCF80C2067EE877A0244C2ED007A0A
:104B600002318C42A8D8D7F8109060466208BB6921
:104B70004946FD699847D8F82C307A69D8ED0D6A16
:104B80001A441FED407A1FED406A131D9246DFF86C
:104B9000C4C20022FB612B1DAB4ED9E9008E4EE052
:104BA000F4EEC67AF1EE10FAC0F2C580304645F850
:104BB00022000EEB0100D0ED007A66EEA77AF4EE4B
:104BC000C77AF1EE10FA49D9F4EEC67AF1EE10FA8E
:104BD000C0F2BF803046BBF1020F43F822002AD05A
:104BE000D9F808000844D0ED007A66EEA77AF4EE12
:104BF000C77AF1EE10FA35D9F4EEC67AF1EE10FA72
:104C0000C0F2AE8030464AF82200D9F80C000144C8
:104C1000D1ED007A66EEA77AF4EEC77AF1EE10FADB
:104C20001ED9F4EEC67AF1EE10FAC0F28B8031464E
:104C3000F86940F82210023294427FF6CEAB510858
:104C400008EB81008900D0ED007A66EEA77AF4EED9
:104C5000C77AF1EE10FAA3D86046A8E76046BAE733
:104C60006146E5E76046CEE7224649466046BB69B5
:104C70009847FFF7B2BBC7F810B0002298ED0C6A56
:104C8000331DDFED726AD7F81CB0786956F8221030
:104C900007EE901A53F82210B8EEE77A07EE901A52
:104CA00051080232F8EEE77A27EE267A0AEB810EF7
:104CB00094420BEB810167EEA67A27EE067A67EE47
:104CC000867A8EED007AC1ED007ADFD88300D7F8BE
:104CD00010B07B614DE61A46C7F810B098ED0C6A2B
:104CE000331DDFED5B6AD7F81CB0786936F9221006
:104CF00007EE101A33F9221007EE901AB8EEC77AB1
:104D000051080232F8EEE77A27EE267A0AEB810E96
:104D100094420BEB810167EEA67A27EE067A67EEE6
:104D2000867A8EED007AC1ED007ADFD88300D7F85D
:104D300010B07B6134E5F0EE675AFEEEE45A15EEF2
:104D4000900A34E7F0EE675AFEEEE45A15EE901A38
:104D50006EE7F0EE675AFEEEE45A15EE900A3AE777
:104D6000F0EE675AFEEEE45A15EE900A4BE767EE56
:104D7000A57AFDEEE77A17EE900A00B232E567EE0B
:104D8000A57AFDEEE77A17EE900A00B23FE5F0EE65
:104D9000675AFEEEE05A15EE901A4CE6F0EE675AAE
:104DA000FEEEE05A15EE900A30E6F0EE675AFEEE9F
:104DB000E05A15EE900AFDE5F0EE675AFEEEE05A75
:104DC00015EE900A0AE667EEA57AFDEEE77A17EE91
:104DD000901A09B24AE567EEA57AFDEEE77A17EE7A
:104DE000900A00B22CE5F0EE675AFEEEE45A15EE9A
:104DF000902A1FE467EEA57AFDEEE77A17EE902A77
:104E000012B2FFF731BBF0EE675AFEEEE45A15EE30
:104E1000902AFFF7FDBBF0EE675AFEEEE05A15EE62
:104E2000902AFFF79BBBF0EE675AFEEEE05A15EEB4
:104E3000902AFFF780BB67EEA57AFDEEE77A17EEC2
:104E4000902A12B2FFF724BB82FF7F0000000030DF
:104E5000000000387E0080FF30B5184C154685B044
:104E6000046004F1080EEC460FC98EE80F00D4ED83
:104E7000047AF5EEC07A8CE80F00F1EE10FA1ADD34
:104E8000B7EE006A94ED057A27EE277AC6EE276A18
:104E900084ED0D7AC4ED0C6A6DB1204640F8185FC0
:104EA00002F07EF8064903690020064A2162A262E8
:104EB000E36005B030BD012005B030BDD0B900249D
:104EC000002000300000003000680830704700BF4C
:104ED000B1F5807F03680A4628BF4FF48072B1F5B0
:104EE000807F9A6094BF00200120704700681830CE
:104EF00002F0B6B870B504688AB0A369E160CBB1BE
:104F000004F11805284602F04BF88446EE46E668A0
:104F1000BCE80F00AEE80F00BCE80F00AEE80F00E1
:104F20009CE803008EE8030069462846049601F0D9
:104F30003FFFF8B9E069D8B104F11C05284602F03A
:104F40002FF88446EE46E468BCE80F00AEE80F0098
:104F5000BCE80F00AEE80F009CE803008EE80300F9
:104F600069462846049401F023FF003818BF012049
:104F70000AB070BD01200AB070BD00BF30B5046832
:104F800083B00D46E3694BB1A3680020E26A616A11
:104F90009B00009004F11C0002F004F8A36807488D
:104FA000A26A9B00216A009004F1180001F0FAFF48
:104FB0000020C4E9005003B030BD00BF9D4200088E
:104FC00010B4074B4FF07E513024002203201961AA
:104FD0009C60D8605DF8044B5961C3E906227047B4
:104FE000D0B90024F6EE007A9FED166A20EE207A02
:104FF0000160F7EE006A80ED036A80ED020A27EE99
:10500000277AC6EE877AF4EEE67AF1EE10FA11DD31
:10501000F0EE667A4FF07E514FF0000C02760022DF
:10502000C0ED017AC0F814C0016143768276C0ED0C
:10503000070A7047F4EEC67AF1EE10FAEAD5F0EE00
:10504000467AE7E700000000837E80ED020AABB9F4
:10505000D0ED077A27EE800AF6EE007AB7EE007AF6
:1050600020EE270AC7EE007AF4EEC77AF1EE10FAC6
:1050700007DDF0EE477AC0ED017A7047DFED067A82
:10508000E8E7F5EEC07AF1EE10FAF4D5DFED037A39
:10509000C0ED017A704700BF6F12033B00000000B3
:1050A00030B585B004460025ADF80C10ADF80820E9
:1050B000ADF8043003F03CFBBDF80C204FF48073D6
:1050C000206004F118002283BDF808206383E38385
:1050D000A283257100F046FE04F11C0000F042FEA0
:1050E0009FED060A019904F1080000F047F94FF618
:1050F000FF736562238405B030BD00BF000000006F
:10510000704700BFF8B5134F3C687F2C07D9802348
:10511000114A42F224411C463B60A2F87E100F4D1A
:105120002B68012B0AD90C4E0D4D224631462846DC
:1051300000F0C6F90028F8D13860F8BD22460649CB
:10514000074800F0BDF90028F7D12B68386001331B
:105150002B60F8BD0CBA002410BA002408BA002451
:1051600090BA002430B4154C2168F1B14B1E144D97
:10517000E81810F801298C4619460A2A01D00D2A90
:1051800002D14BB1013BF4E70CF102037F2B10D9A4
:105190008023236030BC70470122022323600D204E
:1051A0000A236854AB5430BC704701220223044DDB
:1051B000F4E70CF101026146F0E700BF0CBA0024ED
:1051C00010BA002410B5094C02460B460848216865
:1051D0000844C1F1800115F08FFD23681844206058
:1051E000FFF7C0FFFFF78EFF10BD00BF0CBA002411
:1051F00010BA00240FB400B583B004A951F8040B11
:105200000191FFF7DFFF03B05DF804EB04B07047D6
:1052100010B5044600210A4800F0CCF8002C094BD8
:1052200014BF0222002208481A60FFF7E3FF074874
:10523000FFF7E0FF0A20BDE8104003F07BBA00BF93
:1052400090BA002408BA0024D4D40108E4D4010898
:10525000064A0749074808B513F09AFE034A04496D
:105260000548BDE8084013F093BE00BF00000024CD
:105270000151000890BA002494BA0024074A11880A
:1052800030B481800024064D91884FF4807285608F
:105290000460C180C26030BC704700BF30CF0108DD
:1052A0000040003000220A2302700371704700BFE3
:1052B00030B585B004469FED110A9DF82050ADF839
:1052C0000C100399ADF808202A46ADF804308DED96
:1052D000000A12F01FF99DED000A2A46029904F116
:1052E0001C0012F017F99DED000A2A46019904F1FD
:1052F000380005B0BDE8304012F00CB900007A4427
:1053000010B52DED028BF0EE608A0446B0EE418AB6
:1053100012F024F904F11C00B0EE680A12F01EF934
:10532000B0EE480A04F13800BDEC028BBDE8104035
:1053300012F014B938B50C46054691ED000A12F08A
:105340000DF994ED010A05F11C0012F007F994ED36
:10535000020A05F13800BDE8384012F0FFB800BF7E
:1053600010B5044612F00CF904F11C0012F008F913
:1053700004F13800BDE8104012F002B970B50446DF
:1053800082B0C1F30726CDB2ADF8041003F0D0F916
:105390004FF480724FF001232060A01DA571A28000
:1053A000E671A36002B0BDE8704000F0DBBC00BF56
:1053B000704700BF012910B506D0022915D051B1A0
:1053C000BDE8104008F054BA0A463448344910F099
:1053D000BDFEE8B1FEE7334B0A46334C334934484F
:1053E0001C6010F0B3FE68B1FEE701222C492B4887
:1053F00010F0ACFE00B1FEE72E49284810F0C8FEC0
:10540000C0B1FEE72B492A4810F0C2FE60B1FEE7AA
:105410002849224810F0BCFE00B1FEE726491F488B
:1054200010F044FE08B3FEE72449214810F03EFE88
:10543000A8B1FEE72049194810F038FE00B1FEE798
:10544000164810F0BBFE024640B9164B164C1749E1
:1054500017481C6010F07AFE68B1FEE7FEE71448BA
:1054600010F0ACFE0028ABD0FEE70C4810F0A6FE12
:105470000028A5D0FEE70F490D4810F089FE00B1C5
:10548000FEE70E490A4810F011FE00B1FEE7084899
:1054900010F094FE002893D0FEE700BF34BD002436
:1054A00098020024D0BF0024B15300087C020024DD
:1054B00098BA0024000300245C0200244C0200245B
:1054C000084691B208B503F011FC003818BF01205E
:1054D00008BD00BF014807F0A9BC00BF10FC0024B4
:1054E000014807F0A3BC00BF10FC0024014807F0EE
:1054F0009DBC00BF10FC002400B583B04FF0000E2F
:105500004FF0030C4274ADF80410BDF8043080F87D
:1055100010E0A0F802C0038003B05DF804FB00BFF8
:105520002DE9F04FDFF81C8300258DB0C04C0370CF
:1055300008F140034260074601920E4620222946A8
:105540004046C4F86831C4F86481CDE90255CDE91C
:105550000455CDE90655CDE90855CDE90A5514F0B5
:105560007FFD2022294604F5A170C4F83151C4F80A
:105570003551C4F83951C4F83D5114F071FD019B07
:1055800084F8485284F830317A68002A6AD02B4671
:1055900004F59871454606F1100A9E46F01856F833
:1055A00003B0E2180EF1010ED0F80CC0D0F8049050
:1055B000D0F8088044F803B0C2F80CC04FF0000CDB
:1055C000C2F80490C2F80880008A25F802CB108245
:1055D0001AF8032001F8012F002A70D07A684FF0E2
:1055E00001001233724584F84802D7D84FF4802264
:1055F00090489DF8043008214FF000084FF0000952
:10560000C4F884310023C4E95B020122C4F8743178
:1056100084F88031C4E95E2194F84812C4E96489B1
:10562000A9B3C4F89821002284F8813184F8883124
:105630003B78C4E96722002B38D0012200200121E9
:10564000013B84F8A421C4E96C01082B30D8DFE8C1
:1056500013F0BD00C200C700CC00D100D600DB00B3
:10566000E100E8009DF804300121C4F87421C4F879
:1056700084314FF4802384F880216E4AC4E95B238F
:1056800008230022C4E95E130023C4E96423012334
:10569000002284F88131002384F888310323C4F880
:1056A00098313B78C4E96722002BC6D184F8A43135
:1056B000614804F037FF034638B1FFBEFEE77A6861
:1056C000123372453FF66AAF90E702A95A48029337
:1056D00005F086F88246002876D1042240F2FF7158
:1056E0000A90CDE9081294F83021002A00F0F380E6
:1056F0004FF006080AEBCA034FEACA0904EB43035A
:105700005B7C072B07D8DFE803F0595C5653504DFC
:105710004A04072307930FFA8AF6D14406EBC6061C
:1057200004EB490904EB46077500384600F01AFB04
:1057300099F81030042B00F3AA80022B00F3BD80EF
:1057400000F0B98004EB0A03002283F8202114F84A
:105750001630002B78D0022B00F08A80012B40F00D
:10576000B2807B78012B00F0B080002B334B18BF48
:10577000002305A93048CDE9053804F0FFFA0028D8
:1057800040F0AC800AF1010A94F830315FFA8AFAED
:10579000534540F2A0802A4B53F82A80AAE70623FB
:1057A0000793B8E705230793B5E704230793B2E708
:1057B00003230793AFE702230793ACE70023079384
:1057C000A9E701230793A6E7FFBEFEE703224023D4
:1057D000C4E96A236CE707226023C4E96A2367E708
:1057E0000F228023C4E96A2362E71F22A023C4E9B1
:1057F0006A235DE73F22C023C4E96A2358E77F227A
:10580000E023C4E96A2353E7FF224FF48073C4E91D
:105810006A234DE740F2FF124FF49073C4E96A2304
:1058200046E740F2FF324FF4A073C4E96A233FE732
:10583000D8BF00240020024044C100240002B0254B
:10584000F4D40108004100307B78062B37D0072BB9
:105850003DD0022B4AD0032B4AD0002B4CD0012B39
:1058600048D0042B4AD0052B254B18BF002380E7D6
:105870007B78042B25D0052B2BD08BB3012B31D07B
:10588000022B31D0032B1F4B18BF002371E70323DA
:10589000043504EB0A0B4FF0000925448BF8203146
:1058A000284609F1010900F05DFA9BF82031043522
:1058B0004B45F5DC4BE70123EAE70223E8E7124B0F
:1058C00057E7124B55E7002353E7114B51E7114BB4
:1058D0004FE7114B4DE70DB0BDE8F08FFFBEFEE77F
:1058E0000E4B46E70E4B44E70E4B42E70E4B40E7AC
:1058F0000E4B3EE70E4B3CE70E4B3AE70E4B38E7BC
:105900000000B84F002090360800900C1000C01026
:105910002000F0148000501D000180210004002AA6
:105920000008302E001060320040C03A0080F03E87
:1059300000005247000021430000844B38B5094C59
:1059400040F2FF724FF0011104F5B675284604F0DD
:10595000F5FE94F83021D4F864112846BDE83840AB
:1059600004F060BCD8BF0024034B0F29D3F86401B6
:1059700098BF00EB41007047D8BF0024214B02685C
:105980009A4200D07047204A00232048D2F8D8100D
:1059900030B51F4C41F0200183B0C4F8D00109207C
:1059A00004F5E875C4E975034FF48060C2F8D810B7
:1059B000D2F8D8204FF40061C4E9773094F8480257
:1059C00002F02002C4F8E4114FF400519842019211
:1059D0002846C4F8E811C4E97C33019B14BF0023B6
:1059E0004FF48073C4F8EC3105F020F908B1FFBE24
:1059F000FEE704F5B673C4F8B851C4F8083203B032
:105A000030BD00BF00200240004402584000024068
:105A1000D8BF0024014805F081BC00BFA8C1002404
:105A200002682DE9F84F4B4B9A4201D0BDE8F88F40
:105A3000494D95F84832002BF8D095F83031002BBD
:105A400077D0002405F10C0905F5A17605F59877C6
:105A5000A04613E003F0010117F811BCA9F10800FA
:105A600000F05CFABBF1010F25D895F83031013414
:105A700009F112090236A2B293422BD917F8012F6D
:105A8000002AF4D0D5F864310021327833F81400BC
:105A9000D5F8683103EB041323F81200338801337F
:105AA0009BB233805FFA83FA3A789A42D2D88A4618
:105AB000A6F80080D0E7CAF34001A9F1040000F085
:105AC0002DFABBF1020FCAF38001CED0484600F098
:105AD00025FACAE7002395F848022049092298428E
