:020000040800F2
:1000000000000220110A00080D0A0008917800087B
:100010000D0A00080D0A00080D0A00080000000083
:100020000000000000000000000000000D0A0008B1
:100030000D0A0008000000000D0A000815780008ED
:100040000D0A00080D0A00080D0A00080D0A000834
:100050000D0A00080D0A00080D0A00080D0A000824
:100060000D0A00080D0A00080D0A0008B962000810
:10007000C562000839500008D1620008DD6200083E
:1000800095720008E95700080D0A00080D0A0008DB
:100090000D0A00080D0A00080D0A00080D0A0008E4
:1000A0000D0A00080D0A00080D0A00080D0A0008D4
:1000B000C9720108D5720108E17201081D580008D3
:1000C0000D0A0008295800080D0A0008396B0108BC
:1000D000456B0108C9700008F57000082971000817
:1000E0000D0A00080D0A0008000000000D0A0008B3
:1000F0000D0A00080D0A00080D0A00080D0A000884
:100100000D0A000811680008ED720108516B010822
:100110005D710008917100080D0A00080D0A0008C1
:100120000D0A00080D0A0008756B0108A96B01088B
:10013000C97200080D0A00080D0A00080D0A00081F
:1001400000000000000000000000000000000000AF
:100150000D0A00080D0A00080D0A0008C571000804
:10016000355800080D0A000825780008497800086D
:100170000D0A00086D7800080D0A00080D0A000835
:100180000D0A00080D0A0008F97100082D72000818
:100190005D6B0108696B01080D0A00080D0A000873
:1001A0000D0A00080D0A00080D0A00080D0A0008D3
:1001B000D95F00080D0A00080D0A00080D0A0008A2
:1001C0000D0A00080D0A0008F94A0008054B00084E
:1001D0000D0A0008114B00080D0A00080D0A00085E
:1001E0000D0A00080D0A00080D0A00080D0A000893
:1001F0000D0A00080D0A00080D0A00080D0A000883
:100200000D0A00080D0A00080D0A00080D0A000872
:100210000D0A00080D0A00080D0A00080D0A000862
:100220000D0A00080D0A00080D0A00080000000071
:100230000D0A00080D0A0008000000000D0A000861
:100240000D0A00080D0A00080D0A00080D0A000832
:100250000D0A00080D0A00080D0A00080D0A000822
:100260000D0A00080D0A00080D0A00080D0A000812
:100270000D0A00080D0A0008617200080000000065
:100280000D0A00080D0A00080D0A00080000000011
:08029000000000000D0A000847
:1002A00010B5054C237833B9044B13B10448AFF3B0
:1002B00000800123237010BD901400240000000072
:1002C000ECD7010808B5034B1BB103490348AFF352
:1002D000008008BD0000000094140024ECD7010841
:1002E000034613F8012B002AFBD1181A0138704776
:1002F00001F0FF01102A2BDB10F0070F08D010F8D7
:10030000013B013A8B422DD010F0070F42B3F6D1DA
:10031000F0B441EA012141EA014122F007047FF0F3
:1003200000070023F0E80256083C85EA010586EA4A
:10033000010685FA47F5A3FA87F586FA47F6A5FA86
:1003400087F68EB9EED1F0BC01F0FF0102F0070292
:1003500032B110F8013B013A83EA010313B1F8D13D
:100360000020704701387047002D06BF354603381E
:10037000073815F0010F07D1013015F4807F02BF57
:10038000013015F4C03F0130F0BC0138704700BFA8
:1003900081F0004102E000BF83F0004330B54FEA36
:1003A00041044FEA430594EA050F08BF90EA020FA3
:1003B0001FBF54EA000C55EA020C7FEA645C7FEA36
:1003C000655C00F0E2804FEA5454D4EB5555B8BF59
:1003D0006D420CDD2C4480EA020281EA030382EACA
:1003E000000083EA010180EA020281EA0303362D5C
:1003F00088BF30BD11F0004F4FEA01314FF4801C2F
:100400004CEA113102D0404261EB410113F0004F40
:100410004FEA03334CEA133302D0524263EB4303F7
:1004200094EA050F00F0A780A4F10104D5F1200E95
:100430000DDB02FA0EFC22FA05F2801841F10001F0
:1004400003FA0EF2801843FA05F359410EE0A5F1C4
:1004500020050EF1200E012A03FA0EFC28BF4CF0F5
:10046000020C43FA05F3C01851EBE37101F00045AB
:1004700007D54FF0000EDCF1000C7EEB00006EEBB8
:100480000101B1F5801F1BD3B1F5001F0CD3490842
:100490005FEA30004FEA3C0C04F101044FEA445299
:1004A00012F5800F80F09A80BCF1004F08BF5FEA20
:1004B000500C50F1000041EB045141EA050130BD00
:1004C0005FEA4C0C404141EB0101013C28BFB1F512
:1004D000801FE9D291F0000F04BF01460020B1FA5D
:1004E00081F308BF2033A3F10B03B3F120020CDA30
:1004F0000C3208DD02F1140CC2F10C0201FA0CF00E
:1005000021FA02F10CE002F11402D8BFC2F1200C72
:1005100001FA02F120FA0CFCDCBF41EA0C01904028
:10052000E41AA2BF01EB0451294330BD6FEA040471
:100530001F3C1CDA0C340EDC04F11404C4F120025C
:1005400020FA04F001FA02F340EA030021FA04F36E
:1005500045EA030130BDC4F10C04C4F1200220FAC5
:1005600002F001FA04F340EA0300294630BD21FA03
:1005700004F0294630BD94F0000F83F4801306BFC9
:1005800081F480110134013D4EE77FEA645C18BFBD
:100590007FEA655C29D094EA050F08BF90EA020F54
:1005A00005D054EA000C04BF1946104630BD91EA4C
:1005B000030F1EBF0021002030BD5FEA545C05D14F
:1005C0004000494128BF41F0004130BD14F580048E
:1005D0003CBF01F5801130BD01F0004545F0FE4102
:1005E00041F470014FF0000030BD7FEA645C1ABF37
:1005F000194610467FEA655C1CBF0B46024650EA6E
:10060000013406BF52EA033591EA030F41F4002199
:1006100030BD00BF90F0000F04BF0021704730B51F
:100620004FF4806404F132044FF000054FF00001F4
:1006300050E700BF90F0000F04BF0021704730B5B5
:100640004FF4806404F1320410F0004548BF40428A
:100650004FF000013EE700BF42004FEAE2014FEADF
:1006600031014FEA02701FBF12F07F4393F07F4FBA
:1006700081F06051704732F07F4208BF704793F0BD
:100680007F4F04BF41F40021704730B54FF46074D0
:1006900001F0004521F000411CE700BF50EA0102D3
:1006A00008BF704730B54FF000050AE050EA01027C
:1006B00008BF704730B511F0004502D5404261EBEC
:1006C00041014FF4806404F132045FEA915C3FF42D
:1006D000D8AE4FF003025FEADC0C18BF03325FEACA
:1006E000DC0C18BF033202EBDC02C2F1200300FA7B
:1006F00003FC20FA02F001FA03FE40EA0E0021FAA0
:1007000002F11444BDE600BF53B94AB9002908BF3D
:1007100000281CBF4FF0FF314FF0FF3000F074B9DC
:10072000ADF1080C6DE904CE00F006F8DDF804E048
:10073000DDE9022304B070472DE9F047089D044627
:100740008E46002B4DD18A42944669D9B2FA82F284
:1007500052B101FA02F3C2F1200120FA01F10CFAC0
:1007600002FC41EA030E94404FEA1C48210CBEFBF8
:10077000F8F61FFA8CF708FB16E341EA034306FB81
:1007800007F199420AD91CEB030306F1FF3080F010
:100790001F81994240F21C81023E63445B1AA4B25D
:1007A000B3FBF8F008FB103344EA034400FB07F7FF
:1007B000A7420AD91CEB040400F1FF3380F00A8140
:1007C000A74240F207816444023840EA0640E41B35
:1007D00000261DB1D4400023C5E900433146BDE8E1
:1007E000F0878B4209D9002D00F0EF800026C5E983
:1007F000000130463146BDE8F087B3FA83F6002E9B
:100800004AD18B4202D3824200F2F980841A61EB12
:10081000030301209E46002DE0D0C5E9004EDDE730
:1008200002B9FFDEB2FA82F2002A40F09280A1EB18
:100830000C014FEA1C471FFA8CFE0126200CB1FB6D
:10084000F7F307FB131140EA01410EFB03F0884266
:1008500008D91CEB010103F1FF3802D2884200F2F3
:10086000CB804346091AA4B2B1FBF7F007FB101185
:1008700044EA01440EFB00FEA64508D91CEB040423
:1008800000F1FF3102D2A64500F2BB800846A4EB7E
:100890000E0440EA03409CE7C6F12007B34022FA69
:1008A00007FC4CEA030C20FA07F401FA06F31C4398
:1008B000F9404FEA1C4900FA06F3B1FBF9F8200CA5
:1008C0001FFA8CFE09FB181140EA014108FB0EF0EB
:1008D000884202FA06F20BD91CEB010108F1FF3A3B
:1008E00080F08880884240F28580A8F10208614447
:1008F000091AA4B2B1FBF9F009FB101144EA014155
:1009000000FB0EFE8E4508D91CEB010100F1FF34FF
:100910006CD28E456AD90238614440EA0840A0FB97
:100920000294A1EB0E01A142C846A64656D353D06D
:100930005DB1B3EB080261EB0E0101FA07F722FA91
:1009400006F3F1401F43C5E9007100263146BDE8BA
:10095000F087C2F12003D8400CFA02FC21FA03F31D
:10096000914001434FEA1C471FFA8CFEB3FBF7F09E
:1009700007FB10360B0C43EA064300FB0EF69E42C3
:1009800004FA02F408D91CEB030300F1FF382FD25C
:100990009E422DD9023863449B1B89B2B3FBF7F604
:1009A00007FB163341EA034106FB0EF38B4208D9DD
:1009B0001CEB010106F1FF3816D28B4214D9023E1E
:1009C0006144C91A46EA004638E72E46284605E73C
:1009D0000646E3E61846F8E64B45A9D2B9EB02080D
:1009E00064EB0C0E0138A3E74646EAE7204694E79D
:1009F0004046D1E7D0467BE7023B614432E73046D0
:100A000009E76444023842E7704700BFFEE7000090
:100A100009480A4A0A49121A18F0BCFE09480A4A4B
:100A20000021121A18F0C4FE07F08AF918F07EFEB1
:100A300001F044F8FEE700BF000000247407002422
:100A400024D8010890140024648C0124034B1A1844
:100A500003EB80035B68107B5B681847BC160024BF
:100A6000064B1A5C42B901221A541A1803EB800390
:100A7000107B5B681B68184700207047BC16002479
:100A800030B4054C251804EB800460688468287B2A
:100A9000A44630BC604700BFBC16002430B4054CEF
:100AA000251804EB80046068C468287BA44630BC29
:100AB000604700BFBC160024006870470B0A017035
:100AC00043700B0C090E8370C1707047024400F82C
:100AD000011B9042FBD17047C3690239023B8B4234
:100AE00083BF4389006B01FB03000020704700F1C6
:100AF0000B010022D30143EA520310F8012B52FAF2
:100B000083F38842DAB2F5D1104670470368014694
:100B100010B553B11846024610F8014B1F2C10D9DE
:100B20003A2CF8D1581C824202D04FF0FF3007E037
:100B30001B78303BD8B20128F7D8013218460A603A
:100B400010BD014B1878FBE7AC14002438B50D46F6
:100B5000044618B9092000232B6038BD0368002B18
:100B6000F8D01A78002AF5D08188DA889142F1D13C
:100B70005878FFF76BFF10F00100EBD12368EBE72B
:100B80002DE9F0410025D0F8008006460C468D7511
:100B90008369002B59D0C36A01330AD001F11607CB
:100BA000D8F80C3033F81500002850D12544002324
:100BB000AB75F1690023A57D2E274E1E184616F849
:100BC000012F0130202A26D0052A08BFE522092856
:100BD00007D104EB030C0DB98CF8167001338CF8B7
:100BE000097004EB030C8CF809209DB9A2F1410EA9
:100BF000BEF1190F0CD8082891F80C808CBF4FF06B
:100C0000100E4FF0080E18EA0E0F1CBF2032D2B2A1
:100C10008CF8162001330B28D1D12DB9E218957527
:100C20000A7B002A08BF00232344002201F11C0094
:100C30005A72CB7A2372FFF73FFF206001F1160052
:100C4000FFF73AFFE080000CA080BDE8F0810021B2
:100C500000F0CEFE30B10135B5F5807F02D007F847
:100C6000010B9DE70025A1E72DE9F041466B00F15E
:100C7000380804460123324641464078FFF70EFF0C
:100C80000546A8B9A36A226AF31AE070934202D219
:100C9000A778012F02D82846BDE8F081236A414693
:100CA0006078013F1E4401233246FFF7F7FEF0E76C
:100CB0000125F0E7C3780BB1FFF7D6BF18467047A0
:100CC00038B5436B05460C468B4210D0FFF7F2FF58
:100CD00060B92246012305F138016878FFF7D0FE9C
:100CE00000281CBF4FF0FF3401206C6338BD00208A
:100CF000FCE70000002310B5C3704FF0FF3304463B
:100D00004363FFF7DDFF034618BBB4F836124AF61B
:100D1000552291421FD194F83820E92A05D0A26BC0
:100D20000F4902F0FF128A4217D104F16E000D4AFA
:100D3000FFF7C2FE20F07F40904208D002F14C52F3
:100D400004F18A00FFF7B8FE904218BF022318464C
:100D500010BD0423FBE70323F9E70223F7E700BFF5
:100D6000EB009000464154002DE9FF4100230F465F
:100D700015460B60FFF7CAFE061EC0F213818C4BAE
:100D800053F82640002C00F00F813C6005F0FE0572
:100D900023786BB16078FFF759FEC10708D41DB105
:100DA00010F0040500D00A25284604B0BDE8F08103
:100DB0000023F0B223706070FFF752FEC20700F10B
:100DC000F5800DB14307EED400212046FFF792FFD6
:100DD000022840F0CC806F4604F5FF7304F23E21F8
:100DE0003A4613F8040C10B11846FFF765FE1033AD
:100DF00042F8040B8B42F4D1002557F8046B002E07
:100E000000F0AC8031462046FFF774FF012800F265
:100E1000A680B4F84330B3F5007F40F0AC80B4F85E
:100E20004E1021B904F15C00FFF746FE014694F82C
:100E3000483021625A1EA370012A00F29C8094F867
:100E400045506581002D00F096806A1E2A4240F0D0
:100E50009280B4F8498018F00F0FA4F8088040F091
:100E60008A80B4F84B0018B904F15800FFF724FE4B
:100E7000B4F84670002F7ED001FB03FE07EB181C70
:100E8000F444604577D3A0EB0C02AA42B2FBF5F321
:100E900071D34FF6F572934271D840F6F575AB42B7
:100EA0008CBF02250125023337440CEB0602032DCB
:100EB000E3616662A762226363D1B4F8622052EAFA
:100EC000080258D19B0004F16400FFF7F5FDE062D1
:100ED00003F2FF13B1EB532F4DD34FF0FF33032D2C
:100EE000C4E904334FF0800323712BD1B4F8683088
:100EF000012B27D1711C2046FFF7E2FE10BBB4F88E
:100F000036224AF6552320719A421BD1294B04F10F
:100F10003800FFF7D1FD984214D103F1FF5304F5D7
:100F20000770FFF7C9FD03F500532033984209D13C
:100F300004F50870FFF7C0FD606104F50970FFF764
:100F4000BBFD20611C4A257000251388A561013373
:100F50009BB21380E380194BE36025E70320013542
:100F6000042D7FF44AAF042805D101251CE704288D
:100F7000FBD0012801D90D2516E7002649E70325F6
:100F800091E7B8F1000FF6D0022D4FEA4302774403
:100F90001ABFD21803F001031346E76218BF03EB30
:100FA000520395E70B25FFE60C25FDE60325FBE63E
:100FB000B014002452526141B8140024BA14002421
:100FC00001292DE9F04706460C46174674D9C36936
:100FD0008B4271D90378022B40D0032B51D0012BC7
:100FE0006AD101EB5108816A01EB5821FFF768FED5
:100FF000054640BB14F0010406F1380908F1010A66
:10100000C8F3080808BFFBB230461FBF19F8083004
:1010100003F00F023B0103F0F00318BF134309F87C
:1010200008300123B16AF37001EB5A21FFF748FE43
:10103000054640B9CAF3080A44B1C7F3071709F8CF
:101040000A700123F3702846BDE8F08719F80A30CA
:10105000C7F3032723F00F031F43F0E7816A01EB77
:101060001421FFF72DFE05460028ECD1640006F19F
:10107000380304F4FF741F551819C7F30727477086
:10108000DFE7816A01EBD411FFF71AFE054600285D
:10109000D9D1A40006F1380327F0704704F4FE7498
:1010A0001C442046FFF708FD00F0704047EA0001AD
:1010B0002046FFF703FDC4E70225C4E703284B8B56
:1010C00004BF8A8A43EA0243184670470129F8B5EB
:1010D00006460C464ED9C36999424BD20378022B7F
:1010E00029D0032B34D0012B44D101EB5105816A67
:1010F00001EB5521FFF7E4FD10B14FF0FF30F8BDD3
:101100006F1CC5F30805B16A3046354401EB572121
:1011100095F83850FFF7D4FD0028EED1C7F3080743
:10112000E3073E4496F8380045EA00204CBF00092A
:10113000C0F30B00E3E7816A01EB1421FFF7C0FD68
:101140000028DAD1640004F4FF742644308FD6E717
:10115000816A01EBD411FFF7B3FD0028CDD1A400C3
:1011600006F1380004F4FE742044FFF7A5FC20F0DB
:101170007040C4E70120C2E72DE9F04180460568D0
:101180000F4671B92E69EEB1EB69B34298BF0126E3
:1011900034460134EB69A34217D8012E14D8002439
:1011A00006E02846FFF792FF0128044603D80124F1
:1011B0002046BDE8F081431C30D0EB698342F7D86C
:1011C0003E46E5E70126E3E702242146D8F8000081
:1011D000FFF77CFF30B10128E9D001301ED0B442C6
:1011E000D7D1DCE74FF0FF3221462846FFF7E8FE73
:1011F00090B957B9EA696B69023A2C61934210D9E8
:101200002B7943F001032B71D2E722463946284659
:10121000FFF7D6FE0028EDD00128C8D14FF0FF34EB
:10122000C6E7013B6B61EBE7B1F5001FF8B5064679
:101230000C4601D30220F8BDCA06FBD182680568BE
:101240000161CAB92B78022B01D9EB6A9BB92B89B2
:10125000B3EB541FEED9EB6AB361B3697261002B33
:10126000E8D003EB54233835C4F308040020B361FD
:101270002C44F461DFE71A466F897F02BC421146B5
:1012800004D22846FFF728FCB061E6E73068FFF794
:101290001DFF431C024606D00128CBD9EB698342CF
:1012A000C8D9E41BEAE70120C5E703692DE9F04747
:1012B00003F12008836905468A4693B1B8F5001FFB
:1012C0000FD2C8F308090468B9F1000F4DD10133FA
:1012D0004169836139B92389B3EB581F45D800238D
:1012E000AB6104200BE06789013F17EA58273CD126
:1012F0002046FFF7EBFE0128064602D80220BDE893
:10130000F087421C01D10120F9E7E369834226D826
:10131000BAF1000FE3D069692846FFF72DFF0646B2
:10132000002835D00128E9D0431CECD02046FFF737
:10133000C1FC01460028E6D104F138004FF40072E8
:101340004FF0010AFFF7C2FB31462046FFF7C4FB0E
:10135000606363899F420FD3636BDB1B636331461A
:1013600020466E61FFF7B8FBA86138340020C5F84D
:1013700010804C44EC61C2E7204684F803A0FFF7DC
:1013800073FC0028BFD1636B013701336363E0E76F
:101390000720B4E72DE9F04F002185B00446D0F8CE
:1013A00000B0FFF741FF0646002840F098804FF05C
:1013B000FF084FF0FF3AC146C4F82CA0A169584677
:1013C000FFF77EFC0646002840F08980E5692F780B
:1013D000002F00F08880EA7AE52F02F03F03A37126
:1013E00003D0100704D50F2B04D0C4F82CA050E074
:1013F0000F2B56D194F82B30590640D47A0646D597
:10140000236907F0BF0795F80D80E3626B7B4345C6
:101410003FD16B8B002B3CD12E780122DBF80C30B6
:1014200006F03F06DFF8C89000930D23013E5E43AF
:1014300019F8013BEB5A7AB3FE2E2AD818460393CB
:1014400000F0F4FA009B711C029033F81600019131
:1014500000F0ECFA029A82421BD1039B01991A46D2
:101460000E46224B9945E3D12B785B0604D51AB181
:10147000009B33F8163063B9013F5FFA87F900210A
:101480002046FFF712FF0646002897D027E0B9450F
:10149000BCD04FF0FF09F2E74FF6FF718B42E0D06E
:1014A000F7E7B9F1000F04D12846FFF720FB4045CC
:1014B00015D094F82B6016F0010696D104F12002A5
:1014C00005F10B0115F8013B12F8010B8D42A3EB5E
:1014D000000302D0002BF5D087E7002B85D13046E2
:1014E00005B0BDE8F08F0426F9E700BF61C7010829
:1014F00054C701082DE9F843FF270646D0F80080BD
:1015000004253C464FF6FF79B16911B9002D5FD033
:101510004FE04046FFF7D4FB0546002849D1F0696B
:101520000378002B5CD0C27AE52B02F03F02B27147
:1015300044D02E2B42D022F0200108293ED00F2A81
:1015400041D1590638D503F0BF043369477BF362B4
:10155000437BBB4232D1428B82BB03780D21D8F84A
:101560000C504FF0010E23F04003DFF878C0013B30
:101570004B431CF8011B415ABEF1000F20D0FE2B3B
:101580001CD825F813108E46013301320D2AF0D1F4
:101590000278520604D5FE2B10D8002225F813201D
:1015A000013CE4B200213046FFF77FFE05460028EB
:1015B000AAD00023B3610CE0A342C9D0FF24F1E715
:1015C0004945E2D0FAE73CB9FFF791FAB84203D1B6
:1015D00000252846BDE8F8834FF0FF33F362F8E7B3
:1015E0000425E6E754C701082DE9F74F0B780546B7
:1015F0008846D0F800B02F2B01D05C2B09D1424691
:101600001378904601322F2BFAD05C2BF8D00023B0
:1016100001E0DBF81830AB6098F800301F2B00F2C7
:10162000D88080230021284685F82B3003B0BDE800
:10163000F04FFFF7F9BD0134DEE0B4F5807F009391
:101640000CD0012100F0D4F940B17F28009B07D8CD
:101650008F4911F8012B1AB18242FAD1062005E117
:1016600026462AF8020FBDE0022E04D1B9F8023056
:101670002E2B00F0D1805EBB002329F81630002EFF
:10168000ECD020210B226818FFF720FA194639F810
:101690001130202B24D02E2B22D009B144F003048A
:1016A00037F816302E2B01D0013EF9D100234FF030
:1016B000080A1F4639F811004A1C10B3202803D02D
:1016C0002E280FD1964211D044F003041146F1E7C1
:1016D00037F81630202B01D02E2BCDD1013ECAE792
:1016E0000131D4E7534505D296423AD1BAF10B0FF6
:1016F00030D102E0BAF10B0F27D144F003044FF0D0
:101700000B0A95F82030E52B04BF052385F820301F
:10171000BAF1080F04BFBF00FFB207F00C030C2B97
:1017200003D007F00302032A01D144F00204A0070A
:1017300000F1878007F00307012F08BF44F0100471
:10174000042B08BF44F008047BE0964202D044F02A
:101750000304D6D3BF0032464FF00B0A0823FFB272
:10176000B4E77F280ED9002144F00204CDE900231C
:1017700000F03EF9DDE9002360B14649084410F865
:10178000800C38B1DFF810C11CF8011B002972D0A1
:101790008142F9D144F003045F20E918013381F854
:1017A000200093E747F00207F7E7002A08BF05206B
:1017B0005CE05A075AD4AB79DB065AD529690BF19C
:1017C00038039BF80000C1F308011944FFF776FCC9
:1017D000A8602B680026D3F80C9008F1FF33A9F11C
:1017E0000207BA4613F8010F741C1F280CD92F28C2
:1017F00002D05C287FF421AF18F804302F2B3FF47F
:101800001AAF5C2B3FF417AF2028A04434BF042448
:101810000024012E7FF428AFB9F800302E2B7FF47E
:101820002AAF002305F1200229F816309E428CBF12
:101830002E21202101330B2B02F8011BF6D144F09D
:101840002004284685F82B40FFF7A4FD95F82B309F
:101850000028AED0042809D1990603F00402A4D5CB
:10186000002AB6D08023002085F82B3003B0BDE8D5
:10187000F08F0520FAE7A0F14101192992D9A0F1D2
:10188000610119299EBF203847F0010780B284E723
:10189000C4C60108D4C60108CDC601081FB5CDE9EC
:1018A000001003A814460391FFF730F9031E15DB5F
:1018B0000C4A52F8231009B100200870019808B1B1
:1018C0000021017042F8230030B1012C08D1002220
:1018D00001A96846FFF748FA04B010BD0B20FBE7EA
:1018E0000020F9E7B01400241FB50446019150B35D
:1018F000002203A901A8FFF737FA70B9039B20461D
:1019000001992360FFF770FEF8B994F92B30002B92
:101910000CDBA379DB0603D405200023236010E051
:10192000039BE1691878FFF7C9FBA060039B0021C6
:101930002046DB88A380FFF777FC0428ECD0002842
:10194000EBD104B010BD0920FBE70428E4D0E4E7A4
:1019500013B501A90446FFF7F9F800B9206002B0F9
:1019600010BD73B50D4601A90446FFF7EFF820B985
:101970002DB901462046FFF757FC02B070BD204646
:10198000FFF7B8FD10F0FB06F7D129462046FFF718
:10199000F7F831462046FFF788FC042808BF0020EE
:1019A000EBE700000F4B30B59C7B012C17D89D7BDB
:1019B0000024EDB25C559D7B03EB85056860987B48
:1019C000184402739A7B501C3032C0B298733A2389
:1019D00020460A704B702F23CC708B7030BD0120D5
:1019E000FCE700BFBC1600240022FFF7DBBF0000AD
:1019F0007F2810B506D931B1FF2812D880380A4B9C
:101A000033F8100010BD084A32F8024B8BB2844202
:101A100003D001318029F7D10B4603F18000C0B219
:101A2000F0E70020EEE700BF62C701081E4B1F4A27
:101A3000B0F5805F28BF134670B5191D31F8043C1E
:101A40000A46ABB1984213D331F8024C250AE6B2EC
:101A500053FA84F4A04221DA082D09D8DFE805F012
:101A600005090F11131517191B00C01A31F81000C2
:101A700070BDC31A03F00103C01A80B2F8E7103832
:101A8000FBE72038F9E73038F7E71A38F5E7083090
:101A9000F3E75038F1E7A0F5E350EEE70431002D0D
:101AA000CCD102EB4603C8E762C8010854CA01085A
:101AB00070477047704770477047000010B50E4C74
:101AC0000021204601F07AFA012002F0C7FE0B48FF
:101AD00002F0B6FEB7EE000A04F1D80002F038FFBB
:101AE000204601F0CBF9064B064A0749074800F0AB
:101AF00085FB002010BD00BFB49F002410CB01085F
:101B0000B00600C0001206C0001206C1CC160024A8
:101B10002DE9F041584D0024584E594A59495A4828
:101B200016F010FD564A5949284616F00BFD06F5E9
:101B3000C070346074613462F46302F0C5FE544BCB
:101B4000DFF874813046C6F8383240F20F734C4AE1
:101B5000A6F83C3206F514734E49C6F8403240F2FE
:101B60000113C6F89041C6F84C42C6E9913416F00C
:101B7000E9FC2B1DC8F8005005F28445C8F8144054
:101B8000C8E90136C8E90354434B1425C3E900648E
:101B9000C3E90244002100220120013D197403F130
:101BA000380343F81C1C03F8141C4FF0020143F8DF
:101BB000242C5960394943F8202C9960384943F85E
:101BC000180CD960E6D1374F374C3B46BA60FA6003
:101BD000A7F28C4043F8042B3A611A607A61BA612B
:101BE0003249274A16F0AEFC2046A7F28C414FF44A
:101BF000956240F8046B17F0CDFD2946C4F8B46433
:101C00001822C4F82D5504F5A860C4F834554FF0D7
:101C10007C56C4F8AC84C4F8BC54C4F8C05484F8EE
:101C2000C95484F82C55C4F83055C4F8375517F00A
:101C3000BFFD04F23C53294618221E6004F25C509A
:101C400017F0B6FD04F5AB63204684F884551E609A
:101C5000174BC4F82056C4F82456C4F82856C4F8C4
:101C60002C56C4F8305684F86C561C60044A11494E
:101C7000BDE8F04116F066BC000000C0B49F00242F
:101C800000000024B51A0008B00600C0B11A000810
:101C90000080707FB31A0008E40F0024CDCC4C3FC5
:101CA0000000A04070140024CC160024B71A0008CD
:101CB00098320124B91A000874070024F0B50546CB
:101CC00085B01748012602F0BBFD0024032301A9BB
:101CD00028688DF80C40CDE9013604F0E7FC074692
:101CE000D8B9104802F0ACFD3146686805F06CFDCB
:101CF0000D4802F0A5FD686832460C490430FFF734
:101D0000CDFD28B10A4802F09BFD384605B0F0BD74
:101D1000084802F095FD3046F8E72046F6E700BF98
:101D20001CCB010828CB010833CB010841CB0108AB
:101D300043CB010853CB0108F0B54168D3B000266E
:101D4000044601F27441A0F85A686846FFF7CCFDDA
:101D500028B1234802F074FD304653B0F0BD05466B
:101D60000CA968462FB2FFF7FCFD68B99DF8463014
:101D700053B1B4F85A681F2E06D89DF8383013F0C6
:101D8000120F0FD00135EBE76846FFF7E1FD15486C
:101D9000B4F85A1802F054FDB4F85A08003818BFC5
:101DA0000120DAE7022210490DF1460018F0C4FACA
:101DB0000028E7D00D490DF1460018F0D1FA30B9EE
:101DC0000B490DF1460018F0CBFA0028DAD006F1E5
:101DD0000C03013624F81370A4F85A68D2E700BF48
:101DE00062CB010883CB010894CB010897CB010893
:101DF0009CCB0108C0E9041270470000084A136830
:101E000083EA433383EA534383EA431307EE903A6A
:101E10001360B8EE670ADFED037A20EE270A7047F9
:101E2000943201240000802F38B500F28C4504461E
:101E3000D5ED007AF5EEC07A2DED028BF1EE10FAB9
:101E400039DDFFF7DBFFF7EE007A95ED007A20EE43
:101E5000000AD4F8783477EEC76A37EE277AF0EEC6
:101E6000667A37EE666AE0EE067A9FED826AC7FE12
:101E7000A67A87FEC77A07EE903AF8EE676ADFED3A
:101E80007E7A66EEA76AC6EE867A67EE877A9FED5F
:101E90007B7AC7FE877A9FED7A7AC7FEC77A9FED75
:101EA000797A67EE877A67EE867AFCEEE77A17EE44
:101EB000903AC4F8783404F5926393ED008AB5EE55
:101EC000C08AF1EE10FA1CDDFFF798FFBFEE007A32
:101ED000F0EE006AD4F87C34E268F0EE477AE0EE87
:101EE000267AC7FE877AB7EE007AC7FEC77A28EE51
:101EF000278ABCEEC88A18EE101A02FB0133C4F818
:101F00007C3404F29C45D5ED007AF5EEC07AF1EE12
:101F100010FA1FDDFFF772FF95ED007A04F591636B
:101F200037EE076AF0EE477AF1EE476AD0EE067AAE
:101F3000C7FEA67AC7FEC77A93ED007A77EE877A56
:101F40009FED517AC7FE877AB7EE007AC7FEC77A4F
:101F5000C3ED007A04F59365D5ED007AF5EEC07A0D
:101F6000F1EE10FA25DDFFF749FFB7EE007AD5ED67
:101F7000007A20EE000A04F2844377EE676A37EEB7
:101F8000877AF0EE667A37EE666AE0EE067AC7FE8A
:101F9000A67AC7FEC77A93ED007A67EE877AB6EE27
:101FA000007AC7FE877AB0EE087AC7FEC77AC3ED1B
:101FB000007A04F59465D5ED007AF5EEC07AF1EE7D
:101FC00010FA11DDFFF71AFFD5ED007AB4EEE70A3B
:101FD000F1EE10FA08D5FFF711FFFDEEC07A17EE0B
:101FE000903A9B00C4F8743404F2A445D5ED007A0D
:101FF000F5EEC07AF1EE10FA11DDFFF7FFFED5ED38
:10200000007AB4EEE70AF1EE10FA08D5FFF7F6FE13
:10201000FDEEC07A17EE903A9B00C4F8703404F2DB
:102020009445D5ED007AF5EEC07AF1EE10FA1EDD9A
:10203000FFF7E4FEF7EE007A95ED007A20EE000A55
:10204000D4F8803477EEC76A37EE277AF0EE667AF6
:1020500037EE666AE0EE067AC7FEA67AC7FEC77A52
:10206000FCEEE77A17EE902A5343C4F88034BDECB7
:10207000028B38BD00803B4700007A440000C84214
:1020800000803B456F12833A0000000038B5002203
:1020900004461023B3F58E6F04EB03051CD0E15CFE
:1020A000C1B10132D4F88014914213D92046FFF710
:1020B000BBFE04F5916204F28443D4F87C14D2EDA3
:1020C000000A284693ED000AD4F87824BDE8384089
:1020D00000F0CCB93833DDE738BD2DE9F74F0646BF
:1020E0009A460D4614464FF00009D1452BD04FF0CB
:1020F000000810274FF0000B3046FFF7C7FFCDF860
:102100000080CDF80480B7F58E6F06EB070009D08C
:10211000F35D2BB10BF1010B01AA694600F014FA33
:102120003837F0E7BBF1000F08D0009B2B60019B14
:10213000236009F1010904350434D6E7C5F80080AD
:10214000C4F80080F5E703B0BDE8F08F38B5054668
:10215000D0F82426D0F82016D0F8AC04FFF74AFEB9
:10216000D5F8AC04FFF7AAFD044620B9084802F0F0
:1021700067FB204638BD074802F062FBD5F8AC0487
:10218000FFF7DAFD04460028F3D10348EFE700BF6C
:10219000A1CB0108BECB0108D0CB010837B504465E
:1021A000006800F065FE04F5B16004F2CC5500F063
:1021B00091FA9FED0F0AD4F8C8058DED010A00F0E1
:1021C000AFFC9DED010A284600F0A4FB094B00225C
:1021D0000121AB60084B6B6004F5C2639A6084F820
:1021E0001C161A604FF07E525A6003B030BD00BF1B
:1021F00000803B4700409C463333333F10B50446D4
:10220000C0F82016C0F824260421C0F8C83500689C
:1022100000F002FE2068032100F014FE2046FFF7C4
:1022200095FF40B90C4802F00BFB2068B7EE000A9E
:10223000D83002F08BFB2046FFF7B0FF002018F0EB
:10224000A5F8064B1860206800F014FE20680449C9
:10225000BDE8104000F0DEBDE4CB0108943201245B
:1022600059240008002310B593420AD0486800247E
:1022700000EB83000460086800EB83000133046016
:10228000F2E710BDF0B5002494422ED0D0F8AC6433
:10229000D0F82C36B6F96478D6F86858B5FBF7F55F
:1022A000AB4220D2D0F82066DFED106A36F9136019
:1022B0000D6807EE106AD0F8246605EB840536F940
:1022C0001360B8EEC77A013307EE906A27EE267ADC
:1022D000F8EEE77A85ED007A67EEA67A4D68C5EDEF
:1022E000017AC0F82C360134CEE7F0BD000000388A
:1022F000F0B5DFF878C00026DCF8004035469D4296
:102300002ED00E68176806EB850607EB8507D6F812
:1023100000E0C7F800E04F6807EB8507D7ED007ACB
:10232000576807EB85070135C7ED007AFDEEE77AC0
:1023300096ED007AD0F82076BDEEC77A17EE106AD7
:1023400027F8146017EE907AD0F8246626F81470F7
:102350000134054EB4FBF6F706FB17440126CEE721
:102360000EB1CCF80040F0BD00F22B009C320124ED
:102370002DE9F04784B00C4615461346804602AF5F
:1023800004304FF00009D1E90012FFF7A6FE2368E0
:1023900008F5B16000951A461946786000F09CFA7D
:1023A000636800951A461946786800F095FAAB0004
:1023B000073323F00703ADEB030D02AEADEB030DC6
:1023C0000DF1080A4D4517D02368D8F8C80503EB6E
:1023D00089031A683260626802EB890209F1010917
:1023E0001168CAF8001031460092524604360AF1CC
:1023F000040A00F0F1FBE5E70837BD46BDE8F087C9
:10240000F0B4D0F8747514461D46022F1BD0032F6C
:1024100016D0012F1CD1D0F8AC24B2F96418D2F830
:102420006838D0F82C26B3FBF1F3013B21469A42E1
:102430002A4602D3F0BCFFF715BFF0BCFFF722BF5E
:10244000F0BCFFF755BF21461A46F0BCFFF790BF1E
:102450001A462146EEE7000013460A4601460248A6
:102460000068FFF7CDBF00BF9832012407EE902A25
:10247000114B80ED0A0AF8EE677A1B68C0ED070A77
:102480008B4280EE277A98BFC91A8369C360C0E97E
:102490000812012100228B424260016108BF4FF007
:1024A0007E53017002BF43604FF0FF33036100238E
:1024B00080ED027A03757047A0320124000000000D
:1024C00008B5C36A042B09D8DFE803F00307081A2C
:1024D0002700F7EE007A37EEC00A08BDD0ED0C7A7F
:1024E000B7EE007AF4EEC07AF1EE10FA05DA70EE8B
:1024F000677AD0ED0D6AA7EEE67AB0EE470AECE710
:10250000B0EE007AFFEE007AE0EE077AB7EE000A4E
:10251000F0EEE77A30EE670ADFE79FED097BB7EE72
:10252000C00A20EE070B16F02FF9B7EE007B37EE4E
:10253000400BB6EE007B20EE070BB7EEC00BCCE7EE
:10254000182D4454FB211940037870B504460E46FB
:1025500015462DED048B1BB1037D23B100232370A1
:10256000BDEC048B70BDD0ED047AC368F8EEE77A59
:1025700090ED010A90ED027A022BA7EE270A74D0A3
:10258000032B00F08380012B63D0F7EE007AB4EECA
:10259000E70AF1EE10FA03DDB0EE670A01230375D6
:1025A000237D84ED010A002BD8D1D4ED097A204691
:1025B00094ED0A7AF8EE677A236A67EE807A67EE1E
:1025C000877AFCEEE77A17EE902ADFED3D7A1A441F
:1025D00013463C4A1268511E99429CBFB3FBF2F16C
:1025E00002FB1133384A126832F9132008EE902AA0
:1025F000364A1268F8EEE88A32F9133068EEA78A94
:1026000008EE103AB8EEC88A28EE278AFFF758FF7E
:10261000B0EE409AD4ED077AB7EE000A30EE670AC2
:1026200016F08EF9F0EE409A94ED070A16F088F94C
:1026300068EE898AD6ED007A28EE098AE8EEA97A52
:10264000C6ED007AD5ED007AE8EE007AC5ED007AA5
:1026500086E7B5EEC00A4FF0FF320261F1EE10FAE4
:102660009ED59FED1B0A03759AE7F7EE007AB4EE4C
:10267000E70AF1EE10FAC8BF30EE670AB5EEC00AFD
:10268000F1EE10FA8CD530EE270A89E7F7EE007AE2
:10269000B4EEE70AF1EE10FA07DDF0EE007A4FF043
:1026A000FF3337EEC00A23617AE7B5EEC00AF1EED8
:1026B00010FA7FF575AFB1EE400A0123F3E700BFD2
:1026C00000000038A0320124A8320124A4320124E1
:1026D0000000000010B52DED028BB7EE008A044615
:1026E000B4EEC80AF1EE10FA71DDDFED3B7AB4EE1C
:1026F000E70AF1EE10FA6CDCFDEEC07A17EE903AC4
:1027000007EE903ADFED358A2363B8EEE70AC4EDB1
:10271000028AF0EE007A88EE007AC4ED007AC7EE05
:10272000806AD4ED087A78EE677A87EE280A84ED1D
:102730000E7AC4ED0D6AFEEE006A67EEA67AC4ED6D
:10274000097AB1EE400A16F05FF894ED0D7AD4EDF7
:10275000027A84ED0A0A87EE270AB1EE400A16F0E3
:1027600053F894ED007A84ED080AC8EE077AC4EDB8
:10277000038A77EEC87A38EE408A27EE888AD4ED4D
:102780000E7A87EEA80A84ED098AB1EE400A16F0A7
:102790003BF8FAEE087AD4ED006A0123C4ED078A0B
:1027A00087EEA67AC4ED017AC4ED068A84ED0B0AA1
:1027B00084F83C30BDEC028B77EEC77AB6EE007A37
:1027C000F0EEE77A67EE877AC4ED047A10BD012354
:1027D00096E7034B94E700BF00803B48CDCCCC3D4F
:1027E00000EE020010B52DED048BF0EE408AD0ED26
:1027F000066AB0EEC00A82B0F7EE007A0446D0ED69
:10280000089AF4EEC06A90ED079A90ED098AF1EE0D
:1028100010FACCBF90ED0B7A90ED0A7A77EEC77A7A
:1028200067EE807AE6EE877AC0ED067AB0EEE70AC8
:1028300001A816F05BF89FED207ADFED207ADFED3E
:10284000206AE0EE077A9FED1F7AE0EE276AF0EE4D
:10285000477A9DED017AB8EEC77AE0EE267A94EDDC
:10286000040AF3EE046A37EE277ADFED177A27EED3
:10287000277AD4ED017AD7EE267A9FED147AC7FE37
:10288000877A68EE277AE9EE897AC4ED077A77EEDF
:10289000807A9FED0F0A67EE807A9FED0E0A27EE91
:1028A000800A15F0B1FF84ED050A28EE800A02B017
:1028B000BDEC048B10BD00BFA8A19D3FF5CA83C02D
:1028C000FBB3C040E09248C09B209A3E000000004D
:1028D000CDCC4C3D8E5D13402DE9F843089E054656
:1028E00098460F4614464FF00009B1450FD0B8EC9A
:1028F000010A2846FFF776FFB7EC017AD5ED057A95
:1029000009F1010967EE877AE4EC017AEDE7BDE8A9
:10291000F883000000230A4A80ED0E0A036042603B
:10292000C360084A4362036183624361C362836197
:10293000C36103620363044B82604363704700BF5B
:10294000CDCCCC3E00007A44000080BF8B69B6EE4F
:10295000005BD0ED054A002B9FED354AB8BF03F56B
:10296000803310B5B8BF8B6143F609548B6963435C
:1029700001339CB21B042F4B48BFA4F580348C61FB
:10298000140103EB0212D2ED027A84EEA76AD1EDB4
:10299000007AB7EEC66A36EE056BBDEEC66BF8EE92
:1029A000E76AD1ED037AB8EEE77AD1ED027A81EDEC
:1029B000076AF8EEE77AE7EE047A76EEE77AF5EE64
:1029C000C07AF1EE10FA06D591ED017AB8EEC77A29
:1029D00077EE877AF3E787EEA47AD1ED067A23447F
:1029E00090ED034AD3ED016AF8EEE77AB8EEC66AD5
:1029F00067EEA67ADFED106A67EEA67AD3ED006A7D
:102A0000E4EE276A77EE667AB7EE007AC7EE866A5A
:102A1000DFED0A7AA4EEA67A27EE277AB7EEC77A18
:102A200037EE057BBDEEC77B81ED047A10BD00BF9C
:102A30000000803118CC0108000000380000804DF3
:102A4000334BB7EE026B90ED054A03EB0213D3ED67
:102A5000004AD3ED013AB7EEE47AB7EEE35A70B527
:102A6000A5EE067B00250C464D610D60B6EE005BC1
:102A70009FED256BB7EEC77B27EE047AB7EEC77ADA
:102A800037EE067B93ED036AB7EEC66ABDEEC77BF1
:102A9000DFED207A36EE056B81ED017AB8EEC77A6C
:102AA000BDEEC66B81ED066AB8EEC66A26EE236AF5
:102AB00026EE276AD0ED037AE7EE864AA4EE647A22
:102AC000FDEEC77AC1ED027AF8EEE77A37EE677A63
:102AD000DFED117A27EE277AB7EEC77A37EE057B5E
:102AE000BDEEC77B81ED037AFFF730FF0021606800
:102AF0002B462162984205DD626A02EB83020133B4
:102B00001160F7E7002070BD000000000080304039
:102B100018CC0108000000380000804D00000000C3
:102B2000294B4FF07E522DE9F04103600025274BE1
:102B3000044600F12408264F436000232E4680ED12
:102B4000020A0361C361012380ED050AC26082614C
:102B5000036204F5B27332464146204603EB850317
:102B60000136C8F82430FFF76BFF97ED016A97ED47
:102B7000007AB7EE025BB7EEC66A082EB7EEC77AE8
:102B8000A6EE057B9FED0E6BB7EEC77B27EE007AB6
:102B9000B7EEC77A37EE067BBDEEC77B17EE103A6D
:102BA00005EB830502D10020BDE8F081094B08F157
:102BB000280810379D42CCDD0120F5E7AFF30080F7
:102BC0000000000000803040EC51783F00401C467F
:102BD00018CC0108788201002DE9F0411D46036AF6
:102BE00006460F46002B90462DED028B40F30481E4
:102BF00090ED010AD0ED077AB4EE670AF1EE10FA13
:102C000040F0BC8090ED060A344606F5A0723346CB
:102C1000DFED7D7A93ED117A28339A4277EE877A49
:102C2000F8D1B5EE007A97ED002AD8ED002A0027FA
:102C3000DFED753AE7EE872AA7EE872AB0EE633A12
:102C400017F0010094ED117A616AA26C42FE227ABB
:102C500077EEC77AA36A02EB8102C2ED007A626A5C
:102C600001329A42A8BFD21A6262226BB2F1805F2F
:102C700006DBE16A01EB227122F07042E16222631D
:102C8000E26AFFEE006AB7EE006A9A42B6EE005AB8
:102C9000B0EE667AA4BFD21AE262A26CD4E90B1C31
:102CA0009FED574B05EE90CA0029FAEEC25AA5EEE9
:102CB000A57A35EE866AE6EE056AB7EEC77A27EEA4
:102CC000047BB7EEC77BF0EE087A67EE277AF0EE6A
:102CD000671A77EEE57AD6EE051A36EEC76A68DD32
:102CE000A3F1020E8E4564DD01F18041013902EB52
:102CF000810191ED004AD1ED016AD1ED024A91EDD9
:102D0000035A66EEA77A636B6344E4EE067A2363A4
:102D1000E4EEA17AE5EE077A96ED007AE7EEA56A91
:102D2000D4ED117AE7EE667A67EE807AE7EE267ADE
:102D3000C4ED117A00285CD073EEA73A236C013BF6
:102D4000002B236405DC3A4604F124013046FFF7EA
:102D5000FDFD01372834082F7FF472AFDFED2B7AA9
:102D60000020089B23EE273A63EEA73A85ED003A50
:102D7000C3ED003ABDEC028BBDE8F081DFED247AB3
:102D800080ED070A20EE270AD0ED057A80EE270AAB
:102D900015F0DEFBF0EE007A37EEC08ABFEE000AD7
:102DA000A8EE080A15F0CCFD38EE400A86ED060ABA
:102DB0002AE7013948BFC91802EB810E01318B4265
:102DC0009EED004AD8BFC91A02EB810E01318B4239
:102DD000DEED006AD8BFC91A02EB810E01318B42C9
:102DE000DEED004AD8BFC91A02EB810191ED005A0D
:102DF00087E733EE273AA1E70120BBE7AFF3008076
:102E0000555555555555C53F000000003333B33E69
:102E1000DB0FC94000F068B938B5044600F088F906
:102E2000D4F8A850204600F09FF9284601F032FC63
:102E3000D4F8AC50204600F097F92846BDE8384059
:102E400001F028BC38B5044600F052F9D4F8A85077
:102E5000204600F089F9284601F01CFCD4F8AC505B
:102E6000204600F081F92846BDE8384001F012BC48
:102E700000F05AB9183002F073B800BF10B504461C
:102E8000D83001F07FFD04F59670BDE8104001F0E8
:102E900079BD00BFF0B54FF481718FB000F1D80754
:102EA00001254FF4C0624FF4E063ADF8081000F55F
:102EB000967402993846ADF80C2008AEADF8103083
:102EC0000095DDE9032301F019FD40F201134FF4F1
:102ED00080722046ADF814304FF480630599009558
:102EE0000BADADF81820ADF81C30DDE9062301F07C
:102EF00005FD3046072105F03BFC96E8070085E814
:102F000007002946384601F027FD96E8070085E8C6
:102F100007002946204601F01FFD384601F032FD2A
:102F200020460FB0BDE8F04001F02CBD2DE9F04186
:102F300040F2024304460222002504F1180704F17E
:102F4000A8062DED028B8EB09FED1B8AADF80C30DC
:102F500005A8039901F0E2FD02220DF12600ADF86B
:102F60001020049901F0DAFD0423022205A9384655
:102F700001F0E8FD04F1680204F18803C4E92A23A2
:102F80002946384656F8048B02F000F801462046E0
:102F9000019100F0E9F80023F0EE480A019940465B
:102FA0001A4601F045FB25B10EB0BDEC028BBDE821
:102FB000F0810125E4E700BF6F12033B2DE9F041EA
:102FC00004469AB00027019100F08CF80199204640
:102FD00000F08AF940F6061304F1B0069FED400AAE
:102FE000ADF8143004F1C0053046059901F0D8FC65
:102FF0004FF4007328469FED3A0AADF8183004F5F7
:10300000C878069901F0CCFC40F6033240F2016327
:103010009FED330AADF8082004F140000299ADF8A5
:103020000C70C4F8D0600FAEC4F8D45007ADADF842
:103030001030DDE9032301F059FB2046FFF72AFF9A
:103040002046FFF773FF284601F03EFC01230DF1F7
:103050002C0E04F5C07C1593189347F6122316978F
:1030600019930223179395E80F008CE80F008EE860
:103070000F0086E80F00BDF840301490ADF84E30D8
:10308000BDF84230D4E9625EADF84C30C4E9655E0B
:10309000BEF1000F04D072463946284616F088FB70
:1030A00013A9404604F0C6F904F5D27001F020FCE3
:1030B0003021204600F03CF8D4F8A850204600F01B
:1030C00053F8284601F0E6FAD4F8AC50204600F058
:1030D0004BF828461AB0BDE8F04101F0DBBA00BF5A
:1030E00000000000704700BF143001F06DBA00BF4F
:1030F00038B500F1140504462DED028B284601F089
:103100001FFA284601F018FA2846B0EE408A01F06E
:1031100001FAD0ED007AF8EE677A88EE277ABDECF6
:10312000028B84ED0E7A38BD143001F005BA00BF71
:1031300038B500F1140504462DED028B284601F048
:10314000EDF9284601F0F8F92846B0EE408A01F082
:10315000E1F9D0ED007AF8EE677A88EE277ABDECD7
:10316000028B84ED0E7A38BD90ED0E0A704700BFD9
:1031700010B540F203338EB000244FF60B7240F2CC
:103180000341ADF8083009A80123ADF81020ADF8CF
:1031900024202246ADF80C100094029907940C9458
:1031A000CDE90544CDE90A4401F0F2FF04A801236A
:1031B00022460399009401F0EBFF09A802F0CEF833
:1031C00010B901200EB010BD04A802F0C7F8A0424B
:1031D0000CBF022020460EB010BD00BF2DE9F0410B
:1031E00003239AB0012700240646CDE914373B4B50
:1031F000CDE9104340F20453CDE91647ADF848300D
:10320000FFF7B6FFB842054625D0022845D040F664
:103210000132334B0DF12C081894ADF82C200B988B
:103220001997CDF84A3000F0E3F810A906F13C00F8
:1032300003F0CEF8302003224FF07E5341460D9329
:103240000E93CDE90B02F26B06F1140001F02AF99E
:103250001AB0BDE8F0811023214A06A906908DF826
:1032600028300DF12C081F4BCDF84A20079302940B
:10327000CDE91804CDE9080402A802F0E1FA082318
:10328000029A03A94046ADF80C508DF80E40049503
:1032900005930B9400F0ECF8C7E700200121104BD8
:1032A0000DF12C083A460094CDF84A304FF60B73D6
:1032B0000C94ADF82C302346CDE9180140F60131CD
:1032C0004046ADF818100699CDE90D4401F060FFB5
:1032D0002146404602F04EF8A7E700BF040204046E
:1032E000040604030704010B2DE9F04704462DED05
:1032F000028B82B000294DD0012140F2011200233F
:103300000091ADF804208DF80630364A0127364B7F
:1033100004F10409354904F12908626040F202729F
:10332000A36040F60663E16004F1250AA4F82520B5
:10333000A4F82930278284F8277084F82B7004F0D1
:10334000B5FC054604F018FB6946064650BB4DB374
:1033500004F130008DF8067004F030FC072D3CD1EC
:1033600004F114052046FFF739FF284601F0E4F880
:103370002846B0EE408A01F0CDF8D0ED007AF8EEA4
:10338000677A88EE277A84ED0E7A02B0BDEC028B64
:10339000BDE8F08740F2011300918DF80610ADF8FA
:1033A0000430B2E704F1300004F008FC072D11D01E
:1033B0004946204602F08CFC0EB9002DD0D1504673
:1033C00001F0E2FF404601F0DFFF04F1120000F0DF
:1033D00079F9C5E7002EF2D1C2E74946204602F04E
:1033E00077FCBDE70508050905070506050A060679
:1033F00010B584B003460124ADF8040003A8ADF86D
:103400000C30ADF80E4001F0BFFF214603A802F0DA
:1034100097F8204604F0AEFA002103A802F090F8D5
:10342000204604F0A7FA214603A802F089F804B068
:1034300010BD00BF10B5C2F3002384B00C46017C60
:103440008DF80D2043EA4402FA2402238DF80C2063
:1034500003AA009402F08AFA18B10124204604B0AD
:1034600010BD04460A2004F085FA204604B010BDC1
:10347000034670B543F8042B044684B007C983E8BB
:103480000700A37983B91A210B461E22FA2523745B
:103490002046ADF80C20022303AA009502F066FA3C
:1034A00028B1012004B070BD1B210B46EDE70A20B6
:1034B00004F060FA4FF4B85200950223ADF80C20E6
:1034C000204603AA217C02F051FA0028E9D10A2003
:1034D00004F050FA41F2027200950223ADF80C207C
:1034E000204603AA217C02F041FA0028D9D10A2003
:1034F00004F040FA042200950223ADF80C20204687
:1035000003AA217C02F032FA0028CAD10A2004F072
:1035100031FA062200950223ADF80C20204603AABA
:10352000217C02F023FA0028BBD10A2004F022FA01
:1035300041F2082200950223ADF80C20204603AA90
:10354000217C02F013FA0028ABD10A20064604F0D1
:1035500011FA0095022303AA217C2046ADF80C60E5
:1035600002F004FA00289CD1304604F003FA0095DA
:1035700022790C232046002A8DF80C3003AA4FF044
:10358000020314BF622142218DF80D10217C02F04C
:10359000EDF9002885D1304604F0ECF92279D4E920
:1035A00002310B43DBB20AB943F0400362790AB13E
:1035B00043F020030E22FA258DF80D3020460095A9
:1035C00002238DF80C2003AA217C02F0CFF90028F9
:1035D0007FF467AF0A2004F0CDF910220095022392
:1035E000ADF80C20204603AA217C02F0BFF9002888
:1035F0007FF457AF0A2004F0BDF912210095022391
:10360000ADF80C1003AA217C204602F0AFF9002887
:103610007FF447AF0A2004F0ADF9012209212046CA
:10362000FFF708FF003818BF01203BE7F0B5102373
:1036300087B0234C012200250126002702A920463D
:103640000195CDE902234FF48052CDE904670DF0D6
:1036500041F8642005F048FC02A94FF4805220464E
:10366000CDE9046702261027CDE902670DF032F894
:103670000322102302A92046CDE9022300230422BD
:10368000CDE904234FF480520DF024F840F23223A8
:10369000042202A9019310232046CDE90223019AB6
:1036A000012305924FF4805204930DF013F840F675
:1036B000060120460DF02EF8284607B0F0BD00BFE9
:1036C000B43201241C4B00221C494FF0400C30B591
:1036D000054689B00220596007219A601A620124C8
:1036E000DA620A224FF4006EDC6006922022CDE9F5
:1036F000000104200821CDE9020103201021CDE9B9
:10370000040108206946C3E904024FF4C072181D81
:10371000C3E906C24FF48052C3E909E20CF0B0FFDE
:1037200038B92846FFF782FF003818BF012009B0DA
:1037300030BD204609B030BDB032012440410052B6
:10374000614A0021D0B513688EB00A91002B40F079
:10375000B9805E4B01214FF683700C241160022169
:10376000D3F8D4200026032742F48052C3F8D42093
:10377000D3F8D42002F480520092009AD3F8E020CB
:1037800042F01002C3F8E020D3F8E02002F010026B
:103790000192019AD3F8E02042F04002C3F8E02001
:1037A000D3F8E02002F040020292029AD3F8E0201F
:1037B00042F00802C3F8E020D3F8E02002F008024B
:1037C0000392039AD3F8E02042F48072C3F8E02019
:1037D000D3F8E02002F480720492049AD3F8E02037
:1037E00042F08002C3F8E020D3F8E02002F080022B
:1037F0000592059AD3F8E02042F02002C3F8E020B9
:10380000D3F8E02002F020020692069AD3F8E020D6
:1038100042F00402C3F8E020D3F8E0300C9403F047
:10382000040307930323079A0B93CDE9080108A922
:10383000274807F0DFF948F23712022308A9254884
:103840000C94CDE90823CDE90A6707F0D3F94CF2CF
:103850000372022308A920480C94CDE90823CDE97E
:103860000A6707F0C7F940F2FF62022308A91B4864
:103870000C94CDE90823CDE90A6707F0BBF94FF6B0
:103880000C72022308A916480C94CDE90823CDE94F
:103890000A6707F0AFF94FF63F02022308A9114863
:1038A0000C94CDE90823CDE90A6707F0A3F920229B
:1038B000022308A90A480C94CDE90A67CDE9082338
:1038C00007F098F90EB0D0BDAC3201240044025884
:1038D0000010025800180258000C0258002002582C
:1038E000001C0258001402582DE9F04FDFF8108434
:1038F00006460D46144608F118002DED028B89B0DE
:1039000000AF02F05DFED8F8183073B3D8F81C3061
:10391000D8F80490002B43690BBF4FF0080A4FF012
:10392000100A4FF0020B4FF0040BB9F1000F2AD030
:10393000A200EA46012B02F1070222F00702ADEBDA
:10394000020D6846ADEB020D694600F03F81022B87
:1039500000F0D680002B6FD02246C847D5462437CA
:10396000BD46BDEC028BBDE8F08FD8F81C30002BB3
:10397000F5D0D8F804904FF0080A4FF0020B4369D5
:10398000B9F1000FD4D1FB61D8F80030BB61002B36
:10399000E5D0D54802F086FE6B46BBF1020F786198
:1039A00008EE103AFB6900F083816A465146A2EBAB
:1039B000C40295466200EA46B2FBFBF2AAEBC400E1
:1039C00085460AEB8200EE46F861ADEB010DF86921
:1039D0000EEB820CC7F810C0EC46ADEB010D00EB0E
:1039E0008201CCF80400CCF8081001EB82013869A0
:1039F000E946CCF80C1000EB8201CCF800A001EBFA
:103A00008202C9E900E0C9E90212012B00F06483D7
:103A1000022B00F06C82002B00F080816208494686
:103A20006046BB69984718EE103A24379D46BD465C
:103A3000BDEC028BBDE8F08F002C8DD01A46D8ED7E
:103A40000C6A9FEDB27A8446331D36F922E00CF100
:103A5000080C07EE90EA33F922E00232F8EEE77A3A
:103A6000944267EE877A67EEA67A4CED027A07EE0B
:103A700090EAF8EEE77A67EE877A67EEA67A4CED81
:103A8000017AE2D8F9612246C847984ED8ED0D6A0E
:103A90000020F9692B1D9FED9E7A9FED9E6ADFED58
:103AA0009E5A22E0F4EEC67AF1EE10FAC0F2C88413
:103AB00047F6FE72D1ED017A45F8202066EEA77A2E
:103AC000F4EEC77AF1EE10FA40F2F080F4EEC67A26
:103AD000F1EE10FAC0F2D58447F6FE7243F82020CA
:103AE0000230083184427FF639AFD1ED007A66EEBC
:103AF000A77AF4EEC77AF1EE10FAD3D83246D9E7B6
:103B0000002C3FF429AFD8ED0C6A84469FED787AFB
:103B10000022331D8E4656F822100CF1080C07EED9
:103B2000901A53F822100232F8EEE77A944267EEC8
:103B3000877A67EEA67A4CED027A07EE901AF8EED5
:103B4000E77A67EE877A67EEA67A4CED017AE2D8DB
:103B500071462246C7F81CE0C847664ED8ED0D6A8C
:103B60000020F9692B1D9FED6A7A9FED6A6ADFF8E4
:103B700094C120E0F4EEC67AF1EE10FAC0F2798436
:103B80003246D1ED017A45F8202066EEA77AF4EEB0
:103B9000C77AF1EE10FA40F28780F4EEC67AF1EEC1
:103BA00010FAC0F25E84324643F820200230083119
:103BB00084427FF6D3AED1ED007A66EEA77AF4EEBA
:103BC000C77AF1EE10FAD5D86246DAE7002C3FF456
:103BD000C3AED8ED0C6A86469FED477A4FF0000CD5
:103BE000331D56F82C200EF1080E82F40002A2F5C7
:103BF000000207EE902A53F82C200CF1020CF8EE8C
:103C0000E77A82F400026445A2F5000267EE877A43
:103C100067EEA67A4EED027A07EE902AF8EEE77A82
:103C200067EE877A67EEA67A4EED017AD9D8F96108
:103C30002246C847314ED8ED0D6A0020F9692B1D88
:103C40009FED337A9FED336ADFF8BCC01FE0F4EEDE
:103C5000C67AF1EE10FAC0F2FC833246D1ED017A59
:103C600045F8202066EEA77AF4EEC77AF1EE10FA56
:103C700018D9F4EEC67AF1EE10FAC0F2DA833246C1
:103C800043F820200230083184427FF667AED1ED40
:103C9000007A66EEA77AF4EEC77AF1EE10FAD6D87B
:103CA0006246DBE76246EBE762467DE7324615E7B0
:103CB000A100D6466208073121F00701ADEB010DE6
:103CC000EA46ADEB010D6946ADEB0E0D0AEB820045
:103CD000EC46ADEB0E0D01EB8202F861E946CCE952
:103CE00000A0C9E9001290E6043301240280FFFF1E
:103CF000000000300082FF7F0000003482FF7F0060
:103D0000E8320124007E00807E0080FF0000003841
:103D100004FF7FBF04FF7F3F00FEFF46002C00F042
:103D2000C982BBF1020FD8F8242000F0FA82796929
:103D3000C7F8049002EB810E5FED0C5A8A00DCF8A4
:103D400008100EF104007A611A46DCF80C303B6171
:103D5000331DD7F810903D61FD69C7E902CB8C4651
:103D6000834636F92210D8ED0C7A06EE101A33F994
:103D7000221006EE901A3EF92210B8EEC66A07EE3F
:103D8000101AF8EEE66A3BF92210B8EEC77A26EE72
:103D9000256A66EEA56A27EE257A26EE276A66EE84
:103DA000A76A27EE277A07EE901A51080232F8EE3A
:103DB000E77A0AEB8100944280ED006A05EB81000E
:103DC00067EEA57AC0ED006A0CEB810009EB81017A
:103DD00080ED007A98ED0C7A67EE877AC1ED007A73
:103DE000BFD8D7F804903D69D7E902CB6046620896
:103DF000BB6949469847D8F82C307A69D8ED0D6AE6
:103E00001A441FED3D7A1FED3D6A2B1D904602F1CD
:103E1000040A5FED3F5A0022A84ED9E900EC51E0B8
:103E2000F4EEC67AF1EE10FAC0F2C78247F6FE70E1
:103E300045F822000CEB0100D0ED007A66EEA77A7F
:103E4000F4EEC77AF1EE10FA4BD9F4EEC67AF1EE41
:103E500010FAC0F2BA8247F6FE70BBF1020F43F8C7
:103E600022002BD0D9F808000844D0ED007A66EE85
:103E7000A77AF4EEC77AF1EE10FA36D9F4EEC67AE4
:103E8000F1EE10FAC0F2CD8247F6FE7048F822003B
:103E9000D9F80C000144D1ED007A66EEA77AF4EE71
:103EA000C77AF1EE10FA1ED9F4EEC67AF1EE10FAE6
:103EB000C0F2AF8247F6FE714AF8221002329442F5
:103EC0007FF6B1AD51080EEB81008900D0ED007A8C
:103ED00066EEA77AF4EEC77AF1EE10FAA0D8304673
:103EE000A6E73046B9E73146E6E73046CEE7002C94
:103EF00000F0E081BBF1020FD8F8243000F0E1813E
:103F00007A69DCF8081003EB820EC7F8049093007E
:103F1000DFED6B5A0EF1040000227B61DCF80C30FF
:103F20003B61331DD7F810903D61FD69C7E902CBB5
:103F30008C46834656F82210D8ED0C7A07EE101AFC
:103F400053F82210B8EEC76A07EE101A5EF8221076
:103F5000F8EEC76A07EE101A26EE256A5BF8221003
:103F6000B8EEC77A66EEA56A26EE276A27EE257AAE
:103F700066EEA76A27EE277A07EE901A51080232FA
:103F8000F8EEE77A0AEB8100944280ED006A05EBD7
:103F9000810067EEA57AC0ED006A0CEB810009EBA9
:103FA000810180ED007A98ED0C7A67EE877AC1ED99
:103FB000007ABFD8D7F804903D69D7E902CB6046B4
:103FC0006208BB6949469847D8F82C307A69D8ED21
:103FD0000D6A1A449FED3E7A9FED3E6A131D92468C
:103FE000DFF8E4C00022FB612B1D364ED9E9008EBC
:103FF0004EE0F4EEC67AF1EE10FAC0F2FC813046E3
:1040000045F822000EEB0100D0ED007A66EEA77AAB
:10401000F4EEC77AF1EE10FA49D9F4EEC67AF1EE71
:1040200010FAC0F2EF813046BBF1020F43F82200D4
:104030002AD0D9F808000844D0ED007A66EEA77AB5
:10404000F4EEC77AF1EE10FA35D9F4EEC67AF1EE55
:1040500010FAC0F2C98130464AF82200D9F80C00A3
:104060000144D1ED007A66EEA77AF4EEC77AF1EE5C
:1040700010FA1ED9F4EEC67AF1EE10FAC0F2AD8154
:104080003146F86940F82210023294427FF6CBACF8
:10409000510808EB81008900D0ED007A66EEA77A1E
:1040A000F4EEC77AF1EE10FAA3D86046A8E76046AE
:1040B000BAE76146E5E76046CEE700BF0280FFFF52
:1040C000000000300082FF7F007E0080000000348E
:1040D00004FF7FBF04FF7F3F002C00F0EB807A6974
:1040E0000021D8F82430C7F8109003EB820ED7F8DF
:1040F0001C909300FD610EF104021FED0C6A7B61C0
:10410000331D154656F821204808D8ED0C6ABBF13E
:10411000020F82F40002A2F5000207EE902A53F883
:10412000212082F40002B8EEE77AA2F5000227EE21
:10413000067A07EE902A0AEB8002F8EEE77A27EE7D
:10414000267A67EE867A82ED007A09EB80024FEAE2
:10415000800067EEA67AC2ED007A27D05EF82120B3
:1041600082F40002A2F5000207EE902A55F8212001
:1041700082F40002B8EEE77AA2F5000227EE067A92
:1041800007EE902ADCF80820F8EEE77A024427EEE2
:10419000267A67EE867A82ED007A98ED0C7ADCF862
:1041A0000C2067EE877A0244C2ED007A02318C421D
:1041B000A8D8D7F8109060466208BB694946FD69E7
:1041C0009847D8F82C307A69D8ED0D6A1A441FED5B
:1041D000407A1FED406A131D9246DFF8C4C20022E8
:1041E000FB612B1DAB4ED9E9008E4EE0F4EEC67A92
:1041F000F1EE10FAC0F2C580304645F822000EEB11
:104200000100D0ED007A66EEA77AF4EEC77AF1EEFF
:1042100010FA49D9F4EEC67AF1EE10FAC0F2BF8076
:104220003046BBF1020F43F822002AD0D9F808002B
:104230000844D0ED007A66EEA77AF4EEC77AF1EE84
:1042400010FA35D9F4EEC67AF1EE10FAC0F2AE806B
:1042500030464AF82200D9F80C000144D1ED007A2A
:1042600066EEA77AF4EEC77AF1EE10FA1ED9F4EEF4
:10427000C67AF1EE10FAC0F28B803146F86940F848
:104280002210023294427FF6CEAB510808EB810037
:104290008900D0ED007A66EEA77AF4EEC77AF1EEE7
:1042A00010FAA3D86046A8E76046BAE76146E5E79A
:1042B0006046CEE7224649466046BB699847FFF70D
:1042C000B2BBC7F810B0002298ED0C6A331DDFEDC9
:1042D000726AD7F81CB0786956F8221007EE901A67
:1042E00053F82210B8EEE77A07EE901A510802321E
:1042F000F8EEE77A27EE267A0AEB810E94420BEB72
:10430000810167EEA67A27EE067A67EE867A8EED51
:10431000007AC1ED007ADFD88300D7F810B07B6156
:104320004DE61A46C7F810B098ED0C6A331DDFED64
:104330005B6AD7F81CB0786936F9221007EE101ABC
:1043400033F9221007EE901AB8EEC77A51080232FC
:10435000F8EEE77A27EE267A0AEB810E94420BEB11
:10436000810167EEA67A27EE067A67EE867A8EEDF1
:10437000007AC1ED007ADFD88300D7F810B07B61F6
:1043800034E5F0EE675AFEEEE45A15EE900A34E793
:10439000F0EE675AFEEEE45A15EE901A6EE7F0EE74
:1043A000675AFEEEE45A15EE900A3AE7F0EE675AC5
:1043B000FEEEE45A15EE900A4BE767EEA57AFDEEA5
:1043C000E77A17EE900A00B232E567EEA57AFDEEC5
:1043D000E77A17EE900A00B23FE5F0EE675AFEEE7C
:1043E000E05A15EE901A4CE6F0EE675AFEEEE05AEF
:1043F00015EE900A30E6F0EE675AFEEEE05A15EE42
:10440000900AFDE5F0EE675AFEEEE05A15EE900ACE
:104410000AE667EEA57AFDEEE77A17EE901A09B282
:104420004AE567EEA57AFDEEE77A17EE900A00B24C
:104430002CE5F0EE675AFEEEE45A15EE902A1FE4E2
:1044400067EEA57AFDEEE77A17EE902A12B2FFF733
:1044500031BBF0EE675AFEEEE45A15EE902AFFF7F4
:10446000FDBBF0EE675AFEEEE05A15EE902AFFF71C
:104470009BBBF0EE675AFEEEE05A15EE902AFFF76E
:1044800080BB67EEA57AFDEEE77A17EE902A12B2AE
:10449000FFF724BB82FF7F000000003000000038DF
:1044A0007E0080FF30B5184C154685B0046004F1DD
:1044B000080EEC460FC98EE80F00D4ED047AF5EE35
:1044C000C07A8CE80F00F1EE10FA1ADDB7EE006A40
:1044D00094ED057A27EE277AC6EE276A84ED0D7AE9
:1044E000C4ED0C6A6DB1204640F8185F02F068F820
:1044F000064903690020064A2162A262E36005B012
:1045000030BD012005B030BDE8320124002000306C
:104510000000003000680830704700BFB1F5807FB0
:1045200003680A4628BF4FF48072B1F5807F9A6015
:1045300094BF0020012070470068183002F0A0B836
:1045400070B504688AB0A369E160CBB104F11805C5
:10455000284602F035F88446EE46E668BCE80F00CF
:10456000AEE80F00BCE80F00AEE80F009CE80300C7
:104570008EE8030069462846049601F029FFF8B941
:10458000E069D8B104F11C05284602F019F8844608
:10459000EE46E468BCE80F00AEE80F00BCE80F0090
:1045A000AEE80F009CE803008EE803006946284649
:1045B000049401F00DFF003818BF01200AB070BD4F
:1045C00001200AB070BD00BF30B5046883B00D464D
:1045D000E3694BB1A3680020E26A616A9B00009026
:1045E00004F11C0001F0EEFFA3680748A26A9B00DB
:1045F000216A009004F1180001F0E4FF0020C4E9F2
:10460000005003B030BD00BFE938000810B4074BBC
:104610004FF07E5130240022032019619C60D86045
:104620005DF8044B5961C3E906227047E832012462
:10463000F6EE007A9FED166A20EE207A0160F7EE22
:10464000006A80ED036A80ED020A27EE277AC6EE43
:10465000877AF4EEE67AF1EE10FA11DDF0EE667A82
:104660004FF07E514FF0000C02760022C0ED017A2F
:10467000C0F814C0016143768276C0ED070A704726
:10468000F4EEC67AF1EE10FAEAD5F0EE467AE7E7F4
:1046900000000000837E80ED020AABB9D0ED077AFE
:1046A00027EE800AF6EE007AB7EE007A20EE270AAF
:1046B000C7EE007AF4EEC77AF1EE10FA07DDF0EEFD
:1046C000477AC0ED017A7047DFED067AE8E7F5EE4C
:1046D000C07AF1EE10FAF4D5DFED037AC0ED017A7D
:1046E000704700BF6F12033B0000000030B585B07B
:1046F00004460025ADF80C10ADF80820ADF80430E4
:1047000003F036F9BDF80C204FF48073206004F1FB
:1047100018002283BDF808206383E383A2832571F8
:1047200000F032FE04F11C0000F02EFE9FED060AA0
:10473000019904F1080000F033F94FF6FF73656248
:10474000238405B030BD00BF00000000704700BFEB
:10475000F8B5134F3C687F2C07D98023114A42F2E9
:1047600024411C463B60A2F87E100F4D2B68012BA4
:104770000AD90C4E0D4D22463146284600F0B2F9BA
:104780000028F8D13860F8BD22460649074800F0F5
:10479000A9F90028F7D12B68386001332B60F8BDE8
:1047A000243301242833012420330124A833012495
:1047B00030B4154C2168F1B14B1E144DE81810F8B7
:1047C00001298C4619460A2A01D00D2A02D14BB183
:1047D000013BF4E70CF102037F2B10D98023236007
:1047E00030BC70470122022323600D200A23685445
:1047F000AB5430BC704701220223044DF4E70CF1A6
:1048000001026146F0E700BF24330124283301246C
:1048100010B5094C02460B46084821680844C1F10E
:10482000800115F0F9FD236818442060FFF7C0FFF0
:10483000FFF78EFF10BD00BF24330124283301246D
:104840000FB400B583B004A951F8040B0191FFF730
:10485000DFFF03B05DF804EB04B0704710B5044609
:1048600000210A4800F0B8F8002C094B14BF0222BE
:10487000002208481A60FFF7E3FF0748FFF7E0FF50
:104880000A20BDE8104003F075B800BFA83301242A
:104890002033012498CC0108A8CC0108064A074916
:1048A000074808B513F04EFE034A04490548BDE821
:1048B000084013F047BE00BF000000244D47000829
:1048C000A8330124AC330124074A118830B4818015
:1048D0000024064D91884FF4807285600460C18089
:1048E000C26030BC704700BF80C601080040003085
:1048F00000220A2302700371704700BF30B585B0F3
:1049000004469FED110A9DF82050ADF80C10039954
:10491000ADF808202A46ADF804308DED000A11F0FC
:104920008DFC9DED000A2A46029904F11C0011F04D
:1049300085FC9DED000A2A46019904F1380005B076
:10494000BDE8304011F07ABC00007A4411F09ABC06
:10495000383011F097BC00BF38B50C46054691EDD4
:10496000000A11F08FFC94ED010A05F11C0011F012
:1049700089FC94ED020A05F13800BDE8384011F0D9
:1049800081BC00BF10B5044611F08EFC04F11C0080
:1049900011F08AFC04F13800BDE8104011F084BC2D
:1049A00070B5044682B0C1F30726CDB2ADF804104D
:1049B00002F0DEFF4FF480724FF001232060A01D53
:1049C000A571A280E671A36002B0BDE8704000F05E
:1049D000DBBC00BF704700BF012910B506D002291B
:1049E00015D051B1BDE8104008F05CB80A46344813
:1049F000344910F03FFAE8B1FEE7334B0A46334C36
:104A0000334934481C6010F035FA68B1FEE70122E2
:104A10002C492B4810F02EFA00B1FEE72E49284809
:104A200010F04AFAC0B1FEE72B492A4810F044FAC8
:104A300060B1FEE72849224810F03EFA00B1FEE7D7
:104A400026491F4810F0C6F908B3FEE7244921485B
:104A500010F0C0F9A8B1FEE72049194810F0BAF9E2
:104A600000B1FEE7164810F03DFA024640B9164B79
:104A7000164C174917481C6010F0FCF968B1FEE7A6
:104A8000FEE7144810F02EFA0028ABD0FEE70C48E1
:104A900010F028FA0028A5D0FEE70F490D4810F0C5
:104AA0000BFA00B1FEE70E490A4810F093F900B185
:104AB000FEE7084810F016FA002893D0FEE700BF82
:104AC0004C36012490020024E8380124D54900081E
:104AD00074020024B0330124F8020024540200249C
:104AE00044020024084691B208B503F019FA0038D0
:104AF00018BF012008BD00BF014807F0B1BA00BFD0
:104B0000C8730124014807F0ABBA00BFC873012481
:104B1000014807F0A5BA00BFC873012400B583B0EF
:104B20004FF0000E4FF0030C4274ADF80410BDF8C6
:104B3000043080F810E0A0F802C0038003B05DF8F4
:104B400004FB00BF2DE9F04FDFF81C8300258DB07A
:104B5000C04C037008F140034260074601920E46C4
:104B6000202229464046C4F86831C4F86481CDE962
:104B70000255CDE90455CDE90655CDE90855CDE9F5
:104B80000A5514F015FE2022294604F5A170C4F838
:104B90003151C4F83551C4F83951C4F83D5114F0BD
:104BA00007FE019B84F8485284F830317A68002A65
:104BB0006AD02B4604F59871454606F1100A9E46C8
:104BC000F01856F803B0E2180EF1010ED0F80CC040
:104BD000D0F80490D0F8088044F803B0C2F80CC0B4
:104BE0004FF0000CC2F80490C2F80880008A25F843
:104BF00002CB10821AF8032001F8012F002A70D08E
:104C00007A684FF001001233724584F84802D7D811
:104C10004FF4802290489DF8043008214FF000089E
:104C20004FF00009C4F884310023C4E95B0201227B
:104C3000C4F8743184F88031C4E95E2194F84812D4
:104C4000C4E96489A9B3C4F89821002284F88131A9
:104C500084F888313B78C4E96722002B38D00122E0
:104C600000200121013B84F8A421C4E96C01082B38
:104C700030D8DFE813F0BD00C200C700CC00D1007F
:104C8000D600DB00E100E8009DF804300121C4F803
:104C90007421C4F884314FF4802384F880216E4A53
:104CA000C4E95B2308230022C4E95E130023C4E99E
:104CB00064230123002284F88131002384F88831A1
:104CC0000323C4F898313B78C4E96722002BC6D18E
:104CD00084F8A431614804F03FFD034638B1FFBEBB
:104CE000FEE77A68123372453FF66AAF90E702A991
:104CF0005A48029304F08EFE8246002876D10422A0
:104D000040F2FF710A90CDE9081294F83021002A90
:104D100000F0F3804FF006080AEBCA034FEACA0915
:104D200004EB43035B7C072B07D8DFE803F0595CF7
:104D30005653504D4A04072307930FFA8AF6D1447D
:104D400006EBC60604EB490904EB46077500384636
:104D500000F01AFB99F81030042B00F3AA80022B04
:104D600000F3BD8000F0B98004EB0A03002283F851
:104D7000202114F81630002B78D0022B00F08A8006
:104D8000012B40F0B2807B78012B00F0B080002B2B
:104D9000334B18BF002305A93048CDE9053804F08E
:104DA00007F9002840F0AC800AF1010A94F830318C
:104DB0005FFA8AFA534540F2A0802A4B53F82A80C2
:104DC000AAE706230793B8E705230793B5E704236B
:104DD0000793B2E703230793AFE702230793ACE7F8
:104DE00000230793A9E701230793A6E7FFBEFEE789
:104DF00003224023C4E96A236CE707226023C4E945
:104E00006A2367E70F228023C4E96A2362E71F222F
:104E1000A023C4E96A235DE73F22C023C4E96A23D3
:104E200058E77F22E023C4E96A2353E7FF224FF4C7
:104E30008073C4E96A234DE740F2FF124FF4907388
:104E4000C4E96A2346E740F2FF324FF4A073C4E995
:104E50006A233FE7F0380124002002405C3A012435
:104E60000002B025B8CC0108004100307B78062B49
:104E700037D0072B3DD0022B4AD0032B4AD0002B32
:104E80004CD0012B48D0042B4AD0052B254B18BF02
:104E9000002380E77B78042B25D0052B2BD08BB308
:104EA000012B31D0022B31D0032B1F4B18BF002315
:104EB00071E70323043504EB0A0B4FF00009254486
:104EC0008BF82031284609F1010900F05DFA9BF8C2
:104ED000203104354B45F5DC4BE70123EAE702239B
:104EE000E8E7124B57E7124B55E7002353E7114B06
:104EF00051E7114B4FE7114B4DE70DB0BDE8F08F77
:104F0000FFBEFEE70E4B46E70E4B44E70E4B42E773
:104F10000E4B40E70E4B3EE70E4B3CE70E4B3AE79D
:104F20000E4B38E70000B84F002090360800900C78
:104F30001000C0102000F0148000501D00018021DE
:104F40000004002A0008302E001060320040C03AF1
:104F50000080F03E00005247000021430000844BD7
:104F600038B5094C40F2FF724FF0011104F5B675E7
:104F7000284604F0FDFC94F83021D4F8641128464A
:104F8000BDE8384004F068BAF0380124034B0F291B
:104F9000D3F8640198BF00EB41007047F03801245A
:104FA000214B02689A4200D07047204A00232048D3
:104FB000D2F8D81030B51F4C41F0200183B0C4F8AE
:104FC000D001092004F5E875C4E975034FF4806049
:104FD000C2F8D810D2F8D8204FF40061C4E9773075
:104FE00094F8480202F02002C4F8E4114FF4005192
:104FF000984201922846C4F8E811C4E97C33019B29
:1050000014BF00234FF48073C4F8EC3104F028FF80
:1050100008B1FFBEFEE704F5B673C4F8B851C4F892
:10502000083203B030BD00BF0020024000440258E7
:1050300040000240F0380124014805F089BA00BF61
:10504000C03A012402682DE9F84F4B4B9A4201D037
:10505000BDE8F88F494D95F84832002BF8D095F807
:105060003031002B77D0002405F10C0905F5A1762D
:1050700005F59877A04613E003F0010117F811BC7D
:10508000A9F1080000F05CFABBF1010F25D895F8F2
:105090003031013409F112090236A2B293422BD900
:1050A00017F8012F002AF4D0D5F8643100213278A6
:1050B00033F81400D5F8683103EB041323F8120019
:1050C000338801339BB233805FFA83FA3A789A428D
:1050D000D2D88A46A6F80080D0E7CAF34001A9F1E9
:1050E000040000F02DFABBF1020FCAF38001CED00C
:1050F000484600F025FACAE7002395F848022049FF
:1051000009229842C5F8D8314FF48060C5F8D01113
:10511000C5F8D4214FF400614FF40052C5F8DC31DA
:1051200008BF4FF48073C5F8E821C5E97801002273
:105130001448C5E97B32C5F8F42104F091FE08B1AA
:10514000FFBEFEE795F83021D5F864110E48BDE8A2
:10515000F84F04F081B90A4909224FF48060C5F87C
:10516000D831C5E974124FF400614FF40052C5E91B
:105170007730C5E97912DAE700200240F0380124DF
:1051800040000240C03A01245C3A0124704700BF4D
:1051900010B592B0ADF804100180C9B2149C0B296F
:1051A000C460C0E901233FD090F801C0BCF10F0FEB
:1051B0003AD8022A3FD0032A02D0012A00D0002286
:1051C0000E92012B02D0022B18BF0023022C0F934A
:1051D0002CD0032C2AD0012C28D000230A2910938C
:1051E00027D85C4A02EB812202610A2914D8DFE841
:1051F00001F0A39587796B5D4F4133250600564B2F
:10520000D3F8E01041F48061C3F8E010D3F8E03047
:1052100003F480630C930C9B01230DA9104603FA41
:105220000CF30D9305F0E6FC12B010BD0A291094A2
:10523000D7D90022D8E711220E92C2E7464BD3F805
:10524000E01041F40071C3F8E010D3F8E03003F44B
:1052500000730B930B9BDFE73F4BD3F8E01041F457
:105260008071C3F8E010D3F8E03003F480730A9340
:105270000A9BD1E7384BD3F8E01041F08001C3F826
:10528000E010D3F8E03003F080030993099BC3E7F3
:10529000314BD3F8E01041F04001C3F8E010D3F8EF
:1052A000E03003F040030893089BB5E72A4BD3F89E
:1052B000E01041F02001C3F8E010D3F8E03003F033
:1052C00020030793079BA7E7234BD3F8E01041F097
:1052D0001001C3F8E010D3F8E03003F01003069398
:1052E000069B99E71C4BD3F8E01041F00801C3F886
:1052F000E010D3F8E03003F008030593059B8BE73B
:10530000154BD3F8E01041F00401C3F8E010D3F8D6
:10531000E03003F004030493049B7DE70E4BD3F8C5
:10532000E01041F00201C3F8E010D3F8E03003F0E0
:1053300002030393039B6FE7074BD3F8E01041F0A0
:105340000101C3F8E010D3F8E03003F00103029349
:10535000029B61E7000002580044025808B5012191
:1053600043780069994089B205F04CFE003818BFB7
:10537000012008BD01230A464178006903FA01F1C2
:1053800089B205F045BE00BF8378022B30B50446D4
:105390008FB037D0032B33D0012B31D000230A93A9
:1053A000E378012B2AD0022B28D000230B93002373
:1053B00020460C9303F0ECF90546204603F0F0F983
:1053C00023780990082B13D8DFE803F01F324558E3
:1053D0006B7E91A40500594BD3F8E02042F4807213
:1053E000C3F8E020D3F8E03003F480730893089BFF
:1053F00009A9284605F0FEFB0FB030BD0B93D6E798
:105400000A93CDE711230A93CAE74C4B09A9284612
:10541000D3F8E02042F00102C3F8E020D3F8E030F6
:1054200003F001030093009B05F0E4FB0FB030BDD7
:10543000424B09A92846D3F8E02042F00202C3F803
:10544000E020D3F8E03003F002030193019B05F064
:10545000D1FB0FB030BD394B09A92846D3F8E02065
:1054600042F00402C3F8E020D3F8E03003F0040374
:105470000293029B05F0BEFB0FB030BD2F4B09A974
:105480002846D3F8E02042F00802C3F8E020D3F821
:10549000E03003F008030393039B05F0ABFB0FB070
:1054A00030BD264B09A92846D3F8E02042F010026F
:1054B000C3F8E020D3F8E03003F010030493049B1A
:1054C00005F098FB0FB030BD1C4B09A92846D3F856
:1054D000E02042F02002C3F8E020D3F8E03003F0EF
:1054E00020030593059B05F085FB0FB030BD134BE2
:1054F00009A92846D3F8E02042F04002C3F8E02092
:10550000D3F8E03003F040030693069B05F072FBEE
:105510000FB030BD094B09A92846D3F8E02042F06E
:105520008002C3F8E020D3F8E03003F08003079353
:10553000079B05F05FFB0FB030BD00BF0044025871
:1055400070B506460D4603F023F90446304603F0D5
:1055500027F92A1E0146204618BF0122BDE87040E7
:1055600005F056BD0023122270B586B0CDE90223A6
:1055700004930368032B01D804230593061D841D9F
:10558000304603F005F90546304603F009F90346B5
:1055900001A92846019305F02DFB204603F0F8F8F9
:1055A000034620461C4603F0FBF801A903462046AB
:1055B000019305F01FFB06B070BD00BF634A03688E
:1055C000934210B58CB028D0614A934258D0614ABA
:1055D000934200F09480604A934201D00CB010BD19
:1055E0005E4C5F48D4F8E03043F00203C4F8E0308A
:1055F000D4F8E03003F002030A930A9BFFF7B2FFEE
:10560000D4F8F43043F08003C4F8F430D4F8F43024
:1056100003F080030B930B9BE0E7504C5148D4F808
:10562000E03043F00203C4F8E030D4F8E03003F097
:1056300002030193019BFFF795FFD4F8E8300022A5
:105640001F2043F400131146C4F8E830D4F8E830C2
:1056500003F400130293029BD4F8D83043F0010303
:10566000C4F8D830D4F8D83003F001030393039B77
:1056700004F044FA1F200CB0BDE8104004F07CBADE
:10568000364C3948D4F8E03043F08003C4F8E030B9
:10569000D4F8E03003F080030493049BD4F8E030A6
:1056A00043F00203C4F8E030D4F8E03003F0020322
:1056B0000593059BFFF756FFD4F8E8300022212020
:1056C00043F480031146C4F8E830D4F8E83003F41A
:1056D00080030693069BD4F8D83043F00103C4F846
:1056E000D830D4F8D83003F001030793079B04F0B7
:1056F00005FA21200CB0BDE8104004F03DBA1B486B
:10570000FFF730FF154B00224820D3F8E840114640
:1057100044F40004C3F8E840D3F8E84004F400047B
:105720000894089CD3F8D84044F00104C3F8D8404A
:10573000D3F8D83003F001030993099B04F0DEF994
:1057400048200CB0BDE8104004F016BA00540040E8
:1057500000580040005C0040001C00580044025803
:10576000C83D0124403B0124183C0124F03C0124A5
:105770002DE9F0431A4B87B000254FF010099E46E3
:10578000EC46184BFF22E04667461A700EF11806E9
:105790000EF13004CDE90055CDE90255ADF8009089
:1057A000BCE80F00CDE90455AEE80F009CE803000B
:1057B0000095ADF800908EE80300B8E80F000FC622
:1057C0009CE803000095ADF8009086E803000FCF39
:1057D0000FC49CE8030084E8030007B0BDE8F08331
:1057E000040000243C3B012410B5EFF3108472B692
:1057F000084B1A78120602D504B962B610BD1B78A0
:10580000D82205485BB202FB0300143004F0A0FE6E
:10581000F2E700BF3C3B0124403B0124014806F075
:1058200005BB00BFCC3B0124014806F0FFBA00BF16
:10583000A43C0124014806F0F9BA00BF7C3D0124D4
:105840002DE9F0430F68D8243F4D85B007FB04F4E1
:10585000032F05EB0403036040DCCB680E46012BED
:105860003CD84DD04FF0D808B646DFF8FC9008FB86
:105870000758BEE80F00C446ACE80F00DEF8003061
:105880000DF1100ECCF80030D8F808C099E80F00E0
:105890000EE90F000EEB8703BCF1010F53F8103C2B
:1058A000C8F88C3031D0BCF1020F42D0BCF1000FEF
:1058B00035D0317C8C34D823002201202C4403FBCA
:1058C00007534900C3E92602C3F894102046C3E9F0
:1058D0002822C3E92A2206F09BF818B1012005B05E
:1058E000BDE8F0830146204606F0ACFA0028F5D169
:1058F0000146204606F0D0FA003818BF0120EEE736
:105900000B7C103B672BADD9E8E702F0CDF90F4BCC
:1059100098420CBF0E4B0F4BC8F89030C9E702F00D
:10592000C3F90A4B98420CBF0B4B0C4BC8F8903094
:10593000BFE702F0B9F9054B98420CBF084B094B81
:10594000C8F89030B5E700BF403B0124000E2707A0
:105950002D0FB0303211D0205F4390608A62E0306A
:10596000200BA0101A09801088C601082DE9F0410B
:10597000D0F8008082B00D4617461E4608F18C0410
:10598000204606F05BFA2028FAD1D8F80C3073B91B
:105990006D002046089C33463A46A9B2009406F0B2
:1059A0008DF8003818BF012002B0BDE8F081089BD7
:1059B00032463946204606F055F9F2E7044B1022EC
:1059C0001A7483F8E82083F8C02183F8982270477E
:1059D000403B012430B5002395B04FF4807106227E
:1059E00004460B9306921393CDE90C13CDE90E33C5
:1059F000CDE9113302F05AF907282BD004F1100534
:105A000041F2883206A9284607F098F928B1012307
:105A1000184684F85C3015B030BD0222022306A976
:105A20002846CDE9002310220123CDE902230022DC
:105A30004FF48003CDE9042305224FF080730692D2
:105A40006A460F9341F2883307F0E4FA0028DED16A
:105A500015B030BD0323012084F85C3015B030BD93
:105A600070B50023A4B04FF080724FF480750446E7
:105A7000ADF806300D93CDE910320122CDE90E5379
:105A8000CDE91223CDE91433002943D0F02300F1EE
:105A9000100508AEADF80630C02341F28832314619
:105AA0002846089307F04AF928B10123184684F8DC
:105AB0005C3024B070BD41F288320DF106012846F9
:105AC00007F0A6F903460028EFD105224FF48071B4
:105AD0001E93284616924FF080721B9321931F92BB
