:02000004900466
:1000000000000220110A04900D0A0490D9AB04905C
:100010000D0A04900D0A04900D0A049000000000DF
:100020000000000000000000000000000D0A049025
:100030000D0A0490000000000D0A04905DAB0490CE
:100040000D0A04900D0A04900D0A04900D0A049004
:100050000D0A04900D0A04900D0A04900D0A0490F4
:100060000D0A04900D0A04900D0A04905192049018
:100070005D920490B57F049069920490759204900B
:10008000D9A50490818704900D0A04900D0A04906C
:100090000D0A04900D0A04900D0A04900D0A0490B4
:1000A0000D0A04900D0A04900D0A04900D0A0490A4
:1000B000D9990490E5990490F1990490B58704903A
:1000C0000D0A0490C18704900D0A049025A30590A1
:1000D00031A305900DA4049039A404906DA404905C
:1000E0000D0A04900D0A0490000000000D0A04900F
:1000F0000D0A04900D0A04900D0A04900D0A049054
:100100000D0A0490A9970490FD9904903DA30590D1
:10011000A1A40490D5A404900D0A04900D0A0490A3
:100120000D0A04900D0A049061A3059095A3059013
:100130000DA604900D0A04900D0A04900D0A049077
:1001400000000000000000000000000000000000AF
:100150000D0A04900D0A04900D0A049009A504905C
:10016000CD8704900D0A04906DAB049091AB049080
:100170000D0A0490B5AB04900D0A04900D0A04908A
:100180000D0A04900D0A04903DA5049071A50490F9
:1001900049A3059055A305900D0A04900D0A0490FB
:1001A0000D0A04900D0A04900D0A04900D0A0490A3
:1001B000718F04900D0A04900D0A04900D0A0490AA
:1001C0000D0A04900D0A0490757A0490817A0490C7
:1001D0000D0A04908D7A04900D0A04900D0A049083
:1001E0000D0A04900D0A04900D0A04900D0A049063
:1001F0000D0A04900D0A04900D0A04900D0A049053
:100200000D0A04900D0A04900D0A04900D0A049042
:100210000D0A04900D0A04900D0A04900D0A049032
:100220000D0A04900D0A04900D0A049000000000CD
:100230000D0A04900D0A0490000000000D0A0490BD
:100240000D0A04900D0A04900D0A04900D0A049002
:100250000D0A04900D0A04900D0A04900D0A0490F2
:100260000D0A04900D0A04900D0A04900D0A0490E2
:100270000D0A04900D0A0490A5A50490000000004A
:100280000D0A04900D0A04900D0A0490000000006D
:08029000000000000D0A0490BB
:1002A00010B5054C237833B9044B13B10448AFF3B0
:1002B00000800123237010BD780700240000000097
:1002C000B422069008B5034B1BB103490348AFF3B2
:1002D000008008BD000000007C070024B4220690C6
:1002E000034613F8012B002AFBD1181A0138704776
:1002F00001F0FF01102A2BDB10F0070F08D010F8D7
:10030000013B013A8B422DD010F0070F42B3F6D1DA
:10031000F0B441EA012141EA014122F007047FF0F3
:1003200000070023F0E80256083C85EA010586EA4A
:10033000010685FA47F5A3FA87F586FA47F6A5FA86
:1003400087F68EB9EED1F0BC01F0FF0102F0070292
:1003500032B110F8013B013A83EA010313B1F8D13D
:100360000020704701387047002D06BF354603381E
:10037000073815F0010F07D1013015F4807F02BF57
:10038000013015F4C03F0130F0BC0138704700BFA8
:1003900081F0004102E000BF83F0004330B54FEA36
:1003A00041044FEA430594EA050F08BF90EA020FA3
:1003B0001FBF54EA000C55EA020C7FEA645C7FEA36
:1003C000655C00F0E2804FEA5454D4EB5555B8BF59
:1003D0006D420CDD2C4480EA020281EA030382EACA
:1003E000000083EA010180EA020281EA0303362D5C
:1003F00088BF30BD11F0004F4FEA01314FF4801C2F
:100400004CEA113102D0404261EB410113F0004F40
:100410004FEA03334CEA133302D0524263EB4303F7
:1004200094EA050F00F0A780A4F10104D5F1200E95
:100430000DDB02FA0EFC22FA05F2801841F10001F0
:1004400003FA0EF2801843FA05F359410EE0A5F1C4
:1004500020050EF1200E012A03FA0EFC28BF4CF0F5
:10046000020C43FA05F3C01851EBE37101F00045AB
:1004700007D54FF0000EDCF1000C7EEB00006EEBB8
:100480000101B1F5801F1BD3B1F5001F0CD3490842
:100490005FEA30004FEA3C0C04F101044FEA445299
:1004A00012F5800F80F09A80BCF1004F08BF5FEA20
:1004B000500C50F1000041EB045141EA050130BD00
:1004C0005FEA4C0C404141EB0101013C28BFB1F512
:1004D000801FE9D291F0000F04BF01460020B1FA5D
:1004E00081F308BF2033A3F10B03B3F120020CDA30
:1004F0000C3208DD02F1140CC2F10C0201FA0CF00E
:1005000021FA02F10CE002F11402D8BFC2F1200C72
:1005100001FA02F120FA0CFCDCBF41EA0C01904028
:10052000E41AA2BF01EB0451294330BD6FEA040471
:100530001F3C1CDA0C340EDC04F11404C4F120025C
:1005400020FA04F001FA02F340EA030021FA04F36E
:1005500045EA030130BDC4F10C04C4F1200220FAC5
:1005600002F001FA04F340EA0300294630BD21FA03
:1005700004F0294630BD94F0000F83F4801306BFC9
:1005800081F480110134013D4EE77FEA645C18BFBD
:100590007FEA655C29D094EA050F08BF90EA020F54
:1005A00005D054EA000C04BF1946104630BD91EA4C
:1005B000030F1EBF0021002030BD5FEA545C05D14F
:1005C0004000494128BF41F0004130BD14F580048E
:1005D0003CBF01F5801130BD01F0004545F0FE4102
:1005E00041F470014FF0000030BD7FEA645C1ABF37
:1005F000194610467FEA655C1CBF0B46024650EA6E
:10060000013406BF52EA033591EA030F41F4002199
:1006100030BD00BF90F0000F04BF0021704730B51F
:100620004FF4806404F132044FF000054FF00001F4
:1006300050E700BF90F0000F04BF0021704730B5B5
:100640004FF4806404F1320410F0004548BF40428A
:100650004FF000013EE700BF42004FEAE2014FEADF
:1006600031014FEA02701FBF12F07F4393F07F4FBA
:1006700081F06051704732F07F4208BF704793F0BD
:100680007F4F04BF41F40021704730B54FF46074D0
:1006900001F0004521F000411CE700BF50EA0102D3
:1006A00008BF704730B54FF000050AE050EA01027C
:1006B00008BF704730B511F0004502D5404261EBEC
:1006C00041014FF4806404F132045FEA915C3FF42D
:1006D000D8AE4FF003025FEADC0C18BF03325FEACA
:1006E000DC0C18BF033202EBDC02C2F1200300FA7B
:1006F00003FC20FA02F001FA03FE40EA0E0021FAA0
:1007000002F11444BDE600BF53B94AB9002908BF3D
:1007100000281CBF4FF0FF314FF0FF3000F074B9DC
:10072000ADF1080C6DE904CE00F006F8DDF804E048
:10073000DDE9022304B070472DE9F047089D044627
:100740008E46002B4DD18A42944669D9B2FA82F284
:1007500052B101FA02F3C2F1200120FA01F10CFAC0
:1007600002FC41EA030E94404FEA1C48210CBEFBF8
:10077000F8F61FFA8CF708FB16E341EA034306FB81
:1007800007F199420AD91CEB030306F1FF3080F010
:100790001F81994240F21C81023E63445B1AA4B25D
:1007A000B3FBF8F008FB103344EA034400FB07F7FF
:1007B000A7420AD91CEB040400F1FF3380F00A8140
:1007C000A74240F207816444023840EA0640E41B35
:1007D00000261DB1D4400023C5E900433146BDE8E1
:1007E000F0878B4209D9002D00F0EF800026C5E983
:1007F000000130463146BDE8F087B3FA83F6002E9B
:100800004AD18B4202D3824200F2F980841A61EB12
:10081000030301209E46002DE0D0C5E9004EDDE730
:1008200002B9FFDEB2FA82F2002A40F09280A1EB18
:100830000C014FEA1C471FFA8CFE0126200CB1FB6D
:10084000F7F307FB131140EA01410EFB03F0884266
:1008500008D91CEB010103F1FF3802D2884200F2F3
:10086000CB804346091AA4B2B1FBF7F007FB101185
:1008700044EA01440EFB00FEA64508D91CEB040423
:1008800000F1FF3102D2A64500F2BB800846A4EB7E
:100890000E0440EA03409CE7C6F12007B34022FA69
:1008A00007FC4CEA030C20FA07F401FA06F31C4398
:1008B000F9404FEA1C4900FA06F3B1FBF9F8200CA5
:1008C0001FFA8CFE09FB181140EA014108FB0EF0EB
:1008D000884202FA06F20BD91CEB010108F1FF3A3B
:1008E00080F08880884240F28580A8F10208614447
:1008F000091AA4B2B1FBF9F009FB101144EA014155
:1009000000FB0EFE8E4508D91CEB010100F1FF34FF
:100910006CD28E456AD90238614440EA0840A0FB97
:100920000294A1EB0E01A142C846A64656D353D06D
:100930005DB1B3EB080261EB0E0101FA07F722FA91
:1009400006F3F1401F43C5E9007100263146BDE8BA
:10095000F087C2F12003D8400CFA02FC21FA03F31D
:10096000914001434FEA1C471FFA8CFEB3FBF7F09E
:1009700007FB10360B0C43EA064300FB0EF69E42C3
:1009800004FA02F408D91CEB030300F1FF382FD25C
:100990009E422DD9023863449B1B89B2B3FBF7F604
:1009A00007FB163341EA034106FB0EF38B4208D9DD
:1009B0001CEB010106F1FF3816D28B4214D9023E1E
:1009C0006144C91A46EA004638E72E46284605E73C
:1009D0000646E3E61846F8E64B45A9D2B9EB02080D
:1009E00064EB0C0E0138A3E74646EAE7204694E79D
:1009F0004046D1E7D0467BE7023B614432E73046D0
:100A000009E76444023842E7704700BFFEE700BFD1
:100A10000A480B4A904203D0121A0A491CF0B2FF4E
:100A200009480A4A904203D0121A00211CF0B8FF6C
:100A30001CF074FF03F024F8FEE700BF0000002460
:100A400074070024EC22069078070024DC9F07241A
:100A5000034B03EB800203445268187B536818472A
:100A6000A4090024074B1A5C52B903EB8002191841
:100A70004FF0010C526803F800C0087B1368184758
:100A800000207047A409002430B4054C04EB800515
:100A900004446D68207BAC68A44630BC604700BF4E
:100AA000A409002430B4054C04EB800504446D68AF
:100AB000207BEC68A44630BC604700BFA40900243A
:100AC000044B03EB000C03EB80035B689CF80C0009
:100AD0001B691847A40900242DE9F0410026D0F82D
:100AE00000808E758369002B5AD0C36A07460D4675
:100AF00001331ED0D8F80C301888002861D001F1DD
:100B00001506012400E01C46002102F049FF631C89
:100B1000002856D0B4F5807F53D006F8010FD8F8DE
:100B20000C2032F814000028EDD12C440023A375CA
:100B3000AE7DD7F81CC000204FF02E080CF1FF311D
:100B4000024611F8013F0132202B18D0052B08BFB7
:100B5000E523092A26D02C1863727EB9A3F1410738
:100B6000192F0AD8082A9CF80CE08CBF10270827F8
:100B70001EEA070F01D02033DBB2A37501300B2A28
:100B8000DFD12C18B6B1002363729CF80B302B72A6
:100B9000DCF81C302B60DCF816301A0CEB80AA80D5
:100BA000BDE8F0812C180EB984F81680013084F865
:100BB0000980D0E7A6759CF80C30002B08BF2C46A6
:100BC000E1E7002400232C44A375AE7DB1E700BF0C
:100BD00070B54FF0FF3600230446B142C370466340
:100BE0000CD00D460A46012300F138014078FFF78A
:100BF0004BFF10B10420666370BD65634AF6552350
:100C0000B4F836229A421AD194F83830E92B07D03A
:100C1000A36B0D4A03F0FF13934201D0022070BD75
:100C2000D4F86E30094A23F07F43934209D0D4F8B8
:100C30008A00074B984214BF0220002070BD032099
:100C400070BD002070BD00BFEB0090004641540015
:100C500046415433F0B5C37883B004460D4673B9AA
:100C600000F1380101232A466078FFF70DFF10B923
:100C7000656303B0F0BD01204FF0FF35F8E7466B28
:100C800000F138010123407832460191FFF70AFF55
:100C9000B8B9A26A236AB21A0199E0709A42E1D205
:100CA000A778012F01D8DDE7236A1E44013F012305
:100CB000607832460191FFF7F5FE012F0199F3D1DB
:100CC000D0E7012003B0F0BD2DE9F84303780446D6
:100CD0000D461646022B06D0032B52D0012B1BD0FB
:100CE0000220BDE8F883816A436B01EB152199422C
:100CF00003D0FFF7AFFF0028F3D16D0004F13803F4
:100D0000C6F30722002005F4FF755E55591901232B
:100D10004A70E370BDE8F88301EB5107816A436BC9
:100D200001EB5721994203D0FFF794FF0028D8D157
:100D3000EB0707F1010804F13809C7F3080742D5AA
:100D400019F8073003F00F0343EA061309F80730D8
:100D50000123A16AE37001EB5821636B994204D02F
:100D60002046FFF777FF0028BBD1C8F30808C6F379
:100D70000712C844012388F800200020E370BDE872
:100D8000F883816A436B01EBD511994203D0FFF7D9
:100D900061FF0028A5D1AD0004F1380026F07042B3
:100DA00005F4FE754359411903F070431A43130CBF
:100DB0004255100A8B70120E01234870CA70002031
:100DC000E370BDE8F88309F807600123A16AE370C6
:100DD00001EB5821636B994205D02046FFF73AFF9B
:100DE00000287FF47EAFC8F30808C6F30322C84486
:100DF00098F8003023F00F063243BBE701290ED9E3
:100E0000F8B5C3690C460546994206D20378022B11
:100E10003ED0032B2BD0012B03D00120F8BD0120A5
:100E2000704701EB5106836A426B03EB56219142F6
:100E300004D0FFF70FFFA0BBAB6A6A6B771CC6F349
:100E4000080603EB57212E44914296F8386003D0F0
:100E50002846FFF7FFFE20BBC7F30807E3073D4422
:100E600095F8380046EA002024D50009F8BD816ACB
:100E7000436B01EBD411994202D0FFF7EBFE80B92E
:100E8000A40004F4FE742544A86B20F07040F8BD63
:100E9000816A436B01EB1421994205D0FFF7DAFE1A
:100EA00010B14FF0FF30F8BD640004F4FF74254426
:100EB000288FF8BDC0F30B00F8BD00BF2DE9F0414D
:100EC000056983692035B5F5001F2CD25BB3C5F3E6
:100ED00008070446066837B13836002025613E44CD
:100EE000E661BDE8F081013341698361F1B1738945
:100EF000013B13EA5528EFD13046FFF77FFF012869
:100F00001CD9431C1CD0F369984213D2023B606188
:100F10000238984204D2B6F80A80336B00FB0838D6
:100F2000C4F81880D8E70420BDE8F0813389B3EB1A
:100F3000551FD1D800230420A361D2E70220D0E7B7
:100F40000120CEE72DE9F04FD0F818A083B0044679
:100F50000668BAF1000F64D04FF0FF0906F13808B7
:100F60004F46756B554515D0F378002B40F0D68071
:100F70000123524641467078FFF786FD40B14FF09D
:100F8000FF33012073630023A36103B0BDE8F08F3A
:100F9000C6F834A0E1690A78002A42D0CB7AE52A63
:100FA00003F03F03A37105D02E2A03D023F02000C5
:100FB00008283DD12569FF272035D4F818A0B5F5BC
:100FC000001F2ED2BAF1000F2BD0C5F30802236800
:100FD0004ABB0AF1010A6169C4F818A069B91A8903
:100FE000B2EB551F1DD938332561E361BAF1000F0B
:100FF000B7D1002003B0BDE8F08F5A89013A12EA58
:10100000552BF0D118460193FFF7F8FE012840F266
:10101000BA80431C00F08980019BDA699042C0F0DD
:10102000A5800420AFE7383325611A44E26198E7D0
:101030000F2B40F0B0805006256978D502F0BF072D
:1010400091F80D90E5624B7B4B45B4D14B8B002B57
:10105000B1D10B78B1F8010023F04003013B03EB61
:10106000430203EB8203FE2BA5D8D6F80CC05A1C12
:101070002CF81300B1F803E0002840F094804FF6FC
:10108000FF739E4597D1B1F805B04FF6FF739B45AE
:1010900091D1B1F807A04FF6FF739A458BD1B1F803
:1010A00009E04FF6FF739E4585D1B1F80EA04FF6CB
:1010B000FF739A457FF47FAFB1F810B04FF6FF731E
:1010C0009B457FF478AFB1F812E04FF6FF739E4571
:1010D0007FF471AFB1F814A04FF6FF739A457FF417
:1010E0006AAFB1F816E04FF6FF739E457FF463AF29
:1010F000B1F818A04FF6FF739A457FF45CAFB1F8D2
:101100001CE04FF6FF739E457FF455AFB1F81EA06B
:101110004FF6FF739A4500F0D5804CE701232A462D
:1011200041467078FFF7BEFC28B101202BE7BA4298
:101130007FF441AF87E7B36AF070EA1A336A9A42E4
:10114000BFF416AF96F802B0BBF1010F01D80FE75C
:10115000336A1D440BF1FF3B012341462A46707858
:10116000FFF7A0FCBBF1010FF2D101E7023A606189
:101170000238904209D2B3F80AA01A6B00FB0A2A7F
:10118000C4F818A02FE70220FDE63833C4F818B0E1
:101190002561E3612DE7002F00F09F804FF0FF33C2
:1011A0000020E362F1E6FF2A00F0E1802CF812E073
:1011B0005000B1F805B09A1CBEF1000F3FF465AFC6
:1011C000FF2A00F0D4806044DA1CA0F802B0B1F825
:1011D00007A0BBF1000F3FF45EAFFF2A00F0C7800D
:1011E000A0F804A01A1DB1F809E0BAF1000F3FF40D
:1011F00058AFFF2A00F0BB80A0F806E05A1DB1F8F6
:101200000EA0BEF1000F3FF452AFFF2A00F0AF80F6
:10121000A0F808A09A1DB1F810B0BAF1000F3FF481
:101220004DAFFF2A00F0A380A0F80AB0DA1DB1F894
:1012300012E0BBF1000F3FF448AFFF2A00F09780A7
:10124000A0F80CE003F10802B1F814A0BEF1000F01
:101250003FF442AFFF2A00F08A80A0F80EA003F10D
:101260000902B1F816E0BAF1000F3FF43CAFFF2AD3
:101270003FF4A1AEA0F810E003F10A02B1F818A003
:10128000BEF1000F3FF436AFFF2A70D0A0F812A0D5
:1012900003F10B02B1F81CE0BAF1000F3FF431AFDB
:1012A000FF2A64D0A0F814E003F10C02B1F81EA0EC
:1012B000BEF1000F3FF42CAFFF2A58D003F10D020E
:1012C000A0F816A00B78590604D5FF2A4FD00023AA
:1012D0002CF81230013FFFB26EE60A78D30143EAE0
:1012E00052034A781A44C2F3460343EAC2138A7887
:1012F00052FA83F2C2F3460343EAC213CA7852FA9F
:1013000083F2C2F3460343EAC2130A7952FA83F224
:10131000C2F3460343EAC2134A7952FA83F2C2F394
:10132000460343EAC2138A7952FA83F2C2F34603B0
:1013300043EAC213CA7952FA83F2C2F3460343EA7C
:10134000C2130A7A52FA83F2C2F3460343EAC21383
:101350004A7A897A52FA83F2C2F3460343EAC21305
:1013600051FA83F3DBB299457FF418AF41E6174693
:1013700022E600BF2DE9F041002304680B60B4B100
:1013800094F800E0BEF11F0F15D9BEF13A0F12D04C
:10139000A4461CF8013F1F2B0FD93A2BF9D1013479
:1013A000AEF13006A44502D1012E40F2F1800B25AA
:1013B0002846BDE8F0817346A4463A2BEFD0A24BF5
:1013C0001E78A24B53F82640002C00F0C3800C601E
:1013D00002F0FE0523787BB16078FFF739FBC10787
:1013E0000AD4002D00F0A58010F0040500F0A180C3
:1013F0000A252846BDE8F081F0B200236070237012
:10140000FFF730FBC20700F197800DB14307EFD41F
:1014100000212046FFF7DCFB02286FD0042800F0F3
:101420009780012800F284800025B4F84330B3F59A
:10143000007F7DD1B4F84E2002B9E26D94F84830B7
:101440002262591EA370012972D894F8451088B2FF
:10145000608100286CD0481E084269D1B4F849C0A8
:101460001CF00F0FA4F808C062D1B4F84B0000B90B
:10147000A06DB4F84670002F5AD002FB03F307EBBF
:101480001C161E44B04253D3A0EB060E8E45BEFB85
:10149000F1F04DD34FF6F57188427DD840F6F571E5
:1014A000884200F2998002302F442E446562E06148
:1014B0002663A762BCF1000F3AD000EB400100F0B8
:1014C00001003B4400EB51010120E36201F2FF11F6
:1014D000B2EB512F2CD34FF0FF338022C4E90433F9
:1014E00022715B4A00215B4D1388E5600D46013394
:1014F0002070A1619BB21380E3801AE094F8FA6136
:101500000EB1D4F8FE6194F80A520DB1D4F80E521F
:1015100094F81A3203B3D4F81E8294F82A720FB1E9
:10152000D4F82E72D6B90DBBB8F1000F28D13FB94F
:101530000D252846BDE8F08103252846BDE8F08149
:1015400039462046FFF744FB012854D90428EFD13F
:101550000125EEE70C25ECE79846DEE7314620460C
:10156000FFF736FB0128DED835465EE729462046E0
:10157000FFF72EFB01287FF658AFB8F1000FD6D049
:1015800041462046FFF724FB0128D0D845464CE7CA
:101590000CF10103036014E7B4F8623002302F4409
:1015A0002E4453EA0C03E061A76226636562BFD153
:1015B0008000616E00F2FF13E162B2EB532FB7D3EC
:1015C000B4F868204FF0FF338021012A2171C4E96B
:1015D000043312D0032084E7811C2F442E4465621B
:1015E000E1612663A762BCF1000FA1D03B44490032
:1015F0000220E3626AE73D4617E7691C636B994284
:1016000004D02046FFF726FB0028E3D14AF65523F5
:10161000B4F8362200219A422171DBD1A26B0E4B25
:101620009A42D7D103F1FF53D4F81C2203F500539B
:1016300020339A42CED1D4F820320320D4F8242289
:10164000C4E904234DE700BF940700249807002451
:10165000A0070024A407002452526141F8B5C378C2
:1016600004465BB92378032B29D000226078114609
:10167000FFF726FA003818BF0120F8BD456B00F1CE
:101680003807012340782A463946FFF70BFA00282D
:1016900050D1A26A236AAA1AE0709A42E2D2A678CE
:1016A000012E01D8DEE7236A1D44013E012339469D
:1016B0002A466078FFF7F6F9012EF4D1D2E72579B2
:1016C000012DD2D104F138064FF4007200213046CA
:1016D0001CF066F94AF6552062692B46A4F83602DA
:1016E0003146154884F82022A06300F1FF5000F530
:1016F00000502030C4F81C02100A84F82102100C9B
:10170000120E84F82202206984F82322050A626AF4
:1017100084F82402013284F82552050C000E62631D
:1017200084F8265284F827026078FFF7BBF900237B
:1017300023719AE70120F8BD525261412DE9F84F1B
:1017400082468846D0F80090002940F0B680D9F84B
:101750001060D9F81C30CEB90126344601349C42C1
:1017600018D3012E00F0A580DAF800500224EB69AE
:10177000A34207D92B78022B00F08A80032B44D098
:10178000012B0CD001242046BDE8F88FB34298BF4E
:101790000126E2E7012CDAF80050F3D9E7E704EB81
:1017A0005407AB6A6A6B03EB5721914205D0284678
:1017B000FFF750FA20BBAB6A6A6B07F1010BC7F366
:1017C000080703EB5B212F44914297F8387003D050
:1017D0002846FFF73FFA98B9CBF3080BE2075D44C0
:1017E00095F8383047EA032377D51B090BB3012B53
:1017F000C8D0A6425DD0D9F81C30AFE70128C1D1CE
:101800004FF0FF342046BDE8F88FA96A6B6B01EBFF
:10181000D411994204D02846FFF71CFA0028EFD1D2
:10182000A30003F4FE731D44AB6B23F07043002B45
:10183000DDD1D9F81C30A342A4D94FF0FF322146A4
:101840004846FFF741FA70B9B8F1000F0BD0B8F174
:10185000010F97D0D9F81C30984593D222464146C3
:101860004846FFF731FA0028C8D1D9F81C30D9F81A
:101870001420023BC9F810409A4202D8013AC9F834
:10188000142099F8043043F0010389F804307AE712
:10189000A96A6B6B01EB1421994204D02846FFF72B
:1018A000D9F90028ACD1630003F4FF731D442B8FDA
:1018B0009CE700242046BDE8F88F4846FFF79EFAD3
:1018C000012804467FF65EAF411C99D0D9F81C3040
:1018D00083423FF658AF46463FE7C3F30B0385E725
:1018E0002DE9F84300238468054607680361BCB905
:1018F0003B78022B10D83B895BB1FB6AAB616C6112
:101900003BB138370020EF61BDE8F8830023C5E91B
:1019100005430220BDE8F883FB6A002BEBD01C4690
:101920007A89002A5FD1012CF3D92E68F3699C4291
:10193000EFD23378022B44D0032B2BD0012BE8D1EC
:1019400004EB5408B36A726B03EB5821914206D042
:101950003046FFF77FF900283DD1B36A726B08F17A
:101960000109C8F3080803EB5921B044914298F8E3
:10197000388003D03046FFF76DF960BBC9F3080922
:101980004E4496F8383048EA0328E30735D54FEA45
:10199000181410E0B16A736B01EBD411994203D0B3
:1019A0003046FFF757F9B0B9A40004F4FE7426449A
:1019B000B46B24F07044012CABD9FB69A342B2D8BC
:1019C000A7E7B16A736B01EB1421994205D0304649
:1019D000FFF740F908B1012096E7640004F4FF74B2
:1019E0002644348FE7E7F969A01E023988428DD278
:1019F0003B6B00FB0233AB6181E7C8F30B04DAE712
:101A00002DE9F04F85B00446D0F80080FFF768FF5D
:101A10000746E8B94FF0FF094FF0FF33A669CA4601
:101A2000E362D8F83450B54218D098F8033008F182
:101A30003801002B40F088800123324698F80100DD
:101A4000FFF722F840B14FF0FF330127C8F83430D8
:101A5000384605B0BDE8F08FC8F83460E6693578DF
:101A60004DB3F27AE52D02F03F03A37104D01707BE
:101A700026D50F2B00F093804FF0FF334FF0FF0A75
:101A8000E3622569A6692035B5F5001F13D296B12A
:101A9000C5F3080327684BB901366169A6610029BF
:101AA0005ED13A89B2EB551F40F233813837256158
:101AB0003B44E361B5E70427384605B0BDE8F08F45
:101AC0000F2B6CD0BAF1000F00F0D58094F82BA04A
:101AD0001AF0010AD0D1327894F820309A42CBD152
:101AE00094F8212073789A42C6D194F82220B378D2
:101AF0009A42C1D1F27894F823309A42BCD132791B
:101B000094F824309A42B7D1727994F825309A42E9
:101B1000B2D1B27994F826309A42ADD1F27994F8E4
:101B200027309A42A8D1327A94F828309A42A3D129
:101B3000727A94F829309A429ED1B27A94F82A3077
:101B40009A4299D1574683E701232A4698F8010023
:101B50000091FEF7A7FF009900286CD0012777E7D6
:101B60007A89013A12EA5522A0D138460093FFF74C
:101B700045F9012840F2D180431CEFD0FA69904228
:101B800080F0C780023A60610238009B904280F08A
:101B9000C6807A893E6B00FB0266A66186E794F8F0
:101BA0002B3058063FF56DAF69063FD5236905F028
:101BB000BF0596F80D90E362737B4B4538D1738B6C
:101BC000B3BB37780121D8F80C2007F03F07DFF8C6
:101BD00078A102951546013F0AF10D0B039207EB20
:101BE0004703CDF80080019407EB830710E0FE2F38
:101BF000204616D801F0F2FE804635F8170001376E
:101C000001F0ECFE804521460BD1D34500F08980E0
:101C10001AF8013BF45A0029E9D14FF6FF739C42B0
:101C2000F3D0DDE900844FF0FF0A2AE7AA45C3D0CC
:101C30004FF0FF0A25E7D8F8283088F80300EA1AA1
:101C4000D8F820309A42BFF4F7AE98F80270012F0E
:101C50007FF6F2AE8B4601E0D8F820301D44013FFC
:101C6000012359462A4698F80100FEF71BFF012F71
:101C7000F2D15946E0E630787278C101B37896F82F
:101C800003B041EA5001377996F805E0114496F81F
:101C900006C0327AC1F34600757A40EAC11053FAA1
:101CA00080F1F379C1F3460040EAC110B17A5BFAE2
:101CB00080FBCBF3460040EACB1057FA80F7C7F31E
:101CC000460040EAC7105EFA80F0C0F3460747EAD4
:101CD000C0105CFA80F7C7F3460040EAC71053FA19
:101CE00080F0C0F3460343EAC01352FA83F3C3F310
:101CF000460242EAC31355FA83F2C2F3460343EAAB
:101D0000C21351FA83F3DBB299457FF4DFAE574635
:101D10009EE600230427A3619AE6022798E61E4662
:101D20003BE73378DDF800805A06DDE9014500D550
:101D300019B9013D5FFA85FAA3E6039B33F8173022
:101D4000002BF6D074E700BF540906902DE9F04F40
:101D50000B7883B00E4607462F2BD0F800B037D053
:101D60005C2B37D0DBF81830836033781F2B3AD9DF
:101D70005A461F2BD56898B240F22B81A5F1020973
:101D8000B046012408E029F8020F631C18F8010F7F
:101D90001F2840F224811C462F2804F1FF3A2BD043
:101DA0005C2829D0B4F5807F0ED0012101F0F8FD28
:101DB00050B17F28E7D82223B74A03E012F8013F49
:101DC000002BE0D09842F9D1062003B0BDE8F08F97
:101DD00016F8013F2F2BFBD05C2BF9D00023BB6002
:101DE00033781F2BC4D88023384687F82B3003B0B4
:101DF000BDE8F04FFFF774BD335D32195C2B02D0A4
:101E00002F2B40F05881631C33441E4613F8012BDE
:101E10002F2AFAD05C2AF8D0BAF1010F4FF0200334
:101E20004FF0000800F0E480BAF1020F40F0CD80DE
:101E30006A882E2A00F0238105EB4A0203E0BAF1FA
:101E4000010A00F0C68032F8023D202BF7D02E2B7D
:101E5000F5D020234FF02032002125F81A103A62E5
:101E60007A6287F8283087F8293087F82A3028885E
:101E70002E2802D0984240F00C812A46002332F8E6
:101E8000020F1C4601332028F9D02E28F7D048F045
:101E90000308023405EB4A0333F8022D2E2A02D040
:101EA000BAF1010AF8D190B300230822BC463146AA
:101EB00099461F462E465B461546E3460A462028AD
:101EC00003D02E283AD1A24538D048F0030836F87E
:101ED000140001340028F2D159469B463B46164671
:101EE0000F4691F820102A46E52902D1052187F8EE
:101EF0002010082A00F0A18003F00C020C2A04D064
:101F000003F00303032B40F0A28048F0020887F897
:101F10002B803846FFF774FD97F82B3068B3042800
:101F20007FF453AF9C0640F1DA8059073BD58023FC
:101F3000002087F82B3003B0BDE8F08FA94535D2DB
:101F4000AAEB0401B1FA81F1490979BB7F2864D871
:101F50002B21DFF84CC104E01CF8011F002900F020
:101F600086808142F8D148F003085F200BEB09011D
:101F700009F1010981F82000A9E75A073FF525AFCB
:101F8000BB79DB0640F1A9803A690BF138039BF875
:101F90000010C2F30802032913445A8B02D19B8A12
:101FA00042EA0342BA603A683378E2E60B2D00F069
:101FB0008480A24502D048F003088DD3BF00544668
:101FC0000B254FF00809FFB281E7BAF1000F7FF44B
:101FD00033AF002306202B8003B0BDE8F08FA2466C
:101FE0001E444FF004082423BAF1010F7FF41CAF04
:101FF0002A882E2A7FF420AF00226A8042F22E0225
:102000003A8487F82B304FF02033C7F82230C7F8D6
:102010002630202387F82A307BE7CDE9003201F013
:10202000BFFCDDE90032F8B11C4948F00208084461
:1020300010F8800C002896D08AE79B0003F00C0271
:102040000C2A3FF462AF18F0020F08D05FE718F0D7
:10205000020F7FF45CAF012B08BF48F01008042A80
:1020600008BF48F0080852E748F002087BE7A0F1F3
:102070004101192916D847F00207C0B276E72A882D
:102080002E2A7FF4D9AE0022AA8042F62E623A842C
:10209000B7E70124FEE600BFC0080690D40806900A
:1020A000CC080690A0F1610119299CBF203847F0A7
:1020B0000107C0B25AE71646AEE6594616469B4699
:1020C00048F0030891F820203B460F46E52A7FF4AC
:1020D00013AF052281F820200EE7052075E613F0E6
:1020E000040F08BF052070E6B1F5001F74D2CA06C0
:1020F0002DE9F84F0C4651D185680646D0F800808E
:102100000161002D4DD0B8F80A30B4EB432F4FEAEF
:102110004329C0F08E80012D40D047463BE03B78FC
:10212000022B73D0032B5FD0012B37D105EB550A5F
:10213000BB6A7A6B03EB5A21914206D03846FEF710
:1021400089FD002872D1BB6A7A6B0AF1010BCAF3D0
:10215000080A03EB5B21BA4491429AF838A004D0F4
:102160003846FEF777FD002860D1CBF3080B5F44BB
:1021700097F838304AEA032AEB0768D54FEA1A1570
:10218000012D0BD9D8F81C30AB4207D9A4EB0904B8
:10219000A14550D83768FB69AB42C0D80220BDE8E2
:1021A000F88F98F80030022B18D8B8F80830B3EB45
:1021B000541FF3D9D8F82C20B2617561002AEDD0F4
:1021C00008F13808C4F3080302EB5422002043440A
:1021D000C6E90623BDE8F88F02207047D8F82C30F6
:1021E000002BE2D01D468EE7B96A7B6B01EBD5115F
:1021F000994203D03846FEF72DFDB8B9AD0005F47D
:10220000FE752F44BD6B25F07045B9E7B96A7B6B4D
:1022100001EB1521994203D03846FEF71BFD28B982
:102220006D0005F4FF752F443D8FA9E70120BDE83F
:10223000F88FD8F81C30023BA91E99420AD2B8F890
:102240000A30D8F8302001FB0322B261B5E7CAF3A7
:102250000B0595E70023C6E905539FE701292DE902
:10226000F8430C4605680FD9EB698B420CD906463A
:10227000114662B92F469C4206D23B78022B72D09F
:10228000032B5DD0012B10D00220BDE8F8839342D0
:10229000FAD9012AF8D04FF0FF322846FEF714FD94
:1022A0000028F2D13768FB69E5E704EB5408BB6A04
:1022B0007A6B03EB5821914206D03846FEF7CAFCF0
:1022C000002861D1BB6A7A6B08F10109C8F30808DC
:1022D00003EB5921B844914298F8388004D038462D
:1022E000FEF7B8FC00284FD1C9F308094F4497F80E
:1022F000383048EA0328E30748D54FEA1818B8F100
:10230000000F46D0B8F1010FBED0EB69A342BBD994
:10231000002221462846FEF7D7FC0028B5D1EA69FD
:102320006B69911E8B4205D201336B612B7943F0AF
:1023300001032B7142452CD937684446FB699AE763
:10234000B96A7B6B01EBD411994203D03846FEF792
:1023500081FCC8B9A30003F4FE731F44D7F838808A
:1023600028F07048CBE7B96A7B6B01EB14219942E6
:1023700003D03846FEF76EFC30B9630003F4FF73F8
:102380001F44B7F83880BAE701207EE7C8F30B088E
:10239000B5E7002079E700BF2DE9F04F90F82B302A
:1023A00093B00A9313F0A00340F05783026882466B
:1023B000D2F80CC00192BCF8007037B11F466346DA
:1023C00033F8022F0137002AFAD10AF1200512ABA7
:1023D00095E8070003E907000A9BD80700F19680FB
:1023E00013F00203DDF8049000F09982754A07F1BA
:1023F0000C035046A2FB03239B0802930133039373
:10240000FFF76EFA8346002840F09382DAF818103E
:102410008046069029E0B3FA83F25209A3B39046AE
:10242000DAF81050DAF818102035B5F5001F80F0F2
:102430008382002900F08082C5F30807DAF80040A3
:1024400067B90131DAF81430CAF81810002B40F0DF
:10245000CB822289B2EB551F40F2B98304F13806D2
:102460003E44CAF81050CAF81C60D9F834308B4288
:1024700005D04846FEF7EEFB002840F0B083DAF8BE
:102480001C301B78E52BC6D108F10108039B43459E
:10249000C6D1029BDDF818B0002B40F0E982019B09
:1024A000DAF818105B6B994205D00198FEF7D2FB61
:1024B000002840F0D88220220021DAF81C001BF00E
:1024C0006FFADAF81C300AF121029A1A022A40F255
:1024D0008484DAF820201A60DAF824205A609AF806
:1024E000282058461A729AF829205A729AF82A20F7
:1024F0009A7201229AF82B30DAF81C1003F01803B4
:102500000B73019BDA7013B0BDE8F08F40239DF888
:1025100042209DF8451001268AF82B304FF0200903
:102520009DF83C30089202939DF83D309DF8432081
:1025300003939DF83E30079206939DF83F309DF837
:10254000442005939DF840309346099161460493D9
:102550009DF841300B979DF846801F461A4C099B09
:102560000022052E8AF828B08AF82930029B8AF8C2
:102570002A8063F30702039B63F30F22069B63F336
:102580001742059B63F31F62049BCAF820204FF09B
:10259000000263F30702089B67F30F2263F31742FD
:1025A000079B63F31F62CAF8242040F234810A8833
:1025B000002A00F030818C4602F00101500801EB46
:1025C00046010DE04FECC44E2110010002F0010164
:1025D0001EF4004F4FEA520001EB4E0118BF61405C
:1025E00000F0010E9308D0080EEB410E090403F031
:1025F000010300F0010048BF8EEA040E110903EB4D
:102600004E031EF4004F01F0010118BF634000EBC0
:1026100043001B044FEA521348BF604003F001031C
:1026200001EB400100044FEA921048BF614000F006
:10263000010003EB410309044FEAD21148BF634094
:1026400001F0010100EB43001B044FEA122348BFD5
:10265000604003F0010301EB400100044FEA522007
:1026600048BF614000F0010003EB410309044FEA59
:10267000922148BF634001F0010100EB43001B04BD
:102680004FEAD22348BF604003F0010301EB400151
:1026900000044FEA123048BF614000F0010003EB34
:1026A000410309044FEA523148BF634001F0010180
:1026B00000EB43001B044FEA923348BF6040D20B4B
:1026C00003F0010301EB4001000448BF614003EB4C
:1026D0004103080448BF634002EB430E19043CF871
:1026E000022F48BF8EEA040E002A7FF46FAF0EF06F
:1026F0000F0101F13002392A88BF01F13702BEF122
:102700000F0F4FEA1E118DF83B2040F2528101F06D
:102710000F0000F13002392A88BF00F137020F297B
:102720004FEA1E208DF83A2040F2498100F00F0157
:1027300001F13002392A88BF01F137020F284FEA30
:102740001E318DF8392040F2498101F00F0000F16F
:102750003002392A88BF00F137020F294FEA1E40A4
:102760008DF8382040F2678100F00F0101F130024E
:10277000392A88BF01F137020F284FEA1E518DF820
:10278000372040F25E8101F00F004FEA1E6E00F12B
:102790003002392A88BF00F137020F298DF8362020
:1027A00040F255810EF00F0101F13002392A88BF45
:1027B00001F13702BEF10F0F8DF8352040F205818F
:1027C0004FF0FF3C0AF11F01002202E00132624596
:1027D00003D011F8013F202BF8D1BCF1070F1CD911
:1027E000501C05F80290072809D8421C2021082A0D
:1027F000C0F10802284488BF01221BF0D1F85046DE
:10280000FFF7FEF800287DD10136642E00F0948099
:10281000019BD968A3E6B64669E70CF148030CF1C1
:10282000010C0DEB030111F8141CA9540132072A05
:10283000E5D8BCF1080F00F085800CF14803072AA9
:1028400002F101000DEB030111F8141CA9540CF165
:102850000101D4D008297DD00CF14903062A0DEBE3
:10286000030111F8141C29540CF1020102F10200B9
:10287000C5D0082976D00CF14A03052A0DEB0301D7
:1028800011F8141C29540CF1030102F10300B6D015
:1028900008296FD00CF14B03042A0DEB030111F84A
:1028A000141C29540CF1040102F10400A7D00829DA
:1028B00068D00CF14C03032A0DEB030111F8141C32
:1028C00029540CF1050102F1050098D0082961D0C6
:1028D0000CF14D03022A0DEB030111F8141C2954CD
:1028E00002F106018BD0BCF1010F5BD19DF83B20BA
:1028F00006296A5483D150468AF82790FFF780F85A
:10290000002881D004280B9F834617D10A9BDAF850
:1029100000908AF82B3013F002037FF467AD029326
:10292000012350460393FEF7DBFF834600283FF464
:102930006DADBBF1040F01D14FF0070B584613B03A
:10294000BDE8F08F072A02F1010005F802907FF43C
:102950004CAF54E7062A05F8009002F102007FF41C
:1029600044AF4CE7052A05F8009002F103007FF41C
:102970003CAF44E7042A05F8009002F104007FF41C
:1029800034AF3CE7032A05F8009002F105007FF41C
:102990002CAF34E7022A05F8009002F106007FF41C
:1029A00024AF2CE705F80190002A7FF428AF072018
:1029B0001BE77E224FF0060C8DF83A2002E77E22BC
:1029C0004FF0050C8DF83920FCE67E224FF0010C0B
:1029D0008DF834208AF8202062462EE77E224FF0C0
:1029E000040C8DF83820EDE66289013A12EA55228E
:1029F0007FF434AD19462046FEF700FA0128049012
:102A000040F20582421C00F0DC80E36902469842F5
:102A100080F0E780023BA0F1020B04F138065B4531
:102A2000CAF8142040F23B816389216B0BFB031130
:102A3000CAF8181014E57E224FF0030C8DF83720E9
:102A4000C0E67E224FF0020C8DF83620BAE67E22D8
:102A50004FF0010C8DF83520B4E64FF0060B5846C8
:102A600013B0BDE8F08F8346584613B0BDE8F08F31
:102A7000DAF810105046A1EB4311FFF735FB05467D
:102A8000002840F00A819AF820104FF00F099AF8B8
:102A90002140CB019AF822009AF8232043EA5103FF
:102AA0009AF824809AF825E019199AF826C09AF81D
:102AB00027704FF6FF74C1F346039AF8286043EA83
:102AC000C11350FA83F39AF82900C3F3460141EA8F
:102AD000C3139AF82A1052FA83F2C2F3460343EA68
:102AE000C21358FA83F8C8F3460343EAC8135EFAE0
:102AF00083FECEF3460343EACE135CFA83FCCCF3A9
:102B0000460343EACC1357FA83F7C7F3460343EA75
:102B1000C71356FA83F6C6F3460343EAC613019E6B
:102B200050FA83F0C0F3460343EAC01051FA80F133
:102B30005FFA81F8DAF81810736B994204D03046C6
:102B4000FEF788F800288ED19DF80800F168421E33
:102B5000DAF81C3002EB420783F80D8083F80B9003
:102B600002EB87021D739D76DD7631F812704FEA15
:102B7000172C5F7083F802C04FEA420C002F40F020
:102B80009080A3F80340A3F80540A3F80740A3F8FA
:102B90000940DC811C825C829C82DC821C839C83D9
:102BA000DC8340F04000187001235046F370FEF7BC
:102BB00085F900287FF457AF029B013B0293B9D1FE
:102BC0006DE44FF0010B584613B0BDE8F08F4FF0A5
:102BD000070BCAF81830584613B0BDE8F08F83468B
:102BE000A7E6DAF814105046FEF7A8FD0346049055
:102BF00000283FF4A1AE012800F009810133E0D0A4
:102C0000E378002B40F0118104F138064FF4007294
:102C1000002130461AF0C4FEE369049A023B618940
:102C2000A2F1020B9B4580F0FE80226B0BFB012280
:102C30006263002900F0F4800023CDE9075737468E
:102C4000164605934FF00103324639466078E3702B
:102C50000123FDF727FF0028B3D1A36AE070F01A23
:102C6000236A98420ED2A578012D01D80AE0236A82
:102C70001E44013D0123394632466078FDF712FFBC
:102C8000012DF4D1059A636B501C65895E1CA84226
:102C9000666380F0BF800590D4E783464EE600214E
:102CA000C6E6A7423FF46DAF013231F81270520010
:102CB0004FEA172EDF7083F804E0002F3FF463AF74
:102CC000A7423FF460AF0A4457884FEA172E5F715E
:102CD00083F806E0002F3FF458AFA7423FF455AF0A
:102CE00097884FEA172EDF7183F808E0002F3FF432
:102CF0004EAFA7423FF44BAFD7884FEA172E5F7213
:102D000083F80AE0002F3FF444AFA7423FF441AFFD
:102D100017894FEA172E9F7383F80FE0002F3FF4B7
:102D200039AFA7423FF436AF57894FEA172E1F74C9
:102D300083F811E0002F3FF42EAFA7423FF42BAFF2
:102D400097894FEA172E9F7483F813E0002F3FF402
:102D500023AFA7423FF420AFD7894FEA172E1F7544
:102D600083F815E0002F3FF418AFA7423FF415AFEA
:102D7000178A4FEA172E9F7583F817E0002F3FF44C
:102D80000DAFA7423FF40AAF578A4FEA172E1F76BE
:102D900083F819E0002F3FF402AFA7423FF4FFAEE3
:102DA000978A4FEA172E1F7783F81DE0002F3FF414
:102DB000F7AEA7423FF4F4AED28A571E9A77120AB2
:102DC000BFB2DA774FF6FD7297423FF6EAAE614442
:102DD0004A8B002A7FF4E7AEE3E69AF820201A70C7
:102DE0009AF821205A709AF822209A709AF8232093
:102DF000DA709AF824201A719AF825205A719AF8F4
:102E000026209A719AF82720DA71FFF768BB4FF0F5
:102E1000020B93E59A1AE3693E46079D089F023B21
:102E20006263049AFBE5002202E704F13806626B54
:102E30000123607831460592FDF734FE00287FF4C7
:102E4000C0AEA36A059AE070D11A236A9942BFF412
:102E5000DDAE94F802B0BBF1010F7FF6D7AE31467C
:102E60002E462546144600E02B6A1C440BF1FF3B1E
:102E70000123687822460591FDF714FEBBF1010F8E
:102E80000599F1D12C4635460E46BFE600B583B014
:102E9000CDE90010B1B191F800C0BCF11F0F15D9F8
:102EA000BCF13A0F12D0084610F8013F1F2B0FD982
:102EB0003A2BF9D10131ACF1300C884202D1BCF18E
:102EC000010F0AD90B2003B05DF804FB63460846E6
:102ED0003A2BEFD00F4B93F800C00F4951F82C302C
:102EE0000BB100201870019B6BB10020012A41F842
:102EF0002C301870E7D1024601A96846FEF73AFA6D
:102F000003B05DF804FB184641F82C3003B05DF8BF
:102F100004FB00BF94070024980700242DE9F04724
:102F200090B00191002800F0848002F03F0716461F
:102F3000044603A901A83A46FEF71CFA054628B143
:102F400000232360284610B0BDE8F087039B04A847
:102F500001990493FEF7FAFE80B99DF93B30002BEE
:102F60006CDB16F01C0F10D09DF8163013F0110F0B
:102F700066D1700740F1BF800825E1E716F01C0F0D
:102F800001D0042860D00546DAE79DF81630DA064D
:102F900058D4B20701D5DB0752D406F00806DDF895
:102FA0000C90002E40F0A480D9F8343023620B9BA3
:102FB000636299F800205E8B032A02D19A8A46EA5E
:102FC00002460021A66004F12C0AD3F81C80B9F84F
:102FD00006304FF4007227745046C4F80090C4F8CD
:102FE0000C80A162A3806174E16161611AF0D8FC78
:102FF000BF06A7D5B8F1000FA4D0B9F80A30C4F8BD
:103000001480B8EB432F4FEA432706D878E0701CB2
:1030100000F09A80474580F0978031462068FDF7A0
:10302000EDFE0128A8EB07080646F0D80225A061AE
:1030300086E70925284610B0BDE8F08706257FE71A
:1030400007257DE704257BE704A847F00807FFF77D
:10305000A3F9002897D107F07DFD0B9BC6B2C0F302
:103060000742C0F30721000E9E734FF0200CD97366
:103070001A7458740B9BDDF80C909E75D9751A76EE
:1030800058760B9B83F80BC099F800200B9B032A02
:103090005E8B02D19A8A46EA024600225A8399F848
:1030A0000010032900D19A820B9B0022DA610123D0
:1030B00089F80330E6B1D9F8343004A831460093DA
:1030C000FFF7CCF800287FF45EAFDDF80C90009B92
:1030D000D9F83420934233D048461946FDF7BAFD5B
:1030E000013EDDF80C90C9F8106000287FF44BAF6A
:1030F00047F0400758E73107ADD4DDF80C9053E7AF
:10310000A661C8F30803002B3FF41CAF0398023EEE
:10311000C369023B9E4204D24289036B06FB023222
:103120000AB902250CE702EB582251460123E2615D
:103130004078FDF7A9FC00283FF404AF0125FFE625
:10314000013EC9F81060D3E7711CA6610CBF0123D2
:103150000023D6D11D46F3E62DE9F04F1E4600238D
:1031600085B0336050B1036804463BB117461A7806
:1031700022B10D46DA888188914205D04FF00908C6
:10318000404605B0BDE8F08F5878FDF761FCC207F6
:10319000F4D494F81180B8F1000FF1D1237C13F02E
:1031A0000103009300F0D8806069E3681B1A9F4216
:1031B00028BF1F46002FE3D0A24604F12D03CDF80F
:1031C00008805AF82C9B0193C0F30803002B58D1B8
:1031D000B9F80A20430A013A12EA502200F081802D
:1031E000A069D9F81C300238023B984280F08780F1
:1031F000B9F80A10D9F8303001FB003000287ED031
:10320000B7F5007F02EB000B25D302EB57204FEA06
:103210005728884299F8010088BFA1EB02085A4656
:1032200029464346FDF730FC002840F0838094F99E
:103230001020002AC0F2A7804FEA482C6069B7EB43
:103240000C07336865446044634460613360BBD1FC
:10325000DDF8088094E7E2695A450DD094F9103002
:10326000002BC0F2838001235A46514699F8010091
:10327000FDF70AFC00285DD16369C4F81CB0C3F3F4
:103280000803591CC3F5007C53445144BC45A5EBCD
:10329000010128BFBC4602290CF1FF3B52D9BBF10A
:1032A000070F4FD92CF0030E2A461946AE4451F8A9
:1032B000040B42F8040B9645F9D12CF00302944517
:1032C00005EB020103EB0200B8D09B5CAB54BBEBF7
:1032D0000202B3D04378012A4B70AFD083788B7051
:1032E000ACE798B9A068012809D9431C22D0D9F8C5
:1032F0001C30A0610238023B9842FFF479AF0223F0
:1033000098466374404605B0BDE8F08FA06A30B3BC
:10331000216804304989B3FBF1F3016829B9EEE76C
:103320005B1A50F8081F0029E9D09942F8D9406883
:103330001844D8E7DDF8008001234046637405B0E7
:10334000BDE8F08F6A1E03EB0C0013F8011B8342EB
:1033500002F8011FF9D171E74FF0070810E7A169E2
:1033600020680392FDF74AFD039ABCE7012351460A
:1033700099F80100FDF796FB0028DBD1237C03F0D0
:103380007F0323746FE7E269A2EB0B0BC345BFF425
:1033900053AF05EB4B22019B5146D01A022808D9A6
:1033A00002F5007C51F8043B42F8043B6245F9D138
:1033B00042E7013A04F50B7C11F8013B8C4502F819
:1033C000013FF9D138E700BF58B1036870B5044632
:1033D0002BB11A781AB18188DA88914203D009207A
:1033E00070BD092070475878FDF732FBC107F6D44D
:1033F000237C25685A063CD51B064BD407F0AAFB54
:10340000216A6B6B0646994204D02846FDF722FCE0
:103410000028E5D1636ADA7A42F02002DA72A26803
:103420002168C2F307209A76D8760978032903D158
:10343000120C1A75120A5A75E26828469E75110A0E
:103440001A775977110C120E9977DA77320ADA75F2
:10345000320C360E1A7600225E765A820123EB7009
:10346000FEF7FCF8237C23F0400323740028B7D137
:103470002568002DB3D02B78002BB0D0A288EB8824
:103480009A42ACD16878FDF7E3FA10F00100A6D1BA
:10349000206070BD0123E26904F12C016878FDF71A
:1034A00001FB20B9237C03F07F032374A6E70120EE
:1034B00070BD00BF2DE9F04F87B048B103680446E6
:1034C00033B11A7822B10D46DA888188914205D04D
:1034D0004FF00908404607B0BDE8F08F5878FDF777
:1034E000B7FAC707F4D494F81180D4F800A0B8F163
:1034F000000FEFD1A06A002849D06E1C00F0948024
:10350000E1688D4228BF0D466561002DE2D06E1E38
:10351000BAF80A104368021D760AB6FBF1F033B917
:1035200016E1C01A52F8083F002B00F011819842B2
:10353000F7D2536803449A1EA361DAF81C30023BA9
:10354000934240F2D280DAF8303002FB0133002B94
:1035500000F0CB80C5F30805002DBBD00139E2692E
:103560000E401E44B242B5D094F9103004F12C0143
:10357000002BC0F2238101239AF801003246FDF7A7
:1035800083FA8046002840F0AC80E661A2E7E36859
:10359000AB4204D2227C12F0020F08BF1D4600226B
:1035A00063696261002D95D0BAF80A707F02002B22
:1035B00033D0013B6A1EB3FBF7F1B2FBF7F28A424C
:1035C0002BD37A42A6691340ED1A6361002E00F0F6
:1035D000D080BD4240F21581314612E0FEF7AEF8D0
:1035E0000146002800F0C3804B1C7AD001297CD909
:1035F000DAF81C308B4278D9AF42A16180F0FF80AD
:1036000063693B442046ED1B6361237C9A07E5D444
:103610002068FDF7F3FB0146E6E7A668002E00F000
:103620009A800023A661D1E78346A2685BF8043B39
:103630000193002A00F0848002275646CDF81080BE
:10364000CDE902BABA46A34617463D460024012DED
:1036500004F1010402D9F3699D4204D30223984680
:103660008BF8113036E73378022B2FD0032B43D061
:10367000012BF3D105EB5508B26A706B02EB5821B0
:10368000814205D03046FDF7E5FA48BBB26A706B5F
:1036900008F10103C8F3080802EB5321B04481424A
:1036A00098F8389005D030460593FDF7D3FA059B7E
:1036B000B0B9C3F30803E8071E4496F8383049EA66
:1036C000032940F18C804FEA191928E0B16A736B25
:1036D00001EB152199422CD03046FDF7BBFA40B3DF
:1036E0005C46012398466374F4E6022398466374AB
:1036F000404607B0BDE8F08FB16A736B01EBD5119E
:10370000994204D03046FDF7A5FA0028E8D1AB0075
:1037100003F4FE731E44D6F8389029F07049B9F1CD
:10372000010F9BD901354D4535D14D46DBF8006081
:103730008DE76B0003F4FF731E44B6F83890EEE794
:1037400002279F42076047D80023CBF80030C1E62C
:103750006FF00102F0E631462046FDF7EFFF012849
:103760000646C2D0411CBCD06369A0605AE7064639
:103770006369E2689A4264D2227CE360C3F308037F
:1037800042F040022274002B3FF4A4AEE269B24240
:103790007FF4EAAE9EE60AF1020A019B534521D36B
:1037A000029B194641F8084B5F60039BDA694A4562
:1037B00041D902914F46DBF8006046E701239AF8B1
:1037C00001000191FDF76EF900288AD1237C01994F
:1037D00003F07F032374CEE64FF011087AE6C9F3B5
:1037E0000B099CE7039BDA694A45E3D85C465746D8
:1037F000DDF81080DDF808B0A06A019BA1E70E4655
:1038000063692B44C5F30802636192B1DAF81C20A6
:10381000B11E023A9142BFF468AFBAF80A20DAF852
:10382000306001FB0266002E3FF45FAF06EB5526C9
:103830009FE716469DE75C465746DDF810808B46AD
:10384000DAE7C3F308039EE710B584B001910028BE
:1038500031D00446002203A901A8FDF78BFD18B161
:103860000023236004B010BD039B20460199236010
:10387000FEF76CFAD8B994F92B30002B1EDBA37934
:10388000DB0616D5039BE16918784A8B032802D121
:10389000898A42EA0142A260DB882046A380FEF7C3
:1038A0001FF8042805D00028DAD104B010BD042880
:1038B000D6D10520D4E7092004B010BD039BEBE767
:1038C00098B1036810B504462BB11A781AB18188F3
:1038D000DA88914201D0092010BD5878FDF7B8F878
:1038E00010F00100F7D1206010BD0920704700BF23
:1038F00018B338B50368044633B11A7822B10D46BF
:10390000DA888188914201D0092038BD5878FDF7C6
:103910009FF8C307F8D420468DB1FDF713FB10F0D4
:10392000FB0FF2D129462046FDF7D6F82046FDF7D9
:10393000C5FA042808BF002038BD09207047BDE83B
:103940003840FDF7CDBF00BF144B9A7B012A01D947
:103950000120704793F80EC000225FFA8CFC03F838
:103960000C2093F80EC003EB8C0CCCF8040093F8F9
:103970000EC0987B9C448CF80C2000F1010C303078
:103980005FFA8CFC83F80EC04FF03A0C2F230870BE
:1039900081F801C010468B70CA707047A4090024DA
:1039A0007F2812D971B90C4B01E080290CD033F873
:1039B000022B1FFA81FC01318242F6D10CF180000A
:1039C00080B27047FF2801D900207047024B803831
:1039D00033F81000704700BF64090690224B234A59
:1039E000B0F5805F28BF134610B5043301E00433FF
:1039F000DAB133F8041C1C46B1B1884214D333F851
:103A0000022C5FFA82FC120A0CEB010E7045EEDA12
:103A1000082A09D8DFE802F0051016191C1F222514
:103A20000C00411A33F8110010BD04EB4C03DCE725
:103A3000A0F5E35080B210BD431A03F00103C01A91
:103A400080B210BD103880B210BD203880B210BDD9
:103A5000303880B210BD1A3880B210BD083080B244
:103A600010BD503880B210BD640A0690580C069004
:103A7000704700BF704700BF704700BF704700BF6E
:103A800010B50021094802F0B3F9094C012003F0F8
:103A900061FE084803F050FE074A0849204601F03D
:103AA0000BFD204601F0C0FF002010BD2CB3062402
:103AB0004C0F0024140D0690000000C0000000C14F
:103AC0002DE9F0415D4D00245D4F5E4A28465E4978
:103AD00018F00AF807F5C0703C607C613C62FC633A
:103AE00003F06EFE594A072359493846C7F8392270
:103AF00007F5147287F83D3240F20113DFF87C813C
:103B0000C7F89041C7F84842C7F84C42C7E990232C
:103B10004C4A17F0E9FF4F4B0022C8F80050C8E9A3
:103B200001374D4BC8F80C300023C8E904234B4A39
:103B30004FF4804302F5AC6CC8F8303802F1100342
:103B4000C2E90074C2E9024400240022444901266B
:103B5000022544489C60DA601A611C775D6383F833
:103B60003840D8631964C3E90044C3E905464433C7
:103B70006345E9D13C4E3D4D3346B260F260A6F25A
:103B80007C5043F8042B32611A607261B26138498B
:103B90002C4A17F0A9FF2846A6F27C514FF4B362D5
:103BA00040F8047B19F0EEFE4FF07C5205F2CC5346
:103BB00005F5BD61C5F8D44528461A6005F5C22350
:103BC000C5F8D845C5F8DC45C5F8E045C5F8E44575
:103BD0000A60284AC5F8BC45C5F8C3451560C5F854
:103BE0009C85C5F8A475C5F8A845C5F8AC45C5F8C9
:103BF000B045A5F8BA45C5F8BF45C5F8C645C5F8EE
:103C0000D045C5F8EC4585F80C46C3F8F04183F87B
:103C10007442C5F8F045C5F8F445C5F8F845C5F84F
:103C2000FC45C5F80046074A1349C3E97A44C3E98D
:103C30008D44BDE8F04117F057BF00BF1046072480
:103C40002CB3062400000024713A049080707F0F8A
:103C5000753A0490ACAE06244CA40624B4090024A2
:103C60000000A040CDCC4C3F300F00244C0F00246E
:103C7000793A0490184607247D3A049078A60624E1
:103C800030B585B00322012300240546694600684B
:103C90008DF80840CDE9002305F0D4FC10B1204692
:103CA00005B030BD0121686806F030FF6868012268
:103CB00004490430FFF7EAF8B0FA80F0400905B093
:103CC00030BD00BF200D0690F0B50746E3B00021DF
:103CD0004FF40062183019F063FE7968684601F20B
:103CE0007441FFF7B1FD002840D104461CA9684685
:103CF000FFF7FEFD45F62E7230BB9DF886301BB3F4
:103D00009DF8783013F0120FF0D1BDF886300CAD6D
:103D10000DF1860193422846E8D01AF0C1FB1649FE
:103D2000064628461AF0CDFB034614492846C3B17F
:103D300007EB84100134721B2946A4B218300132FB
:103D400019F020FE1E2CD1D96846FFF7B9FD0023DB
:103D5000A7F81A48E01AA7F8183818BF012063B06E
:103D6000F0BD1AF0AEFB0028E2D1EBE7044803F007
:103D7000E3FC002063B0F0BD4C0D0690540D06909E
:103D8000240D06902DE9F0430C468FB005462C22F9
:103D90006B4603A92046FFF7DFF910B9009B2C2BD7
:103DA00004D0002630460FB0BDE8F083039E6D4876
:103DB000059A6D4B9A4208BF864214BF0126002621
:103DC000EFD103F15B4306990C9803F5F11303F669
:103DD0000F43994254D0654B98420CD1B5F926381F
:103DE0000D9A002BC5F82028B8BF0733DB10B2FBB3
:103DF000F3F3C5F828385E4BA1EB030803F18243C7
:103E00000C21A3F60243B8FA88F8A0EB0309204678
:103E10004FEA5818B9FA89F94FEA5919FFF74AFBDE
:103E200004226B4620460DEB0201FFF795F90028AE
:103E300040F08880009F042F40F084806B463A4613
:103E400002A92046FFF788F9019B494A93423CD0DA
:103E5000464A93427DD0029B204661691944FFF790
:103E600029FB08EA0903002BDAD0B5F92638002B24
:103E7000B8BF0733DA10D5F82038B3FBF2F318E0F7
:103E8000099BC5F81C38BDF82230A5F82438BDF8C8
:103E90002E30A5F82638354B9842ACD1B5F92628F6
:103EA0000D9B002AC5F82038B8BF0732D210B3FBEB
:103EB000F2F36169E868C5F82838C5F82C18FFF7EF
:103EC000F9FAB0FA80F676096CE7616920460631A6
:103ED000FFF7F0FA6B46022205F624012046FFF7B1
:103EE0003BF900287FF45EAFDDF80080B8F1020FE7
:103EF0007FF458AF3A466B4605F61C012046FFF7A3
:103F00002BF900287FF44EAF009B042B7FF44AAFBF
:103F1000616920460631FFF7CDFA6B46424605F649
:103F200026012046FFF718F900287FF43BAF009BDD
:103F3000022B7FF437AF4B464FF00108002B3FF4C4
:103F40006FAF92E708EA0908B8F1000F3FF429AF14
:103F50008BE7029BC5F82038B8F1000F3FF421AF82
:103F600083E700BF52494646574156456461746134
:103F7000666D74202DE9F04F85B0044649480E4621
:103F800000AF03F0D9FBD4F8303847485B00073363
:103F900023F00703ADEB030D03F0CEFB434803F022
:103FA000CBFBE368DA685B69002E18BF9A420CBF4E
:103FB0004FF001084FF0000861D0E94645463C4803
:103FC00003F0BAFBB4F926B8D4F83038721BBBF151
:103FD000000FB4F824183748B8BF0BF1070B9A420A
:103FE0004FEAEB0B28BF1A4611FB0BF303FB02F25F
:103FF0007A6003F0A1FB07F10C037A684946E06898
:10400000FFF7AAF88246002843D12B4803F094FB1F
:10401000B4F92408FB680BFB00FB5B45B3FBFBFC1E
:1040200025D35346D4E9042101EB450102EB4502B7
:104030000EE039F923000231023222F8020C3EF977
:1040400023000133634521F8020C10D2B4F924088F
:10405000012809F1020EECD139F9130001330231C4
:104060000232634521F8020C22F8020CEED3E36819
:1040700065445A69DB689A4201D0AE429FD84FF03E
:1040800001080E4803F058FB14374046BD46BDE812
:10409000F08F0B4803F050FB40461437BD46BDE897
:1040A000F08F00BF5C0D0690680D0690740D0690B1
:1040B000A00D0690BC0D0690F80D06908C0D069094
:1040C000D40D0690B0F81A388B4270B52ED3B0F8E4
:1040D000183804460D468B421ED104EB851101228F
:1040E000E0681831FEF71AFF0646C8B9E1682046B5
:1040F000FFF748FE0546F8B1B4F92638102B05D174
:10410000D4F81C284BF680339A421DD0274800254E
:1041100003F012FB284670BDC068FFF755F9DCE7D5
:104120000025234803F008FB284670BD00252148E0
:1041300003F002FB284670BD1F4803F0FDFAE0685B
:10414000FFF742F9284670BD1C4803F0F5FA4FF01E
:1041500080723146206919F023FC4FF0807231469D
:10416000606919F01DFCD4F82858B5F1807F04D996
:104170001348002503F0E0FACCE71248B4F92468AC
:1041800003F0DAFAB4F92638102B0BD10E4803F0FD
:10419000D3FA2046B5FBF6F1FFF7ECFE0546002802
:1041A000B8D1E5E7094803F0C7FAE1E7900E0690B9
:1041B000640E06904C0E0690780E0690A40E0690A3
:1041C000BC0E0690180E0690280E0690340E06902F
:1041D000C0E90412704700BFF0B500F1540C00F2C2
:1041E000A457C360C0E901125CF8244C01254FF0CC
:1041F000FF4EDFED207AAC424FF000064CF8441C35
:104200004CED0E7A4CF8402C4CF82C5C4CF83C3CB5
:104210004CF834EC4CF8304C1CD00CF8286C0CF1F9
:10422000440CBC45E0D14FF4965400234FF07E512E
:104230004FF07C52C0F868450124C0F86035C0F8E2
:104240006C3500F27453C0F8704500F5AF6019602A
:104250000260F0BD0CF1440C4FF07E554FF0FF367C
:10426000002467454CF87C5C4CF8706C0CF86C4C86
:10427000BAD1D8E70000000003460248C3F864152D
:1042800003F05ABA140F069003460248C3F86015AB
:1042900003F052BA240F06900146B7EEC07A0448E4
:1042A00001F5AF6153EC172B81ED000A03F044BA1E
:1042B000380F06909FED0F7A0346DFED0F5AF0EEB0
:1042C000477A9FED0E6ADFED0E6A0E48E0EE257A22
:1042D000C7FE877AC7FEE67AC7FE877AC7FEE67A08
:1042E00067EE867AFCEEE77A17EE901AC3F8681547
:1042F00003F022BA0000C8420040354501004042A8
:1043000000803B45D80E0690C368013B07EE903A0B
:10431000F8EE677A27EE800ABCEEC00A10EE103A7B
:10432000C0F86C35704700BFB7EE007A0346B3EEB5
:10433000036A0C48F3EE046AF0EE477AE0EE067A80
:10434000C7FE877AC7FEE67AF8FE677AFCEEE77A60
:1043500017EE901A142928BF1421C3F8701503F022
:10436000EBB900BFF00E0690F6EE007A00F2745141
:10437000B7EE086A0948F0EE006AB0EE677AA0EE80
:10438000067AC7FE277AC7FEE67AB7EEE76AC1ED7E
:10439000007A53EC162B03F0CFB900BF000F069044
:1043A00038B5DB4D42F2107304462A6801329A4256
:1043B00000F0FF812A6004F27C53D3ED006AF5EE31
:1043C000C06AF1EE10FA49DDD249B7EE006AD4F8BE
:1043D000680576EEA65A0B6807EE900A9FEDCE7A36
:1043E00083EA43339FEDCD3AF8EE677ADFEDCC4AAE
:1043F00083EA534336EE665A76EE866ADFEDC93AB3
:1044000083EA431327EE877AB0EE456A9FEDC64AEA
:1044100007EE903A0B60C549F8EE677AC44B01FB92
:104420000232C44B67EE837AB3EBF20F65EEA75A04
:10443000A7EEA56AC6FE057AC7FEE66A67EE267A8B
:10444000C7FEA37AC7FEC47A67EEA47AFCEEE77AC9
:1044500017EE901AC4F8681580F0B48104F5B063C3
:1044600093ED007AB5EEC07AF1EE10FA39DDA94984
:10447000FFEE006ADFEDB05AB7EE006A0B68E26843
:1044800083EA4333A94883EA534383EA431307EE9D
:10449000903A0B60D4F86C15B8EE675AF0EE667A75
:1044A000E5EE257AC7FEA67AC7FEC67AFCEEE77A65
:1044B000F8EE677A67EE877AFCEEE77A17EE903AC5
:1044C00002FB03119A4B8A4298BF02F1FF312A681E
:1044D00000FB0233974AC4F86C15B2EBF30F80F07F
:1044E000758104F28C53DFED955AD3ED006AF4EE3A
:1044F000E56AF1EE10FA32DD864804F5AF612A680C
:10450000B0EE667A0368B1EE664A9FED8B6AB7EE4D
:10451000005A83EA4333D1ED004A26EE866A83EAE5
:10452000534383EA431307EE903A03607F48804B7E
:10453000F8EE677A00FB02337E4A97EE867AB2EB9A
:10454000F30FC7FE047AC7FEE67A77EEA47AC7FEB9
:10455000A57AC7FEC57AC1ED007A80F03B8104F5EB
:10456000B16393ED007AB5EEC07AF1EE10FA3CDD5E
:104570006849F7EE007A37EE076ADFED683A0B68B4
:1045800004F2745277EEC75A684883EA433337EE31
:10459000277A92ED004AF6EE004A83EA5343B0EEE2
:1045A000085A83EA431307EE903A0B602968F8EE45
:1045B000676A5F4BF0EE657A00FB01335D4966EE9A
:1045C000A36AB1EBF30F26EE266AE6EE867AC7FE03
:1045D000A57AC7FEC77A67EE847AC7FEA47AC7FEBB
:1045E000C57AC2ED007A80F0FD8004F5B263D3EDA8
:1045F000007AF5EEC07AF1EE10FA34DD454ADFEDCF
:10460000476A136883EA433383EA534383EA4313D5
:1046100007EE103AB8EE477A27EE267AF4EEC77A1C
:10462000F1EE10FA40F3C38083EA4333296883EA4A
:10463000534383EA431307EE903A13603B4AF8EE84
:10464000677A3B4B02FB01333A4A67EEA67AB2EB3C
:10465000F30FFDEEE77A17EE901A4FEA8101C4F8E6
:10466000641580F0C78004F29453D3ED007AF5EE20
:10467000C07AF1EE10FA34DD264ADFED286A1368BD
:1046800083EA433383EA534383EA431307EE103A42
:10469000B8EE477A27EE267AF4EEC77AF1EE10FAF2
:1046A00040F3838083EA4333296883EA534383EAF0
:1046B000431307EE903A13601C4AF8EE677A1C4BDE
:1046C00002FB01331B4A67EEA67AB2EBF30FFDEE55
:1046D000E77A17EE901A4FEA8101C4F8601580F06E
:1046E0008D8004F2845393ED007AB5EEC07AF1EE3A
:1046F00010FA54DD074AF7EE007A37EE076A9FEDAD
:10470000075A136877EEC75A83EA433318E000BFAD
:10471000144607240C460724ABAAAA3C0000802FAD
:10472000010040420000C84200803B45917EFB3AB8
:10473000C06D3400701B0D00000000300000000050
:1047400037EE277A83EA534383EA431307EE903A1E
:104750001360D4F87035F8EE676AF0EE657A66EEAD
:10476000856A26EE266AE6EE867AC7FEA57AC7FE39
:10477000C77AFCEEE77A17EE901A03FB01F179B1E4
:1047800014293FD914231946C4F8703528681F4CE2
:104790001F4B204A04FB0033B2EBF30F0DD238BDA0
:1047A00001231946C4F87035F0E7136099E71360E8
:1047B00059E700231A462B60FDE51748BDE838404D
:1047C00002F0BABF154802F0B7FF47E6144802F0FE
:1047D000B3FF86E6B7EEE77A124853EC172B02F0E8
:1047E000ABFFBCE6B7EEE77A0F4853EC172B02F0AD
:1047F000A3FFFAE60D4802F09FFF34E70C4802F0F1
:104800009BFF6EE7C4F87015C0E700BF917EFB3ACE
:10481000C06D3400701B0D00B80F0690480F069055
:104820005C0F0690740F0690880F0690140F069088
:10483000A00F069038B50022054600F1100400F5DF
:10484000AC6103E001324434A14238D094F83830EE
:10485000002BF7D1D5F870359342F4D92846FFF7ED
:104860009FFD05F27452D5F86C3505F5AF60D2EDB9
:10487000007AA268D5F868159342006820D207EE46
:10488000101A0122A362F8EE476A236A84F83820DE
:10489000A261012B87EEA67A4FF00002E16263610C
:1048A000E26084ED047A05D14FF07E534FF0FF3281
:1048B000E360A2610023C4ED0C7A6062237738BD07
:1048C0009B1ADCE700000000002B00F030812DE98E
:1048D000F04F9B46814600F154030F4616464FF0B9
:1048E000000800F2A4552DED048B83B001939FEDD9
:1048F000929A4846019C4FF0000AF0EE499AFFF761
:1049000099FF02E04434A5422ED014F80C3C002B51
:10491000F8D014F8283CFBB954ED0B7A54F8303C2D
:10492000F8EEE77A14ED0E7A54ED0D6A022BA6EE3E
:10493000A77A00F0D880032B29D0012B00F0C38088
:10494000F7EE007AB4EEE77AF1EE10FA2FDD0123EC
:1049500044ED0E7A04F8283C002304F80C3C44345F
:104960000AF1010AA542D0D1BAF1000F00F0CF80C0
:10497000C7ED009A86ED009A08F101080437043665
:10498000C345B4D103B0BDEC048BBDE8F08FF7EEA6
:10499000007AB4EEE77AF1EE10FA40F3BC80F0EE64
:1049A000007A4FF0FF3344F82C3C37EEC77A54EDD1
:1049B000067A54ED056AF8EE677A54F81C3C54F810
:1049C0003C2C04ED0E7A67EEA67A511E67EE877ACC
:1049D000FCEEE77A17EE900A1844884203D3B0FB46
:1049E000F2F302FB1300DFED557A54F8103C54E962
:1049F000111231F9101032F9102008EE101A08EED9
:104A0000902AB8EEC88AF8EEE88A28EE278A68EE7F
:104A1000A78A042B43D8DFE803F0281542310300AE
:104A2000B7EEC77A9FED420B27EE000B17F080F927
:104A3000B7EE007BB6EE006B37EE407B27EE067BD1
:104A4000B7EEC77B28EE078A68EE878AF7EE007A12
:104A500014ED087AF1EEC76A77EEC77AB1EEE77A1D
:104A6000A6EEA89AE7EE089A79E7F7EE007A37EE15
:104A7000C77A28EE078A68EE878AE7E7B0EE006A11
:104A8000FFEE007AF7EE006AE7EE067AF0EEE77ADC
:104A900076EEE77A28EE278A68EEA78AD6E754ED05
:104AA000027AB4EEE77AF1EE10FACFD937EEC77A90
:104AB00054ED016AF7EE007AE7EE267A28EE278AAF
:104AC00068EEA78AC2E7B5EEC07A4FF0FF32002148
:104AD00044F82C2CF1EE10FA7FF569AF04F8283C6D
:104AE00044F8381C38E7F7EE007AB4EEE77AF1EED6
:104AF00010FAC8BF37EE677AB5EEC07AF1EE10FA59
:104B00007FF555AFF7EE007A37EE277A4FE70023AF
:104B10003B60336030E7B5EEC07AF1EE10FA7FF516
:104B200046AF0123B1EE477A44F82C3C3FE770478B
:104B3000182D4454FB2119400000000000000038EB
:104B400070B59FED117B84B000F10C0544F6206335
:104B5000012604466946284602938DF80C608DEDC7
:104B6000007B04F051FFC721284604F0D1FF224604
:104B700007492846267504F0D1FF0023636004B07E
:104B800070BD00BFAFF30080030000000000000014
:104B9000A14E04904160704710B50523044682B0D1
:104BA0009FED181A9FED180A0C3063608DED011A05
:104BB0008DED000A04F0A2FF9DED011A2068F0EED1
:104BC000410A9DED000AD83002F03CFE206801F059
:104BD0006FF80A2006F072F89DED011A2068F0EED9
:104BE000410A9DED000A00F5967002F02BFE206848
:104BF00001F05EF80A2006F061F80123E37502B0C7
:104C000010BD00BF0000000000007F43012070477E
:104C100000EB810191ED0A0A704700BF00EB8101B2
:104C200091ED110A704700BF036893F8440000B18A
:104C3000586E7047036893F84C0030B193F85200F7
:104C4000A0F18000B0FA80F04009704710B5046808
:104C500094F85230FF2B01D0002010BD06F02CF844
:104C600007EE900AD4ED156AF8EE677A9FED057AA3
:104C700077EEE67AF4EEC77AF1EE10FACCBF0120B7
:104C8000002010BD00007A4438B52DED048B08EEED
:104C9000101A08EE902A09EE103A9DF82050B8EE4E
:104CA000C88A0446F8EEE88A0068B8EEC99AB0EE01
:104CB000480AF0EE680AB0EE491A002D58D0D830F4
:104CC00002F0C0FD206800F0F3FF0A2005F0F6FFB7
:104CD000642005F0F3FF9FED511A2068F0EE410AC1
:104CE000B0EE410AD83002F0ADFD206800F0E0FFE0
:104CF0000A2005F0E3FF642005F0E0FF2068B0EE35
:104D0000491AF0EE680AD830B0EE480A02F09AFD6F
:104D1000206800F0CDFF0A2005F0D0FF642005F0E8
:104D2000CDFF9FED3E1A2068F0EE410AB0EE410A39
:104D3000D83002F087FD206800F0BAFF0A2005F0A5
:104D4000BDFF642005F0BAFF2068B0EE491AF0EE0E
:104D5000680AD830B0EE480A02F074FD206800F00E
:104D6000A7FF0A20BDEC048BBDE8384005F0A6BFC4
:104D700000F5967002F066FD206800F099FF0A20A9
:104D800005F09CFF642005F099FF9FED241A206830
:104D9000F0EE410AB0EE410A00F5967002F052FDC5
:104DA000206800F085FF0A2005F088FF642005F0E8
:104DB00085FF2068B0EE491AF0EE680A00F596709B
:104DC000B0EE480A02F03EFD206800F071FF0A20B4
:104DD00005F074FF642005F071FF9FED101A206844
:104DE000F0EE410AB0EE410A00F5967002F02AFD9D
:104DF000206800F05DFF0A2005F060FF642005F0E8
:104E00005DFF2068B0EE491AF0EE680A00F5967072
:104E1000B0EE480A02F016FDA0E700BF0000000057
:104E20004368032B00D07047836830B5044683B0D5
:104E3000062B0CD8DFE803F01D150D0B0B0B04003F
:104E40000125FF23002219460095FFF71DFF03B03F
:104E500030BD01250022FF2311460095FFF714FF06
:104E6000F5E701251F235B22FF210095FFF70CFFCB
:104E7000EDE79FED091A0068B0EE410ADFED070A81
:104E8000D83002F0DFFC206800F012FF0A2003B0E7
:104E9000BDE8304005F012BF0000000000007F4375
:104EA000027D10B50446437D8AB10533DBB2F92B90
:104EB00040F285804FF47F42FF2382826268013A8C
:104EC000042A7ED8DFE802F00F355A224800053B5D
:104ED000DBB2052B4375F1D8817D012013460A18FA
:104EE000A082A275EAE707EE903ADFED360A206865
:104EF000B8EEE71AB0EE600AD83002F0A3FC2068E2
:104F000000F0D6FE0A2005F0D9FE637D07EE903A48
:104F10002068B8EEE71AD830F0EE410AB0EE410A48
:104F200002F090FC206800F0C3FE0A2005F0C6FEE7
:104F3000637D07EE903A20689FED220AB8EEE71AEB
:104F4000D830F0EE410A02F07DFC206800F0B0FE9F
:104F50000A2005F0B3FE637D9FED1A1A07EE903A22
:104F60002068B8EEE70AF0EE410AD83002F06AFC99
:104F7000206800F09DFE0A2005F0A0FEA37D022B14
:104F800014D8637D9FED0F1A00EE903A2068B0EEC2
:104F9000410AF8EEE00AD83002F054FC206800F034
:104FA00087FE0A20BDE8104005F088BE04F10C0021
:104FB00004F0A4FD2046BDE81040FFF731BF437563
:104FC0007CE710BD000000004368052B16D8DFE821
:104FD00003F006090C0F12030A4802F0ADBB0A48A1
:104FE00002F0AABB094802F0A7BB094802F0A4BB23
:104FF000084802F0A1BB084802F09EBB074802F037
:105000009BBB00BF941106901811069030110690BA
:10501000641106907C1106904C110690A811069020
:105020008368082B21D8DFE803F0080B0E11141752
:105030001A1D05000D4802F07FBB0D4802F07CBB35
:105040000C4802F079BB0C4802F076BB0B4802F02A
:1050500073BB0B4802F070BB0A4802F06DBB0A48F4
:1050600002F06ABB094802F067BB7047FC1006906B
:10507000EC0F0690381006908C10069010100690D9
:1050800060100690B4100690CC0F0690E0100690C9
:1050900038B50546006800F0FBFD2C6894F8B43084
:1050A000002B60D094F8BA30802B5CD16B68002B59
:1050B00000F0D880032B00F0C08094F8C430002B9F
:1050C00059D094F8CA30802B51D16B68032B00F073
:1050D000D58094F8BA30FF2B51D105F0EDFD07EEE5
:1050E000900AD4ED2F6AF8EE677A9FED997A77EE01
:1050F000E67AF4EEC77AF1EE10FA02DD6B68032B64
:105100007FD02C6894F8CA30FF2B38D105F0D4FD3D
:1051100007EE900AD4ED336AF8EE677A9FED8C7A49
:1051200077EEE67AF4EEC77AF1EE10FA02DD6B68FC
:10513000032B58D02C6894F84C3023BB94F8523091
:10514000FF2B2CD094F8443033B1636E002B03DD79
:105150006B680BB901236B6038BD0023AB60284638
:10516000FFF75EFF2C6894F8C430002BA9D194F8A7
:10517000BA30FF2BB1D094F8CA30FF2BC6D094F8C8
:105180004C30002BDAD094F85230802BD8D16B6899
:10519000022B23DC002BD5DD03236B60D2E705F067
:1051A0008BFD07EE900AD4ED156AF8EE677A9FED55
:1051B000687A77EEE67AF4EEC77AF1EE10FA0BDD54
:1051C0006B68022B06DD033B012B05D801232C68FD
:1051D0006B60B7E7002B2CDC2C68B3E7042BB1D154
:1051E00003236B60AEE7AB68082B4FD008222B611E
:1051F000AA60DFED580A2868B0EE600A9FED561AE3
:105200004FE0AB68072B5BD007222B61AA609FEDB4
:10521000511A2868F0EE410A9FED4F0A00F596708A
:1052200002F010FB286800F043FD0A2005F046FD5F
:1052300067E704232C686B6084E7AB68062B8ED885
:1052400001A252F823F000BFE5520490DF5204900F
:10525000EB5204905F5104905F5104905F510490B1
:105260005B510490012294F8C4306A60002B82D014
:1052700094F8CA30802B7FF47AAF2AE7AB68052B0D
:1052800061D8DFE803F05D5A4F4C49352B69072B95
:10529000AB6011D19FED2F1A2868F0EE410A9FED07
:1052A0002E0A00F5967002F0CDFA286800F000FD95
:1052B0000A2005F003FD3DE7082B7FF43BAF98E79C
:1052C0002B69072BAB60A2D0082B7FF41AAFDFED60
:1052D000210A2868B0EE600A9FED1F1A9EE702239C
:1052E000AB603CE70123AB6039E70623AB6036E7F0
:1052F0000223AB609FED181A04F59670DFED150AD6
:10530000B0EE410A02F09EFA286800F0D1FC0A20B3
:1053100005F0D4FC2C682AE70123AB60EAE7002300
:10532000AB60E7E70523AB609FED0B1A04F59670C1
:105330009FED080AF0EE410AE4E70423AB60F3E7CF
:105340000323AB60F0E7062B7FF4C3AED2E700BFC8
:1053500000007A4400007F430000000038B5C37DA0
:105360002DED028B53B943680446032B09D0204628
:10537000BDEC028BBDE83840FFF78ABEBDEC028B66
:1053800038BD0068A568683002F09EF8DFED207A2D
:10539000B4EEE70AF1EE10FA34D99FED1E7AF7EE7B
:1053A000007AB4EE470AF1EE10FA27FE808A2068F0
:1053B000883002F089F8DFED167AB4EEE70AF1EEF4
:1053C00010FA22D99FED137AF7EE007AB4EE470A6D
:1053D000F1EE10FA27FE800A63191A7E0AB901223B
:1053E0001A7604EB850585ED0A8ADA7F0AB901226F
:1053F000DA77204685ED110ABDEC028BBDE8384016
:10540000FFF746BE9FED048AD1E79FED030AE3E76D
:105410000AD7233CA4707D3F0000000038B500F59A
:10542000C264054600682DED028B00F02BFC20467F
:1054300016F038F8DFED1A8A1A4A94ED0E8A1A4BE4
:10544000226028EEC80AA36016F0B2FCD4ED0D7AF3
:1054500084ED0A0A28EEE70A16F0AAFCF7EE007AB5
:105460009FED127AF2EE046A114B77EEC07A84ED6A
:10547000080AE36026EEC80A67EE877AC4ED097A67
:1054800016F096FC0B494FF08143012284ED0B0A84
:10549000616085F84C262361BDEC028B38BD00BFEE
:1054A0000000C842000040400AD7233CAAAA2ABFF5
:1054B000CDCCCC3D000040C170B50B4600F5C224F8
:1054C00005460421C4F8E831006805F2A456C4F882
:1054D000EC2100F0ABFB0321286800F0BDFB2C4859
:1054E00002F02AF93046FFF72BFB2A4802F024F994
:1054F000D5F89C05D4E97A12FEF76AFED5F89C052A
:10550000FEF7BEFBC8B3D5F89C05FEF7DDFBA0B3E4
:105510002846FFF783FF4FF07C530020C4F83C324D
:10552000C4F85832C4F84032C4F85C32C4F844328B
:10553000C4F86032C4F84832C4F86432C4F84C325B
:10554000C4F86832C4F85032C4F86C32C4F854322B
:10555000C4F8703218F0CCFF0F4B024628681A606E
:1055600000F092FB0D49286800F05EFB0C4802F049
:10557000E3F8012385F80C3670BD3046FFF70CFBCD
:105580003046FFF709FB0748BDE8704002F0D4B889
:10559000F4110690041206900C4607244956049014
:1055A0000C1206901C1206902DE9F047914684B02B
:1055B000884682464B4602AF0430D1E90012FFF71D
:1055C00083F9D8F800300AF5C260CDF800901A4689
:1055D0001946786016F002F8D8F8043078681A4650
:1055E0001946CDF8009015F0F9FF4FEA890307330B
:1055F00023F00703ADEB030D02AEADEB030DB9F1E4
:10560000000F1DD002AD0AF5CA6A002431460436E7
:105610002A460435D8E9003003EB840300EB840C00
:105620000134D3F800E0504646F804ECDCF800E022
:1056300045F804ECCDF800C016F0E6F8A145E5D138
:105640000837BD46BDE8F0872DE9F043394C83B0FB
:105650002668D6F8A845032C56D0042C134619D03A
:10566000022C4ED0002A4CD09200D1E9004004EB2D
:105670008303984202D281188C424BD300210192BD
:1056800018F08EF9019A0021204603B0BDE8F043DE
:1056900018F086B9AAB306F5C226DFF89CC0D0E997
:1056A0000040D6E97A7604EB8202DCF80030D1E9DA
:1056B00000E52168DFF884904EF8041B0168DFF8EC
:1056C000808045F8041BB4EC017AF0EC017ABDEE61
:1056D000C77A9442FDEEE77A17EE101A27F81310F6
:1056E00017EE901A26F8131003F101014FEA512327
:1056F000A9FB03934FEA930308FB1313D9D1CCF80A
:10570000003003B0BDE8F083304603B0BDE8F0439D
:10571000FFF74ABF002340F8043B884244F8043BAB
:10572000EFD0002340F8043B884244F8043BF1D119
:10573000E7E700BF184607241C460724779A2E0087
:1057400000F22B00F8B5D0F804360546012B02D044
:10575000344801F0F1FF05F2A4560FE01818324A60
:1057600001442A44104618F0A4FE214602462F4860
:1057700001F0E2FF3046FFF75DFA80BB286800F0D9
:1057800087FA3046FFF762FA03463046EBB9FFF777
:105790004BFA05F5C2220028ECD0D5F89C1500275D
:1057A000D2F8F041B1F81AC804194FF0180048BFF8
:1057B0000CF1FF34A3B2A445C2F8F0414FEA8313C1
:1057C000CCDC3C46C2F8F071C9E7194801F0B4FFDF
:1057D00004220123C5F8082685F80C36F8BD1548C3
:1057E00001F0AAFF05F5C223D5F89C05B3F8F01126
:1057F000FEF768FC58B10C490F48294401F09CFFA2
:1058000002220123C5F8082685F80C36F8BD0B489E
:1058100001F092FF05220123C5F8082685F80C3611
:10582000F8BD00BF30120690F41106006C1206900D
:105830004C120690881206909C120690AC120690AC
:1058400008291AD8DFE801F01A1D2031363B404301
:105850000500B3EE047A9FED206A20EE000A00F501
:10586000C220DFED1E6AF0EE477AE0EE067AC7FE50
:10587000877AC7FEE67AC0ED677A70470430FEF794
:1058800019BD0430FEF770BDF1EE007A9FED147A79
:10589000043020EE270A80FE070A80FE670AFDEE2C
:1058A000C07A17EE901AFEF7EFBC00F5B06080EDFD
:1058B000000A704700F28C5080ED000A704700F536
:1058C000B36080ED000A70470430FEF7E5BC00F5D8
:1058D000CA6080ED000A704700A09B4500409C45CF
:1058E0000000000010B504462DED028BB0EE408A9A
:1058F00082B0082913D8DFE801F0055E60767E16D5
:105900000E1E360004300190FEF7FEFC0198B0EE4A
:10591000480AFEF709FD04F5B26484ED008A02B07E
:10592000BDEC028B10BD00F2945484ED000A02B06D
:10593000BDEC028B10BD9FED347A20EE008A9FED06
:10594000336A00F5CA64F0EE477ADFED316AE8EEBB
:10595000067AC7FE877AC7FEE67AC4ED017A02B0FE
:10596000BDEC028B10BDDFED2B6A20EE008A9FEDAF
:105970002A7A04F5C224F0EE667A9FED286A9FED3C
:10598000280AE8EE067AC7FEA67AC7FEC77AC7FEDF
:10599000C77A27EE800A16F0A7FAF7EE007A84EDB0
:1059A000760A70EE276A87EEA67A84ED777A02B0DF
:1059B000BDEC028B10BD0430A9E7F1EE007A9FED3B
:1059C000190A043028EE278A88FE008A88FE678A32
:1059D000FDEEC87A17EE901A02B0BDEC028BBDE85E
:1059E0001040FEF749BC00F2845484ED000A02B076
:1059F000BDEC028B10BD00F5B16484ED000A02B06D
:105A0000BDEC028B10BD00BF0000C84200789B4671
:105A100000409C466F12833AC976FE3EB7F3FD3EC6
:105A2000DB0F4940000000002DE9F041044600F280
:105A3000A45500F5C226071D2DED028B82B005E0AE
:105A4000002386F87432012005F038F92846FFF764
:105A500085FCD4F8A835D4F804269A4207D0012250
:105A60006848C4F8083684F80C2601F065FE94F8FE
:105A70000C3683B9D4F80436032B3AD02846FFF706
:105A8000C5F80028DFD096F87432002BD8D1012356
:105A900086F87432D7E75C4801F04EFED4F8081659
:105AA0002846C4F80416FFF775F8D4F80436013B0D
:105AB000032B14D8DFE803F07F5294024FF080727A
:105AC0000021D6F8E80117F06BFF4FF0807200213B
:105AD000D6F8EC0117F064FF4C4801F02DFE0023CE
