:020000040800F2
:100000000000022099060008950600084D9200089D
:1000100095060008950600089506000800000000F7
:10002000000000000000000000000000950600082D
:10003000950600080000000095060008D191000810
:100040009506000895060008950600089506000824
:100050009506000895060008950600089506000814
:10006000950600089506000895060008D97800084E
:10007000E578000839660008F1780008FD78000886
:100080004D8C0008056E00089506000895060008CE
:1000900095060008950600089506000895060008D4
:1000A00095060008950600089506000895060008C4
:1000B000798000088580000891800008396E00086A
:1000C00095060008456E000895060008F58C0108A5
:1000D000018D0108818A0008AD8A0008E18A0008C4
:1000E0009506000895060008000000009506000827
:1000F0009506000895060008950600089506000874
:1001000095060008497E00089D8000080D8D0108B5
:10011000158B0008498B0008950600089506000815
:100120009506000895060008318D0108658D0108C7
:10013000818C0008950600089506000895060008C1
:1001400000000000000000000000000000000000AF
:100150009506000895060008950600087D8B0008A6
:10016000516E000895060008E1910008059200080C
:1001700095060008299200089506000895060008D3
:100180009506000895060008B18B0008E58B00086D
:10019000198D0108258D01089506000895060008AF
:1001A00095060008950600089506000895060008C3
:1001B000F9750008950600089506000895060008E0
:1001C0009506000895060008F9600008056100081A
:1001D00095060008116100089506000895060008BC
:1001E0009506000895060008950600089506000883
:1001F0009506000895060008950600089506000873
:100200009506000895060008950600089506000862
:100210009506000895060008950600089506000852
:1002200095060008950600089506000800000000E5
:1002300095060008950600080000000095060008D5
:100240009506000895060008950600089506000822
:100250009506000895060008950600089506000812
:100260009506000895060008950600089506000802
:100270009506000895060008198C0008000000008B
:100280009506000895060008950600080000000085
:080290000000000095060008C3
:1002A00010B5054C237833B9044B13B10448AFF3B0
:1002B00000800123237010BD980700240000000077
:1002C000F0F2010808B5034B1BB103490348AFF333
:1002D000008008BD000000009C070024F0F2010827
:1002E000034613F8012B002AFBD1181A0138704776
:1002F00001F0FF01102A2BDB10F0070F08D010F8D7
:10030000013B013A8B422DD010F0070F42B3F6D1DA
:10031000F0B441EA012141EA014122F007047FF0F3
:1003200000070023F0E80256083C85EA010586EA4A
:10033000010685FA47F5A3FA87F586FA47F6A5FA86
:1003400087F68EB9EED1F0BC01F0FF0102F0070292
:1003500032B110F8013B013A83EA010313B1F8D13D
:100360000020704701387047002D06BF354603381E
:10037000073815F0010F07D1013015F4807F02BF57
:10038000013015F4C03F0130F0BC0138704700BFA8
:1003900053B94AB9002908BF00281CBF4FF0FF31EC
:1003A0004FF0FF3000F074B9ADF1080C6DE904CEE8
:1003B00000F006F8DDF804E0DDE9022304B0704740
:1003C0002DE9F047089D04468E46002B4DD18A4208
:1003D000944669D9B2FA82F252B101FA02F3C2F13B
:1003E000200120FA01F10CFA02FC41EA030E9440CC
:1003F0004FEA1C48210CBEFBF8F61FFA8CF708FBED
:1004000016E341EA034306FB07F199420AD91CEBC4
:10041000030306F1FF3080F01F81994240F21C81F6
:10042000023E63445B1AA4B2B3FBF8F008FB10333E
:1004300044EA034400FB07F7A7420AD91CEB040473
:1004400000F1FF3380F00A81A74240F20781644443
:10045000023840EA0640E41B00261DB1D4400023C8
:10046000C5E900433146BDE8F0878B4209D9002D2C
:1004700000F0EF800026C5E9000130463146BDE8B6
:10048000F087B3FA83F6002E4AD18B4202D3824220
:1004900000F2F980841A61EB030301209E46002DCF
:1004A000E0D0C5E9004EDDE702B9FFDEB2FA82F224
:1004B000002A40F09280A1EB0C014FEA1C471FFA82
:1004C0008CFE0126200CB1FBF7F307FB131140EA69
:1004D00001410EFB03F0884208D91CEB010103F136
:1004E000FF3802D2884200F2CB804346091AA4B2F8
:1004F000B1FBF7F007FB101144EA01440EFB00FECC
:10050000A64508D91CEB040400F1FF3102D2A64530
:1005100000F2BB800846A4EB0E0440EA03409CE7CF
:10052000C6F12007B34022FA07FC4CEA030C20FA7C
:1005300007F401FA06F31C43F9404FEA1C4900FA9C
:1005400006F3B1FBF9F8200C1FFA8CFE09FB181119
:1005500040EA014108FB0EF0884202FA06F20BD98C
:100560001CEB010108F1FF3A80F08880884240F2DC
:100570008580A8F102086144091AA4B2B1FBF9F020
:1005800009FB101144EA014100FB0EFE8E4508D91B
:100590001CEB010100F1FF346CD28E456AD90238A0
:1005A000614440EA0840A0FB0294A1EB0E01A14285
:1005B000C846A64656D353D05DB1B3EB080261EBF3
:1005C0000E0101FA07F722FA06F3F1401F43C5E9CD
:1005D000007100263146BDE8F087C2F12003D84003
:1005E0000CFA02FC21FA03F3914001434FEA1C4745
:1005F0001FFA8CFEB3FBF7F007FB10360B0C43EA37
:10060000064300FB0EF69E4204FA02F408D91CEBE6
:10061000030300F1FF382FD29E422DD902386344E4
:100620009B1B89B2B3FBF7F607FB163341EA034184
:1006300006FB0EF38B4208D91CEB010106F1FF38D3
:1006400016D28B4214D9023E6144C91A46EA0046CA
:1006500038E72E46284605E70646E3E61846F8E65C
:100660004B45A9D2B9EB020864EB0C0E0138A3E7A5
:100670004646EAE7204694E74046D1E7D0467BE786
:10068000023B614432E7304609E76444023842E7FE
:10069000704700BFFEE700BF0B480C4A904203D0F2
:1006A000121A0B491AF0F6FD0A480B4A904203D081
:1006B000121A00211AF0FCFD09F020F81AF0B6FD1C
:1006C00002F0B2FDFEE700BF0000002498070024FE
:1006D00028F301089807002490130124034B03EB2F
:1006E000800203445268187B53681847C4090024E9
:1006F000074B1A5C52B903EB800219184FF0010C3A
:10070000526803F800C0087B136818470020704740
:10071000C409002430B4054C04EB800504446D6822
:10072000207BAC68A44630BC604700BFC4090024ED
:1007300030B4054C04EB800504446D68207BEC6804
:10074000A44630BC604700BFC4090024044B03EB3F
:10075000000C03EB80035B689CF80C001B691847D6
:10076000C409002410B404689CB121788446224650
:100770003A2913D01F2911D912F8013F1F2B0ED986
:100780003A2BF9D10134A1F13000A24201D1012864
:100790000CD94FF0FF305DF8044B70470B463A2BF5
:1007A000F0D0044B18785DF8044B70470132CCF858
:1007B0000020F8E7B407002438B50D4640B10368BF
:1007C00004462BB11A781AB18088DA88904203D097
:1007D000092000232B6038BD5878FFF77FFF10F009
:1007E0000100F5D12368F5E72DE9F0410026D0F8A6
:1007F00000808E758369002B5AD0C36A07460D4668
:1008000001331ED0D8F80C301888002861D001F1CF
:100810001506012400E01C46002101F0D5FF631CF1
:10082000002856D0B4F5807F53D006F8010FD8F8D1
:100830000C2032F814000028EDD12C440023A375BD
:10084000AE7DD7F81CC000204FF02E080CF1FF3110
:10085000024611F8013F0132202B18D0052B08BFAA
:10086000E523092A26D02C1863727EB9A3F141072B
:10087000192F0AD8082A9CF80CE08CBF10270827EB
:100880001EEA070F01D02033DBB2A37501300B2A1B
:10089000DFD12C18B6B1002363729CF80B302B7299
:1008A000DCF81C302B60DCF816301A0CEB80AA80C8
:1008B000BDE8F0812C180EB984F81680013084F858
:1008C0000980D0E7A6759CF80C30002B08BF2C4699
:1008D000E1E7002400232C44A375AE7DB1E700BFFF
:1008E0002DE9F041456B00F13808044601232A4602
:1008F00041464078FFF71CFFC0B9A26A0746236A49
:10090000AA1AE0709A420ED2A678012E01D80AE007
:10091000236A1D44013E012341462A466078FFF7C1
:1009200007FF012EF4D13846BDE8F0810127384693
:10093000BDE8F08170B5C37804465BB92378032B1A
:100940000FD0002260781146FFF700FF003818BF73
:10095000012070BDFFF7C4FF0028FAD12378032BD4
:10096000EFD12579012DECD104F138064FF4007256
:10097000002130461AF09CFC55233146722684F83B
:1009800036322B466569612084F81C62522284F855
:100990001D622E0A84F83A0084F81F0284F820525F
:1009A000206984F821622E0C2D0E84F8382084F8FA
:1009B0003920412284F82352050A84F83B2084F828
:1009C0001E2284F82402626A84F82552050C000E67
:1009D000013284F8226284F82702AA20626384F834
:1009E000370284F826526078FFF7A2FE00232371B5
:1009F000A7E700BF38B5C37804460D4663B90123A5
:100A00002A4604F138016078FFF784FE10B1012016
:100A10004FF0FF35656338BDFFF762FF0028EED069
:100A200038BD00BF70B54FF0FF3600230446B14219
:100A3000C37046630CD00D460A46012300F138010D
:100A40004078FFF767FE10B10420666370BD6563F0
:100A50004AF65523B4F836229A421AD194F838301F
:100A6000E92B07D0A36B0D4A03F0FF13934201D08B
:100A7000022070BDD4F86E30094A23F07F439342C0
:100A800009D0D4F88A00074B984214BF02200020F6
:100A900070BD032070BD002070BD00BFEB00900052
:100AA00046415400464154330023F0B50B6085B0F5
:100AB0000E461446FFF756FE051EC0F2BC808C4B56
:100AC00053F82570002F00F0C380376004F0FE0457
:100AD0003B787BB17878FFF701FEC6070AD4002C7B
:100AE00000F0A28010F0040400F09E800A2420464A
:100AF00005B0F0BDE8B2002378703B70FFF7F8FD59
:100B0000C50700F194800CB14407EFD400213846AA
:100B1000FFF788FF02286DD0042800F0908001289C
:100B200000F281800025B7F84330B3F5007F7AD119
:100B3000B7F84E2002B9FA6D97F848303A62591E5C
:100B4000BB7001296FD897F8451088B278810028CA
:100B500069D0481E084266D1B7F8496030073E8127
:100B600061D1B7F84B0000B9B86DB7F846E0BEF1F7
:100B7000000F58D002FB03F30EEB16141C44A042E6
:100B800051D3001B8842B0FBF1FC4CD34FF6F571FA
:100B90008C455FD840F6F5710EEB05002C447D6264
:100BA0008C450CF102013C63F961B86273D8002EE8
:100BB00039D0034401EB410001F00101FB6201EB7C
:100BC0005001012001F2FF11B2EB512F2BD34FF056
:100BD000FF338022C7E904333A71464A0021464C6C
:100BE0001388FC600C4601333870B9619BB21380E6
:100BF000FB8019E06C4607F5FB7307F236252046AB
:100C00001A79114602B19968103340F8041B9D42CD
:100C1000F6D104F1100654F8045B03208DB9B442F8
:100C2000F9D104280BD00D24204605B0F0BD0324D3
:100C3000204605B0F0BD0B24204605B0F0BD0124D0
:100C4000F2E729463846FFF7EDFE0128E7D86AE7C4
:100C50000C24E9E70EEB05010CF102032C447D6244
:100C6000B962B7F862103C633143FB61DBD19B0092
:100C7000796E03F2FF13F962B2EB532FD3D3B7F8B7
:100C800068204FF0FF338021012A3971C7E904330E
:100C900008D00320A1E7002EC5D00344490002205C
:100CA000FB628FE7691C7B6B994204D03846FFF7E3
:100CB000A1FE0028EDD14AF65523B7F836220021CF
:100CC0009A423971E5D1BA6B0C4B9A42E1D103F1EA
:100CD000FF53D7F81C2203F5005320339A42D8D192
:100CE000D7F820220320D7F82432C7E9043274E76A
:100CF000B8070024C0070024C407002452526141F1
:100D00002DE9F843037804460D461646022B06D01B
:100D1000032B6AD0012B27D00220BDE8F883876A15
:100D2000436B07EB11279F4200F09080C378002BA4
:100D300040F0B68004F1380801233A466078414615
:100D4000FFF7E8FC00284AD167636D00C6F307226D
:100D50000123002005F4FF7508EB050108F8056084
:100D60004A70E370BDE8F88301EB5107826A436B78
:100D700002EB5728984563D0C378002B40F08A8057
:100D800004F138090123424660784946FFF7C2FC66
:100D900028BBC4F8348015F0010507F10108C7F33A
:100DA00008075ED019F8073003F00F0343EA061373
:100DB00009F807300123A76AE37007EB5827636B34
:100DC0009F4278D02046FFF78BFD0028A5D1012354
:100DD0003A4649466078FFF79DFC002839D04FF02D
:100DE000FF3301206363BDE8F883826A436B02EB43
:100DF000D118984527D0C378002B57D104F1380774
:100E00000123424660783946FFF784FC0028E6D18A
:100E1000C4F83480AD0026F0704205F4FE757B59AD
:100E2000791903F070431A43130C7A55100A8B702A
:100E3000120E01234870CA700020E370BDE8F883E9
:100E400000F13809A7E700F13807E3E700F13808B7
:100E50007BE7C8F30801676349447DB1C6F3071215
:100E600012E009F807600123A76AE37007EB58272F
:100E7000636B9F42A6D1C8F3080149440B78C6F3BF
:100E8000032223F00F06324301230A700020E3708F
:100E9000BDE8F883FFF724FD00283FF471AF3CE77D
:100EA000FFF71EFD00283FF445AF36E7FFF718FDBA
:100EB0000028A3D031E7C8F3080309EB0301CDE70D
:100EC00001294CD9C36999422DE9F0410C460546E8
:100ED00002D30120BDE8F0810378022B5AD0032B06
:100EE0003FD0012BF5D101EB5106826A436B02EB37
:100EF00056279F420ED0C378002B79D101233A4662
:100F000005F138016878FFF705FC00285FD1AA6A6F
:100F10003B466F63771CC6F3080602EB57282E4446
:100F2000434596F838600DD0EB78002B65D101234E
:100F3000424605F138016878FFF7ECFB002846D1FE
:100F4000C5F83480C7F30807E3073D4495F8380037
:100F500046EA00204CBF0009C0F30B00BAE70120AD
:100F60007047866A436B06EBD1169E4229D0C37840
:100F700093BB05F138070123324668783946FFF7FD
:100F8000C9FB20BB6E63A40004F4FE74385920F042
:100F900070409FE7866A436B06EB11269E4213D092
:100FA000C37803BB05F13807012332466878394618
:100FB000FFF7B0FB58B96E63640004F4FF74385B4C
:100FC00088E700F13807DEE700F13807F4E74FF073
:100FD000FF3318466B637DE7FFF782FC0028C8D01B
:100FE0004FF0FF3076E7FFF77BFC0028DAD0F7E719
:100FF000FFF776FC002881D0F2E72846FFF770FC67
:10100000002894D0ECE700BF0129F8B50E4605682A
:101010002AD9EB698B4227D90746114632BB2846AD
:1010200014E0EB699E4226461ED2FFF769FEE0B946
:10103000EB696A69991E501C8A4204D22A79686158
:1010400042F001022A71A3421CD938683146FFF7E9
:1010500037FF04463146002228469CB1012C03D0BC
:10106000631C11D0012EDCD80220F8BD9342FBD9BD
:10107000012AF9D04FF0FF322846FFF741FE002841
:10108000E3D0F8BD0020F8BD0120F8BD2DE9F04106
:1010900005460F46066800294BD1D6F81080F36943
:1010A000B8F1000F35D14FF00108444606E00128A1
:1010B0003AD0431C38D0444538D0F36901349C42BF
:1010C00004D3B8F1010F4FF002042FD02146286855
:1010D000FFF7F6FE0028EAD1012C24D9F3699C42DF
:1010E00021D24FF0FF3221463046FFF709FE00B90A
:1010F000A7B950BBF3697269023B34619A4201D8C7
:10110000013A72613379204643F001033371BDE83F
:10111000F081434598BF4FF00108C6E7012F02D088
:10112000F3699F4216D30120BDE8F0810020BDE89D
:10113000F0813046FFF7C4FE0128F4D9421C06D0E6
:10114000F3698342F0D8B846AFE70128EBD14FF0FE
:10115000FF30E9E7224639463046FFF7D1FDC8E7C0
:101160002DE9F04F056983B083692035B5F5001F7F
:101170003BD2002B39D0C5F3080804460768B8F104
:10118000000F08D007F13806464400202561E661CB
:1011900003B0BDE8F08F0E4601334169836141B36E
:1011A000B7F80A9009F1FF3919EA5529EAD138460A
:1011B000FFF786FE0128834623D9B0F1FF3F5DD0BB
:1011C000FA6982421FD9831E07F138060193023A59
:1011D0000199C4F814B08A4204D9B7F80A903B6B5D
:1011E00001FB0939C4F81890CEE7042003B0BDE82C
:1011F000F08F3B89B3EB551FC4D800230420A361B3
:10120000C6E70220C4E7002EF7D061692046FFF749
:101210003DFF8346002839D00128F2D0B0F1FF3FCE
:101220002CD0FA78002A33D107F13806ABF102034B
:101230004FF400720021304601931AF039F8F86932
:10124000019B821E934229D279893A6B019B03FB51
:1012500001227A6329B34FF0000A05E07A6B78899E
:10126000013250457A630BD94FF0010338460AF139
:10127000010AFB70FFF734FB0028EFD0012087E75D
:10128000F869A2EB0A027A630246A0E707207FE72B
:101290003846FFF725FB0028C6D0EFE77989002202
:1012A000D7E78A46EDE700BF2DE9F04704464FF047
:1012B000FF08042025684646D4F8189005F1380741
:1012C000B9F1000F32D06B6B4B4513D0EB78002B8C
:1012D00064D101234A4639466878FFF71BFA38B1D2
:1012E0004FF0FF3301206B630023A361BDE8F0875B
:1012F000C5F83490E1690A78002A58D0CB7AE52AFB
:1013000003F03F03A37105D02E2A03D023F0200061
:10131000082810D1FF2600212046FFF721FF0028D2
:10132000E2D1D4F81890B9F1000FCCD10028DBD16C
:101330000020BDE8F0870F2B46D1500634D5236935
:1013400002F0BF0691F80D80E3624B7B4345E1D18B
:101350004B8B002BDED10B780122DFF894E04FF6A7
:10136000FF7A23F04003D5F80C900EF10C0C013BF2
:1013700003EB430003EB8003104609E0FE2B10460D
:10138000C8D829F813200133E64512D01EF8012FE2
:101390008A5A0028F2D15245F6D0BBE72846FFF71B
:1013A0009FFA002895D09FE7B242B3D1CDE7042041
:1013B0009AE70A78520604D5FE2BABD8002229F80A
:1013C0001320013EF6B2A6E76EB901F10B02F3015C
:1013D00043EA560611F8013B53FA86F69142F6B2FB
:1013E000F5D14645A4D04FF0FF330020E3627DE7FE
:1013F00068E20108B1F5001F42D2CA06F8B50D46F1
:1014000020D18168064607680561E9B17B89B5EBA3
:10141000432F4FEA432435D3384607E0012811D93A
:10142000FB6983420ED9AC422DD83068FFF748FDE6
:10143000431CA5EB04050146F0D10120F8BD0023B3
:10144000C6E905130220F8BD3B78022B13D83B896F
:10145000B3EB551FF6D9FA6AB2617161002AF1D077
:1014600007F13803C5F3080102EB552200200B44B5
:10147000C6E90623F8BDFB6A002BE8D01946C5E78C
:1014800002207047FB69023B881E9842D7D27B89B5
:101490003A6B00FB0322B261DFE700BF2DE9F04F9A
:1014A0000021054607682DED028B85B0FFF7A2FFEE
:1014B000C8B94FF0FF094FF0FF3307F13808CA46AB
:1014C000EB62AC697B6B9C4213D0FB78002B4FD155
:1014D0000123224641467878FFF71CF940B14FF0CE
:1014E000FF3301207B6305B0BDEC028BBDE8F08FBC
:1014F0007C63EC692678002E00F0AB80E27AE52E62
:1015000002F03F03AB7103D0100711D50F2B39D078
:101510004FF0FF334FF0FF0AEB6200212846FFF740
:101520001FFE0028CDD005B0BDEC028BBDE8F08FCA
:101530000F2B27D0BAF1000F77D095F82B0010F0C1
:101540000100E5D195F8201005F1210214F8013BC6
:1015500005F12B065B1A002BDAD112F8011B14F8E7
:10156000013BB242A3EB0103F5D1002BD0D1BAE786
:101570003846FFF7B5F90028AAD005B0BDEC028BBC
:10158000BDE8F08F95F82B305906C6D4720647D5C2
:101590002B6906F0BF0694F80D90EB62637B4B4518
:1015A00040D1638B002B3DD194F800A00123F96852
:1015B00008EE108A0AF03F0A029601950E460AF1DB
:1015C000FF3ADFF8C0B0184625460AEB4A020391FD
:1015D00000970AEB820A13E0BAF1FE0F204618D8F2
:1015E00001F012F9804636F81A00BA4601F00CF9FB
:1015F000804520460DD1224B9B452CD01BF8013F46
:101600000AF10107EC5A0028E6D14FF6FF739C421D
:10161000F1D0DDE9007518EE108A4FF0FF0A7CE783
:10162000B245BBD04FF0FF0A77E704F10B0022462A
:101630004FEACA1312F8011B43EA5A0A824251FACE
:101640008AFA5FFA8AFAF3D1D1457FF476AF0020A7
:1016500049E7042047E72C46009F029E18EE108AB7
:101660002378019D5B0600D520B906F1FF3A5FFAA9
:101670008AFA52E7039B33F81A30002BF5D0D1E7F2
:1016800074E2010868E201082DE9F04F0B7883B09D
:101690000E4607462F2BD0F800B037D05C2B37D042
:1016A000DBF81830836033781F2B3AD95A461F2B4A
:1016B000D56898B240F22181A5F10209B046012413
:1016C00008E029F8020F631C18F8010F1F2840F2E8
:1016D0001A811C462F2804F1FF3A2CD05C282AD00E
:1016E000B4F5807F0ED0012101F06EF850B17F2853
:1016F000E7D82223B14A03E012F8013F002BE0D0E3
:101700009842F9D1062003B0BDE8F08F16F8013FEA
:101710002F2BFBD05C2BF9D00023BB6033781F2B21
:10172000C4D880230021384687F82B3003B0BDE8A9
:10173000F04FFFF75FBE335D32195C2B02D02F2BC9
:1017400040F05C81631C33441E4613F8012B2F2AA2
:10175000FAD05C2AF8D0BAF1010F4FF0000800F07F
:10176000DA80BAF1020F40F0DC806B882E2B00F09B
:101770001381934A05EB420205E0BAF1010A00F039
:10178000BC8032F8023D202BF7D02E2BF5D04FF045
:101790002033002225F81A207B623B62C7F82730ED
:1017A0002888202802D02E2840F0FC802A460023DA
:1017B00032F8020F1C4601332028F9D02E28F7D02A
:1017C00048F00308023405EB4A0333F8022D2E2AB1
:1017D00002D0BAF1010AF8D190B300230822BC4626
:1017E000314699461F462E465B461546E3460A4655
:1017F000202803D02E283AD1544538D048F0030889
:1018000036F8140001340028F2D159469B463B4675
:1018100016460F4691F820102A46E52902D10521E7
:1018200087F82010082A00F0958003F00C020C2A9B
:1018300004D003F00303032B40F0968048F0020825
:1018400087F82B803846FFF729FE97F82B3060B3D6
:1018500004287FF458AF9C0640F1E48059073AD53C
:101860008023002087F82B3003B0BDE8F08F4D4572
:1018700034D9A4EB0A01B1FA81F1490971BB7F287F
:1018800058D82B21DFF840C103E01CF8011F0029C4
:101890007AD08142F9D148F003085F200BEB0901AF
:1018A00009F1010981F82000AAE75A073FF52BAF9B
:1018B000BB79DB0640F1B4803B699BF80010C3F3B1
:1018C00008020BF13803032913445A8B02D19B8A77
:1018D00042EA0342BA603A683378E8E60B2D00F03A
:1018E0008F80544502D048F003088ED8BF0054467C
:1018F0000B254FF00809FFB282E7002306202B805A
:1019000003B0BDE8F08FA2461E444FF00408BAF1C0
:10191000010F7FF426AF2B882E2B45D04FF00042CD
:1019200028E7BAF1000FE8D06FF00042524435F8D2
:1019300012301FE7CDE9003200F046FFDDE900324A
:10194000F8B1204948F00208084410F8800C00283B
:10195000A1D096E79B0003F00C020C2A3FF46EAF77
:1019600018F0020F08D06BE718F0020F7FF468AF91
:10197000012B08BF48F01008042A08BF48F00808E7
:101980005EE748F0020886E7A0F1410119292CD84A
:1019900047F00207C0B281E72A882E2A7FF4E9AE19
:1019A000042302E001240EE7022300222E2420203B
:1019B000EA5207F1200201230DE000BFD4E1010843
:1019C00001000080E8E10108E0E101080B2B107044
:1019D00006D001330132591E8A45F7D91470F8E751
:1019E00048F0200887F82B802CE7A0F16101192925
:1019F0009CBF203847F00107C0B24FE71646AAE661
:101A0000594616469B4648F0030891F820203B466D
:101A10000F46E52A7FF409AF052281F8202004E76C
:101A2000052070E613F0040F08BF05206BE600BF29
:101A30002DE9F04F2DED028B90F82B308BB013F089
:101A4000A002009340F03081D0F800A00646DAF8FA
:101A50000CE0BEF80030002B00F0C98193467246BE
:101A600032F8023F0BF1010B002BF9D106F12003F4
:101A70000DF11C0893E8070088E80700009A02931C
:101A8000D1076DD56FF01F054022B1460127AD1B70
:101A900086F82B20AE4C7346029EB446052F98E87C
:101AA0000700ACE803002CF8022B4FEA12428CF836
:101AB000002071D9198800296ED09C463B46102021
:101AC00001F00102490802EB4303DA0348BF634017
:101AD0000138F5D13CF8021F0029F0D10DF11B0CA3
:101AE000072203F00F004FEA131E013A00F1300104
:101AF000392988BF00F137010F2B73460CF8011903
:101B0000EFD802F128037E216B4403F8141C002A4D
:101B100044D009F11F01002302E001339A4203D0AF
:101B200011F8010F2028F8D120334B4402F128018D
:101B3000072A0DEB01004FF0200102D810F8141C09
:101B4000013203F8011BE9180729EFD94846FFF7CE
:101B5000A5FC28BB0137642F16D0DAF80C309CE7BF
:101B6000009B54469B0726D57A4B0BF10C070021AE
:101B70003046A3FB0737FFF73DFC8146BF0801371E
:101B800008B3042840F03A814FF0070948460BB0EB
:101B9000BDEC028BBDE8F08F3B469FE71346C3E7E1
:101BA00004284E468146F1D1009B346886F82B30DC
:101BB000009B9B07D8D400213046FFF71BFC012770
:101BC00081460028DDD1054604F13808D6F818B062
:101BD000636B9B4516D0E378002B5FD101235A46F7
:101BE00041466078FEF796FD50B14FF001094FF085
:101BF000FF33484663630BB0BDEC028BBDE8F08F4A
:101C0000C4F834B0F3691B78E52B0BD0B3FA83F238
:101C100052093BB1154601213046FFF7A1FA0028D1
:101C2000D4D0AEE70135AF42F5D17B1E00933ED153
:101C3000B469DAF834309C4211D09AF80330002BA2
:101C400040F0DE80012322460AF138019AF80100B3
:101C5000FEF760FD002840F0C380CAF8344020221F
:101C60000021F06919F024FBF36906F12B01029AB7
:101C7000013B12F8010B914203F8010FF9D196F8DC
:101C80002B300122F169484603F018030B738AF8E0
:101C900003200BB0BDEC028BBDE8F08F2046FEF7B1
:101CA0001FFE00289AD06CE74FF006096EE73169F5
:101CB0003046009BA1EB4311FFF79CFB01900028ED
:101CC00040F0A68006F12B01029AC30143EA5003BB
:101CD00012F8010B50FA83F38A42D8B2F5D10AF117
:101CE0003803DFF874B0019008EE103ACDF80C908C
:101CF000B469DAF834309C420FD09AF80330002BE4
:101D000077D10123224618EE101A9AF80100FEF747
:101D100001FD002864D1CAF834409DF800900F27D7
:101D2000F169002509F1FF30DAF80CE0CF722B469B
:101D300000EB4002019F01244FF6FF7800EB820088
:101D40004FF0FF0C2A464F730D738D76CD761DE054
:101D5000211001004FECC44E68E201083EF810303B
:101D6000180A0B5568705BB901324FF6FF730D2AE4
:101D700023D01BF802000C1801F800C084F801C041
:101D8000013238460D2A11D01BF80240434501EBC1
:101D9000040500F10107E1D1013201F804C0074652
:101DA0000C440D2A384684F801C0EDD14FF6FF727D
:101DB000934202D03EF817300BB949F04009012395
:101DC00081F80090304600218AF80330FFF7C8F907
:101DD000A0B9009B013B00938AD1DDF80C9027E766
:101DE0004FF0FF334FF00109CAF83430CEE69B467E
:101DF0003CE65046FEF774FD002882D08146C5E6D9
:101E00005046FEF76DFD00283FF41CAF8146BDE64D
:101E1000DDF80490BAE600BF30B585B015460190F4
:101E200003A800910391FEF79DFC031E1BDB0F4CE2
:101E300054F8231009B100220A70019959B1002207
:101E4000012D44F823100A700AD101A96846FEF753
:101E50002BFE05B030BD084644F8231005B030BD58
:101E6000104605B030BD0B2005B030BDB8070024CA
:101E70002DE9F04790B00191002800F0838002F036
:101E80003F071646044603A901A83A46FEF70CFE92
:101E9000054628B100232360284610B0BDE8F0872E
:101EA000039B04A801990493FFF7EEFB80B99DF909
:101EB0003B30002B6BDB16F01C0F10D09DF816305A
:101EC00013F0110F65D1730740F1CA800825E1E7CF
:101ED00016F01C0F01D004285FD00546DAE79DF804
:101EE0001630DA0657D4B10701D5DA0751D4DDF838
:101EF0000C903B0748BF47F04007D9F834302362C5
:101F00000B9B636299F800205E8B032A02D19A8AA8
:101F100046EA02460021A66004F12C0AD3F81C8090
:101F2000B9F806304FF4007227745046C4F8009098
:101F3000C4F80C80A162A3806174E161616119F051
:101F4000B7F9BF06A8D5B8F1000FA5D0B9F80A3087
:101F5000C4F81480B8EB432F4FEA432706D884E037
:101F6000701C00F0B880474580F0B580314620688D
:101F7000FEF7A6FF0128A8EB07080646F0D80225C1
:101F8000A06187E70925284610B0BDE8F08706253F
:101F900080E707257EE704257CE704A847F00807CB
:101FA000FFF746FD002898D107F00EF90B9BC6B24B
:101FB000C0F30742C0F30721000E9E734FF0200CC0
:101FC000D9731A7458740B9BDDF80C909E75D975F3
:101FD0001A7658760B9B83F80BC099F800200B9B60
:101FE000032A5E8B02D19A8A46EA024600229A763A
:101FF000DA7699F80010032901D11A755A750B9BEE
:1020000000221A775A779A77DA77012389F8033012
:10201000002E3FF46EAF04A83146D9F83480FEF7A5
:10202000F3FF00287FF459AFDDF80C90D9F8343075
:1020300098453AD099F80330002B42D1012342460B
:1020400009F1380199F80100FEF764FB88B34FF0FD
:10205000FF31039B01250E44C9F834101E6119E7B6
:102060003007A1D4DDF80C9047E7A661C8F3080358
:10207000002B3FF411AF0398023EC369023B9E421E
:1020800004D24289036B06FB02320AB9022501E73A
:1020900002EB582251460123E2614078FEF73AFBF9
:1020A00000283FF4F9AE0125F4E6013EC9F81060BE
:1020B0001FE7013EC9F83480DDF80C90C9F81060C4
:1020C00017E74846FEF70CFC0028B7D0039B013EFB
:1020D00005461E61DEE6711CA6610CBF01230023CC
:1020E000C4D11D46D6E600BF2DE9F04F1E4687B08D
:1020F0000023884605A9044633601746FEF75CFBBB
:102100000546002861D1657C002D5ED194F810A0B1
:102110001AF0010A00F0A1806069E3681B1A9F426F
:1021200028BF1F46002F50D004F50B7304F12C0B71
:10213000CDE90135C0F3080363BB0599430A4A8919
:10214000013A12EA502244D0A069CB690238023B1E
:1021500098424BD2B1F80AC00B6B0CFB0030002840
:1021600044D0B7F5007F02EB000946D2E2694A4548
:102170000BD094F91030002B71DB487801234A46CC
:102180005946FEF7C7FA002860D16369C4F81C906D
:10219000C3F30803C3F5007C5B4408F1FF32BC4580
:1021A00028BFBC4603EB0C0013F8011B834202F866
:1021B000011FF9D16069B7EB0C073368E044604454
:1021C000634460613360B5D1029D284607B0BDE825
:1021D000F08F38BBA068012808D9431C36D0059978
:1021E000A0610238CB69023B9842B3D302231D465B
:1021F0006374284607B0BDE8F08F02EB57207D0AD4
:1022000060454878414688BFACEB02054A462B46FC
:10221000FEF780FAD0B994F91020002A33DB4FEA98
:10222000452CC7E7A06A38B3216804304989B3FB5D
:10223000F1F3016829B9D9E75B1A50F8081F0029A2
:10224000D4D08B42F8D240681844C4E755460123E5
:102250002846637407B0BDE8F08F0725B5E74878D6
:1022600001235946FEF764FA0028EFD1237C059933
:1022700003F07F03237480E7A16920680392FEF7CF
:102280001FFE039AA7E7E269A2EB0909A945C6D296
:1022900008EB492904F12C01019809F1FF3211F8EA
:1022A000013B814202F8013FF9D1B8E770B3F8B5BC
:1022B000036804462BB11A781AB18188DA889142F2
:1022C00001D00920F8BD5878FEF708FAC207F8D403
:1022D000237C13F04000F5D01B06266847D406F097
:1022E00073FF276A736B05469F4212D0F378002B69
:1022F0004AD101233A4606F138017078FEF70AFA0E
:1023000030B14FF0FF3301207363F8BD09207047EF
:102310007763636ADA7A42F02002DA72A26821688F
:10232000C2F307209A76D8760978032903D1120CD4
:102330001A75120A5A75E26830469D75110A1A77A5
:102340005977110C120E9977DA772A0ADA752A0C66
:102350002D0E1A7600225D769A74DA740123F370DA
:10236000FEF7E8FA237C23F040032374F8BD012331
:10237000E26904F12C017078FEF7DAF950B9237C98
:1023800003F07F032374AAE73046FEF7A9FA00287A
:10239000AFD0F8BD0120F8BD10B582B00446FFF7FC
:1023A00085FF08B102B010BD01A92046FEF704FA6E
:1023B0000028F7D1206002B010BD00BF2DE9F04F1A
:1023C00085B00D46044603A9FEF7F6F9064660B946
:1023D000667C56B9A36A63B16F1C6ED0E268954201
:1023E00028BF15466561002D4CD1304605B0BDE8CB
:1023F000F08FE368AB4204D2227C12F0020F08BFD8
:102400001D46002263696261002DEED0039AB2F886
:102410000A804FEA4828002B49D0013B6A1EB3FBD3
:10242000F8F1B2FBF8F28A4241D3C8F10002A76981
:102430001340ED1A6361002F00F0B680454513D8B4
:10244000E6E0FEF723FE0746002800F0AC807B1C88
:102450006FD0012F66D9039BDB69BB4262D9A845C7
:102460006369A76180F0D480227C434439462046CA
:102470009207A5EB08056361E3D42068FEF720FD11
:102480000746E4E7681E2268191D5B68400A528906
:10249000B0FBF2F22BB950E0D21A51F8083F002BF2
:1024A0004BD09342F8D94B6813449A1E47E0A76873
:1024B000002F6CD00023A761BDE71F46D4F8088029
:1024C0004FF0020957F804ABB8F1000F17D1D1450E
:1024D000C3F8009000F28A8000233B6085E709F191
:1024E0000209CA4505D33B4643F808BBC7F8048038
:1024F0001F46039BDB698B4240F2B1808846414610
:102500004FF0000B03E0481C13D08D42E7D1206848
:102510000D46FEF7D5FC01280BF1010B05F1010575
:102520000146F0D802231E466374304605B0BDE86C
:10253000F08F01231E46637457E76FF00102039F7B
:10254000A361FB69023B9342ECD979893B6B02FBA7
:102550000133002BE6D0C5F30805002D3FF445AF4D
:102560000139E2690840C518AA423FF43EAF94F928
:10257000103004F12C01002B60DB012378782A460F
:10258000FEF7C8F806460028D3D1E5612DE73946A5
:102590002046FEF77BFD01280746C3D0411CC8D06A
:1025A0006369A06087E76369E2689A4259D2227C36
:1025B000E360C3F3080342F040022274002B3FF4AF
:1025C00014AFE269BA423FF410AF94F91030002B17
:1025D0000EDB04F12C01039A012350783A46FEF7F2
:1025E00099F806460028A4D1E761FEE61126FCE62C
:1025F000039B04F12C01587801230191FEF798F810
:10260000002896D1237C019903F07F032374E2E72D
:102610002B44C5F308026361FAB10399B81ECA6975
:10262000023A9042BFF47EAF4A890F6B00FB0277FB
:10263000002F3FF477AF07EB5527B5E778780123F4
:102640000191FEF775F800287FF473AF237C039F98
:1026500003F07F03019923748FE71746A4E7A36A69
:1026600035E7C3F30803A9E710B584B0019100284A
:1026700032D00446002203A901A8FEF715FA18B1CA
:102680000023236004B010BD039B20460199236002
:10269000FEF7FAFFE0B994F92B30002B1FDBA3798A
:1026A000DB0617D5039BE16918784A8B032802D112
:1026B000898A42EA0142A260DB8800212046A38089
:1026C000FEF798FE042805D00028D9D104B010BD2B
:1026D0000428D5D10520D3E7092004B010BD039B01
:1026E000EAE700BF98B1036810B504462BB11A7829
:1026F0001AB18188DA88914201D0092010BD58783A
:10270000FDF7ECFF10F00100F7D1206010BD0920AB
:10271000704700BF20B3036870B5044633B11A7820
:1027200022B10D46DA888188914201D0092070BD1E
:102730005878FDF7D3FFC307F8D49DB12046FEF7C4
:10274000B3FD10F0FB06F2D129462046FEF74CF807
:1027500031462046FEF704FD042808BF002070BD66
:102760000920704729462046BDE87040FEF742BE6A
:10277000144B9A7B012A01D90120704793F80EC0AF
:1027800000225FFA8CFC03F80C2093F80EC003EBD8
:102790008C0CCCF8040093F80EC0987B9C448CF809
:1027A0000C2000F1010C30305FFA8CFC83F80EC075
:1027B0004FF03A0C2F23087081F801C010468B703F
:1027C000CA707047C40900247F2814D981B90D4A02
:1027D000C72303E080290DD032F8023F98421FFA48
:1027E00081FC01F10101F5D10CF1800080B270474C
:1027F000FF2801D900207047024B803833F81000C1
:10280000704700BF78E20108B0F5805F244A41F6C6
:102810007D51244B34BF6121134610B5043303E0CE
:102820000433DAB133F8041C1C46B1B1884214D326
:1028300033F8022C5FFA82FC120A0CEB010E704591
:10284000EEDA082A09D8DFE802F00512181B1E216B
:1028500024270E00411A33F8110010BD04EB4C037D
:1028600034F81C10DAE7A0F5E35080B210BD431A2B
:1028700003F00103C01A80B210BD103880B210BD41
:10288000203880B210BD303880B210BD1A3880B206
:1028900010BD083080B210BD503880B210BD00BFEE
:1028A0006CE5010878E30108704700BF704700BF7E
:1028B000704700BF704700BF704700BF30B5154676
:1028C0000C4683B04A682B460968094801F058FA5B
:1028D000236808481A461946009501F0C5FC63684C
:1028E00004481A461946009501F0BEFC03B030BDFD
:1028F000E8B30024D809002410B59FED101A82B067
:102900000F4CB0EE410A8DED011AF0EE410A20465F
:1029100003F0DAFAA4F1D80001F0F8FC9DED011AF9
:102920002046BFEE000AF0EE410A03F0CDFA0A207D
:1029300002B0BDE8104006F0FBBC00BF0000000084
:10294000DC21002438B5244C2DED028BDFED238AE9
:10295000A4F1D80520469FED228AB0EE681AF0EE69
:10296000680AB0EE680A03F0AFFA284601F0CEFC20
:10297000642006F0DDFCB0EE481AF0EE480A20466E
:10298000B0EE480A03F0A0FA284601F0BFFC64202C
:1029900006F0CEFCB0EE681AF0EE680A2046B0EE03
:1029A000680A03F091FA284601F0B0FC642006F0B2
:1029B000BFFCB0EE481AF0EE480A2046B0EE480AD6
:1029C00003F082FA284601F0A1FC6420BDEC028BE2
:1029D000BDE8384006F0ACBCDC21002400007F4399
:1029E0000000000010B5044655482DED028B03F0A1
:1029F000ADF8DFED547AB4EEE70AF1EE10FA0FD934
:102A00009FED517AF7EE007AB4EE470AF1EE10FA34
:102A100027FE808A44B1012C4CD0BDEC028B10BD46
:102A20009FED4A8A002CF6D1494B4A4C1A78D4EDD6
:102A3000007AFAB1484A82ED008A78EE677A9FED13
:102A4000417AF0EEE77AF4EEC77AF1EE10FAE4DDBF
:102A5000B0EE480A414800F013FFB7EEC87A84EDA3
:102A6000008A3F48BDEC028B53EC172BBDE81040A9
:102A700003F0A4B9F4EEC87AF1EE10FA07D8364A9A
:102A800092ED007AF4EEC77AF1EE10FA0CDAF4EE79
:102A9000C87AF1EE10FA0ADB2F4A92ED007AF4EED2
:102AA000C77AF1EE10FA02D801211970C3E7B0EE2F
:102AB000678AC2E7264B2B4C1A78D4ED007AFAB11C
:102AC000294A82ED008A78EE677A9FED1E7AF0EE51
:102AD000E77AF4EEC77AF1EE10FA9EDDB0EE480A1E
:102AE0001E4800F023FFB7EEC87A84ED008A1F4825
:102AF000BDEC028B53EC172BBDE8104003F05EB920
:102B0000F4EEC87AF1EE10FA0AD8174A92ED007A7C
:102B1000F4EEC77AF1EE10FA02DB01211970D0E76A
:102B2000F4EEC87AF1EE10FA07DB0F4A92ED007A64
:102B3000F4EEC77AF1EE10FAEFD9B0EE678AC2E789
:102B40006C2100240AD7233CA4707D3F00000000C4
:102B5000F82000241C00002408000024E8B300240E
:102B600028E60108200000240C00002444E60108A7
:102B700010B5044655482DED028B02F0E7FFDFED5E
:102B8000547AB4EEE70AF1EE10FA0FD99FED517ABC
:102B9000F7EE007AB4EE470AF1EE10FA27FE808ACB
:102BA00044B1012C4CD0BDEC028B10BD9FED4A8A84
:102BB000002CF6D1494B4A4C1A78D4ED007AFAB180
:102BC000484A82ED008A78EE677A9FED417AF0EE0E
:102BD000E77AF4EEC77AF1EE10FAE4DDB0EE480AD7
:102BE000414800F079FEB7EEC87A84ED008A3F488C
:102BF000BDEC028B53EC172BBDE8104003F0DEB8A0
:102C0000F4EEC87AF1EE10FA07D8364A92ED007A5F
:102C1000F4EEC77AF1EE10FA0CDAF4EEC87AF1EEBF
:102C200010FA0ADB2F4A92ED007AF4EEC77AF1EE41
:102C300010FA02D801211970C3E7B0EE678AC2E723
:102C4000264B2B4C1A78D4ED007AFAB1294A82ED42
:102C5000008A78EE677A9FED1E7AF0EEE77AF4EE5E
:102C6000C77AF1EE10FA9EDDB0EE480A1E4800F079
:102C700043FEB7EEC87A84ED008A1F48BDEC028B94
:102C800053EC172BBDE8104003F098B8F4EEC87A67
:102C9000F1EE10FA0AD8174A92ED007AF4EEC77AEC
:102CA000F1EE10FA02DB01211970D0E7F4EEC87AD8
:102CB000F1EE10FA07DB0F4A92ED007AF4EEC77AD4
:102CC000F1EE10FAEFD9B0EE678AC2E78C2100244A
:102CD0000AD7233CA4707D3F00000000FA200024A6
:102CE0002400002410000024E8B300245CE601085E
:102CF000180000241400002474E60108124B134845
:102D0000B3F92420996AB1FBF2F170B5104D114C62
:102D1000296003F053F8104B204693ED000A00F0B1
:102D2000AFFD0E4B204693ED000A00F0D5FD204686
:102D3000012100F09FFD2B682046094A0949BDE8A2
:102D4000704000F05BBD00BF441C002490E6010809
:102D5000D4090024E8B300241C000024240000242B
:102D6000000000C0000000C130B5334C91B004F148
:102D7000400002F06BFF94F85230FF2B0DD094F816
:102D800044300BB1636E4BBB94F84C301BB194F8DC
:102D90005230802B39D011B030BD06F0C7FA07EEA3
:102DA000900AD4ED156AF8EE677A9FED247A77EEF3
:102DB000E67AF4EEC77AF1EE10FAE0DD204D2B78DA
:102DC00033B12049204601F06BFA00232B70D6E77F
:102DD000204601F067FA01232B70D0E71A4A1B48FE
:102DE0001188408B0B4499B28842118018D9CB01CD
:102DF0000D46183316496846194419F064F86A46B6
:102E00002946144802F0DAFFBEE70F4B1048198834
:102E100000F0C8FC48B111B0BDE83040FFF76EBF0C
:102E2000002118230D461180E4E70B4811B0BDE8DE
:102E3000304002F0C3BF00BF0421002400007A44E8
:102E4000E5B30024BD28000804000024441C00242D
:102E5000440C0024A8E60108C4E60108A94810B5FE
:102E600003F08AF8A84B93F8C42052B9A74C206805
:102E7000FFF7B8FD2068FFF77BFEBDE81040FFF7C5
:102E800073BF93F8CA20A14C802AF0D12268013286
:102E9000012A226040F39680002222609A6E9FED04
:102EA0009C6A1288DFED9B6A07EE102AB8EE477A1B
:102EB000C7EE067AF4EEE67AF1EE10FA40F21581EA
:102EC000DFED956AB7EE007AF4EE667AF1EE10FA6D
:102ED00067FE277AD3F888209FED8D6A12888F4B82
:102EE00007EE102ADFED8B6AC3ED007AB8EE477A61
:102EF000C7EE067AF4EEE67AF1EE10FA40F2F280CE
:102F0000DFED856AB7EE007AF4EE667AF1EE10FA3C
:102F100067FE277A00238249824A9FED831A8348FD
:102F2000C1ED007AB0EE410A13708149814A037005
:102F3000DFED810A81480B70137002F0C5FF724803
:102F400001F0E4F9642006F0F3F99FED771A7B486D
:102F5000F0EE410AB0EE410A02F0B6FF6A4801F015
:102F6000D5F9642006F0E4F99FED6F1ADFED720ADF
:102F7000B0EE410A714802F0A7FF634801F0C6F9BC
:102F8000642006F0D5F99FED681A6C48F0EE410A0E
:102F9000B0EE410A02F098FF5B4801F0B7F96420F7
:102FA00006F0C6F99FED601ADFED630AB0EE410A44
:102FB000624802F089FF544801F0A8F9642006F045
:102FC000B7F954E7002A3FF469AF012A40F0968030
:102FD0009A6E9FED4F6A1288DFED4E6A07EE102A57
:102FE000B8EE477AC7EE067AF4EEE67AF1EE10FA1A
:102FF0007ED9DFED496AB7EE007AF4EE667AF1EE3B
:1030000010FA67FE277AD3F888209FED416A12886C
:103010004B4B07EE102ADFED3F6AC3ED007AB8EEA6
:10302000477AC7EE067AF4EEE67AF1EE10FA62D944
:10303000DFED396AB7EE007AF4EE667AF1EE10FA57
:1030400067FE277A3F4900233848364AC1ED007AA7
:10305000DFED350A13703649B0EE600A354A037069
:103060009FED351A35480B70137002F02DFF26487E
:1030700001F04CF9642006F05BF99FED2B1A2F4804
:10308000F0EE410AB0EE410A02F01EFF1E4801F0C8
:103090003DF9642006F04CF9DFED230A9FED261A76
:1030A000B0EE600A254802F00FFF174801F02EF934
:1030B000642006F03DF99FED1C1A2048F0EE410A0D
:1030C000B0EE410A02F000FF0F4801F01FF9642042
:1030D00006F02EF9DFED140A9FED171AB0EE600A24
:1030E000164866E7DFED107A14E7DFED0F7AF1E6B8
:1030F000DFED0D7A87E7DFED0C7AA3E700230B48BD
:10310000084AA5E7C421002404210024002100244A
:1031100000FF7F470AD7233CA4707D3F08000024AE
:1031200010000024F920002400000000F8200024F2
:10313000FA200024FB20002400007F43DC2100242F
:103140000C0000241400002410B5314C31482DED42
:10315000028B01F0D5F8204600F06EFFDFED2E7AED
:1031600094ED0E6AB7EE008A94ED087A86EE270A8F
:10317000DFED2A6A2A4BC4ED027A236038EE477AE3
:1031800027EE267A84ED097AB1EE400A16F0D8FED1
:1031900094ED0D7AD4ED027A84ED0A0A87EE270ABF
:1031A000B1EE400A16F0CCFED4ED006A9FED1D7A18
:1031B000C8EE267A94ED0E6A84ED037A84ED080A4F
:1031C000C6EE076A38EE407A77EEC87A67EE877AFD
:1031D000B1EE660AC4ED097A16F0B2FEFAEE087A8C
:1031E00094ED006AB6EE007A012384ED0B0AC7EE77
:1031F000866AC4ED017A84F83C30BDEC028B77EE30
:10320000E67AF0EEE77A67EE877AC4ED047A10BDCD
:10321000D8090024042100240AD7233CAAAA2ABFE3
:1032200000004040CDCCCC3D08B50021224801F043
:103230000DF9012002F0D0FD04211F4801F034F8FF
:1032400003211D4801F046F8FFF77EFFFFF754FB0E
:10325000FFF752FB19481A4A1A4900F0CBFA1748EF
:1032600000F0E8F800B3FFF76DFB144800F006F932
:10327000A8B1FFF767FB0621104800F093FAB8B138
:10328000FFF73CFD0C4801F03DF80F490A4801F0FA
:1032900007F8FFF7E3FD0A2006F04AF8F9E70B48C4
:1032A00002F08CFD012008BD094802F087FDF9E716
:1032B000084802F083FDF5E704210024440C0024B3
:1032C000000000C0000000C1BD280008F4E60108AD
:1032D000E0E60108C4E60108F8B5444F0025444C77
:1032E000444A3846444916F0C5FD04F5C0702560CF
:1032F00065612562E56302F0A5FD404A40F20F7367
:103300003F49C4F8382204F51472A4F83C3240F264
:1033100001132046C4F89051C4F84852C4F84C52E6
:10332000384EC4E99023334A16F0A4FD364A374B91
:1033300037499460176051605561C6E90045C2E99C
:10334000033506F5B66406F11003C6E902550022FE
:103350004FF0000C01212F48DFF8D4E09A601A7377
:103360001A61C3F814C0C3F818C083F82420D963C5
:10337000C3F840E05864C3E90022C3E90721483399
:10338000A342E4D1244B4FF49650C6F8B025C6F8BA
:10339000C0254FF07E52C6F8BC054FF07C50C6F8F1
:1033A000C4151946C3F808C041F8042BC3F80CC073
:1033B000C3F810C00860A3F5B960C3F814C0C3F81F
:1033C00018C0C3F81CC0C3F820C00A4A134916F03D
:1033D00051FD084A1249134816F04CFD054A12499E
:1033E0001248BDE8F84016F045BD00BFE4B3002424
:1033F0000421002400000024AD2800080080707F14
:10340000B1280008E8B30024440C0024180A002462
:10341000781C00240000A040B0B90024B92800089E
:10342000B5280008D8090024A9280008FC20002499
:10343000CDCC4C3F70B584B0032301260024054653
:1034400001A900688DF80C40CDE9013604F04AFC72
:1034500010B1204604B070BD3146686805F090FE9A
:103460006868324604490430FEF7D6FCB0FA80F0B2
:10347000400904B070BD00BF0CE70108F0B5074675
:10348000F3B000214FF48052183017F011FF796823
:10349000684601F27441FFF7E7F8002840D104467E
:1034A0002CA96846FFF736F945F62E7230BB9DF819
:1034B000C6301BB39DF8B83013F0120FF0D1BDF831
:1034C000C6300CAD0DF1C60193422846E8D018F085
:1034D000F1FC15490646284618F0FDFC0346134941
:1034E0002846C3B107EBC4100134721B2946A4B2AD
:1034F0001830013217F0CEFE1E2CD1D9684607F5E0
:103500008057FFF7EFF800237C83E01A3B8318BF56
:10351000012073B0F0BD18F0DEFC0028E2D1EBE72B
:10352000002073B0F0BD00BF14E701081CE70108DC
:10353000F0B50D468FB006462C226B4603A92846EF
:10354000FEF7D2FD00283BD1009B04462C2B02D075
:1035500020460FB0F0BD039B05994348434A069FA0
:10356000834208BF9142DDF830C00CBF0124002423
:103570002AD13F4C3F4B9F4208BFA4450CBF0124BA
:10358000002434D106F58057BDF82230099ABB8457
:10359000BDF92E30FA61FB84002B0D9AB8BF0733BA
:1035A0003A62DB10B2FBF3F3BB626969F068F9625F
:1035B000FEF704FFB0FA80F4640920460FB0F0BDB6
:1035C000002420460FB0F0BD834218BF9142294A23
:1035D00014BF0123002397420CBF002303F0010313
:1035E00013B1234B9C45B3D106F58057DDE79F42CD
:1035F00006F58057D9D1099B24212846FB61BDF8E7
:103600002230BB84BDF82E30FB84FEF7D7FE10E0DD
:10361000009A042A16D102A92846FEF765FD019AF0
:10362000134B28469A421CD06969029B1944FEF745
:10363000C5FE6B4601A904222846FEF755FD6B46E0
:103640000028E5D00A4B019A9A4281D1B7F9263079
:103650003A6A002BB8BF0733DB10B2FBF3F3BB624F
:10366000A3E7029B3B62F1E7524946465741564564
:1036700064617461666D74202DE9F04F03694FF049
:10368000000900F5805583B0C3F800904369C3F882
:103690000090AE6AB6F1807F03D9484603B0BDE81A
:1036A000F08FB5F924804FEA8834B4F1804F74D29A
:1036B0000746002C6ED04FEAC83B584616F0E1FB97
:1036C00000EB0B0A0446824503D05A46494617F0E0
:1036D000EFFD4645F8682CBF4FF000094FF0010997
:1036E000C26843699A4208BF49F00109B9F1000F65
:1036F00043D1B6FBF8F84E46A8EB0601B5F92420F5
:1037000001ABB1F5804F28BF4FF4804101FB02F2BD
:1037100021465200FEF7E8FC88BBB5F92410019A57
:103720004B009A42B2FBF3FC1FD303467200D7E969
:1037300004E00EE034F923102EF80210A11C31F938
:10374000231001339C45815202F102020DD9B5F9D3
:1037500024100129EED134F9131001339C45815214
:103760002EF8021002F10202F1D8F86866444269AC
:10377000C3689A4201D0B045BED84FF00109002C71
:103780008BD02046AAEB040116F079FB484603B023
:10379000BDE8F08F4FEAC83A9BE7014816F082FB7C
:1037A00024E7010838B500F580535A8B8A420CD3C0
:1037B0001B8B05460C468B4213D105EBC41101222D
:1037C000E8681831FEF754FB08B1002038BDE968FD
:1037D0002846FFF7ADFE40B12846BDE83840FFF768
:1037E0004BBFC068FEF7D8FDE7E7E868FEF7D4FDF9
:1037F000002038BDC0E90412704700BFF7EE006A30
:10380000DFED1B7A844686EEA77AF8B50646C360DC
:103810005CF8587BC0E9011200F5BF605CF8204CF1
:103820000125DFED137A4FF0000EAC424CF8285C16
:103830004CED0D7A4CF8383C4CF8487C0CED0C7A89
:103840004CF82C4C4CE9111207D14FF07E544FF03C
:10385000FF354CF8344C4CF8285C0CF824EC0CF197
:10386000480C8445DAD118F093FAC6F8B805F8BDCB
:1038700000000000142928BF1421C0F8C4157047A7
:103880009FED107A9FED105AF0EE477ADFED0F5A58
:10389000DFED0F6A9FED0F6AE0EE057AC7FE877ACB
:1038A000C7FEE67AC7FE877AC7FEE67A67EEA57A94
:1038B00067EE867AFCEEE77A17EE903AC0F8BC35F0
:1038C000704700BF0000C842004035456F12833A80
:1038D00000803B4500803B47C368013B07EE903AC0
:1038E000F8EE677A27EE800ABCEEC00A10EE103AB6
:1038F000C0F8C035704700BFB7EE007AB1EE006A7D
:10390000F1EE046AF0EE477AE0EE067AC7FE877AB7
:10391000C7FEE67AF8FE677AFCEEE77A17EE903A91
:10392000142B28BF1423C0F8C4357047F0EE400AAA
:10393000DFED0C7AB2EE040AC0EEA70A10B5044619
:1039400016F09AFBF6EE007A04F5B964B0EE007A50
:1039500020EE270A80FE270A80FE470A84ED000A2F
:1039600010BD00BF789AD43F00F5BA6393ED007A9A
:10397000B5EEC07AF1EE10FA47DDD0F8BC25DFEDE8
:10398000D57A06EE902AD0F8B8359FEDD35AF8EEE6
:10399000665A83EA4333F7EE006ADFEDD02A83EA02
:1039A0005343DFEDCF4A65EEA75ADFEDCE3A76EE10
:1039B000C77A83EA431377EE266A9FEDCB4A85EEFA
:1039C000857A06EE103AC0F8B835B8EE466A36EE9B
:1039D000E73AF0EE675A26EE226A26EE066AE6EE2F
:1039E000035AC5FEA77AC7FEE67A67EE277AC7FEB6
:1039F000A37AC7FEC47A67EEA47A67EE857AFCEEF6
:103A0000E77A17EE903AC0F8BC3500F2D45393ED44
:103A1000007AB5EEC07AF1EE10FA34DDD0F8B835A0
:103A2000BFEE006ADFEDAD7AB0EE005A83EA4333B1
:103A3000F7EE005AC26883EA5343D0F8C01583EA10
:103A4000431306EE903AC0F8B835F8EE666A66EEB3
:103A5000A76AF0EE467AE6EE857AC7FE867AC7FE5A
:103A6000E57AFCEEE77AF8EE677A67EE877AFCEEA5
:103A7000E77A17EE903A02FB03118A4200F22481A2
:103A8000013AC0F8C02500F5BC639FED986A93ED3C
:103A9000007AB4EEC67AF1EE10FA2BDDD0F8B83524
:103AA00000F2CC52DFED8D7A37EE074A83EA4333DA
:103AB00092ED005AF1EE474A83EA5343F7EE005A7B
:103AC00083EA431306EE903AC0F8B835F8EE666A1A
:103AD00066EEA76AF0EE477AD4EE267AC7FEA47A9D
:103AE000C7FEC77A77EE857AC7FE867AC7FEE57A83
:103AF000C2ED007A00F2DC5393ED007AB5EEC07AA5
:103B0000F1EE10FA33DDD0F8B835F7EE007ADFEDDC
:103B1000733A00F5B96283EA4333B6EE005A37EEE2
:103B2000C76AD2ED004A83EA534337EE277AF0EEB4
:103B3000085A83EA431337EE464A07EE903AC0F834
:103B4000B835F8EE676AF0EE467A66EEA36A66EE7E
:103B5000A66AE6EE847AC7FE867AC7FEC77A67EE63
:103B6000A47AC7FE857AC7FEE57AC2ED007A00F234
:103B7000E453D3ED007AF5EEC07AF1EE10FA2ADDC7
:103B8000D0F8B835DFED556A83EA433383EA53430F
:103B900083EA431307EE103AB8EE477A27EE267A07
:103BA000F4EEC77AF1EE10FA40F38B8083EA4333E8
:103BB00083EA534383EA431307EE903AC0F8B835DB
:103BC000F8EE677A67EEA67AFDEEE77A17EE903A9E
:103BD0009B00C0F8B43500F5BD63D3ED007AF5EE77
:103BE000C07AF1EE10FA29DDD0F8B835DFED3B6A86
:103BF00083EA433383EA534383EA431307EE103ADD
:103C0000B8EE477A27EE267AF4EEC77AF1EE10FA8C
:103C100054DD83EA433383EA534383EA431307EED5
:103C2000903AC0F8B835F8EE677A67EEA67AFDEEFE
:103C3000E77A17EE903A9B00C0F8B03500F5BB6309
:103C400093ED007AB5EEC07AF1EE10FA31DDD0F8DE
:103C5000B835F7EE007A9FED215A83EA4333D0F866
:103C6000C42537EEC76A83EA534337EE277A83EADF
:103C7000431377EE465A07EE903AC0F8B835F8EE9F
:103C8000676AF0EE467A66EE856A66EEA66AE6EE4A
:103C9000A57AC7FE867AC7FEC77AFCEEE77A17EEEA
:103CA000903A02FB03F32BB1142B10D91423C0F864
:103CB000C43570470123C0F8C4357047C0F8B83523
:103CC000BCE7C0F8B83586E7C0F8C015DBE6C0F839
:103CD000C435704700007A4400803B470000802FC5
:103CE0006F12833A0000C84200803B45000000008C
:103CF00010B5002200F1100400F5B66103E00132B6
:103D00004834A14238D0237B002BF8D1D0F8C435F9
:103D10009342F5D9FFF728FED0F8BC1500F5B9623B
:103D2000D0F8C03507EE101A00F2CC5CD2ED007A64
:103D3000F8EE476A2269DCF800009342616387EE7F
:103D4000A67A28BF9B1A01222363A36A22732262E8
:103D5000012B4FF00002E361626184ED067A05D128
:103D60004FF07E534FF0FF32636122620023C4EDB7
:103D70000E7AE06284F8243010BD00BF000000001D
:103D8000002B00F037812DE9F04F9946824600F173
:103D900058030F4616464FF0000800F5BF652DED9D
:103DA000068B83B00093DFEDA28A5046009C4FF053
:103DB000000BB0EE689AFFF79BFF02E04834AC427C
:103DC0002ED014F83C3C002BF8D014F8243CFBB95E
:103DD00054ED0A7A54F82C3CF8EEE77A14ED0D7A9B
:103DE00054ED0C6A022BA6EEA77A00F09E80032BFE
:103DF00031D0012B00F0AC80F7EE007AB4EEE77A18
:103E0000F1EE10FA37DD012344ED0D7A04F8243C7D
:103E1000002304F83C3C48340BF1010BAC42D0D1F8
:103E2000BBF1000F00F0D38007EE90BAF8EE677A8E
:103E3000C9EE276A88EEA77AC7ED006A86ED007A98
:103E400008F1010804370436C145ACD103B0BDEC1C
:103E5000068BBDE8F08FF7EE007AB4EEE77AF1EE6C
:103E600010FA40F3BB80F0EE007A4FF0FF3344F8D5
:103E7000283C37EEC77A54ED057A54ED046AF8EE23
:103E8000677A54F8183C54F8382C04ED0D7A67EE34
:103E9000877A511E67EEA67AFCEEE77A17EE900A53
:103EA00018448842034603D3B0FBF2F102FB11032E
:103EB00054F80C0CDFED5F6A022854E9111231F955
:103EC000131032F9133007EE901A08EE103AF8EE9C
:103ED000E77AB8EEC88A67EEA69A28EE268A69D0F5
:103EE000032854D0012842D0F7EE007A37EEC77A83
:103EF000F7EE007A14ED070A77EEC07AF5EE407A15
:103F0000F1EE10FA77D4B1EEE7AAB5EE400AF1EE81
:103F100010FA7DD4B1EEC06A69EE877A28EE077A8E
:103F2000AAEE279AE7EE068A75E7F7EE007AB4EE76
:103F3000E77AF1EE10FAC8BF37EE677AB5EEC07ACD
:103F4000F1EE10FA97D5F7EE007A37EE277A92E77E
:103F5000B5EEC07A4FF0FF32002144F8282CF1EE84
:103F600010FA88D504F8243C44F8341C50E754ED8A
:103F7000027AB4EEE77AF1EE10FA2CD977EE677A8E
:103F800054ED016AB7EE007AA7EEE67AB0E7B7EE35
:103F9000C77A9FED250B27EE000B15F091FFB7EECA
:103FA000007BB6EE006B37EE407B27EE067BB7EE6C
:103FB000C77B9DE7B0EE006AFFEE006AF7EE007A7D
:103FC000E7EE066AB0EEE67A37EEC77A90E70023AE
:103FD0003B60336034E7B7EE007A89E7B5EEC07A2C
:103FE000F1EE10FA7FF547AF0123B1EE477A44F8BE
:103FF000283C40E77047B0EE670A8DED017A16F075
:10400000CFF99DED017AB0EE40AA14ED070A7CE7E6
:104010008DED017A16F0C4F99DED017AB0EE406A9B
:104020007AE700BFAFF30080182D4454FB211940FC
:104030000000000000000038F7EE007A10B5B4EE82
:10404000E70A04462DED028BF1EE10FA69DD9FEDD3
:10405000427AB4EEC70AF1EE10FA6ADD9FED3F0A2C
:104060009FED3F6ADFED3F6A3F4BF7EE008A94ED2C
:10407000087AFEEE007A9FED3D8A4FF0804223637E
:1040800038EEC77A84ED0D6AC4ED0E6A226027EE21
:10409000277A84ED028A84ED097A15F051FF94EDB8
:1040A0000D7AD4ED027A84ED0A0A87EE270AB1EE82
:1040B000400A15F045FFD4ED006A94ED0E7AC8EE83
:1040C000A67A84ED038A84ED080AC7EE086A38EE02
:1040D000C07A77EEE87A67EE877AB1EE660AC4EDC9
:1040E000097A15F02DFFFAEE087A94ED006AB6EE23
:1040F000007A012384ED078AC7EE866AC4ED017A4F
:1041000084ED068A84ED0B0A84F83C30BDEC028B0A
:1041100077EEE67AF0EEE77A67EE877AC4ED047A16
:1041200010BDBAEE040A0123B0EE006AF0EE676A31
:104130009BE7BDEEC07ADFED0D5AB0EE005A17EEE8
:10414000103AB8EEC77AC7EE876A85EE076A86EE40
:10415000A50AB1EE400A88E700803B480D745AB8C2
:104160003EC32E373EC3AE3600EE0200CDCCCC3D72
:10417000B0EEC06AD0ED066AF7EE007AF4EEC66AD9
:1041800010B5F1EE10FA04462DED048BC8BF90ED8A
:104190000B7A82B0D8BF90ED0A7AF0EE408A01A87F
:1041A000D4ED089A77EEC77A94ED079A94ED098AD0
:1041B00067EE867AE6EE877AC4ED067AB0EEE70A15
:1041C00015F030FFDFED206A9FED207AB3EE043A60
:1041D000DFED1F5AA0EE267ADFED1E7ADFED1E2AF4
:1041E00094ED016ADFED1D3AD4ED046A9FED1C4A9F
:1041F000B0EE475A9DED017ADFED1A4AB8EEC77A64
:10420000E0EE055AE0EE257A77EE277AB0EE467AB0
:1042100067EEA27A97EE837AC7FE237A68EE277A52
:10422000E9EE897A37EEA67AC4ED077A27EE047AAA
:1042300027EE240A15F084FE84ED050A28EE800A94
:1042400002B0BDEC048B10BDA8A19D3FF5CA83C090
:10425000FBB3C040E09248C09B209A3E00000000A3
:10426000CDCC4C3D8E5D13402DE9F843089FA7B19E
:10427000814698460E4615460024B8EC010A484689
:10428000FFF776FFB6EC017AD9ED057A013467EED7
:10429000877AA742E5EC017AEFD1BDE8F88300BF49
:1042A00000F06AB900F06CB938B5044600F08CF93A
:1042B000D4F8A850204600F0A3F9284601F06AFC83
:1042C000D4F8AC50204600F09BF92846BDE83840B1
:1042D00001F060BC38B5044600F056F9D4F8A85097
:1042E000204600F08DF9284601F054FCD4F8AC507B
:1042F000204600F085F92846BDE8384001F04ABC68
:1043000000F05EB9183002F02BB900BF10B50446BA
:10431000D83001F009FE04F59670BDE8104001F0B8
:1043200003BE00BFF0B54FF481718FB000F1D80724
:1043300001254FF4C0624FF4E063ADF8081000F5BA
:10434000967402993846ADF80C2008AEADF81030DE
:104350000095DDE9032301F08FFD40F201134FF4D6
:1043600080722046ADF814304FF4806305990095B3
:104370000BADADF81820ADF81C30DDE9062301F0D7
:104380007BFD3046072105F0D1FE96E8070085E861
:1043900007002946384601F0B1FD96E8070085E898
:1043A00007002946204601F0A9FD384601F0BCFD72
:1043B00020460FB0BDE8F04001F0B6BD2DE9F04158
:1043C00040F2024304460222002504F1180704F1DA
:1043D000A8062DED028B8EB09FED1B8AADF80C3038
:1043E00005A8039901F09AFE02220DF12600ADF80E
:1043F0001020049901F092FE0423022205A93846F8
:1044000001F0A0FE04F1680204F18803C4E92A2344
:104410002946384656F8048B02F0B8F80146204683
:10442000019100F0EDF80023F0EE480A01994046B2
:104430001A4601F059FB25B10EB0BDEC028BBDE868
:10444000F0810125E4E700BF6F12033B2DE9F04145
:1044500004469AB00027019100F08CF8019920469B
:1044600000F08EF940F6061304F1B0069FED400A05
:10447000ADF8143004F1C0053046059901F062FD35
:104480004FF4007328469FED3A0AADF8183004F552
:10449000C878069901F056FD40F6033240F20163F8
:1044A0009FED330AADF8082004F140000299ADF801
:1044B0000C70C4F8D0600FAEC4F8D45007ADADF89E
:1044C0001030DDE9032301F091FB2046FFF72AFFBE
:1044D0002046FFF773FF284601F0B4FC01230DF1DD
:1044E0002C0E04F5C07C1593189347F612231697EB
:1044F00019930223179395E80F008CE80F008EE8BC
:104500000F0086E80F00BDF840301490ADF84E3033
:10451000BDF84230D4E9625EADF84C30C4E9655E66
:10452000BEF1000F04D072463946284616F0C0FE90
:1045300013A9404604F05AFC04F5D27001F096FC31
:104540003021204600F040F8D4F8A850204600F072
:1045500057F8284601F01EFBD4F8AC50204600F076
:104560004FF828461AB0BDE8F04101F013BB00BF78
:1045700000000000704700BF143001F071BA00BFA6
:10458000143001F08FBA00BF38B500F114050446AD
:104590002DED028B284601F01FFA284601F018FA8B
:1045A0002846B0EE408A01F001FAD0ED007AF8EE2C
:1045B000677A88EE277ABDEC028B84ED0E7A38BDDF
:1045C000143001F005BA00BF38B500F114050446F7
:1045D0002DED028B284601F0EDF9284601F0F8F99F
:1045E0002846B0EE408A01F0E1F9D0ED007AF8EE0D
:1045F000677A88EE277ABDEC028B84ED0E7A38BD9F
:1046000090ED0E0A704700BF10B540F203338EB034
:1046100000244FF60B7240F20341ADF8083009A8B0
:104620000123ADF81020ADF824202246ADF80C107F
:104630000094029907940C94CDE90544CDE90A440D
:1046400002F0A6F804A8012322460399009402F080
:104650009FF809A802F082F910B901200EB010BD30
:1046600004A802F07BF9A0420CBF022020460EB045
:1046700010BD00BF2DE9F04103239AB001270024AB
:104680000646CDE914373B4BCDE9104340F20453C5
:10469000CDE91647ADF84830FFF7B6FFB8420546FA
:1046A00025D0022845D040F60132334B0DF12C08BD
:1046B0001894ADF82C200B981997CDF84A3000F0DB
:1046C000E3F810A906F13C0003F092F93020032230
:1046D0004FF07E5341460D930E93CDE90B02F26BE2
:1046E00006F1140001F02AF91AB0BDE8F081102398
:1046F000214A06A906908DF828300DF12C081F4B91
:10470000CDF84A2007930294CDE91804CDE90804B6
:1047100002A802F0A3FB0823029A03A94046ADF8C1
:104720000C508DF80E40049505930B9400F0ECF8B6
:10473000C7E700200121104B0DF12C083A460094E8
:10474000CDF84A304FF60B730C94ADF82C3023465D
:10475000CDE9180140F601314046ADF81810069930
:10476000CDE90D4402F014F82146404602F002F96A
:10477000A7E700BF04020404040604030704010BB6
:104780002DE9F04704462DED028B82B000294DD073
:10479000012140F2011200230091ADF804208DF8B0
:1047A0000630364A0127364B04F10409354904F135
:1047B0002908626040F20272A36040F60663E1607D
:1047C00004F1250AA4F82520A4F82930278284F8CA
:1047D000277084F82B7004F047FF054604F0AAFD0B
:1047E0006946064650BB4DB304F130008DF80670A3
:1047F00004F0C2FE072D3CD104F114052046FFF75A
:1048000039FF284601F0E4F82846B0EE408A01F06E
:10481000CDF8D0ED007AF8EE677A88EE277A84ED4D
:104820000E7A02B0BDEC028BBDE8F08740F20113B6
:1048300000918DF80610ADF80430B2E704F13000B5
:1048400004F09AFE072D11D04946204602F050FD93
:104850000EB9002DD0D1504602F096F8404602F035
:1048600093F804F1120000F079F9C5E7002EF2D1B7
:10487000C2E74946204602F03BFDBDE705080509B1
:1048800005070506050A060610B584B0034601248F
:10489000ADF8040003A8ADF80C30ADF80E4002F0FE
:1048A00073F8214603A802F059F9204604F040FDB0
:1048B000002103A802F052F9204604F039FD2146F8
:1048C00003A802F04BF904B010BD00BF10B5C2F34D
:1048D000002384B00C46017C8DF80D2043EA44028D
:1048E000FA2402238DF80C2003AA009402F04CFB5A
:1048F00018B10124204604B010BD04460A2004F07B
:1049000017FD204604B010BD034670B543F8042BD4
:10491000044684B007C983E80700A37983B91A2144
:104920000B461E22FA2523742046ADF80C200223E4
:1049300003AA009502F028FB28B1012004B070BD45
:104940001B210B46EDE70A2004F0F2FC4FF4B852AD
:1049500000950223ADF80C20204603AA217C02F02A
:1049600013FB0028E9D10A2004F0E2FC41F20272B4
:1049700000950223ADF80C20204603AA217C02F00A
:1049800003FB0028D9D10A2004F0D2FC04220095B0
:104990000223ADF80C20204603AA217C02F0F4FA91
:1049A0000028CAD10A2004F0C3FC06220095022385
:1049B000ADF80C20204603AA217C02F0E5FA00287D
:1049C000BBD10A2004F0B4FC41F208220095022376
:1049D000ADF80C20204603AA217C02F0D5FA00286D
:1049E000ABD10A20064604F0A3FC0095022303AADB
:1049F000217C2046ADF80C6002F0C6FA00289CD15C
:104A0000304604F095FC009522790C232046002ABC
:104A10008DF80C3003AA4FF0020314BF622142212B
:104A20008DF80D10217C02F0AFFA002885D13046B8
:104A300004F07EFC2279D4E902310B43DBB20AB9DF
:104A400043F0400362790AB143F020030E22FA25B5
:104A50008DF80D302046009502238DF80C2003AA16
:104A6000217C02F091FA00287FF467AF0A2004F05D
:104A70005FFC102200950223ADF80C20204603AA0B
:104A8000217C02F081FA00287FF457AF0A2004F05D
:104A90004FFC122100950223ADF80C1003AA217CD3
:104AA000204602F071FA00287FF447AF0A2004F094
:104AB0003FFC012209212046FFF708FF003818BFFC
:104AC00001203BE7F0B5102387B0234C01220025DD
:104AD0000126002702A920460195CDE902234FF4C3
:104AE0008052CDE904670DF04DFC642005F0DAFE3C
:104AF00002A94FF480522046CDE904670226102710
:104B0000CDE902670DF03EFC0322102302A92046E6
:104B1000CDE9022300230422CDE904234FF480527F
:104B20000DF030FC40F23223042202A9019310233D
:104B30002046CDE90223019A012305924FF48052C9
:104B400004930DF01FFC40F6060120460DF03AFCE0
:104B5000284607B0F0BD00BFDCB900241C4B002282
:104B60001C494FF0400C30B5054689B00220596011
:104B700007219A601A620124DA620A224FF4006E59
:104B8000DC6006922022CDE9000104200821CDE955
:104B9000020103201021CDE9040108206946C3E980
:104BA00004024FF4C072181DC3E906C24FF48052CC
:104BB000C3E909E20DF0BCFB38B92846FFF782FFD4
:104BC000003818BF012009B030BD204609B030BD03
:104BD000D8B9002440410052614A0021D0B5136881
:104BE0008EB00A91002B40F0B9805E4B01214FF648
:104BF00083700C2411600221D3F8D42000260327EF
:104C000042F48052C3F8D420D3F8D42002F4805266
:104C10000092009AD3F8E02042F01002C3F8E0209E
:104C2000D3F8E02002F010020192019AD3F8E020BC
:104C300042F04002C3F8E020D3F8E02002F0400246
:104C40000292029AD3F8E02042F00802C3F8E02072
:104C5000D3F8E02002F008020392039AD3F8E02090
:104C600042F48072C3F8E020D3F8E02002F48072AE
:104C70000492049AD3F8E02042F08002C3F8E020C6
:104C8000D3F8E02002F080020592059AD3F8E020E4
:104C900042F02002C3F8E020D3F8E02002F0200226
:104CA0000692069AD3F8E02042F00402C3F8E0200E
:104CB000D3F8E0300C9403F0040307930323079A1E
:104CC0000B93CDE9080108A9274807F07FFD48F2BA
:104CD0003712022308A925480C94CDE90823CDE911
:104CE0000A6707F073FD4CF20372022308A92048FB
:104CF0000C94CDE90823CDE90A6707F067FD40F27F
:104D0000FF62022308A91B480C94CDE90823CDE9D2
:104D10000A6707F05BFD4FF60C72022308A91648DC
:104D20000C94CDE90823CDE90A6707F04FFD4FF653
:104D30003F02022308A911480C94CDE90823CDE9CC
:104D40000A6707F043FD2022022308A90A480C94B1
:104D5000CDE90A67CDE9082307F038FD0EB0D0BDD4
:104D6000D4B9002400440258001002580018025818
:104D7000000C025800200258001C0258001402586F
:104D80002DE9F04FDFF8108406460D46144608F171
:104D900018002DED028B89B000AF02F021FFD8F88A
:104DA000183073B3D8F81C30D8F80490002B43693E
:104DB0000BBF4FF0080A4FF0100A4FF0020B4FF0F4
:104DC000040BB9F1000F2AD0A200EA46012B02F130
:104DD000070222F00702ADEB020D6846ADEB020DB3
:104DE000694600F03F81022B00F0D680002B6FD087
:104DF0002246C847D5462437BD46BDEC028BBDE8E8
:104E0000F08FD8F81C30002BF5D0D8F804904FF074
:104E1000080A4FF0020B4369B9F1000FD4D1FB61CE
:104E2000D8F80030BB61002BE5D0D54802F056FF22
:104E30006B46BBF1020F786108EE103AFB6900F097
:104E400083816A465146A2EBC40295466200EA4657
:104E5000B2FBFBF2AAEBC40085460AEB8200EE46E9
:104E6000F861ADEB010DF8690EEB820CC7F810C0CC
:104E7000EC46ADEB010D00EB8201CCF80400CCF860
:104E8000081001EB82013869E946CCF80C1000EB00
:104E90008201CCF800A001EB8202C9E900E0C9E977
:104EA0000212012B00F06483022B00F06C82002BB5
:104EB00000F08081620849466046BB69984718EE59
:104EC000103A24379D46BD46BDEC028BBDE8F08FFD
:104ED000002C8DD01A46D8ED0C6A9FEDB27A84462C
:104EE000331D36F922E00CF1080C07EE90EA33F995
:104EF00022E00232F8EEE77A944267EE877A67EEB4
:104F0000A67A4CED027A07EE90EAF8EEE77A67EEC1
:104F1000877A67EEA67A4CED017AE2D8F9612246EB
:104F2000C847984ED8ED0D6A0020F9692B1D9FEDFA
:104F30009E7A9FED9E6ADFED9E5A22E0F4EEC67ADD
:104F4000F1EE10FAC0F2C88447F6FE72D1ED017A94
:104F500045F8202066EEA77AF4EEC77AF1EE10FA53
:104F600040F2F080F4EEC67AF1EE10FAC0F2D58489
:104F700047F6FE7243F820200230083184427FF663
:104F800039AFD1ED007A66EEA77AF4EEC77AF1EE8A
:104F900010FAD3D83246D9E7002C3FF429AFD8ED28
:104FA0000C6A84469FED787A0022331D8E4656F8AF
:104FB00022100CF1080C07EE901A53F8221002325E
:104FC000F8EEE77A944267EE877A67EEA67A4CEDC0
:104FD000027A07EE901AF8EEE77A67EE877A67EEC4
:104FE000A67A4CED017AE2D871462246C7F81CE059
:104FF000C847664ED8ED0D6A0020F9692B1D9FED5C
:105000006A7A9FED6A6ADFF894C120E0F4EEC67A0E
:10501000F1EE10FAC0F279843246D1ED017A45F80A
:10502000202066EEA77AF4EEC77AF1EE10FA40F28D
:105030008780F4EEC67AF1EE10FAC0F25E84324652
:1050400043F820200230083184427FF6D3AED1ED00
:10505000007A66EEA77AF4EEC77AF1EE10FAD5D8A8
:105060006246DAE7002C3FF4C3AED8ED0C6A864600
:105070009FED477A4FF0000C331D56F82C200EF1AF
:10508000080E82F40002A2F5000207EE902A53F8FF
:105090002C200CF1020CF8EEE77A82F40002644551
:1050A000A2F5000267EE877A67EEA67A4EED027AE5
:1050B00007EE902AF8EEE77A67EE877A67EEA67A2F
:1050C0004EED017AD9D8F9612246C847314ED8ED64
:1050D0000D6A0020F9692B1D9FED337A9FED336A2D
:1050E000DFF8BCC01FE0F4EEC67AF1EE10FAC0F2B1
:1050F000FC833246D1ED017A45F8202066EEA77A8E
:10510000F4EEC77AF1EE10FA18D9F4EEC67AF1EEA1
:1051100010FAC0F2DA83324643F820200230083118
:1051200084427FF667AED1ED007A66EEA77AF4EEA0
:10513000C77AF1EE10FAD6D86246DBE76246EBE7B3
:1051400062467DE7324615E7A100D6466208073180
:1051500021F00701ADEB010DEA46ADEB010D69460B
:10516000ADEB0E0D0AEB8200EC46ADEB0E0D01EB44
:105170008202F861E946CCE900A0C9E9001290E694
:105180002CBA00240280FFFF000000300082FF7F65
:105190000000003482FF7F0010BA0024007E0080EF
:1051A0007E0080FF0000003804FF7FBF04FF7F3FC8
:1051B00000FEFF46002C00F0C982BBF1020FD8F8B8
:1051C000242000F0FA827969C7F8049002EB810E7E
:1051D0005FED0C5A8A00DCF808100EF104007A61C9
:1051E0001A46DCF80C303B61331DD7F810903D6156
:1051F000FD69C7E902CB8C46834636F92210D8ED0B
:105200000C7A06EE101A33F9221006EE901A3EF9C7
:105210002210B8EEC66A07EE101AF8EEE66A3BF9FD
:105220002210B8EEC77A26EE256A66EEA56A27EE4A
:10523000257A26EE276A66EEA76A27EE277A07EE1A
:10524000901A51080232F8EEE77A0AEB8100944294
:1052500080ED006A05EB810067EEA57AC0ED006A7B
:105260000CEB810009EB810180ED007A98ED0C7A5E
:1052700067EE877AC1ED007ABFD8D7F804903D6910
:10528000D7E902CB60466208BB6949469847D8F81F
:105290002C307A69D8ED0D6A1A441FED3D7A1FED66
:1052A0003D6A2B1D904602F1040A5FED3F5A002231
:1052B000A84ED9E900EC51E0F4EEC67AF1EE10FA0E
:1052C000C0F2C78247F6FE7045F822000CEB0100E1
:1052D000D0ED007A66EEA77AF4EEC77AF1EE10FA16
:1052E0004BD9F4EEC67AF1EE10FAC0F2BA8247F664
:1052F000FE70BBF1020F43F822002BD0D9F8080052
:105300000844D0ED007A66EEA77AF4EEC77AF1EEA3
:1053100010FA36D9F4EEC67AF1EE10FAC0F2CD8268
:1053200047F6FE7048F82200D9F80C000144D1ED90
:10533000007A66EEA77AF4EEC77AF1EE10FA1ED97B
:10534000F4EEC67AF1EE10FAC0F2AF8247F6FE71C3
:105350004AF82210023294427FF6B1AD51080EEBAA
:1053600081008900D0ED007A66EEA77AF4EEC77A64
:10537000F1EE10FAA0D83046A6E73046B9E731463C
:10538000E6E73046CEE7002C00F0E081BBF1020FEB
:10539000D8F8243000F0E1817A69DCF8081003EBDA
:1053A000820EC7F804909300DFED6B5A0EF10400F3
:1053B00000227B61DCF80C303B61331DD7F8109084
:1053C0003D61FD69C7E902CB8C46834656F8221041
:1053D000D8ED0C7A07EE101A53F82210B8EEC76A0F
:1053E00007EE101A5EF82210F8EEC76A07EE101AE0
:1053F00026EE256A5BF82210B8EEC77A66EEA56A3B
:1054000026EE276A27EE257A66EEA76A27EE277A28
:1054100007EE901A51080232F8EEE77A0AEB8100A3
:10542000944280ED006A05EB810067EEA57AC0ED3D
:10543000006A0CEB810009EB810180ED007A98EDA8
:105440000C7A67EE877AC1ED007ABFD8D7F804905E
:105450003D69D7E902CB60466208BB694946984777
:10546000D8F82C307A69D8ED0D6A1A449FED3E7A4F
:105470009FED3E6A131D9246DFF8E4C00022FB61F7
:105480002B1D364ED9E9008E4EE0F4EEC67AF1EED1
:1054900010FAC0F2FC81304645F822000EEB010004
:1054A000D0ED007A66EEA77AF4EEC77AF1EE10FA44
:1054B00049D9F4EEC67AF1EE10FAC0F2EF81304627
:1054C000BBF1020F43F822002AD0D9F808000844A3
:1054D000D0ED007A66EEA77AF4EEC77AF1EE10FA14
:1054E00035D9F4EEC67AF1EE10FAC0F2C981304631
:1054F0004AF82200D9F80C000144D1ED007A66EE9A
:10550000A77AF4EEC77AF1EE10FA1ED9F4EEC67A55
:10551000F1EE10FAC0F2AD813146F86940F8221080
:10552000023294427FF6CBAC510808EB810089002F
:10553000D0ED007A66EEA77AF4EEC77AF1EE10FAB3
:10554000A3D86046A8E76046BAE76146E5E760464B
:10555000CEE700BF0280FFFF000000300082FF7F27
:10556000007E00800000003404FF7FBF04FF7F3F07
:10557000002C00F0EB807A690021D8F82430C7F8BD
:10558000109003EB820ED7F81C909300FD610EF192
:1055900004021FED0C6A7B61331D154656F821206D
:1055A0004808D8ED0C6ABBF1020F82F40002A2F5A4
:1055B000000207EE902A53F8212082F40002B8EE90
:1055C000E77AA2F5000227EE067A07EE902A0AEBA8
:1055D0008002F8EEE77A27EE267A67EE867A82ED89
:1055E000007A09EB80024FEA800067EEA67AC2EDEE
:1055F000007A27D05EF8212082F40002A2F5000292
:1056000007EE902A55F8212082F40002B8EEE77ADE
:10561000A2F5000227EE067A07EE902ADCF80820B1
:10562000F8EEE77A024427EE267A67EE867A82ED74
:10563000007A98ED0C7ADCF80C2067EE877A024449
:10564000C2ED007A02318C42A8D8D7F8109060469B
:105650006208BB694946FD699847D8F82C307A69D9
:10566000D8ED0D6A1A441FED407A1FED406A131DF4
:105670009246DFF8C4C20022FB612B1DAB4ED9E974
:10568000008E4EE0F4EEC67AF1EE10FAC0F2C5805C
:10569000304645F822000EEB0100D0ED007A66EEB0
:1056A000A77AF4EEC77AF1EE10FA49D9F4EEC67A89
:1056B000F1EE10FAC0F2BF803046BBF1020F43F8A2
:1056C00022002AD0D9F808000844D0ED007A66EE0E
:1056D000A77AF4EEC77AF1EE10FA35D9F4EEC67A6D
:1056E000F1EE10FAC0F2AE8030464AF82200D9F846
:1056F0000C000144D1ED007A66EEA77AF4EEC77A89
:10570000F1EE10FA1ED9F4EEC67AF1EE10FAC0F2FC
:105710008B803146F86940F82210023294427FF6BD
:10572000CEAB510808EB81008900D0ED007A66EE1F
:10573000A77AF4EEC77AF1EE10FAA3D86046A8E78C
:105740006046BAE76146E5E76046CEE7224649464D
:105750006046BB699847FFF7B2BBC7F810B000229C
:1057600098ED0C6A331DDFED726AD7F81CB07869CA
:1057700056F8221007EE901A53F82210B8EEE77A86
:1057800007EE901A51080232F8EEE77A27EE267AF1
:105790000AEB810E94420BEB810167EEA67A27EEAD
:1057A000067A67EE867A8EED007AC1ED007ADFD850
:1057B0008300D7F810B07B614DE61A46C7F810B0E9
:1057C00098ED0C6A331DDFED5B6AD7F81CB0786981
:1057D00036F9221007EE101A33F9221007EE901A4C
:1057E000B8EEC77A51080232F8EEE77A27EE267A49
:1057F0000AEB810E94420BEB810167EEA67A27EE4D
:10580000067A67EE867A8EED007AC1ED007ADFD8EF
:105810008300D7F810B07B6134E5F0EE675AFEEEF6
:10582000E45A15EE900A34E7F0EE675AFEEEE45AB9
:1058300015EE901A6EE7F0EE675AFEEEE45A15EE9A
:10584000900A3AE7F0EE675AFEEEE45A15EE900A37
:105850004BE767EEA57AFDEEE77A17EE900A00B205
:1058600032E567EEA57AFDEEE77A17EE900A00B210
:105870003FE5F0EE675AFEEEE05A15EE901A4CE660
:10588000F0EE675AFEEEE05A15EE900A30E6F0EEC2
:10589000675AFEEEE05A15EE900AFDE5F0EE675A03
:1058A000FEEEE05A15EE900A0AE667EEA57AFDEEE6
:1058B000E77A17EE901A09B24AE567EEA57AFDEE8F
:1058C000E77A17EE900A00B22CE5F0EE675AFEEE8A
:1058D000E45A15EE902A1FE467EEA57AFDEEE77A0A
:1058E00017EE902A12B2FFF731BBF0EE675AFEEEC8
:1058F000E45A15EE902AFFF7FDBBF0EE675AFEEE74
:10590000E05A15EE902AFFF79BBBF0EE675AFEEEC9
:10591000E05A15EE902AFFF780BB67EEA57AFDEE00
:10592000E77A17EE902A12B2FFF724BB82FF7F00BE
:1059300000000030000000387E0080FF30B5184CB9
:10594000154685B0046004F1080EEC460FC98EE8D8
:105950000F00D4ED047AF5EEC07A8CE80F00F1EE7A
:1059600010FA1ADDB7EE006A94ED057A27EE277A71
:10597000C6EE276A84ED0D7AC4ED0C6A6DB120463F
:1059800040F8185F02F02CF9064903690020064A26
:105990002162A262E36005B030BD012005B030BDD8
:1059A00010BA0024002000300000003000680830E9
:1059B000704700BFB1F5807F03680A4628BF4FF4E7
:1059C0008072B1F5807F9A6094BF002001207047FB
:1059D0000068183002F070B970B504688AB0A36925
:1059E000E160CBB104F11805284602F0F9F88446CD
:1059F000EE46E668BCE80F00AEE80F00BCE80F001A
:105A0000AEE80F009CE803008EE8030069462846D4
:105A1000049601F0EDFFF8B9E069D8B104F11C0576
:105A2000284602F0DDF88446EE46E468BCE80F0044
:105A3000AEE80F00BCE80F00AEE80F009CE80300E2
:105A40008EE8030069462846049401F0D1FF00382F
:105A500018BF01200AB070BD01200AB070BD00BFA0
:105A600030B5046883B00D46E3694BB1A3680020EC
:105A7000E26A616A9B00009004F11C0002F0B2F837
:105A8000A3680748A26A9B00216A009004F11800ED
:105A900002F0A8F80020C4E9005003B030BD00BFF8
:105AA000814D000810B50468A3691BB104F118000A
:105AB00002F0F6F8E3691BB104F11C0002F0F0F803
:105AC000002010BD10B4074B4FF07E51302400224F
:105AD000032019619C60D8605DF8044B5961C3E9EB
