:020000040800F2
:100000000000022099060008950600086584000893
:1000100095060008950600089506000800000000F7
:10002000000000000000000000000000950600082D
:10003000950600080000000095060008E983000806
:100040009506000895060008950600089506000824
:100050009506000895060008950600089506000814
:10006000950600089506000895060008F16A000844
:10007000FD6A000851580008096B0008156B00085C
:10008000657E00081D6000089506000895060008BA
:1000900095060008950600089506000895060008D4
:1000A00095060008950600089506000895060008C4
:1000B000917200089D720008A97200085160000842
:1000C000950600085D60000895060008256D01088A
:1000D000316D0108997C0008C57C0008F97C000896
:1000E0009506000895060008000000009506000827
:1000F0009506000895060008950600089506000874
:100100009506000861700008B57200083D6D010891
:100110002D7D0008617D0008950600089506000801
:100120009506000895060008616D0108956D0108A7
:10013000997E0008950600089506000895060008B7
:1001400000000000000000000000000000000000AF
:10015000950600089506000895060008957D00089C
:100160006960000895060008F98300081D840008EE
:1001700095060008418400089506000895060008C9
:100180009506000895060008C97D0008FD7D000859
:10019000496D0108556D010895060008950600088F
:1001A00095060008950600089506000895060008C3
:1001B00011680008950600089506000895060008D5
:1001C0009506000895060008115300081D53000805
:1001D00095060008295300089506000895060008B2
:1001E0009506000895060008950600089506000883
:1001F0009506000895060008950600089506000873
:100200009506000895060008950600089506000862
:100210009506000895060008950600089506000852
:1002200095060008950600089506000800000000E5
:1002300095060008950600080000000095060008D5
:100240009506000895060008950600089506000822
:100250009506000895060008950600089506000812
:100260009506000895060008950600089506000802
:100270009506000895060008317E00080000000081
:100280009506000895060008950600080000000085
:080290000000000095060008C3
:1002A00010B5054C237833B9044B13B10448AFF3B0
:1002B00000800123237010BD7005002400000000A1
:1002C00004D1010808B5034B1BB103490348AFF340
:1002D000008008BD000000007405002404D101085E
:1002E000034613F8012B002AFBD1181A0138704776
:1002F00001F0FF01102A2BDB10F0070F08D010F8D7
:10030000013B013A8B422DD010F0070F42B3F6D1DA
:10031000F0B441EA012141EA014122F007047FF0F3
:1003200000070023F0E80256083C85EA010586EA4A
:10033000010685FA47F5A3FA87F586FA47F6A5FA86
:1003400087F68EB9EED1F0BC01F0FF0102F0070292
:1003500032B110F8013B013A83EA010313B1F8D13D
:100360000020704701387047002D06BF354603381E
:10037000073815F0010F07D1013015F4807F02BF57
:10038000013015F4C03F0130F0BC0138704700BFA8
:1003900053B94AB9002908BF00281CBF4FF0FF31EC
:1003A0004FF0FF3000F074B9ADF1080C6DE904CEE8
:1003B00000F006F8DDF804E0DDE9022304B0704740
:1003C0002DE9F047089D04468E46002B4DD18A4208
:1003D000944669D9B2FA82F252B101FA02F3C2F13B
:1003E000200120FA01F10CFA02FC41EA030E9440CC
:1003F0004FEA1C48210CBEFBF8F61FFA8CF708FBED
:1004000016E341EA034306FB07F199420AD91CEBC4
:10041000030306F1FF3080F01F81994240F21C81F6
:10042000023E63445B1AA4B2B3FBF8F008FB10333E
:1004300044EA034400FB07F7A7420AD91CEB040473
:1004400000F1FF3380F00A81A74240F20781644443
:10045000023840EA0640E41B00261DB1D4400023C8
:10046000C5E900433146BDE8F0878B4209D9002D2C
:1004700000F0EF800026C5E9000130463146BDE8B6
:10048000F087B3FA83F6002E4AD18B4202D3824220
:1004900000F2F980841A61EB030301209E46002DCF
:1004A000E0D0C5E9004EDDE702B9FFDEB2FA82F224
:1004B000002A40F09280A1EB0C014FEA1C471FFA82
:1004C0008CFE0126200CB1FBF7F307FB131140EA69
:1004D00001410EFB03F0884208D91CEB010103F136
:1004E000FF3802D2884200F2CB804346091AA4B2F8
:1004F000B1FBF7F007FB101144EA01440EFB00FECC
:10050000A64508D91CEB040400F1FF3102D2A64530
:1005100000F2BB800846A4EB0E0440EA03409CE7CF
:10052000C6F12007B34022FA07FC4CEA030C20FA7C
:1005300007F401FA06F31C43F9404FEA1C4900FA9C
:1005400006F3B1FBF9F8200C1FFA8CFE09FB181119
:1005500040EA014108FB0EF0884202FA06F20BD98C
:100560001CEB010108F1FF3A80F08880884240F2DC
:100570008580A8F102086144091AA4B2B1FBF9F020
:1005800009FB101144EA014100FB0EFE8E4508D91B
:100590001CEB010100F1FF346CD28E456AD90238A0
:1005A000614440EA0840A0FB0294A1EB0E01A14285
:1005B000C846A64656D353D05DB1B3EB080261EBF3
:1005C0000E0101FA07F722FA06F3F1401F43C5E9CD
:1005D000007100263146BDE8F087C2F12003D84003
:1005E0000CFA02FC21FA03F3914001434FEA1C4745
:1005F0001FFA8CFEB3FBF7F007FB10360B0C43EA37
:10060000064300FB0EF69E4204FA02F408D91CEBE6
:10061000030300F1FF382FD29E422DD902386344E4
:100620009B1B89B2B3FBF7F607FB163341EA034184
:1006300006FB0EF38B4208D91CEB010106F1FF38D3
:1006400016D28B4214D9023E6144C91A46EA0046CA
:1006500038E72E46284605E70646E3E61846F8E65C
:100660004B45A9D2B9EB020864EB0C0E0138A3E7A5
:100670004646EAE7204694E74046D1E7D0467BE786
:10068000023B614432E7304609E76444023842E7FE
:10069000704700BFFEE7000009480A4A0A49121ADB
:1006A00018F008FE09480A4A0021121A18F010FE34
:1006B00008F030F918F0CAFD02F068F8FEE700BF54
:1006C00000000024700500243CD1010870050024BE
:1006D000C0EC0024034B1A1803EB80035B68107B0B
:1006E0005B6818479C070024064B1A5C42B901223C
:1006F0001A541A1803EB8003107B5B681B681847B9
:10070000002070479C07002430B4054C251804EBEA
:10071000800460688468287BA44630BC604700BFC2
:100720009C07002430B4054C251804EB8004606855
:10073000C468287BA44630BC604700BF9C070024E7
:10074000054B10B41C1803EB80035B68207B1B690E
:100750005DF8044B184700BF9C07002400687047F1
:100760000B0A017043700B0C090E8370C170704747
:10077000024400F8011B9042FBD17047C369023963
:10078000023B8B4283BF4389006B01FB03000020C7
:1007900070470268490A836A52890433B1FBF2F157
:1007A000186830B1814202D3091A0833F8E7586853
:1007B00008447047C2F307238A76CB760378032B6D
:1007C00001BF120C0A75120A4A75704700F10B013D
:1007D0000022D30143EA520310F8012B52FA83F3AB
:1007E0008842DAB2F5D1104670470000036801462E
:1007F00010B553B11846024610F8014B1F2C10D902
:100800003A2CF8D1581C824202D04FF0FF3007E05A
:100810001B78303BD8B20128F7D8013218460A605D
:1008200010BD014B1878FBE78C05002438B50D4648
:10083000044618B9092000232B6038BD0368002B3B
:10084000F8D01A78002AF5D08188DA889142F1D15F
:100850005878FFF73FFF10F00100EBD12368EBE77A
:100860002DE9F0410025D0F8008006460C468D7534
:100870008369002B59D0C36A01330AD001F11607EE
:10088000D8F80C3033F81500002850D12544002347
:10089000AB75F1690023A57D2E274E1E184616F86C
:1008A000012F0130202A26D0052A08BFE522092879
:1008B00007D104EB030C0DB98CF8167001338CF8DA
:1008C000097004EB030C8CF809209DB9A2F1410ECC
:1008D000BEF1190F0CD8082891F80C808CBF4FF08E
:1008E000100E4FF0080E18EA0E0F1CBF2032D2B2C5
:1008F0008CF8162001330B28D1D12DB9E21895754B
:100900000A7B002A08BF00232344002201F11C00B7
:100910005A72CB7A2372FFF721FF206001F1160093
:10092000FFF71CFFE080000CA080BDE8F0810021F3
:1009300001F08CFB30B10135B5F5807F02D007F8AE
:10094000010B9DE70025A1E701380A4411F8013B9E
:10095000914200F8013FF9D170472DE9F041466B13
:1009600000F1380804460123324641464078FFF73B
:10097000D9FE0546A8B9A36A226AF31AE070934229
:1009800002D2A778012F02D82846BDE8F081236A59
:1009900041466078013F1E4401233246FFF7C2FE04
:1009A000F0E70125F0E7C3780BB1FFF7D6BF184693
:1009B000704738B5436B05460C468B4210D0FFF7A5
:1009C000F2FF60B92246012305F138016878FFF78C
:1009D0009BFE00281CBF4FF0FF3401206C6338BD24
:1009E0000020FCE7002310B5C3704FF0FF3304462E
:1009F0004363FFF7DEFF034618BBB4F836124AF62E
:100A0000552291421FD194F83820E92A05D0A26BD3
:100A10000F4902F0FF128A4217D104F16E000D4A0D
:100A2000FFF79CFE20F07F40904208D002F14C522C
:100A300004F18A00FFF792FE904218BF0223184685
:100A400010BD0423FBE70323F9E70223F7E700BF08
:100A5000EB009000464154002DE9FF4100230F4672
:100A600015460B60FFF7C2FE061EC0F213818C4BC9
:100A700053F82640002C00F00F813C6005F0FE0585
:100A800023786BB16078FFF725FEC10708D41DB14C
:100A900010F0040500D00A25284604B0BDE8F08116
:100AA0000023F0B223706070FFF71EFEC20700F152
:100AB000F5800DB14307EED400212046FFF792FFE9
:100AC000022840F0CC806F4604F5FF7304F23E210B
:100AD0003A4613F8040C10B11846FFF73FFE1033E6
:100AE00042F8040B8B42F4D1002557F8046B002E1A
:100AF00000F0AC8031462046FFF774FF012800F279
:100B0000A680B4F84330B3F5007F40F0AC80B4F871
:100B10004E1021B904F15C00FFF720FE014694F865
:100B2000483021625A1EA370012A00F29C8094F87A
:100B300045506581002D00F096806A1E2A4240F0E3
:100B40009280B4F8498018F00F0FA4F8088040F0A4
:100B50008A80B4F84B0018B904F15800FFF7FEFD85
:100B6000B4F84670002F7ED001FB03FE07EB181C83
:100B7000F444604577D3A0EB0C02AA42B2FBF5F334
:100B800071D34FF6F572934271D840F6F575AB42CA
:100B90008CBF02250125023337440CEB0602032DDE
:100BA000E3616662A762226363D1B4F8622052EA0D
:100BB000080258D19B0004F16400FFF7CFFDE0620A
:100BC00003F2FF13B1EB532F4DD34FF0FF33032D3F
:100BD000C4E904334FF0800323712BD1B4F868309B
:100BE000012B27D1711C2046FFF7E3FE10BBB4F8A0
:100BF00036224AF6552320719A421BD1294B04F123
:100C00003800FFF7ABFD984214D103F1FF5304F510
:100C10000770FFF7A3FD03F500532033984209D175
:100C200004F50870FFF79AFD606104F50970FFF79D
:100C300095FD20611C4A257000251388A5610133AC
:100C40009BB21380E380194BE36025E70320013555
:100C5000042D7FF44AAF042805D101251CE70428A0
:100C6000FBD0012801D90D2516E7002649E7032509
:100C700091E7B8F1000FF6D0022D4FEA4302774416
:100C80001ABFD21803F001031346E76218BF03EB43
:100C9000520395E70B25FFE60C25FDE60325FBE651
:100CA0009005002452526141980500249A050024C1
:100CB00001292DE9F04706460C46174674D9C36949
:100CC0008B4271D90378022B40D0032B51D0012BDA
:100CD0006AD101EB5108816A01EB5821FFF769FEE7
:100CE000054640BB14F0010406F1380908F1010A79
:100CF000C8F3080808BFFBB230461FBF19F8083018
:100D000003F00F023B0103F0F00318BF134309F88F
:100D100008300123B16AF37001EB5A21FFF749FE55
:100D2000054640B9CAF3080A44B1C7F3071709F8E2
:100D30000A700123F3702846BDE8F08719F80A30DD
:100D4000C7F3032723F00F031F43F0E7816A01EB8A
:100D50001421FFF72EFE05460028ECD1640006F1B1
:100D6000380304F4FF741F551819C7F30727477099
:100D7000DFE7816A01EBD411FFF71BFE054600286F
:100D8000D9D1A40006F1380327F0704704F4FE74AB
:100D90001C442046FFF7E2FC00F0704047EA0001E7
:100DA0002046FFF7DDFCC4E70225C4E7F8B504469A
:100DB000FFF7F9FD0546002842D12378032B37D1F0
:100DC0002779012F34D104F13806552301464FF419
:100DD00000723046FFF7CCFC84F83632AA23412259
:100DE000722104F5087084F83732522384F83B20CE
:100DF00084F8383084F83930612384F81C1284F880
:100E00003A3084F81F3284F81D1284F81E2261697A
:100E1000FFF7A6FC216904F50970FFF7A1FC626ADF
:100E20003B463146013260786263FFF77BFC2571F7
:100E3000002260781146FFF783FC003818BF0120BC
:100E4000F8BD03284B8B04BF8A8A43EA0243184645
:100E500070470129F8B506460C464ED9C369994238
:100E60004BD20378022B29D0032B34D0012B44D151
:100E700001EB5105816A01EB5521FFF79AFD10B195
:100E80004FF0FF30F8BD6F1CC5F30805B16A30465E
:100E9000354401EB572195F83850FFF78AFD0028BB
:100EA000EED1C7F30807E3073E4496F8380045EA59
:100EB00000204CBF0009C0F30B00E3E7816A01EB9F
:100EC0001421FFF776FD0028DAD1640004F4FF74E2
:100ED0002644308FD6E7816A01EBD411FFF769FD14
:100EE0000028CDD1A40006F1380004F4FE7420449B
:100EF000FFF734FC20F07040C4E70120C2E773B56F
:100F00000C46064611460568012C2CD9EB69A34214
:100F100029D92AB14FF0FF322846FFF7C9FE40B960
:100F2000214630680194FFF794FF0199044610B9F7
:100F3000002002B070BD012815D0431C15D000223E
:100F40002846FFF7B5FE0028F3D1EA696B69911EC8
:100F50008B4205D201336B612B7943F001032B7176
:100F6000A242DDD8E4E70220E3E70120E1E72DE932
:100F7000F041804605680F4671B92E69EEB1EB6904
:100F8000B34298BF012634460134EB69A34217D817
:100F9000012E14D8002406E02846FFF75AFF012846
:100FA000044603D801242046BDE8F081431C30D01C
:100FB000EB698342F7D83E46E5E70126E3E70224E2
:100FC0002146D8F80000FFF744FF30B10128E9D0EE
:100FD00001301ED0B442D7D1DCE74FF0FF322146BA
:100FE0002846FFF765FE90B957B9EA696B69023A7E
:100FF0002C61934210D92B7943F001032B71D2E776
:10100000224639462846FFF753FE0028EDD0012836
:10101000C8D14FF0FF34C6E7013B6B61EBE7B1F598
:10102000001FF8B506460C4601D30220F8BDCA06DB
:10103000FBD1826805680161CAB92B78022B01D9FE
:10104000EB6A9BB92B89B3EB541FEED9EB6AB36102
:10105000B3697261002BE8D003EB54233835C4F335
:1010600008040020B3612C44F461DFE71A466F895D
:101070007F02BC42114604D22846FFF77FFBB061D5
:10108000E6E73068FFF7E5FE431C024606D001287C
:10109000CBD9EB698342C8D9E41BEAE70120C5E755
:1010A00003692DE9F04703F12008836905468A4664
:1010B00093B1B8F5001F0FD2C8F308090468B9F15D
:1010C000000F4DD101334169836139B92389B3EBF5
:1010D000581F45D80023AB6104200BE06789013F0E
:1010E00017EA58273CD12046FFF7B3FE01280646F1
:1010F00002D80220BDE8F087421C01D10120F9E7A7
:10110000E369834226D8BAF1000FE3D06969284623
:10111000FFF72DFF0646002835D00128E9D0431CF3
:10112000ECD02046FFF73FFC01460028E6D104F151
:1011300038004FF400724FF0010AFFF719FB3146F7
:101140002046FFF71BFB606363899F420FD3636BED
:10115000DB1B6363314620466E61FFF70FFBA8611E
:1011600038340020C5F810804C44EC61C2E72046BA
:1011700084F803A0FFF7F1FB0028BFD1636B0137B0
:1011800001336363E0E70720B4E700002DE9F04F87
:10119000002185B00446D0F800B0FFF740FF0646B6
:1011A000002840F098804FF0FF084FF0FF3AC1460A
:1011B000C4F82CA0A1695846FFF7FBFB064600289F
:1011C00040F08980E5692F78002F00F08880EA7A66
:1011D000E52F02F03F03A37103D0100704D50F2BB6
:1011E00004D0C4F82CA050E00F2B56D194F82B302B
:1011F000590640D47A0646D5236907F0BF0795F80B
:101200000D80E3626B7B43453FD16B8B002B3CD160
:101210002E780122DBF80C3006F03F06DFF8C8908C
:1012200000930D23013E5E4319F8013BEB5A7AB35C
:10123000FE2E2AD81846039300F026FF009B711C4F
:10124000029033F81600019100F01EFF029A8242CC
:101250001BD1039B01991A460E46224B9945E3D1B7
:101260002B785B0604D51AB1009B33F8163063B9AE
:10127000013F5FFA87F900212046FFF711FF06467C
:10128000002897D027E0B945BCD04FF0FF09F2E71E
:101290004FF6FF718B42E0D0F7E7B9F1000F04D1B0
:1012A0002846FFF793FA404515D094F82B6016F0C6
:1012B000010696D104F1200205F10B0115F8013B5E
:1012C00012F8010B8D42A3EB000302D0002BF5D0E6
:1012D00087E7002B85D1304605B0BDE8F08F0426A6
:1012E000F9E700BFA9C101089CC101082DE9F04F31
:1012F00090F82B5089B0044615F0A00540F08E8080
:101300000668F26832F81530002B66D104F1200728
:101310000C2205A83946FFF717FB9DF81F30DB07A5
:1013200040F1858040234FF0010ADFF8348284F8D1
:101330002B300B2205A93846D6F80C90FFF704FB9A
:10134000BAF1050F59D9A9F10201534631F8022F1C
:10135000002A44D10DF11300072203F00F0C013ACB
:101360000CF13001392988BF0CF137010F2B00F83F
:1013700001194FEA131142D802F120037E216B4478
:1013800003F8141C394600239A4205D011F8010BCA
:1013900003F1010C202834D104F11F00072A03F1C6
:1013A000010397BF02F1200120210132694498BF57
:1013B00011F8141C072BC154F0D92046FFF7E6FEA4
:1013C000814670BB0AF1010ABAF1640FB1D14FF046
:1013D0000709484609B0BDE8F08F013592E71020B3
:1013E00002F0010C52080CEB430313F4803F18BFCA
:1013F00083EA08030138F3D1A8E75346AAE70B466E
:10140000ABE76346C0E7804601212046FFF748FE70
:10141000814608B3B9F1040FD9D0DAE74FF00609D5
:10142000D7E70428D5D19DF81F3084F82B309DF8DC
:101430001F3000212046D4F800A09B0745BF0C3583
:101440000D230125B5FBF3F548BF0135FFF7E7FD97
:1014500081460028DED18046A1695046FFF7A9FAEF
:1014600081460028D6D1E3691B78E52B01D0002BFB
:10147000C9D108F101084545C6D1013D55D02169C2
:101480002046A1EB4511FFF7CAFD81460028A0D1F7
:101490004FF6FF783846FFF799F90190A169304679
:1014A000FFF787FA8146002893D1E369E9B2019AF0
:1014B0004FF00D0CD6F80CE05A734FF00F02DFF826
:1014C000A4A0DA724A1E18730CFB02F284469876C6
:1014D000D87640451AF8019B0CF1010C18BF3EF874
:1014E000120003EB090B18BF013203F809004FEAA1
:1014F0001029002808BF4046BCF10D0F8BF8019061
:10150000E7D1404502D03EF812200AB941F040012F
:101510001970012300212046F370FFF7C1FD8146B9
:1015200000287FF456AF013DB8D1A1693046FFF7DE
:1015300040FA814600287FF44CAF01462022E06942
:10154000FFF716F90B223946E069FFF7FDF994F829
:101550002B30E26903F0180313730123F37038E7AB
:10156000211001009CC101082DE9F843FF27064620
:10157000D0F8008004253C464FF6FF79B16911B9D7
:10158000002D5FD04FE04046FFF713FA05460028D4
:1015900049D1F0690378002B5CD0C27AE52B02F0C8
:1015A0003F02B27144D02E2B42D022F020010829F4
:1015B0003ED00F2A41D1590638D503F0BF04336914
:1015C000477BF362437BBB4232D1428B82BB0378C1
:1015D0000D21D8F80C504FF0010E23F04003DFF836
:1015E00078C0013B4B431CF8011B415ABEF1000F70
:1015F00020D0FE2B1CD825F813108E460133013263
:101600000D2AF0D10278520604D5FE2B10D8002204
:1016100025F81320013CE4B200213046FFF740FDDD
:1016200005460028AAD00023B3610CE0A342C9D02C
:10163000FF24F1E74945E2D0FAE73CB9FFF7C6F8E5
:10164000B84203D100252846BDE8F8834FF0FF33A8
:10165000F362F8E70425E6E79CC101082DE9F74F9E
:101660000B7805468846D0F800B02F2B01D05C2BB4
:1016700009D142461378904601322F2BFAD05C2BC9
:10168000F8D0002301E0DBF81830AB6098F80030A8
:101690001F2B00F2D88080230021284685F82B30AC
:1016A00003B0BDE8F04FFFF7BABC0134DEE0B4F59B
:1016B000807F00930CD0012100F0C8FC40B17F284E
:1016C000009B07D88F4911F8012B1AB18242FAD139
:1016D000062005E126462AF8020FBDE0022E04D1BD
:1016E000B9F802302E2B00F0D1805EBB002329F820
:1016F0001630002EECD020210B226818FFF738F8A6
:10170000194639F81130202B24D02E2B22D009B1C4
:1017100044F0030437F816302E2B01D0013EF9D1E6
:1017200000234FF0080A1F4639F811004A1C10B375
:10173000202803D02E280FD1964211D044F0030464
:101740001146F1E737F81630202B01D02E2BCDD1E2
:10175000013ECAE70131D4E7534505D296423AD15A
:10176000BAF10B0F30D102E0BAF10B0F27D144F0E0
:1017700003044FF00B0A95F82030E52B04BF052336
:1017800085F82030BAF1080F04BFBF00FFB207F0A0
:101790000C030C2B03D007F00302032A01D144F001
:1017A0000204A00700F1878007F00307012F08BF9C
:1017B00044F01004042B08BF44F008047BE0964278
:1017C00002D044F00304D6D3BF0032464FF00B0AD8
:1017D0000823FFB2B4E77F280ED9002144F00204A9
:1017E000CDE9002300F032FCDDE9002360B1464979
:1017F000084410F8800C38B1DFF810C11CF8011B48
:10180000002972D08142F9D144F003045F20E91825
:10181000013381F8200093E747F00207F7E7002A39
:1018200008BF05205CE05A075AD4AB79DB065AD5CD
:1018300029690BF138039BF80000C1F30801194432
:10184000FFF7FFFAA8602B680026D3F80C9008F188
:10185000FF33A9F10207BA4613F8010F741C1F28C1
:101860000CD92F2802D05C287FF421AF18F804305F
:101870002F2B3FF41AAF5C2B3FF417AF2028A04466
:1018800034BF04240024012E7FF428AFB9F80030BF
:101890002E2B7FF42AAF002305F1200229F8163001
:1018A0009E428CBF2E21202101330B2B02F8011BFD
:1018B000F6D144F02004284685F82B40FFF766FC5B
:1018C00095F82B300028AED0042809D1990603F0F2
:1018D0000402A4D5002AB6D08023002085F82B303E
:1018E00003B0BDE8F08F0520FAE7A0F14101192906
:1018F00092D9A0F1610119299EBF203847F0010754
:1019000080B284E70CC101081CC1010815C101089F
:101910001FB5CDE9001003A814460391FEF766FF3A
:10192000031E15DB0C4A52F8231009B10020087081
:10193000019808B10021017042F8230030B1012C58
:1019400008D1002201A96846FFF786F804B010BD4F
:101950000B20FBE70020F9E7900500242DE9F0417A
:1019600090B0174604460191002800F0D48002F0A0
:101970003F0603A901A83246FFF76EF80546002886
:101980004FD1039B04A801990493FFF767FE20B988
:101990009DF93B30002BB8BF062017F01C0F00F05C
:1019A0009A80002844D004283BD104A8FFF79EFC6D
:1019B000002836D146F0080606F012FD01460090D8
:1019C00020220B980E30FEF7CBFE0B9800991630B4
:1019D000FEF7C6FE0B9BDDF80C80DA720B9998F8C7
:1019E0000000FFF72EFA002207464046FEF7E2FE0F
:1019F0000B9B002201211A775A779A77DA77039B9B
:101A0000D970F7B1394604A8D3F83480FFF777FAD4
:101A100038B941460398FEF7CCFF013F039B1F6195
:101A200078B1002305462360284610B0BDE8F08158
:101A30009DF8163013F0110F57D1780765D4390788
:101A4000BAD4039F31070B997B6B48BF46F0400621
:101A5000616223623878FFF7F4F9A06001F11C009D
:101A60000021FEF77BFEFB88276004F12C074FF472
:101A70000072E060A1623846A38026746174E1615F
:101A80006161FEF775FEB206CED5D4F80C80B8F1D0
:101A9000000FC9D0039BA1685E89C4F81480760248
:101AA000464524D30020A1610028BAD1C8F3080319
:101AB000002BB9D0039E3046FEF760FE48B300EB22
:101AC000582201233946E2617078FEF71DFE002896
:101AD000AAD00120A5E70028A3D19DF81630DA0688
:101AE00015D4BF07ADD5D807ABD5072099E7206837
:101AF000A8EB0608FFF7ADF90128014603D9431CFE
:101B0000CED10120CFE70220CDE7082089E70420CD
:101B100087E7022085E7092586E72DE9F04F87B0A2
:101B200016468946044601930023019A05A91360CD
:101B3000FEF77CFE054618BB657C0DBB237C13F0CD
:101B40000103029300F09980E26804F12C0A6369B2
:101B5000D21A964228BF164696B16169C1F30803AE
:101B6000002B7CD1059BB3F80A8008F1FF3818EAF6
:101B700051281BD141B9A068012810D802256574ED
:101B8000284607B0BDE8F08FA36A1BB12046FEF7D8
:101B900000FEF1E7A1692068FFF75BF9ECE7431C61
:101BA00003D10123029D6374EAE7A061DDF814B05C
:101BB000A1695846FEF7E2FD0028DFD0B6F5007FA8
:101BC00008EB00072ED3BBF80A2008EB5621730A56
:101BD0009BF801009142494688BFA2EB08033A46B0
:101BE0000393FEF791FD0028DBD194F91020039BAD
:101BF000002A0BDAE069C01B984207D24FF400724A
:101C0000514609EB4020FEF79FFE039B5F0263698C
:101C1000B944019AF61B3B446361019B1B683B443A
:101C2000136099E7E269BA4218D094F91030002B9A
:101C30000BDA012351469BF80100FEF773FD0028E3
:101C4000AFD1237C03F07F032374059801233A4628
:101C500051464078FEF758FD0028A2D1E76161693E
:101C60004846C1F30801C1F500775144B74228BF87
:101C700037463A46FEF768FEC9E7072580E7F7B51D
:101C800001A90546FEF7D2FD044600283BD12B7C76
:101C900013F0400437D01B060CD501980123EA69E4
:101CA00005F12C014078FEF73DFD78BB2B7C03F05D
:101CB0007F032B7406F094FB296A07460198FEF710
:101CC00078FE0446F8B96E6AF37A314643F0200391
:101CD000F372AA682868FEF76DFDE96806F11C003A
:101CE000FEF73EFD394606F11600FEF739FD0123E9
:101CF0000198B474F474C370FFF758F82B7C044651
:101D000023F040032B74204603B0F0BD0124FAE712
:101D100013B50446FFF7B3FF28B901A92046FEF723
:101D200085FD00B9206002B010BD2DE9F04F85B0EF
:101D30000D46044603A9FEF779FD0646E8B9667C20
:101D4000DEB9A36A002B7BD06A1C39D11D46D4F8BA
:101D50000880022755F804BBB8F1000F28D0404690
:101D60004FF0000A0146814620680AF1010AFFF798
:101D700070F8012807D802266674304605B0BDE821
:101D8000F08F8046EBE7431C01D10126F4E709F10F
:101D900001098145E6D00237BB4521BF2B4643F8F8
:101DA00008ABC5F804801D46039BDB698342E8D875
:101DB000A36A5F451F6000F2C38000232B60DCE74D
:101DC000E768AF4228BF2F466761002FD5D07D1E40
:101DD00020462946FEF7DDFCDDF80C800146A061B7
:101DE0004046FEF7CBFC0028C5D0C7F30807002FFC
:101DF000C3D0B8F80A10E269013901EA55210D187B
:101E0000AA42BAD094F9103004F12C01002B0CDA5C
:101E1000012398F801000191FEF784FC0028B4D159
:101E2000237C019903F07F032374039801232A463E
:101E30004078FEF769FC06460028A6D1E5619CE7DC
:101E4000E368AB4204D2227C12F0020F08BF1D46A9
:101E5000002263696261EDB90025E268636993421B
:101E600084BF227CE360C3F3080384BF42F04002D6
:101E70002274002B81D0E269AA423FF47EAF94F92C
:101E8000103004F12C01002BCFDA039801230191CB
:101E90004078C1E7039A57897F020BB3013B6A1E62
:101EA000B3FBF7F1B2FBF7F28A4219D37A42A16988
:101EB0001340ED1A63610029CED0BD4263691ED87C
:101EC00063692B446361C5F30803002BC4D00398F6
:101ED000FEF754FC00283FF44EAF00EB5525BCE75D
:101EE000A16851B92046FFF742F8012801463FF4A6
:101EF00042AF481C3FF449AFA160A161DBE73B441E
:101F0000A5EB07086361237C9A0706D52046FFF7F7
:101F10002EF8054628B90146D2E72068FEF799FF5A
:101F200005466B1C3FF431AF012D7FF624AF039BB8
:101F3000DB69AB427FF61FAF2946A5614546BCE78A
:101F400011261AE71FB50446019150B3002203A9D8
:101F500001A8FEF781FD70B9039B2046019923601B
:101F6000FFF77CFBF8B994F92B30002B0CDBA3793D
:101F7000DB0603D405200023236010E0039BE16906
:101F80001878FEF75EFFA060039B00212046DB88E7
:101F9000A380FFF744F80428ECD00028EBD104B06C
:101FA00010BD0920FBE70428E4D0E4E713B501A93C
:101FB0000446FEF73BFC00B9206002B010BD73B5CB
:101FC0000D4601A90446FEF731FC20B92DB90146A2
:101FD0002046FFF724F802B070BD2046FFF7C4FA90
:101FE00010F0FB06F7D129462046FEF739FC3146B2
:101FF0002046FFF755F8042808BF0020EBE7000053
:102000000F4B30B59C7B012C17D89D7B0024EDB283
:102010005C559D7B03EB85056860987B18440273D3
:102020009A7B501C3032C0B298733A2320460A7013
:102030004B702F23CC708B7030BD0120FCE700BFAC
:102040009C0700240022FFF7DBBF00007F2810B5AB
:1020500006D931B1FF2812D880380A4B33F8100066
:1020600010BD084A32F8024B8BB2844203D00131D2
:102070008029F7D10B4603F18000C0B2F0E70020C1
:10208000EEE700BFAAC101081E4B1F4AB0F5805FF2
:1020900028BF134670B5191D31F8043C0A46ABB190
:1020A000984213D331F8024C250AE6B253FA84F46D
:1020B000A04221DA082D09D8DFE805F005090F1143
:1020C000131517191B00C01A31F8100070BDC31A80
:1020D00003F00103C01A80B2F8E71038FBE720389C
:1020E000F9E73038F7E71A38F5E70830F3E7503802
:1020F000F1E7A0F5E350EEE70431002DCCD102EB7F
:102100004603C8E7AAC201089CC40108704770478B
:10211000704770477047000037B50C4615461346A8
:102120000A48D1E9001201F007F8236808481A4666
:102130001946009501F04AFA636805481A4619469F
:10214000009501F043FA03B030BD00BFAC07002496
:10215000980D002407EE902AB8EEE71A07EE901AC1
:1021600010B5F8EEE70A084C07EE900A2046B8EEE4
:10217000E70A03F03DF8A4F1D80001F07BFA6420EF
:10218000BDE8104006F0E0B99C25002413B59FED92
:102190000F1A0F4CF0EE410A8DED011AB0EE410A14
:1021A000204603F025F8A4F1D80001F063FA9DED74
:1021B000011A2046BFEE000AF0EE410A03F018F8BB
:1021C0000A2002B0BDE8104006F0BEB900000000D1
:1021D0009C25002408B5FFF7BDFF0022BDE808409C
:1021E00011461046FFF7B6BF70B504460D461646B9
:1021F000FFF7F0FF294620463246FFF7EBFF324655
:1022000029462046BDE87040FFF7A4BFFF2208B56D
:1022100011461046FFF7DEFFFF22BDE808401146D9
:102220001046FFF7D7BF0000DFED0A7AB4EEE70AE9
:10223000F1EE10FA0AD9DFED087AB4EE670AF7EE8C
:10224000007AF1EE10FA27FE800A70479FED030A2C
:10225000704700BF0AD7233CA4707D3F00000000F8
:102260000B78CBB9B4EEE00AF1EE10FA06DBD0ED54
:10227000007AF4EEE07AF1EE10FA0BD9B4EEE00A4F
:10228000F1EE10FA0CD8D0ED007AF4EEE07AF1EE2F
:1022900010FA05DB01230B70F0EE400A80ED000A16
:1022A000B0EE600A7047000010B5044629482DEDD5
:1022B000028B02F0FFFDFFF7B7FF2CBB264C27492E
:1022C000D4ED000A2648FFF7CBFFD4ED007A9FED4E
:1022D000257AB0EE408A70EE677AF0EEE77AF4EE97
:1022E000C77AF1EE10FA32DD1F4800F043FDB7EE79
:1022F000C87A1E4884ED008A53EC172BBDEC028B84
:10230000BDE8104002F00EBF012C20D1184C13493B
:10231000D4ED000A1748FFF7A3FFD4ED007A9FED34
:10232000117AB0EE408A70EE677AF0EEE77AF4EE5A
:10233000C77AF1EE10FA0ADD0B4800F05BFDB7EE4C
:10234000C87A0D4884ED008A53EC172BD6E7BDEC14
:10235000028B10BD2C2500241C000024B82400246E
:10236000080000240AD7233CAC07002458C5010804
:10237000200000240C00002472C5010810B504469A
:1023800029482DED028B02F095FDFFF74DFF2CBB88
:10239000264C2749D4ED000A2648FFF761FFD4ED0B
:1023A000007A9FED257AB0EE408A70EE677AF0EE03
:1023B000E77AF4EEC77AF1EE10FA32DD1F4800F04A
:1023C000EFFCB7EEC87A1E4884ED008A53EC172B59
:1023D000BDEC028BBDE8104002F0A4BE012C20D160
:1023E000184C1349D4ED000A1748FFF739FFD4ED14
:1023F000007A9FED117AB0EE408A70EE677AF0EEC7
:10240000E77AF4EEC77AF1EE10FA0ADD0B4800F035
:10241000D6FCB7EEC87A0D4884ED008A53EC172B32
:10242000D6E7BDEC028B10BD4C250024240000240F
:10243000BA240024100000240AD7233CAC0700244F
:102440008AC501081800002414000024A0C5010852
:10245000114B1248B3F92420996AB1FBF2F110B57F
:102460000F4C216002F05EFE0E4B0F4893ED000A08
:1024700000F080FC0D4B0C4893ED000A00F090FC3E
:102480000121094800F070FC2368094A09490648FF
:10249000BDE8104000F01CBC04200024BAC50108AF
:1024A000940D00241C000024AC0700242400002408
:1024B000000000C0000000C130B52F4C91B02F4883
:1024C00002F078FD94F85230FF2B1AD106F03AF85A
:1024D00007EE900A94ED157AF8EE677A77EEC77AF0
:1024E0009FED277AF4EEC77AF1EE10FA09DD254D5B
:1024F0002B78002B33D02449204601F085F80023A7
:102500002B7094F84430C3B1636EB3B11F4A684670
:1025100011880B441E499BB2498B994213801D4977
:102520009CBF00231380158801EBC51117F066FCD2
:102530006A462946184802F0F5FD94F84C30CBB1B4
:1025400094F85230802B15D1104B1448198800F0A4
:1025500081FB48B111B0BDE83040FFF779BF20469C
:1025600001F054F80123CBE70D4811B0BDE830402D
:1025700002F0D8BD11B030BDC424002404250024CD
:1025800000007A44A9B7002419210008040000249F
:10259000042000241C100024D2C5010804100024CB
:1025A000EEC5010810B5354802F07AFE344B354CC3
:1025B00093F8C420002A36D093F8CA1022688029E4
:1025C00031D10132012AC8BF002222602268A2BB99
:1025D000996E9FED2D7A098800EE101A2B49B8EEFE
:1025E000400A80EE070AFFF71FFED3F8883081ED1E
:1025F000000A1B8800EE103A254BB8EE400A80EE28
:10260000070AFFF711FE83ED000A0021214B197024
:10261000214B1970214B1970214B19705ABBFF21A6
:102620001046FFF7E1FD2068FFF73EFE2068FFF748
:10263000A5FEBDE81040FFF73FBF012AE5D1996E26
:102640009FED117A098800EE101A1649B8EE400A7B
:1026500080EE070AFFF7E8FDD3F8883081ED000A25
:102660001B8800EE103A104BB8EE400A80EE070AC5
:10267000FFF7DAFDC7E7FF220846D2E784250024EA
:10268000C4240024C024002400FF7F470800002445
:1026900010000024B8240024B9240024BA24002403
:1026A000BB2400240C0000241400002410B5314C7D
:1026B00031482DED028B00F0D7FFB7EE008A20469F
:1026C00000F0A2FED4ED087A9FED2C7A78EE677ABE
:1026D0002B4B236067EE877A94ED0E7AC4ED097A6E
:1026E000DFED287A87EE270AC4ED027AB1EE400AC0
:1026F00015F03EFC94ED0D7AD4ED027A84ED0A0AD1
:1027000087EE270AB1EE400A15F032FC94ED007A0C
:1027100084ED080AC8EE077A94ED0E7A77EEC87A4F
:1027200038EE408A27EE888ADFED177A87EE270A8F
:10273000C4ED037A84ED098AB1EE400A15F018FC65
:10274000FAEE087AD4ED006A012384ED0B0A87EED5
:10275000A67AC4ED017A84F83C30BDEC028B77EEAA
:10276000C77AB6EE007AF0EEE77A67EE877AC4EDC4
:10277000047A10BD980D0024C4240024AAAA2ABFFC
:10278000000040400AD7233CCDCCCC3D08B5002109
:10279000214801F00FF804211F4800F039FF032100
:1027A0001D4800F04BFFFFF781FFFFF7EFFCFFF73D
:1027B000EDFC1A481A4A1B4900F071FA174800F05C
:1027C000DDF820B9184802F0ADFC012008BDFFF784
:1027D0001DFD124800F0F4F808B91448F3E7FFF7BC
:1027E00015FD06210D4800F035FA98B1FFF730FECF
:1027F000002017F035FB0E4B1860074800F036FF3D
:102800000C49054800F000FFFFF7CCFE0A2005F058
:102810009BFEF9E70848D6E7C424002404100024EE
:10282000000000C0000000C108C601081CC6010865
:10283000A4B7002419210008EEC5010870B53D4E6B
:1028400000253D4C3D4A30463D4915F02BFB04F533
:10285000C070256065612562E56302F087FC394B35
:10286000364A2046C4F8383240F20F73C4F890510B
:10287000A4F83C3204F51473C4F84C52C4F8403246
:1028800040F201133049C4E9913515F00BFB2F4B91
:102890002F4A14201E605D61C3E901242D4AC3E95B
:1028A00003252D4BC3E900451C46C3E90255002111
:1028B000002201250138996119771962D96283F8DC
:1028C00034105A629A621D63DD64C3E9041123491E
:1028D00003F1480399602249D960E8D1C4F8B005F2
:1028E0004FF49653C4F8BC054FF07E511D48C4F810
:1028F000B83503468260C26043F8041B4FF07C5138
:102900000261196042618261C2610262A0F2C45038
:102910000A4A1549C4F8C05515F0C4FA074A1349C4
:10292000134815F0BFFA054A12491348BDE8704034
:1029300015F0B8BAA8B70024C4240024000000246D
:102940000F2100080080707F11210008041000246E
:1029500038200024D80D0024AC070024CDCC4C3FF7
:102960000000A040700D002415210008132100086C
:10297000980D00240D210008BC2400247FB50323FA
:1029800001260024054601A900688DF80C40CDE918
:10299000013604F0B3FA70B93146686805F0FCFC02
:1029A0006868324605490430FEF7B2FFB0FA80F09D
:1029B000400904B070BD2046FBE700BF31C60108E6
:1029C00030B50546F3B04FF480520021183016F0B0
:1029D0007FFC6968684601F27441FFF7B3FA044668
:1029E00000283AD12CA96846FFF7E9FA40BB9DF8C8
:1029F000C6302BB39DF8B83013F0120FF2D102227B
:102A000017490DF1C60017F001FA0028EAD00DF1C0
:102A1000C6010CA817F0F2F912490CA817F00AFA2F
:102A200020B911490CA817F005FA38B105EBC4100C
:102A300001340CA9A4B2183017F0E0F91E2CD1D93A
:102A40006846FFF7B3FA05F58050002344830383FB
:102A5000E01A18BF012073B030BD0020FBE700BFB3
:102A600033C6010836C601083BC60108F0B50D465D
:102A70008FB006462C226B4603A92846FFF74DF877
:102A8000002854D1009B2C2B66D13449039F0C9A0B
:102A90008F42A1F57001DDE90543A1F2FB7153D12D
:102AA0008C421DD101F15B4101F5F11101F60F419D
:102AB0008B4215D12A4F06F580540998BDF9221092
:102AC000BA42BDF92E30E061A184E38413D1002B1A
:102AD0000D9AB8BF07332262DB10B2FBF3F3A36297
:102AE000696906F58053F068D962FFF71EF9B0FAFC
:102AF00080F0400930E024212846FFF716F904222F
:102B00006B4628460DEB0201FFF707F860B9009A03
:102B1000042A09D16B4602A92846FEF7FEFF019B55
:102B2000BB42029B05D12362019BBB4204D0002023
:102B300012E069691944DFE7B4F92630226A002BF4
:102B4000B8BF0733DB10C8E78C42C9D005498B42B8
:102B5000C6D0034B9A42C3D00FB0F0BD524946468F
:102B600064617461666D74202DE9F3470369002583
:102B700000F5805806461D6043691D60D8F828A0FE
:102B8000BAF1807F5DD8B8F924904FEA8934B4F166
:102B9000804F02D32E4815F09DF94FEAC9373CB15A
:102BA000384615F086F93A462946044616F090FB59
:102BB0000025BAFBF9F9F0684269C3689A423AD035
:102BC0004D4538D2A9EB0503B8F924202146B3F5C9
:102BD000804F28BF4FF480435A4301AB5200FEF7A9
:102BE0009CFF034688BBB8F924104A000199B1FB49
:102BF000F2F16A008B421CD0B8F924E0BEF1010F5B
:102C0000D6E904C017BF34F923E034F913E02CF8F7
:102C100002E004F1020C0CBF20F802E03CF923C0F2
:102C200003F101030CBF2CF802E020F802C00232CD
:102C3000E0E71D44BFE701251CB13946204615F0E9
:102C400036F9284602B0BDE8F0870025F4E700BF5A
:102C500040C6010838B500F5805304460D465A8B2E
:102C60008A4215D31B8B8B4202D0C068FFF750F805
:102C700004EBC5110122E0681831FEF76FFE38B988
:102C8000E1682046FFF7F2FE20B9E068FFF740F860
:102C9000002038BD2046BDE83840FFF765BFC0E9D9
:102CA00004127047084A136883EA433383EA5343A4
:102CB00083EA431307EE903A1360B8EE670ADFED3C
:102CC000037A20EE270A7047A4B700240000802F63
:102CD000F0B5044600F5B466C360C0E90112B44221
:102CE0001ED0F7EE007A9FED0F7A0568012784ED7C
:102CF000097AC7EE876A2561A56B2763BD42E56245
:102D0000236202BF4FF0FF35C4ED097A2563002529
:102D1000C4E9051284F83450483444ED086ADEE70B
:102D2000F0BD00BF00000000DFED0B7AC0FE277A87
:102D30009FED0A0AC7FEC07A9FED090A9FED097A46
:102D400067EE807A67EE877AFCEEE77A17EE903AC4
:102D5000C0F8B835704700BF0000C84200803B454E
:102D60006F12833A00803B47142928BF1421C0F812
:102D7000C01570479FED077ADFED076AF0EE477ADE
:102D8000E0EE267A9FED050AC7FE877A87FEC00A25
:102D9000FFF7CABF0000C8420040354500803B45F0
:102DA000C368013B07EE903AF8EE677A27EE800A97
:102DB000BCEEC00A10EE103AC0F8BC357047B7EE52
:102DC000007AF1EE006AF0EE477AE0EE267AC7FE6E
:102DD000877AB1EE047AC7FEC77AF8FE677AFCEE0E
:102DE000E77A17EE903A142B28BF1423C0F8C035A9
:102DF00070470000DFED0C0A10B5C0EE200A044653
:102E000004F2C454B2EE040A15F04EF9F6EE007A5C
:102E100020EE270A80FE270AF0EE007A80FE670A7D
:102E200084ED000A10BD00BF789AD43F38B500F297
:102E3000CC550446D5ED007AF5EEC07AF1EE10FAE5
:102E400039DDFFF72FFFF7EE007A95ED007A20EEDF
:102E5000000AD4F8B83577EEC76A37EE277AF0EE75
:102E6000667A37EE666AE0EE067A9FED8A6AC7FEFA
:102E7000A67A87FEC77A07EE903AF8EE676ADFED2A
:102E8000867A66EEA76AC6EE867A67EE877A9FED47
:102E9000837AC7FE877A9FED827AC7FEC77A9FED55
:102EA000817A67EE877A67EE867AFCEEE77A17EE2C
:102EB000903AC4F8B83504F5BA65D5ED007AF5EE68
:102EC000C07AF1EE10FA28DDFFF7ECFEBFEE007AD3
:102ED000F0EE006AE368D4F8BC25F0EE477AE0EE45
:102EE000267AC7FE877AB7EE007AC7FEC77AFCEE6D
:102EF000E77A95ED007AF8EE677A67EE877AFCEE6E
:102F0000E77A17EE901A03FB0122934296BF03F172
:102F1000FF33C4F8BC25C4F8BC3504F2DC55D5ED4C
:102F2000007AF5EEC07AF1EE10FA1FDDFFF7BAFE77
:102F300095ED007A04F5B96337EE076AF0EE477A4B
:102F4000F1EE476AD0EE067AC7FEA67AC7FEC77AC8
:102F500093ED007A77EE877A9FED537AC7FE877AF2
:102F6000B7EE007AC7FEC77AC3ED007A04F5BB65F9
:102F7000D5ED007AF5EEC07AF1EE10FA25DDFFF717
:102F800091FEB7EE007AD5ED007A20EE000A04F249
:102F9000C45377EE676A37EE877AF0EE667A37EEDB
:102FA000666AE0EE067AC7FEA67AC7FEC77A93ED98
:102FB000007A67EE877AB6EE007AC7FE877AB0EEBF
:102FC000087AC7FEC77AC3ED007A04F5BC65D5ED73
:102FD000007AF5EEC07AF1EE10FA11DDFFF762FE2D
:102FE000D5ED007AB4EEE70AF1EE10FA08D5FFF756
:102FF00059FEFDEEC07A17EE903A9B00C4F8B43546
:1030000004F2E455D5ED007AF5EEC07AF1EE10FA4F
:1030100011DDFFF747FED5ED007AB4EEE70AF1EED9
:1030200010FA08D5FFF73EFEFDEEC07A17EE903A93
:103030009B00C4F8B03504F2D455D5ED007AF5EE16
:10304000C07AF1EE10FA20DDFFF72CFEF7EE007AE1
:1030500095ED007A20EE000AD4F8C02577EEC76A15
:1030600037EE277AF0EE667A37EE666AE0EE067A99
:10307000C7FEA67AC7FEC77AFCEEE77A17EE903A4B
:10308000534303D10123C4F8C03538BD142B88BF86
:103090001423F8E700803B4700007A440000C84250
:1030A00000803B456F12833A0000000038B500F500
:1030B000B661054600F1100400238C4239D0227B12
:1030C00012B101334834F8E7D5F8C0259A42F9D94E
:1030D0002846FFF7ABFED5F8B83505F2C451D5F850
:1030E000BC2507EE903A05F5B96591ED007AF8EE4A
:1030F000677A216928688A4284ED0E7AC7EE276ACA
:10310000E06228BF521A012121622173C4E90C2315
:10311000A26A00238A426361E26101BF4FF07E53DD
:1031200063614FF0FF3323620023C4ED066A84F825
:10313000243038BD000000002DE9F84F80469A4643
:103140000F4616464FF000092DED088BD14500F0D3
:1031500008819FED89AA08F1100408F5B66B0025D7
:10316000B0EE4ABA4046F0EE4A8AFFF79FFF5C4550
:1031700000F0E080237B2BB194F8243023B10023AE
:10318000237301354834F2E7D4ED087AE369F8EEA9
:10319000E77A94ED057AD4ED066A022BA6EEA77ABB
:1031A0007DD0032B00F08C80012B6BD0F7EE007AE2
:1031B000B4EEE77AF1EE10FA04DDB0EE677A01239F
:1031C00084F8243094F8243084ED057A002BD6D18D
:1031D000D4ED0D7AF7EE00AAD4ED0E6AF8EE677A18
:1031E000236B67EE877A67EEA67AFCEEE77A17EE36
:1031F000902ADFED627A1A4413462269511E8B42EF
:1032000024BFB3FBF2F102FB1133626832F91320E1
:1032100009EE902AA26832F91330F8EEE99A09EE25
:10322000103AE36B69EEA79AB8EEC99A022B29EE21
:10323000279A5ED0032B67D0012B62D194ED100A40
:10324000B4EEC07AF1EE10FA71D937EE407AD4EDCF
:10325000117AB0EE6A8AA7EE678A94ED0B0A3AEE0D
:10326000C00A15F0B5F8F0EE40AA94ED0B0A15F07F
:10327000AFF869EE889A29EE087AAAEEA9BAA0EE0C
:1032800007AA7EE7B5EEC07A4FF0FF322262F1EE78
:1032900010FA97D59FED387A84F8243092E7F7EE4C
:1032A000007AB4EEE77AF1EE10FAC8BF37EE677A2B
:1032B000B5EEC07AF1EE10FA84D537EE277A81E7C1
:1032C000F7EE007AB4EEE77AF1EE10FA07DDF0EEF1
:1032D000007A4FF0FF3337EEC77A236272E7B5EE1C
:1032E000C07AF1EE10FA7FF56DAFB1EE477A0123A7
:1032F000F3E7F0EE007ABFEE008AA7EE278AB0EE81
:10330000C87A3AEEC78AA8E7B7EEC77A9FED180BDE
:1033100027EE000B14F0ECFDB7EE007B37EE400B10
:10332000B6EE007B20EE070BB7EEC08B95E7B0EE54
:103330006A8A92E785B107EE905AF8EE677A8BEECB
:10334000277A87ED007A8AEE277A86ED007A09F1EE
:10335000010904370436F9E6C7ED008AC6ED008A94
:10336000F5E7BDEC088BBDE8F88F00BFAFF3008038
:10337000182D4454FB2119400000000000000038C3
:10338000B7EE007AD0ED006AC7EE267AD0ED086A73
:1033900077EEC77A37EE667A67EE877AC0ED097AFC
:1033A000704790ED0E7AD0ED027A87EE270A10B5BD
:1033B0000446B1EE400A14F0DBFD94ED0D7AD4ED35
:1033C000027A84ED0A0A87EE270AB1EE400A14F069
:1033D000CFFD204684ED080AFFF7D2FF10BD90F81C
:1033E0003C307BB1D0ED017AD0ED006A87EEA67A51
:1033F00077EEC77AB6EE007AF0EEE77A67EE877A74
:10340000C0ED047A70470000F7EE007A10B5B4EE14
:10341000E70A04462DED028BF1EE10FA50DD9FED28
:103420002A7AB4EEC70AF1EE10FA4BDCBDEEC07A90
:1034300017EE103A07EE103A9FED248A23632046D8
:10344000B8EEC70A87EE807AF0EE007AC4ED007A13
:1034500084ED0E7A87EE807A84ED0D7AFFF790FF87
:10346000204684ED028AFFF79CFFD4ED0E7A84EDAE
:10347000038A87EE880AB1EE400A14F079FD144BF6
:10348000204684ED0B0A6360FFF7A9FFD4ED017AB3
:10349000D4ED006A012384ED078A87EEA67A84EDD5
:1034A000068A84F83C30BDEC028B77EEC77AB6EE24
:1034B000007AF0EEE77A67EE877AC4ED047A10BD01
:1034C0000123B7E7034BB5E700803B48CDCCCC3DAB
:1034D000000040C100EE020010B52DED048BF0EEAF
:1034E000408AD0ED066AB0EEC00A82B0F7EE007AEC
:1034F0000446D0ED089AF4EEC06A90ED079A90ED7C
:10350000098AF1EE10FACCBF90ED0B7A90ED0A7AB1
:1035100077EEC77A67EE807AE6EE877AC0ED067AB4
:10352000B0EEE70A01A814F095FD9FED207ADFEDDB
:10353000207ADFED206AE0EE077A9FED1F7AE0EE59
:10354000276AF0EE477A9DED017AB8EEC77AE0EE91
:10355000267A94ED040AF3EE046A37EE277ADFED5B
:10356000177A27EE277AD4ED017AD7EE267A9FEDE7
:10357000147AC7FE877A68EE277AE9EE897AC4ED75
:10358000077A77EE807A9FED0F0A67EE807A9FEDDB
:103590000E0A27EE800A14F0EBFC84ED050A28EEF3
:1035A000800A02B0BDEC048B10BD00BFA8A19D3FF6
:1035B000F5CA83C0FBB3C040E09248C09B209A3E4E
:1035C00000000000CDCC4C3D8E5D13402DE9F8434A
:1035D000089E054698460F4614464FF00009B1452F
:1035E0000FD0B8EC010A2846FFF776FFB7EC017A56
:1035F000D5ED057A09F1010967EE877AE4EC017AE5
:10360000EDE7BDE8F883000000F06AB900F06CB99E
:1036100038B5044600F08CF9D4F8A850204600F0E4
:10362000A3F9284601F06AFCD4F8AC50204600F01B
:103630009BF92846BDE8384001F060BC38B5044627
:1036400000F056F9D4F8A850204600F08DF928462D
:1036500001F054FCD4F8AC50204600F085F928461F
:10366000BDE8384001F04ABC00F05EB9183002F005
:1036700083B800BF10B50446D83001F0E9FD04F569
:103680009670BDE8104001F0E3BD00BFF0B54FF407
:1036900081718FB000F1D80701254FF4C0624FF45B
:1036A000E063ADF8081000F5967402993846ADF85D
:1036B0000C2008AEADF810300095DDE9032301F0D1
:1036C0006FFD40F201134FF480722046ADF81430C4
:1036D0004FF48063059900950BADADF81820ADF857
:1036E0001C30DDE9062301F05BFD3046072105F0C3
:1036F000A7FA96E8070085E807002946384601F052
:1037000091FD96E8070085E807002946204601F06C
:1037100089FD384601F09CFD20460FB0BDE8F04021
:1037200001F096BD2DE9F04140F202430446022229
:10373000002504F1180704F1A8062DED028B8EB0C8
:103740009FED1B8AADF80C3005A8039901F0F2FD3E
:1037500002220DF12600ADF81020049901F0EAFDD7
:103760000423022205A9384601F0F8FD04F168029D
:1037700004F18803C4E92A232946384656F8048B05
:1037800002F010F801462046019100F0EDF8002308
:10379000F0EE480A019940461A4601F059FB25B15E
:1037A0000EB0BDEC028BBDE8F0810125E4E700BF5F
:1037B0006F12033B2DE9F04104469AB000270191B6
:1037C00000F08CF80199204600F08EF940F60613BF
:1037D00004F1B0069FED400AADF8143004F1C005C5
:1037E0003046059901F042FD4FF4007328469FEDE5
:1037F0003A0AADF8183004F5C878069901F036FD9C
:1038000040F6033240F201639FED330AADF8082021
:1038100004F140000299ADF80C70C4F8D0600FAE0E
:10382000C4F8D45007ADADF81030DDE9032301F042
:1038300091FB2046FFF72AFF2046FFF773FF28463B
:1038400001F094FC01230DF12C0E04F5C07C1593BE
:10385000189347F61223169719930223179395E8A6
:103860000F008CE80F008EE80F0086E80F00BDF80F
:1038700040301490ADF84E30BDF84230D4E9625E6D
:10388000ADF84C30C4E9655EBEF1000F04D072465D
:103890003946284615F01CFD13A9404604F0B2FB3A
:1038A00004F5D27001F076FC3021204600F040F89B
:1038B000D4F8A850204600F057F8284601F01EFB27
:1038C000D4F8AC50204600F04FF828461AB0BDE8B6
:1038D000F04101F013BB00BF00000000704700BFC3
:1038E000143001F071BA00BF143001F08FBA00BF7C
:1038F00038B500F1140504462DED028B284601F081
:103900001FFA284601F018FA2846B0EE408A01F066
:1039100001FAD0ED007AF8EE677A88EE277ABDECEE
:10392000028B84ED0E7A38BD143001F005BA00BF69
:1039300038B500F1140504462DED028B284601F040
:10394000EDF9284601F0F8F92846B0EE408A01F07A
:10395000E1F9D0ED007AF8EE677A88EE277ABDECCF
:10396000028B84ED0E7A38BD90ED0E0A704700BFD1
:1039700010B540F203338EB000244FF60B7240F2C4
:103980000341ADF8083009A80123ADF81020ADF8C7
:1039900024202246ADF80C100094029907940C9450
:1039A000CDE90544CDE90A4401F0FEFF04A8012356
:1039B00022460399009401F0F7FF09A802F0DAF813
:1039C00010B901200EB010BD04A802F0D3F8A04237
:1039D0000CBF022020460EB010BD00BF2DE9F04103
:1039E00003239AB0012700240646CDE914373B4B48
:1039F000CDE9104340F20453CDE91647ADF8483005
:103A0000FFF7B6FFB842054625D0022845D040F65C
:103A10000132334B0DF12C081894ADF82C200B9883
:103A20001997CDF84A3000F0E3F810A906F13C00F0
:103A300003F0EAF8302003224FF07E5341460D9305
:103A40000E93CDE90B02F26B06F1140001F02AF996
:103A50001AB0BDE8F0811023214A06A906908DF81E
:103A600028300DF12C081F4BCDF84A200793029403
:103A7000CDE91804CDE9080402A802F0FBFA0823F6
:103A8000029A03A94046ADF80C508DF80E400495FB
:103A900005930B9400F0ECF8C7E700200121104BD0
:103AA0000DF12C083A460094CDF84A304FF60B73CE
:103AB0000C94ADF82C302346CDE9180140F60131C5
:103AC0004046ADF818100699CDE90D4401F06CFFA1
:103AD0002146404602F05AF8A7E700BF040204045A
:103AE000040604030704010B2DE9F04704462DEDFD
:103AF000028B82B000294DD0012140F20112002337
:103B00000091ADF804208DF80630364A0127364B77
:103B100004F10409354904F12908626040F2027297
:103B2000A36040F60663E16004F1250AA4F82520AD
:103B3000A4F82930278284F8277084F82B7004F0C9
:103B40009FFE054604F002FD6946064650BB4DB394
:103B500004F130008DF8067004F01AFE072D3CD1F8
:103B600004F114052046FFF739FF284601F0E4F878
:103B70002846B0EE408A01F0CDF8D0ED007AF8EE9C
:103B8000677A88EE277A84ED0E7A02B0BDEC028B5C
:103B9000BDE8F08740F2011300918DF80610ADF8F2
:103BA0000430B2E704F1300004F0F2FD072D11D02B
:103BB0004946204602F0A8FC0EB9002DD0D150464F
:103BC00001F0EEFF404601F0EBFF04F1120000F0BF
:103BD00079F9C5E7002EF2D1C2E74946204602F046
:103BE00093FCBDE70508050905070506050A060655
:103BF00010B584B003460124ADF8040003A8ADF865
:103C00000C30ADF80E4001F0CBFF214603A802F0C6
:103C1000B1F8204604F098FC002103A802F0AAF8AD
:103C2000204604F091FC214603A802F0A3F804B05A
:103C300010BD00BF10B5C2F3002384B00C46017C58
:103C40008DF80D2043EA4402FA2402238DF80C205B
:103C500003AA009402F0A4FA18B10124204604B08B
:103C600010BD04460A2004F06FFC204604B010BDCD
:103C7000034670B543F8042B044684B007C983E8B3
:103C80000700A37983B91A210B461E22FA25237453
:103C90002046ADF80C20022303AA009502F080FA1A
:103CA00028B1012004B070BD1B210B46EDE70A20AE
:103CB00004F04AFC4FF4B85200950223ADF80C20F2
:103CC000204603AA217C02F06BFA0028E9D10A20E1
:103CD00004F03AFC41F2027200950223ADF80C2088
:103CE000204603AA217C02F05BFA0028D9D10A20E1
:103CF00004F02AFC042200950223ADF80C20204693
:103D000003AA217C02F04CFA0028CAD10A2004F050
:103D10001BFC062200950223ADF80C20204603AAC6
:103D2000217C02F03DFA0028BBD10A2004F00CFCF3
:103D300041F2082200950223ADF80C20204603AA88
:103D4000217C02F02DFA0028ABD10A20064604F0AF
:103D5000FBFB0095022303AA217C2046ADF80C60F2
:103D600002F01EFA00289CD1304604F0EDFB0095CD
:103D700022790C232046002A8DF80C3003AA4FF03C
:103D8000020314BF622142218DF80D10217C02F044
:103D900007FA002885D1304604F0D6FB2279D4E911
:103DA00002310B43DBB20AB943F0400362790AB136
:103DB00043F020030E22FA258DF80D3020460095A1
:103DC00002238DF80C2003AA217C02F0E9F90028D7
:103DD0007FF467AF0A2004F0B7FB1022009502239E
:103DE000ADF80C20204603AA217C02F0D9F9002866
:103DF0007FF457AF0A2004F0A7FB1221009502239D
:103E0000ADF80C1003AA217C204602F0C9F9002865
:103E10007FF447AF0A2004F097FB012209212046D6
:103E2000FFF708FF003818BF01203BE7F0B510236B
:103E300087B0234C012200250126002702A9204635
:103E40000195CDE902234FF48052CDE904670CF0CF
:103E5000E3FE642005F0B0FA02A94FF48052204638
:103E6000CDE9046702261027CDE902670CF0D4FEE5
:103E70000322102302A92046CDE9022300230422B5
:103E8000CDE904234FF480520CF0C6FE40F23223F9
:103E9000042202A9019310232046CDE90223019AAE
:103EA000012305924FF4805204930CF0B5FE40F6C6
:103EB000060120460CF0D0FE284607B0F0BD00BF3A
:103EC000B4B700241C4B00221C494FF0400C30B505
:103ED000054689B00220596007219A601A620124C0
:103EE000DA620A224FF4006EDC6006922022CDE9ED
:103EF000000104200821CDE9020103201021CDE9B1
:103F0000040108206946C3E904024FF4C072181D79
:103F1000C3E906C24FF48052C3E909E20CF052FE35
:103F200038B92846FFF782FF003818BF012009B0D2
:103F300030BD204609B030BDB0B70024404100522A
:103F4000614A0021D0B513688EB00A91002B40F071
:103F5000B9805E4B01214FF683700C241160022161
:103F6000D3F8D4200026032742F48052C3F8D4208B
:103F7000D3F8D42002F480520092009AD3F8E020C3
:103F800042F01002C3F8E020D3F8E02002F0100263
:103F90000192019AD3F8E02042F04002C3F8E020F9
:103FA000D3F8E02002F040020292029AD3F8E02017
:103FB00042F00802C3F8E020D3F8E02002F0080243
:103FC0000392039AD3F8E02042F48072C3F8E02011
:103FD000D3F8E02002F480720492049AD3F8E0202F
:103FE00042F08002C3F8E020D3F8E02002F0800223
:103FF0000592059AD3F8E02042F02002C3F8E020B1
:10400000D3F8E02002F020020692069AD3F8E020CE
:1040100042F00402C3F8E020D3F8E0300C9403F03F
:10402000040307930323079A0B93CDE9080108A91A
:10403000274807F055F948F23712022308A9254806
:104040000C94CDE90823CDE90A6707F049F94CF251
:104050000372022308A920480C94CDE90823CDE976
:104060000A6707F03DF940F2FF62022308A91B48E6
:104070000C94CDE90823CDE90A6707F031F94FF632
:104080000C72022308A916480C94CDE90823CDE947
:104090000A6707F025F94FF63F02022308A91148E5
:1040A0000C94CDE90823CDE90A6707F019F920221D
:1040B000022308A90A480C94CDE90A67CDE9082330
:1040C00007F00EF90EB0D0BDACB700240044025882
:1040D0000010025800180258000C02580020025824
:1040E000001C0258001402582DE9F04FDFF810842C
:1040F00006460D46144608F118002DED028B89B0D6
:1041000000AF02F079FED8F8183073B3D8F81C303D
:10411000D8F80490002B43690BBF4FF0080A4FF00A
:10412000100A4FF0020B4FF0040BB9F1000F2AD028
:10413000A200EA46012B02F1070222F00702ADEBD2
:10414000020D6846ADEB020D694600F03F81022B7F
:1041500000F0D680002B6FD02246C847D5462437C2
:10416000BD46BDEC028BBDE8F08FD8F81C30002BAB
:10417000F5D0D8F804904FF0080A4FF0020B4369CD
:10418000B9F1000FD4D1FB61D8F80030BB61002B2E
:10419000E5D0D54802F0AEFE6B46BBF1020F786168
:1041A00008EE103AFB6900F083816A465146A2EBA3
:1041B000C40295466200EA46B2FBFBF2AAEBC400D9
:1041C00085460AEB8200EE46F861ADEB010DF86919
:1041D0000EEB820CC7F810C0EC46ADEB010D00EB06
:1041E0008201CCF80400CCF8081001EB8201386998
:1041F000E946CCF80C1000EB8201CCF800A001EBF2
:104200008202C9E900E0C9E90212012B00F06483CF
:10421000022B00F06C82002B00F08081620849467E
:104220006046BB69984718EE103A24379D46BD4654
:10423000BDEC028BBDE8F08F002C8DD01A46D8ED76
:104240000C6A9FEDB27A8446331D36F922E00CF1F8
:10425000080C07EE90EA33F922E00232F8EEE77A32
:10426000944267EE877A67EEA67A4CED027A07EE03
:1042700090EAF8EEE77A67EE877A67EEA67A4CED79
:10428000017AE2D8F9612246C847984ED8ED0D6A06
:104290000020F9692B1D9FED9E7A9FED9E6ADFED50
:1042A0009E5A22E0F4EEC67AF1EE10FAC0F2C8840B
:1042B00047F6FE72D1ED017A45F8202066EEA77A26
:1042C000F4EEC77AF1EE10FA40F2F080F4EEC67A1E
:1042D000F1EE10FAC0F2D58447F6FE7243F82020C2
:1042E0000230083184427FF639AFD1ED007A66EEB4
:1042F000A77AF4EEC77AF1EE10FAD3D83246D9E7AE
:10430000002C3FF429AFD8ED0C6A84469FED787AF3
:104310000022331D8E4656F822100CF1080C07EED1
:10432000901A53F822100232F8EEE77A944267EEC0
:10433000877A67EEA67A4CED027A07EE901AF8EECD
:10434000E77A67EE877A67EEA67A4CED017AE2D8D3
:1043500071462246C7F81CE0C847664ED8ED0D6A84
:104360000020F9692B1D9FED6A7A9FED6A6ADFF8DC
:1043700094C120E0F4EEC67AF1EE10FAC0F279842E
:104380003246D1ED017A45F8202066EEA77AF4EEA8
:10439000C77AF1EE10FA40F28780F4EEC67AF1EEB9
:1043A00010FAC0F25E84324643F820200230083111
:1043B00084427FF6D3AED1ED007A66EEA77AF4EEB2
:1043C000C77AF1EE10FAD5D86246DAE7002C3FF44E
:1043D000C3AED8ED0C6A86469FED477A4FF0000CCD
:1043E000331D56F82C200EF1080E82F40002A2F5BF
:1043F000000207EE902A53F82C200CF1020CF8EE84
:10440000E77A82F400026445A2F5000267EE877A3B
:1044100067EEA67A4EED027A07EE902AF8EEE77A7A
:1044200067EE877A67EEA67A4EED017AD9D8F96100
:104430002246C847314ED8ED0D6A0020F9692B1D80
:104440009FED337A9FED336ADFF8BCC01FE0F4EED6
:10445000C67AF1EE10FAC0F2FC833246D1ED017A51
:1044600045F8202066EEA77AF4EEC77AF1EE10FA4E
:1044700018D9F4EEC67AF1EE10FAC0F2DA833246B9
:1044800043F820200230083184427FF667AED1ED38
:10449000007A66EEA77AF4EEC77AF1EE10FAD6D873
:1044A0006246DBE76246EBE762467DE7324615E7A8
:1044B000A100D6466208073121F00701ADEB010DDE
:1044C000EA46ADEB010D6946ADEB0E0D0AEB82003D
:1044D000EC46ADEB0E0D01EB8202F861E946CCE94A
:1044E00000A0C9E9001290E604B800240280FFFF92
:1044F000000000300082FF7F0000003482FF7F0058
:10450000E8B70024007E00807E0080FF00000038B5
:1045100004FF7FBF04FF7F3F00FEFF46002C00F03A
:10452000C982BBF1020FD8F8242000F0FA82796921
:10453000C7F8049002EB810E5FED0C5A8A00DCF89C
:1045400008100EF104007A611A46DCF80C303B6169
:10455000331DD7F810903D61FD69C7E902CB8C4649
:10456000834636F92210D8ED0C7A06EE101A33F98C
:10457000221006EE901A3EF92210B8EEC66A07EE37
:10458000101AF8EEE66A3BF92210B8EEC77A26EE6A
:10459000256A66EEA56A27EE257A26EE276A66EE7C
:1045A000A76A27EE277A07EE901A51080232F8EE32
:1045B000E77A0AEB8100944280ED006A05EB810006
:1045C00067EEA57AC0ED006A0CEB810009EB810172
:1045D00080ED007A98ED0C7A67EE877AC1ED007A6B
:1045E000BFD8D7F804903D69D7E902CB604662088E
:1045F000BB6949469847D8F82C307A69D8ED0D6ADE
:104600001A441FED3D7A1FED3D6A2B1D904602F1C5
:10461000040A5FED3F5A0022A84ED9E900EC51E0B0
:10462000F4EEC67AF1EE10FAC0F2C78247F6FE70D9
:1046300045F822000CEB0100D0ED007A66EEA77A77
:10464000F4EEC77AF1EE10FA4BD9F4EEC67AF1EE39
:1046500010FAC0F2BA8247F6FE70BBF1020F43F8BF
:1046600022002BD0D9F808000844D0ED007A66EE7D
:10467000A77AF4EEC77AF1EE10FA36D9F4EEC67ADC
:10468000F1EE10FAC0F2CD8247F6FE7048F8220033
:10469000D9F80C000144D1ED007A66EEA77AF4EE69
:1046A000C77AF1EE10FA1ED9F4EEC67AF1EE10FADE
:1046B000C0F2AF8247F6FE714AF8221002329442ED
:1046C0007FF6B1AD51080EEB81008900D0ED007A84
:1046D00066EEA77AF4EEC77AF1EE10FAA0D830466B
:1046E000A6E73046B9E73146E6E73046CEE7002C8C
:1046F00000F0E081BBF1020FD8F8243000F0E18136
:104700007A69DCF8081003EB820EC7F80490930076
:10471000DFED6B5A0EF1040000227B61DCF80C30F7
:104720003B61331DD7F810903D61FD69C7E902CBAD
:104730008C46834656F82210D8ED0C7A07EE101AF4
:1047400053F82210B8EEC76A07EE101A5EF822106E
:10475000F8EEC76A07EE101A26EE256A5BF82210FB
:10476000B8EEC77A66EEA56A26EE276A27EE257AA6
:1047700066EEA76A27EE277A07EE901A51080232F2
:10478000F8EEE77A0AEB8100944280ED006A05EBCF
:10479000810067EEA57AC0ED006A0CEB810009EBA1
:1047A000810180ED007A98ED0C7A67EE877AC1ED91
:1047B000007ABFD8D7F804903D69D7E902CB6046AC
:1047C0006208BB6949469847D8F82C307A69D8ED19
:1047D0000D6A1A449FED3E7A9FED3E6A131D924684
:1047E000DFF8E4C00022FB612B1D364ED9E9008EB4
:1047F0004EE0F4EEC67AF1EE10FAC0F2FC813046DB
:1048000045F822000EEB0100D0ED007A66EEA77AA3
:10481000F4EEC77AF1EE10FA49D9F4EEC67AF1EE69
:1048200010FAC0F2EF813046BBF1020F43F82200CC
:104830002AD0D9F808000844D0ED007A66EEA77AAD
:10484000F4EEC77AF1EE10FA35D9F4EEC67AF1EE4D
:1048500010FAC0F2C98130464AF82200D9F80C009B
:104860000144D1ED007A66EEA77AF4EEC77AF1EE54
:1048700010FA1ED9F4EEC67AF1EE10FAC0F2AD814C
:104880003146F86940F82210023294427FF6CBACF0
:10489000510808EB81008900D0ED007A66EEA77A16
:1048A000F4EEC77AF1EE10FAA3D86046A8E76046A6
:1048B000BAE76146E5E76046CEE700BF0280FFFF4A
:1048C000000000300082FF7F007E00800000003486
:1048D00004FF7FBF04FF7F3F002C00F0EB807A696C
:1048E0000021D8F82430C7F8109003EB820ED7F8D7
:1048F0001C909300FD610EF104021FED0C6A7B61B8
:10490000331D154656F821204808D8ED0C6ABBF136
:10491000020F82F40002A2F5000207EE902A53F87B
:10492000212082F40002B8EEE77AA2F5000227EE19
:10493000067A07EE902A0AEB8002F8EEE77A27EE75
:10494000267A67EE867A82ED007A09EB80024FEADA
:10495000800067EEA67AC2ED007A27D05EF82120AB
:1049600082F40002A2F5000207EE902A55F82120F9
:1049700082F40002B8EEE77AA2F5000227EE067A8A
:1049800007EE902ADCF80820F8EEE77A024427EEDA
:10499000267A67EE867A82ED007A98ED0C7ADCF85A
:1049A0000C2067EE877A0244C2ED007A02318C4215
:1049B000A8D8D7F8109060466208BB694946FD69DF
:1049C0009847D8F82C307A69D8ED0D6A1A441FED53
:1049D000407A1FED406A131D9246DFF8C4C20022E0
:1049E000FB612B1DAB4ED9E9008E4EE0F4EEC67A8A
:1049F000F1EE10FAC0F2C580304645F822000EEB09
:104A00000100D0ED007A66EEA77AF4EEC77AF1EEF7
:104A100010FA49D9F4EEC67AF1EE10FAC0F2BF806E
:104A20003046BBF1020F43F822002AD0D9F8080023
:104A30000844D0ED007A66EEA77AF4EEC77AF1EE7C
:104A400010FA35D9F4EEC67AF1EE10FAC0F2AE8063
:104A500030464AF82200D9F80C000144D1ED007A22
:104A600066EEA77AF4EEC77AF1EE10FA1ED9F4EEEC
:104A7000C67AF1EE10FAC0F28B803146F86940F840
:104A80002210023294427FF6CEAB510808EB81002F
:104A90008900D0ED007A66EEA77AF4EEC77AF1EEDF
:104AA00010FAA3D86046A8E76046BAE76146E5E792
:104AB0006046CEE7224649466046BB699847FFF705
:104AC000B2BBC7F810B0002298ED0C6A331DDFEDC1
:104AD000726AD7F81CB0786956F8221007EE901A5F
:104AE00053F82210B8EEE77A07EE901A5108023216
:104AF000F8EEE77A27EE267A0AEB810E94420BEB6A
:104B0000810167EEA67A27EE067A67EE867A8EED49
:104B1000007AC1ED007ADFD88300D7F810B07B614E
:104B20004DE61A46C7F810B098ED0C6A331DDFED5C
:104B30005B6AD7F81CB0786936F9221007EE101AB4
:104B400033F9221007EE901AB8EEC77A51080232F4
:104B5000F8EEE77A27EE267A0AEB810E94420BEB09
:104B6000810167EEA67A27EE067A67EE867A8EEDE9
:104B7000007AC1ED007ADFD88300D7F810B07B61EE
:104B800034E5F0EE675AFEEEE45A15EE900A34E78B
:104B9000F0EE675AFEEEE45A15EE901A6EE7F0EE6C
:104BA000675AFEEEE45A15EE900A3AE7F0EE675ABD
:104BB000FEEEE45A15EE900A4BE767EEA57AFDEE9D
:104BC000E77A17EE900A00B232E567EEA57AFDEEBD
:104BD000E77A17EE900A00B23FE5F0EE675AFEEE74
:104BE000E05A15EE901A4CE6F0EE675AFEEEE05AE7
:104BF00015EE900A30E6F0EE675AFEEEE05A15EE3A
:104C0000900AFDE5F0EE675AFEEEE05A15EE900AC6
:104C10000AE667EEA57AFDEEE77A17EE901A09B27A
:104C20004AE567EEA57AFDEEE77A17EE900A00B244
:104C30002CE5F0EE675AFEEEE45A15EE902A1FE4DA
:104C400067EEA57AFDEEE77A17EE902A12B2FFF72B
:104C500031BBF0EE675AFEEEE45A15EE902AFFF7EC
:104C6000FDBBF0EE675AFEEEE05A15EE902AFFF714
:104C70009BBBF0EE675AFEEEE05A15EE902AFFF766
:104C800080BB67EEA57AFDEEE77A17EE902A12B2A6
:104C9000FFF724BB82FF7F000000003000000038D7
:104CA0007E0080FF30B5184C154685B0046004F1D5
:104CB000080EEC460FC98EE80F00D4ED047AF5EE2D
:104CC000C07A8CE80F00F1EE10FA1ADDB7EE006A38
:104CD00094ED057A27EE277AC6EE276A84ED0D7AE1
:104CE000C4ED0C6A6DB1204640F8185F02F084F8FC
:104CF000064903690020064A2162A262E36005B00A
:104D000030BD012005B030BDE8B7002400200030E0
:104D10000000003000680830704700BFB1F5807FA8
:104D200003680A4628BF4FF48072B1F5807F9A600D
:104D300094BF0020012070470068183002F0C8B806
:104D400070B504688AB0A369E160CBB104F11805BD
:104D5000284602F051F88446EE46E668BCE80F00AB
:104D6000AEE80F00BCE80F00AEE80F009CE80300BF
:104D70008EE8030069462846049601F045FFF8B91D
:104D8000E069D8B104F11C05284602F035F88446E4
:104D9000EE46E468BCE80F00AEE80F00BCE80F0088
:104DA000AEE80F009CE803008EE803006946284641
:104DB000049401F029FF003818BF01200AB070BD2B
:104DC00001200AB070BD00BF30B5046883B00D4645
:104DD000E3694BB1A3680020E26A616A9B0000901E
:104DE00004F11C0002F00AF8A3680748A26A9B00BD
:104DF000216A009004F1180002F000F80020C4E9D4
:104E0000005003B030BD00BFE940000810B5046891
:104E1000A3691BB104F1180002F04EF8E3691BB15D
:104E200004F11C0002F048F8002010BD10B4074B3C
:104E30004FF07E5130240022032019619C60D8601D
:104E40005DF8044B5961C3E906227047E8B70024B6
:104E5000F6EE007A9FED166A20EE207A0160F7EEFA
:104E6000006A80ED036A80ED020A27EE277AC6EE1B
:104E7000877AF4EEE67AF1EE10FA11DDF0EE667A5A
:104E80004FF07E514FF0000C02760022C0ED017A07
:104E9000C0F814C0016143768276C0ED070A7047FE
:104EA000F4EEC67AF1EE10FAEAD5F0EE467AE7E7CC
:104EB000000000000268037E128807EE902AFBEED5
:104EC000C87A1BB1B7EE007A77EE677AD0ED056A43
:104ED00090ED047A77EEE67A437E67EE877A0BB13F
:104EE000F1EE677A90ED030A90ED017A77EEC07AE1
:104EF000A7EE270A80ED030A704700BF837E80ED8E
:104F0000020AABB9D0ED077A27EE800AF6EE007AF6
:104F1000B7EE007A20EE270AC7EE007AF4EEC77AE1
:104F2000F1EE10FA07DDF0EE477AC0ED017A704736
:104F3000DFED067AE8E7F5EEC07AF1EE10FAF4D587
:104F4000DFED037AC0ED017A704700BF6F12033BBB
:104F50000000000030B585B004460025ADF80C1007
:104F6000ADF80820ADF8043003F0ECFABDF80C20E1
:104F70004FF48073206004F118002283BDF80820EC
:104F80006383E383A283257100F00AFE04F11C0011
:104F900000F006FE9FED060A019904F1080000F0FA
:104FA00065F94FF6FF736562238405B030BD00BF1D
:104FB00000000000F8B5044603F0C4FA0026236898
:104FC0002671834205D104F10800BDE8F84000F0E5
:104FD00067B9012794F82050206004F11800BD4003
:104FE000277100F0B9FE6DB2284394F82150BD40FE
:104FF00084F8200004F11C0000F0AEFE94F820308C
:105000006DB2666203F003032843022BC0B284F83A
:10501000210009D000F003000228D4D1002BD2D106
:105020004FF0FF336362CEE78307CCD16762CAE7F4
:10503000704700BFF8B5134F3C687F2C07D9802319
:10504000114A42F224411C463B60A2F87E100F4DEB
:105050002B68012B0AD90C4E0D4D224631462846AD
:1050600000F04CF90028F8D13860F8BD2246064916
:10507000074800F043F90028F7D12B683860013366
:105080002B60F8BD24B8002428B8002420B80024E0
:10509000A8B8002430B4154C2168F1B14B1E144D52
:1050A000E81810F801298C4619460A2A01D00D2A61
:1050B00002D14BB1013BF4E70CF102037F2B10D975
:1050C0008023236030BC70470122022323600D201F
:1050D0000A236854AB5430BC704701220223044DAC
:1050E000F4E70CF101026146F0E700BF24B80024A8
:1050F00028B8002410B5094C02460B460848216820
:105100000844C1F1800114F0F1FE236818442060C6
:10511000FFF7C0FFFFF78EFF10BD00BF24B80024CB
:1051200028B800240FB400B583B004A951F8040BCB
:105130000191FFF7DFFF03B05DF804EB04B07047A7
:10514000064A0749074808B512F0ACFE034A04496D
:105150000548BDE8084012F0A5BE00BF00000024CD
:1051600031500008A8B80024ACB80024074A1188C0
:1051700030B481800024064D91884FF480728560A0
:105180000460C180C26030BC704700BFC8C0010865
:105190000040003000220A2302700371704700BFF4
:1051A00030B585B004469FED110A9DF82050ADF84A
:1051B0000C100399ADF808202A46ADF804308DEDA7
:1051C000000A11F031F99DED000A2A46029904F116
:1051D0001C0011F029F99DED000A2A46019904F1FD
:1051E000380005B0BDE8304011F01EB900007A4427
:1051F00010B52DED028BF0EE608A0446B0EE418AC8
:1052000011F036F904F11C00B0EE680A11F030F923
:10521000B0EE480A04F13800BDEC028BBDE8104046
:1052200011F026B938B50C46054691ED000A11F08B
:105230001FF994ED010A05F11C0011F019F994ED24
:10524000020A05F13800BDE8384011F011B900BF7D
:1052500010B5044611F01EF904F11C0011F01AF902
:1052600004F13800BDE8104011F014B970B50446DF
:1052700082B0C1F30726CDB2ADF8041003F062F995
:105280004FF480724FF001232060A01DA571A28011
:10529000E671A36002B0BDE8704000F081BC00BFC1
:1052A00038B5044603F04EF9002223682271834288
:1052B00010D00122A57AE37A954020602271A01DCA
:1052C0006DB243B900F048FD40B22843C0B27F2818
:1052D000A0720AD038BD00F03FFDB0FA80F040095E
:1052E0002843C0B27F28A072F4D103F02BF907EE57
:1052F000900AF8EE677AC4ED037A38BD084691B299
:1053000008B503F055FB003818BF012008BD00BFE9
:10531000014807F063B900BF80D70024014807F0B7
:105320005DB900BF80D70024014807F057B900BF1E
:1053300080D7002400B583B04FF0000E4FF0030C6F
:105340004274ADF80410BDF8043080F810E0A0F805
:1053500002C0038003B05DF804FB00BF2DE9F04FED
:10536000DFF81C8300258DB0C04C037008F14003AA
:105370004260074601920E46202229464046C4F864
:105380006831C4F86481CDE90255CDE90455CDE911
:105390000655CDE90855CDE90A5513F099FF2022AD
:1053A000294604F5A170C4F83151C4F83551C4F848
:1053B0003951C4F83D5113F08BFF019B84F84852DA
:1053C00084F830317A68002A6AD02B4604F5987147
:1053D000454606F1100A9E46F01856F803B0E2184A
:1053E0000EF1010ED0F80CC0D0F80490D0F808806F
:1053F00044F803B0C2F80CC04FF0000CC2F804909F
:10540000C2F80880008A25F802CB10821AF803201F
:1054100001F8012F002A70D07A684FF00100123392
:10542000724584F84802D7D84FF4802290489DF8FE
:10543000043008214FF000084FF00009C4F884310F
:105440000023C4E95B020122C4F8743184F880317E
:10545000C4E95E2194F84812C4E96489A9B3C4F888
:105460009821002284F8813184F888313B78C4E99E
:105470006722002B38D0012200200121013B84F853
:10548000A421C4E96C01082B30D8DFE813F0BD007B
:10549000C200C700CC00D100D600DB00E100E8006C
:1054A0009DF804300121C4F87421C4F884314FF40C
:1054B000802384F880216E4AC4E95B2308230022FC
:1054C000C4E95E130023C4E964230123002284F8A5
:1054D0008131002384F888310323C4F898313B7864
:1054E000C4E96722002BC6D184F8A431614804F0D6
:1054F0009BFB034638B1FFBEFEE77A681233724564
:105500003FF66AAF90E702A95A48029304F0EAFC1A
:105510008246002876D1042240F2FF710A90CDE93C
:10552000081294F83021002A00F0F3804FF00608AA
:105530000AEBCA034FEACA0904EB43035B7C072B5F
:1055400007D8DFE803F0595C5653504D4A0407234F
:1055500007930FFA8AF6D14406EBC60604EB490915
:1055600004EB46077500384600F01AFB99F8103036
:10557000042B00F3AA80022B00F3BD8000F0B98059
:1055800004EB0A03002283F8202114F81630002BC4
:1055900078D0022B00F08A80012B40F0B2807B781B
:1055A000012B00F0B080002B334B18BF002305A95E
:1055B0003048CDE9053803F063FF002840F0AC80A7
:1055C0000AF1010A94F830315FFA8AFA534540F241
:1055D000A0802A4B53F82A80AAE706230793B8E74E
:1055E00005230793B5E704230793B2E70323079343
:1055F000AFE702230793ACE700230793A9E7012352
:105600000793A6E7FFBEFEE703224023C4E96A230F
:105610006CE707226023C4E96A2367E70F2280232F
:10562000C4E96A2362E71F22A023C4E96A235DE775
:105630003F22C023C4E96A2358E77F22E023C4E95C
:105640006A2353E7FF224FF48073C4E96A234DE7CE
:1056500040F2FF124FF49073C4E96A2346E740F228
:10566000FF324FF4A073C4E96A233FE750BB002424
:1056700000200240BCBC00240002B02574C6010812
:10568000004100307B78062B37D0072B3DD0022B12
:105690004AD0032B4AD0002B4CD0012B48D0042BEE
:1056A0004AD0052B254B18BF002380E77B78042BBD
:1056B00025D0052B2BD08BB3012B31D0022B31D031
:1056C000032B1F4B18BF002371E70323043504EBA2
:1056D0000A0B4FF0000925448BF82031284609F1C8
:1056E000010900F05DFA9BF8203104354B45F5DCEB
:1056F0004BE70123EAE70223E8E7124B57E7124B97
:1057000055E7002353E7114B51E7114B4FE7114B7E
:105710004DE70DB0BDE8F08FFFBEFEE70E4B46E74C
:105720000E4B44E70E4B42E70E4B40E70E4B3EE775
:105730000E4B3CE70E4B3AE70E4B38E70000B84FF4
:10574000002090360800900C1000C0102000F014CB
:105750008000501D000180210004002A0008302E26
:10576000001060320040C03A0080F03E0000524716
:10577000000021430000844B38B5094C40F2FF7211
:105780004FF0011104F5B675284604F059FB94F862
:105790003021D4F864112846BDE8384004F0C4B87C
:1057A00050BB0024034B0F29D3F8640198BF00EBD2
:1057B0004100704750BB0024214B02689A4200D040
:1057C0007047204A00232048D2F8D81030B51F4C2B
:1057D00041F0200183B0C4F8D001092004F5E87538
:1057E000C4E975034FF48060C2F8D810D2F8D8200D
:1057F0004FF40061C4E9773094F8480202F02002C7
:10580000C4F8E4114FF40051984201922846C4F8BC
:10581000E811C4E97C33019B14BF00234FF480736B
:10582000C4F8EC3104F084FD08B1FFBEFEE704F5D6
:10583000B673C4F8B851C4F8083203B030BD00BF25
:1058400000200240004402584000024050BB0024A7
:10585000014805F0F3B900BF20BD002402682DE91E
:10586000F84F4B4B9A4201D0BDE8F88F494D95F85F
:105870004832002BF8D095F83031002B77D0002437
:1058800005F10C0905F5A17605F59877A04613E01A
:1058900003F0010117F811BCA9F1080000F06AFA41
:1058A000BBF1010F25D895F83031013409F1120907
:1058B0000236A2B293422BD917F8012F002AF4D056
:1058C000D5F864310021327833F81400D5F8683106
:1058D00003EB041323F81200338801339BB23380A7
:1058E0005FFA83FA3A789A42D2D88A46A6F80080BC
:1058F000D0E7CAF34001A9F1040000F03BFABBF184
:10590000020FCAF38001CED0484600F033FACAE74E
:10591000002395F84802204909229842C5F8D83159
:105920004FF48060C5F8D011C5F8D4214FF4006160
:105930004FF40052C5F8DC3108BF4FF48073C5F84E
:10594000E821C5E9780100221448C5E97B32C5F891
:10595000F42104F0EDFC08B1FFBEFEE795F830211C
:10596000D5F864110E48BDE8F84F03F0DDBF0A49D1
:1059700009224FF48060C5F8D831C5E974124FF49C
:1059800000614FF40052C5E97730C5E97912DAE7D2
:105990000020024050BB00244000024020BD0024F3
:1059A000BCBC0024704700BF10B592B0ADF8041025
:1059B0000180C9B2149C0B29C460C0E901233FD007
:1059C00090F801C0BCF10F0F3AD8022A3FD0032A49
:1059D00002D0012A00D000220E92012B02D0022B0D
:1059E00018BF0023022C0F932CD0032C2AD0012C9B
:1059F00028D000230A29109327D85C4A02EB812281
:105A000002610A2914D8DFE801F0A39587796B5D5C
:105A10004F4133250600564BD3F8E01041F4806126
:105A2000C3F8E010D3F8E03003F480630C930C9BD0
:105A300001230DA9104603FA0CF30D9305F050FC59
:105A400012B010BD0A291094D7D90022D8E711222C
:105A50000E92C2E7464BD3F8E01041F40071C3F850
:105A6000E010D3F8E03003F400730B930B9BDFE7F7
:105A70003F4BD3F8E01041F48071C3F8E010D3F845
:105A8000E03003F480730A930A9BD1E7384BD3F8D4
:105A9000E01041F08001C3F8E010D3F8E03003F0EB
:105AA00080030993099BC3E7314BD3F8E01041F021
:105AB0004001C3F8E010D3F8E03003F0400308934E
:105AC000089BB5E72A4BD3F8E01041F02001C3F85A
:105AD000E010D3F8E03003F020030793079BA7E71B
