:020000040800F2
:1000000000000220990600089506000845740008C3
:1000100095060008950600089506000800000000F7
:10002000000000000000000000000000950600082D
:10003000950600080000000095060008C973000836
:100040009506000895060008950600089506000824
:100050009506000895060008950600089506000814
:10006000950600089506000895060008695C0008DA
:10007000755C0008194B0008815C00088D5C000865
:10008000456E00089951000895060008950600087D
:1000900095060008950600089506000895060008D4
:1000A00095060008950600089506000895060008C4
:1000B00045620008516200085D620008CD510008E9
:1000C00095060008D9510008950600087D650108CD
:1000D00089650108796C0008A56C0008D96C0008D6
:1000E0009506000895060008000000009506000827
:1000F0009506000895060008950600089506000874
:1001000095060008156000086962000895650108F9
:100110000D6D0008416D0008950600089506000861
:100120009506000895060008B9650108ED65010807
:10013000796E0008950600089506000895060008E7
:1001400000000000000000000000000000000000AF
:10015000950600089506000895060008756D0008CC
:10016000E551000895060008D9730008FD730008E2
:1001700095060008217400089506000895060008F9
:100180009506000895060008A96D0008DD6D0008B9
:10019000A1650108AD6501089506000895060008EF
:1001A00095060008950600089506000895060008C3
:1001B000895900089506000895060008950600086C
:1001C0009506000895060008054600081146000837
:1001D000950600081D4600089506000895060008CB
:1001E0009506000895060008950600089506000883
:1001F0009506000895060008950600089506000873
:100200009506000895060008950600089506000862
:100210009506000895060008950600089506000852
:1002200095060008950600089506000800000000E5
:1002300095060008950600080000000095060008D5
:100240009506000895060008950600089506000822
:100250009506000895060008950600089506000812
:100260009506000895060008950600089506000802
:100270009506000895060008116E000800000000B1
:100280009506000895060008950600080000000085
:080290000000000095060008C3
:1002A00010B5054C237833B9044B13B10448AFF3B0
:1002B00000800123237010BD780700240000000097
:1002C000BCC7010808B5034B1BB103490348AFF392
:1002D000008008BD000000007C070024BCC70108A6
:1002E000034613F8012B002AFBD1181A0138704776
:1002F00001F0FF01102A2BDB10F0070F08D010F8D7
:10030000013B013A8B422DD010F0070F42B3F6D1DA
:10031000F0B441EA012141EA014122F007047FF0F3
:1003200000070023F0E80256083C85EA010586EA4A
:10033000010685FA47F5A3FA87F586FA47F6A5FA86
:1003400087F68EB9EED1F0BC01F0FF0102F0070292
:1003500032B110F8013B013A83EA010313B1F8D13D
:100360000020704701387047002D06BF354603381E
:10037000073815F0010F07D1013015F4807F02BF57
:10038000013015F4C03F0130F0BC0138704700BFA8
:1003900053B94AB9002908BF00281CBF4FF0FF31EC
:1003A0004FF0FF3000F074B9ADF1080C6DE904CEE8
:1003B00000F006F8DDF804E0DDE9022304B0704740
:1003C0002DE9F047089D04468E46002B4DD18A4208
:1003D000944669D9B2FA82F252B101FA02F3C2F13B
:1003E000200120FA01F10CFA02FC41EA030E9440CC
:1003F0004FEA1C48210CBEFBF8F61FFA8CF708FBED
:1004000016E341EA034306FB07F199420AD91CEBC4
:10041000030306F1FF3080F01F81994240F21C81F6
:10042000023E63445B1AA4B2B3FBF8F008FB10333E
:1004300044EA034400FB07F7A7420AD91CEB040473
:1004400000F1FF3380F00A81A74240F20781644443
:10045000023840EA0640E41B00261DB1D4400023C8
:10046000C5E900433146BDE8F0878B4209D9002D2C
:1004700000F0EF800026C5E9000130463146BDE8B6
:10048000F087B3FA83F6002E4AD18B4202D3824220
:1004900000F2F980841A61EB030301209E46002DCF
:1004A000E0D0C5E9004EDDE702B9FFDEB2FA82F224
:1004B000002A40F09280A1EB0C014FEA1C471FFA82
:1004C0008CFE0126200CB1FBF7F307FB131140EA69
:1004D00001410EFB03F0884208D91CEB010103F136
:1004E000FF3802D2884200F2CB804346091AA4B2F8
:1004F000B1FBF7F007FB101144EA01440EFB00FECC
:10050000A64508D91CEB040400F1FF3102D2A64530
:1005100000F2BB800846A4EB0E0440EA03409CE7CF
:10052000C6F12007B34022FA07FC4CEA030C20FA7C
:1005300007F401FA06F31C43F9404FEA1C4900FA9C
:1005400006F3B1FBF9F8200C1FFA8CFE09FB181119
:1005500040EA014108FB0EF0884202FA06F20BD98C
:100560001CEB010108F1FF3A80F08880884240F2DC
:100570008580A8F102086144091AA4B2B1FBF9F020
:1005800009FB101144EA014100FB0EFE8E4508D91B
:100590001CEB010100F1FF346CD28E456AD90238A0
:1005A000614440EA0840A0FB0294A1EB0E01A14285
:1005B000C846A64656D353D05DB1B3EB080261EBF3
:1005C0000E0101FA07F722FA06F3F1401F43C5E9CD
:1005D000007100263146BDE8F087C2F12003D84003
:1005E0000CFA02FC21FA03F3914001434FEA1C4745
:1005F0001FFA8CFEB3FBF7F007FB10360B0C43EA37
:10060000064300FB0EF69E4204FA02F408D91CEBE6
:10061000030300F1FF382FD29E422DD902386344E4
:100620009B1B89B2B3FBF7F607FB163341EA034184
:1006300006FB0EF38B4208D91CEB010106F1FF38D3
:1006400016D28B4214D9023E6144C91A46EA0046CA
:1006500038E72E46284605E70646E3E61846F8E65C
:100660004B45A9D2B9EB020864EB0C0E0138A3E7A5
:100670004646EAE7204694E74046D1E7D0467BE786
:10068000023B614432E7304609E76444023842E7FE
:10069000704700BFFEE7000009480A4A0A49121ADB
:1006A00018F018F809480A4A0021121A18F020F820
:1006B00007F020F917F0DAFF01F02CFDFEE700BF8C
:1006C0000000002474070024F4C701087807002400
:1006D00000250724034B1A1803EB80035B68107B8B
:1006E0005B681847A4090024064B1A5C42B9012232
:1006F0001A541A1803EB8003107B5B681B681847B9
:1007000000207047A409002430B4054C251804EBE0
:10071000800460688468287BA44630BC604700BFC2
:10072000A409002430B4054C251804EB800460684B
:10073000C468287BA44630BC604700BFA4090024DD
:10074000054B10B41C1803EB80035B68207B1B690E
:100750005DF8044B184700BFA409002400687047E7
:100760000B0A017043700B0C090E8370C170704747
:10077000024400F8011B9042FBD17047C369023963
:10078000023B8B4283BF4389006B01FB03000020C7
:1007900070470268490A836A52890433B1FBF2F157
:1007A000186830B1814202D3091A0833F8E7586853
:1007B00008447047C2F307238A76CB760378032B6D
:1007C00001BF120C0A75120A4A75704700F10B013D
:1007D0000022D30143EA520310F8012B52FA83F3AB
:1007E0008842DAB2F5D1104670470000036801462E
:1007F00010B553B11846024610F8014B1F2C10D902
:100800003A2CF8D1581C824202D04FF0FF3007E05A
:100810001B78303BD8B20128F7D8013218460A605D
:1008200010BD014B1878FBE79407002438B50D463E
:10083000044618B9092000232B6038BD0368002B3B
:10084000F8D01A78002AF5D08188DA889142F1D15F
:100850005878FFF73FFF10F00100EBD12368EBE77A
:100860002DE9F0410025D0F8008006460C468D7534
:100870008369002B59D0C36A01330AD001F11607EE
:10088000D8F80C3033F81500002850D12544002347
:10089000AB75F1690023A57D2E274E1E184616F86C
:1008A000012F0130202A26D0052A08BFE522092879
:1008B00007D104EB030C0DB98CF8167001338CF8DA
:1008C000097004EB030C8CF809209DB9A2F1410ECC
:1008D000BEF1190F0CD8082891F80C808CBF4FF08E
:1008E000100E4FF0080E18EA0E0F1CBF2032D2B2C5
:1008F0008CF8162001330B28D1D12DB9E21895754B
:100900000A7B002A08BF00232344002201F11C00B7
:100910005A72CB7A2372FFF721FF206001F1160093
:10092000FFF71CFFE080000CA080BDE8F0810021F3
:1009300001F08CFB30B10135B5F5807F02D007F8AE
:10094000010B9DE70025A1E701380A4411F8013B9E
:10095000914200F8013FF9D170472DE9F041466B13
:1009600000F1380804460123324641464078FFF73B
:10097000D9FE0546A8B9A36A226AF31AE070934229
:1009800002D2A778012F02D82846BDE8F081236A59
:1009900041466078013F1E4401233246FFF7C2FE04
:1009A000F0E70125F0E7C3780BB1FFF7D6BF184693
:1009B000704738B5436B05460C468B4210D0FFF7A5
:1009C000F2FF60B92246012305F138016878FFF78C
:1009D0009BFE00281CBF4FF0FF3401206C6338BD24
:1009E0000020FCE7002310B5C3704FF0FF3304462E
:1009F0004363FFF7DEFF034618BBB4F836124AF62E
:100A0000552291421FD194F83820E92A05D0A26BD3
:100A10000F4902F0FF128A4217D104F16E000D4A0D
:100A2000FFF79CFE20F07F40904208D002F14C522C
:100A300004F18A00FFF792FE904218BF0223184685
:100A400010BD0423FBE70323F9E70223F7E700BF08
:100A5000EB009000464154002DE9FF4100230F4672
:100A600015460B60FFF7C2FE061EC0F213818C4BC9
:100A700053F82640002C00F00F813C6005F0FE0585
:100A800023786BB16078FFF725FEC10708D41DB14C
:100A900010F0040500D00A25284604B0BDE8F08116
:100AA0000023F0B223706070FFF71EFEC20700F152
:100AB000F5800DB14307EED400212046FFF792FFE9
:100AC000022840F0CC806F4604F5FF7304F23E210B
:100AD0003A4613F8040C10B11846FFF73FFE1033E6
:100AE00042F8040B8B42F4D1002557F8046B002E1A
:100AF00000F0AC8031462046FFF774FF012800F279
:100B0000A680B4F84330B3F5007F40F0AC80B4F871
:100B10004E1021B904F15C00FFF720FE014694F865
:100B2000483021625A1EA370012A00F29C8094F87A
:100B300045506581002D00F096806A1E2A4240F0E3
:100B40009280B4F8498018F00F0FA4F8088040F0A4
:100B50008A80B4F84B0018B904F15800FFF7FEFD85
:100B6000B4F84670002F7ED001FB03FE07EB181C83
:100B7000F444604577D3A0EB0C02AA42B2FBF5F334
:100B800071D34FF6F572934271D840F6F575AB42CA
:100B90008CBF02250125023337440CEB0602032DDE
:100BA000E3616662A762226363D1B4F8622052EA0D
:100BB000080258D19B0004F16400FFF7CFFDE0620A
:100BC00003F2FF13B1EB532F4DD34FF0FF33032D3F
:100BD000C4E904334FF0800323712BD1B4F868309B
:100BE000012B27D1711C2046FFF7E3FE10BBB4F8A0
:100BF00036224AF6552320719A421BD1294B04F123
:100C00003800FFF7ABFD984214D103F1FF5304F510
:100C10000770FFF7A3FD03F500532033984209D175
:100C200004F50870FFF79AFD606104F50970FFF79D
:100C300095FD20611C4A257000251388A5610133AC
:100C40009BB21380E380194BE36025E70320013555
:100C5000042D7FF44AAF042805D101251CE70428A0
:100C6000FBD0012801D90D2516E7002649E7032509
:100C700091E7B8F1000FF6D0022D4FEA4302774416
:100C80001ABFD21803F001031346E76218BF03EB43
:100C9000520395E70B25FFE60C25FDE60325FBE651
:100CA0009807002452526141A0070024A2070024A3
:100CB00001292DE9F04706460C46174674D9C36949
:100CC0008B4271D90378022B40D0032B51D0012BDA
:100CD0006AD101EB5108816A01EB5821FFF769FEE7
:100CE000054640BB14F0010406F1380908F1010A79
:100CF000C8F3080808BFFBB230461FBF19F8083018
:100D000003F00F023B0103F0F00318BF134309F88F
:100D100008300123B16AF37001EB5A21FFF749FE55
:100D2000054640B9CAF3080A44B1C7F3071709F8E2
:100D30000A700123F3702846BDE8F08719F80A30DD
:100D4000C7F3032723F00F031F43F0E7816A01EB8A
:100D50001421FFF72EFE05460028ECD1640006F1B1
:100D6000380304F4FF741F551819C7F30727477099
:100D7000DFE7816A01EBD411FFF71BFE054600286F
:100D8000D9D1A40006F1380327F0704704F4FE74AB
:100D90001C442046FFF7E2FC00F0704047EA0001E7
:100DA0002046FFF7DDFCC4E70225C4E7F8B504469A
:100DB000FFF7F9FD0546002842D12378032B37D1F0
:100DC0002779012F34D104F13806552301464FF419
:100DD00000723046FFF7CCFC84F83632AA23412259
:100DE000722104F5087084F83732522384F83B20CE
:100DF00084F8383084F83930612384F81C1284F880
:100E00003A3084F81F3284F81D1284F81E2261697A
:100E1000FFF7A6FC216904F50970FFF7A1FC626ADF
:100E20003B463146013260786263FFF77BFC2571F7
:100E3000002260781146FFF783FC003818BF0120BC
:100E4000F8BD03284B8B04BF8A8A43EA0243184645
:100E500070470129F8B506460C464ED9C369994238
:100E60004BD20378022B29D0032B34D0012B44D151
:100E700001EB5105816A01EB5521FFF79AFD10B195
:100E80004FF0FF30F8BD6F1CC5F30805B16A30465E
:100E9000354401EB572195F83850FFF78AFD0028BB
:100EA000EED1C7F30807E3073E4496F8380045EA59
:100EB00000204CBF0009C0F30B00E3E7816A01EB9F
:100EC0001421FFF776FD0028DAD1640004F4FF74E2
:100ED0002644308FD6E7816A01EBD411FFF769FD14
:100EE0000028CDD1A40006F1380004F4FE7420449B
:100EF000FFF734FC20F07040C4E70120C2E773B56F
:100F00000C46064611460568012C2CD9EB69A34214
:100F100029D92AB14FF0FF322846FFF7C9FE40B960
:100F2000214630680194FFF794FF0199044610B9F7
:100F3000002002B070BD012815D0431C15D000223E
:100F40002846FFF7B5FE0028F3D1EA696B69911EC8
:100F50008B4205D201336B612B7943F001032B7176
:100F6000A242DDD8E4E70220E3E70120E1E72DE932
:100F7000F041804605680F4671B92E69EEB1EB6904
:100F8000B34298BF012634460134EB69A34217D817
:100F9000012E14D8002406E02846FFF75AFF012846
:100FA000044603D801242046BDE8F081431C30D01C
:100FB000EB698342F7D83E46E5E70126E3E70224E2
:100FC0002146D8F80000FFF744FF30B10128E9D0EE
:100FD00001301ED0B442D7D1DCE74FF0FF322146BA
:100FE0002846FFF765FE90B957B9EA696B69023A7E
:100FF0002C61934210D92B7943F001032B71D2E776
:10100000224639462846FFF753FE0028EDD0012836
:10101000C8D14FF0FF34C6E7013B6B61EBE7B1F598
:10102000001FF8B506460C4601D30220F8BDCA06DB
:10103000FBD1826805680161CAB92B78022B01D9FE
:10104000EB6A9BB92B89B3EB541FEED9EB6AB36102
:10105000B3697261002BE8D003EB54233835C4F335
:1010600008040020B3612C44F461DFE71A466F895D
:101070007F02BC42114604D22846FFF77FFBB061D5
:10108000E6E73068FFF7E5FE431C024606D001287C
:10109000CBD9EB698342C8D9E41BEAE70120C5E755
:1010A00003692DE9F04703F12008836905468A4664
:1010B00093B1B8F5001F0FD2C8F308090468B9F15D
:1010C000000F4DD101334169836139B92389B3EBF5
:1010D000581F45D80023AB6104200BE06789013F0E
:1010E00017EA58273CD12046FFF7B3FE01280646F1
:1010F00002D80220BDE8F087421C01D10120F9E7A7
:10110000E369834226D8BAF1000FE3D06969284623
:10111000FFF72DFF0646002835D00128E9D0431CF3
:10112000ECD02046FFF73FFC01460028E6D104F151
:1011300038004FF400724FF0010AFFF719FB3146F7
:101140002046FFF71BFB606363899F420FD3636BED
:10115000DB1B6363314620466E61FFF70FFBA8611E
:1011600038340020C5F810804C44EC61C2E72046BA
:1011700084F803A0FFF7F1FB0028BFD1636B0137B0
:1011800001336363E0E70720B4E700002DE9F04F87
:10119000002185B00446D0F800B0FFF740FF0646B6
:1011A000002840F098804FF0FF084FF0FF3AC1460A
:1011B000C4F82CA0A1695846FFF7FBFB064600289F
:1011C00040F08980E5692F78002F00F08880EA7A66
:1011D000E52F02F03F03A37103D0100704D50F2BB6
:1011E00004D0C4F82CA050E00F2B56D194F82B302B
:1011F000590640D47A0646D5236907F0BF0795F80B
:101200000D80E3626B7B43453FD16B8B002B3CD160
:101210002E780122DBF80C3006F03F06DFF8C8908C
:1012200000930D23013E5E4319F8013BEB5A7AB35C
:10123000FE2E2AD81846039300F026FF009B711C4F
:10124000029033F81600019100F01EFF029A8242CC
:101250001BD1039B01991A460E46224B9945E3D1B7
:101260002B785B0604D51AB1009B33F8163063B9AE
:10127000013F5FFA87F900212046FFF711FF06467C
:10128000002897D027E0B945BCD04FF0FF09F2E71E
:101290004FF6FF718B42E0D0F7E7B9F1000F04D1B0
:1012A0002846FFF793FA404515D094F82B6016F0C6
:1012B000010696D104F1200205F10B0115F8013B5E
:1012C00012F8010B8D42A3EB000302D0002BF5D0E6
:1012D00087E7002B85D1304605B0BDE8F08F0426A6
:1012E000F9E700BFB1B60108A4B601082DE9F04F37
:1012F00090F82B5089B0044615F0A00540F08E8080
:101300000668F26832F81530002B66D104F1200728
:101310000C2205A83946FFF717FB9DF81F30DB07A5
:1013200040F1858040234FF0010ADFF8348284F8D1
:101330002B300B2205A93846D6F80C90FFF704FB9A
:10134000BAF1050F59D9A9F10201534631F8022F1C
:10135000002A44D10DF11300072203F00F0C013ACB
:101360000CF13001392988BF0CF137010F2B00F83F
:1013700001194FEA131142D802F120037E216B4478
:1013800003F8141C394600239A4205D011F8010BCA
:1013900003F1010C202834D104F11F00072A03F1C6
:1013A000010397BF02F1200120210132694498BF57
:1013B00011F8141C072BC154F0D92046FFF7E6FEA4
:1013C000814670BB0AF1010ABAF1640FB1D14FF046
:1013D0000709484609B0BDE8F08F013592E71020B3
:1013E00002F0010C52080CEB430313F4803F18BFCA
:1013F00083EA08030138F3D1A8E75346AAE70B466E
:10140000ABE76346C0E7804601212046FFF748FE70
:10141000814608B3B9F1040FD9D0DAE74FF00609D5
:10142000D7E70428D5D19DF81F3084F82B309DF8DC
:101430001F3000212046D4F800A09B0745BF0C3583
:101440000D230125B5FBF3F548BF0135FFF7E7FD97
:1014500081460028DED18046A1695046FFF7A9FAEF
:1014600081460028D6D1E3691B78E52B01D0002BFB
:10147000C9D108F101084545C6D1013D55D02169C2
:101480002046A1EB4511FFF7CAFD81460028A0D1F7
:101490004FF6FF783846FFF799F90190A169304679
:1014A000FFF787FA8146002893D1E369E9B2019AF0
:1014B0004FF00D0CD6F80CE05A734FF00F02DFF826
:1014C000A4A0DA724A1E18730CFB02F284469876C6
:1014D000D87640451AF8019B0CF1010C18BF3EF874
:1014E000120003EB090B18BF013203F809004FEAA1
:1014F0001029002808BF4046BCF10D0F8BF8019061
:10150000E7D1404502D03EF812200AB941F040012F
:101510001970012300212046F370FFF7C1FD8146B9
:1015200000287FF456AF013DB8D1A1693046FFF7DE
:1015300040FA814600287FF44CAF01462022E06942
:10154000FFF716F90B223946E069FFF7FDF994F829
:101550002B30E26903F0180313730123F37038E7AB
:1015600021100100A4B601082DE9F843FF27064623
:10157000D0F8008004253C464FF6FF79B16911B9D7
:10158000002D5FD04FE04046FFF713FA05460028D4
:1015900049D1F0690378002B5CD0C27AE52B02F0C8
:1015A0003F02B27144D02E2B42D022F020010829F4
:1015B0003ED00F2A41D1590638D503F0BF04336914
:1015C000477BF362437BBB4232D1428B82BB0378C1
:1015D0000D21D8F80C504FF0010E23F04003DFF836
:1015E00078C0013B4B431CF8011B415ABEF1000F70
:1015F00020D0FE2B1CD825F813108E460133013263
:101600000D2AF0D10278520604D5FE2B10D8002204
:1016100025F81320013CE4B200213046FFF740FDDD
:1016200005460028AAD00023B3610CE0A342C9D02C
:10163000FF24F1E74945E2D0FAE73CB9FFF7C6F8E5
:10164000B84203D100252846BDE8F8834FF0FF33A8
:10165000F362F8E70425E6E7A4B601082DE9F74FA1
:101660000B7805468846D0F800B02F2B01D05C2BB4
:1016700009D142461378904601322F2BFAD05C2BC9
:10168000F8D0002301E0DBF81830AB6098F80030A8
:101690001F2B00F2D88080230021284685F82B30AC
:1016A00003B0BDE8F04FFFF7BABC0134DEE0B4F59B
:1016B000807F00930CD0012100F0C8FC40B17F284E
:1016C000009B07D88F4911F8012B1AB18242FAD139
:1016D000062005E126462AF8020FBDE0022E04D1BD
:1016E000B9F802302E2B00F0D1805EBB002329F820
:1016F0001630002EECD020210B226818FFF738F8A6
:10170000194639F81130202B24D02E2B22D009B1C4
:1017100044F0030437F816302E2B01D0013EF9D1E6
:1017200000234FF0080A1F4639F811004A1C10B375
:10173000202803D02E280FD1964211D044F0030464
:101740001146F1E737F81630202B01D02E2BCDD1E2
:10175000013ECAE70131D4E7534505D296423AD15A
:10176000BAF10B0F30D102E0BAF10B0F27D144F0E0
:1017700003044FF00B0A95F82030E52B04BF052336
:1017800085F82030BAF1080F04BFBF00FFB207F0A0
:101790000C030C2B03D007F00302032A01D144F001
:1017A0000204A00700F1878007F00307012F08BF9C
:1017B00044F01004042B08BF44F008047BE0964278
:1017C00002D044F00304D6D3BF0032464FF00B0AD8
:1017D0000823FFB2B4E77F280ED9002144F00204A9
:1017E000CDE9002300F032FCDDE9002360B1464979
:1017F000084410F8800C38B1DFF810C11CF8011B48
:10180000002972D08142F9D144F003045F20E91825
:10181000013381F8200093E747F00207F7E7002A39
:1018200008BF05205CE05A075AD4AB79DB065AD5CD
:1018300029690BF138039BF80000C1F30801194432
:10184000FFF7FFFAA8602B680026D3F80C9008F188
:10185000FF33A9F10207BA4613F8010F741C1F28C1
:101860000CD92F2802D05C287FF421AF18F804305F
:101870002F2B3FF41AAF5C2B3FF417AF2028A04466
:1018800034BF04240024012E7FF428AFB9F80030BF
:101890002E2B7FF42AAF002305F1200229F8163001
:1018A0009E428CBF2E21202101330B2B02F8011BFD
:1018B000F6D144F02004284685F82B40FFF766FC5B
:1018C00095F82B300028AED0042809D1990603F0F2
:1018D0000402A4D5002AB6D08023002085F82B303E
:1018E00003B0BDE8F08F0520FAE7A0F14101192906
:1018F00092D9A0F1610119299EBF203847F0010754
:1019000080B284E714B6010824B601081DB60108A8
:101910001FB5CDE9001003A814460391FEF766FF3A
:10192000031E15DB0C4A52F8231009B10020087081
:10193000019808B10021017042F8230030B1012C58
:1019400008D1002201A96846FFF786F804B010BD4F
:101950000B20FBE70020F9E7980700242DE9F04170
:1019600090B0174604460191002800F0D48002F0A0
:101970003F0603A901A83246FFF76EF80546002886
:101980004FD1039B04A801990493FFF767FE20B988
:101990009DF93B30002BB8BF062017F01C0F00F05C
:1019A0009A80002844D004283BD104A8FFF79EFC6D
:1019B000002836D146F0080605F002FD01460090E9
:1019C00020220B980E30FEF7CBFE0B9800991630B4
:1019D000FEF7C6FE0B9BDDF80C80DA720B9998F8C7
:1019E0000000FFF72EFA002207464046FEF7E2FE0F
:1019F0000B9B002201211A775A779A77DA77039B9B
:101A0000D970F7B1394604A8D3F83480FFF777FAD4
:101A100038B941460398FEF7CCFF013F039B1F6195
:101A200078B1002305462360284610B0BDE8F08158
:101A30009DF8163013F0110F57D1780765D4390788
:101A4000BAD4039F31070B997B6B48BF46F0400621
:101A5000616223623878FFF7F4F9A06001F11C009D
:101A60000021FEF77BFEFB88276004F12C074FF472
:101A70000072E060A1623846A38026746174E1615F
:101A80006161FEF775FEB206CED5D4F80C80B8F1D0
:101A9000000FC9D0039BA1685E89C4F81480760248
:101AA000464524D30020A1610028BAD1C8F3080319
:101AB000002BB9D0039E3046FEF760FE48B300EB22
:101AC000582201233946E2617078FEF71DFE002896
:101AD000AAD00120A5E70028A3D19DF81630DA0688
:101AE00015D4BF07ADD5D807ABD5072099E7206837
:101AF000A8EB0608FFF7ADF90128014603D9431CFE
:101B0000CED10120CFE70220CDE7082089E70420CD
:101B100087E7022085E7092586E72DE9F04F87B0A2
:101B200016468946044601930023019A05A91360CD
:101B3000FEF77CFE054618BB657C0DBB237C13F0CD
:101B40000103029300F09980E26804F12C0A6369B2
:101B5000D21A964228BF164696B16169C1F30803AE
:101B6000002B7CD1059BB3F80A8008F1FF3818EAF6
:101B700051281BD141B9A068012810D802256574ED
:101B8000284607B0BDE8F08FA36A1BB12046FEF7D8
:101B900000FEF1E7A1692068FFF75BF9ECE7431C61
:101BA00003D10123029D6374EAE7A061DDF814B05C
:101BB000A1695846FEF7E2FD0028DFD0B6F5007FA8
:101BC00008EB00072ED3BBF80A2008EB5621730A56
:101BD0009BF801009142494688BFA2EB08033A46B0
:101BE0000393FEF791FD0028DBD194F91020039BAD
:101BF000002A0BDAE069C01B984207D24FF400724A
:101C0000514609EB4020FEF79FFE039B5F0263698C
:101C1000B944019AF61B3B446361019B1B683B443A
:101C2000136099E7E269BA4218D094F91030002B9A
:101C30000BDA012351469BF80100FEF773FD0028E3
:101C4000AFD1237C03F07F032374059801233A4628
:101C500051464078FEF758FD0028A2D1E76161693E
:101C60004846C1F30801C1F500775144B74228BF87
:101C700037463A46FEF768FEC9E7072580E7F7B51D
:101C800001A90546FEF7D2FD044600283BD12B7C76
:101C900013F0400437D01B060CD501980123EA69E4
:101CA00005F12C014078FEF73DFD78BB2B7C03F05D
:101CB0007F032B7405F084FB296A07460198FEF721
:101CC00078FE0446F8B96E6AF37A314643F0200391
:101CD000F372AA682868FEF76DFDE96806F11C003A
:101CE000FEF73EFD394606F11600FEF739FD0123E9
:101CF0000198B474F474C370FFF758F82B7C044651
:101D000023F040032B74204603B0F0BD0124FAE712
:101D100013B50446FFF7B3FF28B901A92046FEF723
:101D200085FD00B9206002B010BD2DE9F04F85B0EF
:101D30000D46044603A9FEF779FD0646E8B9667C20
:101D4000DEB9A36A002B7BD06A1C39D11D46D4F8BA
:101D50000880022755F804BBB8F1000F28D0404690
:101D60004FF0000A0146814620680AF1010AFFF798
:101D700070F8012807D802266674304605B0BDE821
:101D8000F08F8046EBE7431C01D10126F4E709F10F
:101D900001098145E6D00237BB4521BF2B4643F8F8
:101DA00008ABC5F804801D46039BDB698342E8D875
:101DB000A36A5F451F6000F2C38000232B60DCE74D
:101DC000E768AF4228BF2F466761002FD5D07D1E40
:101DD00020462946FEF7DDFCDDF80C800146A061B7
:101DE0004046FEF7CBFC0028C5D0C7F30807002FFC
:101DF000C3D0B8F80A10E269013901EA55210D187B
:101E0000AA42BAD094F9103004F12C01002B0CDA5C
:101E1000012398F801000191FEF784FC0028B4D159
:101E2000237C019903F07F032374039801232A463E
:101E30004078FEF769FC06460028A6D1E5619CE7DC
:101E4000E368AB4204D2227C12F0020F08BF1D46A9
:101E5000002263696261EDB90025E268636993421B
:101E600084BF227CE360C3F3080384BF42F04002D6
:101E70002274002B81D0E269AA423FF47EAF94F92C
:101E8000103004F12C01002BCFDA039801230191CB
:101E90004078C1E7039A57897F020BB3013B6A1E62
:101EA000B3FBF7F1B2FBF7F28A4219D37A42A16988
:101EB0001340ED1A63610029CED0BD4263691ED87C
:101EC00063692B446361C5F30803002BC4D00398F6
:101ED000FEF754FC00283FF44EAF00EB5525BCE75D
:101EE000A16851B92046FFF742F8012801463FF4A6
:101EF00042AF481C3FF449AFA160A161DBE73B441E
:101F0000A5EB07086361237C9A0706D52046FFF7F7
:101F10002EF8054628B90146D2E72068FEF799FF5A
:101F200005466B1C3FF431AF012D7FF624AF039BB8
:101F3000DB69AB427FF61FAF2946A5614546BCE78A
:101F400011261AE71FB50446019150B3002203A9D8
:101F500001A8FEF781FD70B9039B2046019923601B
:101F6000FFF77CFBF8B994F92B30002B0CDBA3793D
:101F7000DB0603D405200023236010E0039BE16906
:101F80001878FEF75EFFA060039B00212046DB88E7
:101F9000A380FFF744F80428ECD00028EBD104B06C
:101FA00010BD0920FBE70428E4D0E4E713B501A93C
:101FB0000446FEF73BFC00B9206002B010BD73B5CB
:101FC0000D4601A90446FEF731FC20B92DB90146A2
:101FD0002046FFF724F802B070BD2046FFF7C4FA90
:101FE00010F0FB06F7D129462046FEF739FC3146B2
:101FF0002046FFF755F8042808BF0020EBE7000053
:102000000F4B30B59C7B012C17D89D7B0024EDB283
:102010005C559D7B03EB85056860987B18440273D3
:102020009A7B501C3032C0B298733A2320460A7013
:102030004B702F23CC708B7030BD0120FCE700BFAC
:10204000A40900240022FFF7DBBF00007F2810B5A1
:1020500006D931B1FF2812D880380A4B33F8100066
:1020600010BD084A32F8024B8BB2844203D00131D2
:102070008029F7D10B4603F18000C0B2F0E70020C1
:10208000EEE700BFB2B601081E4B1F4AB0F5805FF5
:1020900028BF134670B5191D31F8043C0A46ABB190
:1020A000984213D331F8024C250AE6B253FA84F46D
:1020B000A04221DA082D09D8DFE805F005090F1143
:1020C000131517191B00C01A31F8100070BDC31A80
:1020D00003F00103C01A80B2F8E71038FBE720389C
:1020E000F9E73038F7E71A38F5E70830F3E7503802
:1020F000F1E7A0F5E350EEE70431002DCCD102EB7F
:102100004603C8E7B2B70108A4B901087047704791
:102110007047704708B50021094801F035FA0120E1
:1021200002F0E0F8074802F0CFF8074A07490848EC
:1021300001F0FEF8064801F0B7F8002008BD00BF26
:102140005838062460BA0108000000C0000000C131
:102150004C0F00242DE9F041574D0024574E584AAA
:102160002846584915F066FB3460746106F5C07066
:102170003462F46302F0ECF8534B514A3046C6F82F
:10218000383240F20F73C6F89041A6F83C3206F59B
:102190001473C6F84C42C6F8403240F201134B4962
:1021A0004B4FC6E9913415F045FB4A4B4FF4804242
:1021B0007C613D60C7E90136474BC7E9033407F549
:1021C00080531A63454BC3E90064C3E902441424F5
:1021D000002101200022013C9961596283F82C10F2
:1021E00083F8481098624FF00200DA611A6258646E
:1021F000C3E904113A4903F1440399603949D960AC
:10220000E6D1DFF8F480384D4346C8F80820C8F816
:102210000C20A8F27C5043F8042BC8F810201A6058
:10222000C8F81420C8F818203049254A15F002FBD8
:102230002846A8F27C514FF4B36240F8046B16F0C4
:1022400049FA2146C5F8A4651822C5F8BC4505F52C
:10225000BA60C5F8C3454FF07C56C5F89C75C5F803
:10226000A845C5F8AC45C5F8B045A5F8BA45C5F8C8
:10227000BF45C5F8C64516F03BFA05F2CC532146DA
:1022800018221E6005F2EC5016F032FA05F5BD6317
:1022900028460B4A1E6005F5C2231549C3F8EC41D8
:1022A00083F82842C3E97744C3E97944114B1D60A0
:1022B000BDE8F04115F0BEBA3CCB062458380624E0
:1022C000000000240D2100080080707F0F2100080D
:1022D000A4230624D833062478210624B409002434
:1022E000CDCC4C3F0000A0404C0F00241121000831
:1022F0001321000840CB0624300F00247FB50323B0
:1023000001260024054601A900688DF80C40CDE99E
:10231000013603F0CDFD70B93146686805F02CF840
:102320006868324605490430FFF7F2FAB0FA80F0E7
:10233000400904B070BD2046FBE700BF6CBA01083D
:1023400030B50546F3B04FF480520021183016F036
:10235000CFF96968684601F27441FFF7F3FD04465E
:1023600028B1204801F0B0FF002073B030BD2CA987
:102370006846FFF724FE40BB9DF8C6302BB39DF89E
:10238000B83013F0120FF2D1022217490DF1C60036
:1023900016F07AFF0028EAD00DF1C6010CA816F05D
:1023A0006BFF12490CA816F083FF20B910490CA846
:1023B00016F07EFF38B105EBC41001340CA9A4B2AD
:1023C000183016F059FF1E2CD1D96846FFF7EEFDE4
:1023D00005F58050002344830383E01A18BF0120D1
:1023E000C3E700BF6EBA01088FBA010892BA0108AC
:1023F00097BA01082DE9F0470C468EB005462C220D
:102400006B4603A92046FFF788FB08B1002098E03F
:10241000009B2C2BFAD1594B039ADDF830809A425D
:10242000F4D1A3F57003059AA3F2FB739A42EDD1A0
:10243000069E534FBE4209D105F58053099ADA61D1
:10244000BDF822209A84BDF82E20DA84DFF834917A
:10245000C84552D0F31B0C2120465E425E41FFF777
:1024600064FC04226B4620460DEB0201FFF755FB8E
:1024700000287BD1DDF800A0BAF1040F76D15246D6
:102480006B4602A92046FFF748FB019ABA425BD18E
:10249000616920460631FFF748FC05F581516B461E
:1024A000022204312046FFF738FB0028AED1009EFF
:1024B000022EABD105F580516B46524620461C31A9
:1024C000FFF72BFB0028A1D1009B042B9ED1616953
:1024D00020460631FFF729FC05F581516B4632464F
:1024E00006312046FFF719FB00288FD1009B022BF5
:1024F0008CD1C84511D00126B3E705F580510D9A5E
:10250000B1F926300A62002BB8BF0733BE424FEA4A
:10251000E303B2FBF3F38B629CD105F58052E868CC
:10252000B2F92630116A002BB8BF0733DB10B1FBBC
:10253000F3F361699362D162FFF7F7FBB0FA80F0C1
:1025400040090EB0BDE8F0874A45029B06D105F56B
:1025500080521362002E3FF459AFDEE761692046D6
:102560001944FFF7E2FB002EC3D17AE7002E3FF4B7
:102570004DAFC8457FF44AAFCFE700BF524946464A
:10258000666D7420646174612DE9F34700F580562F
:1025900007468846B6F92440306B4443B4F1804F77
:1025A00002D3304815F05EF94FEA44093CB1484681
:1025B00015F047F94A460021044616F099F84FF005
:1025C000000AF8684269C3689A423FD0C2453DD2CA
:1025D000B6F92650A8EB0A01326B01AB002DB8BF4B
:1025E000073591424FEAE50528BF1146B28C12FB30
:1025F00005F24A432146FFF790FA88BBB38C4FEAB5
:102600004A0213FB05F5019BB3FBF5F50346AB420C
:102610001AD0B6F924C0BCF1010FD7E9040117BFE5
:1026200034F923C034F913C020F802C0A01C0CBF39
:1026300021F802C030F9230003F101030CBF20F898
:1026400002C088520232E2E79A44BAE701251CB17F
:102650004946204615F0F3F8284602B0BDE8F08759
:102660000025F4E79CBA010810B504464FF08072CB
:102670000021006916F03CF84FF08072002160697B
:1026800016F036F804F580539A6AB2F1807F0CD8C0
:10269000B3F92610102908D1B3F924102046B2FB53
:1026A000F1F1BDE81040FFF76FBF002010BD70B51D
:1026B00000F5805604460D46738B8B4215D3338B41
:1026C0008B4202D0C068FFF723FB04EBC511012247
:1026D000E0681831FFF742F938B9E1682046FFF7A2
:1026E00089FE20B9E068FFF713FB002070BDB6F942
:1026F0002630102BF9D1F2694BF680339A42F4D18F
:102700002046BDE87040FFF7AFBFC0E90412704734
:1027100000234FF49652C0F86035C0F86C350123A1
:10272000C0F868254FF07E52C0F8703500F274533F
:1027300000F5AF601A604FF07C53036070470000F3
:10274000F0B4044600F5AA66C360C0E90112B442C1
:102750001FD0F7EE007A9FED107A256B012784EDEC
:10276000077AC7EE876ABD42656208BF4FF0FF3542
:10277000A762A36108BFA5624FF0000508BFC4EDC2
:10278000077A84F82C50C4E90412443444ED096AF1
:10279000DDE7F0BCFFF7BCBF00000000DFED0B7A07
:1027A000C0FE277A9FED0A0AC7FEC07A9FED090A8C
:1027B0009FED097A67EE807A67EE877AFCEEE77A1A
:1027C00017EE903AC0F86835704700BF0000C84265
:1027D00000803B456F12833A00803B479FED077AAC
:1027E000DFED076AF0EE477AE0EE267A9FED050A04
:1027F000C7FE877A87FEC00AFFF7D0BF0000C84235
:102800000040354500803B45C368013B07EE903AE8
:10281000F8EE677A27EE800ABCEEC00A10EE103A96
:10282000C0F86C357047B7EE007AF3EE036AF0EE4D
:10283000477AE0EE267AC7FE877AB3EE047AC7FEBF
:10284000C77AF8FE677AFCEEE77A17EE903A142B17
:1028500028BF1423C0F870357047B6EE007A00F236
:102860007450F7EE086AF0EE477AE0EE267AC7FE7B
:10287000877AB0EE007AC7FEC77AC0ED007A70475B
:1028800010B5837A0446FF2B0AD104F04BFE07EE05
:10289000900AB8EE670AD4ED037A30EE670A10BDED
:1028A0009FED010AFBE700BF000000004368022B18
:1028B00001D0042B01D1032343607047416070476E
:1028C0008368062B07D8DFE803F00407090606062D
:1028D0000B000123836070470223FBE70623F9E71F
:1028E0000023F7E74368032B0FD8DFE803F0020566
:1028F000070C0123436070470223FBE703220023F8
:10290000C0E901237047FFF7DBBF70478368052BE1
:1029100006D8DFE803F003080C060A0E03238360E1
:1029200070470023FBE70423F9E70123F7E70523BA
:10293000F5E70223F3E70120704700EB810191EDF9
:102940000A0A704700EB810191ED110A7047036894
:1029500093F8440000B1586E7047036893F84C0038
:1029600028B193F85200A0F18003584258417047B3
:10297000006808B54830FFF783FFDFED057AB4EE55
:10298000E70AF1EE10FACCBF0120002008BD00BF1D
:1029900000007A44036893F8B40028B193F8BA00B1
:1029A000A0F18003584258417047036893F8C4006F
:1029B00028B193F8CA00A0F18003584258417047EB
:1029C00013784BB9D1ED007AF4EEC07AF1EE10FA3B
:1029D00000D905DB01231370F0EE407A81ED000A87
:1029E000B0EE670A704700004368032B70B50446D9
:1029F0002DED028B45D185680068DFED268A6830B1
:102A000001F02AFBB4EEE80AF1EE10FA3CD9DFED52
:102A1000227AB4EE670AF7EE007AF1EE10FA27FE9A
:102A2000808A2068883001F017FBB4EEE80AF1EEE6
:102A300010FA2CD9DFED187AB4EE670AF7EE007AB7
:102A4000F1EE10FA27FE807A05F10A0105F118026D
:102A50002046B0EE480A8E00224404EB8101FFF7C5
:102A6000AFFF05F11F0204EB850406F11C010244CF
:102A700084ED0A0A0144B0EE470AFFF7A1FF84ED96
:102A8000110ABDEC028B70BD9FED048AC9E79FED72
:102A9000037AD9E70AD7233CA4707D3F00000000E9
:102AA0007FB50022032300F10C0501260446694688
:102AB00028468DF80C60CDE9003244F6206302937D
:102AC00003F0D8FBC721284603F058FC22460349EF
:102AD0002846267503F058FC04B070BD732D00081D
:102AE000FFF7DEBF07EE901AB8EEE70A07EE902A6E
:102AF00038B5F8EEE70A9DF8105007EE903A044614
:102B00000068B8EEE71A55B1D83001F063FC2068D0
:102B100000F09AFC0A20BDE8384004F005BD00F53D
:102B20009670F2E7052337B5044643600C30012563
:102B300003F01AFC00232046FF211A460095FFF7F8
:102B4000D1FF0023FF2120461A460093FFF7CAFF5A
:102B5000E57503B030BD4368032B13B504460FD1B0
:102B60008368052B0ADC022B0CDC09D80023FF222A
:102B7000204619460093FFF7B5FF01E0062BF5D07C
:102B800002B010BD0023FF211A460093F3E708B5F9
:102B90004368032B05D1FFF7B9FEBDE80840FFF7F6
:102BA000DABF08BD10B50446006800F03DFC2046C1
:102BB000FFF7F0FE10B12046FFF794FE2046FFF726
:102BC000F4FE10B12046FFF7E2FF2046FFF7C5FEF6
:102BD00010B12046FFF76AFE2046BDE81040FFF71F
:102BE000C7BEC37D10B5044633B9FFF7FDFE2046CE
:102BF000BDE81040FFF7D6BF10BD37B59DF818509F
:102C000004460095FFF76EFF642004F08DFC00235E
:102C1000204606951A46194603B0BDE83040FFF736
:102C200061BF2DE9F3419DF8208004460D4616460C
:102C30001F46CDF80080FFF7E0FF642004F074FC2D
:102C40003B46324629462046CDF80080FFF7D5FFA7
:102C5000642004F069FC3B46324629462046CDF804
:102C6000208002B0BDE8F041FFF73CBF4368032B72
:102C700007B50FD18368062B0CD8DFE803F0040EEC
:102C8000160B0B0B1C000123FF2200930023194697
:102C9000FFF728FF03B05DF804FB01235B22FF214F
:102CA00000931F23FFF7BDFFF4E7012300220093E9
:102CB0001146FF23F6E7012300220093FF23194664
:102CC000F0E7027D13B50446437D8AB10533DBB2DC
:102CD000F92B09D843756368013B042B3DD8DFE825
:102CE00003F01121311929004FF47F43A382F2E749
:102CF000053BDBB2052B4375EDD8837D013383752E
:102D00000123F3E701230022204600931146637D4F
:102D1000FFF7E8FE637D01222046009219461A461D
:102D2000FFF7E0FE0122637D0021204600921A4653
:102D3000FFF7D8FE0123617D2046009300231A4649
:102D4000FFF7D0FEA37D022B09D80123627D204628
:102D5000009300231946FFF7C5FE02B010BD04F131
:102D60000C0003F001FB204602B0BDE81040FFF765
:102D70007DBFFFF7A6BF90F83C307BB1D0ED017A64
:102D8000D0ED006A87EEA67A77EEC77AB6EE007AC3
:102D9000F0EEE77A67EE877AC0ED047A704700F5C7
:102DA000C22310B50446D0F89C05D3E97712FFF78B
:102DB000ACFCD4F89C05FFF7A1FA28B904F2A450A2
:102DC000FFF7B0FE002010BDD4F89C05FFF7B8FA5D
:102DD0000028F8D1F2E700F5C2210430D1F8EC3137
:102DE000D1E97712FFF7ACBC38B500F204640546B0
:102DF00000682DED028B00F015FBB7EE008A20462F
:102E000014F07CFCD4ED087A9FED267A78EE677A90
:102E1000254B236067EE877A94ED0E7AC4ED097A2C
:102E2000DFED227A87EE270AC4ED027AB1EE400A7E
:102E300014F054FD94ED0D7AD4ED027A84ED0A0A73
:102E400087EE270AB1EE400A14F048FD94ED007AAF
:102E500084ED080AC8EE077A94ED0E7A77EEC87A08
:102E600038EE408A27EE888ADFED117A87EE270A4E
:102E7000C4ED037A84ED098AB1EE400A14F02EFD08
:102E80000C4B204684ED0B0A6360FFF774FF0123AF
:102E9000204685F8403600232361FFF76CFFBDEC28
:102EA000028B38BDAAAA2ABF000040400AD7233CA3
:102EB000CDCCCC3D000040C1D0F89C2500F5C2210E
:102EC0000023DFED136A02F58052C1F8E831B2F950
:102ED0002400936AB3FBF0F307EE903AC1F8EC31AB
:102EE0003C230C48F8EE677A87EEA67ADFED0A6A93
:102EF000FDEEC77A17EE902AC7EE267AB2FBF3F101
:102F000003FB1122FDEEE77A17EE901A01F0DCB90F
:102F100000803B47CDBA01080000704210B500F5B3
:102F2000C2244FF080720021D4F8DC0115F0E0FBE0
:102F3000D4F8E0014FF080720021BDE8104015F098
:102F4000D7BB0000D0F8A835012B70B5044690B06F
:102F500006D00025264801F0B7F9284610B070BD0C
:102F600004F2A456206800F05FFA3046FFF7EFFC49
:102F700018B304F5C223D4F89C15D3F8E45101F535
:102F800080524019528B48BF02F1FF30C3F8E40170
:102F9000D3F8E40190426846A4BF0022C3F8E421BC
:102FA000D3F8E451ABB201EBC311183116F064F958
:102FB0006A4629460F4801F087F93046FFF7CDFCF5
:102FC0000028CDD004F5C223D4F89C05B3F8E41151
:102FD000FFF76DFB054618B12046FFF76DFFBCE714
:102FE0003046FFF79FFD044801F06EF9B5E700BFDA
:102FF000E1BA0108FABA010816BB010838B5002188
:1030000000F5C22504464FF08072C5F8E411D5F8EA
:10301000DC0115F06DFB4FF080720021D5F8E00166
:1030200015F066FB2046FFF78DFF28B904F2A45087
:10303000BDE83840FFF776BD38BD013A032A0BD80A
:10304000DFE802F002040806FFF7D8BFFFF734BF3D
:10305000FFF764BFFFF7BFBE70470000082944D8E0
:10306000DFE801F00508102326290B2C2F0004307F
:10307000FFF7B4BB0430FFF7F0BB00F27C5080EDEB
:10308000000A7047DFED196AB1EE007AF0EE667A59
:10309000E0EE077AC7FEA67AC7FEC77AFDEEE77AAA
:1030A00017EE903AC0F86435704700F5B060E6E777
:1030B00000F28C50E3E700F5B360E0E700F2446013
:1030C000DDE7B3EE047ADFED0A6A20EE000A00F5D0
:1030D000C220F0EE477AE0EE267AC7FE877A9FEDAF
:1030E000057AC7FEC77AC0ED647A70470000000019
:1030F00000A09B4500409C4510B504462DED028B79
:10310000B0EE408A082925D8DFE801F0050812272B
:103110002A2D0D3045000430FFF776FBB0EE480A4B
:10312000201DFFF780FB04F5B26484ED008A11E0F6
:10313000DFED2E6AB1EE007AF0EE667AE0EE077A05
:10314000C7FEA67AC7FEC77AFDEEE77A17EE903A79
:10315000C0F86835BDEC028B10BD00F28454E4E782
:1031600000F5B164E1E700F29454DEE79FED207AC8
:1031700020EE008ADFED1F6A00F24464F0EE477A29
:10318000E8EE267AC7FE877A9FED1B7AC7FEC77ADC
:10319000C4ED017ADEE720EE008A9FED180A9FED6C
:1031A000187A04F5C224F0EE407AE8EE077A9FED33
:1031B000157AC7FE807AC7FEC77AF4EEC77A9FED0C
:1031C000120AF1EE10FA58BFF0EE477A27EE800AA5
:1031D00014F0F6FBF7EE007A84ED730A30EE270A5E
:1031E00087EE807A84ED747AB4E700BF00000000B7
:1031F0000000C84200789B4600409C466F12833A0C
:10320000B7F3FD3EC976FE3EDB0F494030B5D0F83E
:10321000AC15044600F2A4502DED048B83B09FED55
:103220001E9ACDE90010FFF788FBF0EE408ADDE939
:103230000010FFF787FB0099B0EE408A04EB810590
:1032400005F5C225D5ED7C7A78EEE77AF0EEE77ADF
:10325000F4EEC97AF1EE10FA07DDB0EE680A204606
:10326000FFF7FCFE0099C5ED7C8AD5ED837A78EEF8
:10327000677AF0EEE77AF4EEC97AF1EE10FA06DD3D
:10328000B0EE480A2046FFF737FF85ED838A03B08A
:10329000BDEC048B30BD00BF0AD7233C032901D10C
:1032A000FFF7B4BF7047000073B5044604F2A4569C
:1032B000D4F8A81530460191FFF793FCD4F8A8552F
:1032C0000199A9420BD02A462046FFF7B6FE0F48C7
:1032D00000F0FAFF2A4601990D4800F0F5FF20465C
:1032E0002946FFF7DBFF3046FFF725FB38B104F531
:1032F000C22393F8282232B1002283F82822012029
:1033000004F012F9D2E70122F7E700BF30BB010851
:103310003EBB010800F5C22000F5F87300F503700C
:103320004FF07C5243F8042B83429A61F8D17047E6
:1033300038B500F5C2230446006804F2A455C3E979
:103340007712042100F042F80321206800F054F8BD
:10335000174800F0B9FF002015F0C0FF154B1860AA
:103360002846FFF7BDFB144800F0AEFF2046FFF7EC
:1033700016FD38B92846FFF7D5FB1048BDE83840A0
:1033800000F0A2BF01212846FFF798FA0C4800F090
:103390009BFF2046FFF732FE0A4800F095FF2046CB
:1033A000FFF722FD2046FFF7B5FF0748E6E700BF1D
:1033B00050BB010838CB062460BB010868BB01087C
:1033C0007BBB01088EBB01089FBB010838B50446D2
:1033D00000F090F9D4F8A850204600F0A7F928464C
:1033E00000F05EFED4F8AC50204600F09FF928466D
:1033F000BDE8384000F054BE38B5044600F05AF934
:10340000D4F8A850204600F091F9284600F048FE74
:10341000D4F8AC50204600F089F92846BDE8384081
:1034200000F03EBE00F062B910B50446403000F036
:1034300093FE04F1B00001F025F804F1C000BDE8EE
:10344000104001F01FB800BF10B50446D83000F09E
:10345000F1FF04F59670BDE8104000F0EBBF00BF2F
:10346000F0B54FF481718FB000F1D80701254FF40A
:10347000C0624FF4E063ADF8081000F5967402994D
:103480003846ADF80C2008AEADF810300095DDE9F7
:10349000032300F077FF40F201134FF480722046BF
:1034A000ADF814304FF48063059900950BADADF87D
:1034B0001820ADF81C30DDE9062300F063FF30462C
:1034C000072104F02FFF96E8070085E8070029464A
:1034D000384600F099FF96E8070085E8070029467E
:1034E000204600F091FF384600F0A4FF20460FB0C0
:1034F000BDE8F04000F09EBF2DE9F04140F20243EC
:1035000004460222002504F1180704F1A8062DED57
:10351000028B8EB09FED1B8AADF80C3005A8039985
:1035200001F082F802220DF12600ADF81020049976
:1035300001F07AF80423022205A9384601F088F840
:1035400004F1680204F18803C4E92A2329463846B5
:1035500056F8048B01F08AFA01462046019100F0EA
:10356000E5F80023F0EE480A019940461A4600F0BB
:1035700041FD25B10EB0BDEC028BBDE8F081012507
:10358000E4E700BF6F12033B2DE9F04104469AB017
:103590000027019100F08CF80199204600F086F98F
:1035A00040F6061304F1B0069FED400AADF8143062
:1035B00004F1C0053046059900F04AFF4FF400734E
:1035C00028469FED3A0AADF8183004F5C8780699F8
:1035D00000F03EFF40F6033240F201639FED330AF4
:1035E000ADF8082004F140000299ADF80C70C4F861
:1035F000D0600FAEC4F8D45007ADADF81030DDE99F
:10360000032300F079FD2046FFF72AFF2046FFF74D
:1036100073FF284600F09CFE01230DF12C0E04F5EB
:10362000C07C1593189347F612231697199302231B
:10363000179395E80F008CE80F008EE80F0086E8DE
:103640000F00BDF840301490ADF84E30BDF8423058
:10365000D4E9625EADF84C30C4E9655EBEF1000F9E
:1036600004D072463946284615F042F813A9404660
:1036700003F0B8FC04F5D27000F07EFE3021204645
:1036800000F038F8D4F8A850204600F04FF828464B
:1036900000F006FDD4F8AC50204600F047F828466C
:1036A0001AB0BDE8F04100F0FBBC00BF0000000014
:1036B000704700BF38B500F1140504462DED028BAC
:1036C000284600F041FC284600F03AFC2846B0EEBF
:1036D000408A00F023FCD0ED007AF8EE677A88EE9D
:1036E000277ABDEC028B84ED0E7A38BD143000F0E1
:1036F00027BC00BF38B500F1140504462DED028B40
:10370000284600F00FFC284600F01AFC2846B0EED0
:10371000408A00F003FCD0ED007AF8EE677A88EE7C
:10372000277ABDEC028B84ED0E7A38BD90ED0E0A3F
:10373000704700BF10B540F203338EB000244FF63F
:103740000B7240F20341ADF8083009A80123ADF82F
:103750001020ADF824202246ADF80C1000940299F8
:1037600007940C94CDE90544CDE90A4401F0DAF957
:1037700004A8012322460399009401F0D3F909A873
:1037800001F0B6FA10B901200EB010BD04A801F086
:10379000AFFAA0420CBF022020460EB010BD00BF01
:1037A0002DE9F04103239AB0012700240646CDE914
:1037B00014373B4BCDE9104340F20453CDE9164793
:1037C000ADF84830FFF7B6FFB842054625D00228CD
:1037D00045D040F60132334B0DF12C081894ADF86A
:1037E0002C200B981997CDF84A3000F0E3F810A977
:1037F00006F13C0002F050FA302003224FF07E53D5
:1038000041460D930E93CDE90B02F26B06F11400C5
:1038100000F04CFB1AB0BDE8F0811023214A06A944
:1038200006908DF828300DF12C081F4BCDF84A205A
:1038300007930294CDE91804CDE9080402A801F029
:10384000D7FC0823029A03A94046ADF80C508DF826
:103850000E40049505930B9400F0ECF8C7E70020A8
:103860000121104B0DF12C083A460094CDF84A3056
:103870004FF60B730C94ADF82C302346CDE91801AC
:1038800040F601314046ADF818100699CDE90D44D7
:1038900001F048F92146404601F036FAA7E700BF9B
:1038A00004020404040604030704010B2DE9F04795
:1038B00004462DED028B82B000294DD0012140F24B
:1038C000011200230091ADF804208DF80630364A2D
:1038D0000127364B04F10409354904F129086260D7
:1038E00040F20272A36040F60663E16004F1250A2B
:1038F000A4F82520A4F82930278284F8277084F8BA
:103900002B7003F0ADFF054603F010FE6946064636
:1039100050BB4DB304F130008DF8067003F028FF62
:10392000072D3CD104F114052046FFF739FF284646
:1039300000F006FB2846B0EE408A00F0EFFAD0ED2A
:10394000007AF8EE677A88EE277A84ED0E7A02B074
:10395000BDEC028BBDE8F08740F2011300918DF8B9
:103960000610ADF80430B2E704F1300003F000FFB8
:10397000072D11D04946204601F082FE0EB9002DD8
:10398000D0D1504601F0CAF9404601F0C7F904F120
:10399000120000F079F9C5E7002EF2D1C2E74946DE
:1039A000204601F06DFEBDE705080509050705067F
:1039B000050A060610B584B003460124ADF80400DC
:1039C00003A8ADF80C30ADF80E4001F0A7F9214680
:1039D00003A801F08DFA204603F0A6FD002103A8FC
:1039E00001F086FA204603F09FFD214603A801F06E
:1039F0007FFA04B010BD00BF10B5C2F3002384B03D
:103A00000C46017C8DF80D2043EA4402FA2402237F
:103A10008DF80C2003AA009401F080FC18B1012459
:103A2000204604B010BD04460A2003F07DFD204668
:103A300004B010BD034670B543F8042B044684B0AF
:103A400007C983E80700A37983B91A210B461E2210
:103A5000FA2523742046ADF80C20022303AA009512
:103A600001F05CFC28B1012004B070BD1B210B46A5
:103A7000EDE70A2003F058FD4FF4B85200950223F9
:103A8000ADF80C20204603AA217C01F047FC002859
:103A9000E9D10A2003F048FD41F2027200950223A9
:103AA000ADF80C20204603AA217C01F037FC002849
:103AB000D9D10A2003F038FD042200950223ADF885
:103AC0000C20204603AA217C01F028FC0028CAD142
:103AD0000A2003F029FD062200950223ADF80C20F0
:103AE000204603AA217C01F019FC0028BBD10A2042
:103AF00003F01AFD41F2082200950223ADF80C20D4
:103B0000204603AA217C01F009FC0028ABD10A2041
:103B1000064603F009FD0095022303AA217C2046F6
:103B2000ADF80C6001F0FAFB00289CD1304603F0A0
:103B3000FBFC009522790C232046002A8DF80C30DE
:103B400003AA4FF0020314BF622142218DF80D1029
:103B5000217C01F0E3FB002885D1304603F0E4FC32
:103B60002279D4E902310B43DBB20AB943F04003B6
:103B700062790AB143F020030E22FA258DF80D3048
:103B80002046009502238DF80C2003AA217C01F029
:103B9000C5FB00287FF467AF0A2003F0C5FC1022A4
:103BA00000950223ADF80C20204603AA217C01F0E9
:103BB000B5FB00287FF457AF0A2003F0B5FC1221B3
:103BC00000950223ADF80C1003AA217C204601F0D9
:103BD000A5FB00287FF447AF0A2003F0A5FC0122D3
:103BE00009212046FFF708FF003818BF01203BE7F6
:103BF000F0B5102387B0234C0122002501260027B1
:103C000002A920460195CDE902234FF48052CDE967
:103C100004670BF0E1FF642004F040FF02A94FF4B9
:103C200080522046CDE9046702261027CDE90267BD
:103C30000BF0D2FF0322102302A92046CDE9022374
:103C400000230422CDE904234FF480520BF0C4FF7B
:103C500040F23223042202A9019310232046CDE929
:103C60000223019A012305924FF4805204930BF032
:103C7000B3FF40F6060120460BF0CEFF284607B002
:103C8000F0BD00BF4CCB06241C4B00221C494FF05A
:103C9000400C30B5054689B00220596007219A6072
:103CA0001A620124DA620A224FF4006EDC60069286
:103CB0002022CDE9000104200821CDE902010320E2
:103CC0001021CDE9040108206946C3E904024FF43C
:103CD000C072181DC3E906C24FF48052C3E909E25D
:103CE0000BF050FF38B92846FFF782FF003818BFA5
:103CF000012009B030BD204609B030BD48CB0624B4
:103D000040410052614A0021D0B513688EB00A913B
:103D1000002B40F0B9805E4B01214FF683700C24DC
:103D200011600221D3F8D4200026032742F48052E8
:103D3000C3F8D420D3F8D42002F480520092009A21
:103D4000D3F8E02042F01002C3F8E020D3F8E020DE
:103D500002F010020192019AD3F8E02042F04002F2
:103D6000C3F8E020D3F8E02002F040020292029A69
:103D7000D3F8E02042F00802C3F8E020D3F8E020B6
:103D800002F008020392039AD3F8E02042F4807212
:103D9000C3F8E020D3F8E02002F480720492049A81
:103DA000D3F8E02042F08002C3F8E020D3F8E0200E
:103DB00002F080020592059AD3F8E02042F020023A
:103DC000C3F8E020D3F8E02002F020020692069A21
:103DD000D3F8E02042F00402C3F8E020D3F8E0304A
:103DE0000C9403F0040307930323079A0B93CDE984
:103DF000080108A9274806F025FB48F237120223DC
:103E000008A925480C94CDE90823CDE90A6706F0F6
:103E100019FB4CF20372022308A920480C94CDE947
:103E20000823CDE90A6706F00DFB40F2FF6202238A
:103E300008A91B480C94CDE90823CDE90A6706F0D0
:103E400001FB4FF60C72022308A916480C94CDE929
:103E50000823CDE90A6706F0F5FA4FF63F02022380
:103E600008A911480C94CDE90823CDE90A6706F0AA
:103E7000E9FA2022022308A90A480C94CDE90A672E
:103E8000CDE9082306F0DEFA0EB0D0BD44CB0624FF
:103E9000004402580010025800180258000C025842
:103EA00000200258001C02580014025830B5184C6B
:103EB000154685B0046004F1080EEC460FC98EE883
:103EC0000F00D4ED047AF5EEC07A8CE80F00F1EE25
:103ED00010FA1ADDB7EE006A94ED057A27EE277A1C
:103EE000C6EE276A84ED0D7AC4ED0C6A6DB12046EA
:103EF00040F8185F01F0C8FF064903690020064A30
:103F00002162A262E36005B030BD012005B030BD82
:103F100080CB06240020003000000030006808300C
:103F2000704700BFB1F5807F03680A4628BF4FF491
:103F30008072B1F5807F9A6094BF002001207047A5
:103F40000068183001F0A2BF70B504688AB0A36998
:103F5000E160CBB104F11805284601F095FF8446D5
:103F6000EE46E668BCE80F00AEE80F00BCE80F00C4
:103F7000AEE80F009CE803008EE80300694628467F
:103F8000049601F089FEF8B9E069D8B104F11C0586
:103F9000284601F079FF8446EE46E468BCE80F004D
:103FA000AEE80F00BCE80F00AEE80F009CE803008D
:103FB0008EE8030069462846049401F06DFE00383F
:103FC00018BF01200AB070BD01200AB070BD00BF4B
:103FD00010B4074B4FF07E513024002203201961AA
:103FE0009C60D8605DF8044B5961C3E906227047B4
:103FF00080CB0624F6EE007A9FED166A20EE207A3A
:104000000160F7EE006A80ED036A80ED020A27EE98
:10401000277AC6EE877AF4EEE67AF1EE10FA11DD31
:10402000F0EE667A4FF07E514FF0000C02760022DF
:10403000C0ED017AC0F814C0016143768276C0ED0C
:10404000070A7047F4EEC67AF1EE10FAEAD5F0EE00
:10405000467AE7E7000000000268037E128807EE58
:10406000902AFBEEC87A1BB1B7EE007A77EE677A3A
:10407000D0ED056A90ED047A77EEE67A437E67EE3E
:10408000877A0BB1F1EE677A90ED030A90ED017A31
:1040900077EEC07AA7EE270A80ED030A704700BFCB
:1040A000837E80ED020AABB9D0ED077A27EE800A55
:1040B000F6EE007AB7EE007A20EE270AC7EE007A15
:1040C000F4EEC77AF1EE10FA07DDF0EE477AC0EDB4
:1040D000017A7047DFED067AE8E7F5EEC07AF1EE97
:1040E00010FAF4D5DFED037AC0ED017A704700BF16
:1040F0006F12033B0000000030B585B00446002578
:10410000ADF80C10ADF80820ADF8043003F00AFA51
:10411000BDF80C204FF48073206004F11800228356
:10412000BDF808206383E383A283257100F0F6FDC8
:1041300004F11C0000F0F2FD9FED060A019904F164
:10414000080000F085F94FF6FF736562238405B01F
:1041500030BD00BF00000000F8B5044603F0E2F9EE
:10416000002623682671834205D104F10800BDE8CA
:10417000F84000F087B9012794F82050206004F13E
:104180001800BD40277100F0A5FE6DB2284394F8D9
:104190002150BD4084F8200004F11C0000F09AFE7C
:1041A00094F820306DB2666203F003032843022BBB
:1041B000C0B284F8210009D000F003000228D4D155
:1041C000002BD2D14FF0FF336362CEE78307CCD10F
:1041D0006762CAE7704700BFF8B5134F3C687F2C91
:1041E00007D98023114A42F224411C463B60A2F8C1
:1041F0007E100F4D2B68012B0AD90C4E0D4D224617
:104200003146284600F0F4F90028F8D13860F8BDAE
:1042100022460649074800F0EBF90028F7D12B6841
:10422000386001332B60F8BDBCCB0624C0CB06241C
:10423000B8CB062440CC062430B4154C2168F1B12B
:104240004B1E144DE81810F801298C4619460A2A0D
:1042500001D00D2A02D14BB1013BF4E70CF102036E
:104260007F2B10D98023236030BC704701220223AA
:1042700023600D200A236854AB5430BC70470122E0
:104280000223044DF4E70CF101026146F0E700BFA0
:10429000BCCB0624C0CB062410B5094C02460B4605
:1042A000084821680844C1F1800115F05DF82368D1
:1042B00018442060FFF7C0FFFFF78EFF10BD00BF5E
:1042C000BCCB0624C0CB06240FB400B583B004A930
:1042D00051F8040B0191FFF7DFFF03B05DF804EB29
:1042E00004B0704710B5044600210A4800F0FAF8FF
:1042F000002C094B14BF0222002208481A60FFF765
:10430000E3FF0748FFF7E0FF0A20BDE8104003F095
:104310000BB900BF40CC0624B8CB0624B0BB0108C3
:10432000C0BB0108064A0749074808B513F082FADE
:10433000034A04490548BDE8084013F07BBA00BFB2
:1043400000000024D541000840CC062444CC0624BB
:10435000074A118830B481800024064D91884FF4BB
:10436000807285600460C180C26030BC704700BF4D
:10437000D0B501080040003000220A23027003710A
:10438000704700BF30B585B004469FED110A9DF817
:104390002050ADF80C100399ADF808202A46ADF86E
:1043A00004308DED000A11F06BFC9DED000A2A46E9
:1043B000029904F11C0011F063FC9DED000A2A46ED
:1043C000019904F1380005B0BDE8304011F058BC47
:1043D00000007A4410B52DED028BF0EE608A0446A1
:1043E000B0EE418A11F070FC04F11C00B0EE680AD6
:1043F00011F06AFCB0EE480A04F13800BDEC028B03
:10440000BDE8104011F060BC38B50C46054691ED92
:10441000000A11F059FC94ED010A05F11C0011F09D
:1044200053FC94ED020A05F13800BDE8384011F064
:104430004BBC00BF10B5044611F058FC04F11C0041
:1044400011F054FC04F13800BDE8104011F04EBCEE
:1044500070B5044682B0C1F30726CDB2ADF80410A2
:1044600003F060F84FF480724FF001232060A01D2C
:10447000A571A280E671A36002B0BDE8704000F0B3
:104480004DBC00BF38B5044603F04CF80022236849
:104490002271834210D00122A57AE37A95402060F0
:1044A0002271A01D6DB243B900F014FD40B2284343
:1044B000C0B27F28A0720AD038BD00F00BFDB0FA60
:1044C00080F040092843C0B27F28A072F4D103F0E5
:1044D00029F807EE900AF8EE677AC4ED037A38BD42
:1044E000704700BF012910B506D0022915D051B17F
:1044F000BDE8104007F0FEBE0A463448344910F0CB
:10450000DBF9E8B1FEE7334B0A46334C3349344814
:104510001C6010F0D1F968B1FEE701222C492B484C
:1045200010F0CAF900B1FEE72E49284810F0E6F96C
:10453000C0B1FEE72B492A4810F0E0F960B1FEE770
:104540002849224810F0DAF900B1FEE726491F4851
:1045500010F062F908B3FEE72449214810F05CF935
:10456000A8B1FEE72049194810F056F900B1FEE75E
:10457000164810F0D9F9024640B9164B164C1749A7
:1045800017481C6010F098F968B1FEE7FEE7144880
:1045900010F0CAF90028ABD0FEE70C4810F0C4F9BF
:1045A0000028A5D0FEE70F490D4810F0A7F900B18B
:1045B000FEE70E490A4810F02FF900B1FEE708485F
:1045C00010F0B2F9002893D0FEE700BFE4CE062435
:1045D0009002002480D10624E144000874020024E3
:1045E00048CC0624F802002454020024440200248B
:1045F000084691B208B503F06DFA003818BF0120E3
:1046000008BD00BF014807F053B900BFC00D072423
:10461000014807F04DB900BFC00D0724014807F05D
:1046200047B900BFC00D072400B583B04FF0000E9E
:104630004FF0030C4274ADF80410BDF8043080F85C
:1046400010E0A0F802C0038003B05DF804FB00BFD7
:104650002DE9F04FDFF81C8300258DB0C04C0370AE
:1046600008F140034260074601920E462022294687
:104670004046C4F86831C4F86481CDE90255CDE9FB
:104680000455CDE90655CDE90855CDE90A5514F094
:104690002FF82022294604F5A170C4F83151C4F83E
:1046A0003551C4F83951C4F83D5114F021F8019B3B
:1046B00084F8485284F830317A68002A6AD02B4650
:1046C00004F59871454606F1100A9E46F01856F812
:1046D00003B0E2180EF1010ED0F80CC0D0F804902F
:1046E000D0F8088044F803B0C2F80CC04FF0000CBA
:1046F000C2F80490C2F80880008A25F802CB108224
:104700001AF8032001F8012F002A70D07A684FF0C0
:1047100001001233724584F84802D7D84FF4802242
:1047200090489DF8043008214FF000084FF0000930
:10473000C4F884310023C4E95B020122C4F8743157
:1047400084F88031C4E95E2194F84812C4E9648990
:10475000A9B3C4F89821002284F8813184F8883103
:104760003B78C4E96722002B38D0012200200121C8
:10477000013B84F8A421C4E96C01082B30D8DFE8A0
:1047800013F0BD00C200C700CC00D100D600DB0092
:10479000E100E8009DF804300121C4F87421C4F858
:1047A00084314FF4802384F880216E4AC4E95B236E
:1047B00008230022C4E95E130023C4E96423012313
:1047C000002284F88131002384F888310323C4F85F
:1047D00098313B78C4E96722002BC6D184F8A43114
:1047E000614804F033FC034638B1FFBEFEE77A6847
:1047F000123372453FF66AAF90E702A95A48029316
:1048000004F030FD8246002876D1042240F2FF7188
:104810000A90CDE9081294F83021002A00F0F380C4
:104820004FF006080AEBCA034FEACA0904EB430338
:104830005B7C072B07D8DFE803F0595C5653504DDB
:104840004A04072307930FFA8AF6D14406EBC606FB
:1048500004EB490904EB46077500384600F05EFAA0
:1048600099F81030042B00F3AA80022B00F3BD80CE
:1048700000F0B98004EB0A03002283F8202114F829
:104880001630002B78D0022B00F08A80012B40F0EC
:10489000B2807B78012B00F0B080002B334B18BF27
:1048A000002305A93048CDE9053804F00FF90028A8
:1048B00040F0AC800AF1010A94F830315FFA8AFACC
:1048C000534540F2A0802A4B53F82A80AAE70623DA
:1048D0000793B8E705230793B5E704230793B2E7E7
:1048E00003230793AFE702230793ACE70023079363
:1048F000A9E701230793A6E7FFBEFEE703224023B3
:10490000C4E96A236CE707226023C4E96A2367E7E6
:104910000F228023C4E96A2362E71F22A023C4E98F
:104920006A235DE73F22C023C4E96A2358E77F2258
:10493000E023C4E96A2353E7FF224FF48073C4E9FC
:104940006A234DE740F2FF124FF49073C4E96A23E3
:1049500046E740F2FF324FF4A073C4E96A233FE711
:1049600088D1062400200240F4D206240002B0259B
:10497000D0BB0108004100307B78062B37D0072BD5
:104980003DD0022B4AD0032B4AD0002B4CD0012B18
:1049900048D0042B4AD0052B254B18BF002380E7B5
:1049A0007B78042B25D0052B2BD08BB3012B31D05A
:1049B000022B31D0032B1F4B18BF002371E70323B9
:1049C000043504EB0A0B4FF0000925448BF8203125
:1049D000284609F1010900F0A1F99BF820310435BE
:1049E0004B45F5DC4BE70123EAE70223E8E7124BEE
:1049F00057E7124B55E7002353E7114B51E7114B93
:104A00004FE7114B4DE70DB0BDE8F08FFFBEFEE75D
:104A10000E4B46E70E4B44E70E4B42E70E4B40E78A
:104A20000E4B3EE70E4B3CE70E4B3AE70E4B38E79A
:104A30000000B84F002090360800900C1000C01005
:104A40002000F0148000501D000180210004002A85
:104A50000008302E001060320040C03A0080F03E66
:104A600000005247000021430000844B034B0F29F4
:104A7000D3F8640198BF00EB4100704788D1062449
:104A8000214B02689A4200D07047204A00232048F8
:104A9000D2F8D81030B51F4C41F0200183B0C4F8D3
:104AA000D001092004F5E875C4E975034FF480606E
:104AB000C2F8D810D2F8D8204FF40061C4E977309A
:104AC00094F8480202F02002C4F8E4114FF40051B7
:104AD000984201922846C4F8E811C4E97C33019B4E
:104AE00014BF00234FF48073C4F8EC3104F0E0FDF0
:104AF00008B1FFBEFEE704F5B673C4F8B851C4F8B8
:104B0000083203B030BD00BF00200240004402580C
:104B10004000024088D10624014805F041B900BF99
:104B200058D3062410B592B0ADF804100180C9B274
:104B3000149C0B29C460C0E901233FD090F801C048
:104B4000BCF10F0F3AD8022A3FD0032A02D0012A23
:104B500000D000220E92012B02D0022B18BF00239E
:104B6000022C0F932CD0032C2AD0012C28D0002308
:104B70000A29109327D85C4A02EB812202610A2994
:104B800014D8DFE801F0A39587796B5D4F41332599
:104B90000600564BD3F8E01041F48061C3F8E010F2
:104BA000D3F8E03003F480630C930C9B01230DA930
:104BB000104603FA0CF30D9305F044FC12B010BD3F
:104BC0000A291094D7D90022D8E711220E92C2E701
:104BD000464BD3F8E01041F40071C3F8E010D3F86D
:104BE000E03003F400730B930B9BDFE73F4BD3F8EC
:104BF000E01041F48071C3F8E010D3F8E03003F422
:104C000080730A930A9BD1E7384BD3F8E01041F048
:104C10008001C3F8E010D3F8E03003F0800309937B
:104C2000099BC3E7314BD3F8E01041F04001C3F8D2
:104C3000E010D3F8E03003F040030893089BB5E799
:104C40002A4BD3F8E01041F02001C3F8E010D3F86C
:104C5000E03003F020030793079BA7E7234BD3F82B
:104C6000E01041F01001C3F8E010D3F8E03003F099
:104C700010030693069B99E71C4BD3F8E01041F014
:104C80000801C3F8E010D3F8E03003F008030593FF
:104C9000059B8BE7154BD3F8E01041F00401C3F8F6
:104CA000E010D3F8E03003F004030493049B7DE7A5
:104CB0000E4BD3F8E01041F00201C3F8E010D3F836
:104CC000E03003F002030393039B6FE7074BD3F835
:104CD000E01041F00101C3F8E010D3F8E03003F038
:104CE00001030293029B61E700000258004402584E
:104CF00008B5012143780069994089B205F0AAFD01
:104D0000003818BF012008BD01230A464178006918
:104D100003FA01F189B205F0A3BD00BF8378022B2D
:104D200030B504468FB037D0032B33D0012B31D0B0
:104D300000230A93E378012B2AD0022B28D00023EA
:104D40000B93002320460C9303F0FCFA0546204603
:104D500003F000FB23780990082B13D8DFE803F059
:104D60001F3245586B7E91A40500594BD3F8E020C3
:104D700042F48072C3F8E020D3F8E03003F480738B
:104D80000893089B09A9284605F05CFB0FB030BDCD
:104D90000B93D6E70A93CDE711230A93CAE74C4B4E
:104DA00009A92846D3F8E02042F00102C3F8E02028
:104DB000D3F8E03003F001030093009B05F042FBC1
:104DC0000FB030BD424B09A92846D3F8E02042F08D
:104DD0000202C3F8E020D3F8E03003F002030193AD
:104DE000019B05F02FFB0FB030BD394B09A92846B8
:104DF000D3F8E02042F00402C3F8E020D3F8E0301A
:104E000003F004030293029B05F01CFB0FB030BDBE
:104E10002F4B09A92846D3F8E02042F00802C3F836
:104E2000E020D3F8E03003F008030393039B05F080
:104E300009FB0FB030BD264B09A92846D3F8E02066
:104E400042F01002C3F8E020D3F8E03003F0100382
:104E50000493049B05F0F6FA0FB030BD1C4B09A972
:104E60002846D3F8E02042F02002C3F8E020D3F82F
:104E7000E03003F020030593059B05F0E3FA0FB043
:104E800030BD134B09A92846D3F8E02042F0400278
:104E9000C3F8E020D3F8E03003F040030693069B0C
:104EA00005F0D0FA0FB030BD094B09A92846D3F858
:104EB000E02042F08002C3F8E020D3F8E03003F0B5
:104EC00080030793079B05F0BDFA0FB030BD00BF0C
:104ED0000044025838B5054603F034FA0446284623
:104EE00003F038FA01462046BDE8384005F0B2BC70
:104EF00070B506460D4603F025FA0446304603F029
:104F000029FA2A1E0146204618BF0122BDE870403A
:104F100005F0A6BC0023122270B586B0CDE90223AD
:104F200004930368032B01D804230593061D841DF5
:104F3000304603F007FA0546304603F00BFA034605
:104F400001A92846019305F07DFA204603F0FAF9FD
:104F5000034620461C4603F0FDF901A903462046FE
:104F6000019305F06FFA06B070BD00BF634A036895
:104F7000934210B58CB028D0614A934258D0614A10
:104F8000934200F09480604A934201D00CB010BD6F
:104F90005E4C5F48D4F8E03043F00203C4F8E030E0
:104FA000D4F8E03003F002030A930A9BFFF7B2FF44
:104FB000D4F8F43043F08003C4F8F430D4F8F4307B
:104FC00003F080030B930B9BE0E7504C5148D4F85F
:104FD000E03043F00203C4F8E030D4F8E03003F0EE
:104FE00002030193019BFFF795FFD4F8E8300022FC
:104FF0001F2043F400131146C4F8E830D4F8E83019
:1050000003F400130293029BD4F8D83043F0010359
:10501000C4F8D830D4F8D83003F001030393039BCD
:1050200004F094F91F200CB0BDE8104004F0CCB996
:10503000364C3948D4F8E03043F08003C4F8E0300F
:10504000D4F8E03003F080030493049BD4F8E030FC
:1050500043F00203C4F8E030D4F8E03003F0020378
:105060000593059BFFF756FFD4F8E8300022212076
:1050700043F480031146C4F8E830D4F8E83003F470
:1050800080030693069BD4F8D83043F00103C4F89C
:10509000D830D4F8D83003F001030793079B04F00D
:1050A00055F921200CB0BDE8104004F08DB91B4823
:1050B000FFF730FF154B00224820D3F8E840114697
:1050C00044F40004C3F8E840D3F8E84004F40004D2
:1050D0000894089CD3F8D84044F00104C3F8D840A1
:1050E000D3F8D83003F001030993099B04F02EF99B
:1050F00048200CB0BDE8104004F066B900540040F0
:1051000000580040005C0040001C00580044025859
:1051100060D60624D8D30624B0D4062488D5062425
:105120002DE9F0431A4B87B000254FF010099E4639
:10513000EC46184BFF22E04667461A700EF118063F
:105140000EF13004CDE90055CDE90255ADF80090DF
:10515000BCE80F00CDE90455AEE80F009CE8030061
:105160000095ADF800908EE80300B8E80F000FC678
:105170009CE803000095ADF8009086E803000FCF8F
:105180000FC49CE8030084E8030007B0BDE8F08387
:1051900004000024D4D3062410B5EFF3108472B6B3
:1051A000084B1A78120602D504B962B610BD1B78F6
:1051B000D82205485BB202FB0300143004F0F0FD76
:1051C000F2E700BFD4D30624D8D30624014806F062
:1051D00055BA00BF64D40624014806F04FBA00BF98
:1051E0003CD50624014806F049BA00BF14D606246F
:1051F0002DE9F0430F68D8243F4D85B007FB04F438
:10520000032F05EB0403036040DCCB680E46012B43
:105210003CD84DD04FF0D808B646DFF8FC9008FBDC
:105220000758BEE80F00C446ACE80F00DEF80030B7
:105230000DF1100ECCF80030D8F808C099E80F0036
:105240000EE90F000EEB8703BCF1010F53F8103C81
:10525000C8F88C3031D0BCF1020F42D0BCF1000F45
:1052600035D0317C8C34D823002201202C4403FB20
:1052700007534900C3E92602C3F894102046C3E946
:105280002822C3E92A2205F0EBFF18B1012005B05E
:10529000BDE8F0830146204606F0FCF90028F5D170
:1052A0000146204606F020FA003818BF0120EEE73C
:1052B0000B7C103B672BADD9E8E702F0CFFA0F4B20
:1052C00098420CBF0E4B0F4BC8F89030C9E702F064
:1052D000C5FA0A4B98420CBF0B4B0C4BC8F89030E8
:1052E000BFE702F0BBFA054B98420CBF084B094BD5
:1052F000C8F89030B5E700BFD8D30624000E2707C2
:105300002D0FB0303211D0205F4390608A62E030C0
:10531000200BA0101A098010D8B501082DE9F04122
:10532000D0F8008082B00D4617461E4608F18C0466
:10533000204606F0ABF92028FAD1D8F80C3073B922
:105340006D002046089C33463A46A9B2009405F009
:10535000DDFF003818BF012002B0BDE8F081089BD6
:1053600032463946204606F0A5F8F2E7044B1022F3
:105370001A7483F8E82083F8C02183F898227047D4
:10538000D8D3062430B5002395B04FF4807106229F
:1053900004460B9306921393CDE90C13CDE90E331B
:1053A000CDE9113302F05CFA07282BD004F1100587
:1053B00041F2883206A9284607F0E8F828B101230F
:1053C000184684F85C3015B030BD0222022306A9CD
:1053D0002846CDE9002310220123CDE90223002233
:1053E0004FF48003CDE9042305224FF08073069229
:1053F0006A460F9341F2883307F034FA0028DED171
:1054000015B030BD0323012084F85C3015B030BDE9
:1054100070B50023A4B04FF080724FF4807504463D
:10542000ADF806300D93CDE910320122CDE90E53CF
:10543000CDE91223CDE91433002943D0F02300F144
:10544000100508AEADF80630C02341F2883231466F
:105450002846089307F09AF828B10123184684F8E3
:105460005C3024B070BD41F288320DF1060128464F
:1054700007F0F6F803460028EFD105224FF48071BB
:105480001E93284616924FF080721B9321931F9211
:1054900002AA9FED1F7BCDE91C13CDE922338DEDD0
:1054A000027B9FED1D7B41F2883316A98DED047BB5
:1054B0009FED1B7B8DED067B07F0D4F90028CCD146
:1054C00024B070BD00F1100508AE612341F28832AE
:1054D00031462846089307F059F80028BDD141F21B
:1054E00088320DF10601284607F038F90028B4D1BA
:1054F000BDF80630204623F0780343F04003ADF8B2
:105500000630FFF73FFF00289ED0A6E7AFF30080EC
:105510000000000001000000100000000100000079
:1055200000000000000040002DE9F04F00234FF480
:10553000807501264FF0807804462DED028BABB0CC
:105540008DF8073013932193299314950E96CDF877
:105550005C80CDE91533CDE91863CDE91A33CDE987
:105560002253CDE92433CDE9273306231C9302F0DF
:1055700077F9072808D004F1100741F288321CA9F6
:10558000384607F003F840B10123184684F85C3030
:105590002BB0BDEC028BBDE8F08F4FF0020A4FF04C
:1055A000020B4FF0050941F2883308AA1CA93846BE
:1055B000CDF89480CDF870909FED2D8BCDE908ABA0
:1055C0004FF0000A4FF4800B8DED0A8BCDE90CAB48
:1055D00007F048F90028D7D141F2883238460EA9A1
:1055E00006F0D4FF0028CFD1402341F288320DF1DC
:1055F000070138468DF8073007F032F80028C3D18C
:1056000041F288330EA902AA3846CDF83890CDF879
:105610005C809FED197B8DED048BCDE906AB8DEDA4
:10562000027B07F01FF903460028ADD1CDF870903A
:105630004FF00109CDF894804FF00008219308AA9B
:1056400029931CA938462295CDE92333CDE9273388
:1056500041F288338DED0A8BCDE90CABCDE9088999
:1056600007F000F9002893D0304684F85C608FE79B
:105670001000000001000000400000004000000099
:105680002DE9F043624CA3B00D46046002F0E8F847
:10569000072800F0A980286823466968AA6807C31C
:1056A0001E46AB8926F8043B3046257B677B06F017
:1056B0004FFFE0B9574B012D4FF00108E061236126
:1056C00014BF4FF480134FF40003C4E9058893FA24
:1056D000A3F3B3FA83F34FF48079013BC4F8249029
:1056E000C4E90B003046236206F0C6FE38B1012241
:1056F000134684F85C20184623B0BDE8F083662387
:105700000B90139041F2883206A90693CDE90C90D4
:10571000CDE90E00CDE91100304606F037FF002834
:10572000E5D1992341F2883206A93046069306F066
:105730002DFF0028DBD105231C9019906A46149395
:105740004FF08073219014A91D9341F288339FED8F
:105750002A7BCDE91A90CDE91F008DED007B9FEDEE
:10576000287B30468DED027B9FED277B8DED047B02
:1057700007F078F80028BAD129462046FFF748FEFE
:105780000028B4D12046FFF7CFFE03460028AED153
:10579000002FB0D1189330460027002606AA14A97E
:1057A000CDF86890CDE91F33EB2314934FF4406399
:1057B0001B934FF4005317934FF440431C93A023C3
:1057C0001693062319934FF0805321934FF04073A3
:1057D000CDE906671D9307F0BDF8034600288AD07F
:1057E000434684F85C8086E701230322184684F848
:1057F0005C2023B0BDE8F083000000000100000041
:105800001000000001000000000000000000400047
:1058100038D70624005000522DE9F04F8FB0414B8D
:105820000024026800AF9A427C63C7E90944C7E9D3
:105830000B4403D03C37BD46BDE8F08F3A4B40F6F1
:1058400009213A48EB46D3F8D42007F11C0607F1AA
:10585000220A4FF0020942F480424FF00308C3F8D5
:10586000D420D3F8D42002F48042BA60BA68D3F8C6
:10587000E02042F04002C3F8E020D3F8E02002F03C
:105880004002FA60FA68D3F8E02042F02002C3F840
:10589000E020D3F8E02002F020023A613A69D3F820
:1058A000E02042F01002C3F8E020D3F8E02002F03C
:1058B00010027A617A69D3F8E02042F00202C3F85C
:1058C000E020D3F8E030F86103F002033984BB61D3
:1058D000174B7B60BB697B6853F8040F7B6002F059
:1058E00031FD7B680546186802F034FD16F8013B6F
:1058F000786207F124012846C7F830807B63C7E946
:105900000A9404F09FFD5645E5D100225C20114623
:1059100003F01CFD5C2003F057FD3C37DD46BD461F
:10592000BDE8F08F00500052004402580A0A0909ED
:1059300094D70624114B02689A4200D07047104A4F
:1059400070B5D2F8D4300F4C23F4804304F118061C
:10595000C2F8D43054F8040F02F0F4FC0546206875
:1059600002F0F8FC0146284604F0ACFEB442F1D146
:105970005C20BDE8704003F035BD00BF0050005210
:105980000044025894D70624014807F06FB800BFBE
:1059900048D70624084B1A1D981D03F1080110B4BE
:1059A0009C1C9A6603F10A02C3E91834C3E91B017F
:1059B0005DF8044B5A67704738D7062438B503683A
:1059C00071B9026A00F1280500F5AC74012A0CBF18
:1059D000002140218BBB1D4B5722C0F858310DE0F0
:1059E000426A00F1C00500F5E874012A0CBF0021ED
:1059F0004021EBB1164B5A22C0F8D031002320468B
:105A0000C4E901214FF480524FF480616362626106
:105A10004FF48042C4E903314FF48073C4E9062394
:105A20004FF40033236203F043FE58B1FFBEFEE79C
:105A3000084B5822C0F8D031E0E7074B5922C0F894
:105A40005831DBE7C5E92044A56338BD10000240AA
:105A50007000024028000240580002402DE9F04347
:105A6000821D05468BB0031D05F10A010830CDE902
:105A7000052305F10C02AB69CDE907010992002B62
:105A80003DD0EB69B3FA83F84FEA5818012302229C
:105A900005AE0AAF4FF006090393CDE9012356F88E
:105AA000044B2B792278934216D02B68F3B1012B4B
:105AB00002D1F2B10A230493204602F04BFC0346C4
:105AC0002046009302F03EFC694604F0BBFCBE4257
:105AD000E5D10BB0BDE8F083697963789942E4D1F0
