:020000042400D6
:10000000000002200D0A0024510A002405EA002401
:10001000510A0024510A0024510A00240000000063
:10002000000000000000000000000000510A002451
:10003000510A002400000000510A002489E900242C
:10004000510A0024510A0024510A0024510A0024B4
:10005000510A0024510A0024510A0024510A0024A4
:10006000510A0024510A0024510A002411D400240A
:100070001DD4002471C1002429D4002435D40024C7
:1000800005E400243DC90024510A0024510A00243B
:10009000510A0024510A0024510A0024510A002464
:1000A000510A0024510A0024510A0024510A002454
:1000B00025E7012431E701243DE7012471C900242B
:1000C000510A00247DC90024510A002495DF01242F
:1000D000A1DF012439E2002465E2002499E2002432
:1000E000510A0024510A002400000000510A002493
:1000F000510A0024510A0024510A0024510A002404
:10010000510A002481D9002449E70124ADDF0124EC
:10011000CDE2002401E30024510A0024510A002406
:10012000510A0024510A0024D1DF012405E00124F2
:1001300039E40024510A0024510A0024510A002401
:1001400000000000000000000000000000000000AF
:10015000510A0024510A0024510A002435E30024E6
:1001600089C90024510A002499E90024BDE900242A
:10017000510A0024E1E90024510A0024510A002414
:10018000510A0024510A002469E300249DE300245D
:10019000B9DF0124C5DF0124510A0024510A0024DB
:1001A000510A0024510A0024510A0024510A002453
:1001B00031D10024510A0024510A0024510A00249C
:1001C000510A0024510A002431BC00243DBC002403
:1001D000510A002449BC0024510A0024510A002479
:1001E000510A0024510A0024510A0024510A002413
:1001F000510A0024510A0024510A0024510A002403
:10020000510A0024510A0024510A0024510A0024F2
:10021000510A0024510A0024510A0024510A0024E2
:10022000510A0024510A0024510A00240000000051
:10023000510A0024510A002400000000510A002441
:10024000510A0024510A0024510A0024510A0024B2
:10025000510A0024510A0024510A0024510A0024A2
:10026000510A0024510A0024510A0024510A002492
:10027000510A0024510A0024D1E3002400000000A8
:10028000510A0024510A0024510A002400000000F1
:0802900000000000510A0024E7
:1002A00010B5054C237833B9044B13B10448AFF3B0
:1002B00000800123237010BD00E80224000000002C
:1002C000286E022408B5034B1BB103490348AFF362
:1002D000008008BD0000000004E80224286E02240B
:1002E00001F0FF01102A2BDB10F0070F08D010F8E7
:1002F000013B013A8B422DD010F0070F42B3F6D1EB
:10030000F0B441EA012141EA014122F007047FF003
:1003100000070023F0E80256083C85EA010586EA5A
:10032000010685FA47F5A3FA87F586FA47F6A5FA96
:1003300087F68EB9EED1F0BC01F0FF0102F00702A2
:1003400032B110F8013B013A83EA010313B1F8D14D
:100350000020704701387047002D06BF354603382E
:10036000073815F0010F07D1013015F4807F02BF67
:10037000013015F4C03F0130F0BC0138704700BFB8
:10038000034613F8012B002AFBD1181A01387047D5
:1003900081F0004102E000BF83F0004330B54FEA36
:1003A00041044FEA430594EA050F08BF90EA020FA3
:1003B0001FBF54EA000C55EA020C7FEA645C7FEA36
:1003C000655C00F0E2804FEA5454D4EB5555B8BF59
:1003D0006D420CDD2C4480EA020281EA030382EACA
:1003E000000083EA010180EA020281EA0303362D5C
:1003F00088BF30BD11F0004F4FEA01314FF4801C2F
:100400004CEA113102D0404261EB410113F0004F40
:100410004FEA03334CEA133302D0524263EB4303F7
:1004200094EA050F00F0A780A4F10104D5F1200E95
:100430000DDB02FA0EFC22FA05F2801841F10001F0
:1004400003FA0EF2801843FA05F359410EE0A5F1C4
:1004500020050EF1200E012A03FA0EFC28BF4CF0F5
:10046000020C43FA05F3C01851EBE37101F00045AB
:1004700007D54FF0000EDCF1000C7EEB00006EEBB8
:100480000101B1F5801F1BD3B1F5001F0CD3490842
:100490005FEA30004FEA3C0C04F101044FEA445299
:1004A00012F5800F80F09A80BCF1004F08BF5FEA20
:1004B000500C50F1000041EB045141EA050130BD00
:1004C0005FEA4C0C404141EB0101013C28BFB1F512
:1004D000801FE9D291F0000F04BF01460020B1FA5D
:1004E00081F308BF2033A3F10B03B3F120020CDA30
:1004F0000C3208DD02F1140CC2F10C0201FA0CF00E
:1005000021FA02F10CE002F11402D8BFC2F1200C72
:1005100001FA02F120FA0CFCDCBF41EA0C01904028
:10052000E41AA2BF01EB0451294330BD6FEA040471
:100530001F3C1CDA0C340EDC04F11404C4F120025C
:1005400020FA04F001FA02F340EA030021FA04F36E
:1005500045EA030130BDC4F10C04C4F1200220FAC5
:1005600002F001FA04F340EA0300294630BD21FA03
:1005700004F0294630BD94F0000F83F4801306BFC9
:1005800081F480110134013D4EE77FEA645C18BFBD
:100590007FEA655C29D094EA050F08BF90EA020F54
:1005A00005D054EA000C04BF1946104630BD91EA4C
:1005B000030F1EBF0021002030BD5FEA545C05D14F
:1005C0004000494128BF41F0004130BD14F580048E
:1005D0003CBF01F5801130BD01F0004545F0FE4102
:1005E00041F470014FF0000030BD7FEA645C1ABF37
:1005F000194610467FEA655C1CBF0B46024650EA6E
:10060000013406BF52EA033591EA030F41F4002199
:1006100030BD00BF90F0000F04BF0021704730B51F
:100620004FF4806404F132044FF000054FF00001F4
:1006300050E700BF90F0000F04BF0021704730B5B5
:100640004FF4806404F1320410F0004548BF40428A
:100650004FF000013EE700BF42004FEAE2014FEADF
:1006600031014FEA02701FBF12F07F4393F07F4FBA
:1006700081F06051704732F07F4208BF704793F0BD
:100680007F4F04BF41F40021704730B54FF46074D0
:1006900001F0004521F000411CE700BF50EA0102D3
:1006A00008BF704730B54FF000050AE050EA01027C
:1006B00008BF704730B511F0004502D5404261EBEC
:1006C00041014FF4806404F132045FEA915C3FF42D
:1006D000D8AE4FF003025FEADC0C18BF03325FEACA
:1006E000DC0C18BF033202EBDC02C2F1200300FA7B
:1006F00003FC20FA02F001FA03FE40EA0E0021FAA0
:1007000002F11444BDE600BF53B94AB9002908BF3D
:1007100000281CBF4FF0FF314FF0FF3000F074B9DC
:10072000ADF1080C6DE904CE00F006F8DDF804E048
:10073000DDE9022304B070472DE9F047089D044627
:100740008E46002B4DD18A42944669D9B2FA82F284
:1007500052B101FA02F3C2F1200120FA01F10CFAC0
:1007600002FC41EA030E94404FEA1C48210CBEFBF8
:10077000F8F61FFA8CF708FB16E341EA034306FB81
:1007800007F199420AD91CEB030306F1FF3080F010
:100790001F81994240F21C81023E63445B1AA4B25D
:1007A000B3FBF8F008FB103344EA034400FB07F7FF
:1007B000A7420AD91CEB040400F1FF3380F00A8140
:1007C000A74240F207816444023840EA0640E41B35
:1007D00000261DB1D4400023C5E900433146BDE8E1
:1007E000F0878B4209D9002D00F0EF800026C5E983
:1007F000000130463146BDE8F087B3FA83F6002E9B
:100800004AD18B4202D3824200F2F980841A61EB12
:10081000030301209E46002DE0D0C5E9004EDDE730
:1008200002B9FFDEB2FA82F2002A40F09280A1EB18
:100830000C014FEA1C471FFA8CFE0126200CB1FB6D
:10084000F7F307FB131140EA01410EFB03F0884266
:1008500008D91CEB010103F1FF3802D2884200F2F3
:10086000CB804346091AA4B2B1FBF7F007FB101185
:1008700044EA01440EFB00FEA64508D91CEB040423
:1008800000F1FF3102D2A64500F2BB800846A4EB7E
:100890000E0440EA03409CE7C6F12007B34022FA69
:1008A00007FC4CEA030C20FA07F401FA06F31C4398
:1008B000F9404FEA1C4900FA06F3B1FBF9F8200CA5
:1008C0001FFA8CFE09FB181140EA014108FB0EF0EB
:1008D000884202FA06F20BD91CEB010108F1FF3A3B
:1008E00080F08880884240F28580A8F10208614447
:1008F000091AA4B2B1FBF9F009FB101144EA014155
:1009000000FB0EFE8E4508D91CEB010100F1FF34FF
:100910006CD28E456AD90238614440EA0840A0FB97
:100920000294A1EB0E01A142C846A64656D353D06D
:100930005DB1B3EB080261EB0E0101FA07F722FA91
:1009400006F3F1401F43C5E9007100263146BDE8BA
:10095000F087C2F12003D8400CFA02FC21FA03F31D
:10096000914001434FEA1C471FFA8CFEB3FBF7F09E
:1009700007FB10360B0C43EA064300FB0EF69E42C3
:1009800004FA02F408D91CEB030300F1FF382FD25C
:100990009E422DD9023863449B1B89B2B3FBF7F604
:1009A00007FB163341EA034106FB0EF38B4208D9DD
:1009B0001CEB010106F1FF3816D28B4214D9023E1E
:1009C0006144C91A46EA004638E72E46284605E73C
:1009D0000646E3E61846F8E64B45A9D2B9EB02080D
:1009E00064EB0C0E0138A3E74646EAE7204694E79D
:1009F0004046D1E7D0467BE7023B614432E73046D0
:100A000009E76444023842E7704700BF0B4D0C4CC5
:100A100003E02B682360043504340A4B9C42F8D170
:100A2000094C02E0002323600434084B9C42F9D1B6
:100A300021F010FC04F042F8FEE700BF606E0224D3
:100A4000000000207407002000E80224307704240E
:100A5000FEE7000080B584B000AF0346FB71FB7970
:100A6000084A9B0013445B685B68FA7905490A44AD
:100A7000127B104698470346FB73FB7B18461037E2
:100A8000BD4680BD28EA022480B584B000AF03468D
:100A9000FB710023FB73FB790D4AD35C002B11D152
:100AA000FB790B4A0121D154FB79094A9B0013447D
:100AB0005B681B68FA7906490A44127B104698471E
:100AC0000346FB73FB7B18461037BD4680BD00BF55
:100AD00028EA022490B587B000AFB9607A603B6025
:100AE0000346FB73FB7B0A4A9B0013445B689C68CC
:100AF000FB7B074A1344187B3B687A68B968A047B8
:100B00000346FB75FB7D18461C37BD4690BD00BFF4
:100B100028EA022490B587B000AFB9607A603B60E4
:100B20000346FB73FB7B0A4A9B0013445B68DC684B
:100B3000FB7B074A1344187B3B687A68B968A04777
:100B40000346FB75FB7D18461C37BD4690BD00BFB4
:100B500028EA022480B584B000AF03463A60FB71F6
:100B60000B46BB71FB79094A9B0013445B681B6908
:100B7000FA7906490A44107BB9793A6898470346DE
:100B8000FB73FB7B18461037BD4680BD28EA022464
:100B900080B485B000AF78607B6801331B78FB813F
:100BA000FB891B021AB27B681B781BB213431BB272
:100BB000FB81FB8918461437BD465DF8047B7047FE
:100BC00080B485B000AF78607B6803331B78FB602E
:100BD000FB681B027A68023212781343FB60FB68E1
:100BE0001B027A68013212781343FB60FB681B0218
:100BF0007A6812781343FB60FB6818461437BD46C9
:100C00005DF8047B704780B483B000AF78600B461A
:100C10007B807B685A1C7A607A88D2B21A707B8893
:100C20001B0A7B807B685A1C7A607A88D2B21A7061
:100C300000BF0C37BD465DF8047B704780B483B0BD
:100C400000AF786039607B685A1C7A603A68D2B22B
:100C50001A703B681B0A3B607B685A1C7A603A68D2
:100C6000D2B21A703B681B0A3B607B685A1C7A60E0
:100C70003A68D2B21A703B681B0A3B607B685A1C08
:100C80007A603A68D2B21A7000BF0C37BD465DF880
:100C9000047B704780B487B000AFF860B9607A60B9
:100CA000FB687B61BB683B617B68002B0DD03A69B8
:100CB000531C3B617B69591C796112781A707B68FF
:100CC000013B7B607B68002BF1D100BF1C37BD4628
:100CD0005DF8047B704780B487B000AFF860B960FE
:100CE0007A60FB687B617B695A1C7A61BA68D2B210
:100CF0001A707B68013B7B607B68002BF3D100BFDF
:100D000000BF1C37BD465DF8047B704780B489B0D6
:100D100000AFF860B9607A60FB68FB61BB68BB61DB
:100D200000237B61FB695A1CFA611B781946BB6979
:100D30005A1CBA611B78CB1A7B617B68013B7B60D4
:100D40007B68002B02D07B69002BEBD07B691846B7
:100D50002437BD465DF8047B704780B483B000AF94
:100D60007860396002E07B6801337B607B681B78C8
:100D7000002B05D07B681B781A463B689342F2D162
:100D80007B681B7818460C37BD465DF8047B7047BE
:100D900080B586B000AF78600023FB737B68DB789A
:100DA000002B34D07B685B6B7B617B6858787B68F9
:100DB00003F1380101237A69FFF7ACFE0346002BEB
:100DC00002D00123FB7322E07B680022DA707B688B
:100DD0009B6A7A69D21A7B681B6A9A4217D27B682F
:100DE0009B783B6110E07B681B6A7A6913447B61E6
:100DF0007B6858787B6803F1380101237A69FFF733
:100E000089FE3B69013B3B613B69012BEBD8FB7BD6
:100E100018461837BD4680BD80B584B000AF7860F5
:100E200039600023FB737B685B6B3A689A421BD086
:100E30007868FFF7ADFF0346FB73FB7B002B13D1F4
:100E40007B6858787B6803F1380101233A68FFF723
:100E500041FE0346002B04D04FF0FF333B600123DB
:100E6000FB737B683A685A63FB7B18461037BD46B4
:100E700080BD000080B584B000AF78607868FFF76F
:100E800087FF0346FB73FB7B002B58D17B681B78E5
:100E9000032B48D17B681B79012B44D17B68383305
:100EA0004FF4007200211846FFF715FF7B683833B6
:100EB00003F5FF734AF655211846FFF7A4FE7B6839
:100EC000383321491846FFF7B9FE7B68383303F5FC
:100ED000F2731E491846FFF7B1FE7B68383303F5FD
:100EE000F4727B685B6919461046FFF7A7FE7B68C2
:100EF000383303F5F6727B681B6919461046FFF715
:100F00009DFE7B685B6A5A1C7B685A637B685878D5
:100F10007B6803F138017B685A6B0123FFF7FAFD08
:100F20007B6800221A717B685B78002200211846DA
:100F3000FFF710FE0346002B01D00123FB73FB7B60
:100F400018461037BD4680BD5252614172724161F0
:100F500080B483B000AF786039603B68023B3B608F
:100F60007B68DB69023B3A689A4201D3002308E0C0
:100F70007B685B891A463B6803FB02F27B681B6B4C
:100F8000134418460C37BD465DF8047B704780B5A6
:100F900086B000AF786039607B681B683B613B6856
:100FA000012B04D93B69DB693A689A4202D30123D9
:100FB0007B618FE04FF0FF337B613B691B78032B34
:100FC00062D0032B7CDC012B02D0022B42D077E0D5
:100FD0003B68FB60FB685B08FA681344FB603B6995
:100FE0009A6AFB685B0A134419463869FFF714FFD5
:100FF0000346002B67D1FB685A1CFA60C3F3080351
:101000003A69134493F83830BB603B699A6AFB68CD
:101010005B0A134419463869FFF7FEFE0346002BAE
:1010200053D1FB68C3F308033A69134493F838308B
:101030001B021A46BB681343BB603B6803F0010305
:10104000002B02D0BB681B0902E0BB68C3F30B0393
:101050007B613FE03B699A6A3B681B0A134419466F
:101060003869FFF7D9FE0346002B30D13B6903F105
:1010700038023B685B0003F4FF7313441846FFF724
:1010800087FD03467B6125E03B699A6A3B68DB0983
:10109000134419463869FFF7BFFE0346002B18D1E9
:1010A0003B6903F138023B689B0003F4FE73134471
:1010B0001846FFF785FD034623F070437B6109E086
:1010C00001237B6106E000BF04E000BF02E000BF37
:1010D00000E000BF7B6918461837BD4680BD90B55B
:1010E00089B000AFF860B9607A600223FB77BB6813
:1010F000012B40F2D280FB68DB69BA689A4280F02B
:10110000CC80FB681B78032B00F09680032B00F348
:10111000CD80012B02D0022B6ED0C7E0BB68BB6133
:10112000BB695B08BA691344BB61FB689A6ABB6917
:101130005B0A13441946F868FFF76EFE0346FB7717
:10114000FB7F002B40F0AB80FB6803F13802BB69EA
:10115000591CB961C3F3080313447B61BB6803F0F6
:101160000103002B0DD07B691B785BB203F00F03EA
:101170005AB27B68DBB21B015BB213435BB2DBB2DA
:1011800001E07B68DBB27A691370FB680122DA70D8
:10119000FB689A6ABB695B0A13441946F868FFF753
:1011A0003BFE0346FB77FB7F002B7AD1FB6803F104
:1011B0003802BB69C3F3080313447B61BB6803F0C7
:1011C0000103002B03D07B681B09DBB20EE07B69B7
:1011D0001B785BB223F00F035AB27B681B0A5BB229
:1011E00003F00F035BB213435BB2DBB27A69137097
:1011F000FB680122DA7059E0FB689A6ABB681B0A37
:1012000013441946F868FFF707FE0346FB77FB7F98
:10121000002B48D1FB6803F13802BB685B0003F484
:10122000FF7313447A6892B211461846FFF7EBFC3D
:10123000FB680122DA7039E0FB689A6ABB68DB0957
:1012400013441946F868FFF7E7FD0346FB77FB7F79
:10125000002B2AD17B6823F07044FB6803F138022D
:10126000BB689B0003F4FE7313441846FFF7A8FC09
:10127000034603F0704323437B60FB6803F13802AD
:10128000BB689B0003F4FE73134479681846FFF7AC
:10129000D5FCFB680122DA7008E000BF06E000BF61
:1012A00004E000BF02E000BF00E000BFFB7F184683
:1012B0002437BD4690BD80B588B000AFF860B960F6
:1012C0007A600023FB77FB681B68BB61BB68012B5E
:1012D00004D9BB69DB69BA689A4201D302234BE0A7
:1012E0007B68002B0CD04FF0FF327968B869FFF7AC
:1012F000F6FE0346FB77FB7F002B01D0FB7F3BE034
:10130000B968F868FFF743FE78617B69002B31D03C
:101310007B69012B01D102232EE07B69B3F1FF3FF2
:1013200001D1012328E00022B968B869FFF7D7FE90
:101330000346FB77FB7F002B01D0FB7F1CE0BB69E2
:101340005A69BB69DB69023B9A420BD2BB695B6994
:101350005A1CBB695A61BB691B7943F00103DAB2BD
:10136000BB691A717B69BB60BB69DB69BA689A4269
:10137000C6D300E000BF002318462037BD4680BD1D
:1013800080B588B000AF786039607B681B683B61CE
:101390003B68002B0DD13B691B69BB61BB69002B0E
:1013A00004D03B69DB69BA699A421BD30123BB6154
:1013B00018E039687868FFF7EAFDF860FB68012BF0
:1013C00001D8012370E0FB68B3F1FF3F01D1FB6856
:1013D0006AE03B69DB69FA689A4201D2FB6863E024
:1013E0003B68BB61BB69FB61FB690133FB613B6926
:1013F000DB69FA699A4207D30223FB61FA69BB6988
:101400009A4201D900234FE0F9697868FFF7BFFDE0
:10141000F860FB68002B0ED0FB68012B03D0FB6843
:10142000B3F1FF3F01D1FB683EE0FA69BB699A4224
:10143000DAD1002338E000BF4FF0FF32F969386994
:10144000FFF74DFE0346FB75FB7D002B09D13B6882
:10145000002B06D0FA6939683869FFF740FE034669
:10146000FB75FB7D002B16D13B69FA691A613B695C
:101470005A693B69DB69023B9A4204D83B695B6964
:101480005A1E3B695A613B691B7943F00103DAB28A
:101490003B691A7107E0FB7D012B02D14FF0FF334E
:1014A00000E00123FB61FB6918462037BD4680BD83
:1014B00080B487B000AF786039607B681B68FB60E0
:1014C0007B689B6A04333B613B685B0AFA6852891C
:1014D000B3FBF2F37B613B691A1D3A611B68BB6089
:1014E000BB68002B01D1002310E07A69BB689A42E7
:1014F00007D37A69BB68D31A7B613B6904333B61CC
:10150000E9E700BF3B691A687B69134418461C373A
:10151000BD465DF8047B704780B586B000AF78604B
:1015200039607B681B683B613B68B3F5001F04D2E0
:101530003B6803F01F03002B01D0022363E07B68AC
:101540003A681A617B689B687B617B69002B06D1D6
:101550003B691B78022B02D93B69DB6A7B617B69A3
:10156000002B0CD13B685B093A691289934201D385
:10157000022348E03B69DA6A7B689A6129E03B69AB
:101580005B895B02FB6019E07B6879691846FFF7AD
:10159000FEFC78617B69B3F1FF3F01D1012332E0AA
:1015A0007B69012B04D93B69DB697A699A4201D3D3
:1015B000022328E03A68FB68D31A3B603A68FB686C
:1015C0009A42E1D279693869FFF7C2FC02467B682A
:1015D0009A617B687A695A617B689B69002B01D1AB
:1015E000022310E07B689A693B685B0A1A447B68B7
:1015F0009A613B6903F138023B68C3F308031A445C
:101600007B68DA61002318461837BD4680BD80B577
:1016100086B000AF786039607B681B68FB607B68D0
:101620001B692033BB607B689B69002B03D0BB68C0
:10163000B3F5001F01D30423AAE0BB68C3F308037A
:10164000002B40F098807B689B695A1C7B689A61EC
:101650007B685B69002B0BD1BB685B09FA68128958
:101660009342C0F088807B6800229A6104238FE057
:10167000BB685B0AFA685289013A1340002B7AD1A1
:101680007A687B685B6919461046FFF780FC7861D1
:101690007B69012B01D802237AE07B69B3F1FF3F1C
:1016A00001D1012374E0FB68DB697A699A4258D35F
:1016B0003B68002B04D17B6800229A61042367E019
:1016C0007A687B685B6919461046FFF759FE7861B6
:1016D0007B69002B01D107235AE07B69012B01D1E3
:1016E000022355E07B69B3F1FF3F01D101234FE0B5
:1016F000F868FFF74DFB0346002B01D0012347E0BC
:10170000FB6838334FF4007200211846FFF7E3FA04
:1017100000233B617969F868FFF71AFC0246FB6811
:101720005A6312E0FB680122DA70F868FFF730FBB9
:101730000346002B01D001232AE03B6901333B61C2
:10174000FB685B6B5A1CFB685A63FB685B891A4633
:101750003B699342E6D3FB685A6B3B69D21AFB683C
:101760005A637B687A695A617969F868FFF7F0FB18
:1017700002467B689A617B68BA681A61FB6803F16C
:101780003802BB68C3F308031A447B68DA6100239C
:1017900018461837BD4680BD80B586B000AF78606A
:1017A00039607B681B68FB6000217868FFF7B4FE36
:1017B0000346FB75FB7D002B2BD100233B617B682F
:1017C0009B691946F868FFF727FB0346FB75FB7D0D
:1017D000002B1DD17B68DB691B78E52B04D07B686F
:1017E000DB691B78002B07D13B6901333B613A6908
:1017F0003B689A4202D10CE000233B6101217868EA
:10180000FFF705FF0346FB75FB7D002BD7D000E0FB
:1018100000BFFB7D042B01D10723FB75FB7D184620
:101820001837BD4680BD80B584B000AF78603960A0
:101830003B681A331846FFF7ABF90346FB607B6839
:101840001B78032B09D13B6814331846FFF7A0F926
:1018500003461B04FA681343FB60FB681846103705
:10186000BD4680BD80B584B000AFF860B9607A60D5
:10187000BB681A337A6892B211461846FFF7C3F96B
:10188000FB681B78032B09D1BB6803F114027B684A
:101890001B0C9BB219461046FFF7B5F900BF103775
:1018A000BD4680BD90B587B000AF786039603B68B9
:1018B0001A331846FFF76CF90346002B01D00023BA
:1018C00059E03B681B7803F03F035A1E13465B0048
:1018D00013449B0013447B610123FB8100233B6184
:1018E00033E0274A3B6913441B781A463B6813448C
:1018F0001846FFF74DF90346BB81FB89002B1AD030
:101900007B69FE2B12D8BB89184602F01FFB0346E9
:101910001C467B695A1C7A615B007A6813441B88F9
:10192000184602F013FB03469C4201D0002322E03C
:10193000BB89FB8106E0BB894FF6FF72934201D061
:10194000002318E03B6901333B613B690C2BC8D98C
:101950003B681B7803F04003002B0BD0FB89002B66
:1019600008D07B695B007A6813441B88002B01D088
:10197000002300E0012318461C37BD4690BD00BF80
:101980001C58022480B586B000AF786039603B688F
:101990001A331846FFF7FCF80346002B01D000234A
:1019A0004DE03B681B7823F040035A1E13465B0052
:1019B00013449B0013447B610123FB8100233B61A3
:1019C00028E0214A3B6913441B781A463B681344BC
:1019D0001846FFF7DDF80346BB81FB89002B0FD0CB
:1019E0007B69FE2B01D9002329E0BB89FB817B6940
:1019F0005A1C7A615B007A681344FA891A8006E0FF
:101A0000BB894FF6FF72934201D0002317E03B6978
:101A100001333B613B690C2BD3D93B681B7803F046
:101A20004003002B0AD07B69FE2B01D9002306E07E
:101A30007B695B007A68134400221A8001231846F0
:101A40001837BD4680BD00BF1C58022480B588B041
:101A500000AFF860B96011461A460B46FB71134699
:101A6000BB71BB680D33BA791A70BB680B330F2298
:101A70001A70BB680C3300221A70BB681A3300213D
:101A80001846FFF7C0F8FB795A1E13465B00134453
:101A90009B001344FB610023FB820023BB61FB8A94
:101AA0004FF6FF72934207D0FB695A1CFA615B0044
:101AB000FA6813441B88FB82174ABB6913441B78DE
:101AC0001A46BB681344FA8A11461846FFF79BF87A
:101AD000FB8A002B02D14FF6FF73FB82BB690133F7
:101AE000BB61BB690C2BDAD9FB8A4FF6FF729342BC
:101AF00006D0FB695B00FA6813441B88002B03D1F6
:101B0000FB7943F04003FB71BB68FA791A7000BFA0
:101B10002037BD4680BD00BF1C58022480B58CB064
:101B200000AFF860B9607A603B600B22B968F86872
:101B3000FFF7B0F83B68052B29D93B68FB6120E033
:101B40007B689A1C7A601B887B840023BB6215E04B
:101B5000FB695A007B8C03F001031344FB617B8C0F
:101B60005B087B84FB6903F48033002B03D0FA69A4
:101B7000304B5340FB61BB6A0133BB62BB6A0F2B26
:101B8000E6D97B681B88002BDAD1FB693B60072311
:101B9000BB623B68DBB203F00F03DBB2303387F884
:101BA0002F3097F82F30392B04D997F82F3007337F
:101BB00087F82F30BB6A5A1EBA6230333B4497F81D
:101BC0002F2003F81C2C3B681B093B603B68002B53
:101BD000DFD107F11402BB6A13447E221A7000237E
:101BE0007B6202E07B6A01337B627A6ABB6A9A425B
:101BF00005D2FA687B6A13441B78202BF2D1BB6AAA
:101C0000072B07D8BB6A5A1CBA6230333B4413F81F
:101C10001C1C00E020217B6A5A1C7A62FA6813447B
:101C20000A461A707B6A072BE9D900BF00BF30371C
:101C3000BD4680BD2110010080B485B000AF786042
:101C40000023FB730B23BB60FB7BDAB25208DB0182
:101C50001343DAB27B68591C79601B781344FB7319
:101C6000BB68013BBB60BB68002BEDD1FB7B18461A
:101C70001437BD465DF8047B704780B586B000AF71
:101C8000786039600423FB757B681B683B61FF2328
:101C90007B75FF233B7581E07B689B69194638693A
:101CA000FFF7BAF80346FB75FB7D002B7CD17B6800
:101CB000DB691B78BB75BB7D002B02D10423FB7550
:101CC00077E07B68DB690B331B7803F03F03FB7322
:101CD0007B68FA7B9A71BB7DE52B0ED0BB7D2E2BEA
:101CE0000BD0FB7B23F02003082B0CBF0123002328
:101CF000DBB21A463B68934202D0FF237B7544E077
:101D0000FB7B0F2B2FD1BB7D03F04003002B0DD0AD
:101D10007B68DB695B7B3B75BB7D23F04003BB7558
:101D2000BB7D7B757B681A697B68DA62BA7D7B7DD7
:101D30009A4215D17B68DB690D331B783A7D9A4254
:101D40000ED13B69DA687B68DB6919461046FFF7FC
:101D500019FE0346002B03D07B7D013BDBB200E084
:101D6000FF237B7511E07B7D002B09D17B68DB694C
:101D70001846FFF761FF03461A463B7D934215D094
:101D80007B684FF0FF32DA6210E000217868FFF7DD
:101D90003EFC0346FB75FB7D002B09D17B689B69EC
:101DA000002B7FF479AF04E000BF02E000BF00E049
:101DB00000BFFB7D002B02D07B6800229A61FB7D77
:101DC00018461837BD4680BD80B586B000AF786034
:101DD0007B681B683B6100217868FFF79DFB034629
:101DE000FB75FB7D002B01D0FB7DA9E0FF233B753C
:101DF0003B7D7B757B684FF0FF32DA627B689B69C5
:101E000019463869FFF708F80346FB75FB7D002B80
:101E100040F090807B68DB691B78BB75BB7D002B35
:101E200002D10423FB758AE07B68DB690B331B78E6
:101E300003F03F03FB737B68FA7B9A71BB7DE52B54
:101E400007D0FB7B03F00803002B09D0FB7B0F2B93
:101E500006D0FF237B757B684FF0FF32DA625EE0CD
:101E6000FB7B0F2B36D17B6893F82B3003F04003BC
:101E7000002B54D1BB7D03F04003002B0DD07B68B9
:101E8000DB695B7B3B75BB7D23F04003BB75BB7D92
:101E90007B757B681A697B68DA62BA7D7B7D9A42C2
:101EA00015D17B68DB690D331B783A7D9A420ED1E0
:101EB0003B69DA687B68DB6919461046FFF7F2FC7C
:101EC0000346002B03D07B7D013BDBB200E0FF2308
:101ED0007B7524E07B7D002B09D17B68DB6918468C
:101EE000FFF7AAFE03461A463B7D934224D07B6847
:101EF00093F82B3003F00103002B0AD17B68D869DB
:101F00007B6820330B221946FEF700FF0346002BA7
:101F100014D0FF237B757B684FF0FF32DA6200211B
:101F20007868FFF774FB0346FB75FB7D002B3FF4DD
:101F300065AF04E000BF02E000BF00E000BFFB7D32
:101F400018461837BD4680BD80B58CB000AF7860AC
:101F50007B681B68FB617B6893F82B3003F0A00360
:101F6000002B01D00623E0E000237B6202E07B6AC5
:101F700001337B62FB69DA687B6A5B0013441B8870
:101F8000002BF4D17B6803F1200107F10C030C2234
:101F90001846FEF77FFEFB7D03F00103002B32D0D5
:101FA0007B68402283F82B200123BB6216E07B680C
:101FB00003F12000FB69DA6807F10C01BB6AFFF747
:101FC000ADFD7868FFF700FF034687F82F3097F8DC
:101FD0002F30002B06D1BB6A0133BB62BB6A632B77
:101FE000E5D900E000BFBB6A642B01D107239CE068
:101FF00097F82F30042B02D097F82F3095E0FA7D18
:102000007B6883F82B20FB7D03F00203002B07D0B5
:102010007B6A0C33474AA2FB03239B08013300E091
:1020200001233B62396A7868FFF7B6FB034687F8FD
:102030002F3097F82F30002B48D13B6A013B3B6291
:102040003B6A002B42D07B681A693B6A5B01D31A5A
:1020500019467868FFF760FA034687F82F3097F83B
:102060002F30002B32D17B6820331846FFF7E4FD78
:102070000346FB767B689B691946F869FEF7CCFE40
:10208000034687F82F3097F82F30002B1DD1FB69BE
:10209000D8687B68D9693B6ADAB2FB7EFFF7D6FC69
:1020A000FB690122DA7000217868FFF7B0FA034675
:1020B00087F82F3097F82F30002B07D13B6A013B70
:1020C0003B623B6A002BD5D100E000BF97F82F3070
:1020D000002B28D17B689B691946F869FEF79CFEA6
:1020E000034687F82F3097F82F30002B1BD17B68E1
:1020F000DB69202200211846FEF7EDFD7B68D869D8
:102100007B6820330B221946FEF7C4FD7B6893F8E9
:102110002B207B68DB690C3302F01802D2B21A70F4
:10212000FB690122DA7097F82F3018463037BD4628
:1021300080BD00BF4FECC44E80B588B000AF786062
:1021400039607B681B683B613B6800229A757B683D
:102150009B69002B00F0C9807B68DB6AB3F1FF3F0D
:1021600032D00023BB61BB69FB611BE0FB8900210E
:10217000184601F0AFFE0346FB81FB89002B02D11C
:102180000023FB611AE0FB69FE2B02D90023FB61EF
:1021900014E0FB695A1CFA61FA89D1B23A68134417
:1021A0000A469A753B69DA68BB69591CB9615B00DC
:1021B00013441B88FB81FB89002BD7D13A68FB694C
:1021C0001344163300221A700023BB61BB69FB6104
:1021D0003A68FB69134416331B78BB814CE07B687B
:1021E000DA69FB69591CF96113441B78FB75FB7DA7
:1021F000202B00D140E0FB7D052B01D1E523FB75B1
:10220000FB69092B0FD1BB89002B05D13A68BB694B
:10221000134416332E221A70BB695A1CBA613A68ED
:1022200013442E225A723A68BB6913440933FA7D6B
:102230001A70BB89002B1CD1FB7D402B13D9FB7D71
:102240005A2B10D87B68DB690C331B781A46FB6964
:10225000082B01D9102300E008231340002B02D0E3
:10226000FB7D2033FB753A68BB6913441633FA7D56
:102270001A70BB690133BB61FB690A2BAFD9BB89FB
:10228000002B0DD13A68BB691344163300221A7033
:102290007B68DB690C331B78002B01D10023BB6109
:1022A0003A68BB691344093300221A707B68DB6902
:1022B000DA7A3B681A727B68DB691C331846FEF7D2
:1022C0007FFC02463B681A607B68DB691633184660
:1022D000FEF776FCB860BB689AB23B68DA80BB68F0
:1022E0001B0C9AB23B689A8000E000BF2037BD46C5
:1022F00080BD000080B58AB000AF786039603B686F
:102300001B683B617B681B68DB68FB6000237B61AB
:102310007B69BB61BB695A1CBA613A6913441B787B
:10232000BB84BB8C1F2B40D9BB8C2F2B06D0BB8C06
:102330005C2B10D102E0BB690133BB613A69BB6918
:1023400013441B782F2BF6D03A69BB6913441B78D2
:102350005C2BF0D02AE07B69FE2B01D90623CAE171
:10236000BB8CDBB2BB84BB8C0121184601F0B2FDF3
:102370000346BB84BB8C002B01D10623BBE1BB8C85
:102380007F2B09D8BB8C19469E48FEF7E6FC034616
:10239000002B01D00623AEE17B695A1C7A615B00F9
:1023A000FA681344BA8C1A80B4E700BF3A69BB6973
:1023B0001A443B681A60BB8C1F2B01D8042300E031
:1023C000002387F827307B69012B09D17A696FF0E8
:1023D000004313445B00FA6813441B882E2B15D06E
:1023E0007B69022B4DD17A696FF0004313445B0087
:1023F000FA6813441B882E2B43D17A69824B13440D
:102400005B00FA6813441B882E2B3AD17B695B0072
:10241000FA68134400221A8000233B620FE03A6AF4
:102420007B699A4201D22E2100E020217A683B6A22
:10243000134420330A461A703B6A01333B623B6AFD
:102440000A2BECD997F8273043F02003D9B27A68E9
:102450003B6A134420330A461A7000234BE17A6921
:102460006FF0004313445B00FA6813441B88BB847D
:10247000BB8C202B02D0BB8C2E2B06D17B69013B61
:102480007B617B69002BEAD100E000BF7B695B00C8
:10249000FA68134400221A807B69002B01D10623BD
:1024A00029E17B6820330B2220211846FEF713FC1C
:1024B0000023BB6102E0BB690133BB61BB695B0008
:1024C000FA6813441B88202BF5D0BB695B00FA68BF
:1024D00013441B882E2BEED0BB69002B09D097F834
:1024E000273043F0030387F8273002E07B69013B84
:1024F0007B617B69002B09D07A696FF0004313443C
:102500005B00FA6813441B882E2BEFD1002387F859
:10251000263000233B620823FB61BB695A1CBA6169
:102520005B00FA6813441B88BB84BB8C002B00F053
:102530009880BB8C202B06D0BB8C2E2B0AD1BA697D
:102540007B699A4206D097F8273043F0030387F857
:10255000273085E03A6AFB699A4203D2BA697B69FF
:102560009A4223D1FB690B2B06D197F8273043F011
:10257000030387F8273077E0BA697B699A4205D070
:1025800097F8273043F0030387F82730BA697B694F
:102590009A4268D87B69BB6108233B620B23FB61CD
:1025A00097F826309B0087F8263059E0BB8C7F2BAC
:1025B00014D9BB8C0021184601F08CFC0346BB8467
:1025C000BB8C002B04D0BB8C803B104AD35CBB84FB
:1025D00097F8273043F0020387F82730BB8C002B95
:1025E00007D0BB8C19460A48FEF7B7FB0346002B01
:1025F00010D05F23BB8497F8273043F0030387F89C
:10260000273023E070520224FEFFFF7F9C570224F4
:102610007C520224BB8C402B09D9BB8C5A2B06D888
:1026200097F8263043F0020387F826300EE0BB8C83
:10263000602B0BD9BB8C7A2B08D897F8263043F047
:10264000010387F82630BB8C203BBB843B6A5A1CB5
:102650003A62BA8CD1B27A6813440A4683F82020D1
:102660005BE700BF00E000BF7B6893F82030E52BFC
:1026700003D17B68052283F82020FB69082B04D155
:1026800097F826309B0087F8263097F8263003F01D
:102690000C030C2B05D097F8263003F00303032B13
:1026A00005D197F8273043F0020387F8273097F8D1
:1026B000273003F00203002B17D197F8263003F0E0
:1026C0000303012B05D197F8273043F0100387F857
:1026D000273097F8263003F00C03042B05D197F828
:1026E000273043F0080387F827307B6897F82720C6
:1026F00083F82B20002318462837BD4680BD00BF35
:1027000080B586B000AF786039607B683B613B691B
:102710001B68FB603B681B782F2B0BD03B681B783A
:102720005C2B07D0FB689A693B699A600DE03B68B7
:1027300001333B603B681B782F2BF8D03B681B783C
:102740005C2BF4D03B6900229A603B681B781F2BFE
:102750000AD87B68802283F82B2000217868FEF756
:10276000DBFE0346FB7556E03B4619467868FFF7EB
:10277000C1FD0346FB75FB7D002B47D17868FFF751
:1027800023FB0346FB757B6893F82B30FB72FB7DC4
:10279000002B1BD0FB7D042B3AD1FB7A03F02003E6
:1027A000002B0BD0FB7A03F00403002B2CD07B68AA
:1027B000802283F82B200023FB7529E0FB7A03F0AD
:1027C0000403002B24D10523FB7521E0FB7A03F0E1
:1027D0000403002B1ED13B699B7903F01003002BEF
:1027E00002D10523FB7516E0FB6803F138027B6814
:1027F0001B69C3F3080313441946F868FFF713F87D
:1028000002463B699A60AFE700BFADE700BF02E058
:1028100000BF00E000BFFB7D18461837BD4680BDF5
:1028200080B487B000AF78604FF0FF333B617B68C6
:102830001B68002B32D07B681B687B6102E07B69E0
:1028400001337B617B691B781F2B03D97B691B7864
:102850003A2BF4D17B691B783A2B1CD17B681B681F
:10286000FB60FB685A1CFA601B78303BBB60BB689E
:10287000092B0ED8FA687B699A420AD1BB68012BF2
:1028800007D8BB683B617B6901337B617B687A69F0
:102890001A603B6903E0054B1B783B613B691846B6
:1028A0001C37BD465DF8047B704700BF26E8022454
:1028B00080B582B000AF786039607B680022DA7042
:1028C0007B684FF0FF325A6339687868FEF7A4FAE4
:1028D0000346002B01D0042338E07B68383303F52E
:1028E000FF731846FEF754F903461A464AF6552375
:1028F0009A4201D0032329E07B6893F83830E92B12
:1029000009D07B6893F83830EB2B1ED17B6893F8A5
:102910003A30902B19D17B68383336331846FEF79E
:102920004FF9034623F07F430A4A934201D1002323
:102930000CE07B68383352331846FEF741F9034602
:10294000054A934201D1002300E0022318460837CC
:10295000BD4680BD464154004641543380B596B0D3
:1029600000AFF860B9601346FB71BB6800221A60C3
:10297000F868FFF755FFF863FB6B002B01DA0B23B8
:1029800030E2A14AFB6B52F82330BB63BB6B002BD8
:1029900001D10C2326E2BB68BA6B1A60FB7923F0E5
:1029A0000103FB71BB6B1B78002B1AD0BB6B5B78F0
:1029B0001846FEF74FF8034687F8373097F8373058
:1029C00003F00103002B0CD1FB79002B07D097F803
:1029D000373003F00403002B01D00A2302E2002366
:1029E00000E2BB6B00221A70FB6BDAB2BB6B5A7051
:1029F000BB6B5B781846FEF747F8034687F837301D
:102A000097F8373003F00103002B01D00323E9E1ED
:102A1000FB79002B07D097F8373003F00403002B25
:102A200001D00A23DEE100233B65396DB86BFFF767
:102A30003FFF034687F8573097F85730022B49D1AC
:102A400000233B641EE0BB6B03F138023B6C1B01AF
:102A500003F5DF7313443B633B6B04331B78002B9C
:102A600006D03B6B08331846FEF7AAF8024600E092
:102A700000223B6C9B0058333B4443F8442C3B6C96
:102A800001333B643B6C032BDDD900233B643B6C7F
:102A9000002B02D03B6C013B3B643B6C9B005833EA
:102AA0003B4453F8443C3B653B6D002B05D0396DEE
:102AB000B86BFFF7FDFE034600E0032387F85730AD
:102AC00097F85730012B05D93B6C01333B643B6CC5
:102AD000032BE2D997F85730042B01D1012381E170
:102AE00097F85730012B01D90D237BE1BB6B3833AD
:102AF0000B331846FEF74CF80346B3F5007F01D0C0
:102B00000D236FE1BB6B383316331846FEF740F8E0
:102B10000346FB64FB6C002B06D1BB6B38332433BC
:102B20001846FEF74DF8F864BB6BFA6C1A62BB6B83
:102B300093F84820BB6B9A70BB6B9B78012B05D038
:102B4000BB6B9B78022B01D00D234BE1BB6B9B78B9
:102B50001A46FB6C02FB03F3FB64BB6B93F8453036
:102B60009AB2BB6B5A81BB6B5B89002B08D0BB6BE5
:102B70005B891A46BB6B5B89013B1340002B01D07C
:102B80000D232FE1BB6B383311331846FEF700F8E5
:102B900003461A46BB6B1A81BB6B1B8903F00F03FC
:102BA0009BB2002B01D00D231CE1BB6B38331333D8
:102BB0001846FDF7EDFF0346BB64BB6C002B06D146
:102BC000BB6B383320331846FDF7FAFFB864BB6B94
:102BD00038330E331846FDF7DBFF0346FB85FB8DCC
:102BE000002B01D10D23FDE0FA8DFB6C1344BA6B71
:102BF0001289120992B21344BB62BA6CBB6A9A4240
:102C000004D20D23EEE000BF1CE80224BA6CBB6ABC
:102C1000D31ABA6B5289B3FBF2F37B627B6A002B47
:102C200001D10D23DEE0032387F857307B6A4FF68E
:102C3000F572934202D8022387F857307B6A40F638
:102C4000F572934202D8012387F857307B6A9A1CA9
:102C5000BB6BDA61BB6B3A6D5A62FA8D3B6D1A44FD
:102C6000BB6B9A623A6DBB6A1A44BB6B1A6397F8E6
:102C70005730032B1ED1BB6B38332A331846FDF770
:102C800087FF0346002B01D00D23ABE0BB6B1B89F4
:102C9000002B01D00D23A5E0BB6B38332C33184635
:102CA000FDF78EFF0246BB6BDA62BB6BDB699B00F4
:102CB0007B641FE0BB6B1B89002B01D10D2391E0CE
:102CC000BB6B9A6AFB6C1A44BB6BDA6297F857309D
:102CD000022B03D1BB6BDB695B000AE0BB6BDA69DB
:102CE00013465B0013445A08BB6BDB6903F0010316
:102CF00013447B64BB6B1A6A7B6C03F2FF135B0AA1
:102D00009A4201D20D236DE0BB6B4FF0FF325A6146
:102D1000BB6B5A69BB6B1A61BB6B80221A7197F847
:102D20005730032B49D1BB6B383330331846FDF78E
:102D30002FFF0346012B40D13B6D01331946B86B81
:102D4000FEF76AF80346002B37D1BB6B00221A71DD
:102D5000BB6B383303F5FF731846FDF719FF0346C5
:102D60001A464AF655239A4227D1BB6B3833184688
:102D7000FDF726FF03461D4A93421ED1BB6B383335
:102D800003F5F2731846FDF71BFF0346184A9342FA
:102D900013D1BB6B383303F5F4731846FDF710FFFE
:102DA0000246BB6B5A61BB6B383303F5F6731846AA
:102DB000FDF706FF0246BB6B1A61BB6B97F8572005
:102DC0001A700C4B1B8801339AB20A4B1A80094BBC
:102DD0001A88BB6BDA80BB6B074ADA60BB6B0022D8
:102DE0009A61002318465837BD4680BD5252614152
:102DF0007272416124E8022428E8022480B584B07C
:102E000000AF786039600923FB737B68002B1CD00E
:102E10007B681B68002B18D07B681B681B78002B15
:102E200013D07B689A887B681B68DB889A420CD138
:102E30007B681B685B781846FDF70CFE034603F0C1
:102E40000103002B01D10023FB73FB7B002B02D17C
:102E50007B681B6800E000233A681360FB7B184620
:102E60001037BD4680BD000080B588B000AFF86067
:102E7000B9601346FB71BB683B6107F1100318464C
:102E8000FFF7CEFCF861FB69002B01DA0B2328E089
:102E9000164AFB6952F82330BB61BB69002B02D094
:102EA000BB6900221A70FB68002B02D0FB6800226D
:102EB0001A70FA680D49FB6941F82320FB68002B62
:102EC00002D0FB79012B01D000230AE007F10C01AD
:102ED00007F1080300221846FFF740FD0346FB7583
:102EE000FB7D18462037BD4680BD00BF1CE802248C
:102EF00080B598B000AFF860B9601346FB71FB680D
:102F0000002B01D109237AE1FB7903F03F03FB7128
:102F1000FA7907F1100107F108031846FFF71EFDC3
:102F2000034687F85F3097F85F30002B40F05E81F2
:102F30003B697B61BA6807F1140311461846FFF735
:102F4000DFFB034687F85F3097F85F30002B07D12F
:102F500097F83F305BB2002B02DA062387F85F3028
:102F6000FB7903F01C03002B78D097F85F30002B1F
:102F700010D097F85F30042B07D107F114031846DF
:102F8000FEF7E2FF034687F85F30FB7943F0080362
:102F9000FB7110E0BB7E03F01103002B03D007236D
:102FA00087F85F3007E0FB7903F00403002B02D0C1
:102FB000082387F85F3097F85F30002B68D1FB79E2
:102FC00003F00803002B63D00BF0DAFC38653B6B91
:102FD0000E33396D1846FDF731FE3B6B1633396DF4
:102FE0001846FDF72BFE3B6B0B3320221A703B6912
:102FF0003A6B11461846FEF716FCF8643B69396BCC
:1030000000221846FEF72EFC3B6B1C3300211846AD
:10301000FDF714FE3B690122DA70FB6C002B37D000
:103020003B695B6B3B6507F114030022F96C1846A2
:10303000FEF741F9034687F85F3097F85F30002BC1
:1030400026D13B69396D1846FDF7E6FE034687F841
:103050005F303B69FA6C013A1A6119E097F85F300A
:10306000002B15D1BB7E03F01003002B03D00423EB
:1030700087F85F300CE0FB7903F00203002B07D0E8
:10308000BB7E03F00103002B02D0072387F85F30DB
:1030900097F85F30002B0FD1FB7903F00803002B6A
:1030A00003D0FB7943F04003FB713B695A6BFB682B
:1030B0001A623A6BFB685A6297F85F30002B40F057
:1030C00095803B693A6B11461846FEF7ACFB024609
:1030D000FB689A603B6B1C331846FDF771FD024696
:1030E000FB68DA60FB6800229A623A69FB681A6042
:1030F0003B69DA88FB689A80FB68FA791A74FB6886
:1031000000225A74FB680022DA61FB6800225A61CF
:10311000FB682C334FF4007200211846FDF7DBFDED
:10312000FB7903F02003002B60D0FB68DB68002BE9
:103130005CD0FB68DA68FB685A613B695B895B02BB
:10314000BB64FB689B68BB65FB68DB687B6516E05E
:10315000FB68B96D1846FDF71AFFB865BB6D012B0A
:1031600002D8022387F85F30BB6DB3F1FF3F02D175
:10317000012387F85F307A6DBB6CD31A7B6597F8B3
:103180005F30002B03D17A6DBB6C9A42E0D8FB68AC
:10319000BA6D9A6197F85F30002B27D17B6DC3F32E
:1031A0000803002B22D03B69B96D1846FDF7D0FE0D
:1031B00078647B6C002B03D1022387F85F3015E025
:1031C0007B6D5A0A7B6C1A44FB68DA613B6958785C
:1031D000FB6803F12C01FB68DA690123FDF77AFC37
:1031E0000346002B02D0012387F85F3097F85F3049
:1031F000002B02D0FB6800221A6097F85F30184657
:103200006037BD4680BD80B58EB000AFF860B96054
:103210007A603B60BB687B623B6800221A60FB6897
:1032200007F1140211461846FFF7E8FD034687F838
:10323000373097F83730002B07D1FB685B7C87F875
:10324000373097F83730002B02D097F8373015E138
:10325000FB681B7C03F00103002B01D107230DE168
:10326000FB68DA68FB685B69D31A3B627A683B6A81
:103270009A4240F2FE803B6A7B60FAE0FB685B6941
:10328000C3F30803002B40F0C680FB685B695B0A50
:103290007A695289013A1340FB61FB69002B2FD1F7
:1032A000FB685B69002B03D1FB689B683B6313E001
:1032B000FB689B6A002B07D0FB685B691946F868BE
:1032C000FEF7F6F8386307E0FA68FB689B69194671
:1032D0001046FDF75CFE38633B6B012B04D8FB689E
:1032E00002225A740223C9E03B6BB3F1FF3F04D1C1
:1032F000FB6801225A740123C0E0FB683A6B9A61B3
:103300007A69FB689B6919461046FDF721FEB86192
:10331000BB69002B04D1FB6802225A740223ADE082
:10332000BA69FB691344BB617B685B0ABB62BB6A19
:10333000002B39D0FA69BB6A13447A6952899342E7
:1033400005D97B695B891A46FB69D31ABB627B6925
:103350005878BB6ABA69796AFDF7BCFB0346002B53
:1033600004D0FB6801225A74012387E0FB681B7CB0
:103370005BB2002B14DAFB68DA69BB69D31ABA6A4C
:103380009A420DD9FB68DA69BB69D31A5B027A6A83
:10339000D018FB682C334FF400721946FDF77AFC05
:1033A000BB6A5B02FB6250E0FB68DB69BA699A4268
:1033B0002ED0FB681B7C5BB2002B18DA7B69587837
:1033C000FB6803F12C01FB68DA690123FDF7A2FB1E
:1033D0000346002B04D0FB6801225A7401234DE000
:1033E000FB681B7C03F07F03DAB2FB681A747B690D
:1033F0005878FB6803F12C010123BA69FDF76AFBD9
:103400000346002B04D0FB6801225A74012335E0E7
:10341000FB68BA69DA61FB685B69C3F30803C3F54B
:103420000073FB62FA6A7B689A4201D97B68FB628F
:10343000FB6803F12C02FB685B69C3F308031344C8
:10344000FA6A1946786AFDF725FC7A6AFB6A134422
:103450007B62FB685A69FB6A1A44FB685A613B68E5
:103460001A68FB6A1A443B681A607A68FB6AD31AC6
:103470007B607B68002B7FF401AF00231846383750
:10348000BD4680BD80B58CB000AFF860B9607A6091
:103490003B60BB68FB613B6800221A60FB6807F178
:1034A000100211461846FFF7A9FC034687F82F3093
:1034B00097F82F30002B07D1FB685B7C87F82F3003
:1034C00097F82F30002B02D097F82F304BE1FB6894
:1034D0001B7C03F00203002B01D1072343E1FB68AF
:1034E0005A697B681A44FB685B699A4280F02D81B7
:1034F000FB685B69DB437B6027E1FB685B69C3F3C7
:103500000803002B40F0E380FB685B695B0A3A69C3
:103510005289013A1340BB61BB69002B43D1FB6860
:103520005B69002B0CD1FB689B68BB62BB6A002BFC
:103530001AD1FB6800211846FDF722FFB86213E09C
:10354000FB689B6A002B07D0FB685B691946F8682B
:10355000FDF7AEFFB86207E0FA68FB689B691946A1
:103560001046FDF70DFFB862BB6A002B00F0F28039
:10357000BB6A012B04D1FB6802225A740223F2E0D9
:10358000BB6AB3F1FF3F04D1FB6801225A740123E7
:10359000E9E0FB68BA6A9A61FB689B68002B02D17C
:1035A000FB68BA6A9A60FB681B7C5BB2002B18DA76
:1035B0003B695878FB6803F12C01FB68DA69012349
:1035C000FDF7A8FA0346002B04D0FB6801225A74C9
:1035D0000123C8E0FB681B7C03F07F03DAB2FB68C1
:1035E0001A743A69FB689B6919461046FDF7B0FCEE
:1035F00078617B69002B04D1FB6802225A74022394
:10360000B1E07A69BB6913447B617B685B0A3B620A
:103610003B6A002B3CD0BA693B6A13443A69528931
:10362000934205D93B695B891A46BB69D31A3B6251
:103630003B6958783B6A7A69F969FDF76BFA03468A
:10364000002B04D0FB6801225A7401238BE0FB6835
:10365000DA697B69D31A3A6A9A4215D9FB6803F191
:103660002C00FB68DA697B69D31A5B02FA691344A0
:103670004FF400721946FDF70DFBFB681B7C03F04D
:103680007F03DAB2FB681A743B6A5B027B623FE03D
:10369000FB68DB697A699A4216D0FB685A69FB6855
:1036A000DB689A4210D23B695878FB6803F12C0121
:1036B00001237A69FDF70EFA0346002B04D0FB685C
:1036C00001225A7401234EE0FB687A69DA61FB68D3
:1036D0005B69C3F30803C3F500737B627A6A7B6896
:1036E0009A4201D97B687B62FB6803F12C02FB687C
:1036F0005B69C3F3080313447A6AF9691846FDF756
:10370000C9FAFB681B7C63F07F03DAB2FB681A74AA
:10371000FA697B6A1344FB61FB685A697B6A1A4445
:10372000FB685A61FB68DA68FB685B699A4238BFDC
:103730001A46FB68DA603B681A687B6A1A443B6881
:103740001A607A687B6AD31A7B607B68002B7FF4EF
:10375000D4AE00E000BFFB681B7C43F04003DAB24C
:10376000FB681A74002318463037BD4680BD80B50B
:1037700086B000AF78607B6807F1080211461846F2
:10378000FFF73CFB0346FB75FB7D002B68D17B6894
:103790001B7C03F04003002B62D07B681B7C5BB278
:1037A000002B15DABB6858787B6803F12C017B6825
:1037B000DA690123FDF7AEF90346002B01D001239E
:1037C0004FE07B681B7C03F07F03DAB27B681A74DE
:1037D0000BF0D6F83861BA687B681B6A1946104648
:1037E000FDF71AFB0346FB75FB7D002B38D17B6888
:1037F0005B6AFB60FB680B331A78FB680B3342F0A3
:103800002002D2B21A707B6818687B689B681A46DF
:10381000F968FEF727F8FB6803F11C027B68DB6898
:1038200019461046FDF70AFAFB681633396918463F
:10383000FDF704FAFB68123300211846FDF7E3F99F
:10384000BB680122DA70BB681846FDF713FB03461C
:10385000FB757B681B7C23F04003DAB27B681A742B
:10386000FB7D18461837BD4680BD80B584B000AFDB
:1038700078607868FFF77BFF0346FB73FB7B002BC8
:103880000ED17B6807F1080211461846FFF7B6FA19
:103890000346FB73FB7B002B02D17B6800221A607E
:1038A000FB7B18461037BD4680BD80B590B000AF99
:1038B000786039607B6807F1080211461846FFF707
:1038C0009DFA034687F83F3097F83F30002B03D12D
:1038D0007B685B7C87F83F3097F83F30002B02D045
:1038E00097F83F30E6E17B689B6A002B00F0D180BF
:1038F0003B68B3F1FF3F5AD17B689B6A7B627B6A6E
:103900001A1D7A621B687B610223BB627B689B681D
:103910003B633B6B002B3AD03B6B3B610023FB626C
:10392000BB6A0233BB623B6BFB60FB6A0133FB6229
:103930007B68396B1846FDF72AFB38633B6B012B1C
:1039400004D87B6802225A740223B3E13B6BB3F1C3
:10395000FF3F04D17B6801225A740123AAE1FB686E
:1039600001333A6B9A42DED0BA6A7B699A4209D82F
:103970007B6A1A1D7A62FA6A1A607B6A1A1D7A6279
:103980003A691A60BB68DB693A6B9A42C4D37B68B8
:103990009B6ABA6A1A60BA6A7B699A4203D87B6AE0
:1039A00000221A6084E1112387F83F3080E17B68B0
:1039B000DB683A689A4202D97B68DB683B607B68C7
:1039C0003A685A613B68002B00F072813B68013B0A
:1039D00019467868FDF76CFD02467B689A61BA6803
:1039E0007B689B6919461046FDF7B2FAB861BB695E
:1039F000002B04D17B6802225A7402235AE13B68EF
:103A0000013B5B0ABA685289013A1340BA69134410
:103A1000BB617B685B69C3F30803002B00F048813E
:103A20007B68DB69BA699A4200F042817B681B7C43
:103A30005BB2002B18DABB6858787B6803F12C0165
:103A40007B68DA690123FDF765F80346002B04D093
:103A50007B6801225A7401232CE17B681B7C03F0F4
:103A60007F03DAB27B681A74BB6858787B6803F10D
:103A70002C010123BA69FDF72DF80346002B04D071
:103A80007B6801225A74012314E17B68BA69DA6108
:103A90000EE17B68DB683A689A4208D97B681B7C38
:103AA00003F00203002B02D17B68DB683B607B687C
:103AB0005B693B6200237B637B687A6B5A613B687E
:103AC000002B00F0A780BB685B895B02FB613B6A4F
:103AD000002B1BD03B685A1EFB69B2FBF3F23B6A1A
:103AE000591EFB69B1FBF3F39A420FD33B6A5A1E8E
:103AF000FB695B421A407B685A617B685B693A6884
:103B0000D31A3B607B689B69BB6322E07B689B6840
:103B1000BB63BB6B002B19D17B6800211846FDF7F6
:103B20002FFCB863BB6B012B04D17B6802225A7453
:103B30000223BFE0BB6BB3F1FF3F04D17B680122DE
:103B40005A740123B6E07B68BA6B9A607B68BA6BE3
:103B50009A61BB6B002B5DD03AE03A68FB69D31ADF
:103B60003B607B685A69FB691A447B685A617B68D1
:103B70001B7C03F00203002B0BD07B68B96B18464B
:103B8000FDF7FEFBB863BB6B002B08D100233B6045
:103B900022E07B68B96B1846FDF7F9F9B863BB6B97
:103BA000B3F1FF3F04D17B6801225A74012381E005
:103BB000BB6B012B04D9BB68DB69BA6B9A4204D397
:103BC0007B6802225A74022374E07B68BA6B9A61A4
:103BD0003A68FB699A42C0D87B685A693B681A44C4
:103BE0007B685A613B68C3F30803002B12D0BB68A3
:103BF000B96B1846FDF7ACF978637B6B002B04D1E9
:103C00007B6802225A74022354E03B685B0A7A6B99
:103C100013447B637B685A697B68DB689A420AD9E4
:103C20007B685A697B68DA607B681B7C43F04003E1
:103C3000DAB27B681A747B685B69C3F30803002BF4
:103C400036D07B68DB697A6B9A4231D07B681B7C0B
:103C50005BB2002B18DABB6858787B6803F12C0143
:103C60007B68DA690123FCF755FF0346002B04D07B
:103C70007B6801225A7401231CE07B681B7C03F0E3
:103C80007F03DAB27B681A74BB6858787B6803F1EB
:103C90002C0101237A6BFCF71DFF0346002B04D097
:103CA0007B6801225A74012304E07B687A6BDA6135
:103CB00097F83F3018464037BD4680BD80B586B086
:103CC00000AF786039607B68002B01D109234CE09C
:103CD0007B683B6107F10C013B4600221846FEF76A
:103CE0003DFE0346FB75FB7D002B37D1FA683B692F
:103CF0001A603B6819467868FEF702FD0346FB75BB
:103D0000FB7D002B25D17B6893F82B305BB2002B19
:103D100012DB3B699B7903F01003002B0AD0FA6891
:103D20007B68DB6919461046FDF77DFD02463B695D
:103D30009A6001E00523FB75FB7D002B09D1FB6830
:103D4000DA883B699A8000217868FDF7E5FB034635
:103D5000FB75FB7D042B01D10523FB75FB7D002B3F
:103D600002D03B6900221A60FB7D18461837BD4619
:103D700080BD80B584B000AF78607B6807F1080231
:103D800011461846FFF73AF80346FB73FB7B002BFE
:103D900002D17B6800221A60FB7B18461037BD46B3
:103DA00080BD80B584B000AF786039607B6807F172
:103DB000080211461846FFF721F80346FB73FB7B08
:103DC000002B26D13B68002B06D100217868FDF737
:103DD000A3FB0346FB731CE000217868FDF74DFF51
:103DE0000346FB73FB7B042B01D10023FB73FB7B9E
:103DF000002B0ED139687868FEF79EF900217868AB
:103E0000FDF705FC0346FB73FB7B042B01D100236C
:103E1000FB73FB7B18461037BD4680BD80B487B06E
:103E200000AFF860B9601346FB710123FB750023F6
:103E3000BB751F4B9B7BDBB2012B31D81C4B9B7B93
:103E4000DBB21A461A4B00219954194B9B7BDBB20B
:103E5000174A9B001344FA685A60154B9B7BDBB2F0
:103E60001A46134B1344FA791A73114B9B7BDBB23E
:103E70005A1CD1B20E4A9173BB75BB7D3033DAB296
:103E8000BB681A70BB6801333A221A70BB680233F0
:103E90002F221A70BB68033300221A700023FB75AF
:103EA000FB7D18461C37BD465DF8047B704700BF9C
:103EB00028EA022480B582B000AF78603960002221
:103EC00039687868FFF7AAFF034618460837BD46E9
:103ED00080BD000080B485B000AF03463960FB8030
:103EE000FB887F2B02D8FB88FB8125E03B68002BF9
:103EF0000BD0FB88FF2B05D8FB88803B124A32F899
:103F0000133000E00023FB8116E00023FB8109E071
:103F1000FB890D4A32F81330FA889A4206D0FB89A1
:103F20000133FB81FB897F2BF2D900E000BFFB89C5
:103F300080339BB2DBB2FB81FB8918461437BD4648
:103F40005DF8047B704700BF2C58022480B487B012
:103F500000AF0346FB80FB88B3F5805F01D23E4B88
:103F600000E03E4B7B617B699A1C7A611B887B82F7
:103F70007B8A002B68D0FA887B8A9A4264D37B695B
:103F80009A1C7A611B883B823B8A1B0AFB813B8A15
:103F9000DBB23B82FA88798A3B8A0B449A4249DA3F
:103FA000FB89082B4FD801A252F823F0D13F0024FF
:103FB000E33F0024F93F002401400024094000248D
:103FC00011400024194000242140002429400024ED
:103FD000FA887B8AD31A5B007A6913441B88FB80BA
:103FE00027E0FA887B8AD31A9BB203F001039BB2C5
:103FF000FA88D31AFB801CE0FB88103BFB8018E09A
:10400000FB88203BFB8014E0FB88303BFB8010E00A
:10401000FB881A3BFB800CE0FB880833FB8008E040
:10402000FB88503BFB8004E0FB88A3F5E353FB8057
:1040300000BF08E0FB89002B95D13B8A5B007A69C1
:1040400013447B618FE700BFFB8818461C37BD46D1
:104050005DF8047B704700BF2C590224205B0224CA
:1040600080B483B000AF78607B6818460C37BD46DB
:104070005DF8047B704780B483B000AF78607B68E4
:1040800018460C37BD465DF8047B704780B582B09A
:1040900000AF78607B681833184600F031FD7B680C
:1040A00018460837BD4680BD80B582B000AF786045
:1040B0007B681833184600F02EFD7B6818460837D9
:1040C000BD4680BDB0B582B000AF78607B6801248A
:1040D0001D46002C08DB2846FFF7D8FF42F2A45308
:1040E0002B441D46013CF4E77B6818460837BD4663
:1040F000B0BD000090B583B000AF78607B68002B46
:104100000DD07B6844F648341C447B689C4206D042
:10411000054B23441C462046FFF7C6FFF5E77B68A6
:1041200018460C37BD4690BD5CDAFFFF80B483B003
:1041300000AF78607B6818460C37BD465DF8047B9D
:10414000704780B483B000AF78607B6818460C3746
:10415000BD465DF8047B704780B483B000AF7860E3
:104160007B6818460C37BD465DF8047B704780B409
:1041700083B000AF78607B6818460C37BD465DF8A9
:10418000047B704780B483B000AF78607B681846CA
:104190000C37BD465DF8047B704780B483B000AF38
:1041A00078607B6818460C37BD465DF8047B704725
:1041B00080B483B000AF78607B6818460C37BD468A
:1041C0005DF8047B704780B483B000AF78607B6893
:1041D00018460C37BD465DF8047B704780B483B049
:1041E00000AF78607B6818460C37BD465DF8047BED
:1041F000704780B483B000AF78607B6818460C3796
:10420000BD465DF8047B704780B483B000AF786032
:104210007B6818460C37BD465DF8047B704780B458
:1042200083B000AF78607B6818460C37BD465DF8F8
:10423000047B704780B483B000AF78607B68002255
:104240001A607B6818460C37BD465DF8047B7047E2
:1042500080B483B000AF78607B6800221A607B680E
:1042600018460C37BD465DF8047B704780B483B0B8
:1042700000AF78607B6800221A607B6818460C37B4
:10428000BD465DF8047B704780B483B000AF7860B2
:104290007B6800221A607B6818460C37BD465DF8C3
:1042A000047B704780B483B000AF78607B681846A9
:1042B0000C37BD465DF8047B704780B483B000AF17
:1042C00078607B6818460C37BD465DF8047B704704
:1042D00080B483B000AF78607B6818460C37BD4669
:1042E0005DF8047B704780B483B000AF78607B6872
:1042F00000221A607B6818460C37BD465DF8047BC7
:10430000704780B483B000AF78607B68802283F808
:1043100095207B68702283F896207B687F2283F843
:1043200097207B680F2283F898207B68072283F808
:1043300099207B6818460C37BD465DF8047B7047B2
:1043400080B483B000AF78607B6818460C37BD46F8
:104350005DF8047B704780B483B000AF78607B6801
:1043600018460C37BD465DF8047B704780B483B0B7
:1043700000AF78607B6818460C37BD465DF8047B5B
:10438000704780B582B000AF78607B681846FFF751
:10439000AAFF7B6818460837BD4680BD80B483B04D
:1043A00000AF78607B6818460C37BD465DF8047B2B
:1043B000704780B483B000AF78607B6818460C37D4
:1043C000BD465DF8047B704780B483B000AF786071
:1043D0007B6818460C37BD465DF8047B704780B596
:1043E00082B000AF78607B6808331846FFF7E1FFC2
:1043F0007B6818460837BD4680BD80B582B000AFE7
:1044000078607B6808331846FFF7DEFF7B68184644
:104410000837BD4680BD80B483B000AF78607B684C
:1044200018460C37BD465DF8047B704780B483B0F6
:1044300000AF78607B6818460C37BD465DF8047B9A
:10444000704780B483B000AF78607B6818460C3743
:10445000BD465DF8047B704780B483B000AF7860E0
:104460007B6818460C37BD465DF8047B704780B406
:1044700083B000AF78607B6818460C37BD465DF8A6
:10448000047B704780B483B000AF78607B681846C7
:104490000C37BD465DF8047B704780B483B000AF35
:1044A00078607B6818460C37BD465DF8047B704722
:1044B00080B483B000AF78607B6818460C37BD4687
:1044C0005DF8047B704780B582B000AF78607B6890
:1044D0001846FFF7CCFF7B681C331846FFF7C7FF71
:1044E0007B6838331846FFF7C2FF7B6818460837E9
:1044F000BD4680BD80B582B000AF78607B68383340
:104500001846FFF7BFFF7B681C331846FFF7BAFF5A
:104510007B681846FFF7B6FF7B6818460837BD462C
:1045200080BD80B483B000AF78607B6818460C37DC
:10453000BD465DF8047B704780B483B000AF7860FF
:104540007B6818460C37BD465DF8047B704780B524
:1045500082B000AF78607B681846FFF76BFE7B681F
:1045600014331846FFF790FE7B6818331846FFF7A0
:10457000A4FE7B6820331846FFF76AFE7B6824336D
:104580001846FFF7E8FE7B6830331846FFF73CFE1D
:104590007B683C331846FFF769FE7B68184608378E
:1045A000BD4680BD80B582B000AF78607B68303397
:1045B0001846FFF734FE7B6824331846FFF7D6FE13
:1045C0007B6818331846FFF783FE7B681433184660
:1045D000FFF768FE7B6818460837BD4680BD80B58A
:1045E00082B000AF0346FB71FB79184607F08EF9E5
:1045F00000BF0837BD4680BD80B582B000AF78608F
:104600007B681846FFF7A3FF7B6840331846FFF727
:10461000E6FE7B6868331846FFF7FDFE7B6888334B
:104620001846FFF7F8FE7B68B0331846FFF7C1FE67
:104630007B68C0331846FFF7BCFE7B68D83318464A
:10464000FFF741FF7B6803F596731846FFF73BFFC2
:104650007B6803F5C073184600F082FA7B68184641
:104660000837BD4680BD80B582B000AF78607B68FA
:1046700003F5C073184600F08FFA7B6803F5967354
:104680001846FFF737FF7B68D8331846FFF732FF2D
:104690007B68C0331846FFF797FE7B68B033184637
:1046A000FFF792FE7B6888331846FFF7BFFE7B68F2
:1046B00068331846FFF7BAFE7B6840331846FFF7A9
:1046C0009CFE7B681846FFF76DFF7B68184608372D
:1046D000BD4680BD80B485B000AFF860B9607A6037
:1046E0003B60FB68BA685A60FB687A689A60FB684E
:1046F0003A68DA60FB68BA691A61FB6800225A619D
:10470000FB6800229A61FB6803F580530022DA837C
:10471000FB6818461437BD465DF8047B704780B4CB
:1047200083B000AF78607B684FF000021A607B684E
:104730004FF000025A607B6800221A727B681846AC
:104740000C37BD465DF8047B704780B483B000AF82
:1047500078607B6818460C37BD465DF8047B70476F
:1047600080B582B000AF78607B6800221A707B68E9
:1047700004331846FFF7D3FF7B684FF000021A613D
:104780007B684FF000025A617B684FF000029A612B
:104790007B680022DA617B6818460837BD4680BD19
:1047A00080B582B000AF78607B6804331846FFF7AD
:1047B000CCFF7B6818460837BD4680BDB0B584B0D5
:1047C00000AFF860B9607A60FB68BA681A60FB688D
:1047D00000225A60FB6800229A60FB680022DA60BF
:1047E000FB68103309241D46002C05DB2846FFF723
:1047F000B7FF3435013CF7E7FB680022C3F82022FD
:10480000FB687A68C3F82422FB6818461037BD4657
:10481000B0BD000080B483B000AF78607B684FF01B
:1048200000021A607B68064A5A607B684FF00002FB
:104830009A607B6818460C37BD465DF8047B70476C
:10484000CDCCCC3D90B583B000AF78607B681033A1
:10485000002B0CD07B68103303F502747B68103397
:104860009C4204D0343C2046FFF79AFFF6E77B6871
:1048700018460C37BD4690BD80B582B000AF786059
:104880007B681846FFF709FE7B680C331846FFF774
:1048900004FE7B6818331846FFF7FFFD7B6824335E
:1048A0001846FFF7FAFD7B6830331846FFF7F5FD31
:1048B0007B683C331846FFF7F0FD7B6848331846A9
:1048C000FFF7EBFD7B6854331846FFF7E6FD7B6886
:1048D00018460837BD4680BD80B582B000AF78600D
:1048E0007B6854331846FFF7E3FD7B68483318466E
:1048F000FFF7DEFD7B683C331846FFF7D9FD7B6888
:1049000030331846FFF7D4FD7B6824331846FFF791
:10491000CFFD7B6818331846FFF7CAFD7B680C3360
:104920001846FFF7C5FD7B681846FFF7C1FD7B6899
:1049300018460837BD4680BD80B584B000AFF8602A
:10494000B9607A603B60FB681846FFF7EAFDFB68D8
:10495000BA68DA61FB687A68203311464FF4137243
:1049600018461DF0ABFCFB683A68C3F86C22FB6884
:1049700003F522731846FFF705FCFB6803F5327355
:104980001846FFF76DFBFB68BA69C3F8CC22FB68D9
:10499000FA69C3F8D022FB6803F535731846FFF7B0
:1049A0001DFCFB6803F546731846FFF7BFFBFB6869
:1049B00003F54A731846FFF72DFFFB6803F54D73A7
:1049C0001846FFF7B3FBFB680022C3F84C23FB68D3
:1049D0000022C3F85023FB680022C3F85423FB686D
:1049E00003F576732022002118461DF08FFCFB682A
:1049F00003F57E732022002118461DF087FCFB681A
:104A000003F58363184600F0DFF8FB6803F5004305
:104A1000002283F88C26FB6803F500431A46002326
:104A2000C2F89036FB6803F50043002283F8942611
:104A3000FB6803F500431A460023C2F89836FB686A
:104A400003F500431A460023C2F89C36FB6803F5C1
:104A500000431A460023C2F8A836FB6803F500435A
:104A6000002283F8AC26FB6803F50043002283F89C
:104A7000AD26FB6803F50043002283F8AE26FA68F2
:104A800048F2B06313441846FFF7F6FEFB6803F5DF
:104A90000043002283F81027FB6803F500431A4601
:104AA0000023C2F81437044AFB681360FB681846F9
:104AB0001037BD4680BD00BF641D042480B500AF23
:104AC00000210A4805F05EFA0120FFF788FD08483A
:104AD00000F090F8074A0849084802F005F807482E
:104AE00002F06CF80023184680BD00BFBCEE022423
:104AF000B8520224000000C1000000C04896032400
:104B000080B483B000AF78607B6818460C37BD4630
:104B10005DF8047B704780B483B000AF78607B6839
:104B200018460C37BD465DF8047B704780B582B0EF
:104B300000AF78607B68184606F01EFF7B68184659
:104B40000837BD4680BD80B582B000AF78607B6815
:104B5000184600F06BF87B6818460837BD4680BDE4
:104B600080B582B000AF78607B681846FFF7DEFF43
:104B70007B6810331846FFF704FC7B682433184623
:104B8000FFF7BFFB7B68C033184600F03EF87B6838
:104B900018460837BD4680BD80B582B000AF78604A
:104BA0007B68C0331846FFF7CEFF7B682433184676
:104BB000FFF7C6FB7B6810331846FFF7EFFB7B68F7
:104BC00018460837BD4680BD80B483B000AF78601A
:104BD0007B6818460C37BD465DF8047B704780B48F
:104BE00083B000AF78607B6818460C37BD465DF82F
:104BF000047B704780B582B000AF7860786806F0BB
:104C000077FE00BF0837BD4680BD80B582B000AFDB
:104C1000786078687B68103340F20112194600F022
:104C200010F87B6818460837BD4680BD80B483B055
:104C300000AF78607B6818460C37BD465DF8047B92
:104C4000704780B485B000AFF860B9607A60FB68E7
:104C5000BA681A60FB687A685A60FB6800229A603A
:104C6000FB680022DA60FB6818461437BD465DF821
:104C7000047B704780B582B000AF78607A6848F2F4
:104C8000B06313441846FFF727FE7B6803F5836380
:104C90001846FFF7A4FF7B6803F54D731846FFF72E
:104CA00050FA7B6803F546731846FFF74AFA7B68AB
:104CB00003F535731846FFF79CFA7B6803F53273EA
:104CC0001846FFF7D8F97B6803F522731846FFF7FB
:104CD00064FA7B6820331846FFF7B4FD7B681846FA
:104CE0000837BD4680BD000080B584B002AF786053
:104CF00039607B68012B50D13B684FF6FF729342BD
:104D00004BD12848FFF79DFB274A284925481AF030
:104D100051FF2748FFF710FC2648FFF76DFC224A99
:104D2000254924481AF046FF2448FFF741FA1E4A55
:104D3000234922481AF03EFF2248FFF70DFA1A4A8B
:104D4000214920481AF036FF2048FFF7BBF9164AE0
:104D50001F491E481AF02EFF1E4B0093154B144A94
:104D600010491D48FFF7B6FC164A12491B48FFF7C9
:104D700025FD0D4A1A4919481AF01CFF134B0193DF
:104D80000E4B0093144B154A0A491648FFF7D4FD01
:104D9000054A154913481AF00DFF00BF0837BD46F4
:104DA00080BD00BF38EA02240000002059440024DE
:104DB0003CEA0224BCEE022467460024000000C244
:104DC000C7410024480B06C26F410024640B06C291
:104DD000F54000249C810324C8830324FC9303240E
:104DE0004548002448960324754C002480B500AF44
:104DF0004FF6FF710120FFF777FF80BD80B483B0CD
:104E000000AF78607B6818460C37BD465DF8047BC0
:104E1000704780B483B000AF78607B6803221A606B
:104E20007B6801225A607B6800221A7200BF0C372F
:104E3000BD465DF8047B704780B483B000AF7860F6
:104E40007B6803F2744318460C37BD465DF8047B5B
:104E5000704780B483B000AF78607B680433184635
:104E60000C37BD465DF8047B704780B483B000AF5B
:104E700078607B6803F58053DB6A7A6802F58052BC
:104E8000B2F92820B3FBF2F318460C37BD465DF8A3
:104E9000047B704780B586B000AF786007F10C03E3
:104EA0001846FFF7B6FF7B685B6807F10C021146F6
:104EB000184608F0B3FC0346002B14BF012300235F
:104EC000DBB2002B04D01748FFF794FE002324E048
:104ED0007B689B680121184609F02EFD1248FFF7F8
:104EE00089FE7B689B681846FFF7B3FF03460122E3
:104EF0000E491846FDF7B8FF0346002B14BF0123E7
:104F00000023DBB2002B04D00948FFF773FE002317
:104F100003E00848FFF76EFE012318461837BD4628
:104F200080BD00BFC4520224D4520224E4520224A1
:104F3000E8520224FC52022480B5D4B000AF07F539
:104F4000A873A3F5A673186007F5A873A3F5A67355
:104F50001B681C334FF48052002118461DF0D6F90F
:104F600007F5A873A3F5A6731B689B681846FFF79F
:104F700063FF024607F5907311461846FEF79EFE42
:104F80000346002B14BF01230023DBB2002B04D007
:104F90005848FFF72FFE0023A7E007F1080207F5A6
:104FA000907311461846FEF7FCFE0346002B12D103
:104FB00007F5A873A3F5A4739B7D002B0BD007F511
:104FC000A873A3F5A6731B6803F58053DB8B1F2B17
:104FD00001D8012300E00023002B68D007F5A87357
:104FE000A3F5A4731B7A03F01203002BD5D107F1AC
:104FF000080316330222404918461DF0AFFF03464E
:10500000002B52D007F1080316333C4918461DF017
:10501000B9FF0346002B09D107F1080316333849BD
:1050200018461DF0AFFF0346002BB6D007F5A87356
:10503000A3F5A6731B6803F58053DB8B194607F5B0
:10504000A873A3F5A672CB011833126813441A1D76
:1050500007F108031633194610461DF077FF07F5D0
:10506000A873A3F5A6731B6803F58053DB8B194661
:1050700007F5A873A3F5A6731A68CB0113449B33F5
:1050800000221A7007F5A873A3F5A6731B6803F531
:105090008053DB8B01339AB207F5A873A3F5A6738F
:1050A0001B6803F58053DA8377E700BF75E707F5E0
:1050B00090731846FEF75DFE07F5A873A3F5A67377
:1050C0001B6803F58053DB8B19460E4800F0FEFA8F
:1050D00007F5A873A3F5A6731B6803F58053DB8B54
:1050E000002B14BF01230023DBB2184607F5A87775
:1050F000BD4680BD0C530224305302243453022495
:105100003C5302244453022480B582B000AF78603F
:105110000B467B807B6803F58053DB8B7A889A4251
:1051200001D9002353E07B6803F580539B8B7A8879
:105130009A4204D07B681B691846FEF796FB7B6891
:1051400018697B88DB0118337A6813440433012221
:105150001946FDF7CDFE0346002B14BF01230023A3
:10516000DBB2002B04D01C48FFF744FD00232EE0E7
:105170007B681B691946786800F034F8034683F0B1
:105180000103DBB2002B09D07B681B691846FEF7D0
:105190006CFB1248FFF72EFD002318E07B6803F537
:1051A0008053B3F92A30102B07D17B6803F5805365
:1051B0001B6A4BF68032934204D00948FFF71AFD70
:1051C000002304E0786800F07DF9034600BF18462C
:1051D0000837BD4680BD00BF5453022470530224DB
:1051E0008C53022480B592B000AF7860396007F12B
:1051F000100307F114012C223868FEF704F8034667
:1052000087F8453097F84530002B02D13B692C2BAD
:1052100001D0002349E17B69A64A93420CBF0123D8
:10522000002387F84430FB69A34A93420CBF012353
:10523000002387F843303B6AA04A93420CBF012306
:10524000002387F84730BB6B9D4A93420CBF012374
:10525000002387F8463097F8443083F00103DBB22F
:10526000002B06D197F8433083F00103DBB2002B0B
:1052700001D0002319E197F84730002B11D0FB6AC9
:105280001A467B6803F580531A627B8D1AB27B68DD
:1052900003F580531A85FB8E1AB27B6803F58053A1
:1052A0005A8597F84630002B18D0FB6B7A6802F5C8
:1052B000805253627B6803F580535A6A7B6803F51A
:1052C0008053B3F92A30002B00DA0733DB101BB20E
:1052D000B2FBF3F37A6802F58052D36297F8473055
:1052E00083F00103DBB2002B07D197F8463083F03F
:1052F0000103DBB2002B00F09A800C213868FEF726
:10530000D4FA07F1100307F10C0104223868FDF705
:105310007AFF0346002B04D13B69042B01D1012302
:1053200000E00023002B00F0828007F1100307F15A
:10533000080104223868FDF766FFFB685F4A934264
:1053400055D13B685B69063319463868FEF7ADFAFC
:105350007B6841F22801194407F1100302223868E2
:10536000FDF751FF0346002B02D13B69022B01D010
:10537000012300E00023002B01D0002395E07B688F
:1053800003F5815107F1100304223868FDF73BFF54
:105390000346002B02D13B69042B01D0012300E01E
:1053A0000023002B01D000237FE03B685B690633BC
:1053B00019463868FEF779FA7B6841F22A011944E8
:1053C00007F1100302223868FDF71DFF0346002B8A
:1053D00002D13B69022B01D0012300E00023002B06
:1053E00001D0002361E0012387F8473014E0FB6817
:1053F000334A934208D1BB687A6802F580525362FF
:10540000012387F8463012E03B685A69BB681344B1
:1054100019463868FEF749FA97F84730002B3FF4F1
:1054200070AF97F84630002B00D16AE700BF97F8BD
:10543000473083F00103DBB2002B06D197F84630EA
:1054400083F00103DBB2002B01D000232DE07B6849
:1054500003F580535A6A7B6803F58053B3F92A3009
:10546000002B00DA0733DB101BB2B2FBF3F37A68D0
:1054700002F58052D3623B685B697A6802F580521C
:1054800013637B681A697B6803F580531B6B1946AD
:105490001046FEF70AFA034687F8423097F8423082
:1054A000002B0CBF01230023DBB218464837BD4652
:1054B00080BD00BF5249464657415645666D74202F
:1054C0006461746180B584B000AF78607B685B69AB
:1054D0004FF08072002118461CF018FF7B689B6912
:1054E0004FF08072002118461CF010FF7868FFF71B
:1054F000BCFCF860FB68B3F5000F01D9002305E0A0
:10550000F968786800F006F8034600BF18461037BF
:10551000BD4680BD90B58FB000AF78603960002384
:105520007B6307F11C03184600F0DFF807F11C024B
:1055300007F10C034FF48041184600F0EEF807F134
:105540001C03184600F0DDF87B681B695A697B680C
:105550001B69DB689A4200F098807A6B3B689A423C
:1055600080F093803A687B6BD31A3B6207F120038B
:1055700019464B4800F006F903461B68FB627B683E
:1055800003F58053B3F928301A46FB6A02FB03F394
:105590005B00BB627B681C6907F10C03184600F0D6
:1055A00005F9014607F11803BA6A2046FDF72BFEFC
:1055B0000346002B14BF01230023DBB2002B04D0D1
:1055C0003848FFF717FB002460E0BA697B6803F5F1
:1055D0008053B3F928305B00B2FBF3F37B62002306
:1055E0003B633A6B7B6A9A424AD27B6803F58053ED
:1055F000B3F92830012B1AD107F10C03396B184687
:1056000000F0E3F87B689A69396B7B6B0B445B00B5
:105610001344B0F900201A807A685169386B7A6BAC
:10562000024452000A44B3F90030138024E03B6B7B
:105630005A0007F10C031146184600F0C6F87B68C3
:105640005A69396B7B6B0B445B001344B0F9002043
:105650001A803B6B5B005A1C07F10C03114618467D
:1056600000F0B3F87B689A69396B7B6B0B445B0085
:105670001344B0F900201A803B6B01333B63B0E761
:105680007A6B7B6A13447B635EE7012407F10C03AA
:10569000184600F05CF8234618463C37BD4690BDDE
:1056A000DC5B0224A053022480B485B000AFF86014
:1056B000B9607A60FB68BA685A61FB687A689A6177
:1056C00000BF1437BD465DF8047B704780B582B0DB
:1056D00000AF78600B467B807B881946786806F0BF
:1056E00007F900BF0837BD4680BD80B582B000AF66
:1056F0007860786800F079F87B6818460837BD460E
:1057000080BD80B582B000AF7860786800F078F82E
:105710007B6818460837BD4680BD90B585B000AFA0
:10572000F860B9607A60FC687968B86800F074F86D
:1057300003467A681946204600F0A2F8B968F8686E
:1057400000F0CBF8FB6818461437BD4690BDB0B5E5
:1057500082B000AF78607B681C687B685D687B689E
:10576000184600F0D2F803461A462946204600F0B3
:10577000D7F87B68184600F097F87B68184608371A
:10578000BD46B0BD80B483B000AF786039603B687F
:105790001A687B681B689A4201D23B6800E07B680C
:1057A00018460C37BD465DF8047B704780B582B063
:1057B00000AF78607B681B681946786800F0BEF817
:1057C000034618460837BD4680BD80B483B000AF9D
:1057D000786039607B681A683B685B001344184640
:1057E0000C37BD465DF8047B704780B483B000AFD2
:1057F00078607B6818460C37BD465DF8047B7047BF
:1058000080B483B000AF78607B6818460C37BD4623
:105810005DF8047B7047000090B585B000AF7860FC
:10582000396007F10C033968184600F0ADF807F14C
:105830000C03184600F08EF802467B6893428CBF3A
:1058400001230023DCB207F10C031846FFF759FFD0
:10585000002C02D003481AF0C8F97B6818461437A8
:10586000BD4690BDD853022480B582B000AF7860A9
:105870007868FFF746FF7B6818460837BD4680BD4D
:1058800080B584B000AFF860B9607A60FB68796871
:10589000184600F087F8B968F86800F095F8FB68DA
:1058A00018461037BD4680BD80B582B000AF786025
:1058B0007B6819687B689A687B681B68D31A5B10E1
:1058C0001A46786800F09BF87B681846FFF7CCFF13
:1058D0007B6818460837BD4680BD90B583B000AFE1
:1058E000786039607B681C687B68184600F00DF8AA
:1058F00003461A463968204600F094F802467B6851
:105900005A6000BF0C37BD4690BD80B483B000AF75
:1059100078607B6818460C37BD465DF8047B70479D
:1059200080B584B000AFF860B9607A60B968F86893
:1059300000F087F800BF1037BD4680BD80B483B04B
:1059400000AF786039603B6818460C37BD465DF89B
:10595000047B704780B584B000AF78606FF040433F
:10596000FB60786800F07AF80346BB6007F1080234
:1059700007F10C0311461846FFF704FF03461B68A6
:1059800018461037BD4680BD80B582B000AF786044
:1059900039603968786800F06DF87B681846083718
:1059A000BD4680BD80B582B000AF7860396039688F
:1059B0007868FFF7E9FF7B68184600F067F87B68B6
:1059C00018460837BD4680BD80B582B000AF78600C
:1059D00039603968786800F06DF802467B681A60B3
:1059E0007B681A687B685A607B681A683B685B0052
:1059F0001A447B689A6000BF0837BD4680BD80B5F9
:105A000084B000AFF860B9607A60BB68002B05D045
:105A1000FB687A68B968184600F060F800BF103774
:105A2000BD4680BD80B584B000AFF860B9607A60D3
:105A3000B968F86800F061F8034618461037BD46AB
:105A400080BD80B582B000AF786039603968786811
:105A500000F063F800BF0837BD4680BD80B582B056
:105A600000AF7860786800F063F80346184608379E
:105A7000BD4680BD80B483B000AF786039607B687C
:105A800018460C37BD465DF8047B704780B483B080
:105A900000AF78607B6800221A607B6800225A6041
:105AA0007B6800229A607B6818460C37BD465DF81B
:105AB000047B704780B582B000AF786039603B6886
:105AC000002B06D07B683968184600F03DF8034685
:105AD00000E0002318460837BD4680BD80B584B07D
