:020000040800F2
:100000000000022099060008950600087581000886
:1000100095060008950600089506000800000000F7
:10002000000000000000000000000000950600082D
:10003000950600080000000095060008F9800008F9
:100040009506000895060008950600089506000824
:100050009506000895060008950600089506000814
:10006000950600089506000895060008816B0008B3
:100070008D6B0008E5580008996B0008A56B000817
:10008000757B0008B1600008950600089506000819
:1000900095060008950600089506000895060008D4
:1000A00095060008950600089506000895060008C4
:1000B000B97E0108C57E0108D17E0108E56000080F
:1000C00095060008F16000089506000829770108E8
:1000D00035770108A9790008D5790008097A000860
:1000E0009506000895060008000000009506000827
:1000F0009506000895060008950600089506000874
:1001000095060008F1700008DD7E010841770108BE
:100110003D7A0008717A00089506000895060008E7
:10012000950600089506000865770108997701088B
:10013000A97B0008950600089506000895060008AA
:1001400000000000000000000000000000000000AF
:10015000950600089506000895060008A57A00088F
:10016000FD60000895060008098100082D8100083F
:1001700095060008518100089506000895060008BC
:100180009506000895060008D97A00080D7B00083E
:100190004D77010859770108950600089506000873
:1001A00095060008950600089506000895060008C3
:1001B000A168000895060008950600089506000845
:1001C0009506000895060008A5530008B1530008DD
:1001D00095060008BD53000895060008950600081E
:1001E0009506000895060008950600089506000883
:1001F0009506000895060008950600089506000873
:100200009506000895060008950600089506000862
:100210009506000895060008950600089506000852
:1002200095060008950600089506000800000000E5
:1002300095060008950600080000000095060008D5
:100240009506000895060008950600089506000822
:100250009506000895060008950600089506000812
:100260009506000895060008950600089506000802
:100270009506000895060008417B00080000000074
:100280009506000895060008950600080000000085
:080290000000000095060008C3
:1002A00010B5054C237833B9044B13B10448AFF3B0
:1002B00000800123237010BD780700240000000097
:1002C0002CE7010808B5034B1BB103490348AFF302
:1002D000008008BD000000007C0700242CE7010816
:1002E000034613F8012B002AFBD1181A0138704776
:1002F00001F0FF01102A2BDB10F0070F08D010F8D7
:10030000013B013A8B422DD010F0070F42B3F6D1DA
:10031000F0B441EA012141EA014122F007047FF0F3
:1003200000070023F0E80256083C85EA010586EA4A
:10033000010685FA47F5A3FA87F586FA47F6A5FA86
:1003400087F68EB9EED1F0BC01F0FF0102F0070292
:1003500032B110F8013B013A83EA010313B1F8D13D
:100360000020704701387047002D06BF354603381E
:10037000073815F0010F07D1013015F4807F02BF57
:10038000013015F4C03F0130F0BC0138704700BFA8
:1003900053B94AB9002908BF00281CBF4FF0FF31EC
:1003A0004FF0FF3000F074B9ADF1080C6DE904CEE8
:1003B00000F006F8DDF804E0DDE9022304B0704740
:1003C0002DE9F047089D04468E46002B4DD18A4208
:1003D000944669D9B2FA82F252B101FA02F3C2F13B
:1003E000200120FA01F10CFA02FC41EA030E9440CC
:1003F0004FEA1C48210CBEFBF8F61FFA8CF708FBED
:1004000016E341EA034306FB07F199420AD91CEBC4
:10041000030306F1FF3080F01F81994240F21C81F6
:10042000023E63445B1AA4B2B3FBF8F008FB10333E
:1004300044EA034400FB07F7A7420AD91CEB040473
:1004400000F1FF3380F00A81A74240F20781644443
:10045000023840EA0640E41B00261DB1D4400023C8
:10046000C5E900433146BDE8F0878B4209D9002D2C
:1004700000F0EF800026C5E9000130463146BDE8B6
:10048000F087B3FA83F6002E4AD18B4202D3824220
:1004900000F2F980841A61EB030301209E46002DCF
:1004A000E0D0C5E9004EDDE702B9FFDEB2FA82F224
:1004B000002A40F09280A1EB0C014FEA1C471FFA82
:1004C0008CFE0126200CB1FBF7F307FB131140EA69
:1004D00001410EFB03F0884208D91CEB010103F136
:1004E000FF3802D2884200F2CB804346091AA4B2F8
:1004F000B1FBF7F007FB101144EA01440EFB00FECC
:10050000A64508D91CEB040400F1FF3102D2A64530
:1005100000F2BB800846A4EB0E0440EA03409CE7CF
:10052000C6F12007B34022FA07FC4CEA030C20FA7C
:1005300007F401FA06F31C43F9404FEA1C4900FA9C
:1005400006F3B1FBF9F8200C1FFA8CFE09FB181119
:1005500040EA014108FB0EF0884202FA06F20BD98C
:100560001CEB010108F1FF3A80F08880884240F2DC
:100570008580A8F102086144091AA4B2B1FBF9F020
:1005800009FB101144EA014100FB0EFE8E4508D91B
:100590001CEB010100F1FF346CD28E456AD90238A0
:1005A000614440EA0840A0FB0294A1EB0E01A14285
:1005B000C846A64656D353D05DB1B3EB080261EBF3
:1005C0000E0101FA07F722FA06F3F1401F43C5E9CD
:1005D000007100263146BDE8F087C2F12003D84003
:1005E0000CFA02FC21FA03F3914001434FEA1C4745
:1005F0001FFA8CFEB3FBF7F007FB10360B0C43EA37
:10060000064300FB0EF69E4204FA02F408D91CEBE6
:10061000030300F1FF382FD29E422DD902386344E4
:100620009B1B89B2B3FBF7F607FB163341EA034184
:1006300006FB0EF38B4208D91CEB010106F1FF38D3
:1006400016D28B4214D9023E6144C91A46EA0046CA
:1006500038E72E46284605E70646E3E61846F8E65C
:100660004B45A9D2B9EB020864EB0C0E0138A3E7A5
:100670004646EAE7204694E74046D1E7D0467BE786
:10068000023B614432E7304609E76444023842E7FE
:10069000704700BFFEE7000009480A4A0A49121ADB
:1006A0001AF00CF809480A4A0021121A1AF014F834
:1006B00007F0C4FF19F0CEFF01F02EFDFEE700BFEA
:1006C000000000247407002464E701087807002470
:1006D0007C230724034B1A1803EB80035B68107B11
:1006E0005B681847A4090024064B1A5C42B9012232
:1006F0001A541A1803EB8003107B5B681B681847B9
:1007000000207047A409002430B4054C251804EBE0
:10071000800460688468287BA44630BC604700BFC2
:10072000A409002430B4054C251804EB800460684B
:10073000C468287BA44630BC604700BFA4090024DD
:10074000054B10B41C1803EB80035B68207B1B690E
:100750005DF8044B184700BFA409002400687047E7
:100760000B0A017043700B0C090E8370C170704747
:10077000024400F8011B9042FBD17047C369023963
:10078000023B8B4283BF4389006B01FB03000020C7
:1007900070470268490A836A52890433B1FBF2F157
:1007A000186830B1814202D3091A0833F8E7586853
:1007B00008447047C2F307238A76CB760378032B6D
:1007C00001BF120C0A75120A4A75704700F10B013D
:1007D0000022D30143EA520310F8012B52FA83F3AB
:1007E0008842DAB2F5D1104670470000036801462E
:1007F00010B553B11846024610F8014B1F2C10D902
:100800003A2CF8D1581C824202D04FF0FF3007E05A
:100810001B78303BD8B20128F7D8013218460A605D
:1008200010BD014B1878FBE79407002438B50D463E
:10083000044618B9092000232B6038BD0368002B3B
:10084000F8D01A78002AF5D08188DA889142F1D15F
:100850005878FFF73FFF10F00100EBD12368EBE77A
:100860002DE9F0410025D0F8008006460C468D7534
:100870008369002B59D0C36A01330AD001F11607EE
:10088000D8F80C3033F81500002850D12544002347
:10089000AB75F1690023A57D2E274E1E184616F86C
:1008A000012F0130202A26D0052A08BFE522092879
:1008B00007D104EB030C0DB98CF8167001338CF8DA
:1008C000097004EB030C8CF809209DB9A2F1410ECC
:1008D000BEF1190F0CD8082891F80C808CBF4FF08E
:1008E000100E4FF0080E18EA0E0F1CBF2032D2B2C5
:1008F0008CF8162001330B28D1D12DB9E21895754B
:100900000A7B002A08BF00232344002201F11C00B7
:100910005A72CB7A2372FFF721FF206001F1160093
:10092000FFF71CFFE080000CA080BDE8F0810021F3
:1009300001F08CFB30B10135B5F5807F02D007F8AE
:10094000010B9DE70025A1E701380A4411F8013B9E
:10095000914200F8013FF9D170472DE9F041466B13
:1009600000F1380804460123324641464078FFF73B
:10097000D9FE0546A8B9A36A226AF31AE070934229
:1009800002D2A778012F02D82846BDE8F081236A59
:1009900041466078013F1E4401233246FFF7C2FE04
:1009A000F0E70125F0E7C3780BB1FFF7D6BF184693
:1009B000704738B5436B05460C468B4210D0FFF7A5
:1009C000F2FF60B92246012305F138016878FFF78C
:1009D0009BFE00281CBF4FF0FF3401206C6338BD24
:1009E0000020FCE7002310B5C3704FF0FF3304462E
:1009F0004363FFF7DEFF034618BBB4F836124AF62E
:100A0000552291421FD194F83820E92A05D0A26BD3
:100A10000F4902F0FF128A4217D104F16E000D4A0D
:100A2000FFF79CFE20F07F40904208D002F14C522C
:100A300004F18A00FFF792FE904218BF0223184685
:100A400010BD0423FBE70323F9E70223F7E700BF08
:100A5000EB009000464154002DE9FF4100230F4672
:100A600015460B60FFF7C2FE061EC0F213818C4BC9
:100A700053F82640002C00F00F813C6005F0FE0585
:100A800023786BB16078FFF725FEC10708D41DB14C
:100A900010F0040500D00A25284604B0BDE8F08116
:100AA0000023F0B223706070FFF71EFEC20700F152
:100AB000F5800DB14307EED400212046FFF792FFE9
:100AC000022840F0CC806F4604F5FF7304F23E210B
:100AD0003A4613F8040C10B11846FFF73FFE1033E6
:100AE00042F8040B8B42F4D1002557F8046B002E1A
:100AF00000F0AC8031462046FFF774FF012800F279
:100B0000A680B4F84330B3F5007F40F0AC80B4F871
:100B10004E1021B904F15C00FFF720FE014694F865
:100B2000483021625A1EA370012A00F29C8094F87A
:100B300045506581002D00F096806A1E2A4240F0E3
:100B40009280B4F8498018F00F0FA4F8088040F0A4
:100B50008A80B4F84B0018B904F15800FFF7FEFD85
:100B6000B4F84670002F7ED001FB03FE07EB181C83
:100B7000F444604577D3A0EB0C02AA42B2FBF5F334
:100B800071D34FF6F572934271D840F6F575AB42CA
:100B90008CBF02250125023337440CEB0602032DDE
:100BA000E3616662A762226363D1B4F8622052EA0D
:100BB000080258D19B0004F16400FFF7CFFDE0620A
:100BC00003F2FF13B1EB532F4DD34FF0FF33032D3F
:100BD000C4E904334FF0800323712BD1B4F868309B
:100BE000012B27D1711C2046FFF7E3FE10BBB4F8A0
:100BF00036224AF6552320719A421BD1294B04F123
:100C00003800FFF7ABFD984214D103F1FF5304F510
:100C10000770FFF7A3FD03F500532033984209D175
:100C200004F50870FFF79AFD606104F50970FFF79D
:100C300095FD20611C4A257000251388A5610133AC
:100C40009BB21380E380194BE36025E70320013555
:100C5000042D7FF44AAF042805D101251CE70428A0
:100C6000FBD0012801D90D2516E7002649E7032509
:100C700091E7B8F1000FF6D0022D4FEA4302774416
:100C80001ABFD21803F001031346E76218BF03EB43
:100C9000520395E70B25FFE60C25FDE60325FBE651
:100CA0009807002452526141A0070024A2070024A3
:100CB00001292DE9F04706460C46174674D9C36949
:100CC0008B4271D90378022B40D0032B51D0012BDA
:100CD0006AD101EB5108816A01EB5821FFF769FEE7
:100CE000054640BB14F0010406F1380908F1010A79
:100CF000C8F3080808BFFBB230461FBF19F8083018
:100D000003F00F023B0103F0F00318BF134309F88F
:100D100008300123B16AF37001EB5A21FFF749FE55
:100D2000054640B9CAF3080A44B1C7F3071709F8E2
:100D30000A700123F3702846BDE8F08719F80A30DD
:100D4000C7F3032723F00F031F43F0E7816A01EB8A
:100D50001421FFF72EFE05460028ECD1640006F1B1
:100D6000380304F4FF741F551819C7F30727477099
:100D7000DFE7816A01EBD411FFF71BFE054600286F
:100D8000D9D1A40006F1380327F0704704F4FE74AB
:100D90001C442046FFF7E2FC00F0704047EA0001E7
:100DA0002046FFF7DDFCC4E70225C4E7F8B504469A
:100DB000FFF7F9FD0546002842D12378032B37D1F0
:100DC0002779012F34D104F13806552301464FF419
:100DD00000723046FFF7CCFC84F83632AA23412259
:100DE000722104F5087084F83732522384F83B20CE
:100DF00084F8383084F83930612384F81C1284F880
:100E00003A3084F81F3284F81D1284F81E2261697A
:100E1000FFF7A6FC216904F50970FFF7A1FC626ADF
:100E20003B463146013260786263FFF77BFC2571F7
:100E3000002260781146FFF783FC003818BF0120BC
:100E4000F8BD03284B8B04BF8A8A43EA0243184645
:100E500070470129F8B506460C464ED9C369994238
:100E60004BD20378022B29D0032B34D0012B44D151
:100E700001EB5105816A01EB5521FFF79AFD10B195
:100E80004FF0FF30F8BD6F1CC5F30805B16A30465E
:100E9000354401EB572195F83850FFF78AFD0028BB
:100EA000EED1C7F30807E3073E4496F8380045EA59
:100EB00000204CBF0009C0F30B00E3E7816A01EB9F
:100EC0001421FFF776FD0028DAD1640004F4FF74E2
:100ED0002644308FD6E7816A01EBD411FFF769FD14
:100EE0000028CDD1A40006F1380004F4FE7420449B
:100EF000FFF734FC20F07040C4E70120C2E773B56F
:100F00000C46064611460568012C2CD9EB69A34214
:100F100029D92AB14FF0FF322846FFF7C9FE40B960
:100F2000214630680194FFF794FF0199044610B9F7
:100F3000002002B070BD012815D0431C15D000223E
:100F40002846FFF7B5FE0028F3D1EA696B69911EC8
:100F50008B4205D201336B612B7943F001032B7176
:100F6000A242DDD8E4E70220E3E70120E1E72DE932
:100F7000F041804605680F4671B92E69EEB1EB6904
:100F8000B34298BF012634460134EB69A34217D817
:100F9000012E14D8002406E02846FFF75AFF012846
:100FA000044603D801242046BDE8F081431C30D01C
:100FB000EB698342F7D83E46E5E70126E3E70224E2
:100FC0002146D8F80000FFF744FF30B10128E9D0EE
:100FD00001301ED0B442D7D1DCE74FF0FF322146BA
:100FE0002846FFF765FE90B957B9EA696B69023A7E
:100FF0002C61934210D92B7943F001032B71D2E776
:10100000224639462846FFF753FE0028EDD0012836
:10101000C8D14FF0FF34C6E7013B6B61EBE7B1F598
:10102000001FF8B506460C4601D30220F8BDCA06DB
:10103000FBD1826805680161CAB92B78022B01D9FE
:10104000EB6A9BB92B89B3EB541FEED9EB6AB36102
:10105000B3697261002BE8D003EB54233835C4F335
:1010600008040020B3612C44F461DFE71A466F895D
:101070007F02BC42114604D22846FFF77FFBB061D5
:10108000E6E73068FFF7E5FE431C024606D001287C
:10109000CBD9EB698342C8D9E41BEAE70120C5E755
:1010A00003692DE9F04703F12008836905468A4664
:1010B00093B1B8F5001F0FD2C8F308090468B9F15D
:1010C000000F4DD101334169836139B92389B3EBF5
:1010D000581F45D80023AB6104200BE06789013F0E
:1010E00017EA58273CD12046FFF7B3FE01280646F1
:1010F00002D80220BDE8F087421C01D10120F9E7A7
:10110000E369834226D8BAF1000FE3D06969284623
:10111000FFF72DFF0646002835D00128E9D0431CF3
:10112000ECD02046FFF73FFC01460028E6D104F151
:1011300038004FF400724FF0010AFFF719FB3146F7
:101140002046FFF71BFB606363899F420FD3636BED
:10115000DB1B6363314620466E61FFF70FFBA8611E
:1011600038340020C5F810804C44EC61C2E72046BA
:1011700084F803A0FFF7F1FB0028BFD1636B0137B0
:1011800001336363E0E70720B4E700002DE9F04F87
:10119000002185B00446D0F800B0FFF740FF0646B6
:1011A000002840F098804FF0FF084FF0FF3AC1460A
:1011B000C4F82CA0A1695846FFF7FBFB064600289F
:1011C00040F08980E5692F78002F00F08880EA7A66
:1011D000E52F02F03F03A37103D0100704D50F2BB6
:1011E00004D0C4F82CA050E00F2B56D194F82B302B
:1011F000590640D47A0646D5236907F0BF0795F80B
:101200000D80E3626B7B43453FD16B8B002B3CD160
:101210002E780122DBF80C3006F03F06DFF8C8908C
:1012200000930D23013E5E4319F8013BEB5A7AB35C
:10123000FE2E2AD81846039300F026FF009B711C4F
:10124000029033F81600019100F01EFF029A8242CC
:101250001BD1039B01991A460E46224B9945E3D1B7
:101260002B785B0604D51AB1009B33F8163063B9AE
:10127000013F5FFA87F900212046FFF711FF06467C
:10128000002897D027E0B945BCD04FF0FF09F2E71E
:101290004FF6FF718B42E0D0F7E7B9F1000F04D1B0
:1012A0002846FFF793FA404515D094F82B6016F0C6
:1012B000010696D104F1200205F10B0115F8013B5E
:1012C00012F8010B8D42A3EB000302D0002BF5D0E6
:1012D00087E7002B85D1304605B0BDE8F08F0426A6
:1012E000F9E700BFA5D6010898D601082DE9F04F0F
:1012F00090F82B5089B0044615F0A00540F08E8080
:101300000668F26832F81530002B66D104F1200728
:101310000C2205A83946FFF717FB9DF81F30DB07A5
:1013200040F1858040234FF0010ADFF8348284F8D1
:101330002B300B2205A93846D6F80C90FFF704FB9A
:10134000BAF1050F59D9A9F10201534631F8022F1C
:10135000002A44D10DF11300072203F00F0C013ACB
:101360000CF13001392988BF0CF137010F2B00F83F
:1013700001194FEA131142D802F120037E216B4478
:1013800003F8141C394600239A4205D011F8010BCA
:1013900003F1010C202834D104F11F00072A03F1C6
:1013A000010397BF02F1200120210132694498BF57
:1013B00011F8141C072BC154F0D92046FFF7E6FEA4
:1013C000814670BB0AF1010ABAF1640FB1D14FF046
:1013D0000709484609B0BDE8F08F013592E71020B3
:1013E00002F0010C52080CEB430313F4803F18BFCA
:1013F00083EA08030138F3D1A8E75346AAE70B466E
:10140000ABE76346C0E7804601212046FFF748FE70
:10141000814608B3B9F1040FD9D0DAE74FF00609D5
:10142000D7E70428D5D19DF81F3084F82B309DF8DC
:101430001F3000212046D4F800A09B0745BF0C3583
:101440000D230125B5FBF3F548BF0135FFF7E7FD97
:1014500081460028DED18046A1695046FFF7A9FAEF
:1014600081460028D6D1E3691B78E52B01D0002BFB
:10147000C9D108F101084545C6D1013D55D02169C2
:101480002046A1EB4511FFF7CAFD81460028A0D1F7
:101490004FF6FF783846FFF799F90190A169304679
:1014A000FFF787FA8146002893D1E369E9B2019AF0
:1014B0004FF00D0CD6F80CE05A734FF00F02DFF826
:1014C000A4A0DA724A1E18730CFB02F284469876C6
:1014D000D87640451AF8019B0CF1010C18BF3EF874
:1014E000120003EB090B18BF013203F809004FEAA1
:1014F0001029002808BF4046BCF10D0F8BF8019061
:10150000E7D1404502D03EF812200AB941F040012F
:101510001970012300212046F370FFF7C1FD8146B9
:1015200000287FF456AF013DB8D1A1693046FFF7DE
:1015300040FA814600287FF44CAF01462022E06942
:10154000FFF716F90B223946E069FFF7FDF994F829
:101550002B30E26903F0180313730123F37038E7AB
:101560002110010098D601082DE9F843FF2706460F
:10157000D0F8008004253C464FF6FF79B16911B9D7
:10158000002D5FD04FE04046FFF713FA05460028D4
:1015900049D1F0690378002B5CD0C27AE52B02F0C8
:1015A0003F02B27144D02E2B42D022F020010829F4
:1015B0003ED00F2A41D1590638D503F0BF04336914
:1015C000477BF362437BBB4232D1428B82BB0378C1
:1015D0000D21D8F80C504FF0010E23F04003DFF836
:1015E00078C0013B4B431CF8011B415ABEF1000F70
:1015F00020D0FE2B1CD825F813108E460133013263
:101600000D2AF0D10278520604D5FE2B10D8002204
:1016100025F81320013CE4B200213046FFF740FDDD
:1016200005460028AAD00023B3610CE0A342C9D02C
:10163000FF24F1E74945E2D0FAE73CB9FFF7C6F8E5
:10164000B84203D100252846BDE8F8834FF0FF33A8
:10165000F362F8E70425E6E798D601082DE9F74F8D
:101660000B7805468846D0F800B02F2B01D05C2BB4
:1016700009D142461378904601322F2BFAD05C2BC9
:10168000F8D0002301E0DBF81830AB6098F80030A8
:101690001F2B00F2D88080230021284685F82B30AC
:1016A00003B0BDE8F04FFFF7BABC0134DEE0B4F59B
:1016B000807F00930CD0012100F0C8FC40B17F284E
:1016C000009B07D88F4911F8012B1AB18242FAD139
:1016D000062005E126462AF8020FBDE0022E04D1BD
:1016E000B9F802302E2B00F0D1805EBB002329F820
:1016F0001630002EECD020210B226818FFF738F8A6
:10170000194639F81130202B24D02E2B22D009B1C4
:1017100044F0030437F816302E2B01D0013EF9D1E6
:1017200000234FF0080A1F4639F811004A1C10B375
:10173000202803D02E280FD1964211D044F0030464
:101740001146F1E737F81630202B01D02E2BCDD1E2
:10175000013ECAE70131D4E7534505D296423AD15A
:10176000BAF10B0F30D102E0BAF10B0F27D144F0E0
:1017700003044FF00B0A95F82030E52B04BF052336
:1017800085F82030BAF1080F04BFBF00FFB207F0A0
:101790000C030C2B03D007F00302032A01D144F001
:1017A0000204A00700F1878007F00307012F08BF9C
:1017B00044F01004042B08BF44F008047BE0964278
:1017C00002D044F00304D6D3BF0032464FF00B0AD8
:1017D0000823FFB2B4E77F280ED9002144F00204A9
:1017E000CDE9002300F032FCDDE9002360B1464979
:1017F000084410F8800C38B1DFF810C11CF8011B48
:10180000002972D08142F9D144F003045F20E91825
:10181000013381F8200093E747F00207F7E7002A39
:1018200008BF05205CE05A075AD4AB79DB065AD5CD
:1018300029690BF138039BF80000C1F30801194432
:10184000FFF7FFFAA8602B680026D3F80C9008F188
:10185000FF33A9F10207BA4613F8010F741C1F28C1
:101860000CD92F2802D05C287FF421AF18F804305F
:101870002F2B3FF41AAF5C2B3FF417AF2028A04466
:1018800034BF04240024012E7FF428AFB9F80030BF
:101890002E2B7FF42AAF002305F1200229F8163001
:1018A0009E428CBF2E21202101330B2B02F8011BFD
:1018B000F6D144F02004284685F82B40FFF766FC5B
:1018C00095F82B300028AED0042809D1990603F0F2
:1018D0000402A4D5002AB6D08023002085F82B303E
:1018E00003B0BDE8F08F0520FAE7A0F14101192906
:1018F00092D9A0F1610119299EBF203847F0010754
:1019000080B284E708D6010818D6010811D601086C
:101910001FB5CDE9001003A814460391FEF766FF3A
:10192000031E15DB0C4A52F8231009B10020087081
:10193000019808B10021017042F8230030B1012C58
:1019400008D1002201A96846FFF786F804B010BD4F
:101950000B20FBE70020F9E7980700242DE9F04170
:1019600090B0174604460191002800F0D48002F0A0
:101970003F0603A901A83246FFF76EF80546002886
:101980004FD1039B04A801990493FFF767FE20B988
:101990009DF93B30002BB8BF062017F01C0F00F05C
:1019A0009A80002844D004283BD104A8FFF79EFC6D
:1019B000002836D146F0080606F09AFB0146009052
:1019C00020220B980E30FEF7CBFE0B9800991630B4
:1019D000FEF7C6FE0B9BDDF80C80DA720B9998F8C7
:1019E0000000FFF72EFA002207464046FEF7E2FE0F
:1019F0000B9B002201211A775A779A77DA77039B9B
:101A0000D970F7B1394604A8D3F83480FFF777FAD4
:101A100038B941460398FEF7CCFF013F039B1F6195
:101A200078B1002305462360284610B0BDE8F08158
:101A30009DF8163013F0110F57D1780765D4390788
:101A4000BAD4039F31070B997B6B48BF46F0400621
:101A5000616223623878FFF7F4F9A06001F11C009D
:101A60000021FEF77BFEFB88276004F12C074FF472
:101A70000072E060A1623846A38026746174E1615F
:101A80006161FEF775FEB206CED5D4F80C80B8F1D0
:101A9000000FC9D0039BA1685E89C4F81480760248
:101AA000464524D30020A1610028BAD1C8F3080319
:101AB000002BB9D0039E3046FEF760FE48B300EB22
:101AC000582201233946E2617078FEF71DFE002896
:101AD000AAD00120A5E70028A3D19DF81630DA0688
:101AE00015D4BF07ADD5D807ABD5072099E7206837
:101AF000A8EB0608FFF7ADF90128014603D9431CFE
:101B0000CED10120CFE70220CDE7082089E70420CD
:101B100087E7022085E7092586E72DE9F04F87B0A2
:101B200016468946044601930023019A05A91360CD
:101B3000FEF77CFE054618BB657C0DBB237C13F0CD
:101B40000103029300F09980E26804F12C0A6369B2
:101B5000D21A964228BF164696B16169C1F30803AE
:101B6000002B7CD1059BB3F80A8008F1FF3818EAF6
:101B700051281BD141B9A068012810D802256574ED
:101B8000284607B0BDE8F08FA36A1BB12046FEF7D8
:101B900000FEF1E7A1692068FFF75BF9ECE7431C61
:101BA00003D10123029D6374EAE7A061DDF814B05C
:101BB000A1695846FEF7E2FD0028DFD0B6F5007FA8
:101BC00008EB00072ED3BBF80A2008EB5621730A56
:101BD0009BF801009142494688BFA2EB08033A46B0
:101BE0000393FEF791FD0028DBD194F91020039BAD
:101BF000002A0BDAE069C01B984207D24FF400724A
:101C0000514609EB4020FEF79FFE039B5F0263698C
:101C1000B944019AF61B3B446361019B1B683B443A
:101C2000136099E7E269BA4218D094F91030002B9A
:101C30000BDA012351469BF80100FEF773FD0028E3
:101C4000AFD1237C03F07F032374059801233A4628
:101C500051464078FEF758FD0028A2D1E76161693E
:101C60004846C1F30801C1F500775144B74228BF87
:101C700037463A46FEF768FEC9E7072580E7F7B51D
:101C800001A90546FEF7D2FD044600283BD12B7C76
:101C900013F0400437D01B060CD501980123EA69E4
:101CA00005F12C014078FEF73DFD78BB2B7C03F05D
:101CB0007F032B7406F01CFA296A07460198FEF789
:101CC00078FE0446F8B96E6AF37A314643F0200391
:101CD000F372AA682868FEF76DFDE96806F11C003A
:101CE000FEF73EFD394606F11600FEF739FD0123E9
:101CF0000198B474F474C370FFF758F82B7C044651
:101D000023F040032B74204603B0F0BD0124FAE712
:101D100013B50446FFF7B3FF28B901A92046FEF723
:101D200085FD00B9206002B010BD2DE9F04F85B0EF
:101D30000D46044603A9FEF779FD0646E8B9667C20
:101D4000DEB9A36A002B7BD06A1C39D11D46D4F8BA
:101D50000880022755F804BBB8F1000F28D0404690
:101D60004FF0000A0146814620680AF1010AFFF798
:101D700070F8012807D802266674304605B0BDE821
:101D8000F08F8046EBE7431C01D10126F4E709F10F
:101D900001098145E6D00237BB4521BF2B4643F8F8
:101DA00008ABC5F804801D46039BDB698342E8D875
:101DB000A36A5F451F6000F2C38000232B60DCE74D
:101DC000E768AF4228BF2F466761002FD5D07D1E40
:101DD00020462946FEF7DDFCDDF80C800146A061B7
:101DE0004046FEF7CBFC0028C5D0C7F30807002FFC
:101DF000C3D0B8F80A10E269013901EA55210D187B
:101E0000AA42BAD094F9103004F12C01002B0CDA5C
:101E1000012398F801000191FEF784FC0028B4D159
:101E2000237C019903F07F032374039801232A463E
:101E30004078FEF769FC06460028A6D1E5619CE7DC
:101E4000E368AB4204D2227C12F0020F08BF1D46A9
:101E5000002263696261EDB90025E268636993421B
:101E600084BF227CE360C3F3080384BF42F04002D6
:101E70002274002B81D0E269AA423FF47EAF94F92C
:101E8000103004F12C01002BCFDA039801230191CB
:101E90004078C1E7039A57897F020BB3013B6A1E62
:101EA000B3FBF7F1B2FBF7F28A4219D37A42A16988
:101EB0001340ED1A63610029CED0BD4263691ED87C
:101EC00063692B446361C5F30803002BC4D00398F6
:101ED000FEF754FC00283FF44EAF00EB5525BCE75D
:101EE000A16851B92046FFF742F8012801463FF4A6
:101EF00042AF481C3FF449AFA160A161DBE73B441E
:101F0000A5EB07086361237C9A0706D52046FFF7F7
:101F10002EF8054628B90146D2E72068FEF799FF5A
:101F200005466B1C3FF431AF012D7FF624AF039BB8
:101F3000DB69AB427FF61FAF2946A5614546BCE78A
:101F400011261AE71FB50446019150B3002203A9D8
:101F500001A8FEF781FD70B9039B2046019923601B
:101F6000FFF77CFBF8B994F92B30002B0CDBA3793D
:101F7000DB0603D405200023236010E0039BE16906
:101F80001878FEF75EFFA060039B00212046DB88E7
:101F9000A380FFF744F80428ECD00028EBD104B06C
:101FA00010BD0920FBE70428E4D0E4E713B501A93C
:101FB0000446FEF73BFC00B9206002B010BD73B5CB
:101FC0000D4601A90446FEF731FC20B92DB90146A2
:101FD0002046FFF724F802B070BD2046FFF7C4FA90
:101FE00010F0FB06F7D129462046FEF739FC3146B2
:101FF0002046FFF755F8042808BF0020EBE7000053
:102000000F4B30B59C7B012C17D89D7B0024EDB283
:102010005C559D7B03EB85056860987B18440273D3
:102020009A7B501C3032C0B298733A2320460A7013
:102030004B702F23CC708B7030BD0120FCE700BFAC
:10204000A40900240022FFF7DBBF00007F2810B5A1
:1020500006D931B1FF2812D880380A4B33F8100066
:1020600010BD084A32F8024B8BB2844203D00131D2
:102070008029F7D10B4603F18000C0B2F0E70020C1
:10208000EEE700BFA6D601081E4B1F4AB0F5805FE1
:1020900028BF134670B5191D31F8043C0A46ABB190
:1020A000984213D331F8024C250AE6B253FA84F46D
:1020B000A04221DA082D09D8DFE805F005090F1143
:1020C000131517191B00C01A31F8100070BDC31A80
:1020D00003F00103C01A80B2F8E71038FBE720389C
:1020E000F9E73038F7E71A38F5E70830F3E7503802
:1020F000F1E7A0F5E350EEE70431002DCCD102EB7F
:102100004603C8E7A6D7010898D901087047704769
:10211000704770477047000008B50021094801F07A
:1021200021FB012002F0C6FF074802F0B5FF074B74
:10213000074A0849084800F017FE074801F048F828
:10214000002008BD8C2B002454DA0108000000C0D8
:10215000008000C0008000C15C0E0024F8B53D4E38
:1021600000253D4C3D4A30463D4917F075FA04F5CF
:10217000C070256065612562E56302F0D1FF394BCF
:102180002046364AC4F8383240F20F733649A4F874
:102190003C3204F51473C4F89051C4F8403240F254
:1021A0000113C4F84C52314FC4E9913517F054FA79
:1021B0002A4A2F492F4817F04FFA2F4B7E601426DA
:1021C000BD61C7E902342D4BC7E904352C4BC3E987
:1021D0000045C3E90255103300220021013E03F1FE
:1021E000380303F8302C43F82C1C43F8281C4FF01C
:1021F000010143F8242C03F81C2C4FF0020243F891
:10220000201C43F8042CE7D11E4D144A1E491C48DB
:1022100017F022FA4FF49562194905F12000EC619C
:1022200018F04CFA134B2846C5F8C874C5F8203589
:10223000164BC5F88465C5F88865C5F88C6585F8C2
:102240004866C5F84C661D60044A1149BDE8F8406F
:1022500017F002BAB8C906248C2B00240000002411
:102260000F2100080080707F11210008D81600247B
:102270000D2100086CBE00240C270024AC1400249F
:10228000B40900245C0E002413210008BCC90624F4
:10229000152100087FB5032301260024054601A966
:1022A00040688DF80C40CDE9013604F06FFE70B93E
:1022B0003146A86805F0F8FEA868324605490430A2
:1022C000FFF726FBB0FA80F0400904B070BD20464D
:1022D000FBE700BF60DA010870B50546D2B0002107
:1022E0004FF480521C3005F5805618F0F5F90024A3
:1022F000A9686846F48301F27441FFF723FE28B110
:10230000214802F0C9FE204652B070BD0CA96846B3
:10231000FFF755FE78BB9DF8463063B3F48B1F2C56
:1023200029D89DF8383013F0120FEFD10222174947
:102330000DF1460018F058FF0028E7D014490DF1C0
:10234000460018F065FF30B912490DF1460018F04B
:102350005FFF0028DAD005EBC4100DF146011C30F8
:1023600018F03AFFF38B5A1C05EBC313F2830022DB
:1023700083F89B20CAE76846FFF718FEF08B003809
:1023800018BF0120C0E700BF62DA010883DA010844
:1023900086DA01088BDA01082DE9F0470C468EB089
:1023A00005462C226B4603A92046FFF7B6FB08B171
:1023B000002097E0009B2C2BFAD1584B039ADDF8B4
:1023C00030809A42F4D1A3F57003059AA3F2FB730F
:1023D0009A42EDD1069E524FBE4209D105F5805377
:1023E000099A1A62BDF822201A85BDF82E205A8556
:1023F000DFF83091C84551D0F31B0C2120465E42D6
:102400005E41FFF792FC04226B4620460DEB020171
:10241000FFF783FB00287AD1DDF800A0BAF1040FA2
:1024200075D152466B4602A92046FFF776FB019A0A
:10243000BA425AD1616920460631FFF776FC05F5AC
:1024400081516B46022208312046FFF766FB0028C7
:10245000AED1009E022EABD16B46524605F581519E
:102460002046FFF75AFB0028A2D1009B042B9FD1E6
:10247000616920460631FFF758FC05F581516B462E
:1024800032460A312046FFF748FB002890D1009BD6
:10249000022B8DD1C84511D00126B4E705F5805136
:1024A0000D9AB1F92A304A62002BB8BF0733BE42F9
:1024B0004FEAE303B2FBF3F3CB629DD105F5805203
:1024C0002869B2F92A30516A002BB8BF0733DB10F4
:1024D000B1FBF3F36169D3621163FFF726FCB0FA35
:1024E00080F040090EB0BDE8F0874A45029B06D156
:1024F00005F580525362002E3FF45AAFDEE7616962
:1025000020461944FFF711FC002EC3D17BE7002EB3
:102510003FF44EAFC8457FF44BAFCFE75249464634
:10252000666D7420646174612DE9F34104460E46C2
:10253000002520694269C3689A4243D0B54241D21E
:10254000731B04F580572168B3F5804FB7F9282035
:1025500028BF4FF480435A4301AB5200FFF7DDFA26
:10256000034630B1184802F097FD002002B0BDE8E4
:10257000F081B7F92800690042000198B0FBF2F041
:1025800083421DD0B7F928802268B8F1010FD4E941
:1025900005EC1ABF32F9238002EB830232F91320D3
:1025A00003F101031BBF2EF80180B2F902202CF8C1
:1025B00001202CF8012008BF2EF801200231DFE7AE
:1025C0001D44B6E70120D1E790DA010810B50446B2
:1025D0004FF080720021406918F07EF84FF0807251
:1025E0000021A06918F078F804F58053B3F9282089
:1025F000D96AB1FBF2F1B1F5000F04D82046BDE86D
:102600001040FFF791BF002010BD000070B500F52D
:10261000805604460D46F38B8B4210D3B38B8B420E
:1026200002D00069FFF774FB04EBC5110122206999
:102630001C31FFF793F920B10F4802F02DFD002067
:1026400070BD21692046FFF7A7FE20B92069FFF77A
:102650005FFB0A48F1E7B6F92A30102B04D1326A41
:102660004BF680339A4201D00548E6E72046BDE8A4
:102670007040FFF7ABBF00BFB1DA0108CBDA010849
:10268000E7DA0108C0E9051203607047084A1368D9
:1026900083EA433383EA534383EA431307EE903AD2
:1026A0001360B8EE670ADFED037A20EE270A704761
:1026B000B4C906240000802F00234FF49652C0F8BE
:1026C0007034C0F87C340123C0F878244FF07E5277
:1026D000C0F8803400F2844300F591601A604FF036
:1026E0007C530360704700002DE9F84304460F4611
:1026F00090461D4600F1100600F58E69C360C0E9E2
:1027000001124E4506D0304642463946383600F072
:10271000F7FDF6E7034B20461D60BDE8F843FFF7E1
:10272000CBBF00BFC0C9062438B500F28C450446B3
:10273000D5ED007AF5EEC07AF1EE10FA39DDFFF74B
:10274000A5FFF7EE007A95ED007A20EE000AD4F8A6
:10275000783477EEC76A37EE277AF0EE667A37EE8E
:10276000666AE0EE067A9FED846AC7FEA67A87FE67
:10277000C77A07EE903AF8EE676ADFED807A66EE88
:10278000A76AC6EE867A67EE877A9FED7D7AC7FEE6
:10279000877A9FED7C7AC7FEC77A9FED7B7A67EEDA
:1027A000877A67EE867AFCEEE77A17EE903AC4F8FD
:1027B000783404F59265D5ED007AF5EEC07AF1EE45
:1027C00010FA22DDFFF762FFBFEE007AF0EE006A3A
:1027D000D4F87C34E268F0EE477AE0EE267AC7FE61
:1027E000877AB7EE007AC7FEC77AFCEEE77A95EDF6
:1027F000007AF8EE677A67EE877AFCEEE77A17EEF2
:10280000901A02FB0133C4F87C3404F29C45D5EDE8
:10281000007AF5EEC07AF1EE10FA1FDDFFF736FF11
:1028200095ED007A04F5916337EE076AF0EE477A8A
:10283000F1EE476AD0EE067AC7FEA67AC7FEC77ADF
:1028400093ED007A77EE877A9FED507AC7FE877A0C
:10285000B7EE007AC7FEC77AC3ED007A04F5936538
:10286000D5ED007AF5EEC07AF1EE10FA25DDFFF72E
:102870000DFFB7EE007AD5ED007A20EE000A04F2E3
:10288000844377EE676A37EE877AF0EE667A37EE42
:10289000666AE0EE067AC7FEA67AC7FEC77A93EDAF
:1028A000007A67EE877AB6EE007AC7FE877AB0EED6
:1028B000087AC7FEC77AC3ED007A04F59465D5EDB2
:1028C000007AF5EEC07AF1EE10FA11DDFFF7DEFEC8
:1028D000D5ED007AB4EEE70AF1EE10FA08D5FFF76D
:1028E000D5FEFDEEC07A17EE903A9B00C4F8743422
:1028F00004F2A445D5ED007AF5EEC07AF1EE10FAB7
:1029000011DDFFF7C3FED5ED007AB4EEE70AF1EE74
:1029100010FA08D5FFF7BAFEFDEEC07A17EE903A2E
:102920009B00C4F8703404F29445D5ED007AF5EEBE
:10293000C07AF1EE10FA1EDDFFF7A8FEF7EE007A7E
:1029400095ED007A20EE000AD4F8803477EEC76A5D
:1029500037EE277AF0EE667A37EE666AE0EE067AB0
:10296000C7FEA67AC7FEC77AFCEEE77A17EE902A72
:102970005343C4F8803438BD00803B4700007A449C
:102980000000C84200803B456F12833A00000000FF
:1029900038B500F58E62044600F11005002395421B
:1029A0001CD0297A11B101333835F8E7D4F88014F6
:1029B0009942F9D92046FFF7B7FE04F5916204F277
:1029C0008443D4F87C14D2ED000A284693ED000A23
:1029D000D4F87824BDE8384000F0AEBC38BD2DE90D
:1029E000F347044699460F4616464FF00008C8457F
:1029F0001DD0204604F11005FFF7CAFF04F58E6ACA
:102A0000002300930193554508D02B7A23B101AAE6
:102A10006946284600F0FEFC3835F4E7009B08F1D3
:102A2000010847F8043B019B46F8043BDFE702B08E
:102A3000BDE8F08710B5837A0446FF2B0AD105F074
:102A400009FC07EE900AB8EE670AD4ED037A30EE7F
:102A5000670A10BD9FED010AFBE700BF0000000000
:102A6000D0F8D034012B06D0032B00D013B90123AA
:102A7000C0F8D43470470223FAE7000010B50446CA
:102A8000E069403002F050FAE36993F84C20002AE4
:102A9000F6D093F85230802BF2D1094802F0FCFABC
:102AA000D4F8D034012B03DC002B07DB032303E035
:102AB000023B012B02D80023C4F8D43410BD00BF60
:102AC000F9DA0108D0F8C83410B503F58052D0F80F
:102AD0008445D28B21448C1894FBF2F102FB114403
:102AE00000F5B262A1B2C0F88445104603EBC111F3
:102AF0001C3118F071FB214602460248BDE8104027
:102B000002F0CABA0EDB0108D0F8D834062B08D878
:102B1000DFE803F004080A0707070C000123C0F8E8
:102B2000D83470470223FAE70623F8E70023F6E7D4
:102B3000D0F8D034022B01D1FFF7E6BF7047D0F8B0
:102B4000D834052BDCBF83F00103C0F8D8347047BC
:102B5000D0F8D034022B01D1FFF7F1BF7047D0F885
:102B6000D834062B04DDD0F8DC34C0F8D8347047F4
:102B70000029C0F8DC3414BF07230823F5E7D0F898
:102B8000D034022B02D10121FFF7E9BF7047D0F802
:102B9000D034022B02D10021FFF7E1BF70470000C3
:102BA00000F5AF6110B50446D0F8C8040EC9FFF7B0
:102BB00069FDD4F8C804FFF76DFB40B1044802F08A
:102BC0006BFAD4F8C804BDE81040FFF785BB10BD10
:102BD00022DB0108D0F8C824D0F8781502F580521D
:102BE000B2F92830D26A10B504462030B2FBF3F3B4
:102BF000D0F85C25FFF778FDD4F8C834054803F514
:102C00008053B3F92820D96ABDE81040B1FBF2F136
:102C100002F042BA34DB010810B504464FF080726E
:102C20000021D0F8780517F057FDD4F87C054FF057
:102C300080720021BDE8104017F04EBD002310B592
:102C40000446C0F888350E4802F026FAB4F8841518
:102C5000D4F8C804FFF7DAFC30B90A4802F01CFACD
:102C60000423C4F8D03410BD074802F015FAE06917
:102C7000064900F08FFC0648BDE8104002F00CBA8F
:102C80004FDB01085CDB010870DB010869300008DC
:102C90007CDB0108D0F8D43410B50446042B0AD8E4
:102CA000DFE803F0030E120A1600C06900F074FC9E
:102CB0000023C4F8D03410BDFFF7AEFF0323F8E7BC
:102CC000FFF7BCFF0123F4E7FFF784FF0223F0E7DF
:102CD000C069B7EE000AD83002F064FAE069B7EED6
:102CE000000A00F5967002F05DFA0423E1E70000A7
:102CF00037B50446C06900F07FFC04F59C6004F21F
:102D0000245516F01BFA9FED0F0AD4F820058DED1F
:102D1000010A16F0C5FB9DED010A284616F080FC5D
:102D2000094B00220121AB60084B6B6004F5AD63D9
:102D30009A6084F874151A604FF07E525A6003B09E
:102D400030BD00BF00803B4700409C463333333FDB
:102D500000F5C26300F22C604FF07C5243F8042B64
:102D600083429A61F8D1704738B5044600252DEDAD
:102D7000048BC0F878150421C0F87C25C0F8803594
:102D8000C06900F00BFCE069032100F01FFC204645
:102D9000C4F8D054FFF704FFB0B92B4802F07CF917
:102DA000E069B7EE000AD83002F0FCF9E069B7EE4E
:102DB000000A00F5967002F0F5F9E069BDEC048BAD
:102DC000BDE8384000F02EBCE06900F015FCE06979
:102DD000F0EE408A00F0F8FB07EE900AB8EEE78AC2
:102DE00005F0DCFB07EE900AB7EE007A9FED176A5C
:102DF000012388EE289A20462370154BE360F8EEF5
:102E0000677A2361636167EE897AC7EE276AC4ED4A
:102E1000016AC8EE886AC6EE267A37EE877AC7EE70
:102E2000876AC4ED066AFFF763FF2046FFF790FF4D
:102E3000284618F003FA074BBDEC048B1860E069D4
:102E4000BDE8384000F0DABB93DB0108DB0FC94076
:102E50000000C07FB4C90624F8B504460D461646E6
:102E600005F0FAF9A0600020B042D4F8883533D0DC
:102E7000D4F8C81401F58051B1F92870CA6AB2FBC0
:102E8000F7F29A4226D9D4F87815F6EE006A9FED4B
:102E9000336A31F913102A6807EE101AD4F87C153A
:102EA00002EB800231F91310B8EEC77A013307EE56
:102EB000901A27EE067AF8EEE77A27EE267A67EE82
:102EC000867A82ED007A67EEA67A6A68C2ED017AA8
:102ED000C4F888350130C7E74BF68032B3FBF2F116
:102EE00002FB113313B91E4802F0D6F805F0B4F90D
:102EF000A36894ED017AC31A07EE903A2378F8EEAE
:102F0000677A67EE877A43B10023C4ED057AC4ED92
:102F1000037AC4ED047A2370F8BD94ED047AD4EDFD
:102F2000066AF4EEC77A94ED037A94ED056AF1EE41
:102F300010FAF4EEC77AB7EE007AC8BFC4ED047A8F
:102F4000F1EE10FA37EE667A48BFC4ED037A27EE49
:102F5000067AA7EEA67A84ED057ADDE70000003850
:102F6000AFDB0108F0B5002425469C422DD00E6849
:102F7000176806EB840607EB8407D6F800C0C7F88D
:102F800000C04F6807EB8407D7ED007A576807EB5E
:102F900084070134C7ED007AFDEEE77A96ED007AFA
:102FA000D0F87875BDEEC77A17EE106A27F815606D
:102FB00017EE907AD0F87C6526F815700135034E2F
:102FC000B5FBF6F706FB1755CFE7F0BD00F22B0077
:102FD0007FB50D461646044613462030D1E900124F
:102FE000FFF7FDFC2B6804F59C6000961A46194615
:102FF000039016F03FF96B6803981A46194600963D
:1030000016F038F904B070BDF0B4D0F8D0541646BC
:103010001F46022D1FD0032D1AD0012D20D1D0F82C
:10302000C83403F58053B3F92820DD6AD0F8883519
:10303000B5FBF2F5013DAB4205D30A4B1B68D869DD
:10304000F0BC00F0A9BA3A463146F0BCFFF704BF25
:10305000F0BCFFF787BF31461A46F0BCFFF7B8BF98
:10306000C069EDE7BCC9062413460A46014602487A
:103070000068FFF7C9BF00BFBCC9062404290FD8E8
:10308000DFE801F003080A060C00064802F004B865
:103090000548FBE70548F9E70548F7E70548F5E780
:1030A0000548F3E7B3DB0108CCDB0108E3DB0108EB
:1030B000F9DB010811DC010825DC010810B5044624
:1030C000C0692DED028B00F09DFAE0699FED3D8A0D
:1030D0004830FFF7AFFCB4EEC80AF1EE10FA58DD45
:1030E0002046FFF7CBFCE36993F8B42032B193F8A4
:1030F000BA30802B02D12046FFF71AFDE36993F81E
:10310000C42032B193F8CA30802B02D12046FFF799
:103110001FFDD4F8D034022B17D1E069B030FFF78F
:1031200089FCB4EEC80AF1EE10FA02DD2046FFF782
:1031300026FDE069C030FFF77DFCB4EEC80AF1EE71
:1031400010FA02DD2046FFF722FDE36993F84420E0
:103150003AB1596E29B1D4F8D4343BBB2046FFF7BD
:10316000B1FCD4F8D014D4F8D434994226D02046F7
:10317000FFF784FF144801F08FFF2046D4F8D414E1
:10318000FFF77CFF2046BDEC028BBDE81040FFF747
:1031900081BDE36993F84C20002AA4D093F8523003
:1031A000802BA0D12046FFF75BFC9CE7D4F8D034FD
:1031B000012B04BF0023C4F8D434D2E7BDEC028B4A
:1031C00010BD00BF00007A4435DC0108000000009B
:1031D00038B5044644482DED068B01F05DFFD4F868
:1031E0004C3641F288350133B3FBF5F205FB12355D
:1031F000C4F84C36002D6CD194ED049A9FED3BAA97
:103200003B48D4ED058A94ED038A01F045FF29EE91
:103210000A6A38489FED329BB5EEC06AB0EEC66AC6
:10322000F1EE10FAFDEEC67A4CBF2D212021B8EE4A
:10323000E77A17EE902A36EE476AB7EEC66A26EEB0
:10324000096BBDEEC67B17EE103A01F025FF28EEA4
:103250008A6A2948B5EEC06AB0EEC66AF1EE10FA85
:10326000FDEEC67A4CBF2D212021B8EEE77A17EE8D
:10327000902A36EE476AB7EEC66A26EE096BBDEEB7
:10328000C67B17EE103A01F007FF28EE0A7A1B48BA
:10329000B5EEC07AB0EEC77AF1EE10FAFDEEC76A6D
:1032A0004CBF2D212021F8EEE67A16EE902A37EE5B
:1032B000677AB7EEC77A27EE097BFDEEC77B17EE7C
:1032C000903A01F0E9FE4FF4FA70C4F84C5604F05D
:1032D000C9FF2046FFF7F2FE052004F0C3FF7EE79A
:1032E0000000000000408F4046DC01080000C8429A
:1032F00055DC010868DC010877DC010886DC010880
:10330000F7EE007A9FED0B7A036A80ED037AC7EE41
:10331000876A4361C0E9001201229342826102BFC1
:103320004FF0FF33C0ED037A836100230377C0EDD4
:10333000046A70470000000007EE902A114B80EDF0
:103340000C0AF8EE677A1B68C0ED090A8B4280EE22
:10335000277A98BFC91A036A4361C0E90A1201219A
:1033600000228B42C260816108BF4FF07E53017220
:1033700002BFC3604FF0FF338361002380ED047A06
:1033800003777047C0C9062408B5436B042B09D8DE
:10339000DFE803F00307081A2700F7EE007A37EE9C
:1033A000C00A08BDDFED1A7AB7EE007AB4EEE70A7C
:1033B000F1EE10FA05D970EE677AF1EE046AA7EE25
:1033C000E67AB0EE470AECE7B0EE007AFFEE007A5C
:1033D000E0EE077AB7EE000AF0EEE77A30EE670A21
:1033E000DFE79FED097BB7EEC00A20EE070B16F072
:1033F00067F9B7EE007B37EE400BB6EE007B20EEB0
:10340000070BB7EEC00BCCE7182D4454FB21194035
:10341000CDCC4C3F037A70B504460E4615462DEDD3
:10342000048B1BB1037F23B100232372BDEC048BFB
:1034300070BDD0ED067A4369F8EEE77A90ED030AA5
:1034400090ED047A022BA7EE270A72D0032B00F02E
:103450008180012B61D0F7EE007AB4EEE70AF1EE3D
:1034600010FA03DDB0EE670A01230377237F84EDB2
:10347000030A002BD8D1D4ED0B7A204694ED0C7AB8
:10348000F8EE677AA36A67EE807A67EE877AFCEED9
:10349000E77A17EE902ADFED3C7A1A4413463B4A4E
:1034A0001268511E99429CBFB3FBF2F102FB11332B
:1034B000226832F9132008EE902A626832F913303C
:1034C000F8EEE88A08EE103A68EEA78AB8EEC88AE5
:1034D00028EE278AFFF758FFB0EE409AD4ED097A1C
:1034E000B7EE000A30EE670A16F0C6F9F0EE409A21
:1034F00094ED090A16F0C0F968EE898AD6ED007AD3
:1035000028EE098AE8EEA97AC6ED007AD5ED007AB0
:10351000E8EE007AC5ED007A88E7B5EEC00A4FF014
:10352000FF328261F1EE10FAA0D59FED190A037700
:103530009CE7F7EE007AB4EEE70AF1EE10FAC8BFA6
:1035400030EE670AB5EEC00AF1EE10FA8ED530EE15
:10355000270A8BE7F7EE007AB4EEE70AF1EE10FAED
:1035600007DDF0EE007A4FF0FF3337EEC00AA361BB
:103570007CE7B5EEC00AF1EE10FA7FF577AFB1EE59
:10358000400A0123F3E700BF00000038C0C9062449
:103590000000000000F07CB900F07EB938B50446A8
:1035A00000F09EF9D4F8A850204600F0BBF9284658
:1035B00001F05EFCD4F8AC50204600F0B3F9284688
:1035C000BDE8384001F054BC00F0A6B938B5044657
:1035D00000F066F9D4F8A850204600F0A3F9284678
:1035E00001F046FCD4F8AC50204600F09BF9284688
:1035F000BDE8384001F03CBC00F06EB9183002F074
:1036000005B900BF10B50446403001F08DFC04F14F
:10361000B00001F007FE04F1C000BDE8104001F069
:1036200001BE00BF10B50446D83001F0D3FD04F54B
:103630009670BDE8104001F0CDBD00BFF0B54FF46D
:1036400081718FB000F1D80701254FF4C0624FF4AB
:10365000E063ADF8081000F5967402993846ADF8AD
:103660000C2008AEADF810300095DDE9032301F021
:1036700071FD40F201134FF480722046ADF8143012
:103680004FF48063059900950BADADF81820ADF8A7
:103690001C30DDE9062301F05DFD3046072105F011
:1036A000E5FC96E8070085E807002946384601F062
:1036B0007BFD96E8070085E807002946204601F0D3
:1036C00073FD384601F086FD20460FB0BDE8F0409E
:1036D00001F080BD2DE9F04140F202430446022290
:1036E000002504F1180704F1A8062DED028B8EB019
:1036F0009FED1B8AADF80C3005A8039901F064FE1C
:1037000002220DF12600ADF81020049901F05CFEB4
:103710000423022205A9384601F06AFE04F168027A
:1037200004F18803C4E92A232946384656F8048B55
:1037300002F082F801462046019100F0F3F80023E0
:10374000F0EE480A019940461A4601F05FFB25B1A8
:103750000EB0BDEC028BBDE8F0810125E4E700BFAF
:103760006F12033B2DE9F04104469AB00027019106
:1037700000F08CF80199204600F094F940F6061309
:1037800004F1B0069FED400AADF8143004F1C00515
:103790003046059901F02CFD4FF4007328469FED4B
:1037A0003A0AADF8183004F5C878069901F020FD02
:1037B00040F6033240F201639FED330AADF8082072
:1037C00004F140000299ADF80C70C4F8D0600FAE5F
:1037D000C4F8D45007ADADF81030DDE9032301F093
:1037E00073FB2046FFF72AFF2046FFF773FF2846AA
:1037F00001F096FC01230DF12C0E04F5C07C15930D
:10380000189347F61223169719930223179395E8F6
:103810000F008CE80F008EE80F0086E80F00BDF85F
:1038200040301490ADF84E30BDF84230D4E9625EBD
:10383000ADF84C30C4E9655EBEF1000F04D07246AD
:103840003946284616F048FF13A9404604F062FAAC
:1038500004F5D27001F078FC3021204600F040F8E9
:10386000D4F8A850204600F05DF8284601F000FB8F
:10387000D4F8AC50204600F055F828461AB0BDE800
:10388000F04101F0F5BA00BF00000000704700BF32
:10389000143001F077BA00BF143001F095BA00BFC0
:1038A00038B500F1140504462DED028B284601F0D1
:1038B00025FA284601F01EFA2846B0EE408A01F0AB
:1038C00007FAD0ED007AF8EE677A88EE277ABDEC39
:1038D000028B84ED0E7A38BD143001F00BBA00BFB4
:1038E00038B500F1140504462DED028B284601F091
:1038F000F3F9284601F0FEF92846B0EE408A01F0BF
:10390000E7F9D0ED007AF8EE677A88EE277ABDEC19
:10391000028B84ED0E7A38BD08B5143001F0D8F969
:10392000006808BD90ED0E0A704700BF10B540F268
:1039300003338EB000244FF60B7240F20341ADF812
:10394000083009A80123ADF81020ADF82420224644
:10395000ADF80C100094029907940C94CDE905443D
:10396000CDE90A4402F06AF804A80123224603992B
:10397000009402F063F809A802F046F910B901209A
:103980000EB010BD04A802F03FF9A0420CBF022007
:1039900020460EB010BD00BF2DE9F04103239AB0C0
:1039A000012700240646CDE914373B4BCDE91043EF
:1039B00040F20453CDE91647ADF84830FFF7B6FFA3
:1039C000B842054625D0022845D040F60132334B97
:1039D0000DF12C081894ADF82C200B981997CDF800
:1039E0004A3000F0E3F810A906F13C0003F054F966
:1039F000302003224FF07E5341460D930E93CDE9C4
:103A00000B02F26B06F1140001F02AF91AB0BDE8BE
:103A1000F0811023214A06A906908DF828300DF177
:103A20002C081F4BCDF84A2007930294CDE91804C7
:103A3000CDE9080402A802F067FB0823029A03A953
:103A40004046ADF80C508DF80E40049505930B944C
:103A500000F0ECF8C7E700200121104B0DF12C0815
:103A60003A460094CDF84A304FF60B730C94ADF8FB
:103A70002C302346CDE9180140F601314046ADF81F
:103A800018100699CDE90D4401F0D8FF21464046B3
:103A900002F0C6F8A7E700BF04020404040604030A
:103AA0000704010B2DE9F04704462DED028B82B08F
:103AB00000294DD0012140F2011200230091ADF800
:103AC00004208DF80630364A0127364B04F10409EC
:103AD000354904F12908626040F20272A36040F6A1
:103AE0000663E16004F1250AA4F82520A4F8293032
:103AF000278284F8277084F82B7004F055FD054662
:103B000004F0B2FB6946064650BB4DB304F13000E9
:103B10008DF8067004F0CAFC072D3CD104F11405A1
:103B20002046FFF739FF284601F0E4F82846B0EEBA
:103B3000408A01F0CDF8D0ED007AF8EE677A88EE91
:103B4000277A84ED0E7A02B0BDEC028BBDE8F087D7
:103B500040F2011300918DF80610ADF80430B2E781
:103B600004F1300004F0A2FC072D11D04946204694
:103B700002F012FD0EB9002DD0D1504602F05AF8D5
:103B8000404602F057F804F1120000F079F9C5E759
:103B9000002EF2D1C2E74946204602F0FDFCBDE707
:103BA0000508050905070506050A060610B584B0CF
:103BB00003460124ADF8040003A8ADF80C30ADF8BD
:103BC0000E4002F037F8214603A802F01DF9204606
:103BD00004F048FB002103A802F016F9204604F087
:103BE00041FB214603A802F00FF904B010BD00BF4D
:103BF00010B5C2F3002384B00C46017C8DF80D2073
:103C000043EA4402FA2402238DF80C2003AA00940C
:103C100002F010FB18B10124204604B010BD044688
:103C20000A2004F01FFB204604B010BD034670B507
:103C300043F8042B044684B007C983E80700A3793E
:103C400083B91A210B461E22FA2523742046ADF8AB
:103C50000C20022303AA009502F0ECFA28B10120FF
:103C600004B070BD1B210B46EDE70A2004F0FAFA00
:103C70004FF4B85200950223ADF80C20204603AA59
:103C8000217C02F0D7FA0028E9D10A2004F0EAFAF0
:103C900041F2027200950223ADF80C20204603AADF
:103CA000217C02F0C7FA0028D9D10A2004F0DAFA00
:103CB000042200950223ADF80C20204603AA217CA3
:103CC00002F0B8FA0028CAD10A2004F0CBFA062282
:103CD00000950223ADF80C20204603AA217C02F0B7
:103CE000A9FA0028BBD10A2004F0BCFA41F208224C
:103CF00000950223ADF80C20204603AA217C02F097
:103D000099FA0028ABD10A20064604F0ABFA0095D8
:103D1000022303AA217C2046ADF80C6002F08AFA47
:103D200000289CD1304604F09DFA009522790C239E
:103D30002046002A8DF80C3003AA4FF0020314BF6E
:103D4000622142218DF80D10217C02F073FA0028C7
:103D500085D1304604F086FA2279D4E902310B434A
:103D6000DBB20AB943F0400362790AB143F02003A1
:103D70000E22FA258DF80D302046009502238DF88D
:103D80000C2003AA217C02F055FA00287FF467AFCB
:103D90000A2004F067FA102200950223ADF80C20E7
:103DA000204603AA217C02F045FA00287FF457AF91
:103DB0000A2004F057FA122100950223ADF80C10E6
:103DC00003AA217C204602F035FA00287FF447AF91
:103DD0000A2004F047FA012209212046FFF708FFD4
:103DE000003818BF01203BE7F0B5102387B0234C03
:103DF000012200250126002702A920460195CDE9D0
:103E000002234FF48052CDE904670DF05BFA642081
:103E100005F0E8FC02A94FF480522046CDE9046782
:103E200002261027CDE902670DF04CFA0322102379
:103E300002A92046CDE9022300230422CDE9042370
:103E40004FF480520DF03EFA40F23223042202A9D0
:103E5000019310232046CDE90223019A0123059204
:103E60004FF4805204930DF02DFA40F606012046DF
:103E70000DF048FA284607B0F0BD00BFCCC90624B3
:103E80001C4B00221C494FF0400C30B5054689B050
:103E90000220596007219A601A620124DA620A221C
:103EA0004FF4006EDC6006922022CDE90001042070
:103EB0000821CDE9020103201021CDE904010820E9
:103EC0006946C3E904024FF4C072181DC3E906C273
:103ED0004FF48052C3E909E20DF0CAF938B9284617
:103EE000FFF782FF003818BF012009B030BD20461F
:103EF00009B030BDC8C9062440410052614A0021C2
:103F0000D0B513688EB00A91002B40F0B9805E4B9B
:103F100001214FF683700C2411600221D3F8D420C4
:103F20000026032742F48052C3F8D420D3F8D420CB
:103F300002F480520092009AD3F8E02042F010027E
:103F4000C3F8E020D3F8E02002F010020192019AB9
:103F5000D3F8E02042F04002C3F8E020D3F8E0209C
:103F600002F040020292029AD3F8E02042F00802E6
:103F7000C3F8E020D3F8E02002F008020392039A8D
:103F8000D3F8E02042F48072C3F8E020D3F8E020B8
:103F900002F480720492049AD3F8E02042F0800286
:103FA000C3F8E020D3F8E02002F080020592059AE1
:103FB000D3F8E02042F02002C3F8E020D3F8E0205C
:103FC00002F020020692069AD3F8E02042F00402A2
:103FD000C3F8E020D3F8E0300C9403F00403079317
:103FE0000323079A0B93CDE9080108A9274807F096
:103FF0008DFB48F23712022308A925480C94CDE91D
:104000000823CDE90A6707F081FB4CF20372022313
:1040100008A920480C94CDE90823CDE90A6707F0E8
:1040200075FB40F2FF62022308A91B480C94CDE9FE
:104030000823CDE90A6707F069FB4FF60C720223EB
:1040400008A916480C94CDE90823CDE90A6707F0C2
:104050005DFB4FF63F02022308A911480C94CDE9FD
:104060000823CDE90A6707F051FB2022022308A9A3
:104070000A480C94CDE90A67CDE9082307F046FB0E
:104080000EB0D0BDC4C90624004402580010025826
:1040900000180258000C025800200258001C025858
:1040A000001402582DE9F04FDFF8108406460D4643
:1040B000144608F118002DED028B89B000AF02F014
:1040C000E3FED8F8183073B3D8F81C30D8F8049051
:1040D000002B43690BBF4FF0080A4FF0100A4FF056
:1040E000020B4FF0040BB9F1000F2AD0A200EA46F0
:1040F000012B02F1070222F00702ADEB020D684628
:10410000ADEB020D694600F03F81022B00F0D68036
:10411000002B6FD02246C847D5462437BD46BDEC9C
:10412000028BBDE8F08FD8F81C30002BF5D0D8F802
:1041300004904FF0080A4FF0020B4369B9F1000FE9
:10414000D4D1FB61D8F80030BB61002BE5D0D54855
:1041500002F018FF6B46BBF1020F786108EE103ACF
:10416000FB6900F083816A465146A2EBC402954682
:104170006200EA46B2FBFBF2AAEBC40085460AEBFA
:104180008200EE46F861ADEB010DF8690EEB820C92
:10419000C7F810C0EC46ADEB010D00EB8201CCF886
:1041A0000400CCF8081001EB82013869E946CCF82C
:1041B0000C1000EB8201CCF800A001EB8202C9E9EF
:1041C00000E0C9E90212012B00F06483022B00F029
:1041D0006C82002B00F08081620849466046BB6912
:1041E000984718EE103A24379D46BD46BDEC028B29
:1041F000BDE8F08F002C8DD01A46D8ED0C6A9FEDEB
:10420000B27A8446331D36F922E00CF1080C07EE31
:1042100090EA33F922E00232F8EEE77A944267EE50
:10422000877A67EEA67A4CED027A07EE90EAF8EE0E
:10423000E77A67EE877A67EEA67A4CED017AE2D8E4
:10424000F9612246C847984ED8ED0D6A0020F969F9
:104250002B1D9FED9E7A9FED9E6ADFED9E5A22E018
:10426000F4EEC67AF1EE10FAC0F2C88447F6FE7298
:10427000D1ED017A45F8202066EEA77AF4EEC77AF0
:10428000F1EE10FA40F2F080F4EEC67AF1EE10FA98
:10429000C0F2D58447F6FE7243F820200230083180
:1042A00084427FF639AFD1ED007A66EEA77AF4EE5C
:1042B000C77AF1EE10FAD3D83246D9E7002C3FF492
:1042C00029AFD8ED0C6A84469FED787A0022331D21
:1042D0008E4656F822100CF1080C07EE901A53F88F
:1042E00022100232F8EEE77A944267EE877A67EEA0
:1042F000A67A4CED027A07EE901AF8EEE77A67EEAE
:10430000877A67EEA67A4CED017AE2D871462246AA
:10431000C7F81CE0C847664ED8ED0D6A0020F96961
:104320002B1D9FED6A7A9FED6A6ADFF894C120E049
:10433000F4EEC67AF1EE10FAC0F279843246D1ED8D
:10434000017A45F8202066EEA77AF4EEC77AF1EEFE
:1043500010FA40F28780F4EEC67AF1EE10FAC0F25D
:104360005E84324643F820200230083184427FF6D2
:10437000D3AED1ED007A66EEA77AF4EEC77AF1EE0D
:1043800010FAD5D86246DAE7002C3FF4C3AED8ED78
:104390000C6A86469FED477A4FF0000C331D56F8A5
:1043A0002C200EF1080E82F40002A2F5000207EEA6
:1043B000902A53F82C200CF1020CF8EEE77A82F4E4
:1043C00000026445A2F5000267EE877A67EEA67ADE
:1043D0004EED027A07EE902AF8EEE77A67EE877ADA
:1043E00067EEA67A4EED017AD9D8F9612246C84720
:1043F000314ED8ED0D6A0020F9692B1D9FED337AFF
:104400009FED336ADFF8BCC01FE0F4EEC67AF1EE30
:1044100010FAC0F2FC833246D1ED017A45F8202033
:1044200066EEA77AF4EEC77AF1EE10FA18D9F4EE38
:10443000C67AF1EE10FAC0F2DA83324643F8202051
:104440000230083184427FF667AED1ED007A66EE25
:10445000A77AF4EEC77AF1EE10FAD6D86246DBE717
:104460006246EBE762467DE7324615E7A100D64695
:104470006208073121F00701ADEB010DEA46ADEB13
:10448000010D6946ADEB0E0D0AEB8200EC46ADEB7B
:104490000E0D01EB8202F861E946CCE900A0C9E902
:1044A000001290E61CCA06240280FFFF00000030C4
:1044B0000082FF7F0000003482FF7F0000CA0624D4
:1044C000007E00807E0080FF0000003804FF7FBF78
:1044D00004FF7F3F00FEFF46002C00F0C982BBF1C5
:1044E000020FD8F8242000F0FA827969C7F8049006
:1044F00002EB810E5FED0C5A8A00DCF808100EF119
:1045000004007A611A46DCF80C303B61331DD7F8A1
:1045100010903D61FD69C7E902CB8C46834636F9B0
:104520002210D8ED0C7A06EE101A33F9221006EE9E
:10453000901A3EF92210B8EEC66A07EE101AF8EE8D
:10454000E66A3BF92210B8EEC77A26EE256A66EED7
:10455000A56A27EE257A26EE276A66EEA76A27EE79
:10456000277A07EE901A51080232F8EEE77A0AEB42
:104570008100944280ED006A05EB810067EEA57A28
:10458000C0ED006A0CEB810009EB810180ED007A3F
:1045900098ED0C7A67EE877AC1ED007ABFD8D7F82C
:1045A00004903D69D7E902CB60466208BB69494681
:1045B0009847D8F82C307A69D8ED0D6A1A441FED67
:1045C0003D7A1FED3D6A2B1D904602F1040A5FED16
:1045D0003F5A0022A84ED9E900EC51E0F4EEC67A29
:1045E000F1EE10FAC0F2C78247F6FE7045F82200DD
:1045F0000CEB0100D0ED007A66EEA77AF4EEC77AF4
:10460000F1EE10FA4BD9F4EEC67AF1EE10FAC0F2E0
:10461000BA8247F6FE70BBF1020F43F822002BD09E
:10462000D9F808000844D0ED007A66EEA77AF4EED7
:10463000C77AF1EE10FA36D9F4EEC67AF1EE10FA36
:10464000C0F2CD8247F6FE7048F82200D9F80C007F
:104650000144D1ED007A66EEA77AF4EEC77AF1EE66
:1046600010FA1ED9F4EEC67AF1EE10FAC0F2AF825B
:1046700047F6FE714AF82210023294427FF6B1AD3D
:1046800051080EEB81008900D0ED007A66EEA77A22
:10469000F4EEC77AF1EE10FAA0D83046A6E730461D
:1046A000B9E73146E6E73046CEE7002C00F0E0817E
:1046B000BBF1020FD8F8243000F0E1817A69DCF810
:1046C000081003EB820EC7F804909300DFED6B5ADD
:1046D0000EF1040000227B61DCF80C303B61331DDD
:1046E000D7F810903D61FD69C7E902CB8C4683463F
:1046F00056F82210D8ED0C7A07EE101A53F8221053
:10470000B8EEC76A07EE101A5EF82210F8EEC76A14
:1047100007EE101A26EE256A5BF82210B8EEC77A6B
:1047200066EEA56A26EE276A27EE257A66EEA76A68
:1047300027EE277A07EE901A51080232F8EEE77A50
:104740000AEB8100944280ED006A05EB810067EE80
:10475000A57AC0ED006A0CEB810009EB810180EDC8
:10476000007A98ED0C7A67EE877AC1ED007ABFD8AF
:10477000D7F804903D69D7E902CB60466208BB696F
:1047800049469847D8F82C307A69D8ED0D6A1A4412
:104790009FED3E7A9FED3E6A131D9246DFF8E4C01E
:1047A0000022FB612B1D364ED9E9008E4EE0F4EE5F
:1047B000C67AF1EE10FAC0F2FC81304645F82200CC
:1047C0000EEB0100D0ED007A66EEA77AF4EEC77A20
:1047D000F1EE10FA49D9F4EEC67AF1EE10FAC0F211
:1047E000EF813046BBF1020F43F822002AD0D9F8FE
:1047F00008000844D0ED007A66EEA77AF4EEC77A96
:10480000F1EE10FA35D9F4EEC67AF1EE10FAC0F2F4
:10481000C98130464AF82200D9F80C000144D1ED94
:10482000007A66EEA77AF4EEC77AF1EE10FA1ED996
:10483000F4EEC67AF1EE10FAC0F2AD813146F869B5
:1048400040F82210023294427FF6CBAC510808EBBC
:1048500081008900D0ED007A66EEA77AF4EEC77A7F
:10486000F1EE10FAA3D86046A8E76046BAE76146C1
:10487000E5E76046CEE700BF0280FFFF00000030A2
:104880000082FF7F007E00800000003404FF7FBFB5
:1048900004FF7F3F002C00F0EB807A690021D8F8FC
:1048A0002430C7F8109003EB820ED7F81C909300C9
:1048B000FD610EF104021FED0C6A7B61331D15468C
:1048C00056F821204808D8ED0C6ABBF1020F82F49B
:1048D0000002A2F5000207EE902A53F8212082F48C
:1048E0000002B8EEE77AA2F5000227EE067A07EE9C
:1048F000902A0AEB8002F8EEE77A27EE267A67EE36
:10490000867A82ED007A09EB80024FEA800067EE3A
:10491000A67AC2ED007A27D05EF8212082F4000248
:10492000A2F5000207EE902A55F8212082F4000239
:10493000B8EEE77AA2F5000227EE067A07EE902A93
:10494000DCF80820F8EEE77A024427EE267A67EED4
:10495000867A82ED007A98ED0C7ADCF80C2067EE0E
:10496000877A0244C2ED007A02318C42A8D8D7F887
:10497000109060466208BB694946FD699847D8F8BF
:104980002C307A69D8ED0D6A1A441FED407A1FED7C
:10499000406A131D9246DFF8C4C20022FB612B1D42
:1049A000AB4ED9E9008E4EE0F4EEC67AF1EE10FA85
:1049B000C0F2C580304645F822000EEB0100D0ED74
:1049C000007A66EEA77AF4EEC77AF1EE10FA49D9CA
:1049D000F4EEC67AF1EE10FAC0F2BF803046BBF1B9
:1049E000020F43F822002AD0D9F808000844D0ED7D
:1049F000007A66EEA77AF4EEC77AF1EE10FA35D9AE
:104A0000F4EEC67AF1EE10FAC0F2AE8030464AF803
:104A10002200D9F80C000144D1ED007A66EEA77AA5
:104A2000F4EEC77AF1EE10FA1ED9F4EEC67AF1EE82
:104A300010FAC0F28B803146F86940F82210023239
:104A400094427FF6CEAB510808EB81008900D0ED8F
:104A5000007A66EEA77AF4EEC77AF1EE10FAA3D8E0
:104A60006046A8E76046BAE76146E5E76046CEE7FC
:104A7000224649466046BB699847FFF7B2BBC7F874
:104A800010B0002298ED0C6A331DDFED726AD7F882
:104A90001CB0786956F8221007EE901A53F82210CD
:104AA000B8EEE77A07EE901A51080232F8EEE77A8C
:104AB00027EE267A0AEB810E94420BEB810167EE1A
:104AC000A67A27EE067A67EE867A8EED007AC1ED39
:104AD000007ADFD88300D7F810B07B614DE61A4624
:104AE000C7F810B098ED0C6A331DDFED5B6AD7F89C
:104AF0001CB0786936F9221007EE101A33F922102B
:104B000007EE901AB8EEC77A51080232F8EEE77A4B
:104B100027EE267A0AEB810E94420BEB810167EEB9
:104B2000A67A27EE067A67EE867A8EED007AC1EDD8
:104B3000007ADFD88300D7F810B07B6134E5F0EE5F
:104B4000675AFEEEE45A15EE900A34E7F0EE675A23
:104B5000FEEEE45A15EE901A6EE7F0EE675AFEEE9E
:104B6000E45A15EE900A3AE7F0EE675AFEEEE45A80
:104B700015EE900A4BE767EEA57AFDEEE77A17EEA1
:104B8000900A00B232E567EEA57AFDEEE77A17EEFD
:104B9000900A00B23FE5F0EE675AFEEEE05A15EEDD
:104BA000901A4CE6F0EE675AFEEEE05A15EE900AC7
:104BB00030E6F0EE675AFEEEE05A15EE900AFDE59B
:104BC000F0EE675AFEEEE05A15EE900A0AE667EE3E
:104BD000A57AFDEEE77A17EE901A09B24AE567EE7C
:104BE000A57AFDEEE77A17EE900A00B22CE5F0EE1A
:104BF000675AFEEEE45A15EE902A1FE467EEA57A96
:104C0000FDEEE77A17EE902A12B2FFF731BBF0EE15
:104C1000675AFEEEE45A15EE902AFFF7FDBBF0EE60
:104C2000675AFEEEE05A15EE902AFFF79BBBF0EEB6
:104C3000675AFEEEE05A15EE902AFFF780BB67EE4A
:104C4000A57AFDEEE77A17EE902A12B2FFF724BBA1
:104C500082FF7F0000000030000000387E0080FFEF
:104C600030B5184C154685B0046004F1080EEC46CA
:104C70000FC98EE80F00D4ED047AF5EEC07A8CE807
:104C80000F00F1EE10FA1ADDB7EE006A94ED057A26
:104C900027EE277AC6EE276A84ED0D7AC4ED0C6AFA
:104CA0006DB1204640F8185F02F0EEF8064903693E
:104CB0000020064A2162A262E36005B030BD0120F7
:104CC00005B030BD00CA06240020003000000030CE
:104CD00000680830704700BFB1F5807F03680A465E
:104CE00028BF4FF48072B1F5807F9A6094BF002096
:104CF000012070470068183002F032B970B50468BE
:104D00008AB0A369E160CBB104F11805284602F02E
:104D1000BBF88446EE46E668BCE80F00AEE80F003C
:104D2000BCE80F00AEE80F009CE803008EE803002B
:104D300069462846049601F0AFFFF8B9E069D8B19A
:104D400004F11C05284602F09FF88446EE46E4680C
:104D5000BCE80F00AEE80F00BCE80F00AEE80F00A3
:104D60009CE803008EE8030069462846049401F09D
:104D700093FF003818BF01200AB070BD01200AB0AF
:104D800070BD00BF30B5046883B00D46E3694BB118
:104D9000A3680020E26A616A9B00009004F11C0095
:104DA00002F074F8A3680748A26A9B00216A009089
:104DB00004F1180002F06AF80020C4E9005003B0C2
:104DC00030BD00BFA540000810B50468A3691BB141
:104DD00004F1180002F0B8F8E3691BB104F11C00FB
:104DE00002F0B2F8002010BD10B4074B4FF07E5116
:104DF00030240022032019619C60D8605DF8044BC8
:104E00005961C3E90622704700CA0624F6EE007A0B
:104E10009FED166A20EE207A0160F7EE006A80EDC1
:104E2000036A80ED020A27EE277AC6EE877AF4EE4F
:104E3000E67AF1EE10FA11DDF0EE667A4FF07E516F
:104E40004FF0000C02760022C0ED017AC0F814C0C9
:104E5000016143768276C0ED070A7047F4EEC67AA8
:104E6000F1EE10FAEAD5F0EE467AE7E7000000002E
:104E7000837E80ED020AABB9D0ED077A27EE800A77
:104E8000F6EE007AB7EE007A20EE270AC7EE007A37
:104E9000F4EEC77AF1EE10FA07DDF0EE477AC0EDD6
:104EA000017A7047DFED067AE8E7F5EEC07AF1EEB9
:104EB00010FAF4D5DFED037AC0ED017A704700BF38
:104EC0006F12033B0000000030B585B0044600259A
:104ED000ADF80C10ADF80820ADF8043003F0BAF9C5
:104EE000BDF80C204FF48073206004F11800228379
:104EF000BDF808206383E383A283257100F09AFE46
:104F000004F11C0000F096FE9FED060A019904F1E1
:104F1000080000F06DF94FF6FF736562238405B059
:104F200030BD00BF00000000F8B5044603F092F960
:104F3000002623682671834205D104F10800BDE8EC
:104F4000F84000F06FB9012794F82050206004F178
:104F50001800BD40277100F049FF6DB2284394F856
:104F60002150BD4084F8200004F11C0000F03EFFF9
:104F700094F820306DB2666203F003032843022BDD
:104F8000C0B284F8210009D000F003000228D4D177
:104F9000002BD2D14FF0FF336362CEE78307CCD131
:104FA0006762CAE7704700BFF8B5134F3C687F2CB3
:104FB00007D98023114A42F224411C463B60A2F8E3
:104FC0007E100F4D2B68012B0AD90C4E0D4D224639
:104FD0003146284600F0DCF90028F8D13860F8BDE9
:104FE00022460649074800F0D3F90028F7D12B687C
:104FF000386001332B60F8BD3CCA062440CA062441
:1050000038CA0624C0CA062430B4154C2168F1B150
:105010004B1E144DE81810F801298C4619460A2A2F
:1050200001D00D2A02D14BB1013BF4E70CF1020390
:105030007F2B10D98023236030BC704701220223CC
:1050400023600D200A236854AB5430BC7047012202
:105050000223044DF4E70CF101026146F0E700BFC2
:105060003CCA062440CA062410B5094C02460B4629
:10507000084821680844C1F1800116F025F9236829
:1050800018442060FFF7C0FFFFF78EFF10BD00BF80
:105090003CCA062440CA06240FB400B583B004A954
:1050A00051F8040B0191FFF7DFFF03B05DF804EB4B
:1050B00004B0704710B5044600210A4800F0E2F839
:1050C000002C094B14BF0222002208481A60FFF787
:1050D000E3FF0748FFF7E0FF0A20BDE8104003F0B8
:1050E000C1B800BFC0CA062438CA062498DC01082B
:1050F000A8DC0108064A0749074808B514F0ACFACD
:10510000034A04490548BDE8084014F0A5BA00BFA9
:1051100000000024A54F0008C0CA0624C4CA062403
:10512000074A118830B481800024064D91884FF4DD
:10513000807285600460C180C26030BC704700BF6F
:10514000C4D501080040003000220A230270037118
:10515000704700BF30B585B004469FED110A9DF839
:105160002050ADF80C100399ADF808202A46ADF890
:1051700004308DED000A11F059FE9DED000A2A461B
:10518000029904F11C0011F051FE9DED000A2A461F
:10519000019904F1380005B0BDE8304011F046BE79
:1051A00000007A4411F066BE38B50C46054691ED14
:1051B000000A11F05FFE94ED010A05F11C0011F0E8
:1051C00059FE94ED020A05F13800BDE8384011F0AF
:1051D00051BE00BF10B5044611F05EFE04F11C0084
:1051E00011F05AFE04F13800BDE8104011F054BE31
:1051F00070B5044682B0C1F30726CDB2ADF80410F5
:1052000003F028F84FF480724FF001232060A01DB6
:10521000A571A280E671A36002B0BDE8704000F005
:1052200009BD00BF38B5044603F014F80022236816
:105230002271834210D00122A57AE37A9540206042
:105240002271A01D6DB243B900F0D0FD40B22843D9
:10525000C0B27F28A0720AD038BD00F0C7FDB0FAF6
:1052600080F040092843C0B27F28A072F4D102F038
:10527000F1FF07EE900AF8EE677AC4ED037A38BDC5
:10528000704700BF012910B506D0022915D051B1D1
:10529000BDE8104008F092B90A463448344910F08D
:1052A000E1FBE8B1FEE7334B0A46334C334934485F
:1052B0001C6010F0D7FB68B1FEE701222C492B4897
:1052C00010F0D0FB00B1FEE72E49284810F0ECFBAF
:1052D000C0B1FEE72B492A4810F0E6FB60B1FEE7BB
:1052E0002849224810F0E0FB00B1FEE726491F489C
:1052F00010F068FB08B3FEE72449214810F062FB78
:10530000A8B1FEE72049194810F05CFB00B1FEE7A8
:10531000164810F0DFFB024640B9164B164C1749F1
:1053200017481C6010F09EFB68B1FEE7FEE71448CA
:1053300010F0D0FB0028ABD0FEE70C4810F0CAFB01
:105340000028A5D0FEE70F490D4810F0ADFB00B1D5
:10535000FEE70E490A4810F035FB00B1FEE70848A9
:1053600010F0B8FB002893D0FEE700BF64CD062400
:105370009002002400D00624815200087402002408
:10538000C8CA0624F802002454020024440200245F
:10539000084691B208B503F041FA003818BF012061
:1053A00008BD00BF014807F0E7BB00BFE00A0724C3
:1053B000014807F0E1BB00BFE00A0724014807F0FD
:1053C000DBBB00BFE00A072400B583B04FF0000E3E
:1053D0004FF0030C4274ADF80410BDF8043080F8AF
:1053E00010E0A0F802C0038003B05DF804FB00BF2A
:1053F0002DE9F04FDFF81C8300258DB0C04C037001
:1054000008F140034260074601920E4620222946D9
:105410004046C4F86831C4F86481CDE90255CDE94D
:105420000455CDE90655CDE90855CDE90A5515F0E5
:1054300053F92022294604F5A170C4F83151C4F86B
:105440003551C4F83951C4F83D5115F045F9019B67
:1054500084F8485284F830317A68002A6AD02B46A2
:1054600004F59871454606F1100A9E46F01856F864
:1054700003B0E2180EF1010ED0F80CC0D0F8049081
:10548000D0F8088044F803B0C2F80CC04FF0000C0C
:10549000C2F80490C2F80880008A25F802CB108276
:1054A0001AF8032001F8012F002A70D07A684FF013
:1054B00001001233724584F84802D7D84FF4802295
:1054C00090489DF8043008214FF000084FF0000983
:1054D000C4F884310023C4E95B020122C4F87431AA
:1054E00084F88031C4E95E2194F84812C4E96489E3
:1054F000A9B3C4F89821002284F8813184F8883156
:105500003B78C4E96722002B38D00122002001211A
:10551000013B84F8A421C4E96C01082B30D8DFE8F2
:1055200013F0BD00C200C700CC00D100D600DB00E4
:10553000E100E8009DF804300121C4F87421C4F8AA
:1055400084314FF4802384F880216E4AC4E95B23C0
:1055500008230022C4E95E130023C4E96423012365
:10556000002284F88131002384F888310323C4F8B1
:1055700098313B78C4E96722002BC6D184F8A43166
:10558000614804F067FD034638B1FFBEFEE77A6864
:10559000123372453FF66AAF90E702A95A48029368
:1055A00004F0B6FE8246002876D1042240F2FF7154
:1055B0000A90CDE9081294F83021002A00F0F38017
:1055C0004FF006080AEBCA034FEACA0904EB43038B
:1055D0005B7C072B07D8DFE803F0595C5653504D2E
:1055E0004A04072307930FFA8AF6D14406EBC6064E
:1055F00004EB490904EB46077500384600F01AFB36
:1056000099F81030042B00F3AA80022B00F3BD8020
:1056100000F0B98004EB0A03002283F8202114F87B
:105620001630002B78D0022B00F08A80012B40F03E
:10563000B2807B78012B00F0B080002B334B18BF79
:10564000002305A93048CDE9053804F02FF90028DA
:1056500040F0AC800AF1010A94F830315FFA8AFA1E
:10566000534540F2A0802A4B53F82A80AAE706232C
:105670000793B8E705230793B5E704230793B2E739
:1056800003230793AFE702230793ACE700230793B5
:10569000A9E701230793A6E7FFBEFEE70322402305
:1056A000C4E96A236CE707226023C4E96A2367E739
:1056B0000F228023C4E96A2362E71F22A023C4E9E2
:1056C0006A235DE73F22C023C4E96A2358E77F22AB
:1056D000E023C4E96A2353E7FF224FF48073C4E94F
:1056E0006A234DE740F2FF124FF49073C4E96A2336
:1056F00046E740F2FF324FF4A073C4E96A233FE764
:1057000008D006240020024074D106240002B025EF
:10571000B8DC0108004100307B78062B37D0072B1E
:105720003DD0022B4AD0032B4AD0002B4CD0012B6A
:1057300048D0042B4AD0052B254B18BF002380E707
:105740007B78042B25D0052B2BD08BB3012B31D0AC
:10575000022B31D0032B1F4B18BF002371E703230B
:10576000043504EB0A0B4FF0000925448BF8203177
:10577000284609F1010900F05DFA9BF82031043553
:105780004B45F5DC4BE70123EAE70223E8E7124B40
:1057900057E7124B55E7002353E7114B51E7114BE5
:1057A0004FE7114B4DE70DB0BDE8F08FFFBEFEE7B0
:1057B0000E4B46E70E4B44E70E4B42E70E4B40E7DD
:1057C0000E4B3EE70E4B3CE70E4B3AE70E4B38E7ED
:1057D0000000B84F002090360800900C1000C01058
:1057E0002000F0148000501D000180210004002AD8
:1057F0000008302E001060320040C03A0080F03EB9
:1058000000005247000021430000844B38B5094C8A
:1058100040F2FF724FF0011104F5B675284604F00E
:1058200025FD94F83021D4F864112846BDE83840AD
:1058300004F090BA08D00624034B0F29D3F8640172
:1058400098BF00EB4100704708D00624214B026846
:105850009A4200D07047204A00232048D2F8D8103E
:1058600030B51F4C41F0200183B0C4F8D0010920AD
:1058700004F5E875C4E975034FF48060C2F8D810E8
:10588000D2F8D8204FF40061C4E9773094F8480288
:1058900002F02002C4F8E4114FF400519842019242
:1058A0002846C4F8E811C4E97C33019B14BF0023E7
:1058B0004FF48073C4F8EC3104F050FF08B1FFBE20
:1058C000FEE704F5B673C4F8B851C4F8083203B063
:1058D00030BD00BF0020024000440258400002409A
:1058E00008D00624014805F0BFBB00BFD8D106246C
:1058F00002682DE9F84F4B4B9A4201D0BDE8F88F72
:10590000494D95F84832002BF8D095F83031002BEE
:1059100077D0002405F10C0905F5A17605F59877F7
:10592000A04613E003F0010117F811BCA9F108002B
:1059300000F06AFABBF1010F25D895F83031013437
:1059400009F112090236A2B293422BD917F8012F9E
:10595000002AF4D0D5F864310021327833F81400ED
:10596000D5F8683103EB041323F8120033880133B0
:105970009BB233805FFA83FA3A789A42D2D88A4649
:10598000A6F80080D0E7CAF34001A9F1040000F0B6
:105990003BFABBF1020FCAF38001CED0484600F0BB
:1059A00033FACAE7002395F84802204909229842B1
:1059B000C5F8D8314FF48060C5F8D011C5F8D421AE
:1059C0004FF400614FF40052C5F8DC3108BF4FF4CA
:1059D0008073C5F8E821C5E9780100221448C5E9BB
:1059E0007B32C5F8F42104F0B9FE08B1FFBEFEE732
:1059F00095F83021D5F864110E48BDE8F84F04F051
:105A0000A9B90A4909224FF48060C5F8D831C5E91F
:105A100074124FF400614FF40052C5E97730C5E9C4
:105A20007912DAE70020024008D006244000024044
:105A3000D8D1062474D10624704700BF10B592B0A7
:105A4000ADF804100180C9B2149C0B29C460C0E9F0
:105A500001233FD090F801C0BCF10F0F3AD8022AC1
:105A60003FD0032A02D0012A00D000220E92012B3F
:105A700002D0022B18BF0023022C0F932CD0032C32
:105A80002AD0012C28D000230A29109327D85C4A59
:105A900002EB812202610A2914D8DFE801F0A39504
:105AA00087796B5D4F4133250600564BD3F8E010E4
:105AB00041F48061C3F8E010D3F8E03003F4806370
:105AC0000C930C9B01230DA9104603FA0CF30D93C4
:105AD00005F01CFE12B010BD0A291094D7D900227F
