:020000040800F2
:100000000000022099060008950600089D86000859
:1000100095060008950600089506000800000000F7
:10002000000000000000000000000000950600082D
:1000300095060008000000009506000821860008CB
:100040009506000895060008950600089506000824
:100050009506000895060008950600089506000814
:10006000950600089506000895060008C17000086E
:10007000CD700008215E0008D9700008E570000806
:100080009D800008ED6500089506000895060008AB
:1000900095060008950600089506000895060008D4
:1000A00095060008950600089506000895060008C4
:1000B000D5800108E1800108ED8001082166000873
:1000C000950600082D660008950600084579010888
:1000D00051790108D17E0008FD7E0008317F0008BB
:1000E0009506000895060008000000009506000827
:1000F0009506000895060008950600089506000874
:100100009506000819760008F98001085D79010854
:10011000657F0008997F000895060008950600088D
:10012000950600089506000881790108B57901084F
:10013000D18000089506000895060008950600087D
:1001400000000000000000000000000000000000AF
:10015000950600089506000895060008CD7F000862
:1001600039660008950600083186000855860008A3
:10017000950600087986000895060008950600088F
:1001800095060008950600080180000835800008E3
:100190006979010875790108950600089506000837
:1001A00095060008950600089506000895060008C3
:1001B000E16D000895060008950600089506000800
:1001C0009506000895060008E1580008ED5800085B
:1001D00095060008F95800089506000895060008DD
:1001E0009506000895060008950600089506000883
:1001F0009506000895060008950600089506000873
:100200009506000895060008950600089506000862
:100210009506000895060008950600089506000852
:1002200095060008950600089506000800000000E5
:1002300095060008950600080000000095060008D5
:100240009506000895060008950600089506000822
:100250009506000895060008950600089506000812
:100260009506000895060008950600089506000802
:100270009506000895060008698000080000000047
:100280009506000895060008950600080000000085
:080290000000000095060008C3
:1002A00010B5054C237833B9044B13B10448AFF3B0
:1002B00000800123237010BDB80700240000000057
:1002C00014F2010808B5034B1BB103490348AFF30F
:1002D000008008BD00000000BC07002414F20108E3
:1002E000034613F8012B002AFBD1181A0138704776
:1002F00001F0FF01102A2BDB10F0070F08D010F8D7
:10030000013B013A8B422DD010F0070F42B3F6D1DA
:10031000F0B441EA012141EA014122F007047FF0F3
:1003200000070023F0E80256083C85EA010586EA4A
:10033000010685FA47F5A3FA87F586FA47F6A5FA86
:1003400087F68EB9EED1F0BC01F0FF0102F0070292
:1003500032B110F8013B013A83EA010313B1F8D13D
:100360000020704701387047002D06BF354603381E
:10037000073815F0010F07D1013015F4807F02BF57
:10038000013015F4C03F0130F0BC0138704700BFA8
:1003900053B94AB9002908BF00281CBF4FF0FF31EC
:1003A0004FF0FF3000F074B9ADF1080C6DE904CEE8
:1003B00000F006F8DDF804E0DDE9022304B0704740
:1003C0002DE9F047089D04468E46002B4DD18A4208
:1003D000944669D9B2FA82F252B101FA02F3C2F13B
:1003E000200120FA01F10CFA02FC41EA030E9440CC
:1003F0004FEA1C48210CBEFBF8F61FFA8CF708FBED
:1004000016E341EA034306FB07F199420AD91CEBC4
:10041000030306F1FF3080F01F81994240F21C81F6
:10042000023E63445B1AA4B2B3FBF8F008FB10333E
:1004300044EA034400FB07F7A7420AD91CEB040473
:1004400000F1FF3380F00A81A74240F20781644443
:10045000023840EA0640E41B00261DB1D4400023C8
:10046000C5E900433146BDE8F0878B4209D9002D2C
:1004700000F0EF800026C5E9000130463146BDE8B6
:10048000F087B3FA83F6002E4AD18B4202D3824220
:1004900000F2F980841A61EB030301209E46002DCF
:1004A000E0D0C5E9004EDDE702B9FFDEB2FA82F224
:1004B000002A40F09280A1EB0C014FEA1C471FFA82
:1004C0008CFE0126200CB1FBF7F307FB131140EA69
:1004D00001410EFB03F0884208D91CEB010103F136
:1004E000FF3802D2884200F2CB804346091AA4B2F8
:1004F000B1FBF7F007FB101144EA01440EFB00FECC
:10050000A64508D91CEB040400F1FF3102D2A64530
:1005100000F2BB800846A4EB0E0440EA03409CE7CF
:10052000C6F12007B34022FA07FC4CEA030C20FA7C
:1005300007F401FA06F31C43F9404FEA1C4900FA9C
:1005400006F3B1FBF9F8200C1FFA8CFE09FB181119
:1005500040EA014108FB0EF0884202FA06F20BD98C
:100560001CEB010108F1FF3A80F08880884240F2DC
:100570008580A8F102086144091AA4B2B1FBF9F020
:1005800009FB101144EA014100FB0EFE8E4508D91B
:100590001CEB010100F1FF346CD28E456AD90238A0
:1005A000614440EA0840A0FB0294A1EB0E01A14285
:1005B000C846A64656D353D05DB1B3EB080261EBF3
:1005C0000E0101FA07F722FA06F3F1401F43C5E9CD
:1005D000007100263146BDE8F087C2F12003D84003
:1005E0000CFA02FC21FA03F3914001434FEA1C4745
:1005F0001FFA8CFEB3FBF7F007FB10360B0C43EA37
:10060000064300FB0EF69E4204FA02F408D91CEBE6
:10061000030300F1FF382FD29E422DD902386344E4
:100620009B1B89B2B3FBF7F607FB163341EA034184
:1006300006FB0EF38B4208D91CEB010106F1FF38D3
:1006400016D28B4214D9023E6144C91A46EA0046CA
:1006500038E72E46284605E70646E3E61846F8E65C
:100660004B45A9D2B9EB020864EB0C0E0138A3E7A5
:100670004646EAE7204694E74046D1E7D0467BE786
:10068000023B614432E7304609E76444023842E7FE
:10069000704700BFFEE7000009480A4A0A49121ADB
:1006A0001AF0DCFC09480A4A0021121A1AF0E4FC8C
:1006B00008F04CFA1AF09EFC01F02CFDFEE700BF9A
:1006C00000000024B407002454F20108B8070024F5
:1006D000107C0124034B1A1803EB80035B68107B2A
:1006E0005B681847E4090024064B1A5C42B90122F2
:1006F0001A541A1803EB8003107B5B681B681847B9
:1007000000207047E409002430B4054C251804EBA0
:10071000800460688468287BA44630BC604700BFC2
:10072000E409002430B4054C251804EB800460680B
:10073000C468287BA44630BC604700BFE40900249D
:10074000054B10B41C1803EB80035B68207B1B690E
:100750005DF8044B184700BFE409002400687047A7
:100760000B0A017043700B0C090E8370C170704747
:10077000024400F8011B9042FBD17047C369023963
:10078000023B8B4283BF4389006B01FB03000020C7
:1007900070470268490A836A52890433B1FBF2F157
:1007A000186830B1814202D3091A0833F8E7586853
:1007B00008447047C2F307238A76CB760378032B6D
:1007C00001BF120C0A75120A4A75704700F10B013D
:1007D0000022D30143EA520310F8012B52FA83F3AB
:1007E0008842DAB2F5D1104670470000036801462E
:1007F00010B553B11846024610F8014B1F2C10D902
:100800003A2CF8D1581C824202D04FF0FF3007E05A
:100810001B78303BD8B20128F7D8013218460A605D
:1008200010BD014B1878FBE7D407002438B50D46FE
:10083000044618B9092000232B6038BD0368002B3B
:10084000F8D01A78002AF5D08188DA889142F1D15F
:100850005878FFF73FFF10F00100EBD12368EBE77A
:100860002DE9F0410025D0F8008006460C468D7534
:100870008369002B59D0C36A01330AD001F11607EE
:10088000D8F80C3033F81500002850D12544002347
:10089000AB75F1690023A57D2E274E1E184616F86C
:1008A000012F0130202A26D0052A08BFE522092879
:1008B00007D104EB030C0DB98CF8167001338CF8DA
:1008C000097004EB030C8CF809209DB9A2F1410ECC
:1008D000BEF1190F0CD8082891F80C808CBF4FF08E
:1008E000100E4FF0080E18EA0E0F1CBF2032D2B2C5
:1008F0008CF8162001330B28D1D12DB9E21895754B
:100900000A7B002A08BF00232344002201F11C00B7
:100910005A72CB7A2372FFF721FF206001F1160093
:10092000FFF71CFFE080000CA080BDE8F0810021F3
:1009300001F08CFB30B10135B5F5807F02D007F8AE
:10094000010B9DE70025A1E701380A4411F8013B9E
:10095000914200F8013FF9D170472DE9F041466B13
:1009600000F1380804460123324641464078FFF73B
:10097000D9FE0546A8B9A36A226AF31AE070934229
:1009800002D2A778012F02D82846BDE8F081236A59
:1009900041466078013F1E4401233246FFF7C2FE04
:1009A000F0E70125F0E7C3780BB1FFF7D6BF184693
:1009B000704738B5436B05460C468B4210D0FFF7A5
:1009C000F2FF60B92246012305F138016878FFF78C
:1009D0009BFE00281CBF4FF0FF3401206C6338BD24
:1009E0000020FCE7002310B5C3704FF0FF3304462E
:1009F0004363FFF7DEFF034618BBB4F836124AF62E
:100A0000552291421FD194F83820E92A05D0A26BD3
:100A10000F4902F0FF128A4217D104F16E000D4A0D
:100A2000FFF79CFE20F07F40904208D002F14C522C
:100A300004F18A00FFF792FE904218BF0223184685
:100A400010BD0423FBE70323F9E70223F7E700BF08
:100A5000EB009000464154002DE9FF4100230F4672
:100A600015460B60FFF7C2FE061EC0F213818C4BC9
:100A700053F82640002C00F00F813C6005F0FE0585
:100A800023786BB16078FFF725FEC10708D41DB14C
:100A900010F0040500D00A25284604B0BDE8F08116
:100AA0000023F0B223706070FFF71EFEC20700F152
:100AB000F5800DB14307EED400212046FFF792FFE9
:100AC000022840F0CC806F4604F5FF7304F23E210B
:100AD0003A4613F8040C10B11846FFF73FFE1033E6
:100AE00042F8040B8B42F4D1002557F8046B002E1A
:100AF00000F0AC8031462046FFF774FF012800F279
:100B0000A680B4F84330B3F5007F40F0AC80B4F871
:100B10004E1021B904F15C00FFF720FE014694F865
:100B2000483021625A1EA370012A00F29C8094F87A
:100B300045506581002D00F096806A1E2A4240F0E3
:100B40009280B4F8498018F00F0FA4F8088040F0A4
:100B50008A80B4F84B0018B904F15800FFF7FEFD85
:100B6000B4F84670002F7ED001FB03FE07EB181C83
:100B7000F444604577D3A0EB0C02AA42B2FBF5F334
:100B800071D34FF6F572934271D840F6F575AB42CA
:100B90008CBF02250125023337440CEB0602032DDE
:100BA000E3616662A762226363D1B4F8622052EA0D
:100BB000080258D19B0004F16400FFF7CFFDE0620A
:100BC00003F2FF13B1EB532F4DD34FF0FF33032D3F
:100BD000C4E904334FF0800323712BD1B4F868309B
:100BE000012B27D1711C2046FFF7E3FE10BBB4F8A0
:100BF00036224AF6552320719A421BD1294B04F123
:100C00003800FFF7ABFD984214D103F1FF5304F510
:100C10000770FFF7A3FD03F500532033984209D175
:100C200004F50870FFF79AFD606104F50970FFF79D
:100C300095FD20611C4A257000251388A5610133AC
:100C40009BB21380E380194BE36025E70320013555
:100C5000042D7FF44AAF042805D101251CE70428A0
:100C6000FBD0012801D90D2516E7002649E7032509
:100C700091E7B8F1000FF6D0022D4FEA4302774416
:100C80001ABFD21803F001031346E76218BF03EB43
:100C9000520395E70B25FFE60C25FDE60325FBE651
:100CA000D807002452526141E0070024E2070024E3
:100CB00001292DE9F04706460C46174674D9C36949
:100CC0008B4271D90378022B40D0032B51D0012BDA
:100CD0006AD101EB5108816A01EB5821FFF769FEE7
:100CE000054640BB14F0010406F1380908F1010A79
:100CF000C8F3080808BFFBB230461FBF19F8083018
:100D000003F00F023B0103F0F00318BF134309F88F
:100D100008300123B16AF37001EB5A21FFF749FE55
:100D2000054640B9CAF3080A44B1C7F3071709F8E2
:100D30000A700123F3702846BDE8F08719F80A30DD
:100D4000C7F3032723F00F031F43F0E7816A01EB8A
:100D50001421FFF72EFE05460028ECD1640006F1B1
:100D6000380304F4FF741F551819C7F30727477099
:100D7000DFE7816A01EBD411FFF71BFE054600286F
:100D8000D9D1A40006F1380327F0704704F4FE74AB
:100D90001C442046FFF7E2FC00F0704047EA0001E7
:100DA0002046FFF7DDFCC4E70225C4E7F8B504469A
:100DB000FFF7F9FD0546002842D12378032B37D1F0
:100DC0002779012F34D104F13806552301464FF419
:100DD00000723046FFF7CCFC84F83632AA23412259
:100DE000722104F5087084F83732522384F83B20CE
:100DF00084F8383084F83930612384F81C1284F880
:100E00003A3084F81F3284F81D1284F81E2261697A
:100E1000FFF7A6FC216904F50970FFF7A1FC626ADF
:100E20003B463146013260786263FFF77BFC2571F7
:100E3000002260781146FFF783FC003818BF0120BC
:100E4000F8BD03284B8B04BF8A8A43EA0243184645
:100E500070470129F8B506460C464ED9C369994238
:100E60004BD20378022B29D0032B34D0012B44D151
:100E700001EB5105816A01EB5521FFF79AFD10B195
:100E80004FF0FF30F8BD6F1CC5F30805B16A30465E
:100E9000354401EB572195F83850FFF78AFD0028BB
:100EA000EED1C7F30807E3073E4496F8380045EA59
:100EB00000204CBF0009C0F30B00E3E7816A01EB9F
:100EC0001421FFF776FD0028DAD1640004F4FF74E2
:100ED0002644308FD6E7816A01EBD411FFF769FD14
:100EE0000028CDD1A40006F1380004F4FE7420449B
:100EF000FFF734FC20F07040C4E70120C2E773B56F
:100F00000C46064611460568012C2CD9EB69A34214
:100F100029D92AB14FF0FF322846FFF7C9FE40B960
:100F2000214630680194FFF794FF0199044610B9F7
:100F3000002002B070BD012815D0431C15D000223E
:100F40002846FFF7B5FE0028F3D1EA696B69911EC8
:100F50008B4205D201336B612B7943F001032B7176
:100F6000A242DDD8E4E70220E3E70120E1E72DE932
:100F7000F041804605680F4671B92E69EEB1EB6904
:100F8000B34298BF012634460134EB69A34217D817
:100F9000012E14D8002406E02846FFF75AFF012846
:100FA000044603D801242046BDE8F081431C30D01C
:100FB000EB698342F7D83E46E5E70126E3E70224E2
:100FC0002146D8F80000FFF744FF30B10128E9D0EE
:100FD00001301ED0B442D7D1DCE74FF0FF322146BA
:100FE0002846FFF765FE90B957B9EA696B69023A7E
:100FF0002C61934210D92B7943F001032B71D2E776
:10100000224639462846FFF753FE0028EDD0012836
:10101000C8D14FF0FF34C6E7013B6B61EBE7B1F598
:10102000001FF8B506460C4601D30220F8BDCA06DB
:10103000FBD1826805680161CAB92B78022B01D9FE
:10104000EB6A9BB92B89B3EB541FEED9EB6AB36102
:10105000B3697261002BE8D003EB54233835C4F335
:1010600008040020B3612C44F461DFE71A466F895D
:101070007F02BC42114604D22846FFF77FFBB061D5
:10108000E6E73068FFF7E5FE431C024606D001287C
:10109000CBD9EB698342C8D9E41BEAE70120C5E755
:1010A00003692DE9F04703F12008836905468A4664
:1010B00093B1B8F5001F0FD2C8F308090468B9F15D
:1010C000000F4DD101334169836139B92389B3EBF5
:1010D000581F45D80023AB6104200BE06789013F0E
:1010E00017EA58273CD12046FFF7B3FE01280646F1
:1010F00002D80220BDE8F087421C01D10120F9E7A7
:10110000E369834226D8BAF1000FE3D06969284623
:10111000FFF72DFF0646002835D00128E9D0431CF3
:10112000ECD02046FFF73FFC01460028E6D104F151
:1011300038004FF400724FF0010AFFF719FB3146F7
:101140002046FFF71BFB606363899F420FD3636BED
:10115000DB1B6363314620466E61FFF70FFBA8611E
:1011600038340020C5F810804C44EC61C2E72046BA
:1011700084F803A0FFF7F1FB0028BFD1636B0137B0
:1011800001336363E0E70720B4E700002DE9F04F87
:10119000002185B00446D0F800B0FFF740FF0646B6
:1011A000002840F098804FF0FF084FF0FF3AC1460A
:1011B000C4F82CA0A1695846FFF7FBFB064600289F
:1011C00040F08980E5692F78002F00F08880EA7A66
:1011D000E52F02F03F03A37103D0100704D50F2BB6
:1011E00004D0C4F82CA050E00F2B56D194F82B302B
:1011F000590640D47A0646D5236907F0BF0795F80B
:101200000D80E3626B7B43453FD16B8B002B3CD160
:101210002E780122DBF80C3006F03F06DFF8C8908C
:1012200000930D23013E5E4319F8013BEB5A7AB35C
:10123000FE2E2AD81846039300F026FF009B711C4F
:10124000029033F81600019100F01EFF029A8242CC
:101250001BD1039B01991A460E46224B9945E3D1B7
:101260002B785B0604D51AB1009B33F8163063B9AE
:10127000013F5FFA87F900212046FFF711FF06467C
:10128000002897D027E0B945BCD04FF0FF09F2E71E
:101290004FF6FF718B42E0D0F7E7B9F1000F04D1B0
:1012A0002846FFF793FA404515D094F82B6016F0C6
:1012B000010696D104F1200205F10B0115F8013B5E
:1012C00012F8010B8D42A3EB000302D0002BF5D0E6
:1012D00087E7002B85D1304605B0BDE8F08F0426A6
:1012E000F9E700BF51E0010844E001082DE9F04FA3
:1012F00090F82B5089B0044615F0A00540F08E8080
:101300000668F26832F81530002B66D104F1200728
:101310000C2205A83946FFF717FB9DF81F30DB07A5
:1013200040F1858040234FF0010ADFF8348284F8D1
:101330002B300B2205A93846D6F80C90FFF704FB9A
:10134000BAF1050F59D9A9F10201534631F8022F1C
:10135000002A44D10DF11300072203F00F0C013ACB
:101360000CF13001392988BF0CF137010F2B00F83F
:1013700001194FEA131142D802F120037E216B4478
:1013800003F8141C394600239A4205D011F8010BCA
:1013900003F1010C202834D104F11F00072A03F1C6
:1013A000010397BF02F1200120210132694498BF57
:1013B00011F8141C072BC154F0D92046FFF7E6FEA4
:1013C000814670BB0AF1010ABAF1640FB1D14FF046
:1013D0000709484609B0BDE8F08F013592E71020B3
:1013E00002F0010C52080CEB430313F4803F18BFCA
:1013F00083EA08030138F3D1A8E75346AAE70B466E
:10140000ABE76346C0E7804601212046FFF748FE70
:10141000814608B3B9F1040FD9D0DAE74FF00609D5
:10142000D7E70428D5D19DF81F3084F82B309DF8DC
:101430001F3000212046D4F800A09B0745BF0C3583
:101440000D230125B5FBF3F548BF0135FFF7E7FD97
:1014500081460028DED18046A1695046FFF7A9FAEF
:1014600081460028D6D1E3691B78E52B01D0002BFB
:10147000C9D108F101084545C6D1013D55D02169C2
:101480002046A1EB4511FFF7CAFD81460028A0D1F7
:101490004FF6FF783846FFF799F90190A169304679
:1014A000FFF787FA8146002893D1E369E9B2019AF0
:1014B0004FF00D0CD6F80CE05A734FF00F02DFF826
:1014C000A4A0DA724A1E18730CFB02F284469876C6
:1014D000D87640451AF8019B0CF1010C18BF3EF874
:1014E000120003EB090B18BF013203F809004FEAA1
:1014F0001029002808BF4046BCF10D0F8BF8019061
:10150000E7D1404502D03EF812200AB941F040012F
:101510001970012300212046F370FFF7C1FD8146B9
:1015200000287FF456AF013DB8D1A1693046FFF7DE
:1015300040FA814600287FF44CAF01462022E06942
:10154000FFF716F90B223946E069FFF7FDF994F829
:101550002B30E26903F0180313730123F37038E7AB
:101560002110010044E001082DE9F843FF27064659
:10157000D0F8008004253C464FF6FF79B16911B9D7
:10158000002D5FD04FE04046FFF713FA05460028D4
:1015900049D1F0690378002B5CD0C27AE52B02F0C8
:1015A0003F02B27144D02E2B42D022F020010829F4
:1015B0003ED00F2A41D1590638D503F0BF04336914
:1015C000477BF362437BBB4232D1428B82BB0378C1
:1015D0000D21D8F80C504FF0010E23F04003DFF836
:1015E00078C0013B4B431CF8011B415ABEF1000F70
:1015F00020D0FE2B1CD825F813108E460133013263
:101600000D2AF0D10278520604D5FE2B10D8002204
:1016100025F81320013CE4B200213046FFF740FDDD
:1016200005460028AAD00023B3610CE0A342C9D02C
:10163000FF24F1E74945E2D0FAE73CB9FFF7C6F8E5
:10164000B84203D100252846BDE8F8834FF0FF33A8
:10165000F362F8E70425E6E744E001082DE9F74FD7
:101660000B7805468846D0F800B02F2B01D05C2BB4
:1016700009D142461378904601322F2BFAD05C2BC9
:10168000F8D0002301E0DBF81830AB6098F80030A8
:101690001F2B00F2D88080230021284685F82B30AC
:1016A00003B0BDE8F04FFFF7BABC0134DEE0B4F59B
:1016B000807F00930CD0012100F0C8FC40B17F284E
:1016C000009B07D88F4911F8012B1AB18242FAD139
:1016D000062005E126462AF8020FBDE0022E04D1BD
:1016E000B9F802302E2B00F0D1805EBB002329F820
:1016F0001630002EECD020210B226818FFF738F8A6
:10170000194639F81130202B24D02E2B22D009B1C4
:1017100044F0030437F816302E2B01D0013EF9D1E6
:1017200000234FF0080A1F4639F811004A1C10B375
:10173000202803D02E280FD1964211D044F0030464
:101740001146F1E737F81630202B01D02E2BCDD1E2
:10175000013ECAE70131D4E7534505D296423AD15A
:10176000BAF10B0F30D102E0BAF10B0F27D144F0E0
:1017700003044FF00B0A95F82030E52B04BF052336
:1017800085F82030BAF1080F04BFBF00FFB207F0A0
:101790000C030C2B03D007F00302032A01D144F001
:1017A0000204A00700F1878007F00307012F08BF9C
:1017B00044F01004042B08BF44F008047BE0964278
:1017C00002D044F00304D6D3BF0032464FF00B0AD8
:1017D0000823FFB2B4E77F280ED9002144F00204A9
:1017E000CDE9002300F032FCDDE9002360B1464979
:1017F000084410F8800C38B1DFF810C11CF8011B48
:10180000002972D08142F9D144F003045F20E91825
:10181000013381F8200093E747F00207F7E7002A39
:1018200008BF05205CE05A075AD4AB79DB065AD5CD
:1018300029690BF138039BF80000C1F30801194432
:10184000FFF7FFFAA8602B680026D3F80C9008F188
:10185000FF33A9F10207BA4613F8010F741C1F28C1
:101860000CD92F2802D05C287FF421AF18F804305F
:101870002F2B3FF41AAF5C2B3FF417AF2028A04466
:1018800034BF04240024012E7FF428AFB9F80030BF
:101890002E2B7FF42AAF002305F1200229F8163001
:1018A0009E428CBF2E21202101330B2B02F8011BFD
:1018B000F6D144F02004284685F82B40FFF766FC5B
:1018C00095F82B300028AED0042809D1990603F0F2
:1018D0000402A4D5002AB6D08023002085F82B303E
:1018E00003B0BDE8F08F0520FAE7A0F14101192906
:1018F00092D9A0F1610119299EBF203847F0010754
:1019000080B284E7B4DF0108C4DF0108BDDF01084D
:101910001FB5CDE9001003A814460391FEF766FF3A
:10192000031E15DB0C4A52F8231009B10020087081
:10193000019808B10021017042F8230030B1012C58
:1019400008D1002201A96846FFF786F804B010BD4F
:101950000B20FBE70020F9E7D80700242DE9F04130
:1019600090B0174604460191002800F0D48002F0A0
:101970003F0603A901A83246FFF76EF80546002886
:101980004FD1039B04A801990493FFF767FE20B988
:101990009DF93B30002BB8BF062017F01C0F00F05C
:1019A0009A80002844D004283BD104A8FFF79EFC6D
:1019B000002836D146F0080606F02EFE01460090BB
:1019C00020220B980E30FEF7CBFE0B9800991630B4
:1019D000FEF7C6FE0B9BDDF80C80DA720B9998F8C7
:1019E0000000FFF72EFA002207464046FEF7E2FE0F
:1019F0000B9B002201211A775A779A77DA77039B9B
:101A0000D970F7B1394604A8D3F83480FFF777FAD4
:101A100038B941460398FEF7CCFF013F039B1F6195
:101A200078B1002305462360284610B0BDE8F08158
:101A30009DF8163013F0110F57D1780765D4390788
:101A4000BAD4039F31070B997B6B48BF46F0400621
:101A5000616223623878FFF7F4F9A06001F11C009D
:101A60000021FEF77BFEFB88276004F12C074FF472
:101A70000072E060A1623846A38026746174E1615F
:101A80006161FEF775FEB206CED5D4F80C80B8F1D0
:101A9000000FC9D0039BA1685E89C4F81480760248
:101AA000464524D30020A1610028BAD1C8F3080319
:101AB000002BB9D0039E3046FEF760FE48B300EB22
:101AC000582201233946E2617078FEF71DFE002896
:101AD000AAD00120A5E70028A3D19DF81630DA0688
:101AE00015D4BF07ADD5D807ABD5072099E7206837
:101AF000A8EB0608FFF7ADF90128014603D9431CFE
:101B0000CED10120CFE70220CDE7082089E70420CD
:101B100087E7022085E7092586E72DE9F04F87B0A2
:101B200016468946044601930023019A05A91360CD
:101B3000FEF77CFE054618BB657C0DBB237C13F0CD
:101B40000103029300F09980E26804F12C0A6369B2
:101B5000D21A964228BF164696B16169C1F30803AE
:101B6000002B7CD1059BB3F80A8008F1FF3818EAF6
:101B700051281BD141B9A068012810D802256574ED
:101B8000284607B0BDE8F08FA36A1BB12046FEF7D8
:101B900000FEF1E7A1692068FFF75BF9ECE7431C61
:101BA00003D10123029D6374EAE7A061DDF814B05C
:101BB000A1695846FEF7E2FD0028DFD0B6F5007FA8
:101BC00008EB00072ED3BBF80A2008EB5621730A56
:101BD0009BF801009142494688BFA2EB08033A46B0
:101BE0000393FEF791FD0028DBD194F91020039BAD
:101BF000002A0BDAE069C01B984207D24FF400724A
:101C0000514609EB4020FEF79FFE039B5F0263698C
:101C1000B944019AF61B3B446361019B1B683B443A
:101C2000136099E7E269BA4218D094F91030002B9A
:101C30000BDA012351469BF80100FEF773FD0028E3
:101C4000AFD1237C03F07F032374059801233A4628
:101C500051464078FEF758FD0028A2D1E76161693E
:101C60004846C1F30801C1F500775144B74228BF87
:101C700037463A46FEF768FEC9E7072580E7F7B51D
:101C800001A90546FEF7D2FD044600283BD12B7C76
:101C900013F0400437D01B060CD501980123EA69E4
:101CA00005F12C014078FEF73DFD78BB2B7C03F05D
:101CB0007F032B7406F0B0FC296A07460198FEF7F3
:101CC00078FE0446F8B96E6AF37A314643F0200391
:101CD000F372AA682868FEF76DFDE96806F11C003A
:101CE000FEF73EFD394606F11600FEF739FD0123E9
:101CF0000198B474F474C370FFF758F82B7C044651
:101D000023F040032B74204603B0F0BD0124FAE712
:101D100013B50446FFF7B3FF28B901A92046FEF723
:101D200085FD00B9206002B010BD2DE9F04F85B0EF
:101D30000D46044603A9FEF779FD0646E8B9667C20
:101D4000DEB9A36A002B7BD06A1C39D11D46D4F8BA
:101D50000880022755F804BBB8F1000F28D0404690
:101D60004FF0000A0146814620680AF1010AFFF798
:101D700070F8012807D802266674304605B0BDE821
:101D8000F08F8046EBE7431C01D10126F4E709F10F
:101D900001098145E6D00237BB4521BF2B4643F8F8
:101DA00008ABC5F804801D46039BDB698342E8D875
:101DB000A36A5F451F6000F2C38000232B60DCE74D
:101DC000E768AF4228BF2F466761002FD5D07D1E40
:101DD00020462946FEF7DDFCDDF80C800146A061B7
:101DE0004046FEF7CBFC0028C5D0C7F30807002FFC
:101DF000C3D0B8F80A10E269013901EA55210D187B
:101E0000AA42BAD094F9103004F12C01002B0CDA5C
:101E1000012398F801000191FEF784FC0028B4D159
:101E2000237C019903F07F032374039801232A463E
:101E30004078FEF769FC06460028A6D1E5619CE7DC
:101E4000E368AB4204D2227C12F0020F08BF1D46A9
:101E5000002263696261EDB90025E268636993421B
:101E600084BF227CE360C3F3080384BF42F04002D6
:101E70002274002B81D0E269AA423FF47EAF94F92C
:101E8000103004F12C01002BCFDA039801230191CB
:101E90004078C1E7039A57897F020BB3013B6A1E62
:101EA000B3FBF7F1B2FBF7F28A4219D37A42A16988
:101EB0001340ED1A63610029CED0BD4263691ED87C
:101EC00063692B446361C5F30803002BC4D00398F6
:101ED000FEF754FC00283FF44EAF00EB5525BCE75D
:101EE000A16851B92046FFF742F8012801463FF4A6
:101EF00042AF481C3FF449AFA160A161DBE73B441E
:101F0000A5EB07086361237C9A0706D52046FFF7F7
:101F10002EF8054628B90146D2E72068FEF799FF5A
:101F200005466B1C3FF431AF012D7FF624AF039BB8
:101F3000DB69AB427FF61FAF2946A5614546BCE78A
:101F400011261AE71FB50446019150B3002203A9D8
:101F500001A8FEF781FD70B9039B2046019923601B
:101F6000FFF77CFBF8B994F92B30002B0CDBA3793D
:101F7000DB0603D405200023236010E0039BE16906
:101F80001878FEF75EFFA060039B00212046DB88E7
:101F9000A380FFF744F80428ECD00028EBD104B06C
:101FA00010BD0920FBE70428E4D0E4E713B501A93C
:101FB0000446FEF73BFC00B9206002B010BD73B5CB
:101FC0000D4601A90446FEF731FC20B92DB90146A2
:101FD0002046FFF724F802B070BD2046FFF7C4FA90
:101FE00010F0FB06F7D129462046FEF739FC3146B2
:101FF0002046FFF755F8042808BF0020EBE7000053
:102000000F4B30B59C7B012C17D89D7B0024EDB283
:102010005C559D7B03EB85056860987B18440273D3
:102020009A7B501C3032C0B298733A2320460A7013
:102030004B702F23CC708B7030BD0120FCE700BFAC
:10204000E40900240022FFF7DBBF00007F2810B561
:1020500006D931B1FF2812D880380A4B33F8100066
:1020600010BD084A32F8024B8BB2844203D00131D2
:102070008029F7D10B4603F18000C0B2F0E70020C1
:10208000EEE700BF52E001081E4B1F4AB0F5805F2B
:1020900028BF134670B5191D31F8043C0A46ABB190
:1020A000984213D331F8024C250AE6B253FA84F46D
:1020B000A04221DA082D09D8DFE805F005090F1143
:1020C000131517191B00C01A31F8100070BDC31A80
:1020D00003F00103C01A80B2F8E71038FBE720389C
:1020E000F9E73038F7E71A38F5E70830F3E7503802
:1020F000F1E7A0F5E350EEE70431002DCCD102EB7F
:102100004603C8E752E1010844E3010870477047FD
:102110007047000010B5144C0021204601F0B2FDBC
:1021200000219FED120A124801F0BAFB012003F0D2
:102130005BFA104803F04AFAB7EE000A04F1D8003F
:1021400003F0CCFA20460C4C01F0FCFC0B4A204674
:102150000B4900F0FFFD06210A4800F0CFF92046A8
:1021600001F050F8002010BD908C002400803B4707
:10217000701F012400E40108F8090024B00600C023
:10218000B00600C1808C0024F8B5244E0025244CF4
:10219000244A3046244917F0DBF804F5C070256066
:1021A00065612562E56303F055FA204B2046204F18
:1021B000C4F8383240F20F731A4AA4F83C3204F5DE
:1021C00014731C49C4F8403240F20113C4F8905112
:1021D000C4F84C52C4E9913517F0BAF8384601F00A
:1021E00031FB104A1449384617F0B2F8134B144823
:1021F000311D1E6006F284468360DE600582094A56
:10220000C3E901140F49104B0C6018600F49C0E975
:102210000044BDE8F84017F09BB800BF000000C0C4
:10222000908C0024000000240D2100080080707FA5
:10223000701F01240F210008113A0008808C00242F
:10224000F8090024F40900243C220124112100088B
:102250007FB5032301260024054601A900688DF8F7
:102260000C40CDE9013605F025F970B931466868B2
:1022700006F0AEF96868324605490430FFF748FBBE
:10228000B0FA80F0400904B070BD2046FBE700BF03
:102290000CE4010870B54168D2B0254D002401F26C
:1022A000744168462C80FFF74DFE00283DD10CA9F3
:1022B0006846FFF784FE78BB9DF8463063B32C88F0
:1022C0001F2C29D89DF8383013F0120FEFD10222BD
:1022D00018490DF1460019F093FC0028E7D0164983
:1022E0000DF1460019F0B3FC30B914490DF1460068
:1022F00019F0ADFC0028DAD01148A6013F220DF1FB
:10230000460100EB84102E4419F08EFC01340023AA
:102310002C8086F84130CAE76846FFF747FE2888D8
:10232000003818BF012052B070BD2046FBE700BF47
:10233000000000200EE4010811E4010816E4010881
:102340000200002010B58CB004462C2208466B46D3
:1023500001A9FFF7E2FB00283ED1009B2C2B39D1CD
:102360001E4B019A9A4235D1A3F57003039AA3F24A
:10237000FB739A422ED103F15B43049A03F5F113E8
:1023800003F60F439A4225D103F182430A9AA3F63A
:1023900002439A421ED1124A079B0B99C2F8043895
:1023A000BDF81A30C2F80818A2F80C38BDF926306A
:1023B000E068A2F80E38002BB8BF0733DB10B1FB82
:1023C000F3F392F81418C2F81038FFF7AEFCB0FA25
:1023D00080F040090CB010BD0020FBE75249464692
:1023E000000000202DE9F34107464FF400400E465F
:1023F000002516F0B4FF0446F8684269C3689A42A3
:1024000048D0B54246D2731BDFF89C802146B3F515
:10241000804FB8F90C2828BF4FF480435A4301ABD2
:102420005200FFF77AFB034630B1204616F095FFC5
:10243000002002B0BDE8F081B8F90C084200019814
:10244000B0FBF2F0164A1168164A01EB450112681A
:1024500002EB450283421BD0B8F90CC802310232AC
:10246000BCF1010F17BF34F923C034F913C022F8AF
:1024700002CC04F1020C0CBF21F802CC3CF923C0C1
:1024800003F101030CBF22F802CC21F802CCE1E7F2
:102490001D44B1E7204616F060FF0120C9E700BFE8
:1024A000302201243422012400000020104B4FF080
:1024B0008072002110B50446186818F0DDFD0D4B40
:1024C0004FF080720021186818F0D6FD0A4BB3F95E
:1024D0000C28D3F81018B1FBF2F1B1F5000F04D8B5
:1024E0002046BDE81040FFF77DBF002010BD00BFB3
:1024F00034220124302201240000002070B5174E40
:1025000004460D4633888B4225D3B6F816388B42E5
:1025100002D0C068FFF7FCFB11490122E06801EB23
:102520008511FFF71BFAB0B9E1682046FFF70AFFF3
:1025300070B1B6F90E38102B0AD1D6F804284BF634
:1025400080339A4204D12046BDE87040FFF7AEBF09
:10255000E068FFF7DDFB002070BD00BF0000002039
:1025600002000020024B1960024B1A60704700BF46
:10257000342201243022012470470000084A1368E5
:1025800083EA433383EA534383EA431307EE903AE3
:102590001360B8EE670ADFED037A20EE270A704772
:1025A0002C2201240000802F2DE9F8431E4C074601
:1025B0000E4615464FF00008A260C4E90001DFF89E
:1025C000789009EB080008F1300800F047FEB8F5F4
:1025D000707FF4D1154B02221F60154B1E60154B06
:1025E0001D600023C4E9F3324FF49652C4E9F52389
:1025F0000123C4F8DC334FF07E53C4F8E0334FF0CE
:102600007C53C4F8E4330023C4F8E833C4F8EC3353
:10261000C4F8F033C4F8F433C4F8F833C4F8FC3326
:10262000C9F8F433BDE8F8831808002050220124CB
:102630004C2201244822012424080020014BC3F825
:10264000D013704718080020014BC3F8CC13704713
:10265000180800209FED0D7ADFED0D6AF0EE477A45
:102660000C4BE0EE267AC7FE877A9FED0B7AC7FE09
:10267000C77A9FED0A7A67EE877A9FED097A67EE4F
:10268000877AFCEEE77AC3EDF57A70470000C8421E
:10269000004035451808002000803B456F12833A02
:1026A00000803B47064A9368013B07EE903AF8EEFC
:1026B000677A27EE800ABCEEC00A82EDF60A704700
:1026C00018080020B7EE007A094BF3EE036AF0EE2B
:1026D000477AE0EE267AC7FE877AB3EE047AC7FE21
:1026E000C77AF8FE677AFCEEE77AC3EDF77A7047AF
:1026F00018080020B6EE007A074BF7EE086AF0EEF5
:10270000477AE0EE267AC7FE877AB0EE007AC7FEF7
:10271000C77AC3EDF87A704718080020014B83EDA3
:10272000F90A70471808002010B56D4CD4EDFA7AFC
:10273000F5EEC07AF1EE10FA35DDFFF71FFFF7EE88
:10274000007A94EDFA7A20EE000A77EEC76A37EE47
:10275000277AF0EE667A37EE666AE0EE067A9FED4B
:10276000616AC7FEA67A87FEC77AD4EDF57AF8EEDD
:10277000676ADFED5D7A66EEA76AC6EE867A67EE77
:10278000877A9FED5A7AC7FE877A9FED597AC7FEFE
:10279000C77A9FED587A67EE877A67EE867AFCEE05
:1027A000E77AC4EDF57AD4EDFB7AF5EEC07AF1EE76
:1027B00010FA1EDDFFF7E2FEBFEE007AF0EE006ACF
:1027C000D4F8D833A268F0EE477AE0EE267AC7FE56
:1027D000877AB7EE007AC7FEC77A94EDFB7A67EE88
:1027E000877AFCEEE77A17EE901A02FB0133C4F801
:1027F000D833D4EDFE7AF5EEC07AF1EE10FA1DDD95
:10280000FFF7BCFE94EDFE7A37EE076AF0EE477AEA
:10281000F1EE476AD0EE067AC7FEA67AC7FEC77AFF
:1028200094EDF97A77EE877A9FED337AC7FE877A4F
:10283000B7EE007AC7FEC77AC4EDF97AD4EDFD7A17
:10284000F5EEC07AF1EE10FA23DDFFF797FEB7EE52
:10285000007AD4EDFD7A20EE000A77EE676A37EE53
:10286000877AF0EE667A37EE666AE0EE067AC7FEA1
:10287000A67AC7FEC77A94EDF87A67EE877AB6EE45
:10288000007AC7FE877AB0EE087AC7FEC77AC4ED31
:10289000F87AD4EDFC7AF5EEC07AF1EE10FA1EDD8E
:1028A000FFF76CFEF7EE007A94EDFC7A20EE000A5A
:1028B000D4F8DC3377EEC76A37EE277AF0EE667A23
:1028C00037EE666AE0EE067AC7FEA67AC7FEC77ADA
:1028D000FCEEE77A17EE902A5A43C4F8DC2310BDC9
:1028E0001808002000803B4700007A440000C842DE
:1028F00000803B456F12833A0000000070B50F4C1A
:1029000014230022D4F8DC1304F10C052E782EB128
:102910000132013B05F13005F8D170BD9142F8D983
:10292000FFF702FFD4EDF90A94EDF80A2846D4E93E
:10293000F521BDE8704000F0ADBC00BF18080020D4
:102940002DE9F347804699460D46144600274F452A
:102950001CD040464FF0140AFFF7D0FF0D4E002365
:1029600000930193337823B101AA6946304600F001
:1029700001FDBAF1010A06F13006F3D1009B0137DF
:1029800045F8043B019B44F8043BE0E702B0BDE896
:10299000F08700BF240800200E4B142000220021E5
:1029A000013803F1300303F8302C43F82C1C43F8B2
:1029B000281C4FF0010143F8242C03F81C2C4FF085
:1029C000020243F8201C43F8042CE7D1024A0349D1
:1029D00016F0BEBC24080020000000247925000861
:1029E000704770477047000010B5837A0446FF2B8C
:1029F0000AD105F0C3FE07EE900AB8EE670AD4EDDF
:102A0000037A30EE670A10BD9FED010AFBE700BFB5
:102A100000000000054B1A68012A05D0032A00D0E7
:102A20000AB901221A6070470222FBE71C0C002041
:102A3000064A1368012B03DC002B06DB032303E0AB
:102A4000023B012B01D80023136070471C0C0020AF
:102A5000054A064B50681B880144194491FBF3F06A
:102A600003FB1011516070471C0C00200000002077
:102A7000094B9A68062A07D8DFE802F00406070621
:102A800009060B0002229A6070470422FBE7062227
:102A9000F9E70022F7E700BF1C0C0020034B1B687E
:102AA000022B01D1FFF7E4BF704700BF1C0C0020D0
:102AB000034A9368052BDCBF83F0010393607047E2
:102AC0001C0C0020034B1B68022B01D1FFF7F0BF49
:102AD000704700BF1C0C0020064B9A68062A02DDD6
:102AE000DA689A6070470029DA6014BF072208226A
:102AF000F7E700BF1C0C0020034B1B68022B02D120
:102B00000121FFF7E9BF70471C0C0020034B1B6835
:102B1000022B02D10021FFF7DFBF70471C0C002001
:102B20000A4B1A680A4B10B5044619688068FFF70B
:102B300019FDA068FFF78CFB38B1064802F046FD8E
:102B4000A068BDE81040FFF7A5BB10BD38220124E6
:102B5000402201241BE40108054BB3F90820DB687F
:102B6000B3FBF2F2034B1968034B1868FFF71CBD67
:102B700004080020382201244022012408B5084B13
:102B80004FF080720021186818F076FA054B4FF06C
:102B9000807200211868BDE8084018F06DBA00BFC7
:102BA000402201243822012410B5054C00238068FE
:102BB000A1882361FFF7A2FC08B90423236010BD9C
:102BC0001C0C0020134B1B68013B10B50446032B63
:102BD0001ED8DFE803F0060A020EBDE81040FFF73A
:102BE000CDBFBDE81040FFF7DFBFBDE81040FFF7E5
:102BF000B3BF0068B7EE000AD83002F06DFD206860
:102C0000B7EE000A00F59670BDE8104002F064BD12
:102C100010BD00BF1C0C002070B504462F4D00688D
:102C20002E682DED028B00F07DFF236893F8523063
:102C3000FF2B02D12046FFF7EDFE20689FED288A8A
:102C40004830FFF7D1FEB4EEC80AF1EE10FA02DD0B
:102C50002046FFF7EDFE236893F8BA30FF2B02D130
:102C60002046FFF71BFF236893F8CA30FF2B02D1E1
:102C70002046FFF727FF2B68022B17D12068B030C2
:102C8000FFF7B2FEB4EEC80AF1EE10FA02DD2046FC
:102C9000FFF732FF2068C030FFF7A6FEB4EEC80A87
:102CA000F1EE10FA02DD2046FFF730FF236893F8BB
:102CB000442032B1596E21B12B6813B92046FFF779
:102CC000C7FE2B68B34206D02046BDEC028BBDE8A0
:102CD0007040FFF777BFBDEC028B70BD1C0C00206D
:102CE00000007A4410B50F4C006800F015FF04F1A5
:102CF000140000F005FC9FED0C0A04F1540000F0F4
:102D00001FFD0A4B0122E365094B84F8A420A3654B
:102D10000023C4F8A030C4F898304FF07E53C4F8B4
:102D20009C3010BD1C0C002000803B4700409C469E
:102D30003333333F064A072302F11C014FF07C5026
:102D4000013B42F8040B41F8040BF7D1704700BF78
:102D5000C40C0020174B10B519600446164B042113
:102D600000681A6000F0ACFE2068032100F0BEFE8F
:102D7000124B002220461A60FFF7D2FE28B92068C5
:102D8000B7EE000AD83002F0A7FC2046FFF7AAFFF2
:102D90002046FFF7CFFF002018F070FF084B1860A7
:102DA000206800F0BBFE20680649BDE8104000F036
:102DB00085BE00BF40220124382201241C0C0020C3
:102DC0002C220124892F0008002310B593420AD039
:102DD0004868002400EB83000460086800EB83006F
:102DE00001330460F2E710BD1B481C4B2DE9F04194
:102DF0001B4D002406681B48D3F80CC0B3F908E04B
:102E0000076820462B69904221D0BCFBFEF898450C
:102E10001BD936F91380DFED146A07EE108A37F9F3
:102E200013800C680133B8EEC77A07EE908A04EB82
:102E30008004F8EEE77A27EE267A67EEA67A84ED2C
:102E4000007A4C68C4ED017A01240130DBE704B15B
:102E50002B61BDE8F08100BF40220124040800205E
:102E60001C0C002038220124000000382DE9F0411C
:102E70001D4800251D4C1E4FD0F800E0D4F800C0BE
:102E80002C4638689C422AD00D68166805EB8405EC
:102E900006EB8406D5F80080C6F800804E6806EB85
:102EA0008406D6ED007A566806EB84060134C6ED3A
:102EB000007AFDEEE77A95ED007ABDEEC77A17EE5F
:102EC000105A2EF8105017EE905A2CF8105001306E
:102ED000084DB0FBF5F605FB16000125D2E705B15C
:102EE0003860BDE8F08100BF40220124382201246F
:102EF0004422012400F22B0037B50C461546134638
:102F00000430D1E90012FFF71BFD236807481A4679
:102F10001946009500F0F6FB636804481A46194606
:102F2000009500F0EFFB03B030BD00BF300C002077
:102F3000F0B4134F14461D463E68022E18D0032EDF
:102F400013D0012E19D10F4AB2F90810D3683A698B
:102F5000B3FBF1F3013B214693422A4602D8F0BC71
:102F6000FFF732BFF0BCFFF73FBFF0BCFFF77EBFFB
:102F700021461A46F0BCFFF7BFBF1A462146EEE7CE
:102F80001C0C00200408002013460A460146024893
:102F90000068FFF7CDBF00BF3C22012408293DD8BF
:102FA000DFE801F0052108250E270B3C290004303D
:102FB000FFF750BB0430FFF79DBB0430FFF7AEBBFB
:102FC000DFED176AB1EE007A0430F0EE667AE0EEDB
:102FD000077AC7FEA67AC7FEC77AFDEEE77A17EE34
:102FE000901AFFF731BB0F4B83ED000A70470E4B71
:102FF000FAE70E4BF8E7B3EE047ADFED0D6A20EE48
:10300000000A0C4BF0EE477AE0EE267AC7FE877A8C
:103010009FED097AC7FEC77AC3ED177A704700BFE4
:1030200000000000000C00200C0C0020180C0020F8
:1030300000A09B451C0C002000409C4510B5044698
:103040002DED028BB0EE408A082911D8DFE801F09F
:10305000052A082C132E0D1030000430FFF722FB38
:10306000B0EE480A201DFFF72DFB264B83ED008AAA
:10307000BDEC028B10BDDFED246AB1EE007A0430A6
:10308000F0EE667ABDEC028BE0EE077AC7FEA67A18
:10309000C7FEC77AFDEEE77ABDE8104017EE901A3A
:1030A000FFF7CCBA194BE1E7194BDFE7194BDDE726
:1030B00020EE008A9FED180A9FED187AF0EE407A14
:1030C000E8EE077A9FED167AC7FE807AC7FEC77AC8
:1030D000F4EEC77A9FED130AF1EE10FA58BFF0EE46
:1030E000477A27EE800A16F063FAF7EE007A0E4B65
:1030F00083ED260A30EE270A87EE807A83ED277A61
:10310000B6E700BF100C002000000000040C0020F7
:10311000080C0020140C00206F12833AB7F3FD3E18
:10312000C976FE3EDB0F49401C0C0020F8B5314D3E
:1031300004462B68022B2DED048B52D100689FEDC5
:103140002E9A6830AE6802F009F9B4EEC90AF1EEC1
:1031500010FA49D9DFED297AB4EE670AF7EE007A62
:10316000F1EE10FA67FE808A2068883002F0F6F8E7
:10317000B4EEC90AF1EE10FA39D9DFED207AB4EED7
:10318000670AF7EE007AF1EE10FA27FE808AB700A0
:1031900005EB8606D6ED2A7A78EEE77AF0EEE77A46
:1031A000F4EEC97AF1EE10FA07DDB0EE680AA9680C
:1031B0002046FFF7F3FEC6ED2A8A2F44D7ED317A79
:1031C00078EE677AF0EEE77AF4EEC97AF1EE10FA6B
:1031D00007DDB0EE480AA9682046FFF72FFF87ED0C
:1031E000318ABDEC048BF8BDDFED058ABCE79FEDAD
:1031F000048ACCE71C0C00200AD7233CA4707D3F36
:1032000000000000044608B52046FFF705FD2046F3
:10321000FFF78CFF012005F0B3FAF5E710B50A4C73
:103220000A4A0B4904F1140016F092F8074A0949BA
:1032300004F1540016F08CF804F19800034A064992
:10324000BDE8104016F084B81C0C002000000024DB
:10325000E3290008E5290008E1290008F7EE007AD3
:103260009FED0B7A8369012280ED017AC7EE876AB0
:103270009342C36008BF4FF0FF33026104BFC0ED4B
:10328000017A036100230375C0ED026A704700BF35
:103290000000000007EE902A114B80ED0A0AF8EEBC
:1032A000677A1B68C0ED070A8B4280EE277A98BFC9
:1032B000C91A8369C360C0E90812012100228B4248
:1032C0004260016108BF4FF07E53017002BF43604E
:1032D0004FF0FF330361002380ED027A03757047DE
:1032E000482201240000000008B5C36A042B09D855
:1032F000DFE803F00307081A2700F7EE007A37EE3D
:10330000C00A08BDDFED1A7AB7EE007AB4EEE70A1C
:10331000F1EE10FA05D970EE677AF1EE046AA7EEC5
:10332000E67AB0EE470AECE7B0EE007AFFEE007AFC
:10333000E0EE077AB7EE000AF0EEE77A30EE670AC1
:10334000DFE79FED097BB7EEC00A20EE070B16F012
:1033500053F8B7EE007B37EE400BB6EE007B20EE65
:10336000070BB7EEC00BCCE7182D4454FB211940D6
:10337000CDCC4C3F037870B504460E4615462DED76
:10338000048B1BB1037D23B100232370BDEC048BA0
:1033900070BDD0ED047AC368F8EEE77A90ED010ACB
:1033A00090ED027A022BA7EE270A74D0032B00F0CF
:1033B0008380012B63D0F7EE007AB4EEE70AF1EEDA
:1033C00010FA03DDB0EE670A01230375237D84ED57
:1033D000010A002BD8D1D4ED097A204694ED0A7A5F
:1033E000F8EE677A236A67EE807A67EE877AFCEEFA
:1033F000E77A17EE902ADFED3D7A1A4413463C4AED
:103400001268511E99429CBFB3FBF2F102FB1133CB
:10341000384A126832F9132008EE902A364A1268A8
:10342000F8EEE88A32F9133068EEA78A08EE103A0F
:10343000B8EEC88A28EE278AFFF756FFB0EE409A0A
:10344000D4ED077AB7EE000A30EE670A16F0DAF824
:10345000F0EE409A94ED070A16F0D4F868EE898AE7
:10346000D6ED007A28EE098AE8EEA97AC6ED007A50
:10347000D5ED007AE8EE007AC5ED007A86E7B5EE84
:10348000C00A4FF0FF320261F1EE10FA9ED59FEDB7
:103490001B0A03759AE7F7EE007AB4EEE70AF1EE3D
:1034A00010FAC8BF30EE670AB5EEC00AF1EE10FAA6
:1034B0008CD530EE270A89E7F7EE007AB4EEE70AFA
:1034C000F1EE10FA07DDF0EE007A4FF0FF3337EE41
:1034D000C00A23617AE7B5EEC00AF1EE10FA7FF573
:1034E00075AFB1EE400A0123F3E700BF00000038DA
:1034F00048220124502201244C2201240000000013
:1035000010B52DED028BB7EE008A0446B4EEC80A62
:10351000F1EE10FA71DDDFED3B7AB4EEE70AF1EE81
:1035200010FA6CDCFDEEC07A17EE903A07EE903A96
:10353000DFED358A2363B8EEE70AC4ED028AF0EEC8
:10354000007A88EE007AC4ED007AC7EE806AD4ED86
:10355000087A78EE677A87EE280A84ED0E7AC4ED51
:103560000D6AFEEE006A67EEA67AC4ED097AB1EE46
:10357000400A15F081FF94ED0D7AD4ED027A84EDC6
:103580000A0A87EE270AB1EE400A15F075FF94ED9E
:10359000007A84ED080AC8EE077AC4ED038A77EE54
:1035A000C87A38EE408A27EE888AD4ED0E7A87EE04
:1035B000A80A84ED098AB1EE400A15F05DFFFAEE23
:1035C000087AD4ED006A0123C4ED078A87EEA67A53
:1035D000C4ED017AC4ED068A84ED0B0A84F83C3010
:1035E000BDEC028B77EEC77AB6EE007AF0EEE77AA2
:1035F00067EE877AC4ED047A10BD012396E7034B8A
:1036000094E700BF00803B48CDCCCC3D00EE0200EB
:1036100010B52DED048BF0EE408AD0ED066AB0EEC9
:10362000C00A82B0F7EE007A0446D0ED089AF4EEB4
:10363000C06A90ED079A90ED098AF1EE10FACCBFBE
:1036400090ED0B7A90ED0A7A77EEC77A67EE807A82
:10365000E6EE877AC0ED067AB0EEE70A01A815F02B
:103660007DFF9FED207ADFED207ADFED206AE0EE2E
:10367000077A9FED1F7AE0EE276AF0EE477A9DED1C
:10368000017AB8EEC77AE0EE267A94ED040AF3EEFA
:10369000046A37EE277ADFED177A27EE277AD4ED22
:1036A000017AD7EE267A9FED147AC7FE877A68EE04
:1036B000277AE9EE897AC4ED077A77EE807A9FED72
:1036C0000F0A67EE807A9FED0E0A27EE800A15F04A
:1036D000D3FE84ED050A28EE800A02B0BDEC048B0F
:1036E00010BD00BFA8A19D3FF5CA83C0FBB3C04079
:1036F000E09248C09B209A3E00000000CDCC4C3D9B
:103700008E5D13402DE9F843089E054698460F4606
:1037100014464FF00009B1450FD0B8EC010A284615
:10372000FFF776FFB7EC017AD5ED057A09F10109CB
:1037300067EE877AE4EC017AEDE7BDE8F8830000F4
:1037400000230A4A80ED0E0A03604260C360084A03
:103750004362036183624361C3628361C361036245
:103760000363044B82604363704700BFCDCCCC3E03
:1037700000007A44000080BF38B58D006FF06043D0
:1037800004462DED028BB0EE408A8160994234BF31
:1037900028464FF0FF3015F0E2FD2A460021E06098
:1037A00017F06AFC002384ED018A2360BDEC028BD4
:1037B00038BD10B50446C06808B115F0CEFD002331
:1037C000C4E9023310BD38B58D006FF06043044684
:1037D0004160994234BF28464FF0FF3015F0BFFDDD
:1037E0002A460021A06017F047FC0023236038BD63
:1037F00010B50446806808B115F0AFFD0023C4E998
:10380000013310BD38B58D006FF060430446816010
:10381000994234BF28464FF0FF3015F0A0FD2A46EC
:103820000021E06017F028FC0023C4E9003338BD14
:1038300010B50446C06808B115F08FFD0023C4E937
:10384000023310BD002300F1A80110B5C0E9043314
:10385000C0E90833044600F128030022C3E902222C
:1038600010338B42F9D104F5B4720021183343F8B8
:10387000081C43F8041C9A42F7D1134604F5E4717E
:103880000022C3E901220C338B42F9D104F5037005
:1038900000F0FEF804F5197000F0FAF8204610BDAB
:1038A0002DE9F84F0123002504460830DFF840B128
:1038B000DFF840A104F1280904F5B4782DED048B5C
:1038C000C0F8C031F6EE008AC0F8C431B0EE408ACC
:1038D000C0F8C8313F4B9FED409AC0F8D8313F4BFC
:1038E00060EE097A00ED020AC0F8DC313C4BFDEED7
:1038F000E77A00F8041CC0F8E0314FF0804317EE7F
:10390000901AC0F8CC51C0F8E431364BC0F8D05111
:10391000C0F8E8310023C0F8D451C0F8F031C0F845
:10392000F831C0F8F431C0F80032C0F8FC31C0ED15
:103930007B8AFFF767FFD4ED007A204667EE897A2D
:103940001830FDEEE77A17EE901AFFF75BFFF0EE06
:10395000687A94ED007AFBEC016A15F0010F9FED97
:10396000220A4846E6EE877AFAEC016A05F101057B
:1039700009F11009FBFE677AFDEEE77A17EE906A0F
:10398000F0EE687A3146E7EE267AFBFE677AFDEEC6
:10399000E77A17EE907ADFED157A07FE800AFFF7D7
:1039A000EBFE4046B91B08F10C08FFF70CFF082D91
:1039B000CDD1B0EE480A04F5037000F065F8B0EE22
:1039C000480A04F51970BDEC048BBDE8F84F00F00F
:1039D0005BB800BF0AD7233DCDCCCC3D00004843A7
:1039E0000000404000803B459A9919BF9A99193FC1
:1039F000240000240400002438B500F5B47500F557
:103A0000E47428460C35FFF7F3FEA542F9D138BD22
:103A100070B50446FFF7F0FF04F5E47504F519707E
:103A200004F5B47600F020F804F5037000F01CF8FB
:103A3000B54204D00C3D2846FFF7DAFEF8E704F162
:103A4000A80504F12806B54204D0103D2846FFF72A
:103A5000B0FEF8E704F11800FFF7EAFE04F10800F1
:103A6000FFF7E6FE204670BD704710B504461022F1
:103A70000021383017F000FB04F14800102200212B
:103A8000BDE8104017F0F8BA80ED030AFFF7EDBF6C
:103A9000002310B503800446438083604FF07E53BB
:103AA00003614361044B8361C3610023C360FFF77B
:103AB000DCFF204610BD00BF00007A4400F078B95A
:103AC00038B5044600F098F9D4F8A850204600F024
:103AD000AFF9284601F066FCD4F8AC50204600F05F
:103AE000A7F92846BDE8384001F05CBC38B504466B
:103AF00000F062F9D4F8A850204600F099F9284661
:103B000001F050FCD4F8AC50204600F091F9284662
:103B1000BDE8384001F046BC00F06AB9183002F048
:103B200013B900BF10B50446403001F097FC04F112
:103B3000B00001F015FE04F1C000BDE8104001F036
:103B40000FBE00BF10B50446D83001F0E1FD04F50A
:103B50009670BDE8104001F0DBBD00BFF0B54FF43A
:103B600081718FB000F1D80701254FF4C0624FF486
:103B7000E063ADF8081000F5967402993846ADF888
:103B80000C2008AEADF810300095DDE9032301F0FC
:103B90007BFD40F201134FF480722046ADF81430E3
:103BA0004FF48063059900950BADADF81820ADF882
:103BB0001C30DDE9062301F067FD3046072105F0E2
:103BC000DDFC96E8070085E807002946384601F045
:103BD00089FD96E8070085E807002946204601F0A0
:103BE00081FD384601F094FD20460FB0BDE8F0405D
:103BF00001F08EBD2DE9F04140F20243044602225D
:103C0000002504F1180704F1A8062DED028B8EB0F3
:103C10009FED1B8AADF80C3005A8039901F072FEE8
:103C200002220DF12600ADF81020049901F06AFE81
:103C30000423022205A9384601F078FE04F1680247
:103C400004F18803C4E92A232946384656F8048B30
:103C500002F090F801462046019100F0E9F80023B7
:103C6000F0EE480A019940461A4601F045FB25B19D
:103C70000EB0BDEC028BBDE8F0810125E4E700BF8A
:103C80006F12033B2DE9F04104469AB000270191E1
:103C900000F08CF80199204600F08AF940F60613EE
:103CA00004F1B0069FED400AADF8143004F1C005F0
:103CB0003046059901F03AFD4FF4007328469FED18
:103CC0003A0AADF8183004F5C878069901F02EFDCF
:103CD00040F6033240F201639FED330AADF808204D
:103CE00004F140000299ADF80C70C4F8D0600FAE3A
:103CF000C4F8D45007ADADF81030DDE9032301F06E
:103D00007DFB2046FFF72AFF2046FFF773FF28467A
:103D100001F0A0FC01230DF12C0E04F5C07C1593DD
:103D2000189347F61223169719930223179395E8D1
:103D30000F008CE80F008EE80F0086E80F00BDF83A
:103D400040301490ADF84E30BDF84230D4E9625E98
:103D5000ADF84C30C4E9655EBEF1000F04D0724688
:103D60003946284617F088F913A9404604F066FA48
:103D700004F5D27001F082FC3021204600F03CF8BE
:103D8000D4F8A850204600F053F8284601F00AFB6A
:103D9000D4F8AC50204600F04BF828461AB0BDE8E5
:103DA000F04101F0FFBA00BF00000000704700BF03
:103DB000143001F06DBA00BF38B500F114050446A7
:103DC0002DED028B284601F01FFA284601F018FA63
:103DD0002846B0EE408A01F001FAD0ED007AF8EE04
:103DE000677A88EE277ABDEC028B84ED0E7A38BDB7
:103DF000143001F005BA00BF38B500F114050446CF
:103E00002DED028B284601F0EDF9284601F0F8F976
:103E10002846B0EE408A01F0E1F9D0ED007AF8EEE4
:103E2000677A88EE277ABDEC028B84ED0E7A38BD76
:103E300090ED0E0A704700BF10B540F203338EB00C
:103E400000244FF60B7240F20341ADF8083009A888
:103E50000123ADF81020ADF824202246ADF80C1057
:103E60000094029907940C94CDE90544CDE90A44E5
:103E700002F082F804A8012322460399009402F07C
:103E80007BF809A802F05EF910B901200EB010BD50
:103E900004A802F057F9A0420CBF022020460EB041
:103EA00010BD00BF2DE9F04103239AB00127002483
:103EB0000646CDE914373B4BCDE9104340F204539D
:103EC000CDE91647ADF84830FFF7B6FFB8420546D2
:103ED00025D0022845D040F60132334B0DF12C0895
:103EE0001894ADF82C200B981997CDF84A3000F0B3
:103EF000E3F810A906F13C0003F06EF9302003222C
:103F00004FF07E5341460D930E93CDE90B02F26BB9
:103F100006F1140001F02AF91AB0BDE8F08110236F
:103F2000214A06A906908DF828300DF12C081F4B68
:103F3000CDF84A2007930294CDE91804CDE908048E
:103F400002A802F07FFB0823029A03A94046ADF8BD
:103F50000C508DF80E40049505930B9400F0ECF88E
:103F6000C7E700200121104B0DF12C083A460094C0
:103F7000CDF84A304FF60B730C94ADF82C30234635
:103F8000CDE9180140F601314046ADF81810069908
:103F9000CDE90D4401F0F0FF2146404602F0DEF885
:103FA000A7E700BF04020404040604030704010B8E
:103FB0002DE9F04704462DED028B82B000294DD04B
:103FC000012140F2011200230091ADF804208DF888
:103FD0000630364A0127364B04F10409354904F10D
:103FE0002908626040F20272A36040F60663E16055
:103FF00004F1250AA4F82520A4F82930278284F8A2
:10400000277084F82B7004F057FD054604F0BAFBC6
:104010006946064650BB4DB304F130008DF806707A
:1040200004F0D2FC072D3CD104F114052046FFF723
:1040300039FF284601F0E4F82846B0EE408A01F046
:10404000CDF8D0ED007AF8EE677A88EE277A84ED25
:104050000E7A02B0BDEC028BBDE8F08740F201138E
:1040600000918DF80610ADF80430B2E704F130008D
:1040700004F0AAFC072D11D04946204602F02CFD81
:104080000EB9002DD0D1504602F072F8404602F031
:104090006FF804F1120000F079F9C5E7002EF2D1B3
:1040A000C2E74946204602F017FDBDE705080509AD
:1040B00005070506050A060610B584B00346012467
:1040C000ADF8040003A8ADF80C30ADF80E4002F0D6
:1040D0004FF8214603A802F035F9204604F050FBC2
:1040E000002103A802F02EF9204604F049FB2146E6
:1040F00003A802F027F904B010BD00BF10B5C2F349
:10410000002384B00C46017C8DF80D2043EA440264
:10411000FA2402238DF80C2003AA009402F028FB55
:1041200018B10124204604B010BD04460A2004F052
:1041300027FB204604B010BD034670B543F8042B9E
:10414000044684B007C983E80700A37983B91A211C
:104150000B461E22FA2523742046ADF80C200223BC
:1041600003AA009502F004FB28B1012004B070BD41
:104170001B210B46EDE70A2004F002FB4FF4B85276
:1041800000950223ADF80C20204603AA217C02F002
:10419000EFFA0028E9D10A2004F0F2FA41F20272A3
:1041A00000950223ADF80C20204603AA217C02F0E2
:1041B000DFFA0028D9D10A2004F0E2FA042200959F
:1041C0000223ADF80C20204603AA217C02F0D0FA8D
:1041D0000028CAD10A2004F0D3FA0622009502234F
:1041E000ADF80C20204603AA217C02F0C1FA002879
:1041F000BBD10A2004F0C4FA41F208220095022340
:10420000ADF80C20204603AA217C02F0B1FA002868
:10421000ABD10A20064604F0B3FA0095022303AAA4
:10422000217C2046ADF80C6002F0A2FA00289CD157
:10423000304604F0A5FA009522790C232046002A86
:104240008DF80C3003AA4FF0020314BF6221422103
:104250008DF80D10217C02F08BFA002885D13046B4
:1042600004F08EFA2279D4E902310B43DBB20AB9A9
:1042700043F0400362790AB143F020030E22FA258D
:104280008DF80D302046009502238DF80C2003AAEE
:10429000217C02F06DFA00287FF467AF0A2004F059
:1042A0006FFA102200950223ADF80C20204603AAD5
:1042B000217C02F05DFA00287FF457AF0A2004F059
:1042C0005FFA122100950223ADF80C1003AA217C9D
:1042D000204602F04DFA00287FF447AF0A2004F090
:1042E0004FFA012209212046FFF708FF003818BFC6
:1042F00001203BE7F0B5102387B0234C01220025B5
:104300000126002702A920460195CDE902234FF49A
:104310008052CDE904670DF0E3F8642005F0EAFC73
:1043200002A94FF480522046CDE9046702261027E7
:10433000CDE902670DF0D4F80322102302A920462C
:10434000CDE9022300230422CDE904234FF4805257
:104350000DF0C6F840F23223042202A90193102383
:104360002046CDE90223019A012305924FF48052A1
:1043700004930DF0B5F840F6060120460DF0D0F894
:10438000284607B0F0BD00BF5C2201241C4B002270
:104390001C494FF0400C30B5054689B002205960E9
:1043A00007219A601A620124DA620A224FF4006E31
:1043B000DC6006922022CDE9000104200821CDE92D
:1043C000020103201021CDE9040108206946C3E958
:1043D00004024FF4C072181DC3E906C24FF48052A4
:1043E000C3E909E20DF052F838B92846FFF782FF19
:1043F000003818BF012009B030BD204609B030BDDB
:104400005822012440410052614A0021D0B513686E
:104410008EB00A91002B40F0B9805E4B01214FF61F
:1044200083700C2411600221D3F8D42000260327C6
:1044300042F48052C3F8D420D3F8D42002F480523E
:104440000092009AD3F8E02042F01002C3F8E02076
:10445000D3F8E02002F010020192019AD3F8E02094
:1044600042F04002C3F8E020D3F8E02002F040021E
:104470000292029AD3F8E02042F00802C3F8E0204A
:10448000D3F8E02002F008020392039AD3F8E02068
:1044900042F48072C3F8E020D3F8E02002F4807286
:1044A0000492049AD3F8E02042F08002C3F8E0209E
:1044B000D3F8E02002F080020592059AD3F8E020BC
:1044C00042F02002C3F8E020D3F8E02002F02002FE
:1044D0000692069AD3F8E02042F00402C3F8E020E6
:1044E000D3F8E0300C9403F0040307930323079AF6
:1044F0000B93CDE9080108A9274807F081FA48F293
:104500003712022308A925480C94CDE90823CDE9E8
:104510000A6707F075FA4CF20372022308A92048D3
:104520000C94CDE90823CDE90A6707F069FA40F257
:10453000FF62022308A91B480C94CDE90823CDE9AA
:104540000A6707F05DFA4FF60C72022308A91648B5
:104550000C94CDE90823CDE90A6707F051FA4FF62C
:104560003F02022308A911480C94CDE90823CDE9A4
:104570000A6707F045FA2022022308A90A480C948A
:10458000CDE90A67CDE9082307F03AFA0EB0D0BDAD
:104590005422012400440258001002580018025806
:1045A000000C025800200258001C02580014025847
:1045B0002DE9F04FDFF8108406460D46144608F149
:1045C00018002DED028B89B000AF02F0FDFED8F887
:1045D000183073B3D8F81C30D8F80490002B436916
:1045E0000BBF4FF0080A4FF0100A4FF0020B4FF0CC
:1045F000040BB9F1000F2AD0A200EA46012B02F108
:10460000070222F00702ADEB020D6846ADEB020D8A
:10461000694600F03F81022B00F0D680002B6FD05E
:104620002246C847D5462437BD46BDEC028BBDE8BF
:10463000F08FD8F81C30002BF5D0D8F804904FF04C
:10464000080A4FF0020B4369B9F1000FD4D1FB61A6
:10465000D8F80030BB61002BE5D0D54802F026FF2A
:104660006B46BBF1020F786108EE103AFB6900F06F
:1046700083816A465146A2EBC40295466200EA462F
:10468000B2FBFBF2AAEBC40085460AEB8200EE46C1
:10469000F861ADEB010DF8690EEB820CC7F810C0A4
:1046A000EC46ADEB010D00EB8201CCF80400CCF838
:1046B000081001EB82013869E946CCF80C1000EBD8
:1046C0008201CCF800A001EB8202C9E900E0C9E94F
:1046D0000212012B00F06483022B00F06C82002B8D
:1046E00000F08081620849466046BB69984718EE31
:1046F000103A24379D46BD46BDEC028BBDE8F08FD5
:10470000002C8DD01A46D8ED0C6A9FEDB27A844603
:10471000331D36F922E00CF1080C07EE90EA33F96C
:1047200022E00232F8EEE77A944267EE877A67EE8B
:10473000A67A4CED027A07EE90EAF8EEE77A67EE99
:10474000877A67EEA67A4CED017AE2D8F9612246C3
:10475000C847984ED8ED0D6A0020F9692B1D9FEDD2
:104760009E7A9FED9E6ADFED9E5A22E0F4EEC67AB5
:10477000F1EE10FAC0F2C88447F6FE72D1ED017A6C
:1047800045F8202066EEA77AF4EEC77AF1EE10FA2B
:1047900040F2F080F4EEC67AF1EE10FAC0F2D58461
:1047A00047F6FE7243F820200230083184427FF63B
:1047B00039AFD1ED007A66EEA77AF4EEC77AF1EE62
:1047C00010FAD3D83246D9E7002C3FF429AFD8ED00
:1047D0000C6A84469FED787A0022331D8E4656F887
:1047E00022100CF1080C07EE901A53F82210023236
:1047F000F8EEE77A944267EE877A67EEA67A4CED98
:10480000027A07EE901AF8EEE77A67EE877A67EE9B
:10481000A67A4CED017AE2D871462246C7F81CE030
:10482000C847664ED8ED0D6A0020F9692B1D9FED33
:104830006A7A9FED6A6ADFF894C120E0F4EEC67AE6
:10484000F1EE10FAC0F279843246D1ED017A45F8E2
:10485000202066EEA77AF4EEC77AF1EE10FA40F265
:104860008780F4EEC67AF1EE10FAC0F25E8432462A
:1048700043F820200230083184427FF6D3AED1EDD8
:10488000007A66EEA77AF4EEC77AF1EE10FAD5D880
:104890006246DAE7002C3FF4C3AED8ED0C6A8646D8
:1048A0009FED477A4FF0000C331D56F82C200EF187
:1048B000080E82F40002A2F5000207EE902A53F8D7
:1048C0002C200CF1020CF8EEE77A82F40002644529
:1048D000A2F5000267EE877A67EEA67A4EED027ABD
:1048E00007EE902AF8EEE77A67EE877A67EEA67A07
:1048F0004EED017AD9D8F9612246C847314ED8ED3C
:104900000D6A0020F9692B1D9FED337A9FED336A04
:10491000DFF8BCC01FE0F4EEC67AF1EE10FAC0F288
:10492000FC833246D1ED017A45F8202066EEA77A65
:10493000F4EEC77AF1EE10FA18D9F4EEC67AF1EE79
:1049400010FAC0F2DA83324643F8202002300831F0
:1049500084427FF667AED1ED007A66EEA77AF4EE78
:10496000C77AF1EE10FAD6D86246DBE76246EBE78B
:1049700062467DE7324615E7A100D6466208073158
:1049800021F00701ADEB010DEA46ADEB010D6946E3
:10499000ADEB0E0D0AEB8200EC46ADEB0E0D01EB1C
:1049A0008202F861E946CCE900A0C9E9001290E66C
:1049B000AC2201240280FFFF000000300082FF7F54
:1049C0000000003482FF7F0090220124007E0080DE
:1049D0007E0080FF0000003804FF7FBF04FF7F3FA0
:1049E00000FEFF46002C00F0C982BBF1020FD8F890
:1049F000242000F0FA827969C7F8049002EB810E56
:104A00005FED0C5A8A00DCF808100EF104007A61A0
:104A10001A46DCF80C303B61331DD7F810903D612D
:104A2000FD69C7E902CB8C46834636F92210D8EDE2
:104A30000C7A06EE101A33F9221006EE901A3EF99F
:104A40002210B8EEC66A07EE101AF8EEE66A3BF9D5
:104A50002210B8EEC77A26EE256A66EEA56A27EE22
:104A6000257A26EE276A66EEA76A27EE277A07EEF2
:104A7000901A51080232F8EEE77A0AEB810094426C
:104A800080ED006A05EB810067EEA57AC0ED006A53
:104A90000CEB810009EB810180ED007A98ED0C7A36
:104AA00067EE877AC1ED007ABFD8D7F804903D69E8
:104AB000D7E902CB60466208BB6949469847D8F8F7
:104AC0002C307A69D8ED0D6A1A441FED3D7A1FED3E
:104AD0003D6A2B1D904602F1040A5FED3F5A002209
:104AE000A84ED9E900EC51E0F4EEC67AF1EE10FAE6
:104AF000C0F2C78247F6FE7045F822000CEB0100B9
:104B0000D0ED007A66EEA77AF4EEC77AF1EE10FAED
:104B10004BD9F4EEC67AF1EE10FAC0F2BA8247F63B
:104B2000FE70BBF1020F43F822002BD0D9F8080029
:104B30000844D0ED007A66EEA77AF4EEC77AF1EE7B
:104B400010FA36D9F4EEC67AF1EE10FAC0F2CD8240
:104B500047F6FE7048F82200D9F80C000144D1ED68
:104B6000007A66EEA77AF4EEC77AF1EE10FA1ED953
:104B7000F4EEC67AF1EE10FAC0F2AF8247F6FE719B
:104B80004AF82210023294427FF6B1AD51080EEB82
:104B900081008900D0ED007A66EEA77AF4EEC77A3C
:104BA000F1EE10FAA0D83046A6E73046B9E7314614
:104BB000E6E73046CEE7002C00F0E081BBF1020FC3
:104BC000D8F8243000F0E1817A69DCF8081003EBB2
:104BD000820EC7F804909300DFED6B5A0EF10400CB
:104BE00000227B61DCF80C303B61331DD7F810905C
:104BF0003D61FD69C7E902CB8C46834656F8221019
:104C0000D8ED0C7A07EE101A53F82210B8EEC76AE6
:104C100007EE101A5EF82210F8EEC76A07EE101AB7
:104C200026EE256A5BF82210B8EEC77A66EEA56A12
:104C300026EE276A27EE257A66EEA76A27EE277A00
:104C400007EE901A51080232F8EEE77A0AEB81007B
:104C5000944280ED006A05EB810067EEA57AC0ED15
:104C6000006A0CEB810009EB810180ED007A98ED80
:104C70000C7A67EE877AC1ED007ABFD8D7F8049036
:104C80003D69D7E902CB60466208BB69494698474F
:104C9000D8F82C307A69D8ED0D6A1A449FED3E7A27
:104CA0009FED3E6A131D9246DFF8E4C00022FB61CF
:104CB0002B1D364ED9E9008E4EE0F4EEC67AF1EEA9
:104CC00010FAC0F2FC81304645F822000EEB0100DC
:104CD000D0ED007A66EEA77AF4EEC77AF1EE10FA1C
:104CE00049D9F4EEC67AF1EE10FAC0F2EF813046FF
:104CF000BBF1020F43F822002AD0D9F8080008447B
:104D0000D0ED007A66EEA77AF4EEC77AF1EE10FAEB
:104D100035D9F4EEC67AF1EE10FAC0F2C981304608
:104D20004AF82200D9F80C000144D1ED007A66EE71
:104D3000A77AF4EEC77AF1EE10FA1ED9F4EEC67A2D
:104D4000F1EE10FAC0F2AD813146F86940F8221058
:104D5000023294427FF6CBAC510808EB8100890007
:104D6000D0ED007A66EEA77AF4EEC77AF1EE10FA8B
:104D7000A3D86046A8E76046BAE76146E5E7604623
:104D8000CEE700BF0280FFFF000000300082FF7FFF
:104D9000007E00800000003404FF7FBF04FF7F3FDF
:104DA000002C00F0EB807A690021D8F82430C7F895
:104DB000109003EB820ED7F81C909300FD610EF16A
:104DC00004021FED0C6A7B61331D154656F8212045
:104DD0004808D8ED0C6ABBF1020F82F40002A2F57C
:104DE000000207EE902A53F8212082F40002B8EE68
:104DF000E77AA2F5000227EE067A07EE902A0AEB80
:104E00008002F8EEE77A27EE267A67EE867A82ED60
:104E1000007A09EB80024FEA800067EEA67AC2EDC5
:104E2000007A27D05EF8212082F40002A2F5000269
:104E300007EE902A55F8212082F40002B8EEE77AB6
:104E4000A2F5000227EE067A07EE902ADCF8082089
:104E5000F8EEE77A024427EE267A67EE867A82ED4C
:104E6000007A98ED0C7ADCF80C2067EE877A024421
:104E7000C2ED007A02318C42A8D8D7F81090604673
:104E80006208BB694946FD699847D8F82C307A69B1
:104E9000D8ED0D6A1A441FED407A1FED406A131DCC
:104EA0009246DFF8C4C20022FB612B1DAB4ED9E94C
:104EB000008E4EE0F4EEC67AF1EE10FAC0F2C58034
:104EC000304645F822000EEB0100D0ED007A66EE88
:104ED000A77AF4EEC77AF1EE10FA49D9F4EEC67A61
:104EE000F1EE10FAC0F2BF803046BBF1020F43F87A
:104EF00022002AD0D9F808000844D0ED007A66EEE6
:104F0000A77AF4EEC77AF1EE10FA35D9F4EEC67A44
:104F1000F1EE10FAC0F2AE8030464AF82200D9F81D
:104F20000C000144D1ED007A66EEA77AF4EEC77A60
:104F3000F1EE10FA1ED9F4EEC67AF1EE10FAC0F2D4
:104F40008B803146F86940F82210023294427FF695
:104F5000CEAB510808EB81008900D0ED007A66EEF7
:104F6000A77AF4EEC77AF1EE10FAA3D86046A8E764
:104F70006046BAE76146E5E76046CEE72246494625
:104F80006046BB699847FFF7B2BBC7F810B0002274
:104F900098ED0C6A331DDFED726AD7F81CB07869A2
:104FA00056F8221007EE901A53F82210B8EEE77A5E
:104FB00007EE901A51080232F8EEE77A27EE267AC9
:104FC0000AEB810E94420BEB810167EEA67A27EE85
:104FD000067A67EE867A8EED007AC1ED007ADFD828
:104FE0008300D7F810B07B614DE61A46C7F810B0C1
:104FF00098ED0C6A331DDFED5B6AD7F81CB0786959
:1050000036F9221007EE101A33F9221007EE901A23
:10501000B8EEC77A51080232F8EEE77A27EE267A20
:105020000AEB810E94420BEB810167EEA67A27EE24
:10503000067A67EE867A8EED007AC1ED007ADFD8C7
:105040008300D7F810B07B6134E5F0EE675AFEEECE
:10505000E45A15EE900A34E7F0EE675AFEEEE45A91
:1050600015EE901A6EE7F0EE675AFEEEE45A15EE72
:10507000900A3AE7F0EE675AFEEEE45A15EE900A0F
:105080004BE767EEA57AFDEEE77A17EE900A00B2DD
:1050900032E567EEA57AFDEEE77A17EE900A00B2E8
:1050A0003FE5F0EE675AFEEEE05A15EE901A4CE638
:1050B000F0EE675AFEEEE05A15EE900A30E6F0EE9A
:1050C000675AFEEEE05A15EE900AFDE5F0EE675ADB
:1050D000FEEEE05A15EE900A0AE667EEA57AFDEEBE
:1050E000E77A17EE901A09B24AE567EEA57AFDEE67
:1050F000E77A17EE900A00B22CE5F0EE675AFEEE62
:10510000E45A15EE902A1FE467EEA57AFDEEE77AE1
:1051100017EE902A12B2FFF731BBF0EE675AFEEE9F
:10512000E45A15EE902AFFF7FDBBF0EE675AFEEE4B
:10513000E05A15EE902AFFF79BBBF0EE675AFEEEA1
:10514000E05A15EE902AFFF780BB67EEA57AFDEED8
:10515000E77A17EE902A12B2FFF724BB82FF7F0096
:1051600000000030000000387E0080FF30B5184C91
:10517000154685B0046004F1080EEC460FC98EE8B0
:105180000F00D4ED047AF5EEC07A8CE80F00F1EE52
:1051900010FA1ADDB7EE006A94ED057A27EE277A49
:1051A000C6EE276A84ED0D7AC4ED0C6A6DB1204617
:1051B00040F8185F02F008F9064903690020064A22
:1051C0002162A262E36005B030BD012005B030BDB0
:1051D00090220124002000300000003000680830D8
:1051E000704700BFB1F5807F03680A4628BF4FF4BF
:1051F0008072B1F5807F9A6094BF002001207047D3
:105200000068183002F040B970B504688AB0A3692C
:10521000E160CBB104F11805284602F0D5F88446C8
:10522000EE46E668BCE80F00AEE80F00BCE80F00F1
:10523000AEE80F009CE803008EE8030069462846AC
:10524000049601F0C9FFF8B9E069D8B104F11C0572
:10525000284602F0B9F88446EE46E468BCE80F0040
:10526000AEE80F00BCE80F00AEE80F009CE80300BA
:105270008EE8030069462846049401F0ADFF00382B
:1052800018BF01200AB070BD01200AB070BD00BF78
:1052900030B5046883B00D46E3694BB1A3680020C4
:1052A000E26A616A9B00009004F11C0002F08EF833
:1052B000A3680748A26A9B00216A009004F11800C5
:1052C00002F084F80020C4E9005003B030BD00BFF4
:1052D000B145000810B4074B4FF07E513024002236
:1052E000032019619C60D8605DF8044B5961C3E9E3
:1052F0000622704790220124F6EE007A9FED166A8E
:1053000020EE207A0160F7EE006A80ED036A80EDFE
:10531000020A27EE277AC6EE877AF4EEE67AF1EEF5
:1053200010FA11DDF0EE667A4FF07E514FF0000C6E
:1053300002760022C0ED017AC0F814C00161437604
:105340008276C0ED070A7047F4EEC67AF1EE10FAE5
:10535000EAD5F0EE467AE7E7000000000268037E37
:10536000128807EE902AFBEEC87A1BB1B7EE007ADE
:1053700077EE677AD0ED056A90ED047A77EEE67AFB
:10538000437E67EE877A0BB1F1EE677A90ED030A00
:1053900090ED017A77EEC07AA7EE270A80ED030A36
:1053A000704700BF837E80ED020AABB9D0ED077A6B
:1053B00027EE800AF6EE007AB7EE007A20EE270A92
:1053C000C7EE007AF4EEC77AF1EE10FA07DDF0EEE0
:1053D000477AC0ED017A7047DFED067AE8E7F5EE2F
:1053E000C07AF1EE10FAF4D5DFED037AC0ED017A60
:1053F000704700BF6F12033B0000000030B585B05E
:1054000004460025ADF80C10ADF80820ADF80430C6
:1054100003F0B4F9BDF80C204FF48073206004F160
:1054200018002283BDF808206383E383A2832571DB
:1054300000F09EFE04F11C0000F09AFE9FED060AAB
:10544000019904F1080000F071F94FF6FF736562ED
:10545000238405B030BD00BF00000000F8B504464D
:1054600003F08CF9002623682671834205D104F1EC
:105470000800BDE8F84000F073B9012794F8205007
:10548000206004F11800BD40277100F04DFF6DB29F
:10549000284394F82150BD4084F8200004F11C00FA
:1054A00000F042FF94F820306DB2666203F003030F
:1054B0002843022BC0B284F8210009D000F0030079
:1054C0000228D4D1002BD2D14FF0FF336362CEE754
:1054D0008307CCD16762CAE7704700BFF8B5134FA6
:1054E0003C687F2C07D98023114A42F224411C4694
:1054F0003B60A2F87E100F4D2B68012B0AD90C4E91
:105500000D4D22463146284600F0E0F90028F8D13A
:105510003860F8BD22460649074800F0D7F9002850
:10552000F7D12B68386001332B60F8BDCC22012401
:10553000D0220124C82201245023012430B4154C68
:105540002168F1B14B1E144DE81810F801298C4662
:1055500019460A2A01D00D2A02D14BB1013BF4E7CA
:105560000CF102037F2B10D98023236030BC7047DD
:105570000122022323600D200A236854AB5430BC5F
:10558000704701220223044DF4E70CF10102614649
:10559000F0E700BFCC220124D022012410B5094C31
:1055A00002460B46084821680844C1F1800116F004
:1055B000ABFB236818442060FFF7C0FFFFF78EFFA6
:1055C00010BD00BFCC220124D02201240FB400B5AD
:1055D00083B004A951F8040B0191FFF7DFFF03B07A
:1055E0005DF804EB04B0704710B5044600210A488A
:1055F00000F0E6F8002C094B14BF022200220848F4
:105600001A60FFF7E3FF0748FFF7E0FF0A20BDE855
:10561000104003F0B5B800BF50230124C822012474
:1056200030E4010840E40108064A0749074808B584
:1056300013F08EFE034A04490548BDE8084013F004
:1056400087BE00BF00000024D95400085023012465
:1056500054230124074A118830B481800024064D68
:1056600091884FF4807285600460C180C26030BC54
:10567000704700BF70DF01080040003000220A239D
:1056800002700371704700BF30B585B004469FEDCE
:10569000110A9DF82050ADF80C100399ADF80820C0
:1056A0002A46ADF804308DED000A11F0CDFC9DEDD9
:1056B000000A2A46029904F11C0011F0C5FC9DED78
:1056C000000A2A46019904F1380005B0BDE83040CF
:1056D00011F0BABC00007A4411F0DABC383011F095
:1056E000D7BC00BF38B50C46054691ED000A11F055
:1056F000CFFC94ED010A05F11C0011F0C9FC94EDFA
:10570000020A05F13800BDE8384011F0C1BC00BF05
:1057100010B5044611F0CEFC04F11C0011F0CAFCD7
:1057200004F13800BDE8104011F0C4BC70B5044667
:1057300082B0C1F30726CDB2ADF8041003F01EF815
:105740004FF480724FF001232060A01DA571A2804C
:10575000E671A36002B0BDE8704000F009BD00BF73
:1057600038B5044603F00AF8002223682271834208
:1057700010D00122A57AE37A954020602271A01D05
:105780006DB243B900F0D0FD40B22843C0B27F28CB
:10579000A0720AD038BD00F0C7FDB0FA80F0400911
:1057A0002843C0B27F28A072F4D102F0E7FF07EED1
:1057B000900AF8EE677AC4ED037A38BD704700BFEF
:1057C000012910B506D0022915D051B1BDE810400D
:1057D00008F06EB80A463448344910F051FAE8B17E
:1057E000FEE7334B0A46334C334934481C6010F013
:1057F00047FA68B1FEE701222C492B4810F040FA25
:1058000000B1FEE72E49284810F05CFAC0B1FEE76F
:105810002B492A4810F056FA60B1FEE72849224881
:1058200010F050FA00B1FEE726491F4810F0D8F9F1
:1058300008B3FEE72449214810F0D2F9A8B1FEE7E9
:105840002049194810F0CCF900B1FEE7164810F0D5
:105850004FFA024640B9164B164C174917481C60C0
:1058600010F00EFA68B1FEE7FEE7144810F040FAB7
:105870000028ABD0FEE70C4810F03AFA0028A5D07B
:10588000FEE70F490D4810F01DFA00B1FEE70E4982
:105890000A4810F0A5F900B1FEE7084810F028FA10
:1058A000002893D0FEE700BFF4250124D002002495
:1058B00090280124BD570008B40200245823012475
:1058C000380300249402002484020024084691B284
:1058D00008B503F02BFA003818BF012008BD00BF3F
:1058E000014807F0C3BA00BF70630124014807F004
:1058F000BDBA00BF70630124014807F0B7BA00BF0A
:105900007063012400B583B04FF0000E4FF0030C1C
:105910004274ADF80410BDF8043080F810E0A0F82F
:1059200002C0038003B05DF804FB00BF2DE9F04F17
:10593000DFF81C8300258DB0C04C037008F14003D4
:105940004260074601920E46202229464046C4F88E
:105950006831C4F86481CDE90255CDE90455CDE93B
:105960000655CDE90855CDE90A5515F085FB2022ED
:10597000294604F5A170C4F83151C4F83551C4F872
:105980003951C4F83D5115F077FB019B84F848521A
:1059900084F830317A68002A6AD02B4604F5987171
:1059A000454606F1100A9E46F01856F803B0E21874
:1059B0000EF1010ED0F80CC0D0F80490D0F8088099
:1059C00044F803B0C2F80CC04FF0000CC2F80490C9
:1059D000C2F80880008A25F802CB10821AF803204A
:1059E00001F8012F002A70D07A684FF001001233BD
:1059F000724584F84802D7D84FF4802290489DF829
:105A0000043008214FF000084FF00009C4F8843139
:105A10000023C4E95B020122C4F8743184F88031A8
:105A2000C4E95E2194F84812C4E96489A9B3C4F8B2
:105A30009821002284F8813184F888313B78C4E9C8
:105A40006722002B38D0012200200121013B84F87D
:105A5000A421C4E96C01082B30D8DFE813F0BD00A5
:105A6000C200C700CC00D100D600DB00E100E80096
:105A70009DF804300121C4F87421C4F884314FF436
:105A8000802384F880216E4AC4E95B230823002226
:105A9000C4E95E130023C4E964230123002284F8CF
:105AA0008131002384F888310323C4F898313B788E
:105AB000C4E96722002BC6D184F8A431614804F000
:105AC00051FD034638B1FFBEFEE77A6812337245D6
:105AD0003FF66AAF90E702A95A48029304F0A0FE8D
