:020000040800F2
:1000000000000220990600089506000815810008E6
:1000100095060008950600089506000800000000F7
:10002000000000000000000000000000950600082D
:100030009506000800000000950600089980000859
:100040009506000895060008950600089506000824
:100050009506000895060008950600089506000814
:10006000950600089506000895060008396B0008FB
:10007000456B00089D580008516B00085D6B000837
:10008000157B0008696000089506000895060008C1
:1000900095060008950600089506000895060008D4
:1000A00095060008950600089506000895060008C4
:1000B0004D7B0108597B0108657B01089D600008A4
:1000C00095060008A960000895060008BD730108A0
:1000D000C97301084979000875790008A9790008F1
:1000E0009506000895060008000000009506000827
:1000F0009506000895060008950600089506000874
:100100009506000891700008717B0108D5730108FD
:10011000DD790008117A00089506000895060008A8
:100120009506000895060008F97301082D7401086A
:10013000497B00089506000895060008950600080A
:1001400000000000000000000000000000000000AF
:10015000950600089506000895060008457A0008EF
:10016000B560000895060008A9800008CD80000849
:1001700095060008F180000895060008950600081D
:100180009506000895060008797A0008AD7A0008FF
:10019000E1730108ED730108950600089506000853
:1001A00095060008950600089506000895060008C3
:1001B000596800089506000895060008950600088D
:1001C00095060008950600085D530008695300086D
:1001D0009506000875530008950600089506000866
:1001E0009506000895060008950600089506000883
:1001F0009506000895060008950600089506000873
:100200009506000895060008950600089506000862
:100210009506000895060008950600089506000852
:1002200095060008950600089506000800000000E5
:1002300095060008950600080000000095060008D5
:100240009506000895060008950600089506000822
:100250009506000895060008950600089506000812
:100260009506000895060008950600089506000802
:100270009506000895060008E17A000800000000D5
:100280009506000895060008950600080000000085
:080290000000000095060008C3
:1002A00010B5054C237833B9044B13B10448AFF3B0
:1002B00000800123237010BD780700240000000097
:1002C0002CCE010808B5034B1BB103490348AFF31B
:1002D000008008BD000000007C0700242CCE01082F
:1002E000034613F8012B002AFBD1181A0138704776
:1002F00001F0FF01102A2BDB10F0070F08D010F8D7
:10030000013B013A8B422DD010F0070F42B3F6D1DA
:10031000F0B441EA012141EA014122F007047FF0F3
:1003200000070023F0E80256083C85EA010586EA4A
:10033000010685FA47F5A3FA87F586FA47F6A5FA86
:1003400087F68EB9EED1F0BC01F0FF0102F0070292
:1003500032B110F8013B013A83EA010313B1F8D13D
:100360000020704701387047002D06BF354603381E
:10037000073815F0010F07D1013015F4807F02BF57
:10038000013015F4C03F0130F0BC0138704700BFA8
:1003900053B94AB9002908BF00281CBF4FF0FF31EC
:1003A0004FF0FF3000F074B9ADF1080C6DE904CEE8
:1003B00000F006F8DDF804E0DDE9022304B0704740
:1003C0002DE9F047089D04468E46002B4DD18A4208
:1003D000944669D9B2FA82F252B101FA02F3C2F13B
:1003E000200120FA01F10CFA02FC41EA030E9440CC
:1003F0004FEA1C48210CBEFBF8F61FFA8CF708FBED
:1004000016E341EA034306FB07F199420AD91CEBC4
:10041000030306F1FF3080F01F81994240F21C81F6
:10042000023E63445B1AA4B2B3FBF8F008FB10333E
:1004300044EA034400FB07F7A7420AD91CEB040473
:1004400000F1FF3380F00A81A74240F20781644443
:10045000023840EA0640E41B00261DB1D4400023C8
:10046000C5E900433146BDE8F0878B4209D9002D2C
:1004700000F0EF800026C5E9000130463146BDE8B6
:10048000F087B3FA83F6002E4AD18B4202D3824220
:1004900000F2F980841A61EB030301209E46002DCF
:1004A000E0D0C5E9004EDDE702B9FFDEB2FA82F224
:1004B000002A40F09280A1EB0C014FEA1C471FFA82
:1004C0008CFE0126200CB1FBF7F307FB131140EA69
:1004D00001410EFB03F0884208D91CEB010103F136
:1004E000FF3802D2884200F2CB804346091AA4B2F8
:1004F000B1FBF7F007FB101144EA01440EFB00FECC
:10050000A64508D91CEB040400F1FF3102D2A64530
:1005100000F2BB800846A4EB0E0440EA03409CE7CF
:10052000C6F12007B34022FA07FC4CEA030C20FA7C
:1005300007F401FA06F31C43F9404FEA1C4900FA9C
:1005400006F3B1FBF9F8200C1FFA8CFE09FB181119
:1005500040EA014108FB0EF0884202FA06F20BD98C
:100560001CEB010108F1FF3A80F08880884240F2DC
:100570008580A8F102086144091AA4B2B1FBF9F020
:1005800009FB101144EA014100FB0EFE8E4508D91B
:100590001CEB010100F1FF346CD28E456AD90238A0
:1005A000614440EA0840A0FB0294A1EB0E01A14285
:1005B000C846A64656D353D05DB1B3EB080261EBF3
:1005C0000E0101FA07F722FA06F3F1401F43C5E9CD
:1005D000007100263146BDE8F087C2F12003D84003
:1005E0000CFA02FC21FA03F3914001434FEA1C4745
:1005F0001FFA8CFEB3FBF7F007FB10360B0C43EA37
:10060000064300FB0EF69E4204FA02F408D91CEBE6
:10061000030300F1FF382FD29E422DD902386344E4
:100620009B1B89B2B3FBF7F607FB163341EA034184
:1006300006FB0EF38B4208D91CEB010106F1FF38D3
:1006400016D28B4214D9023E6144C91A46EA0046CA
:1006500038E72E46284605E70646E3E61846F8E65C
:100660004B45A9D2B9EB020864EB0C0E0138A3E7A5
:100670004646EAE7204694E74046D1E7D0467BE786
:10068000023B614432E7304609E76444023842E7FE
:10069000704700BFFEE700BF0B480C4A904203D0F2
:1006A000121A0B4918F008FC0A480B4A904203D072
:1006B000121A002118F028FC07F084FF18F0C8FB7C
:1006C00002F072FAFEE700BF000000247407002465
:1006D00064CE010878070024600D0124034B03EB6E
:1006E000800203445268187B53681847A409002409
:1006F000074B1A5C52B903EB800219184FF0010C3A
:10070000526803F800C0087B136818470020704740
:10071000A409002430B4054C04EB800504446D6842
:10072000207BAC68A44630BC604700BFA40900240D
:1007300030B4054C04EB800504446D68207BEC6804
:10074000A44630BC604700BFA4090024044B03EB5F
:10075000000C03EB80035B689CF80C001B691847D6
:10076000A409002410B404689CB121788446224670
:100770003A2913D01F2911D912F8013F1F2B0ED986
:100780003A2BF9D10134A1F13000A24201D1012864
:100790000CD94FF0FF305DF8044B70470B463A2BF5
:1007A000F0D0044B18785DF8044B70470132CCF858
:1007B0000020F8E79407002438B50D4640B10368DF
:1007C00004462BB11A781AB18088DA88904203D097
:1007D000092000232B6038BD5878FFF77FFF10F009
:1007E0000100F5D12368F5E72DE9F0410026D0F8A6
:1007F00000808E758369002B5AD0C36A07460D4668
:1008000001331ED0D8F80C301888002861D001F1CF
:100810001506012400E01C46002101F0D5FF631CF1
:10082000002856D0B4F5807F53D006F8010FD8F8D1
:100830000C2032F814000028EDD12C440023A375BD
:10084000AE7DD7F81CC000204FF02E080CF1FF3110
:10085000024611F8013F0132202B18D0052B08BFAA
:10086000E523092A26D02C1863727EB9A3F141072B
:10087000192F0AD8082A9CF80CE08CBF10270827EB
:100880001EEA070F01D02033DBB2A37501300B2A1B
:10089000DFD12C18B6B1002363729CF80B302B7299
:1008A000DCF81C302B60DCF816301A0CEB80AA80C8
:1008B000BDE8F0812C180EB984F81680013084F858
:1008C0000980D0E7A6759CF80C30002B08BF2C4699
:1008D000E1E7002400232C44A375AE7DB1E700BFFF
:1008E0002DE9F041456B00F13808044601232A4602
:1008F00041464078FFF71CFFC0B9A26A0746236A49
:10090000AA1AE0709A420ED2A678012E01D80AE007
:10091000236A1D44013E012341462A466078FFF7C1
:1009200007FF012EF4D13846BDE8F0810127384693
:10093000BDE8F08170B5C37804465BB92378032B1A
:100940000FD0002260781146FFF700FF003818BF73
:10095000012070BDFFF7C4FF0028FAD12378032BD4
:10096000EFD12579012DECD104F138064FF4007256
:100970000021304618F0C8FA55233146722684F813
:1009800036322B466569612084F81C62522284F855
:100990001D622E0A84F83A0084F81F0284F820525F
:1009A000206984F821622E0C2D0E84F8382084F8FA
:1009B0003920412284F82352050A84F83B2084F828
:1009C0001E2284F82402626A84F82552050C000E67
:1009D000013284F8226284F82702AA20626384F834
:1009E000370284F826526078FFF7A2FE00232371B5
:1009F000A7E700BF38B5C37804460D4663B90123A5
:100A00002A4604F138016078FFF784FE10B1012016
:100A10004FF0FF35656338BDFFF762FF0028EED069
:100A200038BD00BF70B54FF0FF3600230446B14219
:100A3000C37046630CD00D460A46012300F138010D
:100A40004078FFF767FE10B10420666370BD6563F0
:100A50004AF65523B4F836229A421AD194F838301F
:100A6000E92B07D0A36B0D4A03F0FF13934201D08B
:100A7000022070BDD4F86E30094A23F07F439342C0
:100A800009D0D4F88A00074B984214BF02200020F6
:100A900070BD032070BD002070BD00BFEB00900052
:100AA00046415400464154330023F0B50B6085B0F5
:100AB0000E461446FFF756FE051EC0F2BC808C4B56
:100AC00053F82570002F00F0C380376004F0FE0457
:100AD0003B787BB17878FFF701FEC6070AD4002C7B
:100AE00000F0A28010F0040400F09E800A2420464A
:100AF00005B0F0BDE8B2002378703B70FFF7F8FD59
:100B0000C50700F194800CB14407EFD400213846AA
:100B1000FFF788FF02286DD0042800F0908001289C
:100B200000F281800025B7F84330B3F5007F7AD119
:100B3000B7F84E2002B9FA6D97F848303A62591E5C
:100B4000BB7001296FD897F8451088B278810028CA
:100B500069D0481E084266D1B7F8496030073E8127
:100B600061D1B7F84B0000B9B86DB7F846E0BEF1F7
:100B7000000F58D002FB03F30EEB16141C44A042E6
:100B800051D3001B8842B0FBF1FC4CD34FF6F571FA
:100B90008C455FD840F6F5710EEB05002C447D6264
:100BA0008C450CF102013C63F961B86273D8002EE8
:100BB00039D0034401EB410001F00101FB6201EB7C
:100BC0005001012001F2FF11B2EB512F2BD34FF056
:100BD000FF338022C7E904333A71464A0021464C6C
:100BE0001388FC600C4601333870B9619BB21380E6
:100BF000FB8019E06C4607F5FB7307F236252046AB
:100C00001A79114602B19968103340F8041B9D42CD
:100C1000F6D104F1100654F8045B03208DB9B442F8
:100C2000F9D104280BD00D24204605B0F0BD0324D3
:100C3000204605B0F0BD0B24204605B0F0BD0124D0
:100C4000F2E729463846FFF7EDFE0128E7D86AE7C4
:100C50000C24E9E70EEB05010CF102032C447D6244
:100C6000B962B7F862103C633143FB61DBD19B0092
:100C7000796E03F2FF13F962B2EB532FD3D3B7F8B7
:100C800068204FF0FF338021012A3971C7E904330E
:100C900008D00320A1E7002EC5D00344490002205C
:100CA000FB628FE7691C7B6B994204D03846FFF7E3
:100CB000A1FE0028EDD14AF65523B7F836220021CF
:100CC0009A423971E5D1BA6B0C4B9A42E1D103F1EA
:100CD000FF53D7F81C2203F5005320339A42D8D192
:100CE000D7F820220320D7F82432C7E9043274E76A
:100CF00098070024A0070024A40700245252614151
:100D00002DE9F843037804460D461646022B06D01B
:100D1000032B6AD0012B27D00220BDE8F883876A15
:100D2000436B07EB11279F4200F09080C378002BA4
:100D300040F0B68004F1380801233A466078414615
:100D4000FFF7E8FC00284AD167636D00C6F307226D
:100D50000123002005F4FF7508EB050108F8056084
:100D60004A70E370BDE8F88301EB5107826A436B78
:100D700002EB5728984563D0C378002B40F08A8057
:100D800004F138090123424660784946FFF7C2FC66
:100D900028BBC4F8348015F0010507F10108C7F33A
:100DA00008075ED019F8073003F00F0343EA061373
:100DB00009F807300123A76AE37007EB5827636B34
:100DC0009F4278D02046FFF78BFD0028A5D1012354
:100DD0003A4649466078FFF79DFC002839D04FF02D
:100DE000FF3301206363BDE8F883826A436B02EB43
:100DF000D118984527D0C378002B57D104F1380774
:100E00000123424660783946FFF784FC0028E6D18A
:100E1000C4F83480AD0026F0704205F4FE757B59AD
:100E2000791903F070431A43130C7A55100A8B702A
:100E3000120E01234870CA700020E370BDE8F883E9
:100E400000F13809A7E700F13807E3E700F13808B7
:100E50007BE7C8F30801676349447DB1C6F3071215
:100E600012E009F807600123A76AE37007EB58272F
:100E7000636B9F42A6D1C8F3080149440B78C6F3BF
:100E8000032223F00F06324301230A700020E3708F
:100E9000BDE8F883FFF724FD00283FF471AF3CE77D
:100EA000FFF71EFD00283FF445AF36E7FFF718FDBA
:100EB0000028A3D031E7C8F3080309EB0301CDE70D
:100EC00001294CD9C36999422DE9F0410C460546E8
:100ED00002D30120BDE8F0810378022B5AD0032B06
:100EE0003FD0012BF5D101EB5106826A436B02EB37
:100EF00056279F420ED0C378002B79D101233A4662
:100F000005F138016878FFF705FC00285FD1AA6A6F
:100F10003B466F63771CC6F3080602EB57282E4446
:100F2000434596F838600DD0EB78002B65D101234E
:100F3000424605F138016878FFF7ECFB002846D1FE
:100F4000C5F83480C7F30807E3073D4495F8380037
:100F500046EA00204CBF0009C0F30B00BAE70120AD
:100F60007047866A436B06EBD1169E4229D0C37840
:100F700093BB05F138070123324668783946FFF7FD
:100F8000C9FB20BB6E63A40004F4FE74385920F042
:100F900070409FE7866A436B06EB11269E4213D092
:100FA000C37803BB05F13807012332466878394618
:100FB000FFF7B0FB58B96E63640004F4FF74385B4C
:100FC00088E700F13807DEE700F13807F4E74FF073
:100FD000FF3318466B637DE7FFF782FC0028C8D01B
:100FE0004FF0FF3076E7FFF77BFC0028DAD0F7E719
:100FF000FFF776FC002881D0F2E72846FFF770FC67
:10100000002894D0ECE700BF0129F8B50E4605682A
:101010002AD9EB698B4227D90746114632BB2846AD
:1010200014E0EB699E4226461ED2FFF769FEE0B946
:10103000EB696A69991E501C8A4204D22A79686158
:1010400042F001022A71A3421CD938683146FFF7E9
:1010500037FF04463146002228469CB1012C03D0BC
:10106000631C11D0012EDCD80220F8BD9342FBD9BD
:10107000012AF9D04FF0FF322846FFF741FE002841
:10108000E3D0F8BD0020F8BD0120F8BD2DE9F04106
:1010900005460F46066800294BD1D6F81080F36943
:1010A000B8F1000F35D14FF00108444606E00128A1
:1010B0003AD0431C38D0444538D0F36901349C42BF
:1010C00004D3B8F1010F4FF002042FD02146286855
:1010D000FFF7F6FE0028EAD1012C24D9F3699C42DF
:1010E00021D24FF0FF3221463046FFF709FE00B90A
:1010F000A7B950BBF3697269023B34619A4201D8C7
:10110000013A72613379204643F001033371BDE83F
:10111000F081434598BF4FF00108C6E7012F02D088
:10112000F3699F4216D30120BDE8F0810020BDE89D
:10113000F0813046FFF7C4FE0128F4D9421C06D0E6
:10114000F3698342F0D8B846AFE70128EBD14FF0FE
:10115000FF30E9E7224639463046FFF7D1FDC8E7C0
:101160002DE9F04F056983B083692035B5F5001F7F
:101170003BD2002B39D0C5F3080804460768B8F104
:10118000000F08D007F13806464400202561E661CB
:1011900003B0BDE8F08F0E4601334169836141B36E
:1011A000B7F80A9009F1FF3919EA5529EAD138460A
:1011B000FFF786FE0128834623D9B0F1FF3F5DD0BB
:1011C000FA6982421FD9831E07F138060193023A59
:1011D0000199C4F814B08A4204D9B7F80A903B6B5D
:1011E00001FB0939C4F81890CEE7042003B0BDE82C
:1011F000F08F3B89B3EB551FC4D800230420A361B3
:10120000C6E70220C4E7002EF7D061692046FFF749
:101210003DFF8346002839D00128F2D0B0F1FF3FCE
:101220002CD0FA78002A33D107F13806ABF102034B
:101230004FF4007200213046019317F065FEF86903
:10124000019B821E934229D279893A6B019B03FB51
:1012500001227A6329B34FF0000A05E07A6B78899E
:10126000013250457A630BD94FF0010338460AF139
:10127000010AFB70FFF734FB0028EFD0012087E75D
:10128000F869A2EB0A027A630246A0E707207FE72B
:101290003846FFF725FB0028C6D0EFE77989002202
:1012A000D7E78A46EDE700BF2DE9F04704464FF047
:1012B000FF08042025684646D4F8189005F1380741
:1012C000B9F1000F32D06B6B4B4513D0EB78002B8C
:1012D00064D101234A4639466878FFF71BFA38B1D2
:1012E0004FF0FF3301206B630023A361BDE8F0875B
:1012F000C5F83490E1690A78002A58D0CB7AE52AFB
:1013000003F03F03A37105D02E2A03D023F0200061
:10131000082810D1FF2600212046FFF721FF0028D2
:10132000E2D1D4F81890B9F1000FCCD10028DBD16C
:101330000020BDE8F0870F2B46D1500634D5236935
:1013400002F0BF0691F80D80E3624B7B4345E1D18B
:101350004B8B002BDED10B780122DFF894E04FF6A7
:10136000FF7A23F04003D5F80C900EF10C0C013BF2
:1013700003EB430003EB8003104609E0FE2B10460D
:10138000C8D829F813200133E64512D01EF8012FE2
:101390008A5A0028F2D15245F6D0BBE72846FFF71B
:1013A0009FFA002895D09FE7B242B3D1CDE7042041
:1013B0009AE70A78520604D5FE2BABD8002229F80A
:1013C0001320013EF6B2A6E76EB901F10B02F3015C
:1013D00043EA560611F8013B53FA86F69142F6B2FB
:1013E000F5D14645A4D04FF0FF330020E3627DE7FE
:1013F00010BE0108B1F5001F42D2CA06F8B50D466D
:1014000020D18168064607680561E9B17B89B5EBA3
:10141000432F4FEA432435D3384607E0012811D93A
:10142000FB6983420ED9AC422DD83068FFF748FDE6
:10143000431CA5EB04050146F0D10120F8BD0023B3
:10144000C6E905130220F8BD3B78022B13D83B896F
:10145000B3EB551FF6D9FA6AB2617161002AF1D077
:1014600007F13803C5F3080102EB552200200B44B5
:10147000C6E90623F8BDFB6A002BE8D01946C5E78C
:1014800002207047FB69023B881E9842D7D27B89B5
:101490003A6B00FB0322B261DFE700BF2DE9F04F9A
:1014A0000021054607682DED028B85B0FFF7A2FFEE
:1014B000C8B94FF0FF094FF0FF3307F13808CA46AB
:1014C000EB62AC697B6B9C4213D0FB78002B4FD155
:1014D0000123224641467878FFF71CF940B14FF0CE
:1014E000FF3301207B6305B0BDEC028BBDE8F08FBC
:1014F0007C63EC692678002E00F0AB80E27AE52E62
:1015000002F03F03AB7103D0100711D50F2B39D078
:101510004FF0FF334FF0FF0AEB6200212846FFF740
:101520001FFE0028CDD005B0BDEC028BBDE8F08FCA
:101530000F2B27D0BAF1000F77D095F82B0010F0C1
:101540000100E5D195F8201005F1210214F8013BC6
:1015500005F12B065B1A002BDAD112F8011B14F8E7
:10156000013BB242A3EB0103F5D1002BD0D1BAE786
:101570003846FFF7B5F90028AAD005B0BDEC028BBC
:10158000BDE8F08F95F82B305906C6D4720647D5C2
:101590002B6906F0BF0694F80D90EB62637B4B4518
:1015A00040D1638B002B3DD194F800A00123F96852
:1015B00008EE108A0AF03F0A029601950E460AF1DB
:1015C000FF3ADFF8C0B0184625460AEB4A020391FD
:1015D00000970AEB820A13E0BAF1FE0F204618D8F2
:1015E00001F012F9804636F81A00BA4601F00CF9FB
:1015F000804520460DD1224B9B452CD01BF8013F46
:101600000AF10107EC5A0028E6D14FF6FF739C421D
:10161000F1D0DDE9007518EE108A4FF0FF0A7CE783
:10162000B245BBD04FF0FF0A77E704F10B0022462A
:101630004FEACA1312F8011B43EA5A0A824251FACE
:101640008AFA5FFA8AFAF3D1D1457FF476AF0020A7
:1016500049E7042047E72C46009F029E18EE108AB7
:101660002378019D5B0600D520B906F1FF3A5FFAA9
:101670008AFA52E7039B33F81A30002BF5D0D1E7F2
:101680001CBE010810BE01082DE9F04F0B7883B095
:101690000E4607462F2BD0F800B037D05C2B37D042
:1016A000DBF81830836033781F2B3AD95A461F2B4A
:1016B000D56898B240F22181A5F10209B046012413
:1016C00008E029F8020F631C18F8010F1F2840F2E8
:1016D0001A811C462F2804F1FF3A2CD05C282AD00E
:1016E000B4F5807F0ED0012101F06EF850B17F2853
:1016F000E7D82223B14A03E012F8013F002BE0D0E3
:101700009842F9D1062003B0BDE8F08F16F8013FEA
:101710002F2BFBD05C2BF9D00023BB6033781F2B21
:10172000C4D880230021384687F82B3003B0BDE8A9
:10173000F04FFFF75FBE335D32195C2B02D02F2BC9
:1017400040F05C81631C33441E4613F8012B2F2AA2
:10175000FAD05C2AF8D0BAF1010F4FF0000800F07F
:10176000DA80BAF1020F40F0DC806B882E2B00F09B
:101770001381934A05EB420205E0BAF1010A00F039
:10178000BC8032F8023D202BF7D02E2BF5D04FF045
:101790002033002225F81A207B623B62C7F82730ED
:1017A0002888202802D02E2840F0FC802A460023DA
:1017B00032F8020F1C4601332028F9D02E28F7D02A
:1017C00048F00308023405EB4A0333F8022D2E2AB1
:1017D00002D0BAF1010AF8D190B300230822BC4626
:1017E000314699461F462E465B461546E3460A4655
:1017F000202803D02E283AD1544538D048F0030889
:1018000036F8140001340028F2D159469B463B4675
:1018100016460F4691F820102A46E52902D10521E7
:1018200087F82010082A00F0958003F00C020C2A9B
:1018300004D003F00303032B40F0968048F0020825
:1018400087F82B803846FFF729FE97F82B3060B3D6
:1018500004287FF458AF9C0640F1E48059073AD53C
:101860008023002087F82B3003B0BDE8F08F4D4572
:1018700034D9A4EB0A01B1FA81F1490971BB7F287F
:1018800058D82B21DFF840C103E01CF8011F0029C4
:101890007AD08142F9D148F003085F200BEB0901AF
:1018A00009F1010981F82000AAE75A073FF52BAF9B
:1018B000BB79DB0640F1B4803B699BF80010C3F3B1
:1018C00008020BF13803032913445A8B02D19B8A77
:1018D00042EA0342BA603A683378E8E60B2D00F03A
:1018E0008F80544502D048F003088ED8BF0054467C
:1018F0000B254FF00809FFB282E7002306202B805A
:1019000003B0BDE8F08FA2461E444FF00408BAF1C0
:10191000010F7FF426AF2B882E2B45D04FF00042CD
:1019200028E7BAF1000FE8D06FF00042524435F8D2
:1019300012301FE7CDE9003200F046FFDDE900324A
:10194000F8B1204948F00208084410F8800C00283B
:10195000A1D096E79B0003F00C020C2A3FF46EAF77
:1019600018F0020F08D06BE718F0020F7FF468AF91
:10197000012B08BF48F01008042A08BF48F00808E7
:101980005EE748F0020886E7A0F1410119292CD84A
:1019900047F00207C0B281E72A882E2A7FF4E9AE19
:1019A000042302E001240EE7022300222E2420203B
:1019B000EA5207F1200201230DE000BF7CBD0108BF
:1019C0000100008090BD010888BD01080B2B10703C
:1019D00006D001330132591E8A45F7D91470F8E751
:1019E00048F0200887F82B802CE7A0F16101192925
:1019F0009CBF203847F00107C0B24FE71646AAE661
:101A0000594616469B4648F0030891F820203B466D
:101A10000F46E52A7FF409AF052281F8202004E76C
:101A2000052070E613F0040F08BF05206BE600BF29
:101A30002DE9F04F2DED028B90F82B308BB013F089
:101A4000A002009340F03081D0F800A00646DAF8FA
:101A50000CE0BEF80030002B00F0C98193467246BE
:101A600032F8023F0BF1010B002BF9D106F12003F4
:101A70000DF11C0893E8070088E80700009A02931C
:101A8000D1076DD56FF01F054022B1460127AD1B70
:101A900086F82B20AE4C7346029EB446052F98E87C
:101AA0000700ACE803002CF8022B4FEA12428CF836
:101AB000002071D9198800296ED09C463B46102021
:101AC00001F00102490802EB4303DA0348BF634017
:101AD0000138F5D13CF8021F0029F0D10DF11B0CA3
:101AE000072203F00F004FEA131E013A00F1300104
:101AF000392988BF00F137010F2B73460CF8011903
:101B0000EFD802F128037E216B4403F8141C002A4D
:101B100044D009F11F01002302E001339A4203D0AF
:101B200011F8010F2028F8D120334B4402F128018D
:101B3000072A0DEB01004FF0200102D810F8141C09
:101B4000013203F8011BE9180729EFD94846FFF7CE
:101B5000A5FC28BB0137642F16D0DAF80C309CE7BF
:101B6000009B54469B0726D57A4B0BF10C070021AE
:101B70003046A3FB0737FFF73DFC8146BF0801371E
:101B800008B3042840F03A814FF0070948460BB0EB
:101B9000BDEC028BBDE8F08F3B469FE71346C3E7E1
:101BA00004284E468146F1D1009B346886F82B30DC
:101BB000009B9B07D8D400213046FFF71BFC012770
:101BC00081460028DDD1054604F13808D6F818B062
:101BD000636B9B4516D0E378002B5FD101235A46F7
:101BE00041466078FEF796FD50B14FF001094FF085
:101BF000FF33484663630BB0BDEC028BBDE8F08F4A
:101C0000C4F834B0F3691B78E52B0BD0B3FA83F238
:101C100052093BB1154601213046FFF7A1FA0028D1
:101C2000D4D0AEE70135AF42F5D17B1E00933ED153
:101C3000B469DAF834309C4211D09AF80330002BA2
:101C400040F0DE80012322460AF138019AF80100B3
:101C5000FEF760FD002840F0C380CAF8344020221F
:101C60000021F06917F050F9F36906F12B01029A8F
:101C7000013B12F8010B914203F8010FF9D196F8DC
:101C80002B300122F169484603F018030B738AF8E0
:101C900003200BB0BDEC028BBDE8F08F2046FEF7B1
:101CA0001FFE00289AD06CE74FF006096EE73169F5
:101CB0003046009BA1EB4311FFF79CFB01900028ED
:101CC00040F0A68006F12B01029AC30143EA5003BB
:101CD00012F8010B50FA83F38A42D8B2F5D10AF117
:101CE0003803DFF874B0019008EE103ACDF80C908C
:101CF000B469DAF834309C420FD09AF80330002BE4
:101D000077D10123224618EE101A9AF80100FEF747
:101D100001FD002864D1CAF834409DF800900F27D7
:101D2000F169002509F1FF30DAF80CE0CF722B469B
:101D300000EB4002019F01244FF6FF7800EB820088
:101D40004FF0FF0C2A464F730D738D76CD761DE054
:101D5000211001004FECC44E10BE01083EF81030B7
:101D6000180A0B5568705BB901324FF6FF730D2AE4
:101D700023D01BF802000C1801F800C084F801C041
:101D8000013238460D2A11D01BF80240434501EBC1
:101D9000040500F10107E1D1013201F804C0074652
:101DA0000C440D2A384684F801C0EDD14FF6FF727D
:101DB000934202D03EF817300BB949F04009012395
:101DC00081F80090304600218AF80330FFF7C8F907
:101DD000A0B9009B013B00938AD1DDF80C9027E766
:101DE0004FF0FF334FF00109CAF83430CEE69B467E
:101DF0003CE65046FEF774FD002882D08146C5E6D9
:101E00005046FEF76DFD00283FF41CAF8146BDE64D
:101E1000DDF80490BAE600BF30B585B015460190F4
:101E200003A800910391FEF79DFC031E1BDB0F4CE2
:101E300054F8231009B100220A70019959B1002207
:101E4000012D44F823100A700AD101A96846FEF753
:101E50002BFE05B030BD084644F8231005B030BD58
:101E6000104605B030BD0B2005B030BD98070024EA
:101E70002DE9F04790B00191002800F0838002F036
:101E80003F071646044603A901A83A46FEF70CFE92
:101E9000054628B100232360284610B0BDE8F0872E
:101EA000039B04A801990493FFF7EEFB80B99DF909
:101EB0003B30002B6BDB16F01C0F10D09DF816305A
:101EC00013F0110F65D1730740F1CA800825E1E7CF
:101ED00016F01C0F01D004285FD00546DAE79DF804
:101EE0001630DA0657D4B10701D5DA0751D4DDF838
:101EF0000C903B0748BF47F04007D9F834302362C5
:101F00000B9B636299F800205E8B032A02D19A8AA8
:101F100046EA02460021A66004F12C0AD3F81C8090
:101F2000B9F806304FF4007227745046C4F8009098
:101F3000C4F80C80A162A3806174E161616116F054
:101F4000E3FFBF06A8D5B8F1000FA5D0B9F80A3055
:101F5000C4F81480B8EB432F4FEA432706D884E037
:101F6000701C00F0B880474580F0B580314620688D
:101F7000FEF7A6FF0128A8EB07080646F0D80225C1
:101F8000A06187E70925284610B0BDE8F08706253F
:101F900080E707257EE704257CE704A847F00807CB
:101FA000FFF746FD002898D106F072F80B9BC6B2E9
:101FB000C0F30742C0F30721000E9E734FF0200CC0
:101FC000D9731A7458740B9BDDF80C909E75D975F3
:101FD0001A7658760B9B83F80BC099F800200B9B60
:101FE000032A5E8B02D19A8A46EA024600229A763A
:101FF000DA7699F80010032901D11A755A750B9BEE
:1020000000221A775A779A77DA77012389F8033012
:10201000002E3FF46EAF04A83146D9F83480FEF7A5
:10202000F3FF00287FF459AFDDF80C90D9F8343075
:1020300098453AD099F80330002B42D1012342460B
:1020400009F1380199F80100FEF764FB88B34FF0FD
:10205000FF31039B01250E44C9F834101E6119E7B6
:102060003007A1D4DDF80C9047E7A661C8F3080358
:10207000002B3FF411AF0398023EC369023B9E421E
:1020800004D24289036B06FB02320AB9022501E73A
:1020900002EB582251460123E2614078FEF73AFBF9
:1020A00000283FF4F9AE0125F4E6013EC9F81060BE
:1020B0001FE7013EC9F83480DDF80C90C9F81060C4
:1020C00017E74846FEF70CFC0028B7D0039B013EFB
:1020D00005461E61DEE6711CA6610CBF01230023CC
:1020E000C4D11D46D6E600BF2DE9F04F1E4687B08D
:1020F0000023884605A9044633601746FEF75CFBBB
:102100000546002861D1657C002D5ED194F810A0B1
:102110001AF0010A00F0A1806069E3681B1A9F426F
:1021200028BF1F46002F50D004F50B7304F12C0B71
:10213000CDE90135C0F3080363BB0599430A4A8919
:10214000013A12EA502244D0A069CB690238023B1E
:1021500098424BD2B1F80AC00B6B0CFB0030002840
:1021600044D0B7F5007F02EB000946D2E2694A4548
:102170000BD094F91030002B71DB487801234A46CC
:102180005946FEF7C7FA002860D16369C4F81C906D
:10219000C3F30803C3F5007C5B4408F1FF32BC4580
:1021A00028BFBC4603EB0C0013F8011B834202F866
:1021B000011FF9D16069B7EB0C073368E044604454
:1021C000634460613360B5D1029D284607B0BDE825
:1021D000F08F38BBA068012808D9431C36D0059978
:1021E000A0610238CB69023B9842B3D302231D465B
:1021F0006374284607B0BDE8F08F02EB57207D0AD4
:1022000060454878414688BFACEB02054A462B46FC
:10221000FEF780FAD0B994F91020002A33DB4FEA98
:10222000452CC7E7A06A38B3216804304989B3FB5D
:10223000F1F3016829B9D9E75B1A50F8081F0029A2
:10224000D4D08B42F8D240681844C4E755460123E5
:102250002846637407B0BDE8F08F0725B5E74878D6
:1022600001235946FEF764FA0028EFD1237C059933
:1022700003F07F03237480E7A16920680392FEF7CF
:102280001FFE039AA7E7E269A2EB0909A945C6D296
:1022900008EB492904F12C01019809F1FF3211F8EA
:1022A000013B814202F8013FF9D1B8E770B3F8B5BC
:1022B000036804462BB11A781AB18188DA889142F2
:1022C00001D00920F8BD5878FEF708FAC207F8D403
:1022D000237C13F04000F5D01B06266847D405F098
:1022E000D7FE276A736B05469F4212D0F378002B06
:1022F0004AD101233A4606F138017078FEF70AFA0E
:1023000030B14FF0FF3301207363F8BD09207047EF
:102310007763636ADA7A42F02002DA72A26821688F
:10232000C2F307209A76D8760978032903D1120CD4
:102330001A75120A5A75E26830469D75110A1A77A5
:102340005977110C120E9977DA772A0ADA752A0C66
:102350002D0E1A7600225D769A74DA740123F370DA
:10236000FEF7E8FA237C23F040032374F8BD012331
:10237000E26904F12C017078FEF7DAF950B9237C98
:1023800003F07F032374AAE73046FEF7A9FA00287A
:10239000AFD0F8BD0120F8BD10B582B00446FFF7FC
:1023A00085FF08B102B010BD01A92046FEF704FA6E
:1023B0000028F7D1206002B010BD00BF2DE9F04F1A
:1023C00085B00D46044603A9FEF7F6F9064660B946
:1023D000667C56B9A36A63B16F1C6ED0E268954201
:1023E00028BF15466561002D4CD1304605B0BDE8CB
:1023F000F08FE368AB4204D2227C12F0020F08BFD8
:102400001D46002263696261002DEED0039AB2F886
:102410000A804FEA4828002B49D0013B6A1EB3FBD3
:10242000F8F1B2FBF8F28A4241D3C8F10002A76981
:102430001340ED1A6361002F00F0B680454513D8B4
:10244000E6E0FEF723FE0746002800F0AC807B1C88
:102450006FD0012F66D9039BDB69BB4262D9A845C7
:102460006369A76180F0D480227C434439462046CA
:102470009207A5EB08056361E3D42068FEF720FD11
:102480000746E4E7681E2268191D5B68400A528906
:10249000B0FBF2F22BB950E0D21A51F8083F002BF2
:1024A0004BD09342F8D94B6813449A1E47E0A76873
:1024B000002F6CD00023A761BDE71F46D4F8088029
:1024C0004FF0020957F804ABB8F1000F17D1D1450E
:1024D000C3F8009000F28A8000233B6085E709F191
:1024E0000209CA4505D33B4643F808BBC7F8048038
:1024F0001F46039BDB698B4240F2B1808846414610
:102500004FF0000B03E0481C13D08D42E7D1206848
:102510000D46FEF7D5FC01280BF1010B05F1010575
:102520000146F0D802231E466374304605B0BDE86C
:10253000F08F01231E46637457E76FF00102039F7B
:10254000A361FB69023B9342ECD979893B6B02FBA7
:102550000133002BE6D0C5F30805002D3FF445AF4D
:102560000139E2690840C518AA423FF43EAF94F928
:10257000103004F12C01002B60DB012378782A460F
:10258000FEF7C8F806460028D3D1E5612DE73946A5
:102590002046FEF77BFD01280746C3D0411CC8D06A
:1025A0006369A06087E76369E2689A4259D2227C36
:1025B000E360C3F3080342F040022274002B3FF4AF
:1025C00014AFE269BA423FF410AF94F91030002B17
:1025D0000EDB04F12C01039A012350783A46FEF7F2
:1025E00099F806460028A4D1E761FEE61126FCE62C
:1025F000039B04F12C01587801230191FEF798F810
:10260000002896D1237C019903F07F032374E2E72D
:102610002B44C5F308026361FAB10399B81ECA6975
:10262000023A9042BFF47EAF4A890F6B00FB0277FB
:10263000002F3FF477AF07EB5527B5E778780123F4
:102640000191FEF775F800287FF473AF237C039F98
:1026500003F07F03019923748FE71746A4E7A36A69
:1026600035E7C3F30803A9E710B584B0019100284A
:1026700032D00446002203A901A8FEF715FA18B1CA
:102680000023236004B010BD039B20460199236002
:10269000FEF7FAFFE0B994F92B30002B1FDBA3798A
:1026A000DB0617D5039BE16918784A8B032802D112
:1026B000898A42EA0142A260DB8800212046A38089
:1026C000FEF798FE042805D00028D9D104B010BD2B
:1026D0000428D5D10520D3E7092004B010BD039B01
:1026E000EAE700BF98B1036810B504462BB11A7829
:1026F0001AB18188DA88914201D0092010BD58783A
:10270000FDF7ECFF10F00100F7D1206010BD0920AB
:10271000704700BF20B3036870B5044633B11A7820
:1027200022B10D46DA888188914201D0092070BD1E
:102730005878FDF7D3FFC307F8D49DB12046FEF7C4
:10274000B3FD10F0FB06F2D129462046FEF74CF807
:1027500031462046FEF704FD042808BF002070BD66
:102760000920704729462046BDE87040FEF742BE6A
:10277000144B9A7B012A01D90120704793F80EC0AF
:1027800000225FFA8CFC03F80C2093F80EC003EBD8
:102790008C0CCCF8040093F80EC0987B9C448CF809
:1027A0000C2000F1010C30305FFA8CFC83F80EC075
:1027B0004FF03A0C2F23087081F801C010468B703F
:1027C000CA707047A40900247F2814D981B90D4A22
:1027D000C72303E080290DD032F8023F98421FFA48
:1027E00081FC01F10101F5D10CF1800080B270474C
:1027F000FF2801D900207047024B803833F81000C1
:10280000704700BF20BE0108B0F5805F244A41F642
:102810007D51244B34BF6121134610B5043303E0CE
:102820000433DAB133F8041C1C46B1B1884214D326
:1028300033F8022C5FFA82FC120A0CEB010E704591
:10284000EEDA082A09D8DFE802F00512181B1E216B
:1028500024270E00411A33F8110010BD04EB4C037D
:1028600034F81C10DAE7A0F5E35080B210BD431A2B
:1028700003F00103C01A80B210BD103880B210BD41
:10288000203880B210BD303880B210BD1A3880B206
:1028900010BD083080B210BD503880B210BD00BFEE
:1028A00014C1010820BF0108704700BF704700BF76
:1028B0002DE9F04FDFF89C8189461446D8F80030A6
:1028C000B3F1807F2DED028B83B077D2DFF888B132
:1028D0009BF80060002E57D0002C76D04FF0000CF3
:1028E000534BD8F80000B6461F6BE2466346D9E961
:1028F000002521E04F49B0F5800FF6EE006AB0EEFA
:10290000677A01EB80010AD291ED007A4A4927EEFD
:10291000267A01EB8001D1ED007A67EEA67A02EB10
:1029200083010130B24681ED007A05EB830101336A
:10293000C1ED007A9C4211D0874205EB8309DFED9F
:102940003F7A02EB8301D5D80133C9ED007AB44652
:102950004FF0000E9C42C1ED007AEDD1BAF1000FAC
:1029600001D0C8F80000BCF1000F2ED0344D8BF818
:1029700000E02B6801332B60BEF1000F29D103B0BA
:10298000BDEC028BBDE8F08F002CF8D0A200D9E995
:10299000005005EB8404A04202D281188D4237D347
:1029A0000021019216F0B0FA019A0021284603B0E6
:1029B000BDEC028BBDE8F04F16F0A6BA214802F03C
:1029C0002FFB0023C8F8003080E71D4D2B68013332
:1029D0002B601D4E1D4832689B1A07EE903AB8EEE8
:1029E000678A00F0F9FD07EE904AB8EE677AC0EE0C
:1029F000077AB4EEE78AF1EE10FAC0DB0C4BD8F898
:102A000000101A6B124802F00BFB2B683360B6E71C
:102A1000002340F8043B884245F8043BAFD0002334
:102A200040F8043B884245F8043BF1D1A7E700BFDA
:102A3000F01B0024000000C1000000C000000000E6
:102A4000B8090024D0C10108B4090024B82000242A
:102A5000F8C101089CB30024B020002470B54FF0E9
:102A60008072134E0021134816F04EFA4FF0807218
:102A70000021114816F048FA104C3046104D00F075
:102A8000CDFD304600F0E8FD204604F5805429686D
:102A900000F01AFD0B4A206B00230B4C10600B4A10
:102AA000296823600A481370BDE8704002F0B8BA84
:102AB000B8200024000000C1000000C0F00B00247A
:102AC000C0090024B42000249CB30024BC090024C5
:102AD00014C2010810B51648A0B002F0E9F9154B70
:102AE00093F84420EAB15C6EDCB1134B002013492B
:102AF0001A6808701444124A8442126A1C60BCBFEF
:102B000002F1FF341C60A2420DDDE2011C320D49CE
:102B10006846114416F0C5FF6A4621460A4802F08D
:102B20007FFA20B010BD00211C220C461960EEE790
:102B3000F8200024B8200024C0090024B02000247C
:102B4000F01B0024F00B002438C20108104810B517
:102B500002F044FB0F4B93F8C42082B193F8CA30C3
:102B60007F2B0CD10C4B1B784BB90C4C23783BB909
:102B70000B4802F055FA237883F00103237010BD4F
:102B8000084802F04DFA2378002BF5D1F0E700BF9A
:102B900078210024B8200024BC090024B02000249F
:102BA00054C201085CC2010870B52B4C00212046BC
:102BB00000F0F2FD012002F041FA3021204600F041
:102BC000F5FC204600F00EFD204600F017FD2348DE
:102BD0004FF48003224A234900F03EFA1F4800F0D8
:102BE000CDFA80B31D4800F093F838B301211B489B
:102BF00000F06AFC58B320461B4E00F0EFFC1B4966
:102C000020461B4D00F0D0FC04E0FFF79FFF0120A1
:102C100005F0F2FAFFF75EFF164802F0DFFA94F8CB
:102C2000B430002BF1D094F8BA307F2BEDD10122D3
:102C3000002332702B70FFF711FFE6E70E4802F019
:102C4000EFF9012070BD0D4802F0EAF9F9E70C48F0
:102C500002F0E6F9F5E700BFB8200024F00B0024ED
:102C6000000000C0000000C1BC090024B128000819
:102C7000B02000246821002478C2010864C2010841
:102C800090C2010870B5194E0025194C194A3046FA
:102C9000194916F099F804F5C07025606561256240
:102CA000E56302F001FA154B2046124AC4F83832A7
:102CB00040F20F731249A4F83C3204F51473C4F8BF
:102CC0009051C4F8403240F20113C4E99255C4F85F
:102CD000443216F079F80B4B0B490C4A1E609C608D
:102CE0005960DA60C3E9045570BD00BF98B3002491
:102CF000B820002400000024A92800080080707F6C
:102D0000AD280008F00B0024301C0024C409002466
:102D10002DE9F04100F11C040746F2B000214FF408
:102D20008052204616F0F0F87968684601F2744146
:102D3000FFF79AFC002874D105462CA96846FFF7D6
:102D4000E9FC002855D19DF8C630002B51D09DF8E4
:102D5000B83013F0120F3DD145F62E73BDF8C620E2
:102D60009A42EAD00DF130080DF1C601404616F046
:102D70008FFE2E490646404616F09BFE002843D0A3
:102D800007EBC510A6EB08024146013501321C30A5
:102D900016F092F81E2DD0DD684607F58057FFF734
:102DA000A1FC0023C7E90735002603E002F038F94B
:102DB000AE4205D02378204601368034002BF5D171
:102DC00029461B4802F02CF9281E18BF012072B0BA
:102DD000BDE8F081DA061ED49B07DBD50DF1C601F4
:102DE000144802F01DF92CA96846FFF793FC00284F
:102DF000A9D0684607F58057FFF774FC0023C7E9A0
:102E00000735002DD0D1DBE70B49404616F051FEC7
:102E10000028B5D1BEE70DF1C601084802F000F95F
:102E20008BE7002072B0BDE8F08100BFACC20108A2
:102E3000E4C20108CCC20108B4C20108BCC2010846
:102E40002DE9F0470C4692B007462C2202AB07A9A9
:102E50002046FFF749F910B9029B2C2B07D06D488B
:102E6000002502F0DDF8284612B0BDE8F087119980
:102E70006948079EDDF82480DDF82890DDF840A041
:102E800002F0CEF8654B664A9E4208BF90450CBFE3
:102E9000012500253AD1634B634A994508BF924505
:102EA00043D1BDF93E3007F580581198002B1E46DE
:102EB000C8F82800B8BFDE1DBDF932200D99F61004
:102EC000A8F82E30C8F82410A8F82C20B0FBF6F093
:102ED000B0FBF2F6C8F83400C8F83060CDE9006005
:102EE000524802F09DF861695148C8F8381002F064
:102EF00097F8D8F83810F868FFF760FA0028B2D0D1
:102F000001464C48002502F08BF8ACE79E421BD0EE
:102F1000424B9E421BD1484802F082F8474802F0DB
:102F20007FF8404B994505D001E0994516D04448BB
:102F300002F076F83C4B9A4504D04248002502F056
:102F40006FF890E700258EE79045E1D1E9E73E482C
:102F500002F066F8324B9845E0D0DCE707F5805880
:102F60000D9B3A48C8F82430BDF83230A8F82C3010
:102F7000BDF83E30A8F82E3002F052F82421204649
:102F8000FFF71CFA19E0029A042A20D104A920466E
:102F9000FFF7AAF82E4805A98DF81860DDE903327D
:102FA000059302F03DF8039A20461F4B9A422DD01C
:102FB0006169049B1944FFF701FA02AB03A90422DB
:102FC0002046FFF791F802AB06460028DBD0164BEF
:102FD000039A9A4204D01F48002502F021F842E7E4
:102FE000D8F82800B8F92E30D8F82410002B1A464B
:102FF000B8BFDA1DD210B0FBF2F0B8F92C20C8F837
:103000003400B0FBF2F6C8F8306067E70498C8F8FF
:103010002800E7E7FCC201082CC3010852494646D4
:1030200057415645666D74206461746148C4010857
:1030300084C401089CC40108CCC30108F4C301087E
:1030400040C301081CC40108E0C301086CC30108A7
:1030500084C30108A0C30108C0E90412836170475A
:10306000F8B500F580573B6B9BB300240546264618
:10307000204605E001343B6BA34228D90F2E26DC05
:103080002B69A2009FED1C7A03EB8403D3ED007A39
:10309000F4EE677AF1EE10FA20D66B691344D3EDA3
:1030A000007AF4EE677AF0EEE76AF1EE10FA1CD6D9
:1030B000F4EE476AF1EE10FADCDD21460F4801F02C
:1030C000AFFF01343B6B01360120A342D6D800B1DB
:1030D000F8BD0B4801F0A4FF0020F8BD09482146C7
:1030E00001F09EFF01360120C4E70748214601F0A8
:1030F00097FF01360120BDE7FFFF7F7F14C5010860
:1031000038C50108CCC40108F0C40108642938B5E9
:10311000044627D0662902D1144801F081FF142506
:103120004FF4FA7005F068F89FED111AA068F0EE00
:10313000410A9FED100AD83001F0F8FFA06800F0B6
:103140008BFA4FF4FA7005F057F89FED0A1AA06851
:10315000F0EE410AB0EE410AD83001F0E7FF013D40
:10316000DED138BD044801F05BFFD8E770C5010827
:103170000000000000007F435CC50108F0B585B089
:10318000032301250027044601A900688DF80C706F
:10319000CDE9013503F0CAFED8B90646104801F062
:1031A0003FFF2946606804F04FFF60682A460D49DA
:1031B0000430FEF731FE28B90B4801F031FF2846F4
:1031C00005B0F0BD20466621FFF7A0FF304605B0F0
:1031D000F0BD20466421FFF799FF384605B0F0BDE9
:1031E00080C5010894C5010898C5010800293DD093
:1031F00082682DE9F84FD0E900830C466FF06041FA
:10320000D21AA3EB08090646B4EBA20F4FEAA905B0
:10321000A1EBA9001FD9A04247D3A5422B4638BF36
:103220002346EF1844D297BBCB46BA460AEB0900B7
:10323000A200002115F068FEBBF1000F17DCB8F109
:10324000000F20D12C44C6F800A0B7600AEB84041C
:103250007460BDE8F88FA40018460021224615F0DE
:1032600053FE034623447360BDE8F88F7047414620
:103270005A46504615F02EFEB168A1EB08014046B3
:1032800015F0A7FDDEE7B168A1EB0801F7E78F4273
:1032900028BF0F46BF00384615F09DFD8246074403
:1032A000D6E90083A3EB080BC0E7024815F0A4FDA4
:1032B000014FF0E7A8C50108FCFFFF7F2DE9F04FA3
:1032C00002694FF0000A00F5805B8DB0C2F800A0E3
:1032D000804642697748C2F800A0DBF83450BBF959
:1032E0002C3029460193B5FBF3F94A4601F098FECC
:1032F000B9F1807F00F2CB80BBF92C201703B7F126
:10330000804F80F0D4800DF1270626F00F06002FA5
:1033100000F0978052031046029215F05CFD029A6D
:1033200007468418844200F0C080514615F0ECFD39
:10333000039400214FF48040C6E90011B16015F0FC
:103340004AFD00F5804300214FF48042B3603060B5
:10335000029315F0D9FD029B00217360019B9D42F1
:103360000D4659D3A4EB070ABBF92CC04FEA6A0AF1
:103370004FEA8A030293A9EB050205AB3946D8F858
:103380000C00B2F5805F28BF4FF4805202FB0CF2B4
:103390005200FEF7A9FE0346D6E90002111A891071
:1033A0008A4552D804D2029941188A4218BF7160E6
:1033B000BC420BD03A46014632F902CB07EE90CA26
:1033C0009442FAEEE87AE1EC017AF5D1002B66D16D
:1033D000BBF92CC005994FEA4C02BCF1010FB1FBBF
:1033E000F2FE3BD0914214D3D8F81010024601EB04
:1033F0008500D8F8141001EB8501D2ED007A013375
:103400000832E0EC017A9E4552ED017AE1EC017A56
:10341000F3D87544A945AED801242946264801F0C1
:10342000FFFD306818B1B168091A15F0D2FC27B158
:10343000039B3846D91B15F0CCFC20460DB0BDE8E7
:10344000F08F53033C46039373E73046AAEB010128
:103450000193FFF7CBFE3068019BA9E79142D8D3D7
:10346000D8F81010024601EB8500D8F8141001EBD3
:1034700085010133F2EC017A9E45C0ED007AC1ED81
:10348000007AF6D87544A9453FF675AFC4E75446AF
:103490000A4801F0C5FD20460DB0BDE8F08F194681
:1034A0000748002401F0BCFDBBE7039441E7054851
:1034B00015F0A2FCC4C501086CC60108F4C50108DA
:1034C0004CC6010818C60108F0B5002300F5805667
:1034D00083B00D4686F83C30044604F08BFE336A18
:1034E000AB4203DA0025284603B0F0BD04EBC5115A
:1034F000074626481C31019101F092FDF3690199BC
:10350000AB4203D0E068FEF747FF01990122E06873
:10351000FEF7AEFC48BBE1682046FFF791FC05468C
:1035200058B32046FFF7CAFE0546D0B1184801F04F
:1035300077FD2046FFF794FD0028D3D104F05AFE12
:10354000C71BDFED146A07EE907A1348F8EE677A2E
:1035500087EEA67AB7EEC77A53EC172B01F060FD21
:10356000C1E70E4801F05CFDBDE7002501460C48AF
:1035700001F056FD284603B0F0BDE068FEF70CFFF1
:10358000084801F04DFD284603B0F0BD98C601087B
:1035900004C7010800007A4420C70108E8C60108F2
:1035A000ACC60108C4C6010800F08CB938B50446A1
:1035B00000F090F9D4F8A850204600F0A7F928466A
:1035C00001F01AFCD4F8AC50204600F09FF92846D0
:1035D000BDE8384001F010BC00F078B9183002F0B6
:1035E000F1B800BF10B50446683001F0E1FB04F10A
:1035F0008800BDE8104001F0DBBB00BF10B50446F9
:10360000403001F055FC04F1B00001F0E7FD04F199
:10361000C000BDE8104001F0E1BD00BF70B586B04C
:10362000064607216D4603AC284605F0E3FC95E805
:10363000070084E80700214606F1D80001F090FD5C
:1036400095E8070084E80700214606F5967001F02A
:1036500087FD06B070BD00BF10B50446D83001F03C
:1036600095FD04F59670BDE8104001F08FBD00BFD8
:10367000F0B54FF481718FB000F1D80701254FF4F8
:10368000C0624FF4E063ADF8081000F5967402993B
:103690003846ADF80C2008AEADF810300095DDE9E5
:1036A000032301F01BFD40F201134FF4807220460A
:1036B000ADF814304FF48063059900950BADADF86B
:1036C0001820ADF81C30DDE9062301F007FD304677
:1036D000072105F08FFC96E8070085E807002946DA
:1036E000384601F03DFD96E8070085E807002946C9
:1036F000204601F035FD384601F048FD20460FB068
:10370000BDE8F04001F042BD2DE9F04140F2024336
:1037100004460222002504F1180704F1A8062DED45
:10372000028B8EB09FED1B8AADF80C3005A8039973
:1037300001F026FE02220DF12600ADF810200499BA
:1037400001F01EFE0423022205A9384601F02CFEDA
:1037500004F1680204F18803C4E92A2329463846A3
:1037600056F8048B02F044F801462046019100F01F
:10377000CDF80023F0EE480A019940461A4601F0C0
:10378000E5FA25B10EB0BDEC028BBDE8F081012554
:10379000E4E700BF6F12033B2DE9F04104469AB005
:1037A0000027019100F08CF80199204600F06EF995
:1037B00040F6061304F1B0069FED400AADF8143050
:1037C00004F1C0053046059901F0EEFC4FF400739A
:1037D00028469FED3A0AADF8183004F5C8780699E6
:1037E00001F0E2FC40F6033240F201639FED330A40
:1037F000ADF8082004F140000299ADF80C70C4F84F
:10380000D0600FAEC4F8D45007ADADF81030DDE98C
:10381000032301F01DFB2046FFF72AFF2046FFF798
:1038200073FF284601F040FC01230DF12C0E04F536
:10383000C07C1593189347F6122316971993022309
:10384000179395E80F008CE80F008EE80F0086E8CC
:103850000F00BDF840301490ADF84E30BDF8423046
:10386000D4E9625EADF84C30C4E9655EBEF1000F8C
:1038700004D072463946284615F046FB13A9404647
:1038800004F018FA04F5D27001F022FC3021204631
:1038900000F020F8D4F8A850204600F037F8284669
:1038A00001F0AAFAD4F8AC50204600F02FF82846D0
:1038B0001AB0BDE8F04101F09FBA00BF000000005F
:1038C000704700BF143001F00DBA00BF143001F092
:1038D00005BA00BF38B500F1140504462DED028B82
:1038E000284601F0EDF9284601F0F8F92846B0EE37
:1038F000408A01F0E1F9D0ED007AF8EE677A88EEBF
:10390000277ABDEC028B84ED0E7A38BD90ED0E0A5D
:10391000704700BF10B540F203338EB000244FF65D
:103920000B7240F20341ADF8083009A80123ADF84D
:103930001020ADF824202246ADF80C100094029916
:1039400007940C94CDE90544CDE90A4402F052F8FD
:1039500004A8012322460399009402F04BF809A819
:1039600002F02EF910B901200EB010BD04A802F02B
:1039700027F9A0420CBF022020460EB010BD00BFA8
:103980002DE9F04103239AB0012700240646CDE932
:1039900014373B4BCDE9104340F20453CDE91647B1
:1039A000ADF84830FFF7B6FFB842054625D00228EB
:1039B00045D040F60132334B0DF12C081894ADF888
:1039C0002C200B981997CDF84A3000F0E3F810A995
:1039D00006F13C0003F03CF9302003224FF07E5307
:1039E00041460D930E93CDE90B02F26B06F11400E4
:1039F00001F02AF91AB0BDE8F0811023214A06A986
:103A000006908DF828300DF12C081F4BCDF84A2078
:103A100007930294CDE91804CDE9080402A802F046
:103A20004FFB0823029A03A94046ADF80C508DF8CD
:103A30000E40049505930B9400F0ECF8C7E70020C6
:103A40000121104B0DF12C083A460094CDF84A3074
:103A50004FF60B730C94ADF82C302346CDE91801CA
:103A600040F601314046ADF818100699CDE90D44F5
:103A700001F0C0FF2146404602F0AEF8A7E700BFC4
:103A800004020404040604030704010B2DE9F047B3
:103A900004462DED028B82B000294DD0012140F269
:103AA000011200230091ADF804208DF80630364A4B
:103AB0000127364B04F10409354904F129086260F5
:103AC00040F20272A36040F60663E16004F1250A49
:103AD000A4F82520A4F82930278284F8277084F8D8
:103AE0002B7004F025FD054604F088FB6946064668
:103AF00050BB4DB304F130008DF8067004F0A0FC0B
:103B0000072D3CD104F114052046FFF739FF284664
:103B100001F0E4F82846B0EE408A01F0CDF8D0ED8F
:103B2000007AF8EE677A88EE277A84ED0E7A02B092
:103B3000BDEC028BBDE8F08740F2011300918DF8D7
:103B40000610ADF80430B2E704F1300004F078FC60
:103B5000072D11D04946204602F0FAFC0EB9002D7F
:103B6000D0D1504602F042F8404602F03FF804F14E
:103B7000120000F079F9C5E7002EF2D1C2E74946FC
:103B8000204602F0E5FCBDE7050805090507050626
:103B9000050A060610B584B003460124ADF80400FA
:103BA00003A8ADF80C30ADF80E4002F01FF8214626
:103BB00003A802F005F9204604F01EFB002103A82B
:103BC00002F0FEF8204604F017FB214603A802F09D
:103BD000F7F804B010BD00BF10B5C2F3002384B0E5
:103BE0000C46017C8DF80D2043EA4402FA2402239E
:103BF0008DF80C2003AA009402F0F8FA18B1012401
:103C0000204604B010BD04460A2004F0F5FA204610
:103C100004B010BD034670B543F8042B044684B0CD
:103C200007C983E80700A37983B91A210B461E222E
:103C3000FA2523742046ADF80C20022303AA009530
:103C400002F0D4FA28B1012004B070BD1B210B464C
:103C5000EDE70A2004F0D0FA4FF4B85200950223A1
:103C6000ADF80C20204603AA217C02F0BFFA002800
:103C7000E9D10A2004F0C0FA41F202720095022351
:103C8000ADF80C20204603AA217C02F0AFFA0028F0
:103C9000D9D10A2004F0B0FA042200950223ADF82D
:103CA0000C20204603AA217C02F0A0FA0028CAD1E9
:103CB0000A2004F0A1FA062200950223ADF80C2098
:103CC000204603AA217C02F091FA0028BBD10A20E9
:103CD00004F092FA41F2082200950223ADF80C207C
:103CE000204603AA217C02F081FA0028ABD10A20E9
:103CF000064604F081FA0095022303AA217C20469F
:103D0000ADF80C6002F072FA00289CD1304604F045
:103D100073FA009522790C232046002A8DF80C3086
:103D200003AA4FF0020314BF622142218DF80D1047
:103D3000217C02F05BFA002885D1304604F05CFA61
:103D40002279D4E902310B43DBB20AB943F04003D4
:103D500062790AB143F020030E22FA258DF80D3066
:103D60002046009502238DF80C2003AA217C02F046
:103D70003DFA00287FF467AF0A2004F03DFA1022D4
:103D800000950223ADF80C20204603AA217C02F006
:103D90002DFA00287FF457AF0A2004F02DFA1221E3
:103DA00000950223ADF80C1003AA217C204602F0F6
:103DB0001DFA00287FF447AF0A2004F01DFA012203
:103DC00009212046FFF708FF003818BF01203BE714
:103DD000F0B5102387B0234C0122002501260027CF
:103DE00002A920460195CDE902234FF48052CDE986
:103DF00004670DF0B1F8642005F0B8FC02A94FF497
:103E000080522046CDE9046702261027CDE90267DB
:103E10000DF0A2F80322102302A92046CDE90223C7
:103E200000230422CDE904234FF480520DF094F8CE
:103E300040F23223042202A9019310232046CDE947
:103E40000223019A012305924FF4805204930DF04E
:103E500083F840F6060120460DF09EF8284607B08C
:103E6000F0BD00BFA8B300241C4B00221C494FF03A
:103E7000400C30B5054689B00220596007219A6090
:103E80001A620124DA620A224FF4006EDC600692A4
:103E90002022CDE9000104200821CDE90201032000
:103EA0001021CDE9040108206946C3E904024FF45A
:103EB000C072181DC3E906C24FF48052C3E909E27B
:103EC0000DF020F838B92846FFF782FF003818BFF8
:103ED000012009B030BD204609B030BDA4B3002494
:103EE00040410052614A0021D0B513688EB00A915A
:103EF000002B40F0B9805E4B01214FF683700C24FB
:103F000011600221D3F8D4200026032742F4805206
:103F1000C3F8D420D3F8D42002F480520092009A3F
:103F2000D3F8E02042F01002C3F8E020D3F8E020FC
:103F300002F010020192019AD3F8E02042F0400210
:103F4000C3F8E020D3F8E02002F040020292029A87
:103F5000D3F8E02042F00802C3F8E020D3F8E020D4
:103F600002F008020392039AD3F8E02042F4807230
:103F7000C3F8E020D3F8E02002F480720492049A9F
:103F8000D3F8E02042F08002C3F8E020D3F8E0202C
:103F900002F080020592059AD3F8E02042F0200258
:103FA000C3F8E020D3F8E02002F020020692069A3F
:103FB000D3F8E02042F00402C3F8E020D3F8E03068
:103FC0000C9403F0040307930323079A0B93CDE9A2
:103FD000080108A9274807F04FFA48F237120223D0
:103FE00008A925480C94CDE90823CDE90A6707F014
:103FF00043FA4CF20372022308A920480C94CDE93D
:104000000823CDE90A6707F037FA40F2FF6202237E
:1040100008A91B480C94CDE90823CDE90A6707F0ED
:104020002BFA4FF60C72022308A916480C94CDE91E
:104030000823CDE90A6707F01FFA4FF63F02022373
:1040400008A911480C94CDE90823CDE90A6707F0C7
:1040500013FA2022022308A90A480C94CDE90A6722
:10406000CDE9082307F008FA0EB0D0BDA0B30024B4
:10407000004402580010025800180258000C025860
:1040800000200258001C0258001402582DE9F04F7D
:10409000DFF8108406460D46144608F118002DED91
:1040A000028B89B000AF02F0CBFED8F8183073B3A2
:1040B000D8F81C30D8F80490002B43690BBF4FF0A0
:1040C000080A4FF0100A4FF0020B4FF0040BB9F141
:1040D000000F2AD0A200EA46012B02F1070222F0CB
:1040E0000702ADEB020D6846ADEB020D694600F02C
:1040F0003F81022B00F0D680002B6FD02246C847AC
:10410000D5462437BD46BDEC028BBDE8F08FD8F80C
:104110001C30002BF5D0D8F804904FF0080A4FF06F
:10412000020B4369B9F1000FD4D1FB61D8F800301C
:10413000BB61002BE5D0D54802F0F4FE6B46BBF125
:10414000020F786108EE103AFB6900F083816A463D
:104150005146A2EBC40295466200EA46B2FBFBF26E
:10416000AAEBC40085460AEB8200EE46F861ADEB8F
:10417000010DF8690EEB820CC7F810C0EC46ADEBF0
:10418000010D00EB8201CCF80400CCF8081001EB23
:1041900082013869E946CCF80C1000EB8201CCF8BA
:1041A00000A001EB8202C9E900E0C9E90212012B7B
:1041B00000F06483022B00F06C82002B00F0808101
:1041C000620849466046BB69984718EE103A2437A2
:1041D0009D46BD46BDEC028BBDE8F08F002C8DD016
:1041E0001A46D8ED0C6A9FEDB27A8446331D36F933
:1041F00022E00CF1080C07EE90EA33F922E00232DB
:10420000F8EEE77A944267EE877A67EEA67A4CED8D
:10421000027A07EE90EAF8EEE77A67EE877A67EEC1
:10422000A67A4CED017AE2D8F9612246C847984E49
:10423000D8ED0D6A0020F9692B1D9FED9E7A9FED48
:104240009E6ADFED9E5A22E0F4EEC67AF1EE10FA95
:10425000C0F2C88447F6FE72D1ED017A45F82020FD
:1042600066EEA77AF4EEC77AF1EE10FA40F2F0802B
:10427000F4EEC67AF1EE10FAC0F2D58447F6FE727B
:1042800043F820200230083184427FF639AFD1ED67
:10429000007A66EEA77AF4EEC77AF1EE10FAD3D878
:1042A0003246D9E7002C3FF429AFD8ED0C6A84469A
:1042B0009FED787A0022331D8E4656F822100CF1BD
:1042C000080C07EE901A53F822100232F8EEE77A43
:1042D000944267EE877A67EEA67A4CED027A07EE93
:1042E000901AF8EEE77A67EE877A67EEA67A4CEDD9
:1042F000017AE2D871462246C7F81CE0C847664EEC
:10430000D8ED0D6A0020F9692B1D9FED6A7A9FEDAB
:104310006A6ADFF894C120E0F4EEC67AF1EE10FA92
:10432000C0F279843246D1ED017A45F8202066EE5C
:10433000A77AF4EEC77AF1EE10FA40F28780F4EE35
:10434000C67AF1EE10FAC0F25E84324643F82020BD
:104350000230083184427FF6D3AED1ED007A66EEAA
:10436000A77AF4EEC77AF1EE10FAD5D86246DAE70A
:10437000002C3FF4C3AED8ED0C6A86469FED477A19
:104380004FF0000C331D56F82C200EF1080E82F46D
:104390000002A2F5000207EE902A53F82C200CF13F
:1043A000020CF8EEE77A82F400026445A2F50002FE
:1043B00067EE877A67EEA67A4EED027A07EE902ACC
:1043C000F8EEE77A67EE877A67EEA67A4EED017A25
:1043D000D9D8F9612246C847314ED8ED0D6A002080
:1043E000F9692B1D9FED337A9FED336ADFF8BCC06E
:1043F0001FE0F4EEC67AF1EE10FAC0F2FC8332460A
:10440000D1ED017A45F8202066EEA77AF4EEC77A5E
:10441000F1EE10FA18D9F4EEC67AF1EE10FAC0F205
:10442000DA83324643F820200230083184427FF696
:1044300067AED1ED007A66EEA77AF4EEC77AF1EEB8
:1044400010FAD6D86246DBE76246EBE762467DE7C4
:10445000324615E7A100D6466208073121F0070170
:10446000ADEB010DEA46ADEB010D6946ADEB0E0D6E
:104470000AEB8200EC46ADEB0E0D01EB8202F86117
:10448000E946CCE900A0C9E9001290E6F8B300249F
:104490000280FFFF000000300082FF7F0000003438
:1044A00082FF7F00DCB30024007E00807E0080FF5E
:1044B0000000003804FF7FBF04FF7F3F00FEFF467F
:1044C000002C00F0C982BBF1020FD8F8242000F0C4
:1044D000FA827969C7F8049002EB810E5FED0C5AFD
:1044E0008A00DCF808100EF104007A611A46DCF844
:1044F0000C303B61331DD7F810903D61FD69C7E971
:1045000002CB8C46834636F92210D8ED0C7A06EEA3
:10451000101A33F9221006EE901A3EF92210B8EE66
:10452000C66A07EE101AF8EEE66A3BF92210B8EEFA
:10453000C77A26EE256A66EEA56A27EE257A26EE6C
:10454000276A66EEA76A27EE277A07EE901A5108C7
:104550000232F8EEE77A0AEB8100944280ED006ABD
:1045600005EB810067EEA57AC0ED006A0CEB8100D7
:1045700009EB810180ED007A98ED0C7A67EE877A7D
:10458000C1ED007ABFD8D7F804903D69D7E902CBD6
:1045900060466208BB6949469847D8F82C307A696A
:1045A000D8ED0D6A1A441FED3D7A1FED3D6A2B1DB3
:1045B000904602F1040A5FED3F5A0022A84ED9E965
:1045C00000EC51E0F4EEC67AF1EE10FAC0F2C782C8
:1045D00047F6FE7045F822000CEB0100D0ED007AA2
:1045E00066EEA77AF4EEC77AF1EE10FA4BD9F4EE44
:1045F000C67AF1EE10FAC0F2BA8247F6FE70BBF14D
:10460000020F43F822002BD0D9F808000844D0ED5F
:10461000007A66EEA77AF4EEC77AF1EE10FA36D990
:10462000F4EEC67AF1EE10FAC0F2CD8247F6FE70D3
:1046300048F82200D9F80C000144D1ED007A66EE6A
:10464000A77AF4EEC77AF1EE10FA1ED9F4EEC67A24
:10465000F1EE10FAC0F2AF8247F6FE714AF822106E
:10466000023294427FF6B1AD51080EEB8100890011
:10467000D0ED007A66EEA77AF4EEC77AF1EE10FA82
:10468000A0D83046A6E73046B9E73146E6E73046DF
:10469000CEE7002C00F0E081BBF1020FD8F8243007
:1046A00000F0E1817A69DCF8081003EB820EC7F8AC
:1046B00004909300DFED6B5A0EF1040000227B6141
:1046C000DCF80C303B61331DD7F810903D61FD697B
:1046D000C7E902CB8C46834656F82210D8ED0C7AF7
:1046E00007EE101A53F82210B8EEC76A07EE101A38
:1046F0005EF82210F8EEC76A07EE101A26EE256A59
:104700005BF82210B8EEC77A66EEA56A26EE276A35
:1047100027EE257A66EEA76A27EE277A07EE901A2B
:1047200051080232F8EEE77A0AEB8100944280EDFC
:10473000006A05EB810067EEA57AC0ED006A0CEB1C
:10474000810009EB810180ED007A98ED0C7A67EE2B
:10475000877AC1ED007ABFD8D7F804903D69D7E9D0
:1047600002CB60466208BB6949469847D8F82C30AE
:104770007A69D8ED0D6A1A449FED3E7A9FED3E6A44
:10478000131D9246DFF8E4C00022FB612B1D364E5C
:10479000D9E9008E4EE0F4EEC67AF1EE10FAC0F2DE
:1047A000FC81304645F822000EEB0100D0ED007A86
:1047B00066EEA77AF4EEC77AF1EE10FA49D9F4EE74
:1047C000C67AF1EE10FAC0F2EF813046BBF1020F6B
:1047D00043F822002AD0D9F808000844D0ED007A26
:1047E00066EEA77AF4EEC77AF1EE10FA35D9F4EE58
:1047F000C67AF1EE10FAC0F2C98130464AF82200BA
:10480000D9F80C000144D1ED007A66EEA77AF4EEF7
:10481000C77AF1EE10FA1ED9F4EEC67AF1EE10FA6C
:10482000C0F2AD813146F86940F82210023294425C
:104830007FF6CBAC510808EB81008900D0ED007AFF
:1048400066EEA77AF4EEC77AF1EE10FAA3D86046C6
:10485000A8E76046BAE76146E5E76046CEE700BFF5
:104860000280FFFF000000300082FF7F007E00809A
:104870000000003404FF7FBF04FF7F3F002C00F0E6
:10488000EB807A690021D8F82430C7F8109003EB48
:10489000820ED7F81C909300FD610EF104021FED0B
:1048A0000C6A7B61331D154656F821204808D8ED67
:1048B0000C6ABBF1020F82F40002A2F5000207EEBF
:1048C000902A53F8212082F40002B8EEE77AA2F58C
:1048D000000227EE067A07EE902A0AEB8002F8EE35
:1048E000E77A27EE267A67EE867A82ED007A09EB80
:1048F00080024FEA800067EEA67AC2ED007A27D0E8
:104900005EF8212082F40002A2F5000207EE902A50
:1049100055F8212082F40002B8EEE77AA2F50002F1
:1049200027EE067A07EE902ADCF80820F8EEE77A00
:10493000024427EE267A67EE867A82ED007A98EDB9
:104940000C7ADCF80C2067EE877A0244C2ED007A1C
:1049500002318C42A8D8D7F8109060466208BB6933
:104960004946FD699847D8F82C307A69D8ED0D6A28
:104970001A441FED407A1FED406A131D9246DFF87E
:10498000C4C20022FB612B1DAB4ED9E9008E4EE064
:10499000F4EEC67AF1EE10FAC0F2C580304645F862
:1049A00022000EEB0100D0ED007A66EEA77AF4EE5D
:1049B000C77AF1EE10FA49D9F4EEC67AF1EE10FAA0
:1049C000C0F2BF803046BBF1020F43F822002AD06C
:1049D000D9F808000844D0ED007A66EEA77AF4EE24
:1049E000C77AF1EE10FA35D9F4EEC67AF1EE10FA84
:1049F000C0F2AE8030464AF82200D9F80C000144DB
:104A0000D1ED007A66EEA77AF4EEC77AF1EE10FAED
:104A10001ED9F4EEC67AF1EE10FAC0F28B80314660
:104A2000F86940F82210023294427FF6CEAB51086A
:104A300008EB81008900D0ED007A66EEA77AF4EEEB
:104A4000C77AF1EE10FAA3D86046A8E76046BAE745
:104A50006146E5E76046CEE7224649466046BB69C7
:104A60009847FFF7B2BBC7F810B0002298ED0C6A68
:104A7000331DDFED726AD7F81CB0786956F8221042
:104A800007EE901A53F82210B8EEE77A07EE901A64
:104A900051080232F8EEE77A27EE267A0AEB810E09
:104AA00094420BEB810167EEA67A27EE067A67EE59
:104AB000867A8EED007AC1ED007ADFD88300D7F8D0
:104AC00010B07B614DE61A46C7F810B098ED0C6A3D
:104AD000331DDFED5B6AD7F81CB0786936F9221018
:104AE00007EE101A33F9221007EE901AB8EEC77AC3
:104AF00051080232F8EEE77A27EE267A0AEB810EA9
:104B000094420BEB810167EEA67A27EE067A67EEF8
:104B1000867A8EED007AC1ED007ADFD88300D7F86F
:104B200010B07B6134E5F0EE675AFEEEE45A15EE04
:104B3000900A34E7F0EE675AFEEEE45A15EE901A4A
:104B40006EE7F0EE675AFEEEE45A15EE900A3AE789
:104B5000F0EE675AFEEEE45A15EE900A4BE767EE68
:104B6000A57AFDEEE77A17EE900A00B232E567EE1D
:104B7000A57AFDEEE77A17EE900A00B23FE5F0EE77
:104B8000675AFEEEE05A15EE901A4CE6F0EE675AC0
:104B9000FEEEE05A15EE900A30E6F0EE675AFEEEB1
:104BA000E05A15EE900AFDE5F0EE675AFEEEE05A87
:104BB00015EE900A0AE667EEA57AFDEEE77A17EEA3
:104BC000901A09B24AE567EEA57AFDEEE77A17EE8C
:104BD000900A00B22CE5F0EE675AFEEEE45A15EEAC
:104BE000902A1FE467EEA57AFDEEE77A17EE902A89
:104BF00012B2FFF731BBF0EE675AFEEEE45A15EE43
:104C0000902AFFF7FDBBF0EE675AFEEEE05A15EE74
:104C1000902AFFF79BBBF0EE675AFEEEE05A15EEC6
:104C2000902AFFF780BB67EEA57AFDEEE77A17EED4
:104C3000902A12B2FFF724BB82FF7F0000000030F1
:104C4000000000387E0080FF30B5184C154685B056
:104C5000046004F1080EEC460FC98EE80F00D4ED95
:104C6000047AF5EEC07A8CE80F00F1EE10FA1ADD46
:104C7000B7EE006A94ED057A27EE277AC6EE276A2A
:104C800084ED0D7AC4ED0C6A6DB1204640F8185FD2
:104C900002F0D6F8064903690020064A2162A262A2
:104CA000E36005B030BD012005B030BDDCB30024A9
:104CB000002000300000003000680830704700BF5E
:104CC000B1F5807F03680A4628BF4FF48072B1F5C2
:104CD000807F9A6094BF00200120704700681830E0
:104CE00002F00EB930B5046883B00D46E3694BB1EC
:104CF000A3680020E26A616A9B00009004F11C0036
:104D000002F0A0F8A3680748A26A9B00216A0090FD
:104D100004F1180002F096F80020C4E9005003B036
:104D200030BD00BF8D40000810B4074B4FF07E51DE
:104D300030240022032019619C60D8605DF8044B88
:104D40005961C3E906227047DCB30024F6EE007A0D
:104D50009FED166A20EE207A0160F7EE006A80ED82
:104D6000036A80ED020A27EE277AC6EE877AF4EE10
:104D7000E67AF1EE10FA11DDF0EE667A4FF07E5130
:104D80004FF0000C02760022C0ED017AC0F814C08A
:104D9000016143768276C0ED070A7047F4EEC67A69
:104DA000F1EE10FAEAD5F0EE467AE7E700000000EF
:104DB0000268037E128807EE902AFBEEC87A1BB1C8
:104DC000B7EE007A77EE677AD0ED056A90ED047A57
:104DD00077EEE67A437E67EE877A0BB1F1EE677A7B
:104DE00090ED030A90ED017A77EEC07AA7EE270ADC
:104DF00080ED030A704700BF837E80ED020AABB9E5
:104E0000D0ED077A27EE800AF6EE007AB7EE007A48
:104E100020EE270AC7EE007AF4EEC77AF1EE10FA18
:104E200007DDF0EE477AC0ED017A7047DFED067AD4
:104E3000E8E7F5EEC07AF1EE10FAF4D5DFED037A8B
:104E4000C0ED017A704700BF6F12033B0000000005
:104E500030B585B004460025ADF80C10ADF808203B
:104E6000ADF8043003F0C6F9BDF80C204FF48073A0
:104E7000206004F118002283BDF808206383E383D7
:104E8000A283257100F0B2FE04F11C0000F0AEFE1A
:104E90009FED060A019904F1080000F085F94FF62C
:104EA000FF736562238405B030BD00BF00000000C1
:104EB000F8B5044603F09EF9002623682671834264
:104EC00005D104F10800BDE8F84000F087B90127DA
:104ED00094F82050206004F11800BD40277100F0C4
:104EE00061FF6DB2284394F82150BD4084F8200042
:104EF00004F11C0000F056FF94F820306DB2666299
:104F000003F003032843022BC0B284F8210009D028
:104F100000F003000228D4D1002BD2D14FF0FF3390
:104F20006362CEE78307CCD16762CAE7704700BFF0
:104F3000F8B5134F3C687F2C07D98023114A42F201
:104F400024411C463B60A2F87E100F4D2B68012BBC
:104F50000AD90C4E0D4D22463146284600F0F4F990
:104F60000028F8D13860F8BD22460649074800F00D
:104F7000EBF90028F7D12B68386001332B60F8BDBE
:104F800018B400241CB4002414B400249CB40024DD
:104F900030B4154C2168F1B14B1E144DE81810F8CF
:104FA00001298C4619460A2A01D00D2A02D14BB19B
:104FB000013BF4E70CF102037F2B10D9802323601F
:104FC00030BC70470122022323600D200A2368545D
:104FD000AB5430BC704701220223044DF4E70CF1BE
:104FE00001026146F0E700BF18B400241CB400249D
:104FF00010B5094C02460B46084821680844C1F127
:10500000800114F097FD236818442060FFF7C0FF6B
:10501000FFF78EFF10BD00BF18B400241CB400249D
:105020000FB400B583B004A951F8040B0191FFF748
:10503000DFFF03B05DF804EB04B0704710B5044621
:1050400000210A4800F0FAF8002C094B14BF022294
:10505000002208481A60FFF7E3FF0748FFF7E0FF68
:105060000A20BDE8104003F0C7B800BF9CB400247C
:1050700014B4002438C7010848C70108064A074984
:10508000074808B513F0A0FE034A04490548BDE8E7
:10509000084013F099BE00BF000000242D4F000807
:1050A0009CB40024A0B40024074A118830B4818045
:1050B0000024064D91884FF4807285600460C180A1
:1050C000C26030BC704700BF38BD010800400030EE
:1050D00000220A2302700371704700BF30B585B00B
:1050E00004469FED110A9DF82050ADF80C1003996D
:1050F000ADF808202A46ADF804308DED000A11F015
:10510000DFFC9DED000A2A46029904F11C0011F013
:10511000D7FC9DED000A2A46019904F1380005B03C
:10512000BDE8304011F0CCBC00007A4410B52DED44
:10513000028BF0EE608A0446B0EE418A11F0E4FC86
:1051400004F11C00B0EE680A11F0DEFCB0EE480A73
:1051500004F13800BDEC028BBDE8104011F0D4BC66
:1051600038B50C46054691ED000A11F0CDFC94EDE2
:10517000010A05F11C0011F0C7FC94ED020A05F1CB
:105180003800BDE8384011F0BFBC00BF10B5044680
:1051900011F0CCFC04F11C0011F0C8FC04F1380043
:1051A000BDE8104011F0C2BC70B5044682B0C1F336
:1051B0000726CDB2ADF8041003F01CF84FF480724E
:1051C0004FF001232060A01DA571A280E671A360AD
:1051D00002B0BDE8704000F009BD00BF38B504461C
:1051E00003F008F8002223682271834210D00122C4
:1051F000A57AE37A954020602271A01D6DB243B973
:1052000000F0D0FD40B22843C0B27F28A0720AD07F
:1052100038BD00F0C7FDB0FA80F040092843C0B2A5
:105220007F28A072F4D102F0E5FF07EE900AF8EEB5
:10523000677AC4ED037A38BD704700BF012910B505
:1052400006D0022915D051B1BDE8104008F06CB865
:105250000A463448344910F04FFAE8B1FEE7334BC0
:105260000A46334C334934481C6010F045FA68B1A3
:10527000FEE701222C492B4810F03EFA00B1FEE770
:105280002E49284810F05AFAC0B1FEE72B492A48A7
:1052900010F054FA60B1FEE72849224810F04EFAA7
:1052A00000B1FEE726491F4810F0D6F908B3FEE723
:1052B0002449214810F0D0F9A8B1FEE72049194847
:1052C00010F0CAF900B1FEE7164810F04DFA024698
:1052D00040B9164B164C174917481C6010F00CFAD1
:1052E00068B1FEE7FEE7144810F03EFA0028ABD0A4
:1052F000FEE70C4810F038FA0028A5D0FEE70F4969
:105300000D4810F01BFA00B1FEE70E490A4810F0F4
:10531000A3F900B1FEE7084810F026FA002893D060
:10532000FEE700BF40B7002490020024DCB900244F
:105330003952000874020024A4B40024F8020024A6
:105340005402002444020024084691B208B503F038
:1053500029FA003818BF012008BD00BF014807F036
:10536000C1BA00BFC0F40024014807F0BBBA00BFB7
:10537000C0F40024014807F0B5BA00BFC0F400240F
:1053800000B583B04FF0000E4FF0030C4274ADF83F
:105390000410BDF8043080F810E0A0F802C00380CB
:1053A00003B05DF804FB00BF2DE9F04FDFF81C836C
:1053B00000258DB0C04C037008F1400342600746E1
:1053C00001920E46202229464046C4F86831C4F8AE
:1053D0006481CDE90255CDE90455CDE90655CDE905
:1053E0000855CDE90A5513F08FFD2022294604F512
:1053F000A170C4F83151C4F83551C4F83951C4F81A
:105400003D5113F081FD019B84F8485284F83031FE
:105410007A68002A6AD02B4604F59871454606F151
:10542000100A9E46F01856F803B0E2180EF1010E6D
:10543000D0F80CC0D0F80490D0F8088044F803B03D
:10544000C2F80CC04FF0000CC2F80490C2F80880FB
:10545000008A25F802CB10821AF8032001F8012FE8
:10546000002A70D07A684FF001001233724584F838
:105470004802D7D84FF4802290489DF80430082184
:105480004FF000084FF00009C4F884310023C4E94C
:105490005B020122C4F8743184F88031C4E95E21D2
:1054A00094F84812C4E96489A9B3C4F89821002289
:1054B00084F8813184F888313B78C4E96722002B75
:1054C00038D0012200200121013B84F8A421C4E945
:1054D0006C01082B30D8DFE813F0BD00C200C70014
:1054E000CC00D100D600DB00E100E8009DF80430DC
:1054F0000121C4F87421C4F884314FF4802384F866
:1055000080216E4AC4E95B2308230022C4E95E13AC
:105510000023C4E964230123002284F8813100239D
:1055200084F888310323C4F898313B78C4E96722B2
:10553000002BC6D184F8A431614804F04FFD034626
:1055400038B1FFBEFEE77A68123372453FF66AAFA4
:1055500090E702A95A48029304F09EFE8246002872
:1055600076D1042240F2FF710A90CDE9081294F836
:105570003021002A00F0F3804FF006080AEBCA033E
:105580004FEACA0904EB43035B7C072B07D8DFE82B
:1055900003F0595C5653504D4A04072307930FFA02
:1055A0008AF6D14406EBC60604EB490904EB46072C
:1055B0007500384600F01AFB99F81030042B00F300
:1055C000AA80022B00F3BD8000F0B98004EB0A032F
:1055D000002283F8202114F81630002B78D0022BFB
:1055E00000F08A80012B40F0B2807B78012B00F024
:1055F000B080002B334B18BF002305A93048CDE9FC
:10560000053804F017F9002840F0AC800AF1010ACF
:1056100094F830315FFA8AFA534540F2A0802A4B61
:1056200053F82A80AAE706230793B8E705230793D0
:10563000B5E704230793B2E703230793AFE70223F9
:105640000793ACE700230793A9E701230793A6E795
:10565000FFBEFEE703224023C4E96A236CE707226A
:105660006023C4E96A2367E70F228023C4E96A2321
:1056700062E71F22A023C4E96A235DE73F22C0231B
:10568000C4E96A2358E77F22E023C4E96A2353E789
:10569000FF224FF48073C4E96A234DE740F2FF1202
:1056A0004FF49073C4E96A2346E740F2FF324FF4A7
:1056B000A073C4E96A233FE7E8B900240020024050
:1056C00054BB00240002B02558C701080041003037
:1056D0007B78062B37D0072B3DD0022B4AD0032BEB
:1056E0004AD0002B4CD0012B48D0042B4AD0052B9C
:1056F000254B18BF002380E77B78042B25D0052B92
:105700002BD08BB3012B31D0022B31D0032B1F4B6D
:1057100018BF002371E70323043504EB0A0B4FF095
:10572000000925448BF82031284609F1010900F0D1
:105730005DFA9BF8203104354B45F5DC4BE701233E
:10574000EAE70223E8E7124B57E7124B55E700233D
:1057500053E7114B51E7114B4FE7114B4DE70DB09C
:10576000BDE8F08FFFBEFEE70E4B46E70E4B44E769
:105770000E4B42E70E4B40E70E4B3EE70E4B3CE72D
:105780000E4B3AE70E4B38E70000B84F002090363A
:105790000800900C1000C0102000F0148000501D74
:1057A000000180210004002A0008302E0010603221
:1057B0000040C03A0080F03E000052470000214304
:1057C0000000844B38B5094C40F2FF724FF00111D4
:1057D00004F5B675284604F00DFD94F83021D4F890
:1057E00064112846BDE8384004F078BAE8B90024CE
:1057F000034B0F29D3F8640198BF00EB41007047B9
:10580000E8B90024214B02689A4200D07047204A30
:1058100000232048D2F8D81030B51F4C41F02001A9
:1058200083B0C4F8D001092004F5E875C4E9750314
:105830004FF48060C2F8D810D2F8D8204FF400613D
:10584000C4E9773094F8480202F02002C4F8E41169
:105850004FF40051984201922846C4F8E811C4E977
:105860007C33019B14BF00234FF48073C4F8EC31E8
:1058700004F038FF08B1FFBEFEE704F5B673C4F8C4
:10588000B851C4F8083203B030BD00BF0020024058
:105890000044025840000240E8B90024014805F0E5
:1058A00099BA00BFB8BB002402682DE9F84F4B4BF2
:1058B0009A4201D0BDE8F88F494D95F84832002B47
:1058C000F8D095F83031002B77D0002405F10C0981
:1058D00005F5A17605F59877A04613E003F00101E0
:1058E00017F811BCA9F1080000F06AFABBF1010F2A
:1058F00025D895F83031013409F112090236A2B2E7
:1059000093422BD917F8012F002AF4D0D5F864312F
:105910000021327833F81400D5F8683103EB041312
:1059200023F81200338801339BB233805FFA83FA85
:105930003A789A42D2D88A46A6F80080D0E7CAF3CD
:105940004001A9F1040000F03BFABBF1020FCAF3D9
:105950008001CED0484600F033FACAE7002395F81C
:105960004802204909229842C5F8D8314FF4806096
:10597000C5F8D011C5F8D4214FF400614FF400529E
:10598000C5F8DC3108BF4FF48073C5F8E821C5E9DC
:10599000780100221448C5E97B32C5F8F42104F0EF
:1059A000A1FE08B1FFBEFEE795F83021D5F86411DD
:1059B0000E48BDE8F84F04F091B90A4909224FF4A6
:1059C0008060C5F8D831C5E974124FF400614FF416
:1059D0000052C5E97730C5E97912DAE700200240C4
:1059E000E8B9002440000240B8BB002454BB0024A6
:1059F000704700BF10B592B0ADF804100180C9B275
:105A0000149C0B29C460C0E901233FD090F801C069
:105A1000BCF10F0F3AD8022A3FD0032A02D0012A44
:105A200000D000220E92012B02D0022B18BF0023BF
:105A3000022C0F932CD0032C2AD0012C28D0002329
:105A40000A29109327D85C4A02EB812202610A29B5
:105A500014D8DFE801F0A39587796B5D4F413325BA
:105A60000600564BD3F8E01041F48061C3F8E01013
:105A7000D3F8E03003F480630C930C9B01230DA951
:105A8000104603FA0CF30D9305F0F6FC12B010BDAE
:105A90000A291094D7D90022D8E711220E92C2E722
:105AA000464BD3F8E01041F40071C3F8E010D3F88E
:105AB000E03003F400730B930B9BDFE73F4BD3F80D
:105AC000E01041F48071C3F8E010D3F8E03003F443
:105AD00080730A930A9BD1E7384BD3F8E01041F06A
