:020000042400D6
:1000000000000220110A00240D0A0024D5A80024B3
:100010000D0A00240D0A00240D0A0024000000002F
:100020000000000000000000000000000D0A002495
:100030000D0A0024000000000D0A002459A8002425
:100040000D0A00240D0A00240D0A00240D0A0024C4
:100050000D0A00240D0A00240D0A00240D0A0024B4
:100060000D0A00240D0A00240D0A0024E192002448
:10007000ED92002441800024F9920024059300248D
:10008000D5A200240D8800240D0A00240D0A0024A6
:100090000D0A00240D0A00240D0A00240D0A002474
:1000A0000D0A00240D0A00240D0A00240D0A002464
:1000B00001A601240DA6012419A6012441880024CB
:1000C0000D0A00244D8800240D0A0024719E01248D
:1000D0007D9E012409A1002435A1002469A10024EA
:1000E0000D0A00240D0A0024000000000D0A00245F
:1000F0000D0A00240D0A00240D0A00240D0A002414
:100100000D0A00245198002425A60124899E01246B
:100110009DA10024D1A100240D0A00240D0A002471
:100120000D0A00240D0A0024AD9E0124E19E012445
:1001300009A300240D0A00240D0A00240D0A00243E
:1001400000000000000000000000000000000000AF
:100150000D0A00240D0A00240D0A002405A2002423
:10016000598800240D0A002469A800248DA80024C1
:100170000D0A0024B1A800240D0A00240D0A002451
:100180000D0A00240D0A002439A200246DA20024C7
:10019000959E0124A19E01240D0A00240D0A00242D
:1001A0000D0A00240D0A00240D0A00240D0A002463
:1001B000019000240D0A00240D0A00240D0A0024D9
:1001C0000D0A00240D0A0024017B00240D7B00246D
:1001D0000D0A0024197B00240D0A00240D0A0024B6
:1001E0000D0A00240D0A00240D0A00240D0A002423
:1001F0000D0A00240D0A00240D0A00240D0A002413
:100200000D0A00240D0A00240D0A00240D0A002402
:100210000D0A00240D0A00240D0A00240D0A0024F2
:100220000D0A00240D0A00240D0A0024000000001D
:100230000D0A00240D0A0024000000000D0A00240D
:100240000D0A00240D0A00240D0A00240D0A0024C2
:100250000D0A00240D0A00240D0A00240D0A0024B2
:100260000D0A00240D0A00240D0A00240D0A0024A2
:100270000D0A00240D0A0024A1A2002400000000A1
:100280000D0A00240D0A00240D0A002400000000BD
:08029000000000000D0A00242B
:1002A00010B5054C237833B9044B13B10448AFF3B0
:1002B00000800123237010BD00E80224000000002C
:1002C000C41B022408B5034B1BB103490348AFF319
:1002D000008008BD0000000004E80224C41B0224C2
:1002E00001F0FF01102A2BDB10F0070F08D010F8E7
:1002F000013B013A8B422DD010F0070F42B3F6D1EB
:10030000F0B441EA012141EA014122F007047FF003
:1003100000070023F0E80256083C85EA010586EA5A
:10032000010685FA47F5A3FA87F586FA47F6A5FA96
:1003300087F68EB9EED1F0BC01F0FF0102F00702A2
:1003400032B110F8013B013A83EA010313B1F8D14D
:100350000020704701387047002D06BF354603382E
:10036000073815F0010F07D1013015F4807F02BF67
:10037000013015F4C03F0130F0BC0138704700BFB8
:10038000034613F8012B002AFBD1181A01387047D5
:1003900081F0004102E000BF83F0004330B54FEA36
:1003A00041044FEA430594EA050F08BF90EA020FA3
:1003B0001FBF54EA000C55EA020C7FEA645C7FEA36
:1003C000655C00F0E2804FEA5454D4EB5555B8BF59
:1003D0006D420CDD2C4480EA020281EA030382EACA
:1003E000000083EA010180EA020281EA0303362D5C
:1003F00088BF30BD11F0004F4FEA01314FF4801C2F
:100400004CEA113102D0404261EB410113F0004F40
:100410004FEA03334CEA133302D0524263EB4303F7
:1004200094EA050F00F0A780A4F10104D5F1200E95
:100430000DDB02FA0EFC22FA05F2801841F10001F0
:1004400003FA0EF2801843FA05F359410EE0A5F1C4
:1004500020050EF1200E012A03FA0EFC28BF4CF0F5
:10046000020C43FA05F3C01851EBE37101F00045AB
:1004700007D54FF0000EDCF1000C7EEB00006EEBB8
:100480000101B1F5801F1BD3B1F5001F0CD3490842
:100490005FEA30004FEA3C0C04F101044FEA445299
:1004A00012F5800F80F09A80BCF1004F08BF5FEA20
:1004B000500C50F1000041EB045141EA050130BD00
:1004C0005FEA4C0C404141EB0101013C28BFB1F512
:1004D000801FE9D291F0000F04BF01460020B1FA5D
:1004E00081F308BF2033A3F10B03B3F120020CDA30
:1004F0000C3208DD02F1140CC2F10C0201FA0CF00E
:1005000021FA02F10CE002F11402D8BFC2F1200C72
:1005100001FA02F120FA0CFCDCBF41EA0C01904028
:10052000E41AA2BF01EB0451294330BD6FEA040471
:100530001F3C1CDA0C340EDC04F11404C4F120025C
:1005400020FA04F001FA02F340EA030021FA04F36E
:1005500045EA030130BDC4F10C04C4F1200220FAC5
:1005600002F001FA04F340EA0300294630BD21FA03
:1005700004F0294630BD94F0000F83F4801306BFC9
:1005800081F480110134013D4EE77FEA645C18BFBD
:100590007FEA655C29D094EA050F08BF90EA020F54
:1005A00005D054EA000C04BF1946104630BD91EA4C
:1005B000030F1EBF0021002030BD5FEA545C05D14F
:1005C0004000494128BF41F0004130BD14F580048E
:1005D0003CBF01F5801130BD01F0004545F0FE4102
:1005E00041F470014FF0000030BD7FEA645C1ABF37
:1005F000194610467FEA655C1CBF0B46024650EA6E
:10060000013406BF52EA033591EA030F41F4002199
:1006100030BD00BF90F0000F04BF0021704730B51F
:100620004FF4806404F132044FF000054FF00001F4
:1006300050E700BF90F0000F04BF0021704730B5B5
:100640004FF4806404F1320410F0004548BF40428A
:100650004FF000013EE700BF42004FEAE2014FEADF
:1006600031014FEA02701FBF12F07F4393F07F4FBA
:1006700081F06051704732F07F4208BF704793F0BD
:100680007F4F04BF41F40021704730B54FF46074D0
:1006900001F0004521F000411CE700BF50EA0102D3
:1006A00008BF704730B54FF000050AE050EA01027C
:1006B00008BF704730B511F0004502D5404261EBEC
:1006C00041014FF4806404F132045FEA915C3FF42D
:1006D000D8AE4FF003025FEADC0C18BF03325FEACA
:1006E000DC0C18BF033202EBDC02C2F1200300FA7B
:1006F00003FC20FA02F001FA03FE40EA0E0021FAA0
:1007000002F11444BDE600BF53B94AB9002908BF3D
:1007100000281CBF4FF0FF314FF0FF3000F074B9DC
:10072000ADF1080C6DE904CE00F006F8DDF804E048
:10073000DDE9022304B070472DE9F047089D044627
:100740008E46002B4DD18A42944669D9B2FA82F284
:1007500052B101FA02F3C2F1200120FA01F10CFAC0
:1007600002FC41EA030E94404FEA1C48210CBEFBF8
:10077000F8F61FFA8CF708FB16E341EA034306FB81
:1007800007F199420AD91CEB030306F1FF3080F010
:100790001F81994240F21C81023E63445B1AA4B25D
:1007A000B3FBF8F008FB103344EA034400FB07F7FF
:1007B000A7420AD91CEB040400F1FF3380F00A8140
:1007C000A74240F207816444023840EA0640E41B35
:1007D00000261DB1D4400023C5E900433146BDE8E1
:1007E000F0878B4209D9002D00F0EF800026C5E983
:1007F000000130463146BDE8F087B3FA83F6002E9B
:100800004AD18B4202D3824200F2F980841A61EB12
:10081000030301209E46002DE0D0C5E9004EDDE730
:1008200002B9FFDEB2FA82F2002A40F09280A1EB18
:100830000C014FEA1C471FFA8CFE0126200CB1FB6D
:10084000F7F307FB131140EA01410EFB03F0884266
:1008500008D91CEB010103F1FF3802D2884200F2F3
:10086000CB804346091AA4B2B1FBF7F007FB101185
:1008700044EA01440EFB00FEA64508D91CEB040423
:1008800000F1FF3102D2A64500F2BB800846A4EB7E
:100890000E0440EA03409CE7C6F12007B34022FA69
:1008A00007FC4CEA030C20FA07F401FA06F31C4398
:1008B000F9404FEA1C4900FA06F3B1FBF9F8200CA5
:1008C0001FFA8CFE09FB181140EA014108FB0EF0EB
:1008D000884202FA06F20BD91CEB010108F1FF3A3B
:1008E00080F08880884240F28580A8F10208614447
:1008F000091AA4B2B1FBF9F009FB101144EA014155
:1009000000FB0EFE8E4508D91CEB010100F1FF34FF
:100910006CD28E456AD90238614440EA0840A0FB97
:100920000294A1EB0E01A142C846A64656D353D06D
:100930005DB1B3EB080261EB0E0101FA07F722FA91
:1009400006F3F1401F43C5E9007100263146BDE8BA
:10095000F087C2F12003D8400CFA02FC21FA03F31D
:10096000914001434FEA1C471FFA8CFEB3FBF7F09E
:1009700007FB10360B0C43EA064300FB0EF69E42C3
:1009800004FA02F408D91CEB030300F1FF382FD25C
:100990009E422DD9023863449B1B89B2B3FBF7F604
:1009A00007FB163341EA034106FB0EF38B4208D9DD
:1009B0001CEB010106F1FF3816D28B4214D9023E1E
:1009C0006144C91A46EA004638E72E46284605E73C
:1009D0000646E3E61846F8E64B45A9D2B9EB02080D
:1009E00064EB0C0E0138A3E74646EAE7204694E79D
:1009F0004046D1E7D0467BE7023B614432E73046D0
:100A000009E76444023842E7704700BFFEE7000090
:100A10000848094A0949121A1CF054FC0848094AB6
:100A20000021121A1CF076FC1CF018FC01F0F2FDFB
:100A3000FEE700BF0000002074070020FC1B02241A
:100A400000E8022428770424034B1A1803EB8003E0
:100A50005B68107B5B6818472CEA0224064B1A5C23
:100A600042B901221A541A1803EB8003107B5B6809
:100A70001B681847002070472CEA022430B4054C4C
:100A8000251804EB800460688468287BA44630BC89
:100A9000604700BF2CEA022430B4054C251804EB53
:100AA00080046068C468287BA44630BC604700BFEF
:100AB0002CEA0224054B10B41C1803EB80035B687E
:100AC000207B1B695DF8044B184700BF2CEA022409
:100AD000006870470B0A017043700B0C090E83709D
:100AE000C1707047024400F8011B9042FBD170476F
:100AF000C3690239023B8B4283BF4389006B01FB10
:100B00000300002070470268490A836A528904334F
:100B1000B1FBF2F1186830B1814202D3091A0833EF
:100B2000F8E7586808447047C2F307238A76CB7603
:100B30000378032B01BF120C0A75120A4A7570471D
:100B400000F10B010022D30143EA520310F8012BFC
:100B500052FA83F38842DAB2F5D1104670470000AA
:100B60000368014610B553B11846024610F8014B10
:100B70001F2C10D93A2CF8D1581C824202D04FF0C9
:100B8000FF3007E01B78303BD8B20128F7D801329C
:100B900018460A6010BD014B1878FBE71CE80224D8
:100BA00038B50D46044618B9092000232B6038BD1E
:100BB0000368002BF8D01A78002AF5D08188DA88EB
:100BC0009142F1D15878FFF73FFF10F00100EBD1CF
:100BD0002368EBE72DE9F0410025D0F800800646B8
:100BE0000C468D758369002B59D0C36A01330AD036
:100BF00001F11607D8F80C3033F81500002850D151
:100C000025440023AB75F1690023A57D2E274E1ED8
:100C1000184616F8012F0130202A26D0052A08BFD1
:100C2000E522092807D104EB030C0DB98CF81670E6
:100C300001338CF8097004EB030C8CF809209DB982
:100C4000A2F1410EBEF1190F0CD8082891F80C80C2
:100C50008CBF4FF0100E4FF0080E18EA0E0F1CBF9D
:100C60002032D2B28CF8162001330B28D1D12DB905
:100C7000E21895750A7B002A08BF0023234400224E
:100C800001F11C005A72CB7A2372FFF721FF20601A
:100C900001F11600FFF71CFFE080000CA080BDE80A
:100CA000F081002101F052FC30B10135B5F5807FB3
:100CB00002D007F8010B9DE70025A1E701380A449F
:100CC00011F8013B914200F8013FF9D170472DE93D
:100CD000F041466B00F13808044601233246414694
:100CE0004078FFF7D9FE0546A8B9A36A226AF31A2D
:100CF000E070934202D2A778012F02D82846BDE8BF
:100D0000F081236A41466078013F1E440123324648
:100D1000FFF7C2FEF0E70125F0E7C3780BB1FFF75C
:100D2000D6BF1846704738B5436B05460C468B4214
:100D300010D0FFF7F2FF60B92246012305F1380118
:100D40006878FFF79BFE00281CBF4FF0FF3401209E
:100D50006C6338BD0020FCE7002310B5C3704FF072
:100D6000FF3304464363FFF7DEFF034618BBB4F8C6
:100D700036124AF6552291421FD194F83820E92ABA
:100D800005D0A26B0F4902F0FF128A4217D104F17D
:100D90006E000D4AFFF79CFE20F07F40904208D085
:100DA00002F14C5204F18A00FFF792FE904218BF04
:100DB0000223184610BD0423FBE70323F9E70223AF
:100DC000F7E700BFEB009000464154002DE9FF41DA
:100DD00000230F4615460B60FFF7C2FE061EC0F249
:100DE00013818C4B53F82640002C00F00F813C609F
:100DF00005F0FE0523786BB16078FFF725FEC1078B
:100E000008D41DB110F0040500D00A25284604B00E
:100E1000BDE8F0810023F0B223706070FFF71EFE82
:100E2000C20700F1F5800DB14307EED40021204642
:100E3000FFF792FF022840F0CC806F4604F5FF7365
:100E400004F23E213A4613F8040C10B11846FFF79D
:100E50003FFE103342F8040B8B42F4D1002557F8C3
:100E6000046B002E00F0AC8031462046FFF774FF83
:100E7000012800F2A680B4F84330B3F5007F40F0BB
:100E8000AC80B4F84E1021B904F15C00FFF720FEED
:100E9000014694F8483021625A1EA370012A00F2DC
:100EA0009C8094F845506581002D00F096806A1E64
:100EB0002A4240F09280B4F8498018F00F0FA4F84D
:100EC000088040F08A80B4F84B0018B904F158004B
:100ED000FFF7FEFDB4F84670002F7ED001FB03FE45
:100EE00007EB181CF444604577D3A0EB0C02AA4230
:100EF000B2FBF5F371D34FF6F572934271D840F619
:100F0000F575AB428CBF02250125023337440CEB4B
:100F10000602032DE3616662A762226363D1B4F81F
:100F2000622052EA080258D19B0004F16400FFF7E6
:100F3000CFFDE06203F2FF13B1EB532F4DD34FF01F
:100F4000FF33032DC4E904334FF0800323712BD109
:100F5000B4F86830012B27D1711C2046FFF7E3FE5F
:100F600010BBB4F836224AF6552320719A421BD1A1
:100F7000294B04F13800FFF7ABFD984214D103F17F
:100F8000FF5304F50770FFF7A3FD03F5005320336B
:100F9000984209D104F50870FFF79AFD606104F5E5
:100FA0000970FFF795FD20611C4A25700025138804
:100FB000A56101339BB21380E380194BE36025E701
:100FC00003200135042D7FF44AAF042805D1012503
:100FD0001CE70428FBD0012801D90D2516E70026BF
:100FE00049E7032591E7B8F1000FF6D0022D4FEA4B
:100FF000430277441ABFD21803F001031346E76295
:1010000018BF03EB520395E70B25FFE60C25FDE621
:101010000325FBE620E802245252614128E802241D
:101020002AE8022401292DE9F04706460C46174616
:1010300074D9C3698B4271D90378022B40D0032B3A
:1010400051D0012B6AD101EB5108816A01EB582183
:10105000FFF769FE054640BB14F0010406F13809AC
:1010600008F1010AC8F3080808BFFBB230461FBFE9
:1010700019F8083003F00F023B0103F0F00318BF2A
:10108000134309F808300123B16AF37001EB5A21C8
:10109000FFF749FE054640B9CAF3080A44B1C7F351
:1010A000071709F80A700123F3702846BDE8F08796
:1010B00019F80A30C7F3032723F00F031F43F0E7A3
:1010C000816A01EB1421FFF72EFE05460028ECD1C2
:1010D000640006F1380304F4FF741F551819C7F3B0
:1010E00007274770DFE7816A01EBD411FFF71BFE8A
:1010F00005460028D9D1A40006F1380327F070472F
:1011000004F4FE741C442046FFF7E2FC00F070403B
:1011100047EA00012046FFF7DDFCC4E70225C4E7EB
:10112000F8B50446FFF7F9FD0546002842D12378BB
:10113000032B37D12779012F34D104F138065523F9
:1011400001464FF400723046FFF7CCFC84F836328B
:10115000AA234122722104F5087084F83732522301
:1011600084F83B2084F8383084F83930612384F8DF
:101170001C1284F83A3084F81F3284F81D1284F867
:101180001E226169FFF7A6FC216904F50970FFF7CB
:10119000A1FC626A3B463146013260786263FFF728
:1011A0007BFC2571002260781146FFF783FC003834
:1011B00018BF0120F8BD03284B8B04BF8A8A43EA7D
:1011C0000243184670470129F8B506460C464ED929
:1011D000C36999424BD20378022B29D0032B34D018
:1011E000012B44D101EB5105816A01EB5521FFF739
:1011F0009AFD10B14FF0FF30F8BD6F1CC5F3080524
:10120000B16A3046354401EB572195F83850FFF765
:101210008AFD0028EED1C7F30807E3073E4496F89D
:10122000380045EA00204CBF0009C0F30B00E3E79B
:10123000816A01EB1421FFF776FD0028DAD1640002
:1012400004F4FF742644308FD6E7816A01EBD41191
:10125000FFF769FD0028CDD1A40006F1380004F4A1
:10126000FE742044FFF734FC20F07040C4E70120F6
:10127000C2E773B50C46064611460568012C2CD909
:10128000EB69A34229D92AB14FF0FF322846FFF774
:10129000C9FE40B9214630680194FFF794FF0199D7
:1012A000044610B9002002B070BD012815D0431CBF
:1012B00015D000222846FFF7B5FE0028F3D1EA69D1
:1012C0006B69911E8B4205D201336B612B7943F020
:1012D00001032B71A242DDD8E4E70220E3E70120FD
:1012E000E1E72DE9F041804605680F4671B92E69A6
:1012F000EEB1EB69B34298BF012634460134EB6985
:10130000A34217D8012E14D8002406E02846FFF780
:101310005AFF0128044603D801242046BDE8F08185
:10132000431C30D0EB698342F7D83E46E5E70126FF
:10133000E3E702242146D8F80000FFF744FF30B16C
:101340000128E9D001301ED0B442D7D1DCE74FF0FC
:10135000FF3221462846FFF765FE90B957B9EA6982
:101360006B69023A2C61934210D92B7943F0010347
:101370002B71D2E7224639462846FFF753FE002854
:10138000EDD00128C8D14FF0FF34C6E7013B6B61B7
:10139000EBE7B1F5001FF8B506460C4601D3022075
:1013A000F8BDCA06FBD1826805680161CAB92B780D
:1013B000022B01D9EB6A9BB92B89B3EB541FEED9F1
:1013C000EB6AB361B3697261002BE8D003EB54237D
:1013D0003835C4F308040020B3612C44F461DFE71E
:1013E0001A466F897F02BC42114604D22846FFF795
:1013F0007FFBB061E6E73068FFF7E5FE431C02467D
:1014000006D00128CBD9EB698342C8D9E41BEAE7AF
:101410000120C5E703692DE9F04703F1200883693E
:1014200005468A4693B1B8F5001F0FD2C8F30809E4
:101430000468B9F1000F4DD101334169836139B9B5
:101440002389B3EB581F45D80023AB6104200BE080
:101450006789013F17EA58273CD12046FFF7B3FEC2
:101460000128064602D80220BDE8F087421C01D1BF
:101470000120F9E7E369834226D8BAF1000FE3D0EF
:1014800069692846FFF72DFF0646002835D0012858
:10149000E9D0431CECD02046FFF73FFC0146002872
:1014A000E6D104F138004FF400724FF0010AFFF763
:1014B00019FB31462046FFF71BFB606363899F429F
:1014C0000FD3636BDB1B6363314620466E61FFF70E
:1014D0000FFBA86138340020C5F810804C44EC6143
:1014E000C2E7204684F803A0FFF7F1FB0028BFD134
:1014F000636B013701336363E0E70720B4E7000063
:101500002DE9F04F002185B00446D0F800B0FFF778
:1015100040FF0646002840F098804FF0FF084FF04B
:10152000FF3AC146C4F82CA0A1695846FFF7FBFB5F
:101530000646002840F08980E5692F78002F00F0EA
:101540008880EA7AE52F02F03F03A37103D01007E9
:1015500004D50F2B04D0C4F82CA050E00F2B56D18B
:1015600094F82B30590640D47A0646D5236907F003
:10157000BF0795F80D80E3626B7B43453FD16B8BD2
:10158000002B3CD12E780122DBF80C3006F03F0610
:10159000DFF8C89000930D23013E5E4319F8013B2C
:1015A000EB5A7AB3FE2E2AD81846039300F0ECFFCC
:1015B000009B711C029033F81600019100F0E4FFCB
:1015C000029A82421BD1039B01991A460E46224B76
:1015D0009945E3D12B785B0604D51AB1009B33F80B
:1015E000163063B9013F5FFA87F900212046FFF703
:1015F00011FF0646002897D027E0B945BCD04FF030
:10160000FF09F2E74FF6FF718B42E0D0F7E7B9F13F
:10161000000F04D12846FFF793FA404515D094F8FF
:101620002B6016F0010696D104F1200205F10B01A2
:1016300015F8013B12F8010B8D42A3EB000302D019
:10164000002BF5D087E7002B85D1304605B0BDE8EB
:10165000F08F0426F9E700BFDD020224D002022445
:101660002DE9F04F90F82B5089B0044615F0A005F5
:1016700040F08E800668F26832F81530002B66D193
:1016800004F120070C2205A83946FFF717FB9DF847
:101690001F30DB0740F1858040234FF0010ADFF85F
:1016A000348284F82B300B2205A93846D6F80C90EA
:1016B000FFF704FBBAF1050F59D9A9F1020153460E
:1016C00031F8022F002A44D10DF11300072203F054
:1016D0000F0C013A0CF13001392988BF0CF13701A8
:1016E0000F2B00F801194FEA131142D802F1200321
:1016F0007E216B4403F8141C394600239A4205D01E
:1017000011F8010B03F1010C202834D104F11F0062
:10171000072A03F1010397BF02F1200120210132C2
:10172000694498BF11F8141C072BC154F0D9204606
:10173000FFF7E6FE814670BB0AF1010ABAF1640FB9
:10174000B1D14FF00709484609B0BDE8F08F013527
:1017500092E7102002F0010C52080CEB430313F443
:10176000803F18BF83EA08030138F3D1A8E7534646
:10177000AAE70B46ABE76346C0E780460121204657
:10178000FFF748FE814608B3B9F1040FD9D0DAE774
:101790004FF00609D7E70428D5D19DF81F3084F80B
:1017A0002B309DF81F3000212046D4F800A09B0765
:1017B00045BF0C350D230125B5FBF3F548BF0135B9
:1017C000FFF7E7FD81460028DED18046A16950463B
:1017D000FFF7A9FA81460028D6D1E3691B78E52BEB
:1017E00001D0002BC9D108F101084545C6D1013D02
:1017F00055D021692046A1EB4511FFF7CAFD81466E
:101800000028A0D14FF6FF783846FFF799F90190EC
:10181000A1693046FFF787FA8146002893D1E36932
:10182000E9B2019A4FF00D0CD6F80CE05A734FF064
:101830000F02DFF8A4A0DA724A1E18730CFB02F242
:1018400084469876D87640451AF8019B0CF1010C35
:1018500018BF3EF8120003EB090B18BF013203F862
:1018600009004FEA1029002808BF4046BCF10D0FBF
:101870008BF80190E7D1404502D03EF812200AB91A
:1018800041F040011970012300212046F370FFF759
:10189000C1FD814600287FF456AF013DB8D1A16952
:1018A0003046FFF740FA814600287FF44CAF0146EE
:1018B0002022E069FFF716F90B223946E069FFF7AD
:1018C000FDF994F82B30E26903F018031373012338
:1018D000F37038E721100100D00202242DE9F8430B
:1018E000FF270646D0F8008004253C464FF6FF79D6
:1018F000B16911B9002D5FD04FE04046FFF713FAF0
:101900000546002849D1F0690378002B5CD0C27AE3
:10191000E52B02F03F02B27144D02E2B42D022F0D0
:10192000200108293ED00F2A41D1590638D503F0AD
:10193000BF043369477BF362437BBB4232D1428BA6
:1019400082BB03780D21D8F80C504FF0010E23F024
:101950004003DFF878C0013B4B431CF8011B415AA0
:10196000BEF1000F20D0FE2B1CD825F813108E4698
:10197000013301320D2AF0D10278520604D5FE2B34
:1019800010D8002225F81320013CE4B20021304693
:10199000FFF740FD05460028AAD00023B3610CE004
:1019A000A342C9D0FF24F1E74945E2D0FAE73CB9A8
:1019B000FFF7C6F8B84203D100252846BDE8F883F2
:1019C0004FF0FF33F362F8E70425E6E7D002022484
:1019D0002DE9F74F0B7805468846D0F800B02F2B3D
:1019E00001D05C2B09D142461378904601322F2B4F
:1019F000FAD05C2BF8D0002301E0DBF81830AB60A4
:101A000098F800301F2B00F2D88080230021284650
:101A100085F82B3003B0BDE8F04FFFF7BABC0134B6
:101A2000DEE0B4F5807F00930CD0012100F08EFD44
:101A300040B17F28009B07D88F4911F8012B1AB1BC
:101A40008242FAD1062005E126462AF8020FBDE0BF
:101A5000022E04D1B9F802302E2B00F0D1805EBBEB
:101A6000002329F81630002EECD020210B22681814
:101A7000FFF738F8194639F81130202B24D02E2BD7
:101A800022D009B144F0030437F816302E2B01D0D0
:101A9000013EF9D100234FF0080A1F4639F8110022
:101AA0004A1C10B3202803D02E280FD1964211D003
:101AB00044F003041146F1E737F81630202B01D02B
:101AC0002E2BCDD1013ECAE70131D4E7534505D2D3
:101AD00096423AD1BAF10B0F30D102E0BAF10B0FB6
:101AE00027D144F003044FF00B0A95F82030E52B82
:101AF00004BF052385F82030BAF1080F04BFBF00EA
:101B0000FFB207F00C030C2B03D007F00302032AEB
:101B100001D144F00204A00700F1878007F0030719
:101B2000012F08BF44F01004042B08BF44F0080440
:101B30007BE0964202D044F00304D6D3BF00324685
:101B40004FF00B0A0823FFB2B4E77F280ED900211B
:101B500044F00204CDE9002300F0F8FCDDE90023A5
:101B600060B14649084410F8800C38B1DFF810C164
:101B70001CF8011B002972D08142F9D144F0030402
:101B80005F20E918013381F8200093E747F002074E
:101B9000F7E7002A08BF05205CE05A075AD4AB7962
:101BA000DB065AD529690BF138039BF80000C1F315
:101BB00008011944FFF7FFFAA8602B680026D3F844
:101BC0000C9008F1FF33A9F10207BA4613F8010F90
:101BD000741C1F280CD92F2802D05C287FF421AF59
:101BE00018F804302F2B3FF41AAF5C2B3FF417AFDB
:101BF0002028A04434BF04240024012E7FF428AF01
:101C0000B9F800302E2B7FF42AAF002305F1200213
:101C100029F816309E428CBF2E21202101330B2B38
:101C200002F8011BF6D144F02004284685F82B4029
:101C3000FFF766FC95F82B300028AED0042809D1B8
:101C4000990603F00402A4D5002AB6D08023002010
:101C500085F82B3003B0BDE8F08F0520FAE7A0F13E
:101C60004101192992D9A0F1610119299EBF20389B
:101C700047F0010780B284E74002022450020224A8
:101C8000490202241FB5CDE9001003A814460391B0
:101C9000FEF766FF031E15DB0C4A52F8231009B14C
:101CA00000200870019808B10021017042F823005B
:101CB00030B1012C08D1002201A96846FFF786F84F
:101CC00004B010BD0B20FBE70020F9E720E8022458
:101CD0002DE9F04190B0174604460191002800F02C
:101CE000D48002F03F0603A901A83246FFF76EF840
:101CF000054600284FD1039B04A801990493FFF7E0
:101D000067FE20B99DF93B30002BB8BF062017F0C5
:101D10001C0F00F09A80002844D004283BD104A86E
:101D2000FFF79EFC002836D146F0080608F090FD2B
:101D30000146009020220B980E30FEF7CBFE0B9848
:101D400000991630FEF7C6FE0B9BDDF80C80DA72A8
:101D50000B9998F80000FFF72EFA0022074640463C
:101D6000FEF7E2FE0B9B002201211A775A779A7741
:101D7000DA77039BD970F7B1394604A8D3F83480D9
:101D8000FFF777FA38B941460398FEF7CCFF013FD9
:101D9000039B1F6178B1002305462360284610B0DD
:101DA000BDE8F0819DF8163013F0110F57D1780778
:101DB00065D43907BAD4039F31070B997B6B48BFB1
:101DC00046F04006616223623878FFF7F4F9A060BC
:101DD00001F11C000021FEF77BFEFB88276004F167
:101DE0002C074FF40072E060A1623846A38026748D
:101DF0006174E1616161FEF775FEB206CED5D4F87B
:101E00000C80B8F1000FC9D0039BA1685E89C4F8AB
:101E100014807602464524D30020A1610028BAD15F
:101E2000C8F30803002BB9D0039E3046FEF760FECE
:101E300048B300EB582201233946E2617078FEF77F
:101E40001DFE0028AAD00120A5E70028A3D19DF8F7
:101E50001630DA0615D4BF07ADD5D807ABD50720A5
:101E600099E72068A8EB0608FFF7ADF901280146BD
:101E700003D9431CCED10120CFE70220CDE70820B3
:101E800089E7042087E7022085E7092586E72DE911
:101E9000F04F87B016468946044601930023019A05
:101EA00005A91360FEF77CFE054618BB657C0DBBDB
:101EB000237C13F00103029300F09980E26804F19F
:101EC0002C0A6369D21A964228BF164696B16169F8
:101ED000C1F30803002B7CD1059BB3F80A8008F1FD
:101EE000FF3818EA51281BD141B9A068012810D841
:101EF00002256574284607B0BDE8F08FA36A1BB1C0
:101F00002046FEF700FEF1E7A1692068FFF75BF9C4
:101F1000ECE7431C03D10123029D6374EAE7A0614F
:101F2000DDF814B0A1695846FEF7E2FD0028DFD0C5
:101F3000B6F5007F08EB00072ED3BBF80A2008EBAC
:101F40005621730A9BF801009142494688BFA2EBD3
:101F500008033A460393FEF791FD0028DBD194F97C
:101F60001020039B002A0BDAE069C01B984207D2BD
:101F70004FF40072514609EB4020FEF79FFE039B91
:101F80005F026369B944019AF61B3B446361019B9C
:101F90001B683B44136099E7E269BA4218D094F990
:101FA0001030002B0BDA012351469BF80100FEF79D
:101FB00073FD0028AFD1237C03F07F0323740598C1
:101FC00001233A4651464078FEF758FD0028A2D139
:101FD000E76161694846C1F30801C1F500775144E2
:101FE000B74228BF37463A46FEF768FEC9E70725DD
:101FF00080E72DE9F04F994685B00023884603A974
:102000000446C9F800301646FEF7CAFD054650BB27
:10201000657C45BB237C9A0740F1AF80636904F17E
:102020002C0AF34228BFDE43CEB16169C1F3080335
:10203000002B40F09080039B5F89013F17EA5127F6
:1020400024D131B9A068A0B901462046FFF749F96B
:1020500004E0A36A5BB12046FEF755FD48B9237C36
:1020600043F040032374284605B0BDE8F08FA16912
:10207000EBE7012802D102256574F4E7431C01D186
:102080000125F9E7A368A06103B9A06094F91030B5
:10209000002B0CDA03980123E26951464078FEF7E1
:1020A000FBFC0028ECD1237C03F07F032374DDF8D4
:1020B0000CB0A1695846FEF71BFD0028DBD0B6F531
:1020C000007F07EB000234D3BBF80A1007EB562061
:1020D000730A88429BF8010088BFCB1B4146CDE9BB
:1020E0000023FEF7D9FC0028CAD1E169009A019BC0
:1020F000891A99420CD24FF4007208EB41215046E4
:102100000093FEF7DBFD227C009B02F07F0222742D
:102110005F026369B844E268F61B3B4463619A421C
:102120002CBFE260E360D9F800303B44C9F80030CE
:102130007AE7E36993420DD0E1686369994209D96E
:10214000012351469BF801000092FEF797FC009A8C
:10215000002895D1E26160694146C0F30800C0F5EE
:1021600000775044B74228BF37463A46FEF7A6FDEF
:10217000237C63F07F032374CBE7072573E7F7B570
:1021800001A90546FEF70CFD044600283BD12B7C37
:1021900013F0400437D01B060CD501980123EA69DF
:1021A00005F12C014078FEF777FC78BB2B7C03F01F
:1021B0007F032B7408F04CFB296A07460198FEF751
:1021C000B2FD0446F8B96E6AF37A314643F0200353
:1021D000F372AA682868FEF7A7FCE96806F11C00FC
:1021E000FEF778FC394606F11600FEF773FC012372
:1021F0000198B474F474C370FEF792FF2B7C04460C
:1022000023F040032B74204603B0F0BD0124FAE70D
:1022100013B50446FFF7B3FF28B901A92046FEF71E
:10222000BFFC00B9206002B010BD2DE9F04F85B0B1
:102230000D46044603A9FEF7B3FC0646E8B9667CE2
:10224000DEB9A36A002B7BD06A1C39D11D46D4F8B5
:102250000880022755F804BBB8F1000F28D040468B
:102260004FF0000A0146814620680AF1010AFEF794
:10227000AAFF012807D802266674304605B0BDE8DB
:10228000F08F8046EBE7431C01D10126F4E709F10A
:1022900001098145E6D00237BB4521BF2B4643F8F3
:1022A00008ABC5F804801D46039BDB698342E8D870
:1022B000A36A5F451F6000F2C38000232B60DCE748
:1022C000E768AF4228BF2F466761002FD5D07D1E3B
:1022D00020462946FEF717FCDDF80C800146A06178
:1022E0004046FEF705FC0028C5D0C7F30807002FBD
:1022F000C3D0B8F80A10E269013901EA55210D1876
:10230000AA42BAD094F9103004F12C01002B0CDA57
:10231000012398F801000191FEF7BEFB0028B4D11B
:10232000237C019903F07F032374039801232A4639
:102330004078FEF7A3FB06460028A6D1E5619CE79E
:10234000E368AB4204D2227C12F0020F08BF1D46A4
:10235000002263696261EDB90025E2686369934216
:1023600084BF227CE360C3F3080384BF42F04002D1
:102370002274002B81D0E269AA423FF47EAF94F927
:10238000103004F12C01002BCFDA039801230191C6
:102390004078C1E7039A57897F020BB3013B6A1E5D
:1023A000B3FBF7F1B2FBF7F28A4219D37A42A16983
:1023B0001340ED1A63610029CED0BD4263691ED877
:1023C00063692B446361C5F30803002BC4D00398F1
:1023D000FEF78EFB00283FF44EAF00EB5525BCE71F
:1023E000A16851B92046FEF77CFF012801463FF461
:1023F00042AF481C3FF449AFA160A161DBE73B4419
:10240000A5EB07086361237C9A0706D52046FEF7F3
:1024100068FF054628B90146D2E72068FEF7D3FEDB
:1024200005466B1C3FF431AF012D7FF624AF039BB3
:10243000DB69AB427FF61FAF2946A5614546BCE785
:1024400011261AE71FB50446019150B3002203A9D3
:1024500001A8FEF7BBFC70B9039B204601992360DD
:10246000FFF7B6FAF8B994F92B30002B0CDBA379FF
:10247000DB0603D405200023236010E0039BE16901
:102480001878FEF798FEA060039B00212046DB88A9
:10249000A380FEF77EFF0428ECD00028EBD104B027
:1024A00010BD0920FBE70428E4D0E4E713B501A937
:1024B0000446FEF775FB00B9206002B010BD73B58D
:1024C0000D4601A90446FEF76BFB20B92DB9014664
:1024D0002046FEF75EFF02B070BD2046FFF7FEF912
:1024E00010F0FB06F7D129462046FEF773FB314674
:1024F0002046FEF78FFF042808BF0020EBE700000E
:102500000F4B30B59C7B012C17D89D7B0024EDB27E
:102510005C559D7B03EB85056860987B18440273CE
:102520009A7B501C3032C0B298733A2320460A700E
:102530004B702F23CC708B7030BD0120FCE700BFA7
:102540002CEA02240022FFF7DBBF00007F2810B531
:1025500006D931B1FF2812D880380A4B33F8100061
:1025600010BD084A32F8024B8BB2844203D00131CD
:102570008029F7D10B4603F18000C0B2F0E70020BC
:10258000EEE700BFDE0202241E4B1F4AB0F5805F5B
:1025900028BF134670B5191D31F8043C0A46ABB18B
:1025A000984213D331F8024C250AE6B253FA84F468
:1025B000A04221DA082D09D8DFE805F005090F113E
:1025C000131517191B00C01A31F8100070BDC31A7B
:1025D00003F00103C01A80B2F8E71038FBE7203897
:1025E000F9E73038F7E71A38F5E70830F3E75038FD
:1025F000F1E7A0F5E350EEE70431002DCCD102EB7A
:102600004603C8E7DE030224D00502247047704762
:102610007047000008B50021074803F005FC0120C1
:1026200005F0F6F8054A0649064802F027F805487D
:1026300002F01CFC002008BD708A0324500B06C069
:10264000500B06C15CEC02247FB504AB9500044638
:1026500003E906000023C0E90033836013460D4AF6
:10266000B2EB830F02D20C4819F088F97DB12846ED
:10267000019119F06CF9019946192060A66015B115
:102680002A461AF01FFE2046666004B070BD284638
:10269000F2E700BFFCFFFF7F8C0602242DE9F04328
:1026A000002395B0032504460DF1300930492A4630
:1026B0000DF13808059510AF12AEC0E90333C0E93B
:1026C0000533C0E90733C0E90933294B2C300493A3
:1026D0004B46FFF7B9FF274B2A46264904F138003D
:1026E000CDE9063543460425FFF7AEFF224B2A46C7
:1026F0002149089304F144003B460995FFF7A4FFE4
:102700001E4B2A461D4904F15000CDE90A353346D7
:102710000725FFF799FF1A4B0D9504F15C000C9308
:102720006B4699E80600FFF78FFF164B04F168002F
:10273000CDE90E3501AB98E80600FFF785FF124B97
:1027400004F17400CDE9103502AB97E80600FFF7FD
:102750007BFF0E4B04F18000CDE9123503AB96E808
:102760000600FFF771FF204615B0BDE8F08300BFFB
:10277000C0060224CC060224D8060224E80602245D
:10278000F806022414070224300702244C0702240E
:1027900010B50446006818B1A168091A19F0D5F8F7
:1027A000204610BD10B50446006818B1A168091A8A
:1027B00019F0CBF8204610BD70B5D1E900250023F3
:1027C0000446AD1A0E468360C0E900331BD00F4BA0
:1027D0009D4201D919F0CCF8284619F0B8F8034603
:1027E0001D44C4E90033A560D6E900128A42A2EB79
:1027F000010504D018462A461AF072FD03462B4400
:102800002046636070BD2B46EAE700BFFCFFFF7FF8
:102810002DE9F04704462A200D46B1FBF0F0461C96
:102820000330082838BF08206060800019F08FF856
:10283000676880462060BF1B7F0800EB870909EBB3
:102840008606CA46564506D94FF4FC7019F07FF843
:102850004AF8040BF6E758F82720C4F8149002F55C
:10286000FC73E260A2602361331F636256F8043C8C
:1028700003F5FC71E36121622A21B5FBF1F201FB52
:1028800012550C2101FB0533A361BDE8F087000060
:102890002DE9F84F4A6A0D464E6904461F4F921BB8
:1028A0009210561ED1E906322A219A1A2B699210EB
:1028B0007A4301FB0622A9685B1A9910002307FBE3
:1028C0000121C0E90033C0E90233C0E90433C0E9A3
:1028D0000633C0E90833FFF79BFFAE68D5F818B0A0
:1028E000D5E904A7D4E90489A568B34512D03146D7
:1028F0000C3628460C35FFF75FFFB24502BF7E68F5
:10290000043706F5FC7AA845EFD159F8045F05F5C0
:10291000FC78EAE72046BDE8F88F00BFABAAAAAA78
:1029200038B504460D46AC4204D020460C34FFF7BF
:102930002FFFF8E738BD2DE9F84F044600F5027087
:10294000FFF730FFD4F8E861D4F80492D4E97CB8FA
:10295000D4E97E7A08F10405A94506D955F8040B97
:1029600000F5FC71FFF7DCFFF6E7C14518D05946CA
:102970003046FFF7D5FF39465046FFF7D1FFD4F870
:10298000E031BBB1D4F80432D4F8F4511E1DAE428C
:1029900009D94FF4FC7155F8040B18F0D6FFF6E78F
:1029A00039463046E9E7D4F8E411D4F8E00189006B
:1029B00018F0CBFF04F5E870FFF7EAFE2046BDE80B
:1029C000F88F70B5044600F5297500F53576AE42EE
:1029D00004D00C3E3046FFF7E5FEF8E704F51D761F
:1029E000AE4204D00C3D2846FFF7DCFEF8E704F5C4
:1029F0001A70FFF7CDFE04F12000FFF79CFF204680
:102A000070BD00002DE9F843834E0024834D844AB5
:102A10003046844918F094FF2C606C6105F5C07055
:102A20002C62EC6304F02AFF7F4B7D4A2846C5F8F0
:102A3000383240F20F737D49A5F83C3205F5147326
:102A4000C5F89041C5F8403240F20113C5F84C4238
:102A5000774FC5E9913418F073FF714A754976488C
:102A600018F06EFF754B7E60BC61C7E90235744B90
:102A7000C7E9043407F58053DC83724BC3E9005483
:102A8000C3E902441E460F2400224FF00009013C16
:102A90001A74C3F81490C3F8189003F81C2FF3D1DC
:102AA00021466948C6F8D84186F8DC41DFF8C08184
:102AB000C6E97444C6E97844C6E97A44C6E97C4468
:102AC000C6E97E44C6E98044FFF7A2FE544A5F4946
:102AD0005C48C6F81042C6F81C42C6E9824418F0A9
:102AE0002FFF3368C8F81C504FF4D272C8F820305A
:102AF00008F130007368564DC8F82430B368554962
:102B0000C8F82830F368C8F82C301AF0DBFB08F559
:102B1000EA7395E8030083E80300D6F8BC3105F1B9
:102B20001C0108F5F870C8F8DC31D6F8C031C8F8D7
:102B3000E031D6F8C431C8F8E431D6F8C831C8F865
:102B4000E831D6F8CC31C8F8EC31FFF735FE96F80D
:102B5000DC3105F12C0108F5007088F8FC31FFF735
:102B600097FEC8F83042D6E98235C8E98A44ED1AA2
:102B700008D0394B9D4201D918F0FAFE284618F0CA
:102B8000E6FE04462544D6E98213C8F8305299423D
:102B9000A3EB0105C8E98A4403D02A4620461AF06F
:102BA0009FFBD6F814322C442C48C8F83432D6F89F
:102BB0001832C8F82C42C8F83832D6F81C32C8E9A6
:102BC0008F37FFF76BFD1C4B2548C8F8EC32254BBF
:102BD000C8F84493C8F848330023C8F84C93C8F8A1
:102BE000703380F8A836C0F8AC3680F8B036C0F83C
:102BF000B436C0F8B8360A4A1B49C8E9DA334FF48C
:102C00008073A0F83037A0F50040184BC3F800805F
:102C1000BDE8F84318F094BE541D0424708A0324C0
:102C2000000000200F2600240080707F1126002461
:102C3000BC7503240D260024000000C0F085032489
:102C4000907303243CEA02241CEC0224372900245C
:102C5000F0EB02244CEA0224FCFFFF7FA4EE0224E6
:102C60005C6C0324CDCCCC3DC3290024581D042426
:102C70005CEC0224F0B585B003230124002705464F
:102C800001A940688DF80C70CDE9013406F02EFDE5
:102C9000064628B10E4804F0ADFD384605B0F0BD3B
:102CA0002146A86807F0B0FD0A4804F0A3FDA86813
:102CB000224609490430FEF7E5FF20B1074804F039
:102CC00099FD3046EAE7064804F094FD2046E5E722
:102CD0006807022478070224850702248707022454
:102CE0009B07022470B50446D2B000214FF48052F5
:102CF0001C301AF00FFBA168684601F27441FFF71F
:102D0000A1FB28B1244804F075FD002052B070BD2D
:102D10000CA9684604F58055FFF7D1FB78BB9DF8F8
:102D2000463063B3EE8B1F2E29D89DF8383013F050
:102D3000120FEDD1022219490DF146001BF0D4F813
:102D40000028E5D016490DF146001BF0E1F830B936
:102D500014490DF146001BF0DBF80028D8D004EB35
:102D6000C6100DF146011C301BF0B6F8EB8B0021AC
:102D700004EBC312013382F89B10EB83C8E768466B
:102D8000FFF794FB0848E98B04F034FDE88B00382A
:102D900018BF0120BAE700BFAB070224DB070224FB
:102DA000DE070224E3070224CC0702242DE9F043C6
:102DB0000C468FB006462C226B4603A92046FFF72F
:102DC00066F8054618B100200FB0BDE8F083009BFF
:102DD0002C2BF8D1654B039A9A4206D1A3F57003C8
:102DE000059AA3F2FB739A4203D0614804F002FDF6
:102DF000E9E7DFF89C91069BDDF830804B451ED15A
:102E000006F58053099A01251A62BDF822201A8519
:102E1000BDF82E205A85574FB8455ED106F5805132
:102E20000D9AB1F92A304A62002BB8BF0733DB1084
:102E3000B2FBF3F3CB62002D7ED14F48D6E70C21D5
:102E40002046FFF7F2F904226B4620460DEB020103
:102E5000FFF71DF80028DED1009F042FDBD16B4661
:102E60003A4602A92046FFF712F8019B4B45EAD1EA
:102E7000616920460631FFF7D8F906F581516B46A6
:102E8000022208312046FFF702F860B9009D022DAA
:102E900009D16B463A4606F581512046FEF7F7FF09
:102EA00018B13648A2E73648A0E7009B042BF8D1BA
:102EB000616920460631FFF7B8F906F581516B4686
:102EC0002A460A312046FEF7E2FF08B12D488DE779
:102ED000009B0125022BB6D0F8E724212046FFF7FE
:102EE000A4F904226B4620460DEB0201FEF7CFFF4A
:102EF000B8B9009A042A0CD16B4602A92046FEF705
:102F0000C6FF019BBB42029B08D106F580520120FF
:102F10005362019BBB4206D01B4867E761691944B5
:102F2000DCE70020F5E7E5B130B9184804F062FCB1
:102F3000002D7FF448AF80E706F580523069B2F982
:102F40002A30516A002BB8BF0733DB10B1FBF3F313
:102F50006169D3621163FFF768F9B0FA80F0400944
:102F600032E700287FF469AFDFE700BF52494646E9
:102F7000E8070224646174613D0802240D080224FC
:102F8000F7070224260802244E0802245D080224C2
:102F9000666D74202DE9F341054600264FF400408C
:102FA0000F4618F0D4FC4FF40042002104461AF0FA
:102FB000B1F928694269C3689A4248D0BE4246D2F4
:102FC000BB1B05F580582146B3F5804FB8F9282082
:102FD00028BF4FF480435A4301AB5200FEF757FF1E
:102FE000034660B100251B4804F004FC20464FF462
:102FF000004118F0AAFC284602B0BDE8F081B8F9FB
:1030000028104A000199B1FBF2F172008B421CD0EA
:10301000B8F928E0BEF1010FD5E905C017BF34F9B2
:1030200023E034F913E02CF802E004F1020C0CBFA9
:1030300020F802E03CF923C003F101030CBF2CF897
:1030400002E020F802C00232E0E71E44B1E70125A9
:10305000CCE700BF6F08022410B504464FF0807221
:10306000002140691AF056F94FF080720021A069E2
:103070001AF050F904F58053B3F92820D96AB1FB4E
:10308000F2F1B1F5000F04D82046BDE81040FFF77B
:1030900081BF002010BD000070B500F580560446C9
:1030A0000D46F38B8B4210D3B38B8B4202D0006959
:1030B000FFF7AEF804EBC511012220691C31FEF7C1
:1030C00007FE20B10F4804F095FB002070BD216978
:1030D0002046FFF76BFE20B92069FFF799F80A48F0
:1030E000F1E7B6F92A30102B04D1326A4BF680335F
:1030F0009A4201D00548E6E72046BDE87040FFF758
:10310000ABBF00BF90080224AA080224C60802240C
:10311000C0E9051270470000084A136883EA433388
:1031200083EA534383EA431307EE903A1360B8EE01
:10313000670ADFED037A20EE270A7047501D04244A
:103140000000802F2DE9F84304460E4615461F4621
:1031500000F1100800F5DA79C360C0E90112C84532
:1031600005D0404608F11C0801F0CCFEF7E70A4BF9
:103170004FF496521F60094B1E60094B1D600023DF
:10318000C4E96F230123C4F8C4314FF07E53C4F85F
:10319000CC31BDE8F88300BF5C1D0424641D042409
:1031A000601D042410B5F0EE400AFFF7B5FFDFED17
:1031B000167A0446E0EE270A9FED140AF7EE007A2D
:1031C000C0FE800AC0FEE70ADFED117AB2EE040A03
:1031D000C0EEA70A18F0A0FE9FED0E7A60EE077A07
:1031E0009FED0D0AC7FE877A9FED0C7AC7FEC07A65
:1031F00067EE877A9FED0A7A67EE877AFCEEE77AC8
:10320000C4ED6F7A10BD00BFCDCCCC3D00000000F6
:10321000614F2D3F0000C84200803B456F12833A4A
:1032200000803B4708B5B0EE407AFFF775FFC368F2
:10323000DFED0B7A013BA0EE277ADFED0A7A87FEFD
:10324000277AF7EE007A87FE677A07EE903AF8EE73
:10325000677A67EE877AFCEEE77AC0ED707A08BD90
:10326000CDCCCC3D00000000B0EE407AF6EE006A16
:10327000B7EE086A08B5FFF74FFFDFED0C7AA0EE56
:10328000277A9FED0B0AF7EE007A87FE007A87FE19
:10329000677AF0EE667AE7EE067AB0EE007AC7FE5D
:1032A000A67AC7FEC77AC0ED737A08BDCDCCCC3DF7
:1032B00000000000B7EE007AF2EE026AF0EE477A04
:1032C000E0EE267AC7FE877AB2EE047AC7FEC77AA6
:1032D000F8FE677AFCEEE77AC0ED727A7047D0E9C3
:1032E000713293420FD2D0F81C224BF6803101325A
:1032F0008A4202D0C0F81C22704700220133C0F875
:103300001C22C0F8C431704738B50022044610238F
:10331000B3F5DA7F04EB03004FD0E15C11B1013269
:103320001C33F5E7D4F8C4119142F9D9D4F8C0514F
:10333000FFF7F2FEDFED216A07EE905AE368F8EE40
:10334000677A27EE800A20EE260AFCEEC07A17EE96
:10335000901A2944D4F8BC51994228BF1946FFF766
:10336000DBFE94ED737AB0EE406AFFF7D5FE07EE10
:10337000905A27EE000A124BA0EE267AB6EE000A0B
:1033800087FE007AB0EE000A87FE400AB8EE677A40
:1033900067EE067A67EEA67AFCEEE77A17EE902AD9
:1033A0002A449A4228BF1A46B2F5965FBDE83840D3
:1033B00038BF4FF4965201F0B5BD38BDCDCC4C3E70
:1033C0008032020030B585B01025FFF788FF00235A
:1033D0000446C0F8B431C0F8B831FFF795FFB5F531
:1033E000DA7F04EB05000DD0635D4BB194ED6D0AFF
:1033F000D4ED6E0A01F0DAFD84ED6D0AC4ED6E0ABB
:103400001C35ECE7D4E96D0104AB03E903009DED45
:10341000020ADDED030A05B030BD90F8DC0170470B
:10342000D0F8F821D0F8E801131A584258417047F3
:103430007FB5002390F8DC210446C0F8B431C0F811
:10344000B83152B300F110060025D4F81832D4E98F
:103450007401091AB5EBA10F14D2D4F8081251F86F
:10346000251099420BD994ED6D0A3046D4ED6E0AC1
:1034700001F09CFD002284ED6D0AC4ED6E0A013559
:103480001C36E2E70133C4F818321AB9D4F8142212
:10349000934202D3002384F8DC3104ABD4E96D01FC
:1034A00003E903009DED020ADDED030A04B070BDDF
:1034B0002DE9F84FD0E9008993466FF06043A9EBFE
:1034C000080207468A46B3EBA20F4FEAA20402D1D4
:1034D0001E4818F053FA012C2246A1EB080538BF0C
:1034E0000122A4182ED27CB39C4228BF1C46A00007
:1034F00018F02DFA0646DBF80030002D735104DD7C
:103500002A464146304619F0EBFEA9EB0A0904357C
:10351000B9F1000F354404DD4A465146284619F0FA
:10352000D1FE4D44B8F1000F05D0B9684046A1EB7B
:10353000080118F00AFA06EB8404C7E90065BC60CC
:10354000BDE8F88F1C46D2E72646D4E7D808022407
:103550008142134610B5A1EB000405D00146224676
:10356000184619F0BDFE0346181910BD2DE9F843A1
:103570000446D0F8F8010F46D4F800320C3B9842CC
:1035800008D0FFF719F9D4F8F8310C33C4F8F83142
:10359000BDE8F883D4F804224FF02A0ED4F8F411D1
:1035A000D4F8FC31561ADFF824C1C01AB5108010C7
:1035B0006B1E0EFB03F30CFB003ED4F8E831D4F88D
:1035C000F001C01A80100CFB00E33E48834202D198
:1035D0003D4818F0D3F9D4E978C3A2EB0C00A3EB73
:1035E000A000012823D80235B3EB450F3ED95D1B5F
:1035F000131D6D085A1A0CEB8505A94230D9994262
:1036000002D0284619F06CFE2B68C4F8F451C4F8B7
:10361000EC3103F5FC73C4F8F031AB19C4F8043293
:10362000AB59C4F8FC3103F5FC73C4F80032D4F88C
:1036300004524FF4FC7018F08AF939466860D4F8E7
:10364000F801FFF7B9F8D4F804321A1D5B68C4F822
:10365000042203F5FC72C4F8FC31C4F8002295E79B
:103660009942D1D0301D801A2844CBE703F10208DB
:10367000012B2CBF984408F10108B8F1005F01D379
:1036800018F076F94FEA8800A8EB050518F05FF905
:10369000D4F80422D4F8F4116D080432814600EB0A
:1036A0008505914203D0521A284619F019FED4F824
:1036B000E411D4F8E001890018F047F9C4E97898DA
:1036C000A2E700BFAAAAAA0AF2080224ABAAAAAAE1
:1036D0002DE9FF41D0F8E8610446D0F8F8319E4268
:1036E00000F0B38000F5E8739E422CD0D0F8D021D2
:1036F000D0F8D831D6E900719B1ACD1B9D4276D9FE
:10370000002D72D0524B9D4201D918F031F9284654
:10371000019118F01CF90199064632463846FFF728
:1037200017FFD4F8D00120B1D4F8D811091A18F035
:103730000CF9C4F8D0612E44C4F8D861D4F8D03163
:103740002B44C4F8D431D4F8F031D4F8E8010C3B60
:10375000984260D0FFF71CF8D4F8E8310C33C4F875
:10376000E8310123002504F5027784F8DC3104F107
:103770001006D4E98232C4E98555934218BFC4F8D3
:103780000C32D4E97432D21AB5EBA20F5DD2D4ED6B
:103790006F7A03EB85034FEA8508B8EE677AD3EDBD
:1037A000006AD4E98312C7EE267A9142FCEEE77AEA
:1037B000CDED037A44D0E1EC017AC4F80C12D4F8D0
:1037C00014223046039B01351C369A422CBFC4F8A4
:1037D0001422C4F81432D4F8D0314344D4E96F2110
:1037E00093ED000A01F09EFBCBE72E4695E7D0F85B
:1037F000D4319B1A9D4203D83846FFF7A9FE9DE7B6
:10380000F9183846FFF7A4FED4E97402D6E900316E
:10381000101A1844F1E7FEF7BBFF4FF4FC71D4F81F
:10382000EC0118F092F8D4F8F4311A1D5B68C4F872
:10383000F42103F5FC72C4F8EC31C4F8F0218EE7F2
:1038400003AA3846FFF734FEB9E704B0BDE8F081BB
:10385000FCFFFF7FF8B50B460C460546006853F8A1
:10386000081B626899420CD10AB118F0D1F863685C
:1038700000212A686B60D1540023226863601370B2
:10388000F8BD05F10807B842C5E9001208BF0020DD
:10389000A26818BFAE68AA6010B12060A660EBE70E
:1038A0002360E9E700F1080373B503600446D1E93A
:1038B0000053EE181DB916B10C4818F05CF80F2B28
:1038C000019307D9002201A9204618F05FF8019B57
:1038D0002060A36032462946206818F0B1F8019BA9
:1038E000226800216360D15402B070BD2209022415
:1038F000DFED0D7AB4EEE70A10B5F1EE10FA0446EA
:1039000058BFB0EE670ADFED097A20EE270A18F0FB
:1039100097FCF7EE007A84ED000A30EE270A87EE76
:10392000807A84ED017A10BDC976FE3EDB0F4940F6
:10393000D0ED006AB0EE407AD0ED027A037BE6EE7D
:10394000807A90ED010A27EE800A77EE407AB0EE99
:10395000407AA6EEA77A80ED027A23B1012B9FED83
:10396000020A07FE800A704700000000D0F8D43237
:10397000042B07D8DFE803F0030D0F070D00012328
:10398000C0F8D832704700F50042012382F8A8360B
:10399000F6E70223F4E70423F2E710B50446E069F2
:1039A000403003F04BFEE36993F84C20002AF6D038
:1039B00093F85230802BF2D1D4F8D432012B08DCAA
:1039C000002B0CDB04F50043012283F8A826032317
:1039D00003E0023B022B02D80023C4F8D83210BD0A
:1039E00000F5004393F83127F0B582F0010285B06D
:1039F000C76905460C4601AED83783F831277AB33C
:103A000003F5DA6393E8070086E807003146384695
:103A100003F078FFE86902F067F9D5F84012D5F8AD
:103A2000682301F580531444DB8B1C4494FBF3F2B0
:103A300003FB124405F55D72A3B21046C5F8684356
:103A400001EBC3111C311AF047FA21460246064821
:103A500003F0D0FE052005B0BDE8F04006F0ACBF95
:103A600003F22473CEE700BF4C09022410B50446CC
:103A7000D0E9D812D0F84002FFF74AFBD4F8400250
:103A8000FFF7F8F828B1D4F84002BDE81040FFF77E
:103A900029B910BD002200F5004310B5C0F86C2311
:103AA0000446C3F8AC2693F8A8366BB9B0F868138F
:103AB000D0F84002FFF7F0FA30B9084803F09AFE58
:103AC0000523C4F8D43210BD054803F093FEE06925
:103AD0000449BDE8104002F0BFB800BF60090224ED
:103AE000740902241141002410B504464FF080727D
:103AF0000021D0F8600319F00DFCD4F864034FF0F6
:103B00008072002119F006FC04F500440023C4F87B
:103B1000AC3610BDD0F8403200F234429FED287A26
:103B2000002103F58053B3F9283082ED0D7A10227D
:103B300007EE903AC0F860142249F8EEE77AC0F830
:103B40006C34C0F83414A1F57001A0F84A341B019C
:103B500067EE877AA1F2FB71B3EE007A48BF0733B4
:103B6000C0F83C1401F15B41DB10C0F8702467EE33
:103B7000877A01F5F111B4EE007AA0F8543401F619
:103B80000F41114BC0F8442467EE877AC0F8401407
:103B90000121C0F858340023A0F85624FCEEE77A3F
:103BA000A0F848144BF68031C0F85C342423C0F8E8
:103BB0004C1417EE901AC0F83834C0F850147047FF
:103BC00000803B47524946466461746137B50446FC
:103BD00000F53A7017F052FE9FED180AD4F8EC0287
:103BE00000258DED010A01F08FFED4F8EC2204F5DA
:103BF0003C709DED010A02F5C123C3F844531560E2
:103C000001F09CFC0E4B04F54D709FED0E0AC4F8BC
:103C1000F8320D4BC4F83C53C4F8F432012384F855
:103C20004033FFF765FE0023B5EE060A04F5547035
:103C300084F85C33FFF75CFE03B030BD00803B4787
:103C400000A08C4617B7D1393333333F00F57D736D
:103C5000002210B5032A0AD04FF07C511960196177
:103C60001962196301320433042AF3D110BD0749E4
:103C700000F58064216000F58264216000F58464B1
:103C8000216000F586642160ECE700BFCDCC4C3D9F
:103C9000D0F8402202F58052B2F92830D26A10B52D
:103CA0000446B2FBF3F3D0E9D8122030FFF74AFA0A
:103CB0002046FFF7CBFFD4F84032064803F5805387
:103CC000B3F92820D96ABDE81040B1FBF2F103F046
:103CD00091BD00BF80090224D0F8D83210B5044647
:103CE000052B0AD8DFE803F0030E120A1A1CC0697C
:103CF00001F0B4FF0023C4F8D43210BDFFF7F4FE86
:103D00000323F8E7FFF7C6FE0123F4E7D0F8D43227
:103D1000042B01D0FFF7BCFF0223ECE70423EAE702
:103D20000523E8E770B50024944231D0D0F8405222
:103D3000D0F86C3305F58055B5F92860ED6AB5FB10
:103D4000F6F5AB4222D2D0F86063DFED126A36F9A5
:103D500013600D6807EE106AD0F8646305EB840504
:103D600036F91360B8EEC77A013307EE906A27EE92
:103D7000267AF8EEE77A85ED007A4D6867EEA67A46
:103D800005EB8405C5ED007AC0F86C330134CBE750
:103D900070BD00BF00000038F0B500259D4231D055
:103DA0000E6800F5004C146806EB850604EB8504EC
:103DB000376827604C68D0F8607304EB8504D4ED55
:103DC000007A546804EB85040135C4ED007AFDEEF9
:103DD000E77A96ED007ADCF8AC46BDEEC77A17EECE
:103DE000106A27F8146017EE907AD0F8646326F80A
:103DF00014700134044EB4FBF6F706FB1744CCF8FC
:103E0000AC46CBE7F0BD00BF00E4570070B50446F8
:103E10008CB000F54D70CDED070A08AD0390FFF7AB
:103E200087FD039809AE8DED080A9DED070AFFF79F
:103E30007FFD04F53C708DED090A9DED080A0390A5
:103E400001F098FB03988DED080A9DED090A01F039
:103E500091FB2B4632462946D4F8EC0200968DEDB4
:103E6000090A01F0CBFE04F554709DED080A039099
:103E7000FFF75EFD03988DED080A9DED090AFFF737
:103E800057FD04F53A7029468DED090A0122B6EE78
:103E9000000A039017F0F6FC31460398B6EE000ACC
:103EA000012217F0EFFC0CAB95E8030003E90300D7
:103EB0009DED0A0ADDED0B0A0CB070BD2DE9F04F47
:103EC000044687B00E46984600250092009B9D420E
:103ED00000F0D68004F120094846B8F1000F6CD0FC
:103EE000FFF79BFA30B94846FFF79AFA10B94846EF
:103EF000FFF7EEFB4846FFF79BFA8DED020A2046DE
:103F0000CDED030ADDED030A9DED020AFFF77EFF0A
:103F100004F53A70012204A98DED040AB6EE000AF8
:103F2000CDED050A019017F0ADFC012205A901981D
:103F3000B6EE000A17F0A6FC3168049B01EB850180
:103F40000B607368059A03EB85031A6004F5004261
:103F500092F8B006002800F09180D4F860B404F222
:103F6000344007EE90BAF8EE676AD0ED0D7A86EE2F
:103F7000A77ADFED457AB4EEE77AF1EE10FA7DD557
:103F8000086802F2BC61D4F870C40860196802F5D0
:103F9000D863D4F86C04196004F50643D4F864E4DB
:103FA0000021BC3388424DDDBCF1100F08D0BCF1BC
:103FB000200F28D001310433F4E7FFF703FA9CE720
:103FC000D3ED007A04F274499FED307A01EB0E0ACA
:103FD000F4EEC77AF1EE10FA12D99FED2D7AF4EED5
:103FE000477AF1EE10FA67FE277A9FED2A7A67EE9C
:103FF000877AFDEEE77A17EE907A29F81A70D9E7FA
:10400000F0EE477AF1E7D3ED007A01EB0E099FED70
:104010001F7AF4EEC77AF1EE10FA10D99FED1C7AF0
:10402000F4EE477AF1EE10FA67FE277AFEEEE07AB8
:1040300004EB890917EE907AC9F87474BAE7F0EEC8
:10404000477AF3E70BF10103BCF1100F7044C4F899
:1040500060340CBF4FF400534FF48053C4F8640431
:10406000984204BF0121C2F87414B0EB430F21BF82
:104070000023C4F864340223C2F87434013525E700
:1040800007B0BDE8F08F00BF0000F04204FF7FBF23
:1040900004FF7F3F00FEFF4670B50C4611461A46EE
:1040A000D0F8D432013B032B2DD8DFE803F00225F2
:1040B0001E2AD0F8404204F58054B4F92850E36A2F
:1040C000D0F86C43B3FBF5F3013B9C4209D30E4B94
:1040D0001B68D86901F0C2FD0C48BDE8704003F0D0
:1040E00089BBBDE87040FFF71DBE13460A46214656
:1040F000BDE87040FFF750BE0023BDE87040FFF7F9
:10410000DDBE0123F9E770BD581D04249B0902247C
:1041100013460A46014602480068FFF7BDBF00BFCC
:10412000581D0424F0B500F500458BB00446FFF798
:10413000F1FCD5F8B42602A8124904F5044619F09A
:10414000ABFED5F8B4367C360A22013302A93046DC
:1041500004F23447C5F8B436FDF7BAFD60B90190F2
:1041600001AB2C2239463046FDF743FF20B901232D
:1041700085F87834C4F86004012385F8B0360BB0B4
:10418000F0BD00BFAF090224032920D8DFE801F009
:104190000205080D2030FFF705B82030FFF764B89E
:1041A000D0F8EC3283ED000A7047B3EE047ADFED0D
:1041B000086A20EE000AF0EE477AE0EE267AC7FEA3
:1041C000877A9FED047AC7FEC77AC0EDBE7A704742
:1041D00000788C4600A08C4608B5032913D8DFE888
:1041E00001F002070C132030BDE80840FFF71AB8B1
:1041F0002030BDE80840FFF75DB8D0F8EC3203F599
:10420000C12383EDD10A08BD9FED0A7A20EE000A92
:10421000DFED096A00F54D70F0EE477AE0EE267AA0
:1042200087FE870ADFED057A80FE670AFFF760FBED
:10423000E9E700BF17B7D13951491D3C0AD7233CE4
:1042400038B5D0F8DC520446C0692DED048B9FEDE3
:10425000539A683003F072F9B4EEC90AF1EE10FA1D
:104260006AD9DFED4F7AB4EE670AF7EE007AF1EE25
:1042700010FA27FE808AE069883003F05FF9B4EE17
:10428000C90AF1EE10FA5AD9DFED457AB4EE670AA1
:10429000F7EE007AF1EE10FA67FE808A94F8E432C5
:1042A000AD000BBB6319D3EDFD7AF4EEC87AF1EEE5
:1042B00010FA08D803F2144292ED007AF4EEC77AAD
:1042C000F1EE10FA0DDAF4EEC87AF1EE10FA19DB1D
:1042D00003F2144393ED007AF4EEC77AF1EE10FA8C
:1042E00010D8012384F8E432B0EE480AD4F8DC1286
:1042F0002046FFF749FF631983EDFD8A03F214435B
:1043000083ED008A94F8E532E3B1D4F8DC1220465C
:104310002C44B0EE680AFFF75FFF04F2044304F296
:104320002444C3ED008AC4ED008A0520BDEC048B53
:10433000BDE8384006F040BB9FED1A8A9BE7DFEDF1
:10434000198AABE7631903F20442D2ED007AF4EE66
:10435000E87AF1EE10FA08D803F2244292ED007ADE
:10436000F4EEC77AF1EE10FA0DDAF4EEE87AF1EE37
:1043700010FADADB03F2244393ED007AF4EEC77A05
:10438000F1EE10FAD1D80123074884F8E53203F0A2
:1043900031FA94F8E532002BC7D0B6E70AD7233CB0
:1043A000A4707D3F00000000BC09022410B5044643
:1043B000C069683003F0C2F8DFED157A9FED157A19
:1043C000B4EEE70AF1EE10FA1FD9DFED137AB4EE7E
:1043D000670AF7EE007AF1EE10FA27FE800AF2EE95
:1043E000086A04F51270F0EE477ABDE81040E0EE7E
:1043F000267AC7FE877AC7FEE67AF8FE677AFDEE70
:10440000E77A17EE901A00F06BBEB0EE470AE6E7C7
:104410000AD7233C00000000A4707D3F10B504467D
:10442000C0692DED028B883003F088F8DFED127A39
:10443000B4EEE70AF1EE10FA1AD9DFED107AB4EE15
:10444000670AF7EE007AF1EE10FA27FE808AB0EEE6
:10445000480A04F12000FEF7E5FE04F2044304F2EA
:10446000244483ED008A84ED008ABDEC028B10BDEC
:104470009FED038AEBE700BF0AD7233CA4707D3F82
:1044800000000000D0F8D432022B10B5044603D14E
:10449000BDE81040FFF7D4BE042B06D1FFF786FF1E
:1044A0002046BDE81040FFF7B9BF10BD052911D85F
:1044B000DFE801F003080A060C0E074803F09AB97A
:1044C0000648FBE70648F9E70648F7E70648F5E738
:1044D0000648F3E7704700BFC6090224DF0902243B
:1044E000F60902240C0A0224240A02243C0A0224AB
:1044F00003290CD8DFE801F002050709044803F09E
:1045000079B90448FBE70448F9E70448F7E770473E
:10451000500A0224660A0224800A0224950A022410
:1045200010B5044600F506400221C4302DED028B83
:1045300007F0F8F804F5064001219FED218AD030FC
:10454000DFED208A07F0EEF804F506400021DC30AC
:1045500007F0E8F804F50640B0EE481AF0EE480A15
:10456000E830B0EE680A07F0EDF8062104F50740E0
:1045700007F0D8F804F50740B0EE681AF0EE480AE4
:104580000C30B0EE480A07F0DDF804F50740B0EE55
:10459000481AF0EE680A1830B0EE480A07F0D2F870
:1045A00004F50740B0EE681AF0EE680A2430B0EE69
:1045B000680ABDEC028BBDE8104007F0C3B800BF2D
:1045C00000007F43000000007FB5D0F8D8220446E9
:1045D000C369052A10D8DFE802F003272C31363BE7
:1045E00000F5064201ADD03207CA85E8070029462A
:1045F00003F1D80003F086F9D4F8D832022B0DD09D
:1046000004F5074301ADE669243393E8070085E824
:104610000700294606F5967003F074F9E06904B0C6
:10462000BDE8704001F060BB00F5064201ADE83224
:10463000DAE700F5064201ADC432D5E700F50742DE
:1046400001AD0C32D0E700F5074201AD1832CBE7DF
:1046500000F5064601ADDC3696E8070085E8070060
:1046600003F1D800294603F04DF9E36996E8070005
:1046700085E80700294603F59670BBE738B5044680
:1046800000252DED048BC0E9D8120221C06901F08C
:10469000E7FAE069032101F0FBFA2046C4F8D4529E
:1046A000FFF7E4F9B0B9334803F0A4F8E069B7EED6
:1046B000000AD83003F024F9E069B7EE000A00F5EB
:1046C000967003F01DF9E069BDEC048BBDE838403D
:1046D00001F00ABBE06901F0F1FAE069F0EE408A0E
:1046E00001F0D4FA07EE900AB8EEE78A06F000FB74
:1046F00007EE900AB7EE007A9FED1F6A012388EE5D
:10470000289A204623701D4BE360F8EE677A2361F8
:10471000636167EE897AC7EE276AC4ED016AC8EE65
:10472000886AC6EE267A37EE877AC7EE876AC4EDC6
:10473000066AFFF74BFA2046FFF788FAFFF7F0FE0C
:104740002046FFF741FFE06901F0CEFA284619F054
:10475000F5FB0B4BD4E9D812186004F120002B466E
:10476000FEF7F0FCE069BDEC048BBDE8384001F0D9
:10477000A7BA00BFAA0A0224DB0FC9400000C07F0D
:10478000501D0424D0F8D422C369022A30B504464F
:1047900085B028D1D0F8DC22032A0FD8DFE802F058
:1047A0000214191E00F5064201ADC43207CA85E89D
:1047B0000700294603F5967003F0A4F8E06905B0F8
:1047C000BDE8304001F090BA00F5064201ADE83294
:1047D000ECE700F5074201AD0C32E7E700F50642D1
:1047E00001ADD032E2E700F5074201AD2432DDE74A
:1047F00070B5054643482DED028B02F0FBFFE869DA
:104800009FED418A6830D5F8DC4202F097FEB4EEA5
:10481000C80AF1EE10FA69D9DFED3C7AB4EE670A06
:10482000F7EE007AF1EE10FA27FE800A05EB840617
:1048300006F2144383ED000AE869883002F07EFE38
:10484000B4EEC80AF1EE10FA53D9DFED307AB4EEC7
:10485000670AF7EE007AF1EE10FA27FE800A0134BB
:1048600006F224462846042C86ED000AA8BF002440
:104870002146C5F8DC42FFF73BFE2846FFF782FFE2
:10488000E869683002F05AFEB4EEC80AF1EE10FA98
:1048900032D9DFED1E7AB4EE670AF7EE007AF1EE58
:1048A00010FA27FE800A05EB840404F2144383ED1A
:1048B000000AE869883002F041FEB4EEC80AF1EE61
:1048C00010FA1CD9DFED117AB4EE670AF7EE007A20
:1048D000F1EE10FA27FE800A04F22444002384ED4E
:1048E000000AA5F8E432BDEC028B70BD9FED080A0A
:1048F0009CE79FED070AB2E79FED050AD3E79FED1E
:10490000040AE9E7C60A02240AD7233CA4707D3FC3
:104910000000000070B5044644482DED028B02F003
:1049200069FFE0699FED428A6830D4F8DC5202F0FA
:1049300005FEB4EEC80AF1EE10FA6AD9DFED3D7A51
:10494000B4EE670AF7EE007AF1EE10FA27FE800A5D
:1049500004EB850606F2144383ED000AE069883013
:1049600002F0ECFDB4EEC80AF1EE10FA54D9DFED16
:10497000317AB4EE670AF7EE007AF1EE10FA27FE0C
:10498000800A013D06F2244648BF032586ED000A51
:10499000E069C4F8DC52683002F0D0FDB4EEC80A19
:1049A000F1EE10FA3BD9DFED237AB4EE670AF7EEA9
:1049B000007AF1EE10FA27FE800A04EB850505F275
:1049C000144383ED000AE069883002F0B7FDB4EECD
:1049D000C80AF1EE10FA25D9DFED167AB4EE670AAF
:1049E000F7EE007AF1EE10FA27FE800A05F2244570
:1049F0000023204685ED000AA4F8E432D4F8DC1246
:104A0000FFF776FD2046BDEC028BBDE87040FFF756
:104A1000B9BE9FED090A9BE79FED070AB1E79FED3D
:104A2000060ACAE79FED040AE0E700BFDA0A02249B
:104A30000AD7233CA4707D3F00000000D0F8D43298
:104A40000A46012B70B5044688B00ED10023C0F889
:104A5000D83204F5004300212046019283F8A816BD
:104A60001146FEF7BDFF019A03E0D0F8D832002BC3
:104A7000EFD0D4F8D432042B58D104F5127602A822
:104A80002034314600F000FD0023DDE90225CDE9A8
:104A90000533AD1A07933AD0254B9D4201D916F044
:104AA00067FF284616F053FF03461D44DDE9021256
:104AB00007959142A2EB0105CDE9053304D01846D4
:104AC0002A4618F00DFC03462B4405A92046002475
:104AD0000693FEF74BFD05A8FDF75AFE154802F0B8
:104AE00089FE052005F068FFDDE90232D21AB4EB39
:104AF000A20F0ED203EB84030F480134D3ED007AEA
:104B0000B7EEE77A53EC172B02F01EFEECE72B46CC
:104B1000CBE70A4802F018FE304600F077FB01466A
:104B2000074802F067FE02A8FDF732FE08B070BD2C
:104B3000FCFFFF7FF30A0224010B0224620B022414
:104B4000050B022437B500F50043002100F50045B0
:104B5000044683F8441048350191D0E90E3253439E
:104B6000C26A5343DB088362243343602846FDF75F
:104B70005CFB01AB2C2221462846FDF73AFA284679
:104B8000FDF746FB03B030BD10B5044600F23440DB
:104B9000FFF7D8FF002304F5004484F8B03610BDB9
:104BA00038B5D0F8D4320446022B01D0042B2ED1D4
:104BB00004F50045E06995F8B0366BB9012101F0C4
:104BC00017FA0123124885F8B03602F013FE20468A
:104BD000BDE83840FFF7A6BA002101F009FAD4F881
:104BE00060340C4807EE903A04F23443F8EE677AEA
:104BF000D3ED0D6A87EEA67AB7EEC77A53EC172B82
:104C000002F0F8FD2046BDE83840FFF7BDBF38BDD3
:104C1000120B0224250B022410B586B00446684608
:104C2000FEF740FE6946204602F0E4FD684616F0B5
:104C3000CFFE06B010BD000000F5127100B58FB0B8
:104C40000846019100F04EFA019902A800F064FABA
:104C500002A908A8FEF726FE08A90648FFF7DCFF10
:104C600008A816F0B5FE02A816F0B2FE0FB05DF867
:104C700004FB00BF5D090224D0F8D432022B02D01D
:104C8000042B02D07047FFF7B3BDFFF7D5BF00007C
:104C900000B58FB000F5127104AB08460191029384
:104CA000002303938DF8103000F033FA019908B314
:104CB0000138012818D8084600F00BFA019908A815
:104CC00000F048FA08A902A8FEF7C4FD08A816F0EB
:104CD0007FFE02A908A8FEF7E5FD0B4808A9FFF72B
:104CE0009BFF08A816F074FE02A816F071FE0FB024
:104CF0005DF804FB0846019100F0E4F9019908A869
:104D000000F056FADEE700BF5D090224D0F8D43285
:104D1000022B01D1FFF7FEBD042B01D1FFF7B8BF75
:104D20007047000038B5C569044695F8BA30FF2BC6
:104D30002DD105F03FFE07EE900A95ED2F7AF8EEA3
:104D4000677A77EEC77A9FED197AF4EEC77AF1EEBB
:104D500010FA1CDDE36993F8B42003F1B0001AB136
:104D600093F8BA30802B02D002F00AFEF2E7204618
:104D7000FFF716FFE36993F8C420AAB193F8CA308D
:104D8000802B11D12046BDE83840FFF7BFBFE36953
:104D900093F8B420002AEDD093F8BA30802BE9D1F3
:104DA0002046FFF769FFE5E738BD00BF0000FA4382
:104DB00038B50446C06900F087FFE56995F85230C0
:104DC000FF2B3FD105F0F6FD07EE900A95ED157A21
:104DD000F8EE677A77EEC77A9FED217AF4EEC77A1C
:104DE000F1EE10FA2EDD2046FEF7D7FDD4F8D432CE
:104DF000022B01D0042B02D12046FFF793FFE36979
:104E000093F8442022B1596E11B12046FFF716FEE7
:104E1000D4E9B513994222D02046FFF747FB114849
:104E200002F0E8FCD4F8D8122046FFF73FFB0E480A
:104E300002F0E0FC2046FFF7C7FB2046BDE8384003
:104E4000FEF74ABFE36993F84C20002ACED093F8CE
:104E50005230802BCAD12046FEF788FDC6E738BD08
:104E600000007A44430B0224540B0224044607B585
:104E7000224802F0BFFC04F5004595F8B03693B324
:104E8000D5F8742404F23446B2B195F878349BB165
:104E90000023012A06F500404FF480420CBF19465A
:104EA0004FF48051019348301031C5F8743401AB90
:104EB00006EB8101FDF79DF8D4F86034D6ED0D6A5C
:104EC00007EE903AF8EE677A87EEA67ADFED0C7A75
:104ED000B4EEE77AF1EE10FA05DD3046FFF732FE68
:104EE000002385F8B0362046FFF762FF2046FFF723
:104EF000C9FA012005F060FDBDE700BF640B022484
:104F00000000F042F7EE006ADFED057A0023C0ED05
:104F1000017A86EEA77A037380ED027A704700BFAC
:104F20000000000007EE902A0A4B80ED060AF8EE1A
:104F3000677A1B688B4280EE277A98BFC91A0123D3
:104F40000370002343600023C0E90412037380ED63
:104F5000027A70475C1D04249FED0F7BB7EEC00AF8
:104F6000DFED0F6A20EE070BDFED0E7AB7EEC00B18
:104F700020EE000AE0EE276ADFED0B7AE0EE267AFB
:104F8000B6EE000AB0EE677AF7EE007A77EEC77AEF
:104F900027EE800A704700BF182D4454FB211940AA
:104FA000C2BCFDBEDFB2163DE1D87F3F7FB50378BE
:104FB000B0EE406AF0EE605A8DED020ACDED030AC4
:104FC0004BB90023049305939DED040ADDED050A1A
:104FD00007B05DF804FB037B13B100230370F0E717
:104FE000D0ED017A90ED020A37EE800AF7EE007AF2
:104FF00080ED010AB4EEE70AF1EE10FA04DD0123B8
:10500000037300234360E8E7D0ED057A90ED067A5C
:10501000F8EE677A036967EE807A67EE877AFCEECE
:10502000E77A17EE902A1A441346144A1268511E62
:10503000994201D8D2431344114AFFF78DFFDFEDA7
:10504000116A126832F9132007EE102A0E4A12680C
:10505000B8EEC77A32F9133027EE267A07EE903A87
:10506000F8EEE77AA7EE006A67EEA67AE7EE805AD6
:105070008DED046ACDED055AA6E700BF5C1D042442
:10508000641D042400000038601D042408B548B1E4
:10509000B0F1005F01D316F06BFC8000BDE8084062
:1050A00016F055BC08BD1FB5044608460391FBF732
:1050B00067F9039B002162680090204616F002FD0C
:1050C00004B010BD03690133042B28BF0023036122
:1050D0007047C3680133042B28BF0023C3607047A7
:1050E0008161704743690133032BA8BF00234361EB
:1050F0000023C36170478369F2EE087AB0EE000ABC
:10510000CB1800EE903AF8EE600AC0EEA70A16F04F
:1051100003BF40697047000000F1080310B5036049
:1051200000230446436003724B69012B04D0022B19
:1051300007D023B9044900E00449FFF7B4FF204633
:1051400010BD0349F9E700BF8D0B0224730B022445
:10515000A40B022400F1080307B503600023436099
:105160000372CB68032B17D8DFE803F002070C119A
:105170000B490190FFF797FF01980A490190FFF74B
:1051800092FF019808490190FFF78DFF01980749A8
:105190000190FFF788FF019803B05DF804FB00BFA2
:1051A000BB0B0224D30B0224F30B0224140C0224A5
:1051B00000F1080307B503600023436003720B6925
:1051C000032B17D8DFE803F002070C110B490190FD
:1051D000FFF769FF01980A490190FFF764FF019802
:1051E00008490190FFF75FFF019807490190FFF719
:1051F0005AFF019803B05DF804FB00BF340C022491
:105200004C0C0224650C02247D0C0224C0697047FA
:1052100070B5D1E9002500230446AD1A0E4683601F
:10522000C0E900331BD00F4B9D4201D916F0A0FB03
:10523000284616F08CFB03461D44C4E90033A560E4
:10524000D6E900128A42A2EB010504D018462A468C
:1052500018F046F803462B442046636070BD2B4689
:10526000EAE700BFFCFFFF7F38B503461046D3E9ED
:105270000035ED1A6FF06043AC10A3EBA5058D422D
:1052800001D216F07BFBA14238BF2146601803D241
:10529000984228BF184638BD1846FCE7D0E90832C6
:1052A0002DE9F04793424FF00C0102694FF00006E0
:1052B000044600F120072DED028B18BF436284B035
:1052C00000F12C0301A801FB0231FFF7A1FFDDE98A
:1052D00001239B1AB6EBA30F38D2A369204652F8DC
:1052E00026101944FFF707FFB0EE408AD4E90953AE
:1052F0009D4204D0A5EC010A65620136E7E7174A32
:1053000001213846FFF7B0FFD4F820908046FFF720
:10531000BDFEA5EB090582464319002D83ED008AE9
:1053200003DD2A46494617F0DBFF04355544B9F141
:10533000000F05D0A16A4846A1EB090116F005FB54
:105340000AEB8800C4E908A5A062D6E701A8FDF72A
:1053500029FA04B0BDEC028BBDE8F087D80802241E
:105360002DE9F843D0E90143054689469C4205D022
:105370000B6844F8043B4460BDE8F883104A0121FF
:10538000FFF772FF2F688046FFF780FEE41BD9F815
:10539000002006460319002C1A6003DD2246394618
:1053A00017F09EFF0434344427B1A9683846C91B5E
:1053B00016F0CBFAC5E9006406EB8806AE60DBE7C1
:1053C000D80802247FB5D0E908320D460C2193425B
:1053D000C268044600F1200618BF436200F15C0376
:1053E00001A801FB0231FFF713FFE16920462944C0
:1053F000DDE90123E1619B1AB1EBA30F84BF002318
:10540000E361E169FFF777FEBCEEC00A694630460A
:10541000B8EE400A8DED000AFFF7A2FF01A8FDF7E4
:10542000C1F904B070BD7FB5D0E908320D460C213A
:1054300093420269044600F1200618BF436200F15E
:105440005C0301A801FB0231FFF7E2FEE16920469F
:105450002944DDE90123E1619B1AB1EBA30F84BF6D
:105460000023E361E169FFF746FEBCEEC00A69462E
:105470003046B8EE400A8DED000AFFF771FF01A833
:10548000FDF790F904B070BDF8B50D46044611461D
:105490006B69012B25D0022B1FD013B92846FFF7CB
:1054A000FDFED5E90837FF1A0023B810A360C4E950
:1054B0000033FFF7EBFD07440646A760C4E9000090
:1054C000D5E908139942A3EB010502D02A4617F04B
:1054D00007FF2E4420466660F8BD2846FFF772FF9E
:1054E000DFE72846FFF79FFFDBE7B5EEC00A08B508
:1054F000F1EE10FA2DED028B4ABF4FF0FF3301237E
:10550000B1EE400A07EE903AB8EEE78AF1EE007A83
:10551000B4EEE70AF1EE10FA08DAF6EE007AB4EE2D
:10552000E70AF1EE10FA06D528EE008AB0EE480A36
:10553000BDEC028B08BD16F0ADFEF5E700230A4A6C
:1055400080ED0E0A03604260C360084A4362036153
:1055500083624361C3628361C36103620363044B7B
:1055600082604363704700BFCDCCCC3E00007A44DC
:10557000000080BF2DE9F0412DED068BD0ED018AB2
:10558000B0EE409A90ED027A84B0F5EEC08AD0ED8C
:105590000C7A0446DFED5C9AF1EE10FAF4EE477AED
:1055A00048BFDFED5A8AF1EE10FA07D1D0ED0D7A3F
:1055B000F4EE687AF1EE10FA00F09380D4ED0E6A02
:1055C000B6EE000A84ED0C7AC7EE267A9FED507A8B
:1055D0009FED506A9FED508A67EEA76A27EE888A92
:1055E00066EEA65A26EE877AA5EE867A9FED4B6A7E
:1055F000A7EEC67A9FED4A6A67EE807A9FED490A68
:10560000A6EE868ADFED486A67EE807A9FED470A4C
:1056100037EE000A38EE268A20EE670A16F00AFCFA
:10562000F7EE007AC4ED0D8A84ED0F8A37EEC00ADA
:1056300080EE29AA84ED10AAF1EE007A4FF002085C
:1056400068EEA78A28EE888AD4ED087A20466F464D
:1056500004F11005A7EEC89A012629EE290AFFF7E2
:1056600044FFD4ED097A30EE670AD4ED037AE0EE18
:105670000A7ACDED007AC4ED037AB7EC019A2046A0
:10568000F5EC01AA29EE290AFFF72FFF032EF0EE11
:10569000408A85ED040A2ED095ED050A78EEC08A81
:1056A0000136F0EE6A7A042EE8EE8A7AC7ED007AC7
:1056B00045ED017AE1D1DDED037AB6EE007A94EDA5
:1056C000070AB8F1010FC4ED077A37EE800A20EE21
:1056D000070A84ED080A0BD104B0BDEC068BBDE8C7
:1056E000F081F0EE678A90ED0F8A90ED10AAA3E7A3
:1056F0004FF00108A8E715ED010A204620EE290A1F
:10570000FFF7F3FECAE700BF17B7D137000000006C
:105710002DB2FD3E77BEEF3F9CA2EB3FDD24263F3E
:10572000FAED7BC0DB0FC940492E7F3F5BB17F3F65
:105730008B69B6EE005BD0ED054A002B9FED354A34
:10574000B8BF03F5803310B5B8BF8B6143F6095479
:105750008B69634301339CB21B042F4B48BFA4F5F4
:1057600080348C61140103EB0212D2ED027A84EED4
:10577000A76AD1ED007AB7EEC66A36EE056BBDEECC
:10578000C66BF8EEE76AD1ED037AB8EEE77AD1EDB1
:10579000027A81ED076AF8EEE77AE7EE047A76EEB0
:1057A000E77AF5EEC07AF1EE10FA06D591ED017ABE
:1057B000B8EEC77A77EE877AF3E787EEA47AD1ED71
:1057C000067A234490ED034AD3ED016AF8EEE77AB6
:1057D000B8EEC66A67EEA67ADFED106A67EEA67AC3
:1057E000D3ED006AE4EE276A77EE667AB7EE007AC8
:1057F000C7EE866ADFED0A7AA4EEA67A27EE277A4C
:10580000B7EEC77A37EE057BBDEEC77B81ED047A34
:1058100010BD00BF00008031980C02240000003849
:105820000000804D00000000334BB7EE026B90ED9E
:10583000054A03EB0213D3ED004AD3ED013AB7EE6C
:10584000E47AB7EEE35A70B5A5EE067B00250C4668
:105850004D610D60B6EE005B9FED256BB7EEC77B2B
:1058600027EE047AB7EEC77A37EE067B93ED036A2C
:10587000B7EEC66ABDEEC77BDFED207A36EE056B6C
:1058800081ED017AB8EEC77ABDEEC66B81ED066A8E
:10589000B8EEC66A26EE236A26EE276AD0ED037AB2
:1058A000E7EE864AA4EE647AFDEEC77AC1ED027A8D
:1058B000F8EEE77A37EE677ADFED117A27EE277A8E
:1058C000B7EEC77A37EE057BBDEEC77B81ED037A75
:1058D000FFF72EFF002160682B462162984205DD0C
:1058E000626A02EB830201331160F7E7002070BDAA
:1058F0000000000000803040980C022400000038B6
:105900000000804D00000000294B4FF07E522DE931
:10591000F04103600025274B044600F12408264F80
:10592000436000232E4680ED020A0361C361012318
:1059300080ED050AC2608261036204F5B2733246EB
:105940004146204603EB85030136C8F82430FFF7B3
:105950006BFF97ED016A97ED007AB7EE025BB7EE49
:10596000C66A082EB7EEC77AA6EE057B9FED0E6BD2
:10597000B7EEC77B27EE007AB7EEC77A37EE067B25
:10598000BDEEC77B17EE103A05EB830502D1002070
:10599000BDE8F081094B08F1280810379D42CCDDA5
:1059A0000120F5E7AFF300800000000000803040E8
:1059B000EC51783F00401C46980C0224788201008C
:1059C0002DE9F0411D46036A06460F46002B90461E
:1059D0002DED028B40F3048190ED010AD0ED077AA2
:1059E000B4EE670AF1EE10FA40F0BC8090ED060AC2
:1059F000344606F5A0723346DFED7D7A93ED117AD9
:105A000028339A4277EE877AF8D1B5EE007A97ED8F
:105A1000002AD8ED002A0027DFED753AE7EE872A45
:105A2000A7EE872AB0EE633A17F0010094ED117AE1
:105A3000616AA26C42FE227A77EEC77AA36A02EB11
:105A40008102C2ED007A626A01329A42A8BFD21A7C
:105A50006262226BB2F1805F06DBE16A01EB2271C8
:105A600022F07042E1622263E26AFFEE006AB7EE62
:105A7000006A9A42B6EE005AB0EE667AA4BFD21A15
:105A8000E262A26CD4E90B1C9FED574B05EE90CA65
:105A90000029FAEEC25AA5EEA57A35EE866AE6EE40
:105AA000056AB7EEC77A27EE047BB7EEC77BF0EE48
:105AB000087A67EE277AF0EE671A77EEE57AD6EE87
:105AC000051A36EEC76A68DDA3F1020E8E4564DD65
:105AD00001F18041013902EB810191ED004AD1EDE4
