:020000042400D6
:1000000000000220110A00240D0A00248DA80024FB
:100010000D0A00240D0A00240D0A0024000000002F
:100020000000000000000000000000000D0A002495
:100030000D0A0024000000000D0A002411A800246D
:100040000D0A00240D0A00240D0A00240D0A0024C4
:100050000D0A00240D0A00240D0A00240D0A0024B4
:100060000D0A00240D0A00240D0A00249992002490
:10007000A5920024F97F0024B1920024BD920024AF
:100080008DA20024C58700240D0A00240D0A002437
:100090000D0A00240D0A00240D0A00240D0A002474
:1000A0000D0A00240D0A00240D0A00240D0A002464
:1000B000B9A50124C5A50124D1A50124F9870024EF
:1000C0000D0A0024058800240D0A0024299E01241D
:1000D000359E0124C1A00024EDA0002421A100240C
:1000E0000D0A00240D0A0024000000000D0A00245F
:1000F0000D0A00240D0A00240D0A00240D0A002414
:100100000D0A002409980024DDA50124419E012444
:1001100055A1002489A100240D0A00240D0A002401
:100120000D0A00240D0A0024659E0124999E0124D5
:10013000C1A200240D0A00240D0A00240D0A002487
:1001400000000000000000000000000000000000AF
:100150000D0A00240D0A00240D0A0024BDA100246C
:10016000118800240D0A002421A8002445A8002499
:100170000D0A002469A800240D0A00240D0A002499
:100180000D0A00240D0A0024F1A1002425A2002458
:100190004D9E0124599E01240D0A00240D0A0024BD
:1001A0000D0A00240D0A00240D0A00240D0A002463
:1001B000B98F00240D0A00240D0A00240D0A002422
:1001C0000D0A00240D0A0024B97A0024C57A0024FF
:1001D0000D0A0024D17A00240D0A00240D0A0024FF
:1001E0000D0A00240D0A00240D0A00240D0A002423
:1001F0000D0A00240D0A00240D0A00240D0A002413
:100200000D0A00240D0A00240D0A00240D0A002402
:100210000D0A00240D0A00240D0A00240D0A0024F2
:100220000D0A00240D0A00240D0A0024000000001D
:100230000D0A00240D0A0024000000000D0A00240D
:100240000D0A00240D0A00240D0A00240D0A0024C2
:100250000D0A00240D0A00240D0A00240D0A0024B2
:100260000D0A00240D0A00240D0A00240D0A0024A2
:100270000D0A00240D0A002459A2002400000000E9
:100280000D0A00240D0A00240D0A002400000000BD
:08029000000000000D0A00242B
:1002A00010B5054C237833B9044B13B10448AFF3B0
:1002B00000800123237010BD00E80224000000002C
:1002C000641A022408B5034B1BB103490348AFF37A
:1002D000008008BD0000000004E80224641A022423
:1002E00001F0FF01102A2BDB10F0070F08D010F8E7
:1002F000013B013A8B422DD010F0070F42B3F6D1EB
:10030000F0B441EA012141EA014122F007047FF003
:1003100000070023F0E80256083C85EA010586EA5A
:10032000010685FA47F5A3FA87F586FA47F6A5FA96
:1003300087F68EB9EED1F0BC01F0FF0102F00702A2
:1003400032B110F8013B013A83EA010313B1F8D14D
:100350000020704701387047002D06BF354603382E
:10036000073815F0010F07D1013015F4807F02BF67
:10037000013015F4C03F0130F0BC0138704700BFB8
:10038000034613F8012B002AFBD1181A01387047D5
:1003900081F0004102E000BF83F0004330B54FEA36
:1003A00041044FEA430594EA050F08BF90EA020FA3
:1003B0001FBF54EA000C55EA020C7FEA645C7FEA36
:1003C000655C00F0E2804FEA5454D4EB5555B8BF59
:1003D0006D420CDD2C4480EA020281EA030382EACA
:1003E000000083EA010180EA020281EA0303362D5C
:1003F00088BF30BD11F0004F4FEA01314FF4801C2F
:100400004CEA113102D0404261EB410113F0004F40
:100410004FEA03334CEA133302D0524263EB4303F7
:1004200094EA050F00F0A780A4F10104D5F1200E95
:100430000DDB02FA0EFC22FA05F2801841F10001F0
:1004400003FA0EF2801843FA05F359410EE0A5F1C4
:1004500020050EF1200E012A03FA0EFC28BF4CF0F5
:10046000020C43FA05F3C01851EBE37101F00045AB
:1004700007D54FF0000EDCF1000C7EEB00006EEBB8
:100480000101B1F5801F1BD3B1F5001F0CD3490842
:100490005FEA30004FEA3C0C04F101044FEA445299
:1004A00012F5800F80F09A80BCF1004F08BF5FEA20
:1004B000500C50F1000041EB045141EA050130BD00
:1004C0005FEA4C0C404141EB0101013C28BFB1F512
:1004D000801FE9D291F0000F04BF01460020B1FA5D
:1004E00081F308BF2033A3F10B03B3F120020CDA30
:1004F0000C3208DD02F1140CC2F10C0201FA0CF00E
:1005000021FA02F10CE002F11402D8BFC2F1200C72
:1005100001FA02F120FA0CFCDCBF41EA0C01904028
:10052000E41AA2BF01EB0451294330BD6FEA040471
:100530001F3C1CDA0C340EDC04F11404C4F120025C
:1005400020FA04F001FA02F340EA030021FA04F36E
:1005500045EA030130BDC4F10C04C4F1200220FAC5
:1005600002F001FA04F340EA0300294630BD21FA03
:1005700004F0294630BD94F0000F83F4801306BFC9
:1005800081F480110134013D4EE77FEA645C18BFBD
:100590007FEA655C29D094EA050F08BF90EA020F54
:1005A00005D054EA000C04BF1946104630BD91EA4C
:1005B000030F1EBF0021002030BD5FEA545C05D14F
:1005C0004000494128BF41F0004130BD14F580048E
:1005D0003CBF01F5801130BD01F0004545F0FE4102
:1005E00041F470014FF0000030BD7FEA645C1ABF37
:1005F000194610467FEA655C1CBF0B46024650EA6E
:10060000013406BF52EA033591EA030F41F4002199
:1006100030BD00BF90F0000F04BF0021704730B51F
:100620004FF4806404F132044FF000054FF00001F4
:1006300050E700BF90F0000F04BF0021704730B5B5
:100640004FF4806404F1320410F0004548BF40428A
:100650004FF000013EE700BF42004FEAE2014FEADF
:1006600031014FEA02701FBF12F07F4393F07F4FBA
:1006700081F06051704732F07F4208BF704793F0BD
:100680007F4F04BF41F40021704730B54FF46074D0
:1006900001F0004521F000411CE700BF50EA0102D3
:1006A00008BF704730B54FF000050AE050EA01027C
:1006B00008BF704730B511F0004502D5404261EBEC
:1006C00041014FF4806404F132045FEA915C3FF42D
:1006D000D8AE4FF003025FEADC0C18BF03325FEACA
:1006E000DC0C18BF033202EBDC02C2F1200300FA7B
:1006F00003FC20FA02F001FA03FE40EA0E0021FAA0
:1007000002F11444BDE600BF53B94AB9002908BF3D
:1007100000281CBF4FF0FF314FF0FF3000F074B9DC
:10072000ADF1080C6DE904CE00F006F8DDF804E048
:10073000DDE9022304B070472DE9F047089D044627
:100740008E46002B4DD18A42944669D9B2FA82F284
:1007500052B101FA02F3C2F1200120FA01F10CFAC0
:1007600002FC41EA030E94404FEA1C48210CBEFBF8
:10077000F8F61FFA8CF708FB16E341EA034306FB81
:1007800007F199420AD91CEB030306F1FF3080F010
:100790001F81994240F21C81023E63445B1AA4B25D
:1007A000B3FBF8F008FB103344EA034400FB07F7FF
:1007B000A7420AD91CEB040400F1FF3380F00A8140
:1007C000A74240F207816444023840EA0640E41B35
:1007D00000261DB1D4400023C5E900433146BDE8E1
:1007E000F0878B4209D9002D00F0EF800026C5E983
:1007F000000130463146BDE8F087B3FA83F6002E9B
:100800004AD18B4202D3824200F2F980841A61EB12
:10081000030301209E46002DE0D0C5E9004EDDE730
:1008200002B9FFDEB2FA82F2002A40F09280A1EB18
:100830000C014FEA1C471FFA8CFE0126200CB1FB6D
:10084000F7F307FB131140EA01410EFB03F0884266
:1008500008D91CEB010103F1FF3802D2884200F2F3
:10086000CB804346091AA4B2B1FBF7F007FB101185
:1008700044EA01440EFB00FEA64508D91CEB040423
:1008800000F1FF3102D2A64500F2BB800846A4EB7E
:100890000E0440EA03409CE7C6F12007B34022FA69
:1008A00007FC4CEA030C20FA07F401FA06F31C4398
:1008B000F9404FEA1C4900FA06F3B1FBF9F8200CA5
:1008C0001FFA8CFE09FB181140EA014108FB0EF0EB
:1008D000884202FA06F20BD91CEB010108F1FF3A3B
:1008E00080F08880884240F28580A8F10208614447
:1008F000091AA4B2B1FBF9F009FB101144EA014155
:1009000000FB0EFE8E4508D91CEB010100F1FF34FF
:100910006CD28E456AD90238614440EA0840A0FB97
:100920000294A1EB0E01A142C846A64656D353D06D
:100930005DB1B3EB080261EB0E0101FA07F722FA91
:1009400006F3F1401F43C5E9007100263146BDE8BA
:10095000F087C2F12003D8400CFA02FC21FA03F31D
:10096000914001434FEA1C471FFA8CFEB3FBF7F09E
:1009700007FB10360B0C43EA064300FB0EF69E42C3
:1009800004FA02F408D91CEB030300F1FF382FD25C
:100990009E422DD9023863449B1B89B2B3FBF7F604
:1009A00007FB163341EA034106FB0EF38B4208D9DD
:1009B0001CEB010106F1FF3816D28B4214D9023E1E
:1009C0006144C91A46EA004638E72E46284605E73C
:1009D0000646E3E61846F8E64B45A9D2B9EB02080D
:1009E00064EB0C0E0138A3E74646EAE7204694E79D
:1009F0004046D1E7D0467BE7023B614432E73046D0
:100A000009E76444023842E7704700BFFEE7000090
:100A10000848094A0949121A1CF034FC0848094AD6
:100A20000021121A1CF056FC1CF0F8FB01F0F2FD3C
:100A3000FEE700BF00000020740700209C1A02247B
:100A400000E8022420770424034B1A1803EB8003E8
:100A50005B68107B5B6818472CEA0224064B1A5C23
:100A600042B901221A541A1803EB8003107B5B6809
:100A70001B681847002070472CEA022430B4054C4C
:100A8000251804EB800460688468287BA44630BC89
:100A9000604700BF2CEA022430B4054C251804EB53
:100AA00080046068C468287BA44630BC604700BFEF
:100AB0002CEA0224054B10B41C1803EB80035B687E
:100AC000207B1B695DF8044B184700BF2CEA022409
:100AD000006870470B0A017043700B0C090E83709D
:100AE000C1707047024400F8011B9042FBD170476F
:100AF000C3690239023B8B4283BF4389006B01FB10
:100B00000300002070470268490A836A528904334F
:100B1000B1FBF2F1186830B1814202D3091A0833EF
:100B2000F8E7586808447047C2F307238A76CB7603
:100B30000378032B01BF120C0A75120A4A7570471D
:100B400000F10B010022D30143EA520310F8012BFC
:100B500052FA83F38842DAB2F5D1104670470000AA
:100B60000368014610B553B11846024610F8014B10
:100B70001F2C10D93A2CF8D1581C824202D04FF0C9
:100B8000FF3007E01B78303BD8B20128F7D801329C
:100B900018460A6010BD014B1878FBE71CE80224D8
:100BA00038B50D46044618B9092000232B6038BD1E
:100BB0000368002BF8D01A78002AF5D08188DA88EB
:100BC0009142F1D15878FFF73FFF10F00100EBD1CF
:100BD0002368EBE72DE9F0410025D0F800800646B8
:100BE0000C468D758369002B59D0C36A01330AD036
:100BF00001F11607D8F80C3033F81500002850D151
:100C000025440023AB75F1690023A57D2E274E1ED8
:100C1000184616F8012F0130202A26D0052A08BFD1
:100C2000E522092807D104EB030C0DB98CF81670E6
:100C300001338CF8097004EB030C8CF809209DB982
:100C4000A2F1410EBEF1190F0CD8082891F80C80C2
:100C50008CBF4FF0100E4FF0080E18EA0E0F1CBF9D
:100C60002032D2B28CF8162001330B28D1D12DB905
:100C7000E21895750A7B002A08BF0023234400224E
:100C800001F11C005A72CB7A2372FFF721FF20601A
:100C900001F11600FFF71CFFE080000CA080BDE80A
:100CA000F081002101F052FC30B10135B5F5807FB3
:100CB00002D007F8010B9DE70025A1E701380A449F
:100CC00011F8013B914200F8013FF9D170472DE93D
:100CD000F041466B00F13808044601233246414694
:100CE0004078FFF7D9FE0546A8B9A36A226AF31A2D
:100CF000E070934202D2A778012F02D82846BDE8BF
:100D0000F081236A41466078013F1E440123324648
:100D1000FFF7C2FEF0E70125F0E7C3780BB1FFF75C
:100D2000D6BF1846704738B5436B05460C468B4214
:100D300010D0FFF7F2FF60B92246012305F1380118
:100D40006878FFF79BFE00281CBF4FF0FF3401209E
:100D50006C6338BD0020FCE7002310B5C3704FF072
:100D6000FF3304464363FFF7DEFF034618BBB4F8C6
:100D700036124AF6552291421FD194F83820E92ABA
:100D800005D0A26B0F4902F0FF128A4217D104F17D
:100D90006E000D4AFFF79CFE20F07F40904208D085
:100DA00002F14C5204F18A00FFF792FE904218BF04
:100DB0000223184610BD0423FBE70323F9E70223AF
:100DC000F7E700BFEB009000464154002DE9FF41DA
:100DD00000230F4615460B60FFF7C2FE061EC0F249
:100DE00013818C4B53F82640002C00F00F813C609F
:100DF00005F0FE0523786BB16078FFF725FEC1078B
:100E000008D41DB110F0040500D00A25284604B00E
:100E1000BDE8F0810023F0B223706070FFF71EFE82
:100E2000C20700F1F5800DB14307EED40021204642
:100E3000FFF792FF022840F0CC806F4604F5FF7365
:100E400004F23E213A4613F8040C10B11846FFF79D
:100E50003FFE103342F8040B8B42F4D1002557F8C3
:100E6000046B002E00F0AC8031462046FFF774FF83
:100E7000012800F2A680B4F84330B3F5007F40F0BB
:100E8000AC80B4F84E1021B904F15C00FFF720FEED
:100E9000014694F8483021625A1EA370012A00F2DC
:100EA0009C8094F845506581002D00F096806A1E64
:100EB0002A4240F09280B4F8498018F00F0FA4F84D
:100EC000088040F08A80B4F84B0018B904F158004B
:100ED000FFF7FEFDB4F84670002F7ED001FB03FE45
:100EE00007EB181CF444604577D3A0EB0C02AA4230
:100EF000B2FBF5F371D34FF6F572934271D840F619
:100F0000F575AB428CBF02250125023337440CEB4B
:100F10000602032DE3616662A762226363D1B4F81F
:100F2000622052EA080258D19B0004F16400FFF7E6
:100F3000CFFDE06203F2FF13B1EB532F4DD34FF01F
:100F4000FF33032DC4E904334FF0800323712BD109
:100F5000B4F86830012B27D1711C2046FFF7E3FE5F
:100F600010BBB4F836224AF6552320719A421BD1A1
:100F7000294B04F13800FFF7ABFD984214D103F17F
:100F8000FF5304F50770FFF7A3FD03F5005320336B
:100F9000984209D104F50870FFF79AFD606104F5E5
:100FA0000970FFF795FD20611C4A25700025138804
:100FB000A56101339BB21380E380194BE36025E701
:100FC00003200135042D7FF44AAF042805D1012503
:100FD0001CE70428FBD0012801D90D2516E70026BF
:100FE00049E7032591E7B8F1000FF6D0022D4FEA4B
:100FF000430277441ABFD21803F001031346E76295
:1010000018BF03EB520395E70B25FFE60C25FDE621
:101010000325FBE620E802245252614128E802241D
:101020002AE8022401292DE9F04706460C46174616
:1010300074D9C3698B4271D90378022B40D0032B3A
:1010400051D0012B6AD101EB5108816A01EB582183
:10105000FFF769FE054640BB14F0010406F13809AC
:1010600008F1010AC8F3080808BFFBB230461FBFE9
:1010700019F8083003F00F023B0103F0F00318BF2A
:10108000134309F808300123B16AF37001EB5A21C8
:10109000FFF749FE054640B9CAF3080A44B1C7F351
:1010A000071709F80A700123F3702846BDE8F08796
:1010B00019F80A30C7F3032723F00F031F43F0E7A3
:1010C000816A01EB1421FFF72EFE05460028ECD1C2
:1010D000640006F1380304F4FF741F551819C7F3B0
:1010E00007274770DFE7816A01EBD411FFF71BFE8A
:1010F00005460028D9D1A40006F1380327F070472F
:1011000004F4FE741C442046FFF7E2FC00F070403B
:1011100047EA00012046FFF7DDFCC4E70225C4E7EB
:10112000F8B50446FFF7F9FD0546002842D12378BB
:10113000032B37D12779012F34D104F138065523F9
:1011400001464FF400723046FFF7CCFC84F836328B
:10115000AA234122722104F5087084F83732522301
:1011600084F83B2084F8383084F83930612384F8DF
:101170001C1284F83A3084F81F3284F81D1284F867
:101180001E226169FFF7A6FC216904F50970FFF7CB
:10119000A1FC626A3B463146013260786263FFF728
:1011A0007BFC2571002260781146FFF783FC003834
:1011B00018BF0120F8BD03284B8B04BF8A8A43EA7D
:1011C0000243184670470129F8B506460C464ED929
:1011D000C36999424BD20378022B29D0032B34D018
:1011E000012B44D101EB5105816A01EB5521FFF739
:1011F0009AFD10B14FF0FF30F8BD6F1CC5F3080524
:10120000B16A3046354401EB572195F83850FFF765
:101210008AFD0028EED1C7F30807E3073E4496F89D
:10122000380045EA00204CBF0009C0F30B00E3E79B
:10123000816A01EB1421FFF776FD0028DAD1640002
:1012400004F4FF742644308FD6E7816A01EBD41191
:10125000FFF769FD0028CDD1A40006F1380004F4A1
:10126000FE742044FFF734FC20F07040C4E70120F6
:10127000C2E773B50C46064611460568012C2CD909
:10128000EB69A34229D92AB14FF0FF322846FFF774
:10129000C9FE40B9214630680194FFF794FF0199D7
:1012A000044610B9002002B070BD012815D0431CBF
:1012B00015D000222846FFF7B5FE0028F3D1EA69D1
:1012C0006B69911E8B4205D201336B612B7943F020
:1012D00001032B71A242DDD8E4E70220E3E70120FD
:1012E000E1E72DE9F041804605680F4671B92E69A6
:1012F000EEB1EB69B34298BF012634460134EB6985
:10130000A34217D8012E14D8002406E02846FFF780
:101310005AFF0128044603D801242046BDE8F08185
:10132000431C30D0EB698342F7D83E46E5E70126FF
:10133000E3E702242146D8F80000FFF744FF30B16C
:101340000128E9D001301ED0B442D7D1DCE74FF0FC
:10135000FF3221462846FFF765FE90B957B9EA6982
:101360006B69023A2C61934210D92B7943F0010347
:101370002B71D2E7224639462846FFF753FE002854
:10138000EDD00128C8D14FF0FF34C6E7013B6B61B7
:10139000EBE7B1F5001FF8B506460C4601D3022075
:1013A000F8BDCA06FBD1826805680161CAB92B780D
:1013B000022B01D9EB6A9BB92B89B3EB541FEED9F1
:1013C000EB6AB361B3697261002BE8D003EB54237D
:1013D0003835C4F308040020B3612C44F461DFE71E
:1013E0001A466F897F02BC42114604D22846FFF795
:1013F0007FFBB061E6E73068FFF7E5FE431C02467D
:1014000006D00128CBD9EB698342C8D9E41BEAE7AF
:101410000120C5E703692DE9F04703F1200883693E
:1014200005468A4693B1B8F5001F0FD2C8F30809E4
:101430000468B9F1000F4DD101334169836139B9B5
:101440002389B3EB581F45D80023AB6104200BE080
:101450006789013F17EA58273CD12046FFF7B3FEC2
:101460000128064602D80220BDE8F087421C01D1BF
:101470000120F9E7E369834226D8BAF1000FE3D0EF
:1014800069692846FFF72DFF0646002835D0012858
:10149000E9D0431CECD02046FFF73FFC0146002872
:1014A000E6D104F138004FF400724FF0010AFFF763
:1014B00019FB31462046FFF71BFB606363899F429F
:1014C0000FD3636BDB1B6363314620466E61FFF70E
:1014D0000FFBA86138340020C5F810804C44EC6143
:1014E000C2E7204684F803A0FFF7F1FB0028BFD134
:1014F000636B013701336363E0E70720B4E7000063
:101500002DE9F04F002185B00446D0F800B0FFF778
:1015100040FF0646002840F098804FF0FF084FF04B
:10152000FF3AC146C4F82CA0A1695846FFF7FBFB5F
:101530000646002840F08980E5692F78002F00F0EA
:101540008880EA7AE52F02F03F03A37103D01007E9
:1015500004D50F2B04D0C4F82CA050E00F2B56D18B
:1015600094F82B30590640D47A0646D5236907F003
:10157000BF0795F80D80E3626B7B43453FD16B8BD2
:10158000002B3CD12E780122DBF80C3006F03F0610
:10159000DFF8C89000930D23013E5E4319F8013B2C
:1015A000EB5A7AB3FE2E2AD81846039300F0ECFFCC
:1015B000009B711C029033F81600019100F0E4FFCB
:1015C000029A82421BD1039B01991A460E46224B76
:1015D0009945E3D12B785B0604D51AB1009B33F80B
:1015E000163063B9013F5FFA87F900212046FFF703
:1015F00011FF0646002897D027E0B945BCD04FF030
:10160000FF09F2E74FF6FF718B42E0D0F7E7B9F13F
:10161000000F04D12846FFF793FA404515D094F8FF
:101620002B6016F0010696D104F1200205F10B01A2
:1016300015F8013B12F8010B8D42A3EB000302D019
:10164000002BF5D087E7002B85D1304605B0BDE8EB
:10165000F08F0426F9E700BF9D02022490020224C5
:101660002DE9F04F90F82B5089B0044615F0A005F5
:1016700040F08E800668F26832F81530002B66D193
:1016800004F120070C2205A83946FFF717FB9DF847
:101690001F30DB0740F1858040234FF0010ADFF85F
:1016A000348284F82B300B2205A93846D6F80C90EA
:1016B000FFF704FBBAF1050F59D9A9F1020153460E
:1016C00031F8022F002A44D10DF11300072203F054
:1016D0000F0C013A0CF13001392988BF0CF13701A8
:1016E0000F2B00F801194FEA131142D802F1200321
:1016F0007E216B4403F8141C394600239A4205D01E
:1017000011F8010B03F1010C202834D104F11F0062
:10171000072A03F1010397BF02F1200120210132C2
:10172000694498BF11F8141C072BC154F0D9204606
:10173000FFF7E6FE814670BB0AF1010ABAF1640FB9
:10174000B1D14FF00709484609B0BDE8F08F013527
:1017500092E7102002F0010C52080CEB430313F443
:10176000803F18BF83EA08030138F3D1A8E7534646
:10177000AAE70B46ABE76346C0E780460121204657
:10178000FFF748FE814608B3B9F1040FD9D0DAE774
:101790004FF00609D7E70428D5D19DF81F3084F80B
:1017A0002B309DF81F3000212046D4F800A09B0765
:1017B00045BF0C350D230125B5FBF3F548BF0135B9
:1017C000FFF7E7FD81460028DED18046A16950463B
:1017D000FFF7A9FA81460028D6D1E3691B78E52BEB
:1017E00001D0002BC9D108F101084545C6D1013D02
:1017F00055D021692046A1EB4511FFF7CAFD81466E
:101800000028A0D14FF6FF783846FFF799F90190EC
:10181000A1693046FFF787FA8146002893D1E36932
:10182000E9B2019A4FF00D0CD6F80CE05A734FF064
:101830000F02DFF8A4A0DA724A1E18730CFB02F242
:1018400084469876D87640451AF8019B0CF1010C35
:1018500018BF3EF8120003EB090B18BF013203F862
:1018600009004FEA1029002808BF4046BCF10D0FBF
:101870008BF80190E7D1404502D03EF812200AB91A
:1018800041F040011970012300212046F370FFF759
:10189000C1FD814600287FF456AF013DB8D1A16952
:1018A0003046FFF740FA814600287FF44CAF0146EE
:1018B0002022E069FFF716F90B223946E069FFF7AD
:1018C000FDF994F82B30E26903F018031373012338
:1018D000F37038E721100100900202242DE9F8434B
:1018E000FF270646D0F8008004253C464FF6FF79D6
:1018F000B16911B9002D5FD04FE04046FFF713FAF0
:101900000546002849D1F0690378002B5CD0C27AE3
:10191000E52B02F03F02B27144D02E2B42D022F0D0
:10192000200108293ED00F2A41D1590638D503F0AD
:10193000BF043369477BF362437BBB4232D1428BA6
:1019400082BB03780D21D8F80C504FF0010E23F024
:101950004003DFF878C0013B4B431CF8011B415AA0
:10196000BEF1000F20D0FE2B1CD825F813108E4698
:10197000013301320D2AF0D10278520604D5FE2B34
:1019800010D8002225F81320013CE4B20021304693
:10199000FFF740FD05460028AAD00023B3610CE004
:1019A000A342C9D0FF24F1E74945E2D0FAE73CB9A8
:1019B000FFF7C6F8B84203D100252846BDE8F883F2
:1019C0004FF0FF33F362F8E70425E6E790020224C4
:1019D0002DE9F74F0B7805468846D0F800B02F2B3D
:1019E00001D05C2B09D142461378904601322F2B4F
:1019F000FAD05C2BF8D0002301E0DBF81830AB60A4
:101A000098F800301F2B00F2D88080230021284650
:101A100085F82B3003B0BDE8F04FFFF7BABC0134B6
:101A2000DEE0B4F5807F00930CD0012100F08EFD44
:101A300040B17F28009B07D88F4911F8012B1AB1BC
:101A40008242FAD1062005E126462AF8020FBDE0BF
:101A5000022E04D1B9F802302E2B00F0D1805EBBEB
:101A6000002329F81630002EECD020210B22681814
:101A7000FFF738F8194639F81130202B24D02E2BD7
:101A800022D009B144F0030437F816302E2B01D0D0
:101A9000013EF9D100234FF0080A1F4639F8110022
:101AA0004A1C10B3202803D02E280FD1964211D003
:101AB00044F003041146F1E737F81630202B01D02B
:101AC0002E2BCDD1013ECAE70131D4E7534505D2D3
:101AD00096423AD1BAF10B0F30D102E0BAF10B0FB6
:101AE00027D144F003044FF00B0A95F82030E52B82
:101AF00004BF052385F82030BAF1080F04BFBF00EA
:101B0000FFB207F00C030C2B03D007F00302032AEB
:101B100001D144F00204A00700F1878007F0030719
:101B2000012F08BF44F01004042B08BF44F0080440
:101B30007BE0964202D044F00304D6D3BF00324685
:101B40004FF00B0A0823FFB2B4E77F280ED900211B
:101B500044F00204CDE9002300F0F8FCDDE90023A5
:101B600060B14649084410F8800C38B1DFF810C164
:101B70001CF8011B002972D08142F9D144F0030402
:101B80005F20E918013381F8200093E747F002074E
:101B9000F7E7002A08BF05205CE05A075AD4AB7962
:101BA000DB065AD529690BF138039BF80000C1F315
:101BB00008011944FFF7FFFAA8602B680026D3F844
:101BC0000C9008F1FF33A9F10207BA4613F8010F90
:101BD000741C1F280CD92F2802D05C287FF421AF59
:101BE00018F804302F2B3FF41AAF5C2B3FF417AFDB
:101BF0002028A04434BF04240024012E7FF428AF01
:101C0000B9F800302E2B7FF42AAF002305F1200213
:101C100029F816309E428CBF2E21202101330B2B38
:101C200002F8011BF6D144F02004284685F82B4029
:101C3000FFF766FC95F82B300028AED0042809D1B8
:101C4000990603F00402A4D5002AB6D08023002010
:101C500085F82B3003B0BDE8F08F0520FAE7A0F13E
:101C60004101192992D9A0F1610119299EBF20389B
:101C700047F0010780B284E7000202241002022428
:101C8000090202241FB5CDE9001003A814460391F0
:101C9000FEF766FF031E15DB0C4A52F8231009B14C
:101CA00000200870019808B10021017042F823005B
:101CB00030B1012C08D1002201A96846FFF786F84F
:101CC00004B010BD0B20FBE70020F9E720E8022458
:101CD0002DE9F04190B0174604460191002800F02C
:101CE000D48002F03F0603A901A83246FFF76EF840
:101CF000054600284FD1039B04A801990493FFF7E0
:101D000067FE20B99DF93B30002BB8BF062017F0C5
:101D10001C0F00F09A80002844D004283BD104A86E
:101D2000FFF79EFC002836D146F0080608F06CFD4F
:101D30000146009020220B980E30FEF7CBFE0B9848
:101D400000991630FEF7C6FE0B9BDDF80C80DA72A8
:101D50000B9998F80000FFF72EFA0022074640463C
:101D6000FEF7E2FE0B9B002201211A775A779A7741
:101D7000DA77039BD970F7B1394604A8D3F83480D9
:101D8000FFF777FA38B941460398FEF7CCFF013FD9
:101D9000039B1F6178B1002305462360284610B0DD
:101DA000BDE8F0819DF8163013F0110F57D1780778
:101DB00065D43907BAD4039F31070B997B6B48BFB1
:101DC00046F04006616223623878FFF7F4F9A060BC
:101DD00001F11C000021FEF77BFEFB88276004F167
:101DE0002C074FF40072E060A1623846A38026748D
:101DF0006174E1616161FEF775FEB206CED5D4F87B
:101E00000C80B8F1000FC9D0039BA1685E89C4F8AB
:101E100014807602464524D30020A1610028BAD15F
:101E2000C8F30803002BB9D0039E3046FEF760FECE
:101E300048B300EB582201233946E2617078FEF77F
:101E40001DFE0028AAD00120A5E70028A3D19DF8F7
:101E50001630DA0615D4BF07ADD5D807ABD50720A5
:101E600099E72068A8EB0608FFF7ADF901280146BD
:101E700003D9431CCED10120CFE70220CDE70820B3
:101E800089E7042087E7022085E7092586E72DE911
:101E9000F04F87B016468946044601930023019A05
:101EA00005A91360FEF77CFE054618BB657C0DBBDB
:101EB000237C13F00103029300F09980E26804F19F
:101EC0002C0A6369D21A964228BF164696B16169F8
:101ED000C1F30803002B7CD1059BB3F80A8008F1FD
:101EE000FF3818EA51281BD141B9A068012810D841
:101EF00002256574284607B0BDE8F08FA36A1BB1C0
:101F00002046FEF700FEF1E7A1692068FFF75BF9C4
:101F1000ECE7431C03D10123029D6374EAE7A0614F
:101F2000DDF814B0A1695846FEF7E2FD0028DFD0C5
:101F3000B6F5007F08EB00072ED3BBF80A2008EBAC
:101F40005621730A9BF801009142494688BFA2EBD3
:101F500008033A460393FEF791FD0028DBD194F97C
:101F60001020039B002A0BDAE069C01B984207D2BD
:101F70004FF40072514609EB4020FEF79FFE039B91
:101F80005F026369B944019AF61B3B446361019B9C
:101F90001B683B44136099E7E269BA4218D094F990
:101FA0001030002B0BDA012351469BF80100FEF79D
:101FB00073FD0028AFD1237C03F07F0323740598C1
:101FC00001233A4651464078FEF758FD0028A2D139
:101FD000E76161694846C1F30801C1F500775144E2
:101FE000B74228BF37463A46FEF768FEC9E70725DD
:101FF00080E72DE9F04F994685B00023884603A974
:102000000446C9F800301646FEF7CAFD054650BB27
:10201000657C45BB237C9A0740F1AF80636904F17E
:102020002C0AF34228BFDE43CEB16169C1F3080335
:10203000002B40F09080039B5F89013F17EA5127F6
:1020400024D131B9A068A0B901462046FFF749F96B
:1020500004E0A36A5BB12046FEF755FD48B9237C36
:1020600043F040032374284605B0BDE8F08FA16912
:10207000EBE7012802D102256574F4E7431C01D186
:102080000125F9E7A368A06103B9A06094F91030B5
:10209000002B0CDA03980123E26951464078FEF7E1
:1020A000FBFC0028ECD1237C03F07F032374DDF8D4
:1020B0000CB0A1695846FEF71BFD0028DBD0B6F531
:1020C000007F07EB000234D3BBF80A1007EB562061
:1020D000730A88429BF8010088BFCB1B4146CDE9BB
:1020E0000023FEF7D9FC0028CAD1E169009A019BC0
:1020F000891A99420CD24FF4007208EB41215046E4
:102100000093FEF7DBFD227C009B02F07F0222742D
:102110005F026369B844E268F61B3B4463619A421C
:102120002CBFE260E360D9F800303B44C9F80030CE
:102130007AE7E36993420DD0E1686369994209D96E
:10214000012351469BF801000092FEF797FC009A8C
:10215000002895D1E26160694146C0F30800C0F5EE
:1021600000775044B74228BF37463A46FEF7A6FDEF
:10217000237C63F07F032374CBE7072573E7F7B570
:1021800001A90546FEF70CFD044600283BD12B7C37
:1021900013F0400437D01B060CD501980123EA69DF
:1021A00005F12C014078FEF777FC78BB2B7C03F01F
:1021B0007F032B7408F028FB296A07460198FEF775
:1021C000B2FD0446F8B96E6AF37A314643F0200353
:1021D000F372AA682868FEF7A7FCE96806F11C00FC
:1021E000FEF778FC394606F11600FEF773FC012372
:1021F0000198B474F474C370FEF792FF2B7C04460C
:1022000023F040032B74204603B0F0BD0124FAE70D
:1022100013B50446FFF7B3FF28B901A92046FEF71E
:10222000BFFC00B9206002B010BD2DE9F04F85B0B1
:102230000D46044603A9FEF7B3FC0646E8B9667CE2
:10224000DEB9A36A002B7BD06A1C39D11D46D4F8B5
:102250000880022755F804BBB8F1000F28D040468B
:102260004FF0000A0146814620680AF1010AFEF794
:10227000AAFF012807D802266674304605B0BDE8DB
:10228000F08F8046EBE7431C01D10126F4E709F10A
:1022900001098145E6D00237BB4521BF2B4643F8F3
:1022A00008ABC5F804801D46039BDB698342E8D870
:1022B000A36A5F451F6000F2C38000232B60DCE748
:1022C000E768AF4228BF2F466761002FD5D07D1E3B
:1022D00020462946FEF717FCDDF80C800146A06178
:1022E0004046FEF705FC0028C5D0C7F30807002FBD
:1022F000C3D0B8F80A10E269013901EA55210D1876
:10230000AA42BAD094F9103004F12C01002B0CDA57
:10231000012398F801000191FEF7BEFB0028B4D11B
:10232000237C019903F07F032374039801232A4639
:102330004078FEF7A3FB06460028A6D1E5619CE79E
:10234000E368AB4204D2227C12F0020F08BF1D46A4
:10235000002263696261EDB90025E2686369934216
:1023600084BF227CE360C3F3080384BF42F04002D1
:102370002274002B81D0E269AA423FF47EAF94F927
:10238000103004F12C01002BCFDA039801230191C6
:102390004078C1E7039A57897F020BB3013B6A1E5D
:1023A000B3FBF7F1B2FBF7F28A4219D37A42A16983
:1023B0001340ED1A63610029CED0BD4263691ED877
:1023C00063692B446361C5F30803002BC4D00398F1
:1023D000FEF78EFB00283FF44EAF00EB5525BCE71F
:1023E000A16851B92046FEF77CFF012801463FF461
:1023F00042AF481C3FF449AFA160A161DBE73B4419
:10240000A5EB07086361237C9A0706D52046FEF7F3
:1024100068FF054628B90146D2E72068FEF7D3FEDB
:1024200005466B1C3FF431AF012D7FF624AF039BB3
:10243000DB69AB427FF61FAF2946A5614546BCE785
:1024400011261AE71FB50446019150B3002203A9D3
:1024500001A8FEF7BBFC70B9039B204601992360DD
:10246000FFF7B6FAF8B994F92B30002B0CDBA379FF
:10247000DB0603D405200023236010E0039BE16901
:102480001878FEF798FEA060039B00212046DB88A9
:10249000A380FEF77EFF0428ECD00028EBD104B027
:1024A00010BD0920FBE70428E4D0E4E713B501A937
:1024B0000446FEF775FB00B9206002B010BD73B58D
:1024C0000D4601A90446FEF76BFB20B92DB9014664
:1024D0002046FEF75EFF02B070BD2046FFF7FEF912
:1024E00010F0FB06F7D129462046FEF773FB314674
:1024F0002046FEF78FFF042808BF0020EBE700000E
:102500000F4B30B59C7B012C17D89D7B0024EDB27E
:102510005C559D7B03EB85056860987B18440273CE
:102520009A7B501C3032C0B298733A2320460A700E
:102530004B702F23CC708B7030BD0120FCE700BFA7
:102540002CEA02240022FFF7DBBF00007F2810B531
:1025500006D931B1FF2812D880380A4B33F8100061
:1025600010BD084A32F8024B8BB2844203D00131CD
:102570008029F7D10B4603F18000C0B2F0E70020BC
:10258000EEE700BF9E0202241E4B1F4AB0F5805F9B
:1025900028BF134670B5191D31F8043C0A46ABB18B
:1025A000984213D331F8024C250AE6B253FA84F468
:1025B000A04221DA082D09D8DFE805F005090F113E
:1025C000131517191B00C01A31F8100070BDC31A7B
:1025D00003F00103C01A80B2F8E71038FBE7203897
:1025E000F9E73038F7E71A38F5E70830F3E75038FD
:1025F000F1E7A0F5E350EEE70431002DCCD102EB7A
:102600004603C8E79E0302249005022470477047E2
:102610007047000008B50021094803F0E1FB0120E4
:1026200005F0D2F8074805F0C1F8074A07490848FD
:1026300001F080FF064802F0CFFB002008BD00BF7C
:10264000688A03244C060224500B06C0500B06C1B6
:102650005CEC02247FB504AB9500044603E9060058
:102660000023C0E90033836013460D4AB2EB830FA9
:1026700002D20C4819F05EF97DB12846019119F09B
:1026800042F9019946192060A66015B12A461AF050
:10269000F9FD2046666004B070BD2846F2E700BF31
:1026A000FCFFFF7F580602242DE9F043002395B07C
:1026B000032504460DF1300930492A460DF138084A
:1026C000059510AF12AEC0E90033C0E90233C0E98E
:1026D0000433C0E90633294B203004934B46FFF7FF
:1026E000B9FF274B2A46264904F12C00CDE90635CF
:1026F00043460425FFF7AEFF224B2A4621490893A3
:1027000004F138003B460995FFF7A4FF1E4B2A460B
:102710001D4904F14400CDE90A3533460725FFF78A
:1027200099FF1A4B0D9504F150000C936B4699E8F4
:102730000600FFF78FFF164B04F15C00CDE90E3564
:1027400001AB98E80600FFF785FF124B04F1680023
:10275000CDE9103502AB97E80600FFF77BFF0E4B83
:1027600004F17400CDE9123503AB96E80600FFF7DB
:1027700071FF204615B0BDE8F08300BF8C0602242F
:1027800098060224A4060224B4060224C4060224E5
:10279000E0060224FC0602241807022410B50446B1
:1027A000006818B1A168091A19F0ABF8204610BDED
:1027B00010B50446006818B1A168091A19F0A1F80B
:1027C000204610BD70B5D1E9002500230446AD1A9E
:1027D0000E468360C0E900331BD00F4B9D4201D9E8
:1027E00019F0A2F8284619F08EF803461D44C4E9F2
:1027F0000033A560D6E900128A42A2EB010504D09D
:1028000018462A461AF04CFD03462B4420466360C6
:1028100070BD2B46EAE700BFFCFFFF7F2DE9F047C4
:1028200004462A200D46B1FBF0F0461C0330082870
:1028300038BF08206060800019F065F8676880463E
:102840002060BF1B7F0800EB870909EB8606CA469C
:10285000564506D94FF4FC7019F055F84AF8040BA8
:10286000F6E758F82720C4F8149002F5FC73E260EC
:10287000A2602361331F636256F8043C03F5FC71C8
:10288000E36121622A21B5FBF1F201FB12550C2113
:1028900001FB0533A361BDE8F08700002DE9F84F87
:1028A0004A6A0D464E6904461F4F921B9210561EEF
:1028B000D1E906322A219A1A2B6992107A4301FB38
:1028C0000622A9685B1A9910002307FB0121C0E9C1
:1028D0000033C0E90233C0E90433C0E90633C0E97C
:1028E0000833FFF79BFFAE68D5F818B0D5E904A709
:1028F000D4E90489A568B34512D031460C36284680
:102900000C35FFF75FFFB24502BF7E68043706F55E
:10291000FC7AA845EFD159F8045F05F5FC78EAE7A1
:102920002046BDE8F88F00BFABAAAAAA38B5044676
:102930000D46AC4204D020460C34FFF72FFFF8E7D9
:1029400038BD2DE9F84F044600F50270FFF730FF5F
:10295000D4F8E861D4F80492D4E97CB8D4E97E7A5A
:1029600008F10405A94506D955F8040B00F5FC71DA
:10297000FFF7DCFFF6E7C14518D059463046FFF7B0
:10298000D5FF39465046FFF7D1FFD4F8E031BBB14F
:10299000D4F80432D4F8F4511E1DAE4209D94FF4D4
:1029A000FC7155F8040B18F0ACFFF6E739463046D9
:1029B000E9E7D4F8E411D4F8E001890018F0A1FFA8
:1029C00004F5E870FFF7EAFE2046BDE8F88F70B521
:1029D000044600F5267500F53276AE4204D00C3E72
:1029E0003046FFF7E5FEF8E704F51A76AE4204D06C
:1029F0000C3D2846FFF7DCFEF8E704F51770FFF7FB
:102A0000CDFE04F12000FFF79CFF204670BD0000C2
:102A10002DE9F843844E0024844D854A304685498B
:102A200018F06AFF2C606C6105F5C0702C62EC63D5
:102A300004F000FF804B7E4A2846C5F8383240F249
:102A40000F737E49A5F83C3205F51473C5F8904123
:102A5000C5F8403240F20113C5F84C42784FC5E941
:102A6000913418F049FF724A7649774818F044FFCC
:102A7000764B7E60BC61C7E90235754BC7E904340B
:102A800007F58053DC83734BC3E90054C3E9024468
:102A90001E460F2400224FF00009013C1A74C3F8AF
:102AA0001490C3F8189003F81C2FF3D121466A48FC
:102AB000C6F8D84186F8DC41DFF8C481C6E9744421
:102AC000C6E97844C6E97A44C6E97C44C6E97E444E
:102AD000C6E98044FFF7A2FE554A60495D48C6F842
:102AE0001042C6F81C42C6E9824418F005FF33685C
:102AF000C8F81C504FF4D272C8F8203008F13000EA
:102B00007368574DC8F82430B3685649C8F8283060
:102B1000F368C8F82C301AF0B5FB08F5EA7395E8AD
:102B2000030083E80300D6F8BC3105F11C0108F569
:102B3000F870C8F8DC31D6F8C031C8F8E031D6F802
:102B4000C431C8F8E431D6F8C831C8F8E831D6F84D
:102B5000CC31C8F8EC31FFF735FE96F8DC3105F1E1
:102B60002C0108F5007088F8FC31FFF797FEC8F8D3
:102B70003042D6E98235C8E98A44ED1A08D03A4B8A
:102B80009D4201D918F0D0FE284618F0BCFE04463C
:102B90002544D6E98213C8F830529942A3EB0105C7
:102BA000C8E98A4403D02A4620461AF079FBD6F8B1
:102BB00014322C442D48C8F83432D6F81832C8F8EC
:102BC0002C42C8F83832D6F81C32C8E98F37FFF7E4
:102BD0006BFD1D4B26484FF48072C8F8E032254B40
:102BE000A0F82427C8F83C330023C8F83893C8F865
:102BF000643380F89C36C0F8A03680F8A436C0F85C
:102C0000A836C0F8AC36C0F82837A0F50040C8F8A0
:102C10004093074A1849C8E9D733184BC3F80080D6
:102C2000BDE8F84318F068BE4C1D0424688A0324EC
:102C3000000000200F2600240080707F1126002451
:102C4000B47503240D260024000000C0E885032489
:102C5000887303243CEA02241CEC02244329002448
:102C6000F0EB02244CEA0224FCFFFF7FA4EE0224D6
:102C70005C6C0324CDCCCC3DCF290024501D042412
:102C80005CEC0224F0B585B003230124002705463F
:102C900001A940688DF80C70CDE9013406F002FD01
:102CA000064628B10E4804F081FD384605B0F0BD57
:102CB0002146A86807F084FD0A4804F077FDA8685B
:102CC000224609490430FEF7DDFF20B1074804F031
:102CD0006DFD3046EAE7064804F068FD2046E5E76A
:102CE0003407022444070224510702245307022414
:102CF0006707022470B50446D2B000214FF4805219
:102D00001C301AF0E7FAA168684601F27441FFF737
:102D100099FB28B1244804F049FD002052B070BD51
:102D20000CA9684604F58055FFF7C9FB78BB9DF8F0
:102D3000463063B3EE8B1F2E29D89DF8383013F040
:102D4000120FEDD1022219490DF146001BF0ACF82B
:102D50000028E5D016490DF146001BF0B9F830B94E
:102D600014490DF146001BF0B3F80028D8D004EB4D
:102D7000C6100DF146011C301BF08EF8EB8B0021C4
:102D800004EBC312013382F89B10EB83C8E768465B
:102D9000FFF78CFB0848E98B04F008FDE88B00384E
:102DA00018BF0120BAE700BF77070224A707022453
:102DB000AA070224AF070224980702242DE9F0474E
:102DC0000C468EB005462C226B4603A92046FFF721
:102DD0005EF808B1002097E0009B2C2BFAD1584BED
:102DE000039ADDF830809A42F4D1A3F57003059A76
:102DF000A3F2FB739A42EDD1069E524FBE4209D117
:102E000005F58053099A1A62BDF822201A85BDF88B
:102E10002E205A85DFF83091C84551D0F31B0C2184
:102E200020465E425E41FFF700FA04226B462046D0
:102E30000DEB0201FFF72BF800287AD1DDF800A096
:102E4000BAF1040F75D152466B4602A92046FFF72E
:102E50001EF8019ABA425AD1616920460631FFF73D
:102E6000E4F905F581516B46022208312046FFF74F
:102E70000EF80028AED1009E022EABD16B46524612
:102E800005F581512046FFF702F80028A2D1009BEA
:102E9000042B9FD1616920460631FFF7C6F905F57D
:102EA00081516B4632460A312046FEF7F0FF00287A
:102EB00090D1009B022B8DD1C84511D00126B4E7DB
:102EC00005F580510D9AB1F92A304A62002BB8BF3E
:102ED0000733BE424FEAE303B2FBF3F3CB629DD16B
:102EE00005F580522869B2F92A30516A002BB8BF23
:102EF0000733DB10B1FBF3F36169D3621163FFF7B2
:102F000094F9B0FA80F040090EB0BDE8F0874A4568
:102F1000029B06D105F580525362002E3FF45AAF52
:102F2000DEE7616920461944FFF77FF9002EC3D11F
:102F30007BE7002E3FF44EAFC8457FF44BAFCFE7A1
:102F400052494646666D7420646174612DE9F3410F
:102F5000054600264FF400400F4618F0D4FC4FF40D
:102F60000042002104461AF0B5F928694269C36895
:102F70009A4248D0BE4246D2BB1B05F58058214636
:102F8000B3F5804FB8F9282028BF4FF480435A4347
:102F900001AB5200FEF77BFF034660B100251B48E2
:102FA00004F004FC20464FF4004118F0AAFC284627
:102FB00002B0BDE8F081B8F928104A000199B1FBD0
:102FC000F2F172008B421CD0B8F928E0BEF1010F7B
:102FD000D5E905C017BF34F923E034F913E02CF824
:102FE00002E004F1020C0CBF20F802E03CF923C01F
:102FF00003F101030CBF2CF802E020F802C00232FA
:10300000E0E71E44B1E70125CCE700BFB407022486
:1030100010B504464FF08072002140691AF05AF949
:103020004FF080720021A0691AF054F904F5805322
:10303000B3F92820D96AB1FBF2F1B1F5000F04D839
:103040002046BDE81040FFF781BF002010BD000002
:1030500070B500F5805604460D46F38B8B4210D3B5
:10306000B38B8B4202D00069FFF7D2F804EBC51195
:10307000012220691C31FEF72BFE20B10F4804F01D
:1030800095FB002070BD21692046FFF797FE20B90F
:103090002069FFF7BDF80A48F1E7B6F92A30102B8E
:1030A00004D1326A4BF680339A4201D00548E6E7F4
:1030B0002046BDE87040FFF7ABBF00BFD507022434
:1030C000EF0702240B080224C0E905127047000034
:1030D000084A136883EA433383EA534383EA43137A
:1030E00007EE903A1360B8EE670ADFED037A20EE40
:1030F000270A7047481D04240000802F2DE9F8435B
:1031000004460E4615461F4600F1100800F5DA7910
:10311000C360C0E90112C84505D0404608F11C084B
:1031200001F0A6FEF7E70A4B4FF496521F60094BD9
:103130001E60094B1D600023C4E96F230123C4F8FE
:10314000C4314FF07E53C4F8CC31BDE8F88300BFE2
:10315000541D04245C1D0424581D042410B5F0EEF5
:10316000400AFFF7B5FFDFED167A0446E0EE270AC6
:103170009FED140AF7EE007AC0FE800AC0FEE70A4F
:10318000DFED117AB2EE040AC0EEA70A18F0A4FE31
:103190009FED0E7A60EE077A9FED0D0AC7FE877AE3
:1031A0009FED0C7AC7FEC07A67EE877A9FED0A7AA8
:1031B00067EE877AFCEEE77AC4ED6F7A10BD00BF48
:1031C000CDCCCC3D00000000614F2D3F0000C84237
:1031D00000803B456F12833A00803B4708B5B0EE54
:1031E000407AFFF775FFC368DFED0B7A013BA0EE75
:1031F000277ADFED0A7A87FE277AF7EE007A87FED4
:10320000677A07EE903AF8EE677A67EE877AFCEE17
:10321000E77AC0ED707A08BDCDCCCC3D000000004F
:10322000B0EE407AF6EE006AB7EE086A08B5FFF72E
:103230004FFFDFED0C7AA0EE277A9FED0B0AF7EE39
:10324000007A87FE007A87FE677AF0EE667AE7EE0C
:10325000067AB0EE007AC7FEA67AC7FEC77AC0ED3E
:10326000737A08BDCDCCCC3D00000000B7EE007AEB
:10327000F2EE026AF0EE477AE0EE267AC7FE877A2F
:10328000B2EE047AC7FEC77AF8FE677AFCEEE77AF8
:10329000C0ED727A7047D0E9713293420FD2D0F804
:1032A0001C224BF6803101328A4202D0C0F81C2227
:1032B000704700220133C0F81C22C0F8C4317047A7
:1032C00038B5002204461023B3F5DA7F04EB03007F
:1032D0004FD0E15C11B101321C33F5E7D4F8C411D1
:1032E0009142F9D9D4F8C051FFF7F2FEDFED216A1F
:1032F00007EE905AE368F8EE677A27EE800A20EE30
:10330000260AFCEEC07A17EE901A2944D4F8BC5174
:10331000994228BF1946FFF7DBFE94ED737AB0EEB1
:10332000406AFFF7D5FE07EE905A27EE000A124BCF
:10333000A0EE267AB6EE000A87FE007AB0EE000A0A
:1033400087FE400AB8EE677A67EE067A67EEA67ADD
:10335000FCEEE77A17EE902A2A449A4228BF1A46D2
:10336000B2F5965FBDE8384038BF4FF4965201F091
:103370008FBD38BDCDCC4C3E8032020030B585B01B
:103380001025FFF788FF00230446C0F8B431C0F8C9
:10339000B831FFF795FFB5F5DA7F04EB05000DD0E6
:1033A000635D4BB194ED6D0AD4ED6E0A01F0B6FD8C
:1033B00084ED6D0AC4ED6E0A1C35ECE7D4E96D01AD
:1033C00004AB03E903009DED020ADDED030A05B03D
:1033D00030BD90F8DC017047D0F8F821D0F8E80152
:1033E000131A5842584170477FB5002390F8DC21EA
:1033F0000446C0F8B431C0F8B83152B300F1100639
:103400000025D4F81832D4E97401091AB5EBA10FDC
:1034100014D2D4F8081251F8251099420BD994ED22
:103420006D0A3046D4ED6E0A01F078FD002284ED7D
:103430006D0AC4ED6E0A01351C36E2E70133C4F8AB
:1034400018321AB9D4F81422934202D3002384F814
:10345000DC3104ABD4E96D0103E903009DED020A00
:10346000DDED030A04B070BD2DE9F84FD0E9008905
:1034700093466FF06043A9EB080207468A46B3EB18
:10348000A20F4FEAA20402D11E4818F053FA012CF1
:103490002246A1EB080538BF0122A4182ED27CB326
:1034A0009C4228BF1C46A00018F02DFA0646DBF807
:1034B0000030002D735104DD2A464146304619F094
:1034C000EFFEA9EB0A090435B9F1000F354404DD1C
:1034D0004A465146284619F0D5FE4D44B8F1000F32
:1034E00005D0B9684046A1EB080118F00AFA06EBCE
:1034F0008404C7E90065BC60BDE8F88F1C46D2E7CC
:103500002646D4E71D0802248142134610B5A1EBDC
:10351000000405D001462246184619F0C1FE0346B4
:10352000181910BD2DE9F8430446D0F8F8010F46EC
:10353000D4F800320C3B984208D0FFF743F9D4F896
:10354000F8310C33C4F8F831BDE8F883D4F804221C
:103550004FF02A0ED4F8F411D4F8FC31561ADFF8E3
:1035600024C1C01AB51080106B1E0EFB03F30CFBB8
:10357000003ED4F8E831D4F8F001C01A80100CFBFA
:1035800000E33E48834202D13D4818F0D3F9D4E924
:1035900078C3A2EB0C00A3EBA000012823D80235CE
:1035A000B3EB450F3ED95D1B131D6D085A1A0CEB8A
:1035B0008505A94230D9994202D0284619F070FEFB
:1035C0002B68C4F8F451C4F8EC3103F5FC73C4F86B
:1035D000F031AB19C4F80432AB59C4F8FC3103F52F
:1035E000FC73C4F80032D4F804524FF4FC7018F0A5
:1035F0008AF939466860D4F8F801FFF7E3F8D4F89F
:1036000004321A1D5B68C4F8042203F5FC72C4F886
:10361000FC31C4F8002295E79942D1D0301D801AC0
:103620002844CBE703F10208012B2CBF984408F192
:103630000108B8F1005F01D318F076F94FEA88006D
:10364000A8EB050518F05FF9D4F80422D4F8F411BA
:103650006D080432814600EB8505914203D0521A71
:10366000284619F01DFED4F8E411D4F8E0018900D1
:1036700018F047F9C4E97898A2E700BFAAAAAA0AF5
:1036800037080224ABAAAAAA2DE9FF41D0F8E861C5
:103690000446D0F8F8319E4200F0B38000F5E8739C
:1036A0009E422CD0D0F8D021D0F8D831D6E9007184
:1036B0009B1ACD1B9D4276D9002D72D0524B9D4254
:1036C00001D918F031F92846019118F01CF9019937
:1036D000064632463846FFF717FFD4F8D00120B12E
:1036E000D4F8D811091A18F00CF9C4F8D0612E4496
:1036F000C4F8D861D4F8D0312B44C4F8D431D4F80C
:10370000F031D4F8E8010C3B984260D0FFF746F85E
:10371000D4F8E8310C33C4F8E8310123002504F56E
:10372000027784F8DC3104F11006D4E98232C4E96E
:103730008555934218BFC4F80C32D4E97432D21ABA
:10374000B5EBA20F5DD2D4ED6F7A03EB85034FEAA0
:103750008508B8EE677AD3ED006AD4E98312C7EE24
:10376000267A9142FCEEE77ACDED037A44D0E1EC83
:10377000017AC4F80C12D4F814223046039B0135A8
:103780001C369A422CBFC4F81422C4F81432D4F860
:10379000D0314344D4E96F2193ED000A01F078FB66
:1037A000CBE72E4695E7D0F8D4319B1A9D4203D83B
:1037B0003846FFF7A9FE9DE7F9183846FFF7A4FE43
:1037C000D4E97402D6E90031101A1844F1E7FEF783
:1037D000E5FF4FF4FC71D4F8EC0118F092F8D4F83E
:1037E000F4311A1D5B68C4F8F42103F5FC72C4F8C7
:1037F000EC31C4F8F0218EE703AA3846FFF734FE17
:10380000B9E704B0BDE8F081FCFFFF7FDFED0D7A82
:10381000B4EEE70A10B5F1EE10FA044658BFB0EE68
:10382000670ADFED097A20EE270A18F0E9FCF7EEC7
:10383000007A84ED000A30EE270A87EE807A84ED64
:10384000017A10BDC976FE3EDB0F4940D0ED006A1B
:10385000B0EE407AD0ED027A037BE6EE807A90ED0E
:10386000010A27EE800A77EE407AB0EE407AA6EEA3
:10387000A77A80ED027A23B1012B9FED020A07FEA1
:10388000800A704700000000D0F8C832042B07D827
:10389000DFE803F0030D0F070D000123C0F8CC3261
:1038A000704700F50042012382F89C36F6E70223B8
:1038B000F4E70423F2E710B50446E069403003F072
:1038C00099FEE36993F84C20002AF6D093F8523021
:1038D000802BF2D1D4F8C832012B08DC002B0CDB92
:1038E00004F50043012283F89C26032303E0023BF6
:1038F000012B02D80023C4F8CC3210BD00F50043E0
:1039000093F82527F0B582F0010285B0C769054616
:103910000C4601AED83783F825277AB303F2C46387
:1039200093E8070086E807003146384603F0C6FFF3
:10393000E86902F0B5F9D5F84012D5F85C2301F535
:1039400080531444DB8B1C4494FBF3F203FB1244BE
:1039500005F55A72A3B21046C5F85C4301EBC311DA
:103960001C311AF099FA21460246064803F01EFF60
:10397000052005B0BDE8F04006F0FABF03F5E363AB
:10398000CEE700BF6708022410B50446D0E9D5127F
:10399000D0F84002FFF798FBD4F84002FFF772F925
:1039A00028B1D4F84002BDE81040FFF7A3B910BD1C
:1039B000002200F5004310B5C0F860230446C3F8A8
:1039C000A02693F89C366BB9B0F85C13D0F840028F
:1039D000FFF73EFB30B9084803F0E8FE0523C4F8C2
:1039E000C83210BD054803F0E1FEE0690449BDE8B6
:1039F000104002F00DB900BF7B0802248F0802249A
:103A0000BD3F002410B504464FF080720021D0F86D
:103A1000540319F05FFCD4F858034FF08072002172
:103A200019F058FC04F500440023C4F8A03610BD7A
:103A3000D0F8403200F585629FED287A002103F529
:103A40008053B3F9283082ED0D7A102207EE903AB8
:103A5000C0F854142249F8EEE77AC0F86034C0F890
:103A60002814A1F57001A0F83E341B0167EE877A97
:103A7000A1F2FB71B3EE007A48BF0733C0F83014EF
:103A800001F15B41DB10C0F8642467EE877A01F531
:103A9000F111B4EE007AA0F8483401F60F41114B51
:103AA000C0F8382467EE877AC0F834140121C0F8D2
:103AB0004C340023A0F84A24FCEEE77AA0F83C142A
:103AC0004BF68031C0F850342423C0F8401417EE70
:103AD000901AC0F82C34C0F84414704700803B475B
:103AE000524946466461746137B5044600F5377043
:103AF00017F0A0FE9FED180AD4F8E00200258DED26
:103B0000010A01F0DDFED4F8E02204F539709DEDE4
:103B1000010A02F5C123C3F84453156001F0ECFC1F
:103B20000E4B04F54A709FED0E0AC4F8EC320D4BB3
:103B3000C4F83053C4F8E832012384F83433FFF773
:103B400065FE0023B5EE060A04F5517084F8503383
:103B5000FFF75CFE03B030BD00803B4700A08C4601
:103B600017B7D1393333333F00F57A73002210B5DC
:103B7000032A0AD04FF07C51196019611962196348
:103B800001320433042AF3D110BD064900F2044483
:103B9000C0F8F413216000F21444216000F22444C0
:103BA0002160EDE7CDCC4C3DD0F8402202F58052AB
:103BB000B2F92830D26A10B50446B2FBF3F3D0E96B
:103BC000D5122030FFF79AFA2046FFF7CDFFD4F840
:103BD0004032064803F58053B3F92820D96ABDE87E
:103BE0001040B1FBF2F103F0E1BD00BF9B080224DD
:103BF00070B50024944231D0D0F84052D0F86033F0
:103C000005F58055B5F92860ED6AB5FBF6F5AB42D0
:103C100022D2D0F85463DFED126A36F913600D68D2
:103C200007EE106AD0F8586305EB840536F9136087
:103C3000B8EEC77A013307EE906A27EE267AF8EEDF
:103C4000E77A85ED007A4D6867EEA67A05EB840584
:103C5000C5ED007AC0F860330134CBE770BD00BF1A
:103C600000000038F0B500259D4231D00E6800F507
:103C7000004C146806EB850604EB85043768276062
:103C80004C68D0F8547304EB8504D4ED007A546882
:103C900004EB85040135C4ED007AFDEEE77A96ED7C
:103CA000007ADCF8A046BDEEC77A17EE106A27F856
:103CB000146017EE907AD0F8586326F81470013427
:103CC000044EB4FBF6F706FB1744CCF8A046CBE74E
:103CD000F0BD00BF00E4570070B504468CB000F59D
:103CE0004A70CDED070A08AD0390FFF7AFFD0398CA
:103CF00009AE8DED080A9DED070AFFF7A7FD04F553
:103D000039708DED090A9DED080A039001F010FC51
:103D100003988DED080A9DED090A01F009FC2B4678
:103D200032462946D4F8E00200968DED090A01F0EA
:103D300041FF04F551709DED080A0390FFF786FDE1
:103D400003988DED080A9DED090AFFF77FFD04F544
:103D5000377029468DED090A0122B6EE000A03905C
:103D600017F06CFD31460398B6EE000A012217F0F9
:103D700065FD0CAB95E8030003E903009DED0A0A1D
:103D8000DDED0B0A0CB070BD2DE9F04F044687B095
:103D90000E46984600250192019B9D4200F0C68088
:103DA00004F120094846B8F1000F5CD0FFF711FB81
:103DB00030B94846FFF710FB10B94846FFF764FCDE
:103DC0004846FFF711FB8DED020A2046CDED030AB0
:103DD0009DED020ADDED030AFFF77EFF316873688F
:103DE00004F5004201EB85018DED040A03EB850328
:103DF00092F8A40681ED000ACDED050AC3ED000A94
:103E0000002800F09180D4F854B404F5856007EEE2
:103E100090BAF8EE676AD0ED0D7A86EEA77ADFEDFC
:103E2000457AB4EEE77AF1EE10FA7DD5086802F52E
:103E3000D661D4F864C40860196802F2B463D4F897
:103E40006004196004F50643D4F858E40021B03347
:103E500088424DDDBCF1100F08D0BCF1200F28D0F6
:103E600001310433F4E7FFF789FAACE7D3ED007AC8
:103E700004F58D699FED307A01EB0E0AF4EEC77AF6
:103E8000F1EE10FA12D99FED2D7AF4EE477AF1EEA9
:103E900010FA67FE277A9FED2A7A67EE877AFDEEA1
:103EA000E77A17EE907A29F81A70D9E7F0EE477A98
:103EB000F1E7D3ED007A01EB0E099FED1F7AF4EEE6
:103EC000C77AF1EE10FA10D99FED1C7AF4EE477A1A
:103ED000F1EE10FA67FE277AFEEEE07A04EB89092C
:103EE00017EE907AC9F86874BAE7F0EE477AF3E70C
:103EF0000BF10103BCF1100F7044C4F854340CBF33
:103F00004FF400534FF48053C4F85804984204BF50
:103F10000121C2F86814B0EB430F21BF0023C4F89D
:103F200058340223C2F86834013535E707B0BDE8DC
:103F3000F08F00BF0000F04204FF7FBF04FF7F3F0F
:103F400000FEFF4670B50C4611461A46D0F8C8323E
:103F5000013B032B2DD8DFE803F002251E2AD0F801
:103F6000404204F58054B4F92850E36AD0F8604325
:103F7000B3FBF5F3013B9C4209D30E4B1B68D86998
:103F800001F048FE0C48BDE8704003F00FBCBDE8EE
:103F90007040FFF72DBE13460A462146BDE870402B
:103FA000FFF760BE0023BDE87040FFF7EDBE0123C0
:103FB000F9E770BD501D0424B608022413460A46D2
:103FC000014602480068FFF7BDBF00BF501D042432
:103FD000F0B500F500458BB00446FFF729FDD5F894
:103FE000A82602A8124904F5044619F035FFD5F8B1
:103FF000A83670360A22013302A9304604F58567D7
:10400000C5F8A836FDF764FE60B9019001AB2C221B
:1040100039463046FDF7EDFF20B9012385F86C34B1
:10402000C4F85404012385F8A4360BB0F0BD00BFDA
:10403000CA080224032920D8DFE801F00205080D90
:104040002030FFF78BB82030FFF7EAB8D0F8E03225
:1040500083ED000A7047B3EE047ADFED086A20EEC4
:10406000000AF0EE477AE0EE267AC7FE877A9FEDE7
:10407000047AC7FEC77AC0EDBB7A704700788C46D9
:1040800000A08C4608B5032913D8DFE801F0020729
:104090000C132030BDE80840FFF7A0B82030BDE881
:1040A0000840FFF7E3B8D0F8E03203F5C12383ED11
:1040B000D10A08BD9FED0A7A20EE000ADFED096AF9
:1040C00000F54A70F0EE477AE0EE267A87FE870A1E
:1040D000DFED057A80FE670AFFF798FBE9E700BF8E
:1040E00017B7D13951491D3C0AD7233C38B5D0F810
:1040F000D0520446C0692DED048B9FED569A68306E
:1041000003F0F8F9B4EEC90AF1EE10FA40F29B8020
:10411000DFED517AB4EE670AF7EE007AF1EE10FAAD
:1041200067FE808AE069883003F0E4F9B4EEC90ADA
:10413000F1EE10FA40F28A80DFED477AB4EE670ABA
:10414000F7EE007AF1EE10FA27FE808A94F8D83262
:104150002BBB04EB8503D3EDFA7AF4EEE87AF1EEAB
:1041600010FA08D803F5816292ED007AF4EEC77A6E
:10417000F1EE10FA0DDAF4EEE87AF1EE10FA0EDB59
:1041800003F5816393ED007AF4EEC77AF1EE10FA4D
:1041900005D80123314884F8D83203F007FB94F89E
:1041A000D9322BBB04EB8503D3EDFE7AF4EEC87A4B
:1041B000F1EE10FA08D803F5836292ED007AF4EE7E
:1041C000C77AF1EE10FA0DDAF4EEC87AF1EE10FAD1
:1041D0000EDB03F5836393ED007AF4EEC77AF1EE1C
:1041E00010FA05D801231E4884F8D93203F0DEFA0C
:1041F00094F8D83273B1B0EE680AD4F8D0122046E1
:10420000FFF718FF04EB8503C3EDFA8A03F581631A
:10421000C3ED008A94F8D93273B1D4F8D012204695
:1042200004EB8504B0EE480AFFF72CFF04F5836425
:1042300004ED088A84ED008A0520BDEC048BBDE8FE
:10424000384006F095BBDFED078A6BE79FED058AE6
:104250007CE700BF0AD7233CA4707D3FD708022427
:10426000E10802240000000010B50446C06968306F
:1042700003F040F9DFED157A9FED157AB4EEE70A09
:10428000F1EE10FA1FD9DFED137AB4EE670AF7EEFC
:10429000007AF1EE10FA27FE800AF2EE086A04F5C1
:1042A0001270F0EE477ABDE81040E0EE267AC7FEC5
:1042B000877AC7FEE67AF8FE677AFDEEE77A17EEB0
:1042C000901A00F0EDBEB0EE470AE6E70AD7233CAD
:1042D00000000000A4707D3F10B50446C0692DEDBC
:1042E000028B883003F006F9DFED117AB4EEE70AAD
:1042F000F1EE10FA18D9DFED0F7AB4EE670AF7EE97
:10430000007AF1EE10FA27FE808AB0EE480A04F136
:104310002000FEF763FF04F5836404ED088A84ED52
:10432000008ABDEC028B10BD9FED038AEDE700BF54
:104330000AD7233CA4707D3F00000000D0F8C832AB
:10434000022B10B5044603D1BDE81040FFF7CEBEE6
:10435000042B06D1FFF788FF2046BDE81040FFF789
:10436000BBBF10BD052911D8DFE801F003080A061C
:104370000C0E074803F01ABA0648FBE70648F9E7AF
:104380000648F7E70648F5E70648F3E7704700BF39
:10439000EB080224040902241B0902243109022427
:1043A000490902246109022403290CD8DFE801F03D
:1043B00002050709044803F0F9B90448FBE704487B
:1043C000F9E70448F7E77047750902248B090224CE
:1043D000A5090224BA09022410B5044600F50640D6
:1043E0000221B8302DED028B07F078F904F5064074
:1043F00001219FED218AC430DFED208A07F06EF99C
:1044000004F506400021D03007F068F904F50640B5
:10441000B0EE481AF0EE480ADC30B0EE680A07F059
:104420006DF904F506400621F43007F057F9B0EEB7
:10443000681AF0EE480A04F50740B0EE480A07F0A3
:104440005DF904F50740B0EE481AF0EE680A0C304A
:10445000B0EE480A07F052F904F50740B0EE681ACA
:10446000F0EE680A1830B0EE680ABDEC028BBDE8C9
:10447000104007F043B900BF00007F430000000078
:104480007FB5D0F8CC220446C369052A10D8DFE8EE
:1044900002F003272C31353A00F5064201ADC43253
:1044A00007CA85E80700294603F1D80003F006FA99
:1044B000D4F8CC32022B0DD004F5074301ADE669E8
:1044C000183393E8070085E80700294606F596703B
:1044D00003F0F4F9E06904B0BDE8704001F0E0BB1E
:1044E00000F5064201ADDC32DAE700F5064201AD27
:1044F000B832D5E701AD00F50742D1E700F5074234
:1045000001AD0C32CCE700F5064601ADD03696E899
:10451000070085E8070003F1D800294603F0CEF92B
:10452000E36996E8070085E80700294603F59670D9
:10453000BCE7000038B5044600252DED048BC0E92A
:10454000D5120221C06901F067FBE069032101F087
:104550007BFB2046C4F8C852FFF716FAB0B93348BF
:1045600003F024F9E069B7EE000AD83003F0A4F9AB
:10457000E069B7EE000A00F5967003F09DF9E06976
:10458000BDEC048BBDE8384001F08ABBE06901F066
:1045900071FBE069F0EE408A01F054FB07EE900AEF
:1045A000B8EEE78A06F080FB07EE900AB7EE007AD5
:1045B0009FED1F6A012388EE289A204623701D4B29
:1045C000E360F8EE677A2361636167EE897AC7EE8C
:1045D000276AC4ED016AC8EE886AC6EE267A37EE0D
:1045E000877AC7EE876AC4ED066AFFF77DFA204630
:1045F000FFF7BAFAFFF7F0FE2046FFF741FFE06948
:1046000001F04EFB284619F079FC0B4BD4E9D5128A
:10461000186004F120002B46FEF770FDE069BDEC48
:10462000048BBDE8384001F027BB00BFCF0902244E
:10463000DB0FC9400000C07F481D0424D0F8C82209
:10464000C369022A30B5044685B027D1D0F8D022FC
:10465000032A0FD8DFE802F00214191D00F5064204
:1046600001ADB83207CA85E80700294603F5967000
:1046700003F024F9E06905B0BDE8304001F010BB5B
:1046800000F5064201ADDC32ECE701AD00F5074272
:10469000E8E700F5064201ADC432E3E700F5074262
:1046A00001AD1832DEE7000070B5054643482DED38
:1046B000028B03F07BF8E8699FED418A6830D5F8FA
:1046C000D04202F017FFB4EEC80AF1EE10FA69D931
:1046D000DFED3C7AB4EE670AF7EE007AF1EE10FAFD
:1046E00027FE800A05EB840606F5816383ED000A48
:1046F000E869883002F0FEFEB4EEC80AF1EE10FA66
:1047000053D9DFED307AB4EE670AF7EE007AF1EEB6
:1047100010FA27FE800A013406F583662846042C29
:1047200086ED000AA8BF00242146C5F8D042FFF755
:104730003BFE2846FFF782FFE869683002F0DAFEA8
:10474000B4EEC80AF1EE10FA32D9DFED1E7AB4EEFB
:10475000670AF7EE007AF1EE10FA27FE800A05EB01
:10476000840404F5816383ED000AE869883002F06F
:10477000C1FEB4EEC80AF1EE10FA1CD9DFED117AD1
:10478000B4EE670AF7EE007AF1EE10FA27FE800A1F
:1047900004F58364002384ED000AA5F8D832BDEC4B
:1047A000028B70BD9FED080A9CE79FED070AB2E7F8
:1047B0009FED050AD3E79FED040AE9E7EB09022420
:1047C0000AD7233CA4707D3F0000000070B504466A
:1047D00044482DED028B02F0E9FFE0699FED428A2B
:1047E0006830D4F8D05202F085FEB4EEC80AF1EE7B
:1047F00010FA6AD9DFED3D7AB4EE670AF7EE007A77
:10480000F1EE10FA27FE800A04EB850606F58163B7
:1048100083ED000AE069883002F06CFEB4EEC80A4D
:10482000F1EE10FA54D9DFED317AB4EE670AF7EE03
:10483000007AF1EE10FA27FE800A013D06F5836644
:1048400048BF032586ED000AE069C4F8D0526830FD
:1048500002F050FEB4EEC80AF1EE10FA3BD9DFEDDB
:10486000237AB4EE670AF7EE007AF1EE10FA27FE2B
:10487000800A04EB850505F5816383ED000AE06994
:10488000883002F037FEB4EEC80AF1EE10FA25D9EE
:10489000DFED167AB4EE670AF7EE007AF1EE10FA61
:1048A00027FE800A05F583650023204685ED000A72
:1048B000A4F8D832D4F8D012FFF776FD2046BDEC2C
:1048C000028BBDE87040FFF7B9BE9FED090A9BE778
:1048D0009FED070AB1E79FED060ACAE79FED040ABC
:1048E000E0E700BFFF0902240AD7233CA4707D3F04
:1048F00000000000D0F8C8320A46012B70B504460B
:1049000088B00ED10023C0F8CC3204F5004300215A
:104910002046019283F89C161146FEF7EFFF019A9C
:1049200003E0D0F8CC32002BEFD0D4F8C832042BFF
:1049300058D104F5127602A82034314600F082FDE9
:104940000023DDE90225CDE90533AD1A07933AD0FE
:10495000254B9D4201D916F0E7FF284616F0D3FFFC
:1049600003461D44DDE9021207959142A2EB0105C1
:10497000CDE9053304D018462A4618F091FC0346C9
:104980002B4405A9204600240693FEF7CBFD05A87D
:10499000FDF704FF154802F009FF052005F0E8FFC8
:1049A000DDE90232D21AB4EBA20F0ED203EB84037C
:1049B0000F480134D3ED007AB7EEE77A53EC172BAA
:1049C00002F09EFEECE72B46CBE70A4802F098FE89
:1049D000304600F0F9FB0146074802F0E7FE02A866
:1049E000FDF7DCFE08B070BDFCFFFF7F180A022453
:1049F000260A0224CE0A02242A0A022437B500F528
:104A00000043002100F50045044683F84410483572
:104A10000191D0E90E325343C26A5343DB088362EB
:104A2000243343602846FDF700FC01AB2C222146CD
:104A30002846FDF7DEFA2846FDF7EAFB03B030BD55
:104A400010B5044600F58560FFF7D8FF002304F594
:104A5000004484F8A43610BD38B5D0F8C8320446F6
:104A6000022B01D0042B2ED104F50045E06995F806
:104A7000A4366BB9012101F097FA0123124885F899
:104A8000A43602F093FE2046BDE83840FFF7A0BAF6
:104A9000002101F089FAD4F854340C4807EE903A1A
:104AA00004F58563F8EE677AD3ED0D6A87EEA67A92
:104AB000B7EEC77A53EC172B02F078FE2046BDE81C
:104AC0003840FFF7BDBF38BD370A02244A0A022426
:104AD00070B588B0044604AB0293D1E90053EE18D8
:104AE0001DB916B1104816F022FF0F2B019307D9FC
:104AF000002201A902A816F025FF019B0290049351
:104B000032462946029816F077FF019B029A00214F
:104B100003932046D15402A902F048FE02A816F0E1
:104B200033FF08B070BD00BF680A0224D0F8CC3251
:104B300010B5044686B0052B41D8DFE803F0030E1C
:104B4000120A1A42C06901F065F80023C4F8C8329D
:104B500035E0FEF757FF0323F8E7FEF729FF0123AF
:104B6000F4E7D0F8C832042B01D0FFF71DF8022378
:104B7000ECE7042300F51274C0F8C83221466846F9
:104B800000F0AAFA69461048FFF7A2FF684616F03F
:104B9000FBFE2146684600F0EDFA69460B48FFF738
:104BA00097FF684616F0F0FE2146684600F0B8FA16
:104BB00007486946FFF78CFF684616F0E5FE06B029
:104BC00010BD0523C2E700BF920A02249B0A0224FB
:104BD000A50A022400F5127100B589B008460191BA
:104BE00000F060FA019902A800F076FA02A90448E0
:104BF000FFF76EFF02A816F0C7FE09B05DF804FBD0
:104C0000A20A0224D0F8C832022B02D0042B02D010
:104C10007047FFF749BDFFF7DDBF000010B500F595
:104C2000127486B0204600F054FA98B10138012879
:104C30001ED82146684600F073FA69460D48FFF712
:104C400047FF684616F0A0FE204606B0BDE81040BB
:104C500000F01FBA204600F015FA2146684600F021
:104C600089FA04486946FFF733FF684616F08CFE60
:104C700006B010BDA20A0224D0F8C832022B01D11E
:104C8000FFF7A4BD042B01D1FFF7C8BF7047000098
:104C900038B5C569044695F8BA30FF2B2DD105F01B
:104CA00065FE07EE900A95ED2F7AF8EE677A77EEBB
:104CB000C77A9FED197AF4EEC77AF1EE10FA1CDD8F
:104CC000E36993F8B42003F1B0001AB193F8BA3055
:104CD000802B02D002F030FEF2E72046FFF7BCFE48
:104CE000E36993F8C420AAB193F8CA30802B11D19C
:104CF0002046BDE83840FFF7BFBFE36993F8B42012
:104D0000002AEDD093F8BA30802BE9D12046FFF786
:104D100079FFE5E738BD00BF0000FA4338B5044627
:104D2000C06900F0ADFFE56995F85230FF2B3FD127
:104D300005F01CFE07EE900A95ED157AF8EE677AFD
:104D400077EEC77A9FED217AF4EEC77AF1EE10FA8A
:104D50002EDD2046FEF7AFFDD4F8C832022B01D07D
:104D6000042B02D12046FFF793FFE36993F8442018
:104D700022B1596E11B12046FFF7BCFDD4E9B21340
:104D8000994222D02046FFF7EDFA114802F00EFDBD
:104D9000D4F8CC122046FFF7E5FA0E4802F006FDE3
:104DA0002046FFF76DFB2046BDE83840FFF7BEBE4A
:104DB000E36993F84C20002ACED093F85230802B30
:104DC000CAD12046FEF760FDC6E738BD00007A4430
:104DD000AF0A0224C00A0224044607B5224802F0A2
:104DE000E5FC04F5004595F8A43693B3D5F868249E
:104DF00004F58566B2B195F86C349BB10023012AA5
:104E000006F500404FF480420CBF19464FF4805124
:104E1000019348301031C5F8683401AB06EB8101CD
:104E2000FDF7E7F8D4F85434D6ED0D6A07EE903A62
:104E3000F8EE677A87EEA67ADFED0C7AB4EEE77AC1
:104E4000F1EE10FA05DD3046FFF7D8FD002385F8B6
:104E5000A4362046FFF762FF2046FFF76FFA0120D5
:104E600005F086FDBDE700BFD00A02240000F04235
:104E7000F7EE006ADFED057A0023C0ED017A86EED9
:104E8000A77A037380ED027A704700BF000000002C
:104E900007EE902A0A4B80ED060AF8EE677A1B6847
:104EA0008B4280EE277A98BFC91A01230370002332
:104EB00043600023C0E90412037380ED027A704757
:104EC000541D0424000000009FED0F7BB7EEC00AC4
:104ED000DFED0F6A20EE070BDFED0E7AB7EEC00BA9
:104EE00020EE000AE0EE276ADFED0B7AE0EE267A8C
:104EF000B6EE000AB0EE677AF7EE007A77EEC77A80
:104F000027EE800A704700BF182D4454FB2119403A
:104F1000C2BCFDBEDFB2163DE1D87F3F7FB503784E
:104F2000B0EE406AF0EE605A8DED020ACDED030A54
:104F30004BB90023049305939DED040ADDED050AAA
:104F400007B05DF804FB037B13B100230370F0E7A7
:104F5000D0ED017A90ED020A37EE800AF7EE007A82
:104F600080ED010AB4EEE70AF1EE10FA04DD012348
:104F7000037300234360E8E7D0ED057A90ED067AED
:104F8000F8EE677A036967EE807A67EE877AFCEE5F
:104F9000E77A17EE902A1A441346144A1268511EF3
:104FA000994201D8D2431344114AFFF78DFFDFED38
:104FB000116A126832F9132007EE102A0E4A12689D
:104FC000B8EEC77A32F9133027EE267A07EE903A18
:104FD000F8EEE77AA7EE006A67EEA67AE7EE805A67
:104FE0008DED046ACDED055AA6E700BF541D0424DB
:104FF0005C1D042400000038581D042408B548B185
:10500000B0F1005F01D316F08FFC8000BDE80840CE
:1050100016F079BC08BD1FB5044608460391FBF79E
:10502000AFF9039B002162680090204616F02AFD2C
:1050300004B010BD00F1080373B504460D460360CB
:10504000D9B10846FBF79CF90F2805EB0006019043
:1050500007D9002201A9204616F074FC019B2060AC
:10506000A36032462946206816F0CBFC019B2268DB
:1050700000216360D15402B070BD014816F057FCA6
:10508000680A022443680133042B28BF00234360CD
:10509000704703680133042B28BF00230360704767
:1050A000C160704783680133032BA8BF002383606E
:1050B000002303617047C368F2EE087AB0EE000A7D
:1050C000CB1800EE903AF8EE600AC0EEA70A16F090
:1050D00003BF80687047000038B50D460C49044690
:1050E000FFF7A8FFAB68012B0CD0022B04D03BB913
:1050F00008492046FFF78FFF07492046FFF78BFF3F
:10510000204638BD05492046FFF785FFF0E700BF80
:10511000CF0A0224E80A0224EE0A0224DF0A02244B
:1051200038B50D460E490446FFF784FF2B68032B64
:1051300013D8DFE803F002060A0E0A492046FFF7FB
:105140006AFF09492046FFF766FF08492046FFF736
:1051500062FF07492046FFF75EFF204638BD00BFCB
:10516000CF0A0224F40A0224FA0A0224070B0224BA
:10517000150B022438B50D460E490446FFF75AFFB9
:105180006B68032B13D8DFE803F002060A0E0A4906
:105190002046FFF740FF09492046FFF73CFF08493A
:1051A0002046FFF738FF07492046FFF734FF204627
:1051B00038BD00BFCF0A0224220B0224260B022492
:1051C0002D0B0224310B02240069704770B5D1E920
:1051D000002500230446AD1A0E468360C0E9003363
:1051E0001BD00F4B9D4201D916F09EFB284616F0AE
:1051F0008AFB03461D44C4E90033A560D6E90012CA
:105200008A42A2EB010504D018462A4618F048F855
:1052100003462B442046636070BD2B46EAE700BF7F
:10522000FCFFFF7F38B503461046D3E90035ED1A81
:105230006FF06043AC10A3EBA5058D4201D216F0D0
:1052400079FBA14238BF2146601803D2984228BF9B
:10525000184638BD1846FCE7D0E905322DE9F0477D
:1052600093424FF00C0142684FF00006044600F1F3
:1052700014072DED028B18BF836184B000F1200369
:1052800001A801FB0231FFF7A1FFDDE901239B1A11
:10529000B6EBA30F38D2E368204652F82610194423
:1052A000FFF709FFB0EE408AD4E906539D4204D0CF
:1052B000A5EC010AA5610136E7E7174A0121384646
:1052C000FFF7B0FFD4F814908046FFF797FEA5EBE8
:1052D000090582464319002D83ED008A03DD2A4625
:1052E000494617F0DDFF04355544B9F1000F05D0EC
:1052F000E1694846A1EB090116F003FB0AEB8800BF
:10530000C4E905A5E061D6E701A8FDF751FA04B0AC
:10531000BDEC028BBDE8F0871D0802242DE9F8439F
:10532000D0E90143054689469C4205D00B6844F804
:10533000043B4460BDE8F883104A0121FFF772FF87
:105340002F688046FFF75AFEE41BD9F80020064676
:105350000319002C1A6003DD2246394617F0A0FF1E
:105360000434344427B1A9683846C91B16F0C9FA79
:10537000C5E9006406EB8806AE60DBE71D08022481
:105380007FB5D0E905320D460C219342044600F169
:10539000140618BF8361034601A853F8502B01FB84
:1053A0000231FFF713FF216920462944DDE901237B
:1053B00021619B1AB1EBA30F84BF002323612169F4
:1053C000FFF779FEBCEEC00A69463046B8EE400AE7
:1053D0008DED000AFFF7A2FF01A8FDF7E9F904B07F
:1053E00070BD7FB5D0E905320D460C21934242686D
:1053F000044600F1140618BF836100F1500301A8B0
:1054000001FB0231FFF7E2FE216920462944DDE974
:10541000012321619B1AB1EBA30F84BF00232361F9
:105420002169FFF748FEBCEEC00A69463046B8EE77
:10543000400A8DED000AFFF771FF01A8FDF7B8F9EA
:1054400004B070BDF8B50D4604461146AB68012B9B
:1054500025D0022B1FD013B92846FFF7FDFED5E952
:105460000537FF1A0023B810A360C4E90033FFF723
:10547000C5FD07440646A760C4E90000D5E9051349
:105480009942A3EB010502D02A4617F009FF2E44EA
:1054900020466660F8BD2846FFF772FFDFE7284622
:1054A000FFF79FFFDBE7B5EEC00A08B5F1EE10FA93
:1054B0002DED028B4ABF4FF0FF330123B1EE400ABE
:1054C00007EE903AB8EEE78AF1EE007AB4EEE70A1A
:1054D000F1EE10FA08DAF6EE007AB4EEE70AF1EE31
:1054E00010FA06D528EE008AB0EE480ABDEC028B11
:1054F00008BD16F0AFFEF5E700230A4A80ED0E0A5C
:1055000003604260C360084A43620361836243618F
:10551000C3628361C36103620363044B82604363BC
:10552000704700BFCDCCCC3E00007A44000080BF65
:105530002DE9F0412DED068BD0ED018AB0EE409AB9
:1055400090ED027A84B0F5EEC08AD0ED0C7A044674
:10555000DFED5C9AF1EE10FAF4EE477A48BFDFED2A
:105560005A8AF1EE10FA07D1D0ED0D7AF4EE687A8E
:10557000F1EE10FA00F09380D4ED0E6AB6EE000A58
:1055800084ED0C7AC7EE267A9FED507A9FED506A33
:105590009FED508A67EEA76A27EE888A66EEA65AC4
:1055A00026EE877AA5EE867A9FED4B6AA7EEC67A3D
:1055B0009FED4A6A67EE807A9FED490AA6EE868AD9
:1055C000DFED486A67EE807A9FED470A37EE000A02
:1055D00038EE268A20EE670A16F00CFCF7EE007A09
:1055E000C4ED0D8A84ED0F8A37EEC00A80EE29AA39
:1055F00084ED10AAF1EE007A4FF0020868EEA78A57
:1056000028EE888AD4ED087A20466F4604F110050A
:10561000A7EEC89A012629EE290AFFF744FFD4ED28
:10562000097A30EE670AD4ED037AE0EE0A7ACDED1E
:10563000007AC4ED037AB7EC019A2046F5EC01AA92
:1056400029EE290AFFF72FFF032EF0EE408A85EDA1
:10565000040A2ED095ED050A78EEC08A0136F0EEE8
:105660006A7A042EE8EE8A7AC7ED007A45ED017A6F
:10567000E1D1DDED037AB6EE007A94ED070AB8F1D8
:10568000010FC4ED077A37EE800A20EE070A84ED99
:10569000080A0BD104B0BDEC068BBDE8F081F0EE3A
:1056A000678A90ED0F8A90ED10AAA3E74FF00108EA
:1056B000A8E715ED010A204620EE290AFFF7F3FEC0
:1056C000CAE700BF17B7D137000000002DB2FD3E7A
:1056D00077BEEF3F9CA2EB3FDD24263FFAED7BC077
:1056E000DB0FC940492E7F3F5BB17F3F8B69B6EE30
:1056F000005BD0ED054A002B9FED354AB8BF03F59E
:10570000803310B5B8BF8B6143F609548B6963438E
:1057100001339CB21B042F4B48BFA4F580348C612D
:10572000140103EB0212D2ED027A84EEA76AD1EDE6
:10573000007AB7EEC66A36EE056BBDEEC66BF8EEC4
:10574000E76AD1ED037AB8EEE77AD1ED027A81ED1E
:10575000076AF8EEE77AE7EE047A76EEE77AF5EE96
:10576000C07AF1EE10FA06D591ED017AB8EEC77A5B
:1057700077EE877AF3E787EEA47AD1ED067A2344B1
:1057800090ED034AD3ED016AF8EEE77AB8EEC66A07
:1057900067EEA67ADFED106A67EEA67AD3ED006AAF
:1057A000E4EE276A77EE667AB7EE007AC7EE866A8D
:1057B000DFED0A7AA4EEA67A27EE277AB7EEC77A4B
:1057C00037EE057BBDEEC77B81ED047A10BD00BFCF
:1057D00000008031380B0224000000380000804DAA
:1057E000334BB7EE026B90ED054A03EB0213D3ED9A
:1057F000004AD3ED013AB7EEE47AB7EEE35A70B55A
:10580000A5EE067B00250C464D610D60B6EE005BF3
:105810009FED256BB7EEC77B27EE047AB7EEC77A0C
:1058200037EE067B93ED036AB7EEC66ABDEEC77B23
:10583000DFED207A36EE056B81ED017AB8EEC77A9E
:10584000BDEEC66B81ED066AB8EEC66A26EE236A27
:1058500026EE276AD0ED037AE7EE864AA4EE647A54
:10586000FDEEC77AC1ED027AF8EEE77A37EE677A95
:10587000DFED117A27EE277AB7EEC77A37EE057B90
:10588000BDEEC77B81ED037AFFF730FF0021606832
:105890002B462162984205DD626A02EB83020133E6
:1058A0001160F7E7002070BD00000000008030406C
:1058B000380B0224000000380000804D000000007A
:1058C000294B4FF07E522DE9F04103600025274B14
:1058D000044600F12408264F436000232E4680ED45
:1058E000020A0361C361012380ED050AC26082617F
:1058F000036204F5B27332464146204603EB85034A
:105900000136C8F82430FFF76BFF97ED016A97ED79
:10591000007AB7EE025BB7EEC66A082EB7EEC77A1A
:10592000A6EE057B9FED0E6BB7EEC77B27EE007AE8
:10593000B7EEC77A37EE067BBDEEC77B17EE103A9F
:1059400005EB830502D10020BDE8F081094B08F189
:10595000280810379D42CCDD0120F5E7AFF3008029
:105960000000000000803040EC51783F00401C46B1
:10597000380B0224788201002DE9F0411D46036AAC
:1059800006460F46002B90462DED028B40F3048116
:1059900090ED010AD0ED077AB4EE670AF1EE10FA45
:1059A00040F0BC8090ED060A344606F5A0723346FE
:1059B000DFED7D7A93ED117A28339A4277EE877A7C
:1059C000F8D1B5EE007A97ED002AD8ED002A00272D
:1059D000DFED753AE7EE872AA7EE872AB0EE633A45
:1059E00017F0010094ED117A616AA26C42FE227AEE
:1059F00077EEC77AA36A02EB8102C2ED007A626A8F
:105A000001329A42A8BFD21A6262226BB2F1805F61
:105A100006DBE16A01EB227122F07042E16222634F
:105A2000E26AFFEE006AB7EE006A9A42B6EE005AEA
:105A3000B0EE667AA4BFD21AE262A26CD4E90B1C63
:105A40009FED574B05EE90CA0029FAEEC25AA5EE1B
:105A5000A57A35EE866AE6EE056AB7EEC77A27EED6
:105A6000047BB7EEC77BF0EE087A67EE277AF0EE9C
:105A7000671A77EEE57AD6EE051A36EEC76A68DD64
:105A8000A3F1020E8E4564DD01F18041013902EB84
:105A9000810191ED004AD1ED016AD1ED024A91ED0B
:105AA000035A66EEA77A636B6344E4EE067A2363D7
:105AB000E4EEA17AE5EE077A96ED007AE7EEA56AC4
:105AC000D4ED117AE7EE667A67EE807AE7EE267A11
:105AD000C4ED117A00285CD073EEA73A236C013B29
