:020000042400D6
:1000000000000220110A00240D0A0024CD9B0024C8
:100010000D0A00240D0A00240D0A0024000000002F
:100020000000000000000000000000000D0A002495
:100030000D0A0024000000000D0A0024519B00243A
:100040000D0A00240D0A00240D0A00240D0A0024C4
:100050000D0A00240D0A00240D0A00240D0A0024B4
:100060000D0A00240D0A00240D0A002459820024E0
:1000700065820024B96F0024718200247D820024EF
:10008000CD950024857700240D0A00240D0A002454
:100090000D0A00240D0A00240D0A00240D0A002474
:1000A0000D0A00240D0A00240D0A00240D0A002464
:1000B000F9890024058A0024118A0024B9770024D4
:1000C0000D0A0024C57700240D0A0024E5950124BB
:1000D000F1950124019400242D94002461940024BE
:1000E0000D0A00240D0A0024000000000D0A00245F
:1000F0000D0A00240D0A00240D0A00240D0A002414
:100100000D0A0024C98700241D8A0024FD950124BE
:1001100095940024C99400240D0A00240D0A00249B
:100120000D0A00240D0A002421960124559601246D
:10013000019600240D0A00240D0A00240D0A002453
:1001400000000000000000000000000000000000AF
:100150000D0A00240D0A00240D0A0024FD94002439
:10016000D17700240D0A0024619B0024859B002484
:100170000D0A0024A99B00240D0A00240D0A002466
:100180000D0A00240D0A00243195002465950024F1
:1001900009960124159601240D0A00240D0A002455
:1001A0000D0A00240D0A00240D0A00240D0A002463
:1001B000797F00240D0A00240D0A00240D0A002472
:1001C0000D0A00240D0A0024796A0024856A00249F
:1001D0000D0A0024916A00240D0A00240D0A00244F
:1001E0000D0A00240D0A00240D0A00240D0A002423
:1001F0000D0A00240D0A00240D0A00240D0A002413
:100200000D0A00240D0A00240D0A00240D0A002402
:100210000D0A00240D0A00240D0A00240D0A0024F2
:100220000D0A00240D0A00240D0A0024000000001D
:100230000D0A00240D0A0024000000000D0A00240D
:100240000D0A00240D0A00240D0A00240D0A0024C2
:100250000D0A00240D0A00240D0A00240D0A0024B2
:100260000D0A00240D0A00240D0A00240D0A0024A2
:100270000D0A00240D0A00249995002400000000B6
:100280000D0A00240D0A00240D0A002400000000BD
:08029000000000000D0A00242B
:1002A00010B5054C237833B9044B13B10448AFF3B0
:1002B00000800123237010BD00E80224000000002C
:1002C0004C15022408B5034B1BB103490348AFF397
:1002D000008008BD0000000004E802244C15022440
:1002E00001F0FF01102A2BDB10F0070F08D010F8E7
:1002F000013B013A8B422DD010F0070F42B3F6D1EB
:10030000F0B441EA012141EA014122F007047FF003
:1003100000070023F0E80256083C85EA010586EA5A
:10032000010685FA47F5A3FA87F586FA47F6A5FA96
:1003300087F68EB9EED1F0BC01F0FF0102F00702A2
:1003400032B110F8013B013A83EA010313B1F8D14D
:100350000020704701387047002D06BF354603382E
:10036000073815F0010F07D1013015F4807F02BF67
:10037000013015F4C03F0130F0BC0138704700BFB8
:10038000034613F8012B002AFBD1181A01387047D5
:1003900081F0004102E000BF83F0004330B54FEA36
:1003A00041044FEA430594EA050F08BF90EA020FA3
:1003B0001FBF54EA000C55EA020C7FEA645C7FEA36
:1003C000655C00F0E2804FEA5454D4EB5555B8BF59
:1003D0006D420CDD2C4480EA020281EA030382EACA
:1003E000000083EA010180EA020281EA0303362D5C
:1003F00088BF30BD11F0004F4FEA01314FF4801C2F
:100400004CEA113102D0404261EB410113F0004F40
:100410004FEA03334CEA133302D0524263EB4303F7
:1004200094EA050F00F0A780A4F10104D5F1200E95
:100430000DDB02FA0EFC22FA05F2801841F10001F0
:1004400003FA0EF2801843FA05F359410EE0A5F1C4
:1004500020050EF1200E012A03FA0EFC28BF4CF0F5
:10046000020C43FA05F3C01851EBE37101F00045AB
:1004700007D54FF0000EDCF1000C7EEB00006EEBB8
:100480000101B1F5801F1BD3B1F5001F0CD3490842
:100490005FEA30004FEA3C0C04F101044FEA445299
:1004A00012F5800F80F09A80BCF1004F08BF5FEA20
:1004B000500C50F1000041EB045141EA050130BD00
:1004C0005FEA4C0C404141EB0101013C28BFB1F512
:1004D000801FE9D291F0000F04BF01460020B1FA5D
:1004E00081F308BF2033A3F10B03B3F120020CDA30
:1004F0000C3208DD02F1140CC2F10C0201FA0CF00E
:1005000021FA02F10CE002F11402D8BFC2F1200C72
:1005100001FA02F120FA0CFCDCBF41EA0C01904028
:10052000E41AA2BF01EB0451294330BD6FEA040471
:100530001F3C1CDA0C340EDC04F11404C4F120025C
:1005400020FA04F001FA02F340EA030021FA04F36E
:1005500045EA030130BDC4F10C04C4F1200220FAC5
:1005600002F001FA04F340EA0300294630BD21FA03
:1005700004F0294630BD94F0000F83F4801306BFC9
:1005800081F480110134013D4EE77FEA645C18BFBD
:100590007FEA655C29D094EA050F08BF90EA020F54
:1005A00005D054EA000C04BF1946104630BD91EA4C
:1005B000030F1EBF0021002030BD5FEA545C05D14F
:1005C0004000494128BF41F0004130BD14F580048E
:1005D0003CBF01F5801130BD01F0004545F0FE4102
:1005E00041F470014FF0000030BD7FEA645C1ABF37
:1005F000194610467FEA655C1CBF0B46024650EA6E
:10060000013406BF52EA033591EA030F41F4002199
:1006100030BD00BF90F0000F04BF0021704730B51F
:100620004FF4806404F132044FF000054FF00001F4
:1006300050E700BF90F0000F04BF0021704730B5B5
:100640004FF4806404F1320410F0004548BF40428A
:100650004FF000013EE700BF42004FEAE2014FEADF
:1006600031014FEA02701FBF12F07F4393F07F4FBA
:1006700081F06051704732F07F4208BF704793F0BD
:100680007F4F04BF41F40021704730B54FF46074D0
:1006900001F0004521F000411CE700BF50EA0102D3
:1006A00008BF704730B54FF000050AE050EA01027C
:1006B00008BF704730B511F0004502D5404261EBEC
:1006C00041014FF4806404F132045FEA915C3FF42D
:1006D000D8AE4FF003025FEADC0C18BF03325FEACA
:1006E000DC0C18BF033202EBDC02C2F1200300FA7B
:1006F00003FC20FA02F001FA03FE40EA0E0021FAA0
:1007000002F11444BDE600BF53B94AB9002908BF3D
:1007100000281CBF4FF0FF314FF0FF3000F074B9DC
:10072000ADF1080C6DE904CE00F006F8DDF804E048
:10073000DDE9022304B070472DE9F047089D044627
:100740008E46002B4DD18A42944669D9B2FA82F284
:1007500052B101FA02F3C2F1200120FA01F10CFAC0
:1007600002FC41EA030E94404FEA1C48210CBEFBF8
:10077000F8F61FFA8CF708FB16E341EA034306FB81
:1007800007F199420AD91CEB030306F1FF3080F010
:100790001F81994240F21C81023E63445B1AA4B25D
:1007A000B3FBF8F008FB103344EA034400FB07F7FF
:1007B000A7420AD91CEB040400F1FF3380F00A8140
:1007C000A74240F207816444023840EA0640E41B35
:1007D00000261DB1D4400023C5E900433146BDE8E1
:1007E000F0878B4209D9002D00F0EF800026C5E983
:1007F000000130463146BDE8F087B3FA83F6002E9B
:100800004AD18B4202D3824200F2F980841A61EB12
:10081000030301209E46002DE0D0C5E9004EDDE730
:1008200002B9FFDEB2FA82F2002A40F09280A1EB18
:100830000C014FEA1C471FFA8CFE0126200CB1FB6D
:10084000F7F307FB131140EA01410EFB03F0884266
:1008500008D91CEB010103F1FF3802D2884200F2F3
:10086000CB804346091AA4B2B1FBF7F007FB101185
:1008700044EA01440EFB00FEA64508D91CEB040423
:1008800000F1FF3102D2A64500F2BB800846A4EB7E
:100890000E0440EA03409CE7C6F12007B34022FA69
:1008A00007FC4CEA030C20FA07F401FA06F31C4398
:1008B000F9404FEA1C4900FA06F3B1FBF9F8200CA5
:1008C0001FFA8CFE09FB181140EA014108FB0EF0EB
:1008D000884202FA06F20BD91CEB010108F1FF3A3B
:1008E00080F08880884240F28580A8F10208614447
:1008F000091AA4B2B1FBF9F009FB101144EA014155
:1009000000FB0EFE8E4508D91CEB010100F1FF34FF
:100910006CD28E456AD90238614440EA0840A0FB97
:100920000294A1EB0E01A142C846A64656D353D06D
:100930005DB1B3EB080261EB0E0101FA07F722FA91
:1009400006F3F1401F43C5E9007100263146BDE8BA
:10095000F087C2F12003D8400CFA02FC21FA03F31D
:10096000914001434FEA1C471FFA8CFEB3FBF7F09E
:1009700007FB10360B0C43EA064300FB0EF69E42C3
:1009800004FA02F408D91CEB030300F1FF382FD25C
:100990009E422DD9023863449B1B89B2B3FBF7F604
:1009A00007FB163341EA034106FB0EF38B4208D9DD
:1009B0001CEB010106F1FF3816D28B4214D9023E1E
:1009C0006144C91A46EA004638E72E46284605E73C
:1009D0000646E3E61846F8E64B45A9D2B9EB02080D
:1009E00064EB0C0E0138A3E74646EAE7204694E79D
:1009F0004046D1E7D0467BE7023B614432E73046D0
:100A000009E76444023842E7704700BFFEE7000090
:100A10000848094A0949121A1CF042FA0848094ACA
:100A20000021121A1CF064FA1CF006FA01F0F4FD21
:100A3000FEE700BF00000020740700208415022498
:100A400000E8022448C10424034B1A1803EB800376
:100A50005B68107B5B6818472CEA0224064B1A5C23
:100A600042B901221A541A1803EB8003107B5B6809
:100A70001B681847002070472CEA022430B4054C4C
:100A8000251804EB800460688468287BA44630BC89
:100A9000604700BF2CEA022430B4054C251804EB53
:100AA00080046068C468287BA44630BC604700BFEF
:100AB0002CEA0224054B10B41C1803EB80035B687E
:100AC000207B1B695DF8044B184700BF2CEA022409
:100AD000006870470B0A017043700B0C090E83709D
:100AE000C1707047024400F8011B9042FBD170476F
:100AF000C3690239023B8B4283BF4389006B01FB10
:100B00000300002070470268490A836A528904334F
:100B1000B1FBF2F1186830B1814202D3091A0833EF
:100B2000F8E7586808447047C2F307238A76CB7603
:100B30000378032B01BF120C0A75120A4A7570471D
:100B400000F10B010022D30143EA520310F8012BFC
:100B500052FA83F38842DAB2F5D1104670470000AA
:100B60000368014610B553B11846024610F8014B10
:100B70001F2C10D93A2CF8D1581C824202D04FF0C9
:100B8000FF3007E01B78303BD8B20128F7D801329C
:100B900018460A6010BD014B1878FBE71CE80224D8
:100BA00038B50D46044618B9092000232B6038BD1E
:100BB0000368002BF8D01A78002AF5D08188DA88EB
:100BC0009142F1D15878FFF73FFF10F00100EBD1CF
:100BD0002368EBE72DE9F0410025D0F800800646B8
:100BE0000C468D758369002B59D0C36A01330AD036
:100BF00001F11607D8F80C3033F81500002850D151
:100C000025440023AB75F1690023A57D2E274E1ED8
:100C1000184616F8012F0130202A26D0052A08BFD1
:100C2000E522092807D104EB030C0DB98CF81670E6
:100C300001338CF8097004EB030C8CF809209DB982
:100C4000A2F1410EBEF1190F0CD8082891F80C80C2
:100C50008CBF4FF0100E4FF0080E18EA0E0F1CBF9D
:100C60002032D2B28CF8162001330B28D1D12DB905
:100C7000E21895750A7B002A08BF0023234400224E
:100C800001F11C005A72CB7A2372FFF721FF20601A
:100C900001F11600FFF71CFFE080000CA080BDE80A
:100CA000F081002101F052FC30B10135B5F5807FB3
:100CB00002D007F8010B9DE70025A1E701380A449F
:100CC00011F8013B914200F8013FF9D170472DE93D
:100CD000F041466B00F13808044601233246414694
:100CE0004078FFF7D9FE0546A8B9A36A226AF31A2D
:100CF000E070934202D2A778012F02D82846BDE8BF
:100D0000F081236A41466078013F1E440123324648
:100D1000FFF7C2FEF0E70125F0E7C3780BB1FFF75C
:100D2000D6BF1846704738B5436B05460C468B4214
:100D300010D0FFF7F2FF60B92246012305F1380118
:100D40006878FFF79BFE00281CBF4FF0FF3401209E
:100D50006C6338BD0020FCE7002310B5C3704FF072
:100D6000FF3304464363FFF7DEFF034618BBB4F8C6
:100D700036124AF6552291421FD194F83820E92ABA
:100D800005D0A26B0F4902F0FF128A4217D104F17D
:100D90006E000D4AFFF79CFE20F07F40904208D085
:100DA00002F14C5204F18A00FFF792FE904218BF04
:100DB0000223184610BD0423FBE70323F9E70223AF
:100DC000F7E700BFEB009000464154002DE9FF41DA
:100DD00000230F4615460B60FFF7C2FE061EC0F249
:100DE00013818C4B53F82640002C00F00F813C609F
:100DF00005F0FE0523786BB16078FFF725FEC1078B
:100E000008D41DB110F0040500D00A25284604B00E
:100E1000BDE8F0810023F0B223706070FFF71EFE82
:100E2000C20700F1F5800DB14307EED40021204642
:100E3000FFF792FF022840F0CC806F4604F5FF7365
:100E400004F23E213A4613F8040C10B11846FFF79D
:100E50003FFE103342F8040B8B42F4D1002557F8C3
:100E6000046B002E00F0AC8031462046FFF774FF83
:100E7000012800F2A680B4F84330B3F5007F40F0BB
:100E8000AC80B4F84E1021B904F15C00FFF720FEED
:100E9000014694F8483021625A1EA370012A00F2DC
:100EA0009C8094F845506581002D00F096806A1E64
:100EB0002A4240F09280B4F8498018F00F0FA4F84D
:100EC000088040F08A80B4F84B0018B904F158004B
:100ED000FFF7FEFDB4F84670002F7ED001FB03FE45
:100EE00007EB181CF444604577D3A0EB0C02AA4230
:100EF000B2FBF5F371D34FF6F572934271D840F619
:100F0000F575AB428CBF02250125023337440CEB4B
:100F10000602032DE3616662A762226363D1B4F81F
:100F2000622052EA080258D19B0004F16400FFF7E6
:100F3000CFFDE06203F2FF13B1EB532F4DD34FF01F
:100F4000FF33032DC4E904334FF0800323712BD109
:100F5000B4F86830012B27D1711C2046FFF7E3FE5F
:100F600010BBB4F836224AF6552320719A421BD1A1
:100F7000294B04F13800FFF7ABFD984214D103F17F
:100F8000FF5304F50770FFF7A3FD03F5005320336B
:100F9000984209D104F50870FFF79AFD606104F5E5
:100FA0000970FFF795FD20611C4A25700025138804
:100FB000A56101339BB21380E380194BE36025E701
:100FC00003200135042D7FF44AAF042805D1012503
:100FD0001CE70428FBD0012801D90D2516E70026BF
:100FE00049E7032591E7B8F1000FF6D0022D4FEA4B
:100FF000430277441ABFD21803F001031346E76295
:1010000018BF03EB520395E70B25FFE60C25FDE621
:101010000325FBE620E802245252614128E802241D
:101020002AE8022401292DE9F04706460C46174616
:1010300074D9C3698B4271D90378022B40D0032B3A
:1010400051D0012B6AD101EB5108816A01EB582183
:10105000FFF769FE054640BB14F0010406F13809AC
:1010600008F1010AC8F3080808BFFBB230461FBFE9
:1010700019F8083003F00F023B0103F0F00318BF2A
:10108000134309F808300123B16AF37001EB5A21C8
:10109000FFF749FE054640B9CAF3080A44B1C7F351
:1010A000071709F80A700123F3702846BDE8F08796
:1010B00019F80A30C7F3032723F00F031F43F0E7A3
:1010C000816A01EB1421FFF72EFE05460028ECD1C2
:1010D000640006F1380304F4FF741F551819C7F3B0
:1010E00007274770DFE7816A01EBD411FFF71BFE8A
:1010F00005460028D9D1A40006F1380327F070472F
:1011000004F4FE741C442046FFF7E2FC00F070403B
:1011100047EA00012046FFF7DDFCC4E70225C4E7EB
:10112000F8B50446FFF7F9FD0546002842D12378BB
:10113000032B37D12779012F34D104F138065523F9
:1011400001464FF400723046FFF7CCFC84F836328B
:10115000AA234122722104F5087084F83732522301
:1011600084F83B2084F8383084F83930612384F8DF
:101170001C1284F83A3084F81F3284F81D1284F867
:101180001E226169FFF7A6FC216904F50970FFF7CB
:10119000A1FC626A3B463146013260786263FFF728
:1011A0007BFC2571002260781146FFF783FC003834
:1011B00018BF0120F8BD03284B8B04BF8A8A43EA7D
:1011C0000243184670470129F8B506460C464ED929
:1011D000C36999424BD20378022B29D0032B34D018
:1011E000012B44D101EB5105816A01EB5521FFF739
:1011F0009AFD10B14FF0FF30F8BD6F1CC5F3080524
:10120000B16A3046354401EB572195F83850FFF765
:101210008AFD0028EED1C7F30807E3073E4496F89D
:10122000380045EA00204CBF0009C0F30B00E3E79B
:10123000816A01EB1421FFF776FD0028DAD1640002
:1012400004F4FF742644308FD6E7816A01EBD41191
:10125000FFF769FD0028CDD1A40006F1380004F4A1
:10126000FE742044FFF734FC20F07040C4E70120F6
:10127000C2E773B50C46064611460568012C2CD909
:10128000EB69A34229D92AB14FF0FF322846FFF774
:10129000C9FE40B9214630680194FFF794FF0199D7
:1012A000044610B9002002B070BD012815D0431CBF
:1012B00015D000222846FFF7B5FE0028F3D1EA69D1
:1012C0006B69911E8B4205D201336B612B7943F020
:1012D00001032B71A242DDD8E4E70220E3E70120FD
:1012E000E1E72DE9F041804605680F4671B92E69A6
:1012F000EEB1EB69B34298BF012634460134EB6985
:10130000A34217D8012E14D8002406E02846FFF780
:101310005AFF0128044603D801242046BDE8F08185
:10132000431C30D0EB698342F7D83E46E5E70126FF
:10133000E3E702242146D8F80000FFF744FF30B16C
:101340000128E9D001301ED0B442D7D1DCE74FF0FC
:10135000FF3221462846FFF765FE90B957B9EA6982
:101360006B69023A2C61934210D92B7943F0010347
:101370002B71D2E7224639462846FFF753FE002854
:10138000EDD00128C8D14FF0FF34C6E7013B6B61B7
:10139000EBE7B1F5001FF8B506460C4601D3022075
:1013A000F8BDCA06FBD1826805680161CAB92B780D
:1013B000022B01D9EB6A9BB92B89B3EB541FEED9F1
:1013C000EB6AB361B3697261002BE8D003EB54237D
:1013D0003835C4F308040020B3612C44F461DFE71E
:1013E0001A466F897F02BC42114604D22846FFF795
:1013F0007FFBB061E6E73068FFF7E5FE431C02467D
:1014000006D00128CBD9EB698342C8D9E41BEAE7AF
:101410000120C5E703692DE9F04703F1200883693E
:1014200005468A4693B1B8F5001F0FD2C8F30809E4
:101430000468B9F1000F4DD101334169836139B9B5
:101440002389B3EB581F45D80023AB6104200BE080
:101450006789013F17EA58273CD12046FFF7B3FEC2
:101460000128064602D80220BDE8F087421C01D1BF
:101470000120F9E7E369834226D8BAF1000FE3D0EF
:1014800069692846FFF72DFF0646002835D0012858
:10149000E9D0431CECD02046FFF73FFC0146002872
:1014A000E6D104F138004FF400724FF0010AFFF763
:1014B00019FB31462046FFF71BFB606363899F429F
:1014C0000FD3636BDB1B6363314620466E61FFF70E
:1014D0000FFBA86138340020C5F810804C44EC6143
:1014E000C2E7204684F803A0FFF7F1FB0028BFD134
:1014F000636B013701336363E0E70720B4E7000063
:101500002DE9F04F002185B00446D0F800B0FFF778
:1015100040FF0646002840F098804FF0FF084FF04B
:10152000FF3AC146C4F82CA0A1695846FFF7FBFB5F
:101530000646002840F08980E5692F78002F00F0EA
:101540008880EA7AE52F02F03F03A37103D01007E9
:1015500004D50F2B04D0C4F82CA050E00F2B56D18B
:1015600094F82B30590640D47A0646D5236907F003
:10157000BF0795F80D80E3626B7B43453FD16B8BD2
:10158000002B3CD12E780122DBF80C3006F03F0610
:10159000DFF8C89000930D23013E5E4319F8013B2C
:1015A000EB5A7AB3FE2E2AD81846039300F0ECFFCC
:1015B000009B711C029033F81600019100F0E4FFCB
:1015C000029A82421BD1039B01991A460E46224B76
:1015D0009945E3D12B785B0604D51AB1009B33F80B
:1015E000163063B9013F5FFA87F900212046FFF703
:1015F00011FF0646002897D027E0B945BCD04FF030
:10160000FF09F2E74FF6FF718B42E0D0F7E7B9F13F
:10161000000F04D12846FFF793FA404515D094F8FF
:101620002B6016F0010696D104F1200205F10B01A2
:1016300015F8013B12F8010B8D42A3EB000302D019
:10164000002BF5D087E7002B85D1304605B0BDE8EB
:10165000F08F0426F9E700BFBDFE0124B0FE01248F
:101660002DE9F04F90F82B5089B0044615F0A005F5
:1016700040F08E800668F26832F81530002B66D193
:1016800004F120070C2205A83946FFF717FB9DF847
:101690001F30DB0740F1858040234FF0010ADFF85F
:1016A000348284F82B300B2205A93846D6F80C90EA
:1016B000FFF704FBBAF1050F59D9A9F1020153460E
:1016C00031F8022F002A44D10DF11300072203F054
:1016D0000F0C013A0CF13001392988BF0CF13701A8
:1016E0000F2B00F801194FEA131142D802F1200321
:1016F0007E216B4403F8141C394600239A4205D01E
:1017000011F8010B03F1010C202834D104F11F0062
:10171000072A03F1010397BF02F1200120210132C2
:10172000694498BF11F8141C072BC154F0D9204606
:10173000FFF7E6FE814670BB0AF1010ABAF1640FB9
:10174000B1D14FF00709484609B0BDE8F08F013527
:1017500092E7102002F0010C52080CEB430313F443
:10176000803F18BF83EA08030138F3D1A8E7534646
:10177000AAE70B46ABE76346C0E780460121204657
:10178000FFF748FE814608B3B9F1040FD9D0DAE774
:101790004FF00609D7E70428D5D19DF81F3084F80B
:1017A0002B309DF81F3000212046D4F800A09B0765
:1017B00045BF0C350D230125B5FBF3F548BF0135B9
:1017C000FFF7E7FD81460028DED18046A16950463B
:1017D000FFF7A9FA81460028D6D1E3691B78E52BEB
:1017E00001D0002BC9D108F101084545C6D1013D02
:1017F00055D021692046A1EB4511FFF7CAFD81466E
:101800000028A0D14FF6FF783846FFF799F90190EC
:10181000A1693046FFF787FA8146002893D1E36932
:10182000E9B2019A4FF00D0CD6F80CE05A734FF064
:101830000F02DFF8A4A0DA724A1E18730CFB02F242
:1018400084469876D87640451AF8019B0CF1010C35
:1018500018BF3EF8120003EB090B18BF013203F862
:1018600009004FEA1029002808BF4046BCF10D0FBF
:101870008BF80190E7D1404502D03EF812200AB91A
:1018800041F040011970012300212046F370FFF759
:10189000C1FD814600287FF456AF013DB8D1A16952
:1018A0003046FFF740FA814600287FF44CAF0146EE
:1018B0002022E069FFF716F90B223946E069FFF7AD
:1018C000FDF994F82B30E26903F018031373012338
:1018D000F37038E721100100B0FE01242DE9F84330
:1018E000FF270646D0F8008004253C464FF6FF79D6
:1018F000B16911B9002D5FD04FE04046FFF713FAF0
:101900000546002849D1F0690378002B5CD0C27AE3
:10191000E52B02F03F02B27144D02E2B42D022F0D0
:10192000200108293ED00F2A41D1590638D503F0AD
:10193000BF043369477BF362437BBB4232D1428BA6
:1019400082BB03780D21D8F80C504FF0010E23F024
:101950004003DFF878C0013B4B431CF8011B415AA0
:10196000BEF1000F20D0FE2B1CD825F813108E4698
:10197000013301320D2AF0D10278520604D5FE2B34
:1019800010D8002225F81320013CE4B20021304693
:10199000FFF740FD05460028AAD00023B3610CE004
:1019A000A342C9D0FF24F1E74945E2D0FAE73CB9A8
:1019B000FFF7C6F8B84203D100252846BDE8F883F2
:1019C0004FF0FF33F362F8E70425E6E7B0FE0124A9
:1019D0002DE9F74F0B7805468846D0F800B02F2B3D
:1019E00001D05C2B09D142461378904601322F2B4F
:1019F000FAD05C2BF8D0002301E0DBF81830AB60A4
:101A000098F800301F2B00F2D88080230021284650
:101A100085F82B3003B0BDE8F04FFFF7BABC0134B6
:101A2000DEE0B4F5807F00930CD0012100F08EFD44
:101A300040B17F28009B07D88F4911F8012B1AB1BC
:101A40008242FAD1062005E126462AF8020FBDE0BF
:101A5000022E04D1B9F802302E2B00F0D1805EBBEB
:101A6000002329F81630002EECD020210B22681814
:101A7000FFF738F8194639F81130202B24D02E2BD7
:101A800022D009B144F0030437F816302E2B01D0D0
:101A9000013EF9D100234FF0080A1F4639F8110022
:101AA0004A1C10B3202803D02E280FD1964211D003
:101AB00044F003041146F1E737F81630202B01D02B
:101AC0002E2BCDD1013ECAE70131D4E7534505D2D3
:101AD00096423AD1BAF10B0F30D102E0BAF10B0FB6
:101AE00027D144F003044FF00B0A95F82030E52B82
:101AF00004BF052385F82030BAF1080F04BFBF00EA
:101B0000FFB207F00C030C2B03D007F00302032AEB
:101B100001D144F00204A00700F1878007F0030719
:101B2000012F08BF44F01004042B08BF44F0080440
:101B30007BE0964202D044F00304D6D3BF00324685
:101B40004FF00B0A0823FFB2B4E77F280ED900211B
:101B500044F00204CDE9002300F0F8FCDDE90023A5
:101B600060B14649084410F8800C38B1DFF810C164
:101B70001CF8011B002972D08142F9D144F0030402
:101B80005F20E918013381F8200093E747F002074E
:101B9000F7E7002A08BF05205CE05A075AD4AB7962
:101BA000DB065AD529690BF138039BF80000C1F315
:101BB00008011944FFF7FFFAA8602B680026D3F844
:101BC0000C9008F1FF33A9F10207BA4613F8010F90
:101BD000741C1F280CD92F2802D05C287FF421AF59
:101BE00018F804302F2B3FF41AAF5C2B3FF417AFDB
:101BF0002028A04434BF04240024012E7FF428AF01
:101C0000B9F800302E2B7FF42AAF002305F1200213
:101C100029F816309E428CBF2E21202101330B2B38
:101C200002F8011BF6D144F02004284685F82B4029
:101C3000FFF766FC95F82B300028AED0042809D1B8
:101C4000990603F00402A4D5002AB6D08023002010
:101C500085F82B3003B0BDE8F08F0520FAE7A0F13E
:101C60004101192992D9A0F1610119299EBF20389B
:101C700047F0010780B284E720FE012430FE0124F2
:101C800029FE01241FB5CDE9001003A814460391D5
:101C9000FEF766FF031E15DB0C4A52F8231009B14C
:101CA00000200870019808B10021017042F823005B
:101CB00030B1012C08D1002201A96846FFF786F84F
:101CC00004B010BD0B20FBE70020F9E720E8022458
:101CD0002DE9F04190B0174604460191002800F02C
:101CE000D48002F03F0603A901A83246FFF76EF840
:101CF000054600284FD1039B04A801990493FFF7E0
:101D000067FE20B99DF93B30002BB8BF062017F0C5
:101D10001C0F00F09A80002844D004283BD104A86E
:101D2000FFF79EFC002836D146F0080607F00CFFAE
:101D30000146009020220B980E30FEF7CBFE0B9848
:101D400000991630FEF7C6FE0B9BDDF80C80DA72A8
:101D50000B9998F80000FFF72EFA0022074640463C
:101D6000FEF7E2FE0B9B002201211A775A779A7741
:101D7000DA77039BD970F7B1394604A8D3F83480D9
:101D8000FFF777FA38B941460398FEF7CCFF013FD9
:101D9000039B1F6178B1002305462360284610B0DD
:101DA000BDE8F0819DF8163013F0110F57D1780778
:101DB00065D43907BAD4039F31070B997B6B48BFB1
:101DC00046F04006616223623878FFF7F4F9A060BC
:101DD00001F11C000021FEF77BFEFB88276004F167
:101DE0002C074FF40072E060A1623846A38026748D
:101DF0006174E1616161FEF775FEB206CED5D4F87B
:101E00000C80B8F1000FC9D0039BA1685E89C4F8AB
:101E100014807602464524D30020A1610028BAD15F
:101E2000C8F30803002BB9D0039E3046FEF760FECE
:101E300048B300EB582201233946E2617078FEF77F
:101E40001DFE0028AAD00120A5E70028A3D19DF8F7
:101E50001630DA0615D4BF07ADD5D807ABD50720A5
:101E600099E72068A8EB0608FFF7ADF901280146BD
:101E700003D9431CCED10120CFE70220CDE70820B3
:101E800089E7042087E7022085E7092586E72DE911
:101E9000F04F87B016468946044601930023019A05
:101EA00005A91360FEF77CFE054618BB657C0DBBDB
:101EB000237C13F00103029300F09980E26804F19F
:101EC0002C0A6369D21A964228BF164696B16169F8
:101ED000C1F30803002B7CD1059BB3F80A8008F1FD
:101EE000FF3818EA51281BD141B9A068012810D841
:101EF00002256574284607B0BDE8F08FA36A1BB1C0
:101F00002046FEF700FEF1E7A1692068FFF75BF9C4
:101F1000ECE7431C03D10123029D6374EAE7A0614F
:101F2000DDF814B0A1695846FEF7E2FD0028DFD0C5
:101F3000B6F5007F08EB00072ED3BBF80A2008EBAC
:101F40005621730A9BF801009142494688BFA2EBD3
:101F500008033A460393FEF791FD0028DBD194F97C
:101F60001020039B002A0BDAE069C01B984207D2BD
:101F70004FF40072514609EB4020FEF79FFE039B91
:101F80005F026369B944019AF61B3B446361019B9C
:101F90001B683B44136099E7E269BA4218D094F990
:101FA0001030002B0BDA012351469BF80100FEF79D
:101FB00073FD0028AFD1237C03F07F0323740598C1
:101FC00001233A4651464078FEF758FD0028A2D139
:101FD000E76161694846C1F30801C1F500775144E2
:101FE000B74228BF37463A46FEF768FEC9E70725DD
:101FF00080E72DE9F04F994685B00023884603A974
:102000000446C9F800301646FEF7CAFD054650BB27
:10201000657C45BB237C9A0740F1AF80636904F17E
:102020002C0AF34228BFDE43CEB16169C1F3080335
:10203000002B40F09080039B5F89013F17EA5127F6
:1020400024D131B9A068A0B901462046FFF749F96B
:1020500004E0A36A5BB12046FEF755FD48B9237C36
:1020600043F040032374284605B0BDE8F08FA16912
:10207000EBE7012802D102256574F4E7431C01D186
:102080000125F9E7A368A06103B9A06094F91030B5
:10209000002B0CDA03980123E26951464078FEF7E1
:1020A000FBFC0028ECD1237C03F07F032374DDF8D4
:1020B0000CB0A1695846FEF71BFD0028DBD0B6F531
:1020C000007F07EB000234D3BBF80A1007EB562061
:1020D000730A88429BF8010088BFCB1B4146CDE9BB
:1020E0000023FEF7D9FC0028CAD1E169009A019BC0
:1020F000891A99420CD24FF4007208EB41215046E4
:102100000093FEF7DBFD227C009B02F07F0222742D
:102110005F026369B844E268F61B3B4463619A421C
:102120002CBFE260E360D9F800303B44C9F80030CE
:102130007AE7E36993420DD0E1686369994209D96E
:10214000012351469BF801000092FEF797FC009A8C
:10215000002895D1E26160694146C0F30800C0F5EE
:1021600000775044B74228BF37463A46FEF7A6FDEF
:10217000237C63F07F032374CBE7072573E7F7B570
:1021800001A90546FEF70CFD044600283BD12B7C37
:1021900013F0400437D01B060CD501980123EA69DF
:1021A00005F12C014078FEF777FC78BB2B7C03F01F
:1021B0007F032B7407F0C8FC296A07460198FEF7D5
:1021C000B2FD0446F8B96E6AF37A314643F0200353
:1021D000F372AA682868FEF7A7FCE96806F11C00FC
:1021E000FEF778FC394606F11600FEF773FC012372
:1021F0000198B474F474C370FEF792FF2B7C04460C
:1022000023F040032B74204603B0F0BD0124FAE70D
:1022100013B50446FFF7B3FF28B901A92046FEF71E
:10222000BFFC00B9206002B010BD2DE9F04F85B0B1
:102230000D46044603A9FEF7B3FC0646E8B9667CE2
:10224000DEB9A36A002B7BD06A1C39D11D46D4F8B5
:102250000880022755F804BBB8F1000F28D040468B
:102260004FF0000A0146814620680AF1010AFEF794
:10227000AAFF012807D802266674304605B0BDE8DB
:10228000F08F8046EBE7431C01D10126F4E709F10A
:1022900001098145E6D00237BB4521BF2B4643F8F3
:1022A00008ABC5F804801D46039BDB698342E8D870
:1022B000A36A5F451F6000F2C38000232B60DCE748
:1022C000E768AF4228BF2F466761002FD5D07D1E3B
:1022D00020462946FEF717FCDDF80C800146A06178
:1022E0004046FEF705FC0028C5D0C7F30807002FBD
:1022F000C3D0B8F80A10E269013901EA55210D1876
:10230000AA42BAD094F9103004F12C01002B0CDA57
:10231000012398F801000191FEF7BEFB0028B4D11B
:10232000237C019903F07F032374039801232A4639
:102330004078FEF7A3FB06460028A6D1E5619CE79E
:10234000E368AB4204D2227C12F0020F08BF1D46A4
:10235000002263696261EDB90025E2686369934216
:1023600084BF227CE360C3F3080384BF42F04002D1
:102370002274002B81D0E269AA423FF47EAF94F927
:10238000103004F12C01002BCFDA039801230191C6
:102390004078C1E7039A57897F020BB3013B6A1E5D
:1023A000B3FBF7F1B2FBF7F28A4219D37A42A16983
:1023B0001340ED1A63610029CED0BD4263691ED877
:1023C00063692B446361C5F30803002BC4D00398F1
:1023D000FEF78EFB00283FF44EAF00EB5525BCE71F
:1023E000A16851B92046FEF77CFF012801463FF461
:1023F00042AF481C3FF449AFA160A161DBE73B4419
:10240000A5EB07086361237C9A0706D52046FEF7F3
:1024100068FF054628B90146D2E72068FEF7D3FEDB
:1024200005466B1C3FF431AF012D7FF624AF039BB3
:10243000DB69AB427FF61FAF2946A5614546BCE785
:1024400011261AE71FB50446019150B3002203A9D3
:1024500001A8FEF7BBFC70B9039B204601992360DD
:10246000FFF7B6FAF8B994F92B30002B0CDBA379FF
:10247000DB0603D405200023236010E0039BE16901
:102480001878FEF798FEA060039B00212046DB88A9
:10249000A380FEF77EFF0428ECD00028EBD104B027
:1024A00010BD0920FBE70428E4D0E4E713B501A937
:1024B0000446FEF775FB00B9206002B010BD73B58D
:1024C0000D4601A90446FEF76BFB20B92DB9014664
:1024D0002046FEF75EFF02B070BD2046FFF7FEF912
:1024E00010F0FB06F7D129462046FEF773FB314674
:1024F0002046FEF78FFF042808BF0020EBE700000E
:102500000F4B30B59C7B012C17D89D7B0024EDB27E
:102510005C559D7B03EB85056860987B18440273CE
:102520009A7B501C3032C0B298733A2320460A700E
:102530004B702F23CC708B7030BD0120FCE700BFA7
:102540002CEA02240022FFF7DBBF00007F2810B531
:1025500006D931B1FF2812D880380A4B33F8100061
:1025600010BD084A32F8024B8BB2844203D00131CD
:102570008029F7D10B4603F18000C0B2F0E70020BC
:10258000EEE700BFBEFE01241E4B1F4AB0F5805F80
:1025900028BF134670B5191D31F8043C0A46ABB18B
:1025A000984213D331F8024C250AE6B253FA84F468
:1025B000A04221DA082D09D8DFE805F005090F113E
:1025C000131517191B00C01A31F8100070BDC31A7B
:1025D00003F00103C01A80B2F8E71038FBE7203897
:1025E000F9E73038F7E71A38F5E70830F3E75038FD
:1025F000F1E7A0F5E350EEE70431002DCCD102EB7A
:102600004603C8E7BEFF0124B001022470477047AB
:10261000704770477047000008B50021094802F074
:10262000E7FB012004F0B0F8074804F09FF8074AE0
:102630000749084800F0CEFD064801F0F5FC0020EF
:1026400008BD00BF90D403246C020224500B06C0C6
:10265000500B06C1E8EB0224F8B55A4E00245A4D3F
:102660005A4A30465A4918F017FB2C606C6105F540
:10267000C0702C62EC6304F0BDF8564B534A2846F8
:10268000C5F8383240F20F735349A5F83C3205F5CE
:102690001473C5F89041C5F8403240F20113C5F8F3
:1026A0004C424E4FC5E9913418F0F6FA474A4C496E
:1026B0004C4818F0F1FA4C4BBC617E60C7E902351A
:1026C0004A4BC7E9043407F58053DC83484BC3E920
:1026D0000054C3E902440A2400210022013C03F112
:1026E000240343F8101C43F80C1C4FF0010103F8BD
:1026F000142C43F8081C03F8042CEDD13D4E334A4A
:102700003D493B4818F0C8FAF5614FF4D672384994
:1027100006F1200006F580451AF0C2FB314B214638
:10272000C6F8CC71C6F82C32202205F68460C5F8B4
:10273000F84DC5F8FC4D4FF07C57C5F8004E1AF027
:10274000D7FB2146202205F6A4601AF0D1FB05F63E
:10275000C46321461C221F6005F6C8601AF0C8FB3E
:1027600005F6E46321461C221F6005F6E8601AF0B6
:10277000BFFB06F550433046A5F8044F83F87C4173
:10278000C3F8804183F88441C3F89841A3F89C4181
:1027900083F89E41C3F8A041C3F8AC41C3F8C041DF
:1027A00083F8C441094A1549C3E96244C3E969444D
:1027B000C3E96C44C3E96E44114B1E60BDE8F840A8
:1027C00018F06ABA7467042490D40324000000202F
:1027D0000F2600240080707F11260024DCBF032414
:1027E0000D260024000000C010D00324B0BD032437
:1027F0003CEA0224E8EB02241326002415260024D8
:1028000078670424F0B585B003230124002705462A
:1028100001A940688DF80C70CDE9013405F022FF64
:10282000064628B10E4803F0A1FF384605B0F0BDBA
:102830002146A86807F064F90A4803F097FFA868E2
:10284000224609490430FFF71DFA20B1074803F07A
:102850008DFF3046EAE7064803F088FF2046E5E7AB
:10286000780202248802022495020224970202249C
:10287000AB02022470B50446D2B000214FF480525E
:102880001C301AF035FBA168684601F27441FFF76D
:10289000D9FD28B1244803F069FF002052B070BD73
:1028A0000CA9684604F58055FFF709FE78BB9DF832
:1028B000463063B3EE8B1F2E29D89DF8383013F0C5
:1028C000120FEDD1022219490DF146001BF0FCF860
:1028D0000028E5D016490DF146001BF009F930B982
:1028E00014490DF146001BF003F90028D8D004EB81
:1028F000C6100DF146011C301BF0DEF8EB8B0021F9
:1029000004EBC312013382F89B10EB83C8E76846DF
:10291000FFF7CCFD0848E98B03F028FFE88B00386F
:1029200018BF0120BAE700BFBB020224EB02022459
:10293000EE020224F3020224DC0202242DE9F04715
:102940000C468EB005462C226B4603A92046FFF7A5
:102950009EFA08B1002097E0009B2C2BFAD1584B2F
:10296000039ADDF830809A42F4D1A3F57003059AFA
:10297000A3F2FB739A42EDD1069E524FBE4209D19B
:1029800005F58053099A1A62BDF822201A85BDF810
:102990002E205A85DFF83091C84551D0F31B0C2109
:1029A00020465E425E41FFF740FC04226B46204613
:1029B0000DEB0201FFF76BFA00287AD1DDF800A0D9
:1029C000BAF1040F75D152466B4602A92046FFF7B3
:1029D0005EFA019ABA425AD1616920460631FFF780
:1029E00024FC05F581516B46022208312046FFF791
:1029F0004EFA0028AED1009E022EABD16B46524655
:102A000005F581512046FFF742FA0028A2D1009B2C
:102A1000042B9FD1616920460631FFF706FC05F5BE
:102A200081516B4632460A312046FFF730FA0028C2
:102A300090D1009B022B8DD1C84511D00126B4E75F
:102A400005F580510D9AB1F92A304A62002BB8BFC2
:102A50000733BE424FEAE303B2FBF3F3CB629DD1EF
:102A600005F580522869B2F92A30516A002BB8BFA7
:102A70000733DB10B1FBF3F36169D3621163FFF736
:102A8000D4FBB0FA80F040090EB0BDE8F0874A45AB
:102A9000029B06D105F580525362002E3FF45AAFD7
:102AA000DEE7616920461944FFF7BFFB002EC3D162
:102AB0007BE7002E3FF44EAFC8457FF44BAFCFE726
:102AC00052494646666D7420646174612DE9F34194
:102AD000054600264FF400400F4618F0E4F84FF486
:102AE0000042002104461AF003FA28694269C368CB
:102AF0009A4248D0BE4246D2BB1B05F580582146BB
:102B0000B3F5804FB8F9282028BF4FF480435A43CB
:102B100001AB5200FFF7BBF9034660B100251B482B
:102B200003F024FE20464FF4004118F0BAF828467E
:102B300002B0BDE8F081B8F928104A000199B1FB54
:102B4000F2F172008B421CD0B8F928E0BEF1010FFF
:102B5000D5E905C017BF34F923E034F913E02CF8A8
:102B600002E004F1020C0CBF20F802E03CF923C0A3
:102B700003F101030CBF2CF802E020F802C002327E
:102B8000E0E71E44B1E70125CCE700BFF8020224CC
:102B900010B504464FF08072002140691AF0A8F980
:102BA0004FF080720021A0691AF0A2F904F5805359
:102BB000B3F92820D96AB1FBF2F1B1F5000F04D8BE
:102BC0002046BDE81040FFF781BF002010BD000087
:102BD00070B500F5805604460D46F38B8B4210D33A
:102BE000B38B8B4202D00069FFF712FB04EBC511D7
:102BF000012220691C31FFF76BF820B10F4803F068
:102C0000B5FD002070BD21692046FFF797FE20B971
:102C10002069FFF7FDFA0A48F1E7B6F92A30102BD0
:102C200004D1326A4BF680339A4201D00548E6E778
:102C30002046BDE87040FFF7ABBF00BF1903022478
:102C4000330302244F030224C0E905127047002316
:102C50004FF49652C0E960230123C0F888314FF049
:102C60007E53C0F88C314FF07C53C0F89031002374
:102C7000C0F89431704700002DE9F84304460E4631
:102C800015461F4600F1100800F5BC79C360C0E985
:102C90000112C84505D0404608F1240801F014FA95
:102CA000F7E7054B20461F60044B1E60044B1D6078
:102CB000BDE8F843FFF7CBBF7C6704248467042496
:102CC000806704249FED0D7ADFED0D6AF0EE477A00
:102CD000E0EE267AC7FE877A9FED0A7AC7FEC77AAA
:102CE0009FED097A67EE877A9FED087A67EE877A1B
:102CF000FCEEE77AC0ED607A704700BF0000C84282
:102D00000040354500803B456F12833A00803B47C9
:102D1000C368013B07EE903AF8EE677A27EE800A27
:102D2000BCEEC00A80ED610A7047B7EE007AF3EEA0
:102D3000036AF0EE477AE0EE267AC7FE877AB3EEB2
:102D4000047AC7FEC77AF8FE677AFCEEE77AC0ED30
:102D5000627A7047B6EE007AF7EE086AF0EE477ACC
:102D6000E0EE267AC7FE877AB0EE007AC7FEC77A11
:102D7000C0ED637A704780ED640A704780ED650AA4
:102D8000704703461022002110B4B2F5BC7F03EB5C
:102D9000020014D09C5C14B101312432F5E7D3F861
:102DA00088418C42F9D993ED651AD3ED640A93ED0D
:102DB000630A5DF8044BD3E9602101F097B95DF82F
:102DC000044B7047002330B5102585B0C0F878312A
:102DD0000446C0F87C31FFF7D4FFB5F5BC7F04EBA7
:102DE00005000FD0635D5BB194ED5E0AB7EE001A8B
:102DF000D4ED5F0A01F0B4F984ED5E0AC4ED5F0A18
:102E00002435EAE7D4E95E0104AB03E903009DED54
:102E1000020ADDED030A05B030BD000010B5837A6B
:102E20000446FF2B0AD106F041FF07EE900AB8EEE8
:102E3000670AD4ED037A30EE670A10BD9FED010AF0
:102E4000FBE700BF00000000DFED0D7AB4EEE70AFB
:102E500010B5F1EE10FA044658BFB0EE670ADFED88
:102E6000097A20EE270A18F033F9F7EE007A84ED9C
:102E7000000A30EE270A87EE807A84ED017A10BDD1
:102E8000C976FE3EDB0F4940D0ED006AB0EE407AD5
:102E9000D0ED027A037BE6EE807A90ED010A27EE10
:102EA000800A77EE407AB0EE407AA6EEA77A80EDFF
:102EB000027A23B1012B9FED020A07FE800A7047B8
:102EC00000000000D0F8D431012B0CD0032B04D02B
:102ED00013B90123C0F8D831704700F550420123DF
:102EE00082F87C31F6E70223F4E710B50446E06986
:102EF000403003F083FBE36993F84C20002AF6D0BE
:102F000093F85230802BF2D1D4F8D431012B08DC65
:102F1000002B0CDB04F55043012283F87C210323B2
:102F200003E0023B012B02D80023C4F8D83110BDC6
:102F300038B5D0F8CC3100F5804503F58052D5F88E
:102F4000F84DD28B21448C1894FBF2F102FB114412
:102F500000F59C42A1B20432C5F8F84D03EBC11153
:102F600010461C311AF0A8FD214602460248BDE871
:102F7000384003F0FBBB00BF61030224D0F8D82126
:102F80002AB900F5504383F87C21FFF7D1BFD0F870
:102F9000D421012A01BF002200F5504181F87C2193
:102FA000C0F8D821704700F5804310B50446D3F827
:102FB000F42DD0F8CC01D3F8F01DFFF745FED4F87E
:102FC000CC01FFF71FFC28B1D4F8CC01BDE81040BC
:102FD000FFF750BC10BD0000002100F5504200F585
:102FE000804310B5C3F8FC1D0446C2F8801192F866
:102FF0007C216AB9B3F8F81DD0F8CC01FFF7E8FDE1
:1030000030B9084803F0B2FB0523C4F8D43110BD31
:10301000054803F0ABFBE0690449BDE8104001F04E
:10302000FFBD00BF75030224890302246537002415
:1030300038B500F5804504464FF080720021D5F880
:10304000F00D04F5504419F053FF4FF08072002149
:10305000D5F8F40D19F04CFF0023C4F8803138BDC9
:10306000D0F8CC3100F580409FED2A7A002103F59D
:10307000805300F60872B3F9283082ED0D7A1022E1
:1030800007EE903AC0F8403FA0F81E3F1B01F8EE53
:10309000E77AC0F8341F48BF07331F49C0F8442FF0
:1030A00067EE877ADB10B3EE007AC0F8081FA1F54F
:1030B0007001A0F8283F1023C0F8182F67EE877A18
:1030C000A1F2FB71B4EE007A0122C0F8101F01F1E9
:1030D0005B41A0F82A3F67EE877A104B01F5F111AA
:1030E000A0F81C2FC0F82C3F4BF68032FCEEE77A9C
:1030F000002301F60F41C0F8202FC0F8303F2423F1
:1031000017EE902AC0F8141FC0F80C3FC0F8242F07
:10311000704700BF00803B47524946466461746176
:1031200037B59FED210A044600F5F4708DED010AD4
:1031300001F0BEF804F50A7004F5804517F012FBA3
:103140009DED010A04F50C7017F06EFB9DED010A70
:10315000D4F82C0201F0BCFB04F59B409DED010A64
:103160000C3001F0D1F905F68C53104A04F59B4060
:103170009FED0F0A9A6050300E4A5A60002205F502
:103180005D639A60012385F8DC3DFFF75DFE04F581
:103190009B400023B5EE060A603085F8EC3DFFF752
:1031A00053FE03B030BD00BF00803B4700A08C46FB
:1031B00017B7D1393333333F00F59D4300F59D40B8
:1031C000043324304FF07C5243F8042B8342DA61FD
:1031D000F8D1704770B500F5804504460026C069F7
:1031E0002DED048BC5F8F01D0221C5F8F42D01F07A
:1031F0001BFDE069032101F02FFD2046C4F8D461D6
:10320000FFF7D1FEB0B9304803F0B0FAE069B7EE8D
:10321000000AD83003F030FBE069B7EE000A00F591
:10322000967003F029FBE069BDEC048BBDE87040AB
:1032300001F03EBDE06901F025FDE069F0EE408A55
:1032400001F008FD07EE900AB8EEE78A06F0CCFE22
:1032500007EE900AB7EE007A9FED1C6A012388EE14
:10326000289A204623701A4BE360F8EE677A2361B0
:10327000636167EE897AC7EE276AC4ED016AC8EE1A
:10328000886AC6EE267A37EE877AC7EE876AC4ED7B
:10329000066AFFF745FF2046FFF78EFF30461AF01B
:1032A0003DFC0C4BD5F8F42D186004F1200033469A
:1032B000D5F8F01DFFF7E0FCE069BDEC048BBDE83C
:1032C000704001F0E1BC00BF95030224DB0FC94050
:1032D0000000C07F70670424D0F8CC2100F5804145
:1032E00002F58052B2F92830D26A10B50446203077
:1032F000B2FBF3F3D1F8F42DD1F8F01DFFF7BCFCCD
:103300002046FFF759FFD4F8CC31064803F5805327
:10331000B3F92820D96ABDE81040B1FBF2F103F0FF
:1033200025BA00BFB103022438B50446D0F8DC51F9
:10333000C06904EB8505683005F5804503F0DEF8CB
:1033400005F6C46305F6E46583ED000AE06904F55B
:103350008044883003F0D2F8002385ED000AA4F8F9
:10336000043F38BDF0B50024944239D0D0F8CC6188
:1033700000F5804506F58056D5F8FC3DB6F9287075
:10338000F66AB6FBF7F6B34228D2D5F8F07DF6EE32
:10339000006A9FED146A37F913700E6807EE107A11
:1033A000D5F8F47D06EB840637F91370B8EEC77ACA
:1033B000013307EE907A27EE067AF8EEE77A27EEE9
:1033C000267A67EE867A86ED007A4E6867EEA67AF0
:1033D00006EB8406C6ED007AC5F8FC3D0134C3E770
:1033E000F0BD00BF00000038F0B500259D4233D08D
:1033F0000E6800F5504C146800F5804E06EB85060B
:1034000004EB8504376827604C68DEF8F07D04EB38
:103410008504D4ED007A546804EB85040135C4EDCD
:10342000007AFDEEE77A96ED007ADCF88041BDEE99
:10343000C77A17EE106A27F8146017EE907ADEF854
:10344000F46D26F814700134044EB4FBF6F706FB55
:103450001744CCF88041C9E7F0BD00BF00E4570035
:1034600030B500F59B458DB004465035CDED070ACB
:103470002846FFF709FD28468DED080A04F59B450F
:103480009DED070AFFF700FD04F5F4700C358DED96
:10349000090A9DED080A039000F092FF03988DED54
:1034A000080A9DED090A00F08BFF28468DED090AF8
:1034B0009DED080A01F044F828468DED080A08AD94
:1034C0009DED090A01F03CF804F50C708DED090A38
:1034D0009DED080A039017F071FA03988DED080A24
:1034E0009DED090A17F06AFA09AA2B4629460092AF
:1034F000D4F82C0204F59B448DED090A01F062FB1F
:1035000060349DED080A2046FFF7BEFC20468DED95
:10351000080A9DED090AFFF7B7FC0CAB8DED090A0F
:1035200095E8030003E903009DED0A0ADDED0B0AAF
:103530000DB030BD2DE9F04F044685B00E469346E0
:1035400000255D4500F0C78004F12000FFF73AFC3C
:103550002046CDED030A8DED020AFFF781FF04F549
:103560000A70012202A98DED020AB7EE000ACDED24
:10357000030A019017F0FAF8012203A90198B7EEA7
:10358000000A17F0F3F83168029B04F5504001EB94
:10359000850172680B6002EB8502039B136090F853
:1035A0008431002B00F0958004F58043D3F834CFAC
:1035B00003F6087E07EE90CAF8EE676ADEED0D7A34
:1035C00086EEA77ADFED457AB4EEE77AF1EE10FAEF
:1035D0007FD50968D3F844EFC0F890110021126834
:1035E000D3F8388FC0F8942104F55142D3F8400F36
:1035F000903288424CDDBEF1100F05D0BEF1200F95
:1036000027D001310432F4E7D2ED007A04F59E4967
:103610009FED337A01EB080A09F14809F4EEC77A05
:10362000F1EE10FA12D99FED2F7AF4EE477AF1EE0F
:1036300010FA67FE277A9FED2C7A67EE877AFDEE07
:10364000E77A17EE907A29F81A70DAE7F0EE477AFF
:10365000F1E7D2ED007A01EB08099FED217AF4EE53
:10366000C77AF1EE10FA10D99FED1E7AF4EE477A80
:10367000F1EE10FA67FE277AFEEEE07A03EB890995
:1036800017EE907AC9F8487FBBE7F0EE477AF3E788
:10369000BEF1100F40440CF101020CBF4FF4005179
:1036A0004FF48051C3F8342F8842C3F8380F02BF5B
:1036B00004F540424FF0010CC2F848CFB0EB410F87
:1036C00007D30022C3F8382F04F540430222C3F881
:1036D000482F013535E705B0BDE8F08F0000F04216
:1036E00004FF7FBF04FF7F3F00FEFF462DE9F0414E
:1036F000D0F8D45116461F46022D27D0032D21D0D5
:10370000012D29D1D0F8CC3100F5804403F5805348
:10371000B3F92820DD6AD4F8FC3DB5FBF2F5013D94
:10372000AB4209D30D4B1B68D86901F07BFA0C48FA
:10373000BDE8F04103F01AB83A463146BDE8F04121
:10374000FFF710BEBDE8F041FFF74EBE31461A4606
:10375000BDE8F041FFF7EEBEBDE8F08178670424D4
:10376000CC03022413460A46014602480068FFF7CC
:10377000BDBF00BF78670424F0B504468BB0FFF7E7
:103780006FFC174904F5504502A804F54F4604F5AF
:103790009E47D5F888211AF06FF9D5F88831503650
:1037A0000A22013302A930460837C5F88831FEF7EE
:1037B0008FFA80B9019001AB2C2239463046FEF7D2
:1037C00018FC40B904F58043012204F5404484F814
:1037D0004C2FC3F8340F012385F884310BB0F0BDB2
:1037E000E0030224072930D8DFE801F004120715AE
:1037F0000A180D1B2030FFF765BA2030FFF7AABA70
:103800002030FFF7B8BAD0F82C3283ED000A7047A9
:1038100080ED6E0A704780ED710A704780ED720A84
:103820007047B3EE047ADFED096A20EE000A00F576
:103830009B40F0EE477AE0EE267AC7FE877A9FED4E
:10384000047AC7FEC77AC0ED057A704700788C46C7
:1038500000A08C4600B503462DED028BB0EE408AE9
:1038600083B0072923D8DFE801F004270C2A142DA0
:103870001C50203003B0BDEC028B5DF804EBFFF769
:1038800047BA203003B0BDEC028B5DF804EBFFF7C4
:103890004CBA203003B0BDEC028B5DF804EBFFF7AF
:1038A0006DBAD0F82C3203F5C12383EDD10A03B0F1
:1038B000BDEC028B5DF804FB83ED6F0AF7E783ED47
:1038C000700AF4E7D3ED6C7A00F50C70DFED1A0A9C
:1038D000B7EE007ADFED196A37EEA00A019077EEB5
:1038E000E00A80FE260AC0FEA60A80FE470AC0FE45
:1038F000C70A17F09BF9B0EE480A019803B0BDEC77
:10390000028B5DF804EB17F0ABB9DFED0D7A20EE1A
:10391000008A9FED0C7A00F59B40B0EE670A5030AC
:10392000A8EE070A80FE270ADFED077A80FE670A05
:10393000FFF78AFABBE700BFCDCCCC3D000000000A
:1039400017B7D13951491D3C0AD7233C000000006C
:10395000D0F8D431022B70B504462DED048B51D133
:10396000D0F8DC51C0699FED409A683002F0C6FD86
:10397000B4EEC90AF1EE10FA47D9DFED3C7AB4EEA5
:10398000670AF7EE007AF1EE10FA67FE808AE069C6
:10399000883002F0B3FDB4EEC90AF1EE10FA37D95F
:1039A000DFED327AB4EE670AF7EE007AF1EE10FA44
:1039B00027FE808A05F59D5694F8E43108366BB3EE
:1039C00004EB860393ED017A38EEC77A9FED246B02
:1039D000B0EEC77AB7EEC77AB4EEC67BF1EE10FA56
:1039E00019D404EB860393ED017A38EE477A9FED04
:1039F0001C6BB0EEC77AB7EEC77AB4EEC67BF1EEB9
:103A000010FA28D4BDEC048B70BDDFED198ABEE737
:103A10009FED178ACEE7002384F8E43105F59D5524
:103A2000B0EE680AD4F8DC112046FFF7DBFE94F80C
:103A3000E43104EB8505C5ED018A002BD1D1D4F822
:103A4000DC11204604EB8604B0EE480AFFF702FFC3
:103A500084ED018AD6E7002384F8E431EFE700BF64
:103A60007B14AE47E17A843F0AD7233CA4707D3FA4
:103A70000000000003290CD8DFE801F00207090567
:103A8000054802F073BE0548FBE70548F9E705481D
:103A9000F7E70548F5E700BFED030224060402241A
:103AA0001D040224330402244B040224072916D8DF
:103AB000DFE801F00407090B0D0F1113084802F0AD
:103AC00055BE0848FBE70848F9E70848F7E7084803
:103AD000F5E70848F3E70848F1E70848EFE77047DB
:103AE0005F040224750402248E040224A804022424
:103AF000C5040224DD040224F50402240A0502247C
:103B0000D0F8D43110B50446052B0ED8DFE803F009
:103B1000031B242D3636002200F55043C3F8A421A0
:103B2000C3F8A8211E4AC3F8AC21D4F8D431022B23
:103B300008D004F550440023C4F8B031C4F8B431BF
:103B4000C4F8B83110BD00F550430022C3F8A421D9
:103B5000134AC3F8A821E6E700F5504300221049B4
:103B6000C3F8A421C3F8A811DDE70D4A00F55043BE
:103B7000C3F8A421C3F8A8210022D4E7B7EE000AB5
:103B800000F550430022C06983ED690A00F5967084
:103B9000C3F8A821C3F8AC2102F06EFEC5E700BF50
:103BA0003333333FD0F8D83110B50446052B1ED837
:103BB000DFE803F00311150A1D22C06901F032F895
:103BC0000023C4F8D43112E0FFF732FA0B4802F0B8
:103BD000CDFD0323F5E7FFF7FFF90123F1E7FFF739
:103BE0007BFB02230648C4F8D43102F0BFFD204617
:103BF000BDE81040FFF784BF0523E2E71F0502245C
:103C00002C050224D0F8D431022B13D1D0F8DC31AA
:103C1000062B0FD8DFE803F0040E0F0E190E22005A
:103C200000F550400023124AC0F8A431C0F8A82182
:103C3000C0F8AC31704700F550400E4BC0F8A431CD
:103C40000D4BC0F8A8310023F2E700F550400023E7
:103C5000C0F8A431064BC0F8A831E9E700F55040A0
:103C6000064BC0F8A4310023C0F8A831004BDFE7B1
:103C70003333333F6666663F9A99193FCDCC4C3F4C
:103C800010B50446104802F071FDD4F8DC11CB07E2
:103C900016D402314B4201F0070103F0070358BF6D
:103CA00059422046C4F8DC11FFF700FF2046FFF719
:103CB0003BFB2046FFF7A6FF012384F8E43110BD4B
:103CC00081F00101EDE700BF42050224D0F8D431B4
:103CD000022B1BD1D0F8DC31072B17D8DFE803F01B
:103CE000040C04170421042100F550400023C0F8FF
:103CF000B031C0F8B43107E000F5504000230C4A61
:103D0000C0F8B031C0F8B421C0F8B831704700F540
:103D10005040084BC0F8B031074BC0F8B431002315
:103D2000F2E7002300F55040C0F8B031004BE0E767
:103D30003333333F6666663F9A99193F10B50446A0
:103D4000104802F013FDD4F8DC11CB0716D5023170
:103D50004B4201F0070103F0070358BF59422046C8
:103D6000C4F8DC11FFF7A2FE2046FFF7DDFA20467B
:103D7000FFF7ACFF012384F8E43110BD81F00101AD
:103D8000EDE700BF4205022437B500F500430021EE
:103D900000F50045044683F8441048350191D0E908
:103DA0000E325343C26A5343DB08836224334360B9
:103DB0002846FEF73AFA01AB2C2221462846FEF7A8
:103DC00018F92846FEF724FA03B030BD10B50446B2
:103DD00000F59E40083004F55044FFF7D5FF00235E
:103DE00084F8843110BD000070B5054605F55044D7
:103DF0002DED028B05F05AFFD4F898310646C31A10
:103E0000312B40F28580E86990F8B43043B190F8E6
:103E1000BA307F2B02BF0023C4F8986184F89C312C
:103E200090F8BA30FF2B11D1B030FEF7F7FFDFED7D
:103E3000567AB4EEE70AF1EE10FA07DD94F89C31F9
:103E400023B90123C4F8986184F89C31EB6993F895
:103E5000B42072B193F8BA30802B0AD194F89C3117
:103E600013B92846FFF70CFF0023C4F8986184F8C3
:103E70009C31E86990F8C43043B190F8CA307F2B88
:103E800002BF0023C4F8986184F89D3190F8CA30CD
:103E9000FF2B11D1C030FEF7C1FFDFED3B7AB4EE4E
:103EA000E70AF1EE10FA07DD94F89D3123B90123FA
:103EB000C4F8986184F89D31EB6993F8C42072B11D
:103EC00093F8CA30802B0AD194F89D3113B9284653
:103ED000FFF734FF0023C4F8986184F89D31E86946
:103EE00090F8BA30FF2B16D190F8CA30FF2B12D1C0
:103EF000B030FEF793FFE869B0EE408AC030FEF7BD
:103F00008DFFDFED217AB4EEE78AF1EE10FA06DCE0
:103F1000BDEC028B70BD002384F89E31F8E7B4EE4F
:103F2000E70AF1EE10FAF3DD94F89E31002BEFD1A1
:103F300094F8843173B90123144884F8843102F071
:103F400015FC2846FFF718FC0123C4F8986184F893
:103F50009E31DDE705F580430D48D3F8342F03F695
:103F6000087307EE902AD3ED0D6AF8EE677A87EEB4
:103F7000A67AB7EEC77A53EC172B02F0F7FB284668
:103F8000FFF724FFE0E700BF00007A445205022457
:103F90006505022410B50446C06900F079FEE069A9
:103FA0004830FEF73BFFDFED1E7AB4EEE70AF1EE94
:103FB00010FA26DD2046FEF798FFD4F8D431022B04
:103FC00002D12046FFF710FFE36993F8442022B1A5
:103FD000596E11B12046FEF7D1FFD4E9751399420D
:103FE0001CD02046FFF746FD0E4802F0BFFB2046DE
:103FF000D4F8D811FFF73EFD2046BDE81040FFF78A
:10400000D1BDE36993F84C20002AD6D093F8523002
:10401000802BD2D12046FEF755FFCEE710BD00BF62
:1040200000007A4483050224044607B5244802F0C0
:104030009DFB04F5504696F88431CBB304F540431C
:1040400004F59E45D3F8481F0835B1B193F84C2FBD
:104050009AB10022012905F500400CBF11464FF42A
:104060008051C3F8482F48301031019201AB4FF412
:10407000804205EB8101FDF7BCFF04F58043D3F8D6
:10408000342F03F6087307EE902AD3ED0D6AF8EE8D
:10409000677A87EEA67ADFED0B7AB4EEE77AF1EE77
:1040A00010FA05DD2846FFF76FFE002386F88431FD
:1040B0002046FFF76FFF2046FFF74AFCB9E700BF35
:1040C000940502240000F042F7EE006ADFED067A64
:1040D0000123C0ED017A86EEA77AC3600023037442
:1040E00080ED027A704700BF0000000007EE902AC2
:1040F0000D4BBDEEC11A80ED080AF8EE677A1B6819
:10410000C0ED050A8B4280ED031A80EE277A98BF36
:10411000C91A01230370002343600023C0E906127B
:10412000037480ED027A70477C670424000000006D
:104130009FED097BB7EEC00A08B520EE070B16F01D
:10414000EBFEB7EE007B37EE400BB6EE007B20EEC9
:10415000070BB7EEC00B08BD182D4454FB211940C6
:1041600010B5037804462DED088B86B0F0EE409A2A
:10417000B0EE609AB0EE41AA8DED020ACDED030AD1
:1041800053B90023049305939DED040ADDED050A60
:1041900006B0BDEC088B10BD037C13B10023237067
:1041A000EFE7C368B7EE00BAD0ED017A07EE103A38
:1041B000D0ED026AB8EEC77AE6EE877AF4EECB7AF3
:1041C000B0EE670AF1EE10FA5BDD012B59D19FEDDD
:1041D000330A0374237C84ED010A002BDED1D4ED75
:1041E000077A204694ED087AF8EE677AA36967EEBD
:1041F000807A67EE877AFCEEE77A17EE902ADFED99
:10420000287A1A441346274A1268511E99429CBFC5
:10421000B3FBF2F102FB1133234A126832F9132087
:1042200008EE902A214A1268F8EEE88A32F9133033
:1042300068EEA78A08EE103AB8EEC88A28EE278AF8
:10424000FFF776FFF0EE40AA94ED050A3BEE400A38
:1042500016F0C4FFB0EE40BA94ED050A16F0BEFFAA
:1042600068EEAA7A28EE2A8A67EE8B8A28EE008A00
:10427000E8EE8A9AA8EE0A9ACDED049A8DED059A99
:1042800082E7B5EEC00AF1EE10FAA3D5013302BF02
:104290000123B7EE000A23749CE700BF0000000072
:1042A000000000387C6704248467042480670424A9
:1042B00010B52DED028BB7EE008A0446B4EEC80AA5
:1042C000F1EE10FA71DDDFED3B7AB4EEE70AF1EEC4
:1042D00010FA6CDCFDEEC07A17EE903A07EE903AD9
:1042E000DFED358A2363B8EEE70AC4ED028AF0EE0B
:1042F000007A88EE007AC4ED007AC7EE806AD4EDC9
:10430000087A78EE677A87EE280A84ED0E7AC4ED93
:104310000D6AFEEE006A67EEA67AC4ED097AB1EE88
:10432000400A16F039FE94ED0D7AD4ED027A84ED50
:104330000A0A87EE270AB1EE400A16F02DFE94ED28
:10434000007A84ED080AC8EE077AC4ED038A77EE96
:10435000C87A38EE408A27EE888AD4ED0E7A87EE46
:10436000A80A84ED098AB1EE400A16F015FEFAEEAD
:10437000087AD4ED006A0123C4ED078A87EEA67A95
:10438000C4ED017AC4ED068A84ED0B0A84F83C3052
:10439000BDEC028B77EEC77AB6EE007AF0EEE77AE4
:1043A00067EE877AC4ED047A10BD012396E7034BCC
:1043B00094E700BF00803B48CDCCCC3D00EE02002E
:1043C00010B52DED048BF0EE408AD0ED066AB0EE0C
:1043D000C00A82B0F7EE007A0446D0ED089AF4EEF7
:1043E000C06A90ED079A90ED098AF1EE10FACCBF01
:1043F00090ED0B7A90ED0A7A77EEC77A67EE807AC5
:10440000E6EE877AC0ED067AB0EEE70A01A816F06C
:1044100035FE9FED207ADFED207ADFED206AE0EEB9
:10442000077A9FED1F7AE0EE276AF0EE477A9DED5E
:10443000017AB8EEC77AE0EE267A94ED040AF3EE3C
:10444000046A37EE277ADFED177A27EE277AD4ED64
:10445000017AD7EE267A9FED147AC7FE877A68EE46
:10446000277AE9EE897AC4ED077A77EE807A9FEDB4
:104470000F0A67EE807A9FED0E0A27EE800A16F08B
:104480008BFD84ED050A28EE800A02B0BDEC048B9A
:1044900010BD00BFA8A19D3FF5CA83C0FBB3C040BB
:1044A000E09248C09B209A3E00000000CDCC4C3DDD
:1044B0008E5D1340B5EEC00A08B5F1EE10FA2DED91
:1044C000028B4ABF4FF0FF330123B1EE400A07EEE3
:1044D000903AB8EEE78AF1EE007AB4EEE70AF1EE30
:1044E00010FA08DAF6EE007AB4EEE70AF1EE10FA06
:1044F00006D528EE008AB0EE480ABDEC028B08BD56
:1045000016F010FEF5E7000000230A4A80ED0E0ABF
:1045100003604260C360084A43620361836243618F
:10452000C3628361C36103620363044B82604363BC
:10453000704700BFCDCCCC3E00007A44000080BF65
:104540002DE9F0412DED068BD0ED018AB0EE409AB9
:1045500090ED027A84B0F5EEC08AD0ED0C7A044674
:10456000DFED5C9AF1EE10FAF4EE477A48BFDFED2A
:104570005A8AF1EE10FA07D1D0ED0D7AF4EE687A8E
:10458000F1EE10FA00F09380D4ED0E6AB6EE000A58
:1045900084ED0C7AC7EE267A9FED507A9FED506A33
:1045A0009FED508A67EEA76A27EE888A66EEA65AC4
:1045B00026EE877AA5EE867A9FED4B6AA7EEC67A3D
:1045C0009FED4A6A67EE807A9FED490AA6EE868AD9
:1045D000DFED486A67EE807A9FED470A37EE000A02
:1045E00038EE268A20EE670A16F0D6FCF7EE007A3F
:1045F000C4ED0D8A84ED0F8A37EEC00A80EE29AA39
:1046000084ED10AAF1EE007A4FF0020868EEA78A56
:1046100028EE888AD4ED087A20466F4604F110050A
:10462000A7EEC89A012629EE290AFFF743FFD4ED29
:10463000097A30EE670AD4ED037AE0EE0A7ACDED1E
:10464000007AC4ED037AB7EC019A2046F5EC01AA92
:1046500029EE290AFFF72EFF032EF0EE408A85EDA2
:10466000040A2ED095ED050A78EEC08A0136F0EEE8
:104670006A7A042EE8EE8A7AC7ED007A45ED017A6F
:10468000E1D1DDED037AB6EE007A94ED070AB8F1D8
:10469000010FC4ED077A37EE800A20EE070A84ED99
:1046A000080A0BD104B0BDEC068BBDE8F081F0EE3A
:1046B000678A90ED0F8A90ED10AAA3E74FF00108EA
:1046C000A8E715ED010A204620EE290AFFF7F2FEC1
:1046D000CAE700BF17B7D137000000002DB2FD3E7A
:1046E00077BEEF3F9CA2EB3FDD24263FFAED7BC077
:1046F000DB0FC940492E7F3F5BB17F3F8B69B6EE30
:10470000005BD0ED054A002B9FED354AB8BF03F59D
:10471000803310B5B8BF8B6143F609548B6963438E
:1047200001339CB21B042F4B48BFA4F580348C612D
:10473000140103EB0212D2ED027A84EEA76AD1EDE6
:10474000007AB7EEC66A36EE056BBDEEC66BF8EEC4
:10475000E76AD1ED037AB8EEE77AD1ED027A81ED1E
:10476000076AF8EEE77AE7EE047A76EEE77AF5EE96
:10477000C07AF1EE10FA06D591ED017AB8EEC77A5B
:1047800077EE877AF3E787EEA47AD1ED067A2344B1
:1047900090ED034AD3ED016AF8EEE77AB8EEC66A07
:1047A00067EEA67ADFED106A67EEA67AD3ED006AAF
:1047B000E4EE276A77EE667AB7EE007AC7EE866A8D
:1047C000DFED0A7AA4EEA67A27EE277AB7EEC77A4B
:1047D00037EE057BBDEEC77B81ED047A10BD00BFCF
:1047E00000008031A4050224000000380000804D44
:1047F000334BB7EE026B90ED054A03EB0213D3ED9A
:10480000004AD3ED013AB7EEE47AB7EEE35A70B559
:10481000A5EE067B00250C464D610D60B6EE005BF3
:104820009FED256BB7EEC77B27EE047AB7EEC77A0C
:1048300037EE067B93ED036AB7EEC66ABDEEC77B23
:10484000DFED207A36EE056B81ED017AB8EEC77A9E
:10485000BDEEC66B81ED066AB8EEC66A26EE236A27
:1048600026EE276AD0ED037AE7EE864AA4EE647A54
:10487000FDEEC77AC1ED027AF8EEE77A37EE677A95
:10488000DFED117A27EE277AB7EEC77A37EE057B90
:10489000BDEEC77B81ED037AFFF730FF0021606832
:1048A0002B462162984205DD626A02EB83020133E6
:1048B0001160F7E7002070BD00000000008030406C
:1048C000A4050224000000380000804D0000000014
:1048D000294B4FF07E522DE9F04103600025274B14
:1048E000044600F12408264F436000232E4680ED45
:1048F000020A0361C361012380ED050AC26082617F
:10490000036204F5B27332464146204603EB850349
:104910000136C8F82430FFF76BFF97ED016A97ED79
:10492000007AB7EE025BB7EEC66A082EB7EEC77A1A
:10493000A6EE057B9FED0E6BB7EEC77B27EE007AE8
:10494000B7EEC77A37EE067BBDEEC77B17EE103A9F
:1049500005EB830502D10020BDE8F081094B08F189
:10496000280810379D42CCDD0120F5E7AFF3008029
:104970000000000000803040EC51783F00401C46B1
:10498000A4050224788201002DE9F0411D46036A46
:1049900006460F46002B90462DED028B40F3048116
:1049A00090ED010AD0ED077AB4EE670AF1EE10FA45
:1049B00040F0BC8090ED060A344606F5A0723346FE
:1049C000DFED7D7A93ED117A28339A4277EE877A7C
:1049D000F8D1B5EE007A97ED002AD8ED002A00272D
:1049E000DFED753AE7EE872AA7EE872AB0EE633A45
:1049F00017F0010094ED117A616AA26C42FE227AEE
:104A000077EEC77AA36A02EB8102C2ED007A626A8E
:104A100001329A42A8BFD21A6262226BB2F1805F61
:104A200006DBE16A01EB227122F07042E16222634F
:104A3000E26AFFEE006AB7EE006A9A42B6EE005AEA
:104A4000B0EE667AA4BFD21AE262A26CD4E90B1C63
:104A50009FED574B05EE90CA0029FAEEC25AA5EE1B
:104A6000A57A35EE866AE6EE056AB7EEC77A27EED6
:104A7000047BB7EEC77BF0EE087A67EE277AF0EE9C
:104A8000671A77EEE57AD6EE051A36EEC76A68DD64
:104A9000A3F1020E8E4564DD01F18041013902EB84
:104AA000810191ED004AD1ED016AD1ED024A91ED0B
:104AB000035A66EEA77A636B6344E4EE067A2363D7
:104AC000E4EEA17AE5EE077A96ED007AE7EEA56AC4
:104AD000D4ED117AE7EE667A67EE807AE7EE267A11
:104AE000C4ED117A00285CD073EEA73A236C013B29
:104AF000002B236405DC3A4604F124013046FFF71D
:104B0000FDFD01372834082F7FF472AFDFED2B7ADB
:104B10000020089B23EE273A63EEA73A85ED003A82
:104B2000C3ED003ABDEC028BBDE8F081DFED247AE5
:104B300080ED070A20EE270AD0ED057A80EE270ADD
:104B400016F0CEF8F0EE007A37EEC08ABFEE000A1B
:104B5000A8EE080A16F042FB38EE400A86ED060A77
:104B60002AE7013948BFC91802EB810E01318B4297
:104B70009EED004AD8BFC91A02EB810E01318B426B
:104B8000DEED006AD8BFC91A02EB810E01318B42FB
:104B9000DEED004AD8BFC91A02EB810191ED005A3F
:104BA00087E733EE273AA1E70120BBE7AFF30080A8
:104BB000555555555555C53F000000003333B33E9C
:104BC000DB0FC940F0B585B01E4604460F4603AB67
:104BD0001546009302ABFFF7D7FE04F5C120F7EEB0
:104BE000007A97ED006AD0EDD16A0A9B37EEE67A3B
:104BF00027EE067A9DED026AA6EE867A86ED007AA9
:104C000090EDD17AD5ED006A77EEC77A67EEA67A95
:104C1000DDED036AE7EE267AC3ED007A05B0F0BD5C
:104C200000F07CB900F07EB938B5044600F09EF97A
:104C3000D4F8A850204600F0BBF9284601F082FCC9
:104C4000D4F8AC50204600F0B3F92846BDE838400F
:104C500001F078BC00F0A6B938B5044600F066F95A
:104C6000D4F8A850204600F0A3F9284601F06AFCC9
:104C7000D4F8AC50204600F09BF92846BDE83840F7
:104C800001F060BC00F06EB9183002F029B900BF25
:104C900010B50446403001F0B1FC04F1B00001F061
:104CA0002BFE04F1C000BDE8104001F025BE00BF9E
:104CB00010B50446D83001F0F7FD04F59670BDE854
:104CC000104001F0F1BD00BFF0B54FF481718FB01D
:104CD00000F1D80701254FF4C0624FF4E063ADF84E
:104CE000081000F5967402993846ADF80C2008AE0D
:104CF000ADF810300095DDE9032301F095FD40F299
:104D000001134FF480722046ADF814304FF48063E5
:104D1000059900950BADADF81820ADF81C30DDE914
:104D2000062301F081FD3046072105F077FE96E865
:104D3000070085E807002946384601F09FFD96E800
:104D4000070085E807002946204601F097FD384610
:104D500001F0AAFD20460FB0BDE8F04001F0A4BD6F
:104D60002DE9F04140F2024304460222002504F1FD
:104D7000180704F1A8062DED028B8EB09FED1B8A5B
:104D8000ADF80C3005A8039901F088FE02220DF160
:104D90002600ADF81020049901F080FE04230222C1
:104DA00005A9384601F08EFE04F1680204F188037B
:104DB000C4E92A232946384656F8048B02F0A6F89F
:104DC00001462046019100F0F3F80023F0EE480A76
:104DD000019940461A4601F05FFB25B10EB0BDECCB
:104DE000028BBDE8F0810125E4E700BF6F12033BB1
:104DF0002DE9F04104469AB00027019100F08CF8AB
:104E00000199204600F094F940F6061304F1B0062B
:104E10009FED400AADF8143004F1C0053046059905
:104E200001F050FD4FF4007328469FED3A0AADF8AB
:104E3000183004F5C878069901F044FD40F60332B5
:104E400040F201639FED330AADF8082004F1400001
:104E50000299ADF80C70C4F8D0600FAEC4F8D4500D
:104E600007ADADF81030DDE9032301F097FB2046D4
:104E7000FFF72AFF2046FFF773FF284601F0BAFC30
:104E800001230DF12C0E04F5C07C1593189347F601
:104E90001223169719930223179395E80F008CE8B5
:104EA0000F008EE80F0086E80F00BDF84030149028
:104EB000ADF84E30BDF84230D4E9625EADF84C300A
:104EC000C4E9655EBEF1000F04D07246394628463B
:104ED00018F00EF813A9404604F048FC04F5D2700F
:104EE00001F09CFC3021204600F040F8D4F8A85096
:104EF000204600F05DF8284601F024FBD4F8AC50C1
:104F0000204600F055F828461AB0BDE8F04101F0FF
:104F100019BB00BF00000000704700BF143001F053
:104F200077BA00BF143001F095BA00BF38B500F170
:104F3000140504462DED028B284601F025FA28467B
:104F400001F01EFA2846B0EE408A01F007FAD0EDD3
:104F5000007AF8EE677A88EE277ABDEC028B84ED52
:104F60000E7A38BD143001F00BBA00BF38B500F12D
:104F7000140504462DED028B284601F0F3F928466E
:104F800001F0FEF92846B0EE408A01F0E7F9D0EDD5
:104F9000007AF8EE677A88EE277ABDEC028B84ED12
:104FA0000E7A38BD08B5143001F0D8F9006808BD94
:104FB00090ED0E0A704700BF10B540F203338EB07B
:104FC00000244FF60B7240F20341ADF8083009A8F7
:104FD0000123ADF81020ADF824202246ADF80C10C6
:104FE0000094029907940C94CDE90544CDE90A4454
:104FF00002F08EF804A8012322460399009402F0DF
:1050000087F809A802F06AF910B901200EB010BDA6
:1050100004A802F063F9A0420CBF022020460EB0A3
:1050200010BD00BF2DE9F04103239AB001270024F1
:105030000646CDE914373B4BCDE9104340F204530B
:10504000CDE91647ADF84830FFF7B6FFB842054640
:1050500025D0022845D040F60132334B0DF12C0803
:105060001894ADF82C200B981997CDF84A3000F021
:10507000E3F810A906F13C0003F07AF9302003228E
:105080004FF07E5341460D930E93CDE90B02F26B28
:1050900006F1140001F02AF91AB0BDE8F0811023DE
:1050A000214A06A906908DF828300DF12C081F4BD7
:1050B000CDF84A2007930294CDE91804CDE90804FD
:1050C00002A802F08BFB0823029A03A94046ADF820
:1050D0000C508DF80E40049505930B9400F0ECF8FD
:1050E000C7E700200121104B0DF12C083A4600942F
:1050F000CDF84A304FF60B730C94ADF82C302346A4
:10510000CDE9180140F601314046ADF81810069976
:10511000CDE90D4401F0FCFF2146404602F0EAF8DB
:10512000A7E700BF04020404040604030704010BFC
:105130002DE9F04704462DED028B82B000294DD0B9
:10514000012140F2011200230091ADF804208DF8F6
:105150000630364A0127364B04F10409354904F17B
:105160002908626040F20272A36040F60663E160C3
:1051700004F1250AA4F82520A4F82930278284F810
:10518000277084F82B7004F035FF054604F092FD7B
:105190006946064650BB4DB304F130008DF80670E9
:1051A00004F0AAFE072D3CD104F114052046FFF7B8
:1051B00039FF284601F0E4F82846B0EE408A01F0B5
:1051C000CDF8D0ED007AF8EE677A88EE277A84ED94
:1051D0000E7A02B0BDEC028BBDE8F08740F20113FD
:1051E00000918DF80610ADF80430B2E704F13000FC
:1051F00004F082FE072D11D04946204602F038FD0A
:105200000EB9002DD0D1504602F07EF8404602F093
:105210007BF804F1120000F079F9C5E7002EF2D115
:10522000C2E74946204602F023FDBDE7050805090F
:1052300005070506050A060610B584B003460124D5
:10524000ADF8040003A8ADF80C30ADF80E4002F044
:105250005BF8214603A802F041F9204604F028FD3E
:10526000002103A802F03AF9204604F021FD21466E
:1052700003A802F033F904B010BD00BF10B5C2F3AB
:10528000002384B00C46017C8DF80D2043EA4402D3
:10529000FA2402238DF80C2003AA009402F034FBB8
:1052A00018B10124204604B010BD04460A2004F0C1
:1052B000FFFC204604B010BD034670B543F8042B34
:1052C000044684B007C983E80700A37983B91A218B
:1052D0000B461E22FA2523742046ADF80C2002232B
:1052E00003AA009502F010FB28B1012004B070BDA4
:1052F0001B210B46EDE70A2004F0DAFC4FF4B8520C
:1053000000950223ADF80C20204603AA217C02F070
:10531000FBFA0028E9D10A2004F0CAFC41F202722B
:1053200000950223ADF80C20204603AA217C02F050
:10533000EBFA0028D9D10A2004F0BAFC0422009527
:105340000223ADF80C20204603AA217C02F0DCFAEF
:105350000028CAD10A2004F0ABFC062200950223E3
:10536000ADF80C20204603AA217C02F0CDFA0028DB
:10537000BBD10A2004F09CFC41F2082200950223D4
:10538000ADF80C20204603AA217C02F0BDFA0028CB
:10539000ABD10A20064604F08BFC0095022303AA39
:1053A000217C2046ADF80C6002F0AEFA00289CD1BA
:1053B000304604F07DFC009522790C232046002A1B
:1053C0008DF80C3003AA4FF0020314BF6221422172
:1053D0008DF80D10217C02F097FA002885D1304617
:1053E00004F066FC2279D4E902310B43DBB20AB93E
:1053F00043F0400362790AB143F020030E22FA25FC
:105400008DF80D302046009502238DF80C2003AA5C
:10541000217C02F079FA00287FF467AF0A2004F0BB
:1054200047FC102200950223ADF80C20204603AA69
:10543000217C02F069FA00287FF457AF0A2004F0BB
:1054400037FC122100950223ADF80C1003AA217C31
:10545000204602F059FA00287FF447AF0A2004F0F2
:1054600027FC012209212046FFF708FF003818BF5A
:1054700001203BE7F0B5102387B0234C0122002523
:105480000126002702A920460195CDE902234FF409
:105490008052CDE904670DF0EDFB642005F07AFE43
:1054A00002A94FF480522046CDE904670226102756
:1054B000CDE902670DF0DEFB0322102302A920468E
:1054C000CDE9022300230422CDE904234FF48052C6
:1054D0000DF0D0FB40F23223042202A901931023E5
:1054E0002046CDE90223019A012305924FF4805210
:1054F00004930DF0BFFB40F6060120460DF0DAFBE9
:10550000284607B0F0BD00BF906704241C4B002262
:105510001C494FF0400C30B5054689B00220596057
:1055200007219A601A620124DA620A224FF4006E9F
:10553000DC6006922022CDE9000104200821CDE99B
:10554000020103201021CDE9040108206946C3E9C6
:1055500004024FF4C072181DC3E906C24FF4805212
:10556000C3E909E20DF05CFB38B92846FFF782FF7A
:10557000003818BF012009B030BD204609B030BD49
:105580008C67042440410052614A0021D0B5136861
:105590008EB00A91002B40F0B9805E4B01214FF68E
:1055A00083700C2411600221D3F8D4200026032735
:1055B00042F48052C3F8D420D3F8D42002F48052AD
:1055C0000092009AD3F8E02042F01002C3F8E020E5
:1055D000D3F8E02002F010020192019AD3F8E02003
:1055E00042F04002C3F8E020D3F8E02002F040028D
:1055F0000292029AD3F8E02042F00802C3F8E020B9
:10560000D3F8E02002F008020392039AD3F8E020D6
:1056100042F48072C3F8E020D3F8E02002F48072F4
:105620000492049AD3F8E02042F08002C3F8E0200C
:10563000D3F8E02002F080020592059AD3F8E0202A
:1056400042F02002C3F8E020D3F8E02002F020026C
:105650000692069AD3F8E02042F00402C3F8E02054
:10566000D3F8E0300C9403F0040307930323079A64
:105670000B93CDE9080108A9274807F01FFD48F260
:105680003712022308A925480C94CDE90823CDE957
:105690000A6707F013FD4CF20372022308A92048A1
:1056A0000C94CDE90823CDE90A6707F007FD40F225
:1056B000FF62022308A91B480C94CDE90823CDE919
:1056C0000A6707F0FBFC4FF60C72022308A9164884
:1056D0000C94CDE90823CDE90A6707F0EFFC4FF6FB
:1056E0003F02022308A911480C94CDE90823CDE913
:1056F0000A6707F0E3FC2022022308A90A480C9459
:10570000CDE90A67CDE9082307F0D8FC0EB0D0BD7B
:1057100088670424004402580010025800180258F8
:10572000000C025800200258001C025800140258B5
:105730002DE9F04FDFF8108406460D46144608F1B7
:1057400018002DED028B89B000AF02F009FFD8F8E8
:10575000183073B3D8F81C30D8F80490002B436984
:105760000BBF4FF0080A4FF0100A4FF0020B4FF03A
:10577000040BB9F1000F2AD0A200EA46012B02F176
:10578000070222F00702ADEB020D6846ADEB020DF9
:10579000694600F03F81022B00F0D680002B6FD0CD
:1057A0002246C847D5462437BD46BDEC028BBDE82E
:1057B000F08FD8F81C30002BF5D0D8F804904FF0BB
:1057C000080A4FF0020B4369B9F1000FD4D1FB6115
:1057D000D8F80030BB61002BE5D0D54802F03EFF81
:1057E0006B46BBF1020F786108EE103AFB6900F0DE
:1057F00083816A465146A2EBC40295466200EA469E
:10580000B2FBFBF2AAEBC40085460AEB8200EE462F
:10581000F861ADEB010DF8690EEB820CC7F810C012
:10582000EC46ADEB010D00EB8201CCF80400CCF8A6
:10583000081001EB82013869E946CCF80C1000EB46
:105840008201CCF800A001EB8202C9E900E0C9E9BD
:105850000212012B00F06483022B00F06C82002BFB
:1058600000F08081620849466046BB69984718EE9F
:10587000103A24379D46BD46BDEC028BBDE8F08F43
:10588000002C8DD01A46D8ED0C6A9FEDB27A844672
:10589000331D36F922E00CF1080C07EE90EA33F9DB
:1058A00022E00232F8EEE77A944267EE877A67EEFA
:1058B000A67A4CED027A07EE90EAF8EEE77A67EE08
:1058C000877A67EEA67A4CED017AE2D8F961224632
:1058D000C847984ED8ED0D6A0020F9692B1D9FED41
:1058E0009E7A9FED9E6ADFED9E5A22E0F4EEC67A24
:1058F000F1EE10FAC0F2C88447F6FE72D1ED017ADB
:1059000045F8202066EEA77AF4EEC77AF1EE10FA99
:1059100040F2F080F4EEC67AF1EE10FAC0F2D584CF
:1059200047F6FE7243F820200230083184427FF6A9
:1059300039AFD1ED007A66EEA77AF4EEC77AF1EED0
:1059400010FAD3D83246D9E7002C3FF429AFD8ED6E
:105950000C6A84469FED787A0022331D8E4656F8F5
:1059600022100CF1080C07EE901A53F822100232A4
:10597000F8EEE77A944267EE877A67EEA67A4CED06
:10598000027A07EE901AF8EEE77A67EE877A67EE0A
:10599000A67A4CED017AE2D871462246C7F81CE09F
:1059A000C847664ED8ED0D6A0020F9692B1D9FEDA2
:1059B0006A7A9FED6A6ADFF894C120E0F4EEC67A55
:1059C000F1EE10FAC0F279843246D1ED017A45F851
:1059D000202066EEA77AF4EEC77AF1EE10FA40F2D4
:1059E0008780F4EEC67AF1EE10FAC0F25E84324699
:1059F00043F820200230083184427FF6D3AED1ED47
:105A0000007A66EEA77AF4EEC77AF1EE10FAD5D8EE
:105A10006246DAE7002C3FF4C3AED8ED0C6A864646
:105A20009FED477A4FF0000C331D56F82C200EF1F5
:105A3000080E82F40002A2F5000207EE902A53F845
:105A40002C200CF1020CF8EEE77A82F40002644597
:105A5000A2F5000267EE877A67EEA67A4EED027A2B
:105A600007EE902AF8EEE77A67EE877A67EEA67A75
:105A70004EED017AD9D8F9612246C847314ED8EDAA
:105A80000D6A0020F9692B1D9FED337A9FED336A73
:105A9000DFF8BCC01FE0F4EEC67AF1EE10FAC0F2F7
:105AA000FC833246D1ED017A45F8202066EEA77AD4
:105AB000F4EEC77AF1EE10FA18D9F4EEC67AF1EEE8
:105AC00010FAC0F2DA83324643F82020023008315F
:105AD00084427FF667AED1ED007A66EEA77AF4EEE7
