:020000040800F2
:10000000000002209906000895060008A58A00084D
:1000100095060008950600089506000800000000F7
:10002000000000000000000000000000950600082D
:10003000950600080000000095060008298A0008BF
:100040009506000895060008950600089506000824
:100050009506000895060008950600089506000814
:10006000950600089506000895060008C974000862
:10007000D57400082D620008E1740008ED740008D2
:10008000A5840008F969000895060008950600088F
:1000900095060008950600089506000895060008D4
:1000A00095060008950600089506000895060008C4
:1000B000DD840108E9840108F58401082D6A00083F
:1000C00095060008396A0008950600084D7D01086C
:1000D000597D0108D982000805830008398300088A
:1000E0009506000895060008000000009506000827
:1000F0009506000895060008950600089506000874
:1001000095060008217A000801850108657D01082F
:100110006D830008A1830008950600089506000875
:100120009506000895060008897D0108BD7D010837
:10013000D984000895060008950600089506000871
:1001400000000000000000000000000000000000AF
:10015000950600089506000895060008D583000856
:10016000456A000895060008398A00085D8A00087B
:1001700095060008818A0008950600089506000883
:100180009506000895060008098400083D840008CB
:10019000717D01087D7D010895060008950600081F
:1001A00095060008950600089506000895060008C3
:1001B000E9710008950600089506000895060008F4
:1001C0009506000895060008ED5C0008F95C00083B
:1001D00095060008055D00089506000895060008CC
:1001E0009506000895060008950600089506000883
:1001F0009506000895060008950600089506000873
:100200009506000895060008950600089506000862
:100210009506000895060008950600089506000852
:1002200095060008950600089506000800000000E5
:1002300095060008950600080000000095060008D5
:100240009506000895060008950600089506000822
:100250009506000895060008950600089506000812
:100260009506000895060008950600089506000802
:10027000950600089506000871840008000000003B
:100280009506000895060008950600080000000085
:080290000000000095060008C3
:1002A00010B5054C237833B9044B13B10448AFF3B0
:1002B00000800123237010BD980700240000000077
:1002C000D8EB010808B5034B1BB103490348AFF352
:1002D000008008BD000000009C070024D8EB010846
:1002E000034613F8012B002AFBD1181A0138704776
:1002F00001F0FF01102A2BDB10F0070F08D010F8D7
:10030000013B013A8B422DD010F0070F42B3F6D1DA
:10031000F0B441EA012141EA014122F007047FF0F3
:1003200000070023F0E80256083C85EA010586EA4A
:10033000010685FA47F5A3FA87F586FA47F6A5FA86
:1003400087F68EB9EED1F0BC01F0FF0102F0070292
:1003500032B110F8013B013A83EA010313B1F8D13D
:100360000020704701387047002D06BF354603381E
:10037000073815F0010F07D1013015F4807F02BF57
:10038000013015F4C03F0130F0BC0138704700BFA8
:1003900053B94AB9002908BF00281CBF4FF0FF31EC
:1003A0004FF0FF3000F074B9ADF1080C6DE904CEE8
:1003B00000F006F8DDF804E0DDE9022304B0704740
:1003C0002DE9F047089D04468E46002B4DD18A4208
:1003D000944669D9B2FA82F252B101FA02F3C2F13B
:1003E000200120FA01F10CFA02FC41EA030E9440CC
:1003F0004FEA1C48210CBEFBF8F61FFA8CF708FBED
:1004000016E341EA034306FB07F199420AD91CEBC4
:10041000030306F1FF3080F01F81994240F21C81F6
:10042000023E63445B1AA4B2B3FBF8F008FB10333E
:1004300044EA034400FB07F7A7420AD91CEB040473
:1004400000F1FF3380F00A81A74240F20781644443
:10045000023840EA0640E41B00261DB1D4400023C8
:10046000C5E900433146BDE8F0878B4209D9002D2C
:1004700000F0EF800026C5E9000130463146BDE8B6
:10048000F087B3FA83F6002E4AD18B4202D3824220
:1004900000F2F980841A61EB030301209E46002DCF
:1004A000E0D0C5E9004EDDE702B9FFDEB2FA82F224
:1004B000002A40F09280A1EB0C014FEA1C471FFA82
:1004C0008CFE0126200CB1FBF7F307FB131140EA69
:1004D00001410EFB03F0884208D91CEB010103F136
:1004E000FF3802D2884200F2CB804346091AA4B2F8
:1004F000B1FBF7F007FB101144EA01440EFB00FECC
:10050000A64508D91CEB040400F1FF3102D2A64530
:1005100000F2BB800846A4EB0E0440EA03409CE7CF
:10052000C6F12007B34022FA07FC4CEA030C20FA7C
:1005300007F401FA06F31C43F9404FEA1C4900FA9C
:1005400006F3B1FBF9F8200C1FFA8CFE09FB181119
:1005500040EA014108FB0EF0884202FA06F20BD98C
:100560001CEB010108F1FF3A80F08880884240F2DC
:100570008580A8F102086144091AA4B2B1FBF9F020
:1005800009FB101144EA014100FB0EFE8E4508D91B
:100590001CEB010100F1FF346CD28E456AD90238A0
:1005A000614440EA0840A0FB0294A1EB0E01A14285
:1005B000C846A64656D353D05DB1B3EB080261EBF3
:1005C0000E0101FA07F722FA06F3F1401F43C5E9CD
:1005D000007100263146BDE8F087C2F12003D84003
:1005E0000CFA02FC21FA03F3914001434FEA1C4745
:1005F0001FFA8CFEB3FBF7F007FB10360B0C43EA37
:10060000064300FB0EF69E4204FA02F408D91CEBE6
:10061000030300F1FF382FD29E422DD902386344E4
:100620009B1B89B2B3FBF7F607FB163341EA034184
:1006300006FB0EF38B4208D91CEB010106F1FF38D3
:1006400016D28B4214D9023E6144C91A46EA0046CA
:1006500038E72E46284605E70646E3E61846F8E65C
:100660004B45A9D2B9EB020864EB0C0E0138A3E7A5
:100670004646EAE7204694E74046D1E7D0467BE786
:10068000023B614432E7304609E76444023842E7FE
:10069000704700BFFEE700BF0B480C4A904203D0F2
:1006A000121A0B491AF06AFA0A480B4A904203D010
:1006B000121A00211AF070FA08F04CFC1AF02AFA0B
:1006C00002F0EAFEFEE700BF0000002498070024C5
:1006D00010EC01089807002478130124034B03EB66
:1006E000800203445268187B53681847C4090024E9
:1006F000074B1A5C52B903EB800219184FF0010C3A
:10070000526803F800C0087B136818470020704740
:10071000C409002430B4054C04EB800504446D6822
:10072000207BAC68A44630BC604700BFC4090024ED
:1007300030B4054C04EB800504446D68207BEC6804
:10074000A44630BC604700BFC4090024044B03EB3F
:10075000000C03EB80035B689CF80C001B691847D6
:10076000C409002410B404689CB121788446224650
:100770003A2913D01F2911D912F8013F1F2B0ED986
:100780003A2BF9D10134A1F13000A24201D1012864
:100790000CD94FF0FF305DF8044B70470B463A2BF5
:1007A000F0D0044B18785DF8044B70470132CCF858
:1007B0000020F8E7B407002438B50D4640B10368BF
:1007C00004462BB11A781AB18088DA88904203D097
:1007D000092000232B6038BD5878FFF77FFF10F009
:1007E0000100F5D12368F5E72DE9F0410026D0F8A6
:1007F00000808E758369002B5AD0C36A07460D4668
:1008000001331ED0D8F80C301888002861D001F1CF
:100810001506012400E01C46002101F0D5FF631CF1
:10082000002856D0B4F5807F53D006F8010FD8F8D1
:100830000C2032F814000028EDD12C440023A375BD
:10084000AE7DD7F81CC000204FF02E080CF1FF3110
:10085000024611F8013F0132202B18D0052B08BFAA
:10086000E523092A26D02C1863727EB9A3F141072B
:10087000192F0AD8082A9CF80CE08CBF10270827EB
:100880001EEA070F01D02033DBB2A37501300B2A1B
:10089000DFD12C18B6B1002363729CF80B302B7299
:1008A000DCF81C302B60DCF816301A0CEB80AA80C8
:1008B000BDE8F0812C180EB984F81680013084F858
:1008C0000980D0E7A6759CF80C30002B08BF2C4699
:1008D000E1E7002400232C44A375AE7DB1E700BFFF
:1008E0002DE9F041456B00F13808044601232A4602
:1008F00041464078FFF71CFFC0B9A26A0746236A49
:10090000AA1AE0709A420ED2A678012E01D80AE007
:10091000236A1D44013E012341462A466078FFF7C1
:1009200007FF012EF4D13846BDE8F0810127384693
:10093000BDE8F08170B5C37804465BB92378032B1A
:100940000FD0002260781146FFF700FF003818BF73
:10095000012070BDFFF7C4FF0028FAD12378032BD4
:10096000EFD12579012DECD104F138064FF4007256
:10097000002130461AF010F955233146722684F8CA
:1009800036322B466569612084F81C62522284F855
:100990001D622E0A84F83A0084F81F0284F820525F
:1009A000206984F821622E0C2D0E84F8382084F8FA
:1009B0003920412284F82352050A84F83B2084F828
:1009C0001E2284F82402626A84F82552050C000E67
:1009D000013284F8226284F82702AA20626384F834
:1009E000370284F826526078FFF7A2FE00232371B5
:1009F000A7E700BF38B5C37804460D4663B90123A5
:100A00002A4604F138016078FFF784FE10B1012016
:100A10004FF0FF35656338BDFFF762FF0028EED069
:100A200038BD00BF70B54FF0FF3600230446B14219
:100A3000C37046630CD00D460A46012300F138010D
:100A40004078FFF767FE10B10420666370BD6563F0
:100A50004AF65523B4F836229A421AD194F838301F
:100A6000E92B07D0A36B0D4A03F0FF13934201D08B
:100A7000022070BDD4F86E30094A23F07F439342C0
:100A800009D0D4F88A00074B984214BF02200020F6
:100A900070BD032070BD002070BD00BFEB00900052
:100AA00046415400464154330023F0B50B6085B0F5
:100AB0000E461446FFF756FE051EC0F2BC808C4B56
:100AC00053F82570002F00F0C380376004F0FE0457
:100AD0003B787BB17878FFF701FEC6070AD4002C7B
:100AE00000F0A28010F0040400F09E800A2420464A
:100AF00005B0F0BDE8B2002378703B70FFF7F8FD59
:100B0000C50700F194800CB14407EFD400213846AA
:100B1000FFF788FF02286DD0042800F0908001289C
:100B200000F281800025B7F84330B3F5007F7AD119
:100B3000B7F84E2002B9FA6D97F848303A62591E5C
:100B4000BB7001296FD897F8451088B278810028CA
:100B500069D0481E084266D1B7F8496030073E8127
:100B600061D1B7F84B0000B9B86DB7F846E0BEF1F7
:100B7000000F58D002FB03F30EEB16141C44A042E6
:100B800051D3001B8842B0FBF1FC4CD34FF6F571FA
:100B90008C455FD840F6F5710EEB05002C447D6264
:100BA0008C450CF102013C63F961B86273D8002EE8
:100BB00039D0034401EB410001F00101FB6201EB7C
:100BC0005001012001F2FF11B2EB512F2BD34FF056
:100BD000FF338022C7E904333A71464A0021464C6C
:100BE0001388FC600C4601333870B9619BB21380E6
:100BF000FB8019E06C4607F5FB7307F236252046AB
:100C00001A79114602B19968103340F8041B9D42CD
:100C1000F6D104F1100654F8045B03208DB9B442F8
:100C2000F9D104280BD00D24204605B0F0BD0324D3
:100C3000204605B0F0BD0B24204605B0F0BD0124D0
:100C4000F2E729463846FFF7EDFE0128E7D86AE7C4
:100C50000C24E9E70EEB05010CF102032C447D6244
:100C6000B962B7F862103C633143FB61DBD19B0092
:100C7000796E03F2FF13F962B2EB532FD3D3B7F8B7
:100C800068204FF0FF338021012A3971C7E904330E
:100C900008D00320A1E7002EC5D00344490002205C
:100CA000FB628FE7691C7B6B994204D03846FFF7E3
:100CB000A1FE0028EDD14AF65523B7F836220021CF
:100CC0009A423971E5D1BA6B0C4B9A42E1D103F1EA
:100CD000FF53D7F81C2203F5005320339A42D8D192
:100CE000D7F820220320D7F82432C7E9043274E76A
:100CF000B8070024C0070024C407002452526141F1
:100D00002DE9F843037804460D461646022B06D01B
:100D1000032B6AD0012B27D00220BDE8F883876A15
:100D2000436B07EB11279F4200F09080C378002BA4
:100D300040F0B68004F1380801233A466078414615
:100D4000FFF7E8FC00284AD167636D00C6F307226D
:100D50000123002005F4FF7508EB050108F8056084
:100D60004A70E370BDE8F88301EB5107826A436B78
:100D700002EB5728984563D0C378002B40F08A8057
:100D800004F138090123424660784946FFF7C2FC66
:100D900028BBC4F8348015F0010507F10108C7F33A
:100DA00008075ED019F8073003F00F0343EA061373
:100DB00009F807300123A76AE37007EB5827636B34
:100DC0009F4278D02046FFF78BFD0028A5D1012354
:100DD0003A4649466078FFF79DFC002839D04FF02D
:100DE000FF3301206363BDE8F883826A436B02EB43
:100DF000D118984527D0C378002B57D104F1380774
:100E00000123424660783946FFF784FC0028E6D18A
:100E1000C4F83480AD0026F0704205F4FE757B59AD
:100E2000791903F070431A43130C7A55100A8B702A
:100E3000120E01234870CA700020E370BDE8F883E9
:100E400000F13809A7E700F13807E3E700F13808B7
:100E50007BE7C8F30801676349447DB1C6F3071215
:100E600012E009F807600123A76AE37007EB58272F
:100E7000636B9F42A6D1C8F3080149440B78C6F3BF
:100E8000032223F00F06324301230A700020E3708F
:100E9000BDE8F883FFF724FD00283FF471AF3CE77D
:100EA000FFF71EFD00283FF445AF36E7FFF718FDBA
:100EB0000028A3D031E7C8F3080309EB0301CDE70D
:100EC00001294CD9C36999422DE9F0410C460546E8
:100ED00002D30120BDE8F0810378022B5AD0032B06
:100EE0003FD0012BF5D101EB5106826A436B02EB37
:100EF00056279F420ED0C378002B79D101233A4662
:100F000005F138016878FFF705FC00285FD1AA6A6F
:100F10003B466F63771CC6F3080602EB57282E4446
:100F2000434596F838600DD0EB78002B65D101234E
:100F3000424605F138016878FFF7ECFB002846D1FE
:100F4000C5F83480C7F30807E3073D4495F8380037
:100F500046EA00204CBF0009C0F30B00BAE70120AD
:100F60007047866A436B06EBD1169E4229D0C37840
:100F700093BB05F138070123324668783946FFF7FD
:100F8000C9FB20BB6E63A40004F4FE74385920F042
:100F900070409FE7866A436B06EB11269E4213D092
:100FA000C37803BB05F13807012332466878394618
:100FB000FFF7B0FB58B96E63640004F4FF74385B4C
:100FC00088E700F13807DEE700F13807F4E74FF073
:100FD000FF3318466B637DE7FFF782FC0028C8D01B
:100FE0004FF0FF3076E7FFF77BFC0028DAD0F7E719
:100FF000FFF776FC002881D0F2E72846FFF770FC67
:10100000002894D0ECE700BF0129F8B50E4605682A
:101010002AD9EB698B4227D90746114632BB2846AD
:1010200014E0EB699E4226461ED2FFF769FEE0B946
:10103000EB696A69991E501C8A4204D22A79686158
:1010400042F001022A71A3421CD938683146FFF7E9
:1010500037FF04463146002228469CB1012C03D0BC
:10106000631C11D0012EDCD80220F8BD9342FBD9BD
:10107000012AF9D04FF0FF322846FFF741FE002841
:10108000E3D0F8BD0020F8BD0120F8BD2DE9F04106
:1010900005460F46066800294BD1D6F81080F36943
:1010A000B8F1000F35D14FF00108444606E00128A1
:1010B0003AD0431C38D0444538D0F36901349C42BF
:1010C00004D3B8F1010F4FF002042FD02146286855
:1010D000FFF7F6FE0028EAD1012C24D9F3699C42DF
:1010E00021D24FF0FF3221463046FFF709FE00B90A
:1010F000A7B950BBF3697269023B34619A4201D8C7
:10110000013A72613379204643F001033371BDE83F
:10111000F081434598BF4FF00108C6E7012F02D088
:10112000F3699F4216D30120BDE8F0810020BDE89D
:10113000F0813046FFF7C4FE0128F4D9421C06D0E6
:10114000F3698342F0D8B846AFE70128EBD14FF0FE
:10115000FF30E9E7224639463046FFF7D1FDC8E7C0
:101160002DE9F04F056983B083692035B5F5001F7F
:101170003BD2002B39D0C5F3080804460768B8F104
:10118000000F08D007F13806464400202561E661CB
:1011900003B0BDE8F08F0E4601334169836141B36E
:1011A000B7F80A9009F1FF3919EA5529EAD138460A
:1011B000FFF786FE0128834623D9B0F1FF3F5DD0BB
:1011C000FA6982421FD9831E07F138060193023A59
:1011D0000199C4F814B08A4204D9B7F80A903B6B5D
:1011E00001FB0939C4F81890CEE7042003B0BDE82C
:1011F000F08F3B89B3EB551FC4D800230420A361B3
:10120000C6E70220C4E7002EF7D061692046FFF749
:101210003DFF8346002839D00128F2D0B0F1FF3FCE
:101220002CD0FA78002A33D107F13806ABF102034B
:101230004FF4007200213046019319F0ADFCF869BB
:10124000019B821E934229D279893A6B019B03FB51
:1012500001227A6329B34FF0000A05E07A6B78899E
:10126000013250457A630BD94FF0010338460AF139
:10127000010AFB70FFF734FB0028EFD0012087E75D
:10128000F869A2EB0A027A630246A0E707207FE72B
:101290003846FFF725FB0028C6D0EFE77989002202
:1012A000D7E78A46EDE700BF2DE9F04704464FF047
:1012B000FF08042025684646D4F8189005F1380741
:1012C000B9F1000F32D06B6B4B4513D0EB78002B8C
:1012D00064D101234A4639466878FFF71BFA38B1D2
:1012E0004FF0FF3301206B630023A361BDE8F0875B
:1012F000C5F83490E1690A78002A58D0CB7AE52AFB
:1013000003F03F03A37105D02E2A03D023F0200061
:10131000082810D1FF2600212046FFF721FF0028D2
:10132000E2D1D4F81890B9F1000FCCD10028DBD16C
:101330000020BDE8F0870F2B46D1500634D5236935
:1013400002F0BF0691F80D80E3624B7B4345E1D18B
:101350004B8B002BDED10B780122DFF894E04FF6A7
:10136000FF7A23F04003D5F80C900EF10C0C013BF2
:1013700003EB430003EB8003104609E0FE2B10460D
:10138000C8D829F813200133E64512D01EF8012FE2
:101390008A5A0028F2D15245F6D0BBE72846FFF71B
:1013A0009FFA002895D09FE7B242B3D1CDE7042041
:1013B0009AE70A78520604D5FE2BABD8002229F80A
:1013C0001320013EF6B2A6E76EB901F10B02F3015C
:1013D00043EA560611F8013B53FA86F69142F6B2FB
:1013E000F5D14645A4D04FF0FF330020E3627DE7FE
:1013F00050DB0108B1F5001F42D2CA06F8B50D4610
:1014000020D18168064607680561E9B17B89B5EBA3
:10141000432F4FEA432435D3384607E0012811D93A
:10142000FB6983420ED9AC422DD83068FFF748FDE6
:10143000431CA5EB04050146F0D10120F8BD0023B3
:10144000C6E905130220F8BD3B78022B13D83B896F
:10145000B3EB551FF6D9FA6AB2617161002AF1D077
:1014600007F13803C5F3080102EB552200200B44B5
:10147000C6E90623F8BDFB6A002BE8D01946C5E78C
:1014800002207047FB69023B881E9842D7D27B89B5
:101490003A6B00FB0322B261DFE700BF2DE9F04F9A
:1014A0000021054607682DED028B85B0FFF7A2FFEE
:1014B000C8B94FF0FF094FF0FF3307F13808CA46AB
:1014C000EB62AC697B6B9C4213D0FB78002B4FD155
:1014D0000123224641467878FFF71CF940B14FF0CE
:1014E000FF3301207B6305B0BDEC028BBDE8F08FBC
:1014F0007C63EC692678002E00F0AB80E27AE52E62
:1015000002F03F03AB7103D0100711D50F2B39D078
:101510004FF0FF334FF0FF0AEB6200212846FFF740
:101520001FFE0028CDD005B0BDEC028BBDE8F08FCA
:101530000F2B27D0BAF1000F77D095F82B0010F0C1
:101540000100E5D195F8201005F1210214F8013BC6
:1015500005F12B065B1A002BDAD112F8011B14F8E7
:10156000013BB242A3EB0103F5D1002BD0D1BAE786
:101570003846FFF7B5F90028AAD005B0BDEC028BBC
:10158000BDE8F08F95F82B305906C6D4720647D5C2
:101590002B6906F0BF0694F80D90EB62637B4B4518
:1015A00040D1638B002B3DD194F800A00123F96852
:1015B00008EE108A0AF03F0A029601950E460AF1DB
:1015C000FF3ADFF8C0B0184625460AEB4A020391FD
:1015D00000970AEB820A13E0BAF1FE0F204618D8F2
:1015E00001F012F9804636F81A00BA4601F00CF9FB
:1015F000804520460DD1224B9B452CD01BF8013F46
:101600000AF10107EC5A0028E6D14FF6FF739C421D
:10161000F1D0DDE9007518EE108A4FF0FF0A7CE783
:10162000B245BBD04FF0FF0A77E704F10B0022462A
:101630004FEACA1312F8011B43EA5A0A824251FACE
:101640008AFA5FFA8AFAF3D1D1457FF476AF0020A7
:1016500049E7042047E72C46009F029E18EE108AB7
:101660002378019D5B0600D520B906F1FF3A5FFAA9
:101670008AFA52E7039B33F81A30002BF5D0D1E7F2
:101680005CDB010850DB01082DE9F04F0B7883B0DB
:101690000E4607462F2BD0F800B037D05C2B37D042
:1016A000DBF81830836033781F2B3AD95A461F2B4A
:1016B000D56898B240F22181A5F10209B046012413
:1016C00008E029F8020F631C18F8010F1F2840F2E8
:1016D0001A811C462F2804F1FF3A2CD05C282AD00E
:1016E000B4F5807F0ED0012101F06EF850B17F2853
:1016F000E7D82223B14A03E012F8013F002BE0D0E3
:101700009842F9D1062003B0BDE8F08F16F8013FEA
:101710002F2BFBD05C2BF9D00023BB6033781F2B21
:10172000C4D880230021384687F82B3003B0BDE8A9
:10173000F04FFFF75FBE335D32195C2B02D02F2BC9
:1017400040F05C81631C33441E4613F8012B2F2AA2
:10175000FAD05C2AF8D0BAF1010F4FF0000800F07F
:10176000DA80BAF1020F40F0DC806B882E2B00F09B
:101770001381934A05EB420205E0BAF1010A00F039
:10178000BC8032F8023D202BF7D02E2BF5D04FF045
:101790002033002225F81A207B623B62C7F82730ED
:1017A0002888202802D02E2840F0FC802A460023DA
:1017B00032F8020F1C4601332028F9D02E28F7D02A
:1017C00048F00308023405EB4A0333F8022D2E2AB1
:1017D00002D0BAF1010AF8D190B300230822BC4626
:1017E000314699461F462E465B461546E3460A4655
:1017F000202803D02E283AD1544538D048F0030889
:1018000036F8140001340028F2D159469B463B4675
:1018100016460F4691F820102A46E52902D10521E7
:1018200087F82010082A00F0958003F00C020C2A9B
:1018300004D003F00303032B40F0968048F0020825
:1018400087F82B803846FFF729FE97F82B3060B3D6
:1018500004287FF458AF9C0640F1E48059073AD53C
:101860008023002087F82B3003B0BDE8F08F4D4572
:1018700034D9A4EB0A01B1FA81F1490971BB7F287F
:1018800058D82B21DFF840C103E01CF8011F0029C4
:101890007AD08142F9D148F003085F200BEB0901AF
:1018A00009F1010981F82000AAE75A073FF52BAF9B
:1018B000BB79DB0640F1B4803B699BF80010C3F3B1
:1018C00008020BF13803032913445A8B02D19B8A77
:1018D00042EA0342BA603A683378E8E60B2D00F03A
:1018E0008F80544502D048F003088ED8BF0054467C
:1018F0000B254FF00809FFB282E7002306202B805A
:1019000003B0BDE8F08FA2461E444FF00408BAF1C0
:10191000010F7FF426AF2B882E2B45D04FF00042CD
:1019200028E7BAF1000FE8D06FF00042524435F8D2
:1019300012301FE7CDE9003200F046FFDDE900324A
:10194000F8B1204948F00208084410F8800C00283B
:10195000A1D096E79B0003F00C020C2A3FF46EAF77
:1019600018F0020F08D06BE718F0020F7FF468AF91
:10197000012B08BF48F01008042A08BF48F00808E7
:101980005EE748F0020886E7A0F1410119292CD84A
:1019900047F00207C0B281E72A882E2A7FF4E9AE19
:1019A000042302E001240EE7022300222E2420203B
:1019B000EA5207F1200201230DE000BFBCDA010862
:1019C00001000080D0DA0108C8DA01080B2B107082
:1019D00006D001330132591E8A45F7D91470F8E751
:1019E00048F0200887F82B802CE7A0F16101192925
:1019F0009CBF203847F00107C0B24FE71646AAE661
:101A0000594616469B4648F0030891F820203B466D
:101A10000F46E52A7FF409AF052281F8202004E76C
:101A2000052070E613F0040F08BF05206BE600BF29
:101A30002DE9F04F2DED028B90F82B308BB013F089
:101A4000A002009340F03081D0F800A00646DAF8FA
:101A50000CE0BEF80030002B00F0C98193467246BE
:101A600032F8023F0BF1010B002BF9D106F12003F4
:101A70000DF11C0893E8070088E80700009A02931C
:101A8000D1076DD56FF01F054022B1460127AD1B70
:101A900086F82B20AE4C7346029EB446052F98E87C
:101AA0000700ACE803002CF8022B4FEA12428CF836
:101AB000002071D9198800296ED09C463B46102021
:101AC00001F00102490802EB4303DA0348BF634017
:101AD0000138F5D13CF8021F0029F0D10DF11B0CA3
:101AE000072203F00F004FEA131E013A00F1300104
:101AF000392988BF00F137010F2B73460CF8011903
:101B0000EFD802F128037E216B4403F8141C002A4D
:101B100044D009F11F01002302E001339A4203D0AF
:101B200011F8010F2028F8D120334B4402F128018D
:101B3000072A0DEB01004FF0200102D810F8141C09
:101B4000013203F8011BE9180729EFD94846FFF7CE
:101B5000A5FC28BB0137642F16D0DAF80C309CE7BF
:101B6000009B54469B0726D57A4B0BF10C070021AE
:101B70003046A3FB0737FFF73DFC8146BF0801371E
:101B800008B3042840F03A814FF0070948460BB0EB
:101B9000BDEC028BBDE8F08F3B469FE71346C3E7E1
:101BA00004284E468146F1D1009B346886F82B30DC
:101BB000009B9B07D8D400213046FFF71BFC012770
:101BC00081460028DDD1054604F13808D6F818B062
:101BD000636B9B4516D0E378002B5FD101235A46F7
:101BE00041466078FEF796FD50B14FF001094FF085
:101BF000FF33484663630BB0BDEC028BBDE8F08F4A
:101C0000C4F834B0F3691B78E52B0BD0B3FA83F238
:101C100052093BB1154601213046FFF7A1FA0028D1
:101C2000D4D0AEE70135AF42F5D17B1E00933ED153
:101C3000B469DAF834309C4211D09AF80330002BA2
:101C400040F0DE80012322460AF138019AF80100B3
:101C5000FEF760FD002840F0C380CAF8344020221F
:101C60000021F06918F098FFF36906F12B01029A40
:101C7000013B12F8010B914203F8010FF9D196F8DC
:101C80002B300122F169484603F018030B738AF8E0
:101C900003200BB0BDEC028BBDE8F08F2046FEF7B1
:101CA0001FFE00289AD06CE74FF006096EE73169F5
:101CB0003046009BA1EB4311FFF79CFB01900028ED
:101CC00040F0A68006F12B01029AC30143EA5003BB
:101CD00012F8010B50FA83F38A42D8B2F5D10AF117
:101CE0003803DFF874B0019008EE103ACDF80C908C
:101CF000B469DAF834309C420FD09AF80330002BE4
:101D000077D10123224618EE101A9AF80100FEF747
:101D100001FD002864D1CAF834409DF800900F27D7
:101D2000F169002509F1FF30DAF80CE0CF722B469B
:101D300000EB4002019F01244FF6FF7800EB820088
:101D40004FF0FF0C2A464F730D738D76CD761DE054
:101D5000211001004FECC44E50DB01083EF810305A
:101D6000180A0B5568705BB901324FF6FF730D2AE4
:101D700023D01BF802000C1801F800C084F801C041
:101D8000013238460D2A11D01BF80240434501EBC1
:101D9000040500F10107E1D1013201F804C0074652
:101DA0000C440D2A384684F801C0EDD14FF6FF727D
:101DB000934202D03EF817300BB949F04009012395
:101DC00081F80090304600218AF80330FFF7C8F907
:101DD000A0B9009B013B00938AD1DDF80C9027E766
:101DE0004FF0FF334FF00109CAF83430CEE69B467E
:101DF0003CE65046FEF774FD002882D08146C5E6D9
:101E00005046FEF76DFD00283FF41CAF8146BDE64D
:101E1000DDF80490BAE600BF30B585B015460190F4
:101E200003A800910391FEF79DFC031E1BDB0F4CE2
:101E300054F8231009B100220A70019959B1002207
:101E4000012D44F823100A700AD101A96846FEF753
:101E50002BFE05B030BD084644F8231005B030BD58
:101E6000104605B030BD0B2005B030BDB8070024CA
:101E70002DE9F04790B00191002800F0838002F036
:101E80003F071646044603A901A83A46FEF70CFE92
:101E9000054628B100232360284610B0BDE8F0872E
:101EA000039B04A801990493FFF7EEFB80B99DF909
:101EB0003B30002B6BDB16F01C0F10D09DF816305A
:101EC00013F0110F65D1730740F1CA800825E1E7CF
:101ED00016F01C0F01D004285FD00546DAE79DF804
:101EE0001630DA0657D4B10701D5DA0751D4DDF838
:101EF0000C903B0748BF47F04007D9F834302362C5
:101F00000B9B636299F800205E8B032A02D19A8AA8
:101F100046EA02460021A66004F12C0AD3F81C8090
:101F2000B9F806304FF4007227745046C4F8009098
:101F3000C4F80C80A162A3806174E161616118F052
:101F40002BFEBF06A8D5B8F1000FA5D0B9F80A300E
:101F5000C4F81480B8EB432F4FEA432706D884E037
:101F6000701C00F0B880474580F0B580314620688D
:101F7000FEF7A6FF0128A8EB07080646F0D80225C1
:101F8000A06187E70925284610B0BDE8F08706253F
:101F900080E707257EE704257CE704A847F00807CB
:101FA000FFF746FD002898D106F03AFD0B9BC6B21C
:101FB000C0F30742C0F30721000E9E734FF0200CC0
:101FC000D9731A7458740B9BDDF80C909E75D975F3
:101FD0001A7658760B9B83F80BC099F800200B9B60
:101FE000032A5E8B02D19A8A46EA024600229A763A
:101FF000DA7699F80010032901D11A755A750B9BEE
:1020000000221A775A779A77DA77012389F8033012
:10201000002E3FF46EAF04A83146D9F83480FEF7A5
:10202000F3FF00287FF459AFDDF80C90D9F8343075
:1020300098453AD099F80330002B42D1012342460B
:1020400009F1380199F80100FEF764FB88B34FF0FD
:10205000FF31039B01250E44C9F834101E6119E7B6
:102060003007A1D4DDF80C9047E7A661C8F3080358
:10207000002B3FF411AF0398023EC369023B9E421E
:1020800004D24289036B06FB02320AB9022501E73A
:1020900002EB582251460123E2614078FEF73AFBF9
:1020A00000283FF4F9AE0125F4E6013EC9F81060BE
:1020B0001FE7013EC9F83480DDF80C90C9F81060C4
:1020C00017E74846FEF70CFC0028B7D0039B013EFB
:1020D00005461E61DEE6711CA6610CBF01230023CC
:1020E000C4D11D46D6E600BF2DE9F04F1E4687B08D
:1020F0000023884605A9044633601746FEF75CFBBB
:102100000546002861D1657C002D5ED194F810A0B1
:102110001AF0010A00F0A1806069E3681B1A9F426F
:1021200028BF1F46002F50D004F50B7304F12C0B71
:10213000CDE90135C0F3080363BB0599430A4A8919
:10214000013A12EA502244D0A069CB690238023B1E
:1021500098424BD2B1F80AC00B6B0CFB0030002840
:1021600044D0B7F5007F02EB000946D2E2694A4548
:102170000BD094F91030002B71DB487801234A46CC
:102180005946FEF7C7FA002860D16369C4F81C906D
:10219000C3F30803C3F5007C5B4408F1FF32BC4580
:1021A00028BFBC4603EB0C0013F8011B834202F866
:1021B000011FF9D16069B7EB0C073368E044604454
:1021C000634460613360B5D1029D284607B0BDE825
:1021D000F08F38BBA068012808D9431C36D0059978
:1021E000A0610238CB69023B9842B3D302231D465B
:1021F0006374284607B0BDE8F08F02EB57207D0AD4
:1022000060454878414688BFACEB02054A462B46FC
:10221000FEF780FAD0B994F91020002A33DB4FEA98
:10222000452CC7E7A06A38B3216804304989B3FB5D
:10223000F1F3016829B9D9E75B1A50F8081F0029A2
:10224000D4D08B42F8D240681844C4E755460123E5
:102250002846637407B0BDE8F08F0725B5E74878D6
:1022600001235946FEF764FA0028EFD1237C059933
:1022700003F07F03237480E7A16920680392FEF7CF
:102280001FFE039AA7E7E269A2EB0909A945C6D296
:1022900008EB492904F12C01019809F1FF3211F8EA
:1022A000013B814202F8013FF9D1B8E770B3F8B5BC
:1022B000036804462BB11A781AB18188DA889142F2
:1022C00001D00920F8BD5878FEF708FAC207F8D403
:1022D000237C13F04000F5D01B06266847D406F097
:1022E0009FFB276A736B05469F4212D0F378002B41
:1022F0004AD101233A4606F138017078FEF70AFA0E
:1023000030B14FF0FF3301207363F8BD09207047EF
:102310007763636ADA7A42F02002DA72A26821688F
:10232000C2F307209A76D8760978032903D1120CD4
:102330001A75120A5A75E26830469D75110A1A77A5
:102340005977110C120E9977DA772A0ADA752A0C66
:102350002D0E1A7600225D769A74DA740123F370DA
:10236000FEF7E8FA237C23F040032374F8BD012331
:10237000E26904F12C017078FEF7DAF950B9237C98
:1023800003F07F032374AAE73046FEF7A9FA00287A
:10239000AFD0F8BD0120F8BD10B582B00446FFF7FC
:1023A00085FF08B102B010BD01A92046FEF704FA6E
:1023B0000028F7D1206002B010BD00BF2DE9F04F1A
:1023C00085B00D46044603A9FEF7F6F9064660B946
:1023D000667C56B9A36A63B16F1C6ED0E268954201
:1023E00028BF15466561002D4CD1304605B0BDE8CB
:1023F000F08FE368AB4204D2227C12F0020F08BFD8
:102400001D46002263696261002DEED0039AB2F886
:102410000A804FEA4828002B49D0013B6A1EB3FBD3
:10242000F8F1B2FBF8F28A4241D3C8F10002A76981
:102430001340ED1A6361002F00F0B680454513D8B4
:10244000E6E0FEF723FE0746002800F0AC807B1C88
:102450006FD0012F66D9039BDB69BB4262D9A845C7
:102460006369A76180F0D480227C434439462046CA
:102470009207A5EB08056361E3D42068FEF720FD11
:102480000746E4E7681E2268191D5B68400A528906
:10249000B0FBF2F22BB950E0D21A51F8083F002BF2
:1024A0004BD09342F8D94B6813449A1E47E0A76873
:1024B000002F6CD00023A761BDE71F46D4F8088029
:1024C0004FF0020957F804ABB8F1000F17D1D1450E
:1024D000C3F8009000F28A8000233B6085E709F191
:1024E0000209CA4505D33B4643F808BBC7F8048038
:1024F0001F46039BDB698B4240F2B1808846414610
:102500004FF0000B03E0481C13D08D42E7D1206848
:102510000D46FEF7D5FC01280BF1010B05F1010575
:102520000146F0D802231E466374304605B0BDE86C
:10253000F08F01231E46637457E76FF00102039F7B
:10254000A361FB69023B9342ECD979893B6B02FBA7
:102550000133002BE6D0C5F30805002D3FF445AF4D
:102560000139E2690840C518AA423FF43EAF94F928
:10257000103004F12C01002B60DB012378782A460F
:10258000FEF7C8F806460028D3D1E5612DE73946A5
:102590002046FEF77BFD01280746C3D0411CC8D06A
:1025A0006369A06087E76369E2689A4259D2227C36
:1025B000E360C3F3080342F040022274002B3FF4AF
:1025C00014AFE269BA423FF410AF94F91030002B17
:1025D0000EDB04F12C01039A012350783A46FEF7F2
:1025E00099F806460028A4D1E761FEE61126FCE62C
:1025F000039B04F12C01587801230191FEF798F810
:10260000002896D1237C019903F07F032374E2E72D
:102610002B44C5F308026361FAB10399B81ECA6975
:10262000023A9042BFF47EAF4A890F6B00FB0277FB
:10263000002F3FF477AF07EB5527B5E778780123F4
:102640000191FEF775F800287FF473AF237C039F98
:1026500003F07F03019923748FE71746A4E7A36A69
:1026600035E7C3F30803A9E710B584B0019100284A
:1026700032D00446002203A901A8FEF715FA18B1CA
:102680000023236004B010BD039B20460199236002
:10269000FEF7FAFFE0B994F92B30002B1FDBA3798A
:1026A000DB0617D5039BE16918784A8B032802D112
:1026B000898A42EA0142A260DB8800212046A38089
:1026C000FEF798FE042805D00028D9D104B010BD2B
:1026D0000428D5D10520D3E7092004B010BD039B01
:1026E000EAE700BF98B1036810B504462BB11A7829
:1026F0001AB18188DA88914201D0092010BD58783A
:10270000FDF7ECFF10F00100F7D1206010BD0920AB
:10271000704700BF20B3036870B5044633B11A7820
:1027200022B10D46DA888188914201D0092070BD1E
:102730005878FDF7D3FFC307F8D49DB12046FEF7C4
:10274000B3FD10F0FB06F2D129462046FEF74CF807
:1027500031462046FEF704FD042808BF002070BD66
:102760000920704729462046BDE87040FEF742BE6A
:10277000144B9A7B012A01D90120704793F80EC0AF
:1027800000225FFA8CFC03F80C2093F80EC003EBD8
:102790008C0CCCF8040093F80EC0987B9C448CF809
:1027A0000C2000F1010C30305FFA8CFC83F80EC075
:1027B0004FF03A0C2F23087081F801C010468B703F
:1027C000CA707047C40900247F2814D981B90D4A02
:1027D000C72303E080290DD032F8023F98421FFA48
:1027E00081FC01F10101F5D10CF1800080B270474C
:1027F000FF2801D900207047024B803833F81000C1
:10280000704700BF60DB0108B0F5805F244A41F6E5
:102810007D51244B34BF6121134610B5043303E0CE
:102820000433DAB133F8041C1C46B1B1884214D326
:1028300033F8022C5FFA82FC120A0CEB010E704591
:10284000EEDA082A09D8DFE802F00512181B1E216B
:1028500024270E00411A33F8110010BD04EB4C037D
:1028600034F81C10DAE7A0F5E35080B210BD431A2B
:1028700003F00103C01A80B210BD103880B210BD41
:10288000203880B210BD303880B210BD1A3880B206
:1028900010BD083080B210BD503880B210BD00BFEE
:1028A00054DE010860DC0108704700BF704700BFBC
:1028B000704700BF704700BF704700BFF7EE007A57
:1028C00010B5B4EEE70A04462DED028BF1EE10FAD6
:1028D00069DD9FED427AB4EEC70AF1EE10FA6ADDC7
:1028E0009FED3F0A9FED3F6ADFED3F6A3F4BF7EEFA
:1028F000008A94ED087AFEEE007A9FED3D8A4FF053
:102900008042236338EEC77A84ED0D6AC4ED0E6A07
:10291000226027EE277A84ED028A84ED097A16F088
:1029200083FF94ED0D7AD4ED027A84ED0A0A87EEE6
:10293000270AB1EE400A16F077FFD4ED006A94ED55
:102940000E7AC8EEA67A84ED038A84ED080AC7EEF3
:10295000086A38EEC07A77EEE87A67EE877AB1EEE9
:10296000660AC4ED097A16F05FFFFAEE087A94ED74
:10297000006AB6EE007A012384ED078AC7EE866A04
:10298000C4ED017A84ED068A84ED0B0A84F83C30AC
:10299000BDEC028B77EEE67AF0EEE77A67EE877AA7
:1029A000C4ED047A10BDBAEE040A0123B0EE006A49
:1029B000F0EE676A9BE7BDEEC07ADFED0D5AB0EE30
:1029C000005A17EE103AB8EEC77AC7EE876A85EE5E
:1029D000076A86EEA50AB1EE400A88E700803B4808
:1029E0000D745AB83EC32E373EC3AE3600EE020019
:1029F000CDCCCC3DB0EEC06AD0ED066AF7EE007AE1
:102A0000F4EEC66A10B5F1EE10FA04462DED048B13
:102A1000C8BF90ED0B7A82B0D8BF90ED0A7AF0EE85
:102A2000408A01A8D4ED089A77EEC77A94ED079A08
:102A300094ED098A67EE867AE6EE877AC4ED067A27
:102A4000B0EEE70A16F062FFDFED206A9FED207A14
:102A5000B3EE043ADFED1F5AA0EE267ADFED1E7AC0
:102A6000DFED1E2A94ED016ADFED1D3AD4ED046A14
:102A70009FED1C4AB0EE475A9DED017ADFED1A4AF0
:102A8000B8EEC77AE0EE055AE0EE257A77EE277ABF
:102A9000B0EE467A67EEA27A97EE837AC7FE237A83
:102AA00068EE277AE9EE897A37EEA67AC4ED077ADE
:102AB00027EE047A27EE240A16F0B6FE84ED050A06
:102AC00028EE800A02B0BDEC048B10BDA8A19D3F8A
:102AD000F5CA83C0FBB3C040E09248C09B209A3E39
:102AE00000000000CDCC4C3D8E5D13402DE9F84335
:102AF000904689464A6843460968184801F090F8AC
:102B0000D9F80040B8F1000F26D00025144F94EDFD
:102B1000000A2E4612480135FFF76CFFF4EC017AEB
:102B200097ED057AA84567EE877A44ED017AEED1F4
:102B3000D9F80440002594ED000A0948FFF75AFF30
:102B4000F4EC017A97ED057AB54205F1010567EEDF
:102B5000877A44ED017AEED1BDE8F883F8200024AD
:102B6000D809002407EE901AF8EEE70A07EE902A3B
:102B700038B5114CB8EEE71A07EE900AA4F1D80563
:102B80002046B8EEE70A02F099FF284601F0CCF99A
:102B9000642005F0F9FF9FED091A2046F0EE410A86
:102BA000B0EE410A02F08AFF284601F0BDF9642028
:102BB000BDE8384005F0E8BFAC2700240000000065
:102BC000F8B504460D461646FFF7CCFF29462046C9
:102BD00032460D4FFFF7C6FF07EE906A3846B8EE53
:102BE000E71A07EE905AF8EEE70A07EE904AB8EEB9
:102BF000E70A02F063FFA7F1D80001F095F964201D
:102C0000BDE8F84005F0C0BFAC27002438B5244C1F
:102C10002DED028BDFED238AA4F1D80520469FED30
:102C2000228AB0EE681AF0EE680AB0EE680A02F086
:102C300045FF284601F078F9642005F0A5FFB0EEC5
:102C4000481AF0EE480A2046B0EE480A02F036FF75
:102C5000284601F069F9642005F096FFB0EE681A85
:102C6000F0EE680A2046B0EE680A02F027FF284618
:102C700001F05AF9642005F087FFB0EE481AF0EE33
:102C8000480A2046B0EE480A02F018FF284601F034
:102C90004BF96420BDEC028BBDE8384005F074BFF1
:102CA000AC27002400007F430000000010B504465C
:102CB00055482DED028B02F043FDDFED547AB4EE62
:102CC000E70AF1EE10FA0FD99FED517AF7EE007A8C
:102CD000B4EE470AF1EE10FA27FE808A44B1012CC7
:102CE0004CD0BDEC028B10BD9FED4A8A002CF6D172
:102CF000494B4A4C1A78D4ED007AFAB1484A82ED31
:102D0000008A78EE677A9FED417AF0EEE77AF4EE8A
:102D1000C77AF1EE10FAE4DDB0EE480A414800F05F
:102D2000D3FEB7EEC87A84ED008A3F48BDEC028B33
:102D300053EC172BBDE8104002F03ABEF4EEC87A0F
:102D4000F1EE10FA07D8364A92ED007AF4EEC77A1F
:102D5000F1EE10FA0CDAF4EEC87AF1EE10FA0ADBB2
:102D60002F4A92ED007AF4EEC77AF1EE10FA02D80B
:102D700001211970C3E7B0EE678AC2E7264B2B4CDE
:102D80001A78D4ED007AFAB1294A82ED008A78EEF9
:102D9000677A9FED1E7AF0EEE77AF4EEC77AF1EEED
:102DA00010FA9EDDB0EE480A1E4800F0DDFEB7EED8
:102DB000C87A84ED008A1F48BDEC028B53EC172BB8
:102DC000BDE8104002F0F4BDF4EEC87AF1EE10FA5E
:102DD0000AD8174A92ED007AF4EEC77AF1EE10FAAB
:102DE00002DB01211970D0E7F4EEC87AF1EE10FA97
:102DF00007DB0F4A92ED007AF4EEC77AF1EE10FA93
:102E0000EFD9B0EE678AC2E73C2700240AD7233CFB
:102E1000A4707D3F00000000C82600241C00002490
:102E200008000024F820002410DF010820000024FE
:102E30000C0000242CDF010810B5044655482DED88
:102E4000028B02F07DFCDFED547AB4EEE70AF1EE7E
:102E500010FA0FD99FED517AF7EE007AB4EE470AD7
:102E6000F1EE10FA27FE808A44B1012C4CD0BDEC63
:102E7000028B10BD9FED4A8A002CF6D1494B4A4C7B
:102E80001A78D4ED007AFAB1484A82ED008A78EED9
:102E9000677A9FED417AF0EEE77AF4EEC77AF1EEC9
:102EA00010FAE4DDB0EE480A414800F035FEB7EE16
:102EB000C87A84ED008A3F48BDEC028B53EC172B97
:102EC000BDE8104002F074BDF4EEC87AF1EE10FADD
:102ED00007D8364A92ED007AF4EEC77AF1EE10FA8E
:102EE0000CDAF4EEC87AF1EE10FA0ADB2F4A92ED12
:102EF000007AF4EEC77AF1EE10FA02D801211970C7
:102F0000C3E7B0EE678AC2E7264B2B4C1A78D4EDA4
:102F1000007AFAB1294A82ED008A78EE677A9FED4D
:102F20001E7AF0EEE77AF4EEC77AF1EE10FA9EDD43
:102F3000B0EE480A1E4800F0FDFDB7EEC87A84EDF9
:102F4000008A1F48BDEC028B53EC172BBDE81040E4
:102F500002F02EBDF4EEC87AF1EE10FA0AD8174A44
:102F600092ED007AF4EEC77AF1EE10FA02DB01215D
:102F70001970D0E7F4EEC87AF1EE10FA07DB0F4AC9
:102F800092ED007AF4EEC77AF1EE10FAEFD9B0EED6
:102F9000678AC2E75C2700240AD7233CA4707D3FE0
:102FA00000000000CA260024240000241000002491
:102FB000F820002444DF0108180000241400002435
:102FC0005CDF0108124B1348B3F92420996AB1FB66
:102FD000F2F170B5104D114C296002F0E9FC104B74
:102FE000204693ED000A00F06FFD0E4B204693ED56
:102FF000000A00F091FD2046012100F05FFD2B68E2
:103000002046094A0949BDE8704000F01BBD00BFD9
:10301000441C002478DF0108D4090024F82000248F
:103020001C00002424000024000000C0000000C197
:1030300030B5204C91B004F1400002F001FC94F84E
:1030400044300BB1636E43B994F84C301BB194F823
:103050005230802B18D011B030BD174A1748118854
:10306000408B0B4499B28842118018D9CB010D4690
:10307000183313496846194418F099FB6A462946E3
:10308000104802F095FCDFE70B4B0D48198800F063
:10309000ADFC48B111B0BDE83040FFF793BF00214F
:1030A00018230D461180E4E7074811B0BDE8304011
:1030B00002F07EBCD426002404000024441C00241A
:1030C000440C002490DF0108ACDF0108A94810B5CA
:1030D00002F04CFDA84B93F8C42052B9A74C2068CD
:1030E000FFF7E4FD2068FFF7A7FEBDE81040FFF7FB
:1030F0009FBF93F8CA20A14C802AF0D122680132E8
:10310000012A226040F39680002222609A6E9FED91
:103110009C6A1288DFED9B6A07EE102AB8EE477AA8
:10312000C7EE067AF4EEE67AF1EE10FA40F2158177
:10313000DFED956AB7EE007AF4EE667AF1EE10FAFA
:1031400067FE277AD3F888209FED8D6A12888F4B0F
:1031500007EE102ADFED8B6AC3ED007AB8EE477AEE
:10316000C7EE067AF4EEE67AF1EE10FA40F2F2805B
:10317000DFED856AB7EE007AF4EE667AF1EE10FACA
:1031800067FE277A00238249824A9FED831A83488B
:10319000C1ED007AB0EE410A13708149814A037093
:1031A000DFED810A81480B70137002F087FC7248D2
:1031B00000F0BAFE642005F0E7FC9FED771A7B482B
:1031C000F0EE410AB0EE410A02F078FC6A4800F0E5
:1031D000ABFE642005F0D8FC9FED6F1ADFED720A9C
:1031E000B0EE410A714802F069FC634800F09CFEB1
:1031F000642005F0C9FC9FED681A6C48F0EE410AA6
:10320000B0EE410A02F05AFC5B4800F08DFE6420EB
:1032100005F0BAFC9FED601ADFED630AB0EE410ADB
:10322000624802F04BFC544800F07EFE642005F03A
:10323000ABFC54E7002A3FF469AF012A40F09680C6
:103240009A6E9FED4F6A1288DFED4E6A07EE102AE4
:10325000B8EE477AC7EE067AF4EEE67AF1EE10FAA7
:103260007ED9DFED496AB7EE007AF4EE667AF1EEC8
:1032700010FA67FE277AD3F888209FED416A1288FA
:103280004B4B07EE102ADFED3F6AC3ED007AB8EE34
:10329000477AC7EE067AF4EEE67AF1EE10FA62D9D2
:1032A000DFED396AB7EE007AF4EE667AF1EE10FAE5
:1032B00067FE277A3F4900233848364AC1ED007A35
:1032C000DFED350A13703649B0EE600A354A0370F7
:1032D0009FED351A35480B70137002F0EFFB26484E
:1032E00000F022FE642005F04FFC9FED2B1A2F48C2
:1032F000F0EE410AB0EE410A02F0E0FB1E4800F099
:1033000013FE642005F040FCDFED230A9FED261A32
:10331000B0EE600A254802F0D1FB174800F004FE29
:10332000642005F031FC9FED1C1A2048F0EE410AA4
:10333000B0EE410A02F0C2FB0F4800F0F5FD642038
:1033400005F022FCDFED140A9FED171AB0EE600ABB
:10335000164866E7DFED107A14E7DFED0F7AF1E645
:10336000DFED0D7A87E7DFED0C7AA3E700230B484A
:10337000084AA5E794270024D4260024D026002458
:1033800000FF7F470AD7233CA4707D3F080000243C
:1033900010000024C926002400000000C8260024D4
:1033A000CA260024CB26002400007F43AC2700243B
:1033B0000C0000241400002410B5314C31482DEDD0
:1033C000028B00F0ABFD2046FFF778FADFED2E7A96
:1033D00094ED0E6AB7EE008A94ED087A86EE270A1D
:1033E000DFED2A6A2A4BC4ED027A236038EE477A71
:1033F00027EE267A84ED097AB1EE400A16F014FA27
:1034000094ED0D7AD4ED027A84ED0A0A87EE270A4C
:10341000B1EE400A16F008FAD4ED006A9FED1D7A6D
:10342000C8EE267A94ED0E6A84ED037A84ED080ADC
:10343000C6EE076A38EE407A77EEC87A67EE877A8A
:10344000B1EE660AC4ED097A16F0EEF9FAEE087AE2
:1034500094ED006AB6EE007A012384ED0B0AC7EE04
:10346000866AC4ED017A84F83C30BDEC028B77EEBD
:10347000E67AF0EEE77A67EE877AC4ED047A10BD5B
:10348000D8090024D42600240AD7233CAAAA2ABF9C
:1034900000004040CDCCCC3D08B50021254800F0CF
:1034A000E3FD012002F092FA0421224800F00AFD17
:1034B0000321204800F01CFDFFF77EFFFFF7A6FB6D
:1034C0001D481E4A1E4900F0B9FA1B4800F0D6F804
:1034D00038B3FFF79BFB184800F0F4F8E0B1FFF7B2
:1034E00095FB0621144800F081FAF0B1FFF76AFD60
:1034F000FFF78CFB0F4800F013FD12490D4800F058
:10350000DFFC0022FF211046FFF75AFBFFF7DEFD2C
:103510000A2005F039FBF9E70B4802F049FA0120CF
:1035200008BD0A4802F044FAF9E7094802F040FAF7
:10353000F5E700BFD4260024440C0024000000C09E
:10354000000000C1ED2A0008DCDF0108C8DF010827
:10355000ACDF0108F8B5384F0025384C384A3846FA
:10356000384916F0F9F804F5C070256065612562E8
:10357000E56302F061FA344A40F20F733349C4F84C
:10358000382204F51472A4F83C3240F201132046AC
:10359000C4F89051C4F84852C4F84C522C4EC4E9B7
:1035A0009023274A16F0D8F82A4B2B494FF07E502B
:1035B0002A4A06F5B96E59604FF496511F609C6017
:1035C000316101215D61F0617561B161C3E903257C
:1035D0004FF07C5206F12803C6E90045C6E90255C2
:1035E00032620024002101221D48DFF88CC09C605B
:1035F0001C731C615961996183F82440DA63C3F834
:1036000040C05864C3E90044C3E9074248337345E6
:10361000E7D10B4A13490E48C6F8C84516F09CF886
:10362000074A1149114816F097F8054A1049114800
:10363000BDE8F84016F090B8B4B90024D4260024B0
:1036400000000024AD2800080080707FB128000829
:10365000F8200024440C0024781C0024180A0024BC
:103660000000A040B9280008B5280008D8090024A7
:10367000A9280008CC260024CDCC4C3F70B584B0DE
:10368000032301260024054601A900688DF80C409B
:10369000CDE9013604F012F910B1204604B070BD36
:1036A0003146686805F098F9686832460449043084
:1036B000FEF7B2FBB0FA80F0400904B070BD00BF65
:1036C000F4DF0108F0B50746F3B000214FF4805253
:1036D000183017F061FA7968684601F27441FEF714
:1036E000C3FF002840D104462CA96846FFF712F812
:1036F00045F62E7230BB9DF8C6301BB39DF8B8302E
:1037000013F0120FF0D1BDF8C6300CAD0DF1C601AB
:1037100093422846E8D018F041F815490646284655
:1037200018F04DF8034613492846C3B107EBC410FF
:103730000134721B2946A4B21830013217F01EFA68
:103740001E2CD1D9684607F58057FEF7CBFF002322
:103750007C83E01A3B8318BF012073B0F0BD18F0E2
:103760002EF80028E2D1EBE7002073B0F0BD00BFD7
:10377000FCDF010804E00108F0B50D468FB00646F5
:103780002C226B4603A92846FEF7AEFC00283BD14D
:10379000009B04462C2B02D020460FB0F0BD039BAB
:1037A00005994348434A069F834208BF9142DDF88A
:1037B00030C00CBF012400242AD13F4C3F4B9F4214
:1037C00008BFA4450CBF0124002434D106F580575E
:1037D000BDF82230099ABB84BDF92E30FA61FB8412
:1037E000002B0D9AB8BF07333A62DB10B2FBF3F33C
:1037F000BB626969F068F962FEF7E0FDB0FA80F437
:10380000640920460FB0F0BD002420460FB0F0BD83
:10381000834218BF9142294A14BF012300239742D3
:103820000CBF002303F0010313B1234B9C45B3D11C
:1038300006F58057DDE79F4206F58057D9D1099BF1
:1038400024212846FB61BDF82230BB84BDF82E3010
:10385000FB84FEF7B3FD10E0009A042A16D102A9FA
:103860002846FEF741FC019A134B28469A421CD089
:103870006969029B1944FEF7A1FD6B4601A9042268
:103880002846FEF731FC6B460028E5D00A4B019A2A
:103890009A4281D1B7F926303A6A002BB8BF073374
:1038A000DB10B2FBF3F3BB62A3E7029B3B62F1E7E1
:1038B000524946465741564564617461666D7420AD
:1038C0002DE9F04F03694FF0000900F5805583B0F2
:1038D000C3F800904369C3F80090AE6AB6F1807FE8
:1038E00003D9484603B0BDE8F08FB5F924804FEA0C
:1038F0008834B4F1804F74D20746002C6ED04FEA62
:10390000C83B584615F02FFF00EB0B0A04468245D2
:1039100003D05A46494617F03FF94645F8682CBF90
:103920004FF000094FF00109C26843699A4208BF8D
:1039300049F00109B9F1000F43D1B6FBF8F84E4642
:10394000A8EB0601B5F9242001ABB1F5804F28BFE3
:103950004FF4804101FB02F221465200FEF7C4FB06
:1039600088BBB5F92410019A4B009A42B2FBF3FCD4
:103970001FD303467200D7E904E00EE034F92310A8
:103980002EF80210A11C31F9231001339C458152FD
:1039900002F102020DD9B5F924100129EED134F952
:1039A000131001339C4581522EF8021002F10202DD
:1039B000F1D8F86866444269C3689A4201D0B045BC
:1039C000BED84FF00109002C8BD02046AAEB040191
:1039D00015F0C7FE484603B0BDE8F08F4FEAC83A7D
:1039E0009BE7014815F0D0FE0CE0010838B500F562
:1039F00080535A8B8A420CD31B8B05460C468B4254
:103A000013D105EBC4110122E8681831FEF730FA32
:103A100008B1002038BDE9682846FFF7ADFE40B187
:103A20002846BDE83840FFF74BBFC068FEF7B4FC3E
:103A3000E7E7E868FEF7B0FC002038BDC0E90412F3
:103A4000704700BFF7EE006ADFED1B7A844686EE12
:103A5000A77AF8B50646C3605CF8707BC0E901122E
:103A600000F5C2605CF8204C0125DFED137A4FF0C1
:103A7000000EAC424CF8285C4CED0D7A4CF8383C0A
:103A80004CF8487C0CED0C7A4CF82C4C4CE911129B
:103A900007D14FF07E544FF0FF354CF8344C4CF8C2
:103AA000285C0CF824EC0CF1480C8445DAD117F0B2
:103AB000E3FDC6F8CC05F8BD00000000142928BFBE
:103AC00014218161704700BFB2EE047A9FED0E5A57
:103AD000DFED0E5ADFED0E6AF0EE477A9FED0D6ACC
:103AE000E0EE057AC7FE877AC7FEE67AC7FE877AD8
:103AF000C7FEE67A67EEA57A67EE867AFCEEE77A8D
:103B0000C0ED047A704700BF00E03A456F12833A77
:103B100000803B4500803B47C368013B07EE903A7D
:103B2000F8EE677A27EE800ABCEEC00A80ED050A3F
:103B3000704700BFB7EE007AB1EE006AF1EE046A9A
:103B4000F0EE477AE0EE067AC7FE877AC7FEE67A9D
:103B5000F8FE677AFCEEE77A17EE903A142B28BF4E
:103B600014238361704700BFF0EE400ADFED0B7A4B
:103B7000B2EE040AC0EEA70A10B5044615F0F0FE36
:103B8000F6EE007AB0EE007A20EE270A80FE270AD1
:103B900080FE470A84ED070A10BD00BF789AD43F23
:103BA000002100F1280300F5B96C03E0013148332E
:103BB0009C4532D01A7B002AF8D182698A42F6D914
:103BC00010B4D0E90442D0ED077A07EE104A196923
:103BD000006AF8EE476A8A425C6328BF521A0121E4
:103BE00087EEA67A1A639A6A19731962012A4FF04E
:103BF0000001DA61596183ED067A05D14FF07E52FA
:103C00004FF0FF315A61196200225DF8044BC3ED99
:103C10000E7AD86283F824207047704700000000B5
:103C2000002B00F033812DE9F04F9B46814600F1D7
:103C30007003884617464FF0000A00F5C2652DED67
:103C4000068B83B001939FED9C9A4846019C002609
:103C5000F0EE499AFFF7A4FF02E04834AC422DD0C1
:103C600014F83C3C002BF8D014F8243CFBB954ED7C
:103C70000A7A54F82C3CF8EEE77A14ED0D7A54EDFC
:103C80000C6A022BA6EEA77A00F09880032B30D0A6
:103C9000012B00F0A680F7EE007AB4EEE77AF1EEA1
:103CA00010FA36DD012344ED0D7A04F8243C00239C
:103CB00004F83C3C48340136AC42D1D1002E00F02F
:103CC0009F8007EE906AF8EE677AC9EEA76A89EEE0
:103CD000277AC8ED006A87ED007A0AF1010A08F137
:103CE00004080437D345AED103B0BDEC068BBDE864
:103CF000F08FF7EE007AB4EEE77AF1EE10FA40F3C7
:103D0000B680F0EE007A4FF0FF3344F8283C37EEEF
:103D1000C77A54ED057A54ED046AF8EE677A54F8E0
:103D2000182C54F8383C04ED0D7A67EE877A67EE6C
:103D3000A67AFCEEE77A17EE901A114499420A46E9
:103D4000B5D254F80C0CDFED5D6A022854E911136A
:103D500031F9121033F9123007EE901A08EE103ACA
:103D6000F8EEE77AB8EEC88A27EEA6AA28EE268AE9
:103D700070D003285BD0012847D0F7EE008A78EE98
:103D8000C78AF7EE007A14ED070A77EEC07AF5EEEF
:103D9000407AF1EE10FA7AD4F1EEE7AAB5EE400AD5
:103DA000F1EE10FA7CD4F1EEC06A6AEE287A28EEC1
:103DB000287AE7EEAA9AA7EE269A7BE7F7EE007A32
:103DC000B4EEE77AF1EE10FAC8BF37EE677AB5EED7
:103DD000C07AF1EE10FA9CD5F7EE007A37EE277A2A
:103DE00097E7B5EEC07A4FF0FF32002144F8282C57
:103DF000F1EE10FA8DD504F8243C44F8341C56E753
:103E00000023C8F800303B6067E754ED027AB4EE57
:103E1000E77AF1EE10FA36D977EE677A54ED016A57
:103E2000B7EE007AA7EEE67AF0EE478AA9E7B7EE9A
:103E3000C77A9FED1F0B27EE000B15F0B5FCB7EE10
:103E4000007BB6EE006B37EE407B27EE067BF7EE8D
:103E5000C78B96E7F0EE006AFFEE007AF7EE008A75
:103E6000E7EE267AB0EEE77A78EEC78A89E7B5EE14
:103E7000C07AF1EE10FA7FF54CAF0123B1EE477A2C
:103E800044F8283C45E7F7EE008A7AE77047B0EE41
:103E9000670A15F0F9FEF0EE40AA14ED070A7DE777
:103EA00015F0F2FEF0EE406A7FE700BFAFF300804E
:103EB000182D4454FB211940000000000000003878
:103EC00000F068B938B5044600F088F9D4F8A85075
:103ED000204600F09FF9284601F056FCD4F8AC507B
:103EE000204600F097F92846BDE8384001F04CBC68
:103EF00038B5044600F052F9D4F8A850204600F036
:103F000089F9284601F040FCD4F8AC50204600F076
:103F100081F92846BDE8384001F036BC00F05AB9B6
:103F2000183002F017B900BF10B50446D83001F0C0
:103F3000F5FD04F59670BDE8104001F0EFBD00BF3F
:103F4000F0B54FF481718FB000F1D80701254FF41F
:103F5000C0624FF4E063ADF8081000F59674029962
:103F60003846ADF80C2008AEADF810300095DDE90C
:103F7000032301F07BFD40F201134FF480722046D1
:103F8000ADF814304FF48063059900950BADADF892
:103F90001820ADF81C30DDE9062301F067FD30463E
:103FA000072105F0EFFC96E8070085E807002946A1
:103FB000384601F09DFD96E8070085E80700294690
:103FC000204601F095FD384601F0A8FD20460FB0CF
:103FD000BDE8F04001F0A2BD2DE9F04140F20243FE
:103FE00004460222002504F1180704F1A8062DED6D
:103FF000028B8EB09FED1B8AADF80C3005A803999B
:1040000001F086FE02220DF12600ADF81020049981
:1040100001F07EFE0423022205A9384601F08CFE41
:1040200004F1680204F18803C4E92A2329463846CA
:1040300056F8048B02F0A4F801462046019100F0E6
:10404000E9F80023F0EE480A019940461A4601F0CB
:1040500045FB25B10EB0BDEC028BBDE8F08101251A
:10406000E4E700BF6F12033B2DE9F04104469AB02C
:104070000027019100F08CF80199204600F08AF9A0
:1040800040F6061304F1B0069FED400AADF8143077
:1040900004F1C0053046059901F04EFD4FF4007360
:1040A00028469FED3A0AADF8183004F5C87806990D
:1040B00001F042FD40F6033240F201639FED330A06
:1040C000ADF8082004F140000299ADF80C70C4F876
:1040D000D0600FAEC4F8D45007ADADF81030DDE9B4
:1040E000032301F07DFB2046FFF72AFF2046FFF760
:1040F00073FF284601F0A0FC01230DF12C0E04F5FE
:10410000C07C1593189347F6122316971993022330
:10411000179395E80F008CE80F008EE80F0086E8F3
:104120000F00BDF840301490ADF84E30BDF842306D
:10413000D4E9625EADF84C30C4E9655EBEF1000FB3
:1041400004D072463946284616F026FD13A940468B
:1041500004F078FA04F5D27001F082FC3021204698
:1041600000F03CF8D4F8A850204600F053F8284658
:1041700001F00AFBD4F8AC50204600F04BF828467A
:104180001AB0BDE8F04101F0FFBA00BF0000000026
:10419000704700BF143001F06DBA00BF38B500F1B0
:1041A000140504462DED028B284601F01FFA28461F
:1041B00001F018FA2846B0EE408A01F001FAD0ED7D
:1041C000007AF8EE677A88EE277ABDEC028B84EDF0
:1041D0000E7A38BD143001F005BA00BF38B500F1D1
:1041E000140504462DED028B284601F0EDF9284612
:1041F00001F0F8F92846B0EE408A01F0E1F9D0ED7F
:10420000007AF8EE677A88EE277ABDEC028B84EDAF
:104210000E7A38BD90ED0E0A704700BF10B540F21F
:1042200003338EB000244FF60B7240F20341ADF819
:10423000083009A80123ADF81020ADF8242022464B
:10424000ADF80C100094029907940C94CDE9054444
:10425000CDE90A4402F096F804A801232246039906
:10426000009402F08FF809A802F072F910B9012049
:104270000EB010BD04A802F06BF9A0420CBF0220E2
:1042800020460EB010BD00BF2DE9F04103239AB0C7
:10429000012700240646CDE914373B4BCDE91043F6
:1042A00040F20453CDE91647ADF84830FFF7B6FFAA
:1042B000B842054625D0022845D040F60132334B9E
:1042C0000DF12C081894ADF82C200B981997CDF807
:1042D0004A3000F0E3F810A906F13C0003F080F941
:1042E000302003224FF07E5341460D930E93CDE9CB
:1042F0000B02F26B06F1140001F02AF91AB0BDE8C6
:10430000F0811023214A06A906908DF828300DF17E
:104310002C081F4BCDF84A2007930294CDE91804CE
:10432000CDE9080402A802F093FB0823029A03A92E
:104330004046ADF80C508DF80E40049505930B9453
:1043400000F0ECF8C7E700200121104B0DF12C081C
:104350003A460094CDF84A304FF60B730C94ADF802
:104360002C302346CDE9180140F601314046ADF826
:1043700018100699CDE90D4402F004F82146404694
:1043800002F0F2F8A7E700BF0402040404060403E5
:104390000704010B2DE9F04704462DED028B82B096
:1043A00000294DD0012140F2011200230091ADF807
:1043B00004208DF80630364A0127364B04F10409F3
:1043C000354904F12908626040F20272A36040F6A8
:1043D0000663E16004F1250AA4F82520A4F8293039
:1043E000278284F8277084F82B7004F069FD054655
:1043F00004F0CCFB6946064650BB4DB304F13000D7
:104400008DF8067004F0E4FC072D3CD104F114058E
:104410002046FFF739FF284601F0E4F82846B0EEC1
:10442000408A01F0CDF8D0ED007AF8EE677A88EE98
:10443000277A84ED0E7A02B0BDEC028BBDE8F087DE
:1044400040F2011300918DF80610ADF80430B2E788
:1044500004F1300004F0BCFC072D11D04946204681
:1044600002F03EFD0EB9002DD0D1504602F086F884
:10447000404602F083F804F1120000F079F9C5E734
:10448000002EF2D1C2E74946204602F029FDBDE7E1
:104490000508050905070506050A060610B584B0D6
:1044A00003460124ADF8040003A8ADF80C30ADF8C4
:1044B0000E4002F063F8214603A802F049F92046B5
:1044C00004F062FB002103A802F042F9204604F048
:1044D0005BFB214603A802F03BF904B010BD00BF0E
:1044E00010B5C2F3002384B00C46017C8DF80D207A
:1044F00043EA4402FA2402238DF80C2003AA009414
:1045000002F03CFB18B10124204604B010BD044663
:104510000A2004F039FB204604B010BD034670B5F4
:1045200043F8042B044684B007C983E80700A37945
:1045300083B91A210B461E22FA2523742046ADF8B2
:104540000C20022303AA009502F018FB28B10120D9
:1045500004B070BD1B210B46EDE70A2004F014FBEC
:104560004FF4B85200950223ADF80C20204603AA60
:10457000217C02F003FB0028E9D10A2004F004FBAF
:1045800041F2027200950223ADF80C20204603AAE6
:10459000217C02F0F3FA0028D9D10A2004F0F4FAC1
:1045A000042200950223ADF80C20204603AA217CAA
:1045B00002F0E4FA0028CAD10A2004F0E5FA062243
:1045C00000950223ADF80C20204603AA217C02F0BE
:1045D000D5FA0028BBD10A2004F0D6FA41F208220D
:1045E00000950223ADF80C20204603AA217C02F09E
:1045F000C5FA0028ABD10A20064604F0C5FA00959A
:10460000022303AA217C2046ADF80C6002F0B6FA22
:1046100000289CD1304604F0B7FA009522790C238B
:104620002046002A8DF80C3003AA4FF0020314BF75
:10463000622142218DF80D10217C02F09FFA0028A2
:1046400085D1304604F0A0FA2279D4E902310B4337
:10465000DBB20AB943F0400362790AB143F02003A8
:104660000E22FA258DF80D302046009502238DF894
:104670000C2003AA217C02F081FA00287FF467AFA6
:104680000A2004F081FA102200950223ADF80C20D4
:10469000204603AA217C02F071FA00287FF457AF6C
:1046A0000A2004F071FA122100950223ADF80C10D3
:1046B00003AA217C204602F061FA00287FF447AF6C
:1046C0000A2004F061FA012209212046FFF708FFC1
:1046D000003818BF01203BE7F0B5102387B0234C0A
:1046E000012200250126002702A920460195CDE9D7
:1046F00002234FF48052CDE904670DF0F5F86420F1
:1047000005F0FCFC02A94FF480522046CDE9046775
:1047100002261027CDE902670DF0E6F803221023E8
:1047200002A92046CDE9022300230422CDE9042377
:104730004FF480520DF0D8F840F23223042202A93F
:10474000019310232046CDE90223019A012305920B
:104750004FF4805204930DF0C7F840F6060120464E
:104760000DF0E2F8284607B0F0BD00BFC0B9002444
:104770001C4B00221C494FF0400C30B5054689B057
:104780000220596007219A601A620124DA620A2223
:104790004FF4006EDC6006922022CDE90001042077
:1047A0000821CDE9020103201021CDE904010820F0
:1047B0006946C3E904024FF4C072181DC3E906C27A
:1047C0004FF48052C3E909E20DF064F838B9284685
:1047D000FFF782FF003818BF012009B030BD204626
:1047E00009B030BDBCB9002440410052614A0021EB
:1047F000D0B513688EB00A91002B40F0B9805E4BA3
:1048000001214FF683700C2411600221D3F8D420CB
:104810000026032742F48052C3F8D420D3F8D420D2
:1048200002F480520092009AD3F8E02042F0100285
:10483000C3F8E020D3F8E02002F010020192019AC0
:10484000D3F8E02042F04002C3F8E020D3F8E020A3
:1048500002F040020292029AD3F8E02042F00802ED
:10486000C3F8E020D3F8E02002F008020392039A94
:10487000D3F8E02042F48072C3F8E020D3F8E020BF
:1048800002F480720492049AD3F8E02042F080028D
:10489000C3F8E020D3F8E02002F080020592059AE8
:1048A000D3F8E02042F02002C3F8E020D3F8E02063
:1048B00002F020020692069AD3F8E02042F00402A9
:1048C000C3F8E020D3F8E0300C9403F0040307931E
:1048D0000323079A0B93CDE9080108A9274807F09D
:1048E00093FA48F23712022308A925480C94CDE91F
:1048F0000823CDE90A6707F087FA4CF20372022316
:1049000008A920480C94CDE90823CDE90A6707F0EF
:104910007BFA40F2FF62022308A91B480C94CDE900
:104920000823CDE90A6707F06FFA4FF60C720223ED
:1049300008A916480C94CDE90823CDE90A6707F0C9
:1049400063FA4FF63F02022308A911480C94CDE9FF
:104950000823CDE90A6707F057FA2022022308A9A5
:104960000A480C94CDE90A67CDE9082307F04CFA10
:104970000EB0D0BDB8B9002400440258001002584F
:1049800000180258000C025800200258001C02585F
:10499000001402582DE9F04FDFF8108406460D464A
:1049A000144608F118002DED028B89B000AF02F01B
:1049B0000FFFD8F8183073B3D8F81C30D8F804902B
:1049C000002B43690BBF4FF0080A4FF0100A4FF05D
:1049D000020B4FF0040BB9F1000F2AD0A200EA46F7
:1049E000012B02F1070222F00702ADEB020D68462F
:1049F000ADEB020D694600F03F81022B00F0D6803E
:104A0000002B6FD02246C847D5462437BD46BDECA3
:104A1000028BBDE8F08FD8F81C30002BF5D0D8F809
:104A200004904FF0080A4FF0020B4369B9F1000FF0
:104A3000D4D1FB61D8F80030BB61002BE5D0D5485C
:104A400002F038FF6B46BBF1020F786108EE103AB6
:104A5000FB6900F083816A465146A2EBC402954689
:104A60006200EA46B2FBFBF2AAEBC40085460AEB01
:104A70008200EE46F861ADEB010DF8690EEB820C99
:104A8000C7F810C0EC46ADEB010D00EB8201CCF88D
:104A90000400CCF8081001EB82013869E946CCF833
:104AA0000C1000EB8201CCF800A001EB8202C9E9F6
:104AB00000E0C9E90212012B00F06483022B00F030
:104AC0006C82002B00F08081620849466046BB6919
:104AD000984718EE103A24379D46BD46BDEC028B30
:104AE000BDE8F08F002C8DD01A46D8ED0C6A9FEDF2
:104AF000B27A8446331D36F922E00CF1080C07EE39
:104B000090EA33F922E00232F8EEE77A944267EE57
:104B1000877A67EEA67A4CED027A07EE90EAF8EE15
:104B2000E77A67EE877A67EEA67A4CED017AE2D8EB
:104B3000F9612246C847984ED8ED0D6A0020F96900
:104B40002B1D9FED9E7A9FED9E6ADFED9E5A22E01F
:104B5000F4EEC67AF1EE10FAC0F2C88447F6FE729F
:104B6000D1ED017A45F8202066EEA77AF4EEC77AF7
:104B7000F1EE10FA40F2F080F4EEC67AF1EE10FA9F
:104B8000C0F2D58447F6FE7243F820200230083187
:104B900084427FF639AFD1ED007A66EEA77AF4EE63
:104BA000C77AF1EE10FAD3D83246D9E7002C3FF499
:104BB00029AFD8ED0C6A84469FED787A0022331D28
:104BC0008E4656F822100CF1080C07EE901A53F896
:104BD00022100232F8EEE77A944267EE877A67EEA7
:104BE000A67A4CED027A07EE901AF8EEE77A67EEB5
:104BF000877A67EEA67A4CED017AE2D871462246B2
:104C0000C7F81CE0C847664ED8ED0D6A0020F96968
:104C10002B1D9FED6A7A9FED6A6ADFF894C120E050
:104C2000F4EEC67AF1EE10FAC0F279843246D1ED94
:104C3000017A45F8202066EEA77AF4EEC77AF1EE05
:104C400010FA40F28780F4EEC67AF1EE10FAC0F264
:104C50005E84324643F820200230083184427FF6D9
:104C6000D3AED1ED007A66EEA77AF4EEC77AF1EE14
:104C700010FAD5D86246DAE7002C3FF4C3AED8ED7F
:104C80000C6A86469FED477A4FF0000C331D56F8AC
:104C90002C200EF1080E82F40002A2F5000207EEAD
:104CA000902A53F82C200CF1020CF8EEE77A82F4EB
:104CB00000026445A2F5000267EE877A67EEA67AE5
:104CC0004EED027A07EE902AF8EEE77A67EE877AE1
:104CD00067EEA67A4EED017AD9D8F9612246C84727
:104CE000314ED8ED0D6A0020F9692B1D9FED337A06
:104CF0009FED336ADFF8BCC01FE0F4EEC67AF1EE38
:104D000010FAC0F2FC833246D1ED017A45F820203A
:104D100066EEA77AF4EEC77AF1EE10FA18D9F4EE3F
:104D2000C67AF1EE10FAC0F2DA83324643F8202058
:104D30000230083184427FF667AED1ED007A66EE2C
:104D4000A77AF4EEC77AF1EE10FAD6D86246DBE71E
:104D50006246EBE762467DE7324615E7A100D6469C
:104D60006208073121F00701ADEB010DEA46ADEB1A
:104D7000010D6946ADEB0E0D0AEB8200EC46ADEB82
:104D80000E0D01EB8202F861E946CCE900A0C9E909
:104D9000001290E610BA00240280FFFF00000030ED
:104DA0000082FF7F0000003482FF7F00F4B90024FE
:104DB000007E00807E0080FF0000003804FF7FBF7F
:104DC00004FF7F3F00FEFF46002C00F0C982BBF1CC
:104DD000020FD8F8242000F0FA827969C7F804900D
:104DE00002EB810E5FED0C5A8A00DCF808100EF120
:104DF00004007A611A46DCF80C303B61331DD7F8A9
:104E000010903D61FD69C7E902CB8C46834636F9B7
:104E10002210D8ED0C7A06EE101A33F9221006EEA5
:104E2000901A3EF92210B8EEC66A07EE101AF8EE94
:104E3000E66A3BF92210B8EEC77A26EE256A66EEDE
:104E4000A56A27EE257A26EE276A66EEA76A27EE80
:104E5000277A07EE901A51080232F8EEE77A0AEB49
:104E60008100944280ED006A05EB810067EEA57A2F
:104E7000C0ED006A0CEB810009EB810180ED007A46
:104E800098ED0C7A67EE877AC1ED007ABFD8D7F833
:104E900004903D69D7E902CB60466208BB69494688
:104EA0009847D8F82C307A69D8ED0D6A1A441FED6E
:104EB0003D7A1FED3D6A2B1D904602F1040A5FED1D
:104EC0003F5A0022A84ED9E900EC51E0F4EEC67A30
:104ED000F1EE10FAC0F2C78247F6FE7045F82200E4
:104EE0000CEB0100D0ED007A66EEA77AF4EEC77AFB
:104EF000F1EE10FA4BD9F4EEC67AF1EE10FAC0F2E8
:104F0000BA8247F6FE70BBF1020F43F822002BD0A5
:104F1000D9F808000844D0ED007A66EEA77AF4EEDE
:104F2000C77AF1EE10FA36D9F4EEC67AF1EE10FA3D
:104F3000C0F2CD8247F6FE7048F82200D9F80C0086
:104F40000144D1ED007A66EEA77AF4EEC77AF1EE6D
:104F500010FA1ED9F4EEC67AF1EE10FAC0F2AF8262
:104F600047F6FE714AF82210023294427FF6B1AD44
:104F700051080EEB81008900D0ED007A66EEA77A29
:104F8000F4EEC77AF1EE10FAA0D83046A6E7304624
:104F9000B9E73146E6E73046CEE7002C00F0E08185
:104FA000BBF1020FD8F8243000F0E1817A69DCF817
:104FB000081003EB820EC7F804909300DFED6B5AE4
:104FC0000EF1040000227B61DCF80C303B61331DE4
:104FD000D7F810903D61FD69C7E902CB8C46834646
:104FE00056F82210D8ED0C7A07EE101A53F822105A
:104FF000B8EEC76A07EE101A5EF82210F8EEC76A1C
:1050000007EE101A26EE256A5BF82210B8EEC77A72
:1050100066EEA56A26EE276A27EE257A66EEA76A6F
:1050200027EE277A07EE901A51080232F8EEE77A57
:105030000AEB8100944280ED006A05EB810067EE87
:10504000A57AC0ED006A0CEB810009EB810180EDCF
:10505000007A98ED0C7A67EE877AC1ED007ABFD8B6
:10506000D7F804903D69D7E902CB60466208BB6976
:1050700049469847D8F82C307A69D8ED0D6A1A4419
:105080009FED3E7A9FED3E6A131D9246DFF8E4C025
:105090000022FB612B1D364ED9E9008E4EE0F4EE66
:1050A000C67AF1EE10FAC0F2FC81304645F82200D3
:1050B0000EEB0100D0ED007A66EEA77AF4EEC77A27
:1050C000F1EE10FA49D9F4EEC67AF1EE10FAC0F218
:1050D000EF813046BBF1020F43F822002AD0D9F805
:1050E00008000844D0ED007A66EEA77AF4EEC77A9D
:1050F000F1EE10FA35D9F4EEC67AF1EE10FAC0F2FC
:10510000C98130464AF82200D9F80C000144D1ED9B
:10511000007A66EEA77AF4EEC77AF1EE10FA1ED99D
:10512000F4EEC67AF1EE10FAC0F2AD813146F869BC
:1051300040F82210023294427FF6CBAC510808EBC3
:1051400081008900D0ED007A66EEA77AF4EEC77A86
:10515000F1EE10FAA3D86046A8E76046BAE76146C8
:10516000E5E76046CEE700BF0280FFFF00000030A9
:105170000082FF7F007E00800000003404FF7FBFBC
:1051800004FF7F3F002C00F0EB807A690021D8F803
:105190002430C7F8109003EB820ED7F81C909300D0
:1051A000FD610EF104021FED0C6A7B61331D154693
:1051B00056F821204808D8ED0C6ABBF1020F82F4A2
:1051C0000002A2F5000207EE902A53F8212082F493
:1051D0000002B8EEE77AA2F5000227EE067A07EEA3
:1051E000902A0AEB8002F8EEE77A27EE267A67EE3D
:1051F000867A82ED007A09EB80024FEA800067EE42
:10520000A67AC2ED007A27D05EF8212082F400024F
:10521000A2F5000207EE902A55F8212082F4000240
:10522000B8EEE77AA2F5000227EE067A07EE902A9A
:10523000DCF80820F8EEE77A024427EE267A67EEDB
:10524000867A82ED007A98ED0C7ADCF80C2067EE15
:10525000877A0244C2ED007A02318C42A8D8D7F88E
:10526000109060466208BB694946FD699847D8F8C6
:105270002C307A69D8ED0D6A1A441FED407A1FED83
:10528000406A131D9246DFF8C4C20022FB612B1D49
:10529000AB4ED9E9008E4EE0F4EEC67AF1EE10FA8C
:1052A000C0F2C580304645F822000EEB0100D0ED7B
:1052B000007A66EEA77AF4EEC77AF1EE10FA49D9D1
:1052C000F4EEC67AF1EE10FAC0F2BF803046BBF1C0
:1052D000020F43F822002AD0D9F808000844D0ED84
:1052E000007A66EEA77AF4EEC77AF1EE10FA35D9B5
:1052F000F4EEC67AF1EE10FAC0F2AE8030464AF80B
:105300002200D9F80C000144D1ED007A66EEA77AAC
:10531000F4EEC77AF1EE10FA1ED9F4EEC67AF1EE89
:1053200010FAC0F28B803146F86940F82210023240
:1053300094427FF6CEAB510808EB81008900D0ED96
:10534000007A66EEA77AF4EEC77AF1EE10FAA3D8E7
:105350006046A8E76046BAE76146E5E76046CEE703
:10536000224649466046BB699847FFF7B2BBC7F87B
:1053700010B0002298ED0C6A331DDFED726AD7F889
:105380001CB0786956F8221007EE901A53F82210D4
:10539000B8EEE77A07EE901A51080232F8EEE77A93
:1053A00027EE267A0AEB810E94420BEB810167EE21
:1053B000A67A27EE067A67EE867A8EED007AC1ED40
:1053C000007ADFD88300D7F810B07B614DE61A462B
:1053D000C7F810B098ED0C6A331DDFED5B6AD7F8A3
:1053E0001CB0786936F9221007EE101A33F9221032
:1053F00007EE901AB8EEC77A51080232F8EEE77A53
:1054000027EE267A0AEB810E94420BEB810167EEC0
:10541000A67A27EE067A67EE867A8EED007AC1EDDF
:10542000007ADFD88300D7F810B07B6134E5F0EE66
:10543000675AFEEEE45A15EE900A34E7F0EE675A2A
:10544000FEEEE45A15EE901A6EE7F0EE675AFEEEA5
:10545000E45A15EE900A3AE7F0EE675AFEEEE45A87
:1054600015EE900A4BE767EEA57AFDEEE77A17EEA8
:10547000900A00B232E567EEA57AFDEEE77A17EE04
:10548000900A00B23FE5F0EE675AFEEEE05A15EEE4
:10549000901A4CE6F0EE675AFEEEE05A15EE900ACE
:1054A00030E6F0EE675AFEEEE05A15EE900AFDE5A2
:1054B000F0EE675AFEEEE05A15EE900A0AE667EE45
:1054C000A57AFDEEE77A17EE901A09B24AE567EE83
:1054D000A57AFDEEE77A17EE900A00B22CE5F0EE21
:1054E000675AFEEEE45A15EE902A1FE467EEA57A9D
:1054F000FDEEE77A17EE902A12B2FFF731BBF0EE1D
:10550000675AFEEEE45A15EE902AFFF7FDBBF0EE67
:10551000675AFEEEE05A15EE902AFFF79BBBF0EEBD
:10552000675AFEEEE05A15EE902AFFF780BB67EE51
:10553000A57AFDEEE77A17EE902A12B2FFF724BBA8
:1055400082FF7F0000000030000000387E0080FFF6
:1055500030B5184C154685B0046004F1080EEC46D1
:105560000FC98EE80F00D4ED047AF5EEC07A8CE80E
:105570000F00F1EE10FA1ADDB7EE006A94ED057A2D
:1055800027EE277AC6EE276A84ED0D7AC4ED0C6A01
:105590006DB1204640F8185F02F01AF90649036918
:1055A0000020064A2162A262E36005B030BD0120FE
:1055B00005B030BDF4B900240020003000000030F8
:1055C00000680830704700BFB1F5807F03680A4665
:1055D00028BF4FF48072B1F5807F9A6094BF00209D
:1055E000012070470068183002F052B970B50468A5
:1055F0008AB0A369E160CBB104F11805284602F036
:10560000E7F88446EE46E668BCE80F00AEE80F0017
:10561000BCE80F00AEE80F009CE803008EE8030032
:1056200069462846049601F0DBFFF8B9E069D8B175
:1056300004F11C05284602F0CBF88446EE46E468E7
:10564000BCE80F00AEE80F00BCE80F00AEE80F00AA
:105650009CE803008EE8030069462846049401F0A4
:10566000BFFF003818BF01200AB070BD01200AB08A
:1056700070BD00BF30B5046883B00D46E3694BB11F
:10568000A3680020E26A616A9B00009004F11C009C
:1056900002F0A0F8A3680748A26A9B00216A009064
:1056A00004F1180002F096F80020C4E9005003B09D
:1056B00030BD00BF9549000810B4074B4FF07E5134
:1056C00030240022032019619C60D8605DF8044BEF
:1056D0005961C3E906227047F4B90024F6EE007A56
:1056E0009FED166A20EE207A0160F7EE006A80EDE9
:1056F000036A80ED020A27EE277AC6EE877AF4EE77
:10570000E67AF1EE10FA11DDF0EE667A4FF07E5196
:105710004FF0000C02760022C0ED017AC0F814C0F0
:10572000016143768276C0ED070A7047F4EEC67ACF
:10573000F1EE10FAEAD5F0EE467AE7E70000000055
:105740000268037E128807EE902AFBEEC87A1BB12E
:10575000B7EE007A77EE677AD0ED056A90ED047ABD
:1057600077EEE67A437E67EE877A0BB1F1EE677AE1
:1057700090ED030A90ED017A77EEC07AA7EE270A42
:1057800080ED030A704700BF837E80ED020AABB94B
:10579000D0ED077A27EE800AF6EE007AB7EE007AAF
:1057A00020EE270AC7EE007AF4EEC77AF1EE10FA7F
:1057B00007DDF0EE477AC0ED017A7047DFED067A3B
:1057C000E8E7F5EEC07AF1EE10FAF4D5DFED037AF2
:1057D000C0ED017A704700BF6F12033B000000006C
:1057E00030B585B004460025ADF80C10ADF80820A2
:1057F000ADF8043003F0C6F9BDF80C204FF4807307
:10580000206004F118002283BDF808206383E3833D
:10581000A283257100F0B2FE04F11C0000F0AEFE80
:105820009FED060A019904F1080000F085F94FF692
:10583000FF736562238405B030BD00BF0000000027
:10584000F8B5044603F09EF90026236826718342CA
:1058500005D104F10800BDE8F84000F087B9012740
:1058600094F82050206004F11800BD40277100F02A
:1058700061FF6DB2284394F82150BD4084F82000A8
:1058800004F11C0000F056FF94F820306DB26662FF
:1058900003F003032843022BC0B284F8210009D08F
:1058A00000F003000228D4D1002BD2D14FF0FF33F7
:1058B0006362CEE78307CCD16762CAE7704700BF57
:1058C000F8B5134F3C687F2C07D98023114A42F268
:1058D00024411C463B60A2F87E100F4D2B68012B23
:1058E0000AD90C4E0D4D22463146284600F0F4F9F7
:1058F0000028F8D13860F8BD22460649074800F074
:10590000EBF90028F7D12B68386001332B60F8BD24
:1059100030BA002434BA00242CBA0024B4BA0024CB
:1059200030B4154C2168F1B14B1E144DE81810F835
:1059300001298C4619460A2A01D00D2A02D14BB101
:10594000013BF4E70CF102037F2B10D98023236085
:1059500030BC70470122022323600D200A236854C3
:10596000AB5430BC704701220223044DF4E70CF124
:1059700001026146F0E700BF30BA002434BA0024C7
:1059800010B5094C02460B46084821680844C1F18D
:10599000800115F055FF236818442060FFF7C0FF11
:1059A000FFF78EFF10BD00BF30BA002434BA0024C8
:1059B0000FB400B583B004A951F8040B0191FFF7AF
:1059C000DFFF03B05DF804EB04B0704710B5044688
:1059D00000210A4800F0FAF8002C094B14BF0222FB
:1059E000002208481A60FFF7E3FF0748FFF7E0FFCF
:1059F0000A20BDE8104003F0C7B800BFB4BA0024C5
:105A00002CBA002440E0010850E00108064A07498A
:105A1000074808B513F0A0FE034A04490548BDE84D
:105A2000084013F099BE00BF00000024BD580008D4
:105A3000B4BA0024B8BA0024074A118830B481806F
:105A40000024064D91884FF4807285600460C18007
:105A5000C26030BC704700BF78DA010800400030F7
:105A600000220A2302700371704700BF30B585B071
:105A700004469FED110A9DF82050ADF80C100399D3
:105A8000ADF808202A46ADF804308DED000A11F07B
:105A9000DFFC9DED000A2A46029904F11C0011F07A
:105AA000D7FC9DED000A2A46019904F1380005B0A3
:105AB000BDE8304011F0CCBC00007A4410B52DEDAB
:105AC000028BF0EE608A0446B0EE418A11F0E4FCED
:105AD00004F11C00B0EE680A11F0DEFCB0EE480ADA
