:020000042400D6
:1000000000000220110A00240D0A00245595002446
:100010000D0A00240D0A00240D0A0024000000002F
:100020000000000000000000000000000D0A002495
:100030000D0A0024000000000D0A0024D9940024B9
:100040000D0A00240D0A00240D0A00240D0A0024C4
:100050000D0A00240D0A00240D0A00240D0A0024B4
:100060000D0A00240D0A00240D0A0024D97B002467
:10007000E57B002439690024F17B0024FD7B00240A
:10008000558F0024057100240D0A00240D0A002458
:100090000D0A00240D0A00240D0A00240D0A002474
:1000A0000D0A00240D0A00240D0A00240D0A002464
:1000B00079830024858300249183002439710024EE
:1000C0000D0A0024457100240D0A0024798F0124B3
:1000D000858F0124898D0024B58D0024E98D0024AD
:1000E0000D0A00240D0A0024000000000D0A00245F
:1000F0000D0A00240D0A00240D0A00240D0A002414
:100100000D0A0024498100249D830024918F01243D
:100110001D8E0024518E00240D0A00240D0A002497
:100120000D0A00240D0A0024B58F0124E98F012453
:10013000898F00240D0A00240D0A00240D0A0024D2
:1001400000000000000000000000000000000000AF
:100150000D0A00240D0A00240D0A0024858E0024B7
:10016000517100240D0A0024E99400240D95002407
:100170000D0A0024319500240D0A00240D0A0024E4
:100180000D0A00240D0A0024B98E0024ED8E0024EF
:100190009D8F0124A98F01240D0A00240D0A00243B
:1001A0000D0A00240D0A00240D0A00240D0A002463
:1001B000F97800240D0A00240D0A00240D0A0024F9
:1001C0000D0A00240D0A0024F963002405640024AC
:1001D0000D0A0024116400240D0A00240D0A0024D5
:1001E0000D0A00240D0A00240D0A00240D0A002423
:1001F0000D0A00240D0A00240D0A00240D0A002413
:100200000D0A00240D0A00240D0A00240D0A002402
:100210000D0A00240D0A00240D0A00240D0A0024F2
:100220000D0A00240D0A00240D0A0024000000001D
:100230000D0A00240D0A0024000000000D0A00240D
:100240000D0A00240D0A00240D0A00240D0A0024C2
:100250000D0A00240D0A00240D0A00240D0A0024B2
:100260000D0A00240D0A00240D0A00240D0A0024A2
:100270000D0A00240D0A0024218F00240000000034
:100280000D0A00240D0A00240D0A002400000000BD
:08029000000000000D0A00242B
:1002A00010B5054C237833B9044B13B10448AFF3B0
:1002B00000800123237010BD78070020000000009B
:1002C0004C05022408B5034B1BB103490348AFF3A7
:1002D000008008BD000000007C0700204C050224BF
:1002E00001F0FF01102A2BDB10F0070F08D010F8E7
:1002F000013B013A8B422DD010F0070F42B3F6D1EB
:10030000F0B441EA012141EA014122F007047FF003
:1003100000070023F0E80256083C85EA010586EA5A
:10032000010685FA47F5A3FA87F586FA47F6A5FA96
:1003300087F68EB9EED1F0BC01F0FF0102F00702A2
:1003400032B110F8013B013A83EA010313B1F8D14D
:100350000020704701387047002D06BF354603382E
:10036000073815F0010F07D1013015F4807F02BF67
:10037000013015F4C03F0130F0BC0138704700BFB8
:10038000034613F8012B002AFBD1181A01387047D5
:1003900081F0004102E000BF83F0004330B54FEA36
:1003A00041044FEA430594EA050F08BF90EA020FA3
:1003B0001FBF54EA000C55EA020C7FEA645C7FEA36
:1003C000655C00F0E2804FEA5454D4EB5555B8BF59
:1003D0006D420CDD2C4480EA020281EA030382EACA
:1003E000000083EA010180EA020281EA0303362D5C
:1003F00088BF30BD11F0004F4FEA01314FF4801C2F
:100400004CEA113102D0404261EB410113F0004F40
:100410004FEA03334CEA133302D0524263EB4303F7
:1004200094EA050F00F0A780A4F10104D5F1200E95
:100430000DDB02FA0EFC22FA05F2801841F10001F0
:1004400003FA0EF2801843FA05F359410EE0A5F1C4
:1004500020050EF1200E012A03FA0EFC28BF4CF0F5
:10046000020C43FA05F3C01851EBE37101F00045AB
:1004700007D54FF0000EDCF1000C7EEB00006EEBB8
:100480000101B1F5801F1BD3B1F5001F0CD3490842
:100490005FEA30004FEA3C0C04F101044FEA445299
:1004A00012F5800F80F09A80BCF1004F08BF5FEA20
:1004B000500C50F1000041EB045141EA050130BD00
:1004C0005FEA4C0C404141EB0101013C28BFB1F512
:1004D000801FE9D291F0000F04BF01460020B1FA5D
:1004E00081F308BF2033A3F10B03B3F120020CDA30
:1004F0000C3208DD02F1140CC2F10C0201FA0CF00E
:1005000021FA02F10CE002F11402D8BFC2F1200C72
:1005100001FA02F120FA0CFCDCBF41EA0C01904028
:10052000E41AA2BF01EB0451294330BD6FEA040471
:100530001F3C1CDA0C340EDC04F11404C4F120025C
:1005400020FA04F001FA02F340EA030021FA04F36E
:1005500045EA030130BDC4F10C04C4F1200220FAC5
:1005600002F001FA04F340EA0300294630BD21FA03
:1005700004F0294630BD94F0000F83F4801306BFC9
:1005800081F480110134013D4EE77FEA645C18BFBD
:100590007FEA655C29D094EA050F08BF90EA020F54
:1005A00005D054EA000C04BF1946104630BD91EA4C
:1005B000030F1EBF0021002030BD5FEA545C05D14F
:1005C0004000494128BF41F0004130BD14F580048E
:1005D0003CBF01F5801130BD01F0004545F0FE4102
:1005E00041F470014FF0000030BD7FEA645C1ABF37
:1005F000194610467FEA655C1CBF0B46024650EA6E
:10060000013406BF52EA033591EA030F41F4002199
:1006100030BD00BF90F0000F04BF0021704730B51F
:100620004FF4806404F132044FF000054FF00001F4
:1006300050E700BF90F0000F04BF0021704730B5B5
:100640004FF4806404F1320410F0004548BF40428A
:100650004FF000013EE700BF42004FEAE2014FEADF
:1006600031014FEA02701FBF12F07F4393F07F4FBA
:1006700081F06051704732F07F4208BF704793F0BD
:100680007F4F04BF41F40021704730B54FF46074D0
:1006900001F0004521F000411CE700BF50EA0102D3
:1006A00008BF704730B54FF000050AE050EA01027C
:1006B00008BF704730B511F0004502D5404261EBEC
:1006C00041014FF4806404F132045FEA915C3FF42D
:1006D000D8AE4FF003025FEADC0C18BF03325FEACA
:1006E000DC0C18BF033202EBDC02C2F1200300FA7B
:1006F00003FC20FA02F001FA03FE40EA0E0021FAA0
:1007000002F11444BDE600BF53B94AB9002908BF3D
:1007100000281CBF4FF0FF314FF0FF3000F074B9DC
:10072000ADF1080C6DE904CE00F006F8DDF804E048
:10073000DDE9022304B070472DE9F047089D044627
:100740008E46002B4DD18A42944669D9B2FA82F284
:1007500052B101FA02F3C2F1200120FA01F10CFAC0
:1007600002FC41EA030E94404FEA1C48210CBEFBF8
:10077000F8F61FFA8CF708FB16E341EA034306FB81
:1007800007F199420AD91CEB030306F1FF3080F010
:100790001F81994240F21C81023E63445B1AA4B25D
:1007A000B3FBF8F008FB103344EA034400FB07F7FF
:1007B000A7420AD91CEB040400F1FF3380F00A8140
:1007C000A74240F207816444023840EA0640E41B35
:1007D00000261DB1D4400023C5E900433146BDE8E1
:1007E000F0878B4209D9002D00F0EF800026C5E983
:1007F000000130463146BDE8F087B3FA83F6002E9B
:100800004AD18B4202D3824200F2F980841A61EB12
:10081000030301209E46002DE0D0C5E9004EDDE730
:1008200002B9FFDEB2FA82F2002A40F09280A1EB18
:100830000C014FEA1C471FFA8CFE0126200CB1FB6D
:10084000F7F307FB131140EA01410EFB03F0884266
:1008500008D91CEB010103F1FF3802D2884200F2F3
:10086000CB804346091AA4B2B1FBF7F007FB101185
:1008700044EA01440EFB00FEA64508D91CEB040423
:1008800000F1FF3102D2A64500F2BB800846A4EB7E
:100890000E0440EA03409CE7C6F12007B34022FA69
:1008A00007FC4CEA030C20FA07F401FA06F31C4398
:1008B000F9404FEA1C4900FA06F3B1FBF9F8200CA5
:1008C0001FFA8CFE09FB181140EA014108FB0EF0EB
:1008D000884202FA06F20BD91CEB010108F1FF3A3B
:1008E00080F08880884240F28580A8F10208614447
:1008F000091AA4B2B1FBF9F009FB101144EA014155
:1009000000FB0EFE8E4508D91CEB010100F1FF34FF
:100910006CD28E456AD90238614440EA0840A0FB97
:100920000294A1EB0E01A142C846A64656D353D06D
:100930005DB1B3EB080261EB0E0101FA07F722FA91
:1009400006F3F1401F43C5E9007100263146BDE8BA
:10095000F087C2F12003D8400CFA02FC21FA03F31D
:10096000914001434FEA1C471FFA8CFEB3FBF7F09E
:1009700007FB10360B0C43EA064300FB0EF69E42C3
:1009800004FA02F408D91CEB030300F1FF382FD25C
:100990009E422DD9023863449B1B89B2B3FBF7F604
:1009A00007FB163341EA034106FB0EF38B4208D9DD
:1009B0001CEB010106F1FF3816D28B4214D9023E1E
:1009C0006144C91A46EA004638E72E46284605E73C
:1009D0000646E3E61846F8E64B45A9D2B9EB02080D
:1009E00064EB0C0E0138A3E74646EAE7204694E79D
:1009F0004046D1E7D0467BE7023B614432E73046D0
:100A000009E76444023842E7704700BFFEE7000090
:100A10000848094A0949121A1BF0C4FA0848094A49
:100A20000021121A1BF0E6FA1BF088FA01F0F4FD1F
:100A3000FEE700BF000000207407002084050224A8
:100A400078070020B4990120034B1A1803EB8003A8
:100A50005B68107B5B681847A4090020064B1A5C92
:100A600042B901221A541A1803EB8003107B5B6809
:100A70001B68184700207047A409002030B4054CBB
:100A8000251804EB800460688468287BA44630BC89
:100A9000604700BFA409002030B4054C251804EBC2
:100AA00080046068C468287BA44630BC604700BFEF
:100AB000A4090020054B10B41C1803EB80035B68ED
:100AC000207B1B695DF8044B184700BFA409002078
:100AD000006870470B0A017043700B0C090E83709D
:100AE000C1707047024400F8011B9042FBD170476F
:100AF000C3690239023B8B4283BF4389006B01FB10
:100B00000300002070470268490A836A528904334F
:100B1000B1FBF2F1186830B1814202D3091A0833EF
:100B2000F8E7586808447047C2F307238A76CB7603
:100B30000378032B01BF120C0A75120A4A7570471D
:100B400000F10B010022D30143EA520310F8012BFC
:100B500052FA83F38842DAB2F5D1104670470000AA
:100B60000368014610B553B11846024610F8014B10
:100B70001F2C10D93A2CF8D1581C824202D04FF0C9
:100B8000FF3007E01B78303BD8B20128F7D801329C
:100B900018460A6010BD014B1878FBE79407002047
:100BA00038B50D46044618B9092000232B6038BD1E
:100BB0000368002BF8D01A78002AF5D08188DA88EB
:100BC0009142F1D15878FFF73FFF10F00100EBD1CF
:100BD0002368EBE72DE9F0410025D0F800800646B8
:100BE0000C468D758369002B59D0C36A01330AD036
:100BF00001F11607D8F80C3033F81500002850D151
:100C000025440023AB75F1690023A57D2E274E1ED8
:100C1000184616F8012F0130202A26D0052A08BFD1
:100C2000E522092807D104EB030C0DB98CF81670E6
:100C300001338CF8097004EB030C8CF809209DB982
:100C4000A2F1410EBEF1190F0CD8082891F80C80C2
:100C50008CBF4FF0100E4FF0080E18EA0E0F1CBF9D
:100C60002032D2B28CF8162001330B28D1D12DB905
:100C7000E21895750A7B002A08BF0023234400224E
:100C800001F11C005A72CB7A2372FFF721FF20601A
:100C900001F11600FFF71CFFE080000CA080BDE80A
:100CA000F081002101F052FC30B10135B5F5807FB3
:100CB00002D007F8010B9DE70025A1E701380A449F
:100CC00011F8013B914200F8013FF9D170472DE93D
:100CD000F041466B00F13808044601233246414694
:100CE0004078FFF7D9FE0546A8B9A36A226AF31A2D
:100CF000E070934202D2A778012F02D82846BDE8BF
:100D0000F081236A41466078013F1E440123324648
:100D1000FFF7C2FEF0E70125F0E7C3780BB1FFF75C
:100D2000D6BF1846704738B5436B05460C468B4214
:100D300010D0FFF7F2FF60B92246012305F1380118
:100D40006878FFF79BFE00281CBF4FF0FF3401209E
:100D50006C6338BD0020FCE7002310B5C3704FF072
:100D6000FF3304464363FFF7DEFF034618BBB4F8C6
:100D700036124AF6552291421FD194F83820E92ABA
:100D800005D0A26B0F4902F0FF128A4217D104F17D
:100D90006E000D4AFFF79CFE20F07F40904208D085
:100DA00002F14C5204F18A00FFF792FE904218BF04
:100DB0000223184610BD0423FBE70323F9E70223AF
:100DC000F7E700BFEB009000464154002DE9FF41DA
:100DD00000230F4615460B60FFF7C2FE061EC0F249
:100DE00013818C4B53F82640002C00F00F813C609F
:100DF00005F0FE0523786BB16078FFF725FEC1078B
:100E000008D41DB110F0040500D00A25284604B00E
:100E1000BDE8F0810023F0B223706070FFF71EFE82
:100E2000C20700F1F5800DB14307EED40021204642
:100E3000FFF792FF022840F0CC806F4604F5FF7365
:100E400004F23E213A4613F8040C10B11846FFF79D
:100E50003FFE103342F8040B8B42F4D1002557F8C3
:100E6000046B002E00F0AC8031462046FFF774FF83
:100E7000012800F2A680B4F84330B3F5007F40F0BB
:100E8000AC80B4F84E1021B904F15C00FFF720FEED
:100E9000014694F8483021625A1EA370012A00F2DC
:100EA0009C8094F845506581002D00F096806A1E64
:100EB0002A4240F09280B4F8498018F00F0FA4F84D
:100EC000088040F08A80B4F84B0018B904F158004B
:100ED000FFF7FEFDB4F84670002F7ED001FB03FE45
:100EE00007EB181CF444604577D3A0EB0C02AA4230
:100EF000B2FBF5F371D34FF6F572934271D840F619
:100F0000F575AB428CBF02250125023337440CEB4B
:100F10000602032DE3616662A762226363D1B4F81F
:100F2000622052EA080258D19B0004F16400FFF7E6
:100F3000CFFDE06203F2FF13B1EB532F4DD34FF01F
:100F4000FF33032DC4E904334FF0800323712BD109
:100F5000B4F86830012B27D1711C2046FFF7E3FE5F
:100F600010BBB4F836224AF6552320719A421BD1A1
:100F7000294B04F13800FFF7ABFD984214D103F17F
:100F8000FF5304F50770FFF7A3FD03F5005320336B
:100F9000984209D104F50870FFF79AFD606104F5E5
:100FA0000970FFF795FD20611C4A25700025138804
:100FB000A56101339BB21380E380194BE36025E701
:100FC00003200135042D7FF44AAF042805D1012503
:100FD0001CE70428FBD0012801D90D2516E70026BF
:100FE00049E7032591E7B8F1000FF6D0022D4FEA4B
:100FF000430277441ABFD21803F001031346E76295
:1010000018BF03EB520395E70B25FFE60C25FDE621
:101010000325FBE69807002052526141A0070020FB
:10102000A207002001292DE9F04706460C46174685
:1010300074D9C3698B4271D90378022B40D0032B3A
:1010400051D0012B6AD101EB5108816A01EB582183
:10105000FFF769FE054640BB14F0010406F13809AC
:1010600008F1010AC8F3080808BFFBB230461FBFE9
:1010700019F8083003F00F023B0103F0F00318BF2A
:10108000134309F808300123B16AF37001EB5A21C8
:10109000FFF749FE054640B9CAF3080A44B1C7F351
:1010A000071709F80A700123F3702846BDE8F08796
:1010B00019F80A30C7F3032723F00F031F43F0E7A3
:1010C000816A01EB1421FFF72EFE05460028ECD1C2
:1010D000640006F1380304F4FF741F551819C7F3B0
:1010E00007274770DFE7816A01EBD411FFF71BFE8A
:1010F00005460028D9D1A40006F1380327F070472F
:1011000004F4FE741C442046FFF7E2FC00F070403B
:1011100047EA00012046FFF7DDFCC4E70225C4E7EB
:10112000F8B50446FFF7F9FD0546002842D12378BB
:10113000032B37D12779012F34D104F138065523F9
:1011400001464FF400723046FFF7CCFC84F836328B
:10115000AA234122722104F5087084F83732522301
:1011600084F83B2084F8383084F83930612384F8DF
:101170001C1284F83A3084F81F3284F81D1284F867
:101180001E226169FFF7A6FC216904F50970FFF7CB
:10119000A1FC626A3B463146013260786263FFF728
:1011A0007BFC2571002260781146FFF783FC003834
:1011B00018BF0120F8BD03284B8B04BF8A8A43EA7D
:1011C0000243184670470129F8B506460C464ED929
:1011D000C36999424BD20378022B29D0032B34D018
:1011E000012B44D101EB5105816A01EB5521FFF739
:1011F0009AFD10B14FF0FF30F8BD6F1CC5F3080524
:10120000B16A3046354401EB572195F83850FFF765
:101210008AFD0028EED1C7F30807E3073E4496F89D
:10122000380045EA00204CBF0009C0F30B00E3E79B
:10123000816A01EB1421FFF776FD0028DAD1640002
:1012400004F4FF742644308FD6E7816A01EBD41191
:10125000FFF769FD0028CDD1A40006F1380004F4A1
:10126000FE742044FFF734FC20F07040C4E70120F6
:10127000C2E773B50C46064611460568012C2CD909
:10128000EB69A34229D92AB14FF0FF322846FFF774
:10129000C9FE40B9214630680194FFF794FF0199D7
:1012A000044610B9002002B070BD012815D0431CBF
:1012B00015D000222846FFF7B5FE0028F3D1EA69D1
:1012C0006B69911E8B4205D201336B612B7943F020
:1012D00001032B71A242DDD8E4E70220E3E70120FD
:1012E000E1E72DE9F041804605680F4671B92E69A6
:1012F000EEB1EB69B34298BF012634460134EB6985
:10130000A34217D8012E14D8002406E02846FFF780
:101310005AFF0128044603D801242046BDE8F08185
:10132000431C30D0EB698342F7D83E46E5E70126FF
:10133000E3E702242146D8F80000FFF744FF30B16C
:101340000128E9D001301ED0B442D7D1DCE74FF0FC
:10135000FF3221462846FFF765FE90B957B9EA6982
:101360006B69023A2C61934210D92B7943F0010347
:101370002B71D2E7224639462846FFF753FE002854
:10138000EDD00128C8D14FF0FF34C6E7013B6B61B7
:10139000EBE7B1F5001FF8B506460C4601D3022075
:1013A000F8BDCA06FBD1826805680161CAB92B780D
:1013B000022B01D9EB6A9BB92B89B3EB541FEED9F1
:1013C000EB6AB361B3697261002BE8D003EB54237D
:1013D0003835C4F308040020B3612C44F461DFE71E
:1013E0001A466F897F02BC42114604D22846FFF795
:1013F0007FFBB061E6E73068FFF7E5FE431C02467D
:1014000006D00128CBD9EB698342C8D9E41BEAE7AF
:101410000120C5E703692DE9F04703F1200883693E
:1014200005468A4693B1B8F5001F0FD2C8F30809E4
:101430000468B9F1000F4DD101334169836139B9B5
:101440002389B3EB581F45D80023AB6104200BE080
:101450006789013F17EA58273CD12046FFF7B3FEC2
:101460000128064602D80220BDE8F087421C01D1BF
:101470000120F9E7E369834226D8BAF1000FE3D0EF
:1014800069692846FFF72DFF0646002835D0012858
:10149000E9D0431CECD02046FFF73FFC0146002872
:1014A000E6D104F138004FF400724FF0010AFFF763
:1014B00019FB31462046FFF71BFB606363899F429F
:1014C0000FD3636BDB1B6363314620466E61FFF70E
:1014D0000FFBA86138340020C5F810804C44EC6143
:1014E000C2E7204684F803A0FFF7F1FB0028BFD134
:1014F000636B013701336363E0E70720B4E7000063
:101500002DE9F04F002185B00446D0F800B0FFF778
:1015100040FF0646002840F098804FF0FF084FF04B
:10152000FF3AC146C4F82CA0A1695846FFF7FBFB5F
:101530000646002840F08980E5692F78002F00F0EA
:101540008880EA7AE52F02F03F03A37103D01007E9
:1015500004D50F2B04D0C4F82CA050E00F2B56D18B
:1015600094F82B30590640D47A0646D5236907F003
:10157000BF0795F80D80E3626B7B43453FD16B8BD2
:10158000002B3CD12E780122DBF80C3006F03F0610
:10159000DFF8C89000930D23013E5E4319F8013B2C
:1015A000EB5A7AB3FE2E2AD81846039300F0ECFFCC
:1015B000009B711C029033F81600019100F0E4FFCB
:1015C000029A82421BD1039B01991A460E46224B76
:1015D0009945E3D12B785B0604D51AB1009B33F80B
:1015E000163063B9013F5FFA87F900212046FFF703
:1015F00011FF0646002897D027E0B945BCD04FF030
:10160000FF09F2E74FF6FF718B42E0D0F7E7B9F13F
:10161000000F04D12846FFF793FA404515D094F8FF
:101620002B6016F0010696D104F1200205F10B01A2
:1016300015F8013B12F8010B8D42A3EB000302D019
:10164000002BF5D087E7002B85D1304605B0BDE8EB
:10165000F08F0426F9E700BF7DEF012470EF01242D
:101660002DE9F04F90F82B5089B0044615F0A005F5
:1016700040F08E800668F26832F81530002B66D193
:1016800004F120070C2205A83946FFF717FB9DF847
:101690001F30DB0740F1858040234FF0010ADFF85F
:1016A000348284F82B300B2205A93846D6F80C90EA
:1016B000FFF704FBBAF1050F59D9A9F1020153460E
:1016C00031F8022F002A44D10DF11300072203F054
:1016D0000F0C013A0CF13001392988BF0CF13701A8
:1016E0000F2B00F801194FEA131142D802F1200321
:1016F0007E216B4403F8141C394600239A4205D01E
:1017000011F8010B03F1010C202834D104F11F0062
:10171000072A03F1010397BF02F1200120210132C2
:10172000694498BF11F8141C072BC154F0D9204606
:10173000FFF7E6FE814670BB0AF1010ABAF1640FB9
:10174000B1D14FF00709484609B0BDE8F08F013527
:1017500092E7102002F0010C52080CEB430313F443
:10176000803F18BF83EA08030138F3D1A8E7534646
:10177000AAE70B46ABE76346C0E780460121204657
:10178000FFF748FE814608B3B9F1040FD9D0DAE774
:101790004FF00609D7E70428D5D19DF81F3084F80B
:1017A0002B309DF81F3000212046D4F800A09B0765
:1017B00045BF0C350D230125B5FBF3F548BF0135B9
:1017C000FFF7E7FD81460028DED18046A16950463B
:1017D000FFF7A9FA81460028D6D1E3691B78E52BEB
:1017E00001D0002BC9D108F101084545C6D1013D02
:1017F00055D021692046A1EB4511FFF7CAFD81466E
:101800000028A0D14FF6FF783846FFF799F90190EC
:10181000A1693046FFF787FA8146002893D1E36932
:10182000E9B2019A4FF00D0CD6F80CE05A734FF064
:101830000F02DFF8A4A0DA724A1E18730CFB02F242
:1018400084469876D87640451AF8019B0CF1010C35
:1018500018BF3EF8120003EB090B18BF013203F862
:1018600009004FEA1029002808BF4046BCF10D0FBF
:101870008BF80190E7D1404502D03EF812200AB91A
:1018800041F040011970012300212046F370FFF759
:10189000C1FD814600287FF456AF013DB8D1A16952
:1018A0003046FFF740FA814600287FF44CAF0146EE
:1018B0002022E069FFF716F90B223946E069FFF7AD
:1018C000FDF994F82B30E26903F018031373012338
:1018D000F37038E72110010070EF01242DE9F8437F
:1018E000FF270646D0F8008004253C464FF6FF79D6
:1018F000B16911B9002D5FD04FE04046FFF713FAF0
:101900000546002849D1F0690378002B5CD0C27AE3
:10191000E52B02F03F02B27144D02E2B42D022F0D0
:10192000200108293ED00F2A41D1590638D503F0AD
:10193000BF043369477BF362437BBB4232D1428BA6
:1019400082BB03780D21D8F80C504FF0010E23F024
:101950004003DFF878C0013B4B431CF8011B415AA0
:10196000BEF1000F20D0FE2B1CD825F813108E4698
:10197000013301320D2AF0D10278520604D5FE2B34
:1019800010D8002225F81320013CE4B20021304693
:10199000FFF740FD05460028AAD00023B3610CE004
:1019A000A342C9D0FF24F1E74945E2D0FAE73CB9A8
:1019B000FFF7C6F8B84203D100252846BDE8F883F2
:1019C0004FF0FF33F362F8E70425E6E770EF0124F8
:1019D0002DE9F74F0B7805468846D0F800B02F2B3D
:1019E00001D05C2B09D142461378904601322F2B4F
:1019F000FAD05C2BF8D0002301E0DBF81830AB60A4
:101A000098F800301F2B00F2D88080230021284650
:101A100085F82B3003B0BDE8F04FFFF7BABC0134B6
:101A2000DEE0B4F5807F00930CD0012100F08EFD44
:101A300040B17F28009B07D88F4911F8012B1AB1BC
:101A40008242FAD1062005E126462AF8020FBDE0BF
:101A5000022E04D1B9F802302E2B00F0D1805EBBEB
:101A6000002329F81630002EECD020210B22681814
:101A7000FFF738F8194639F81130202B24D02E2BD7
:101A800022D009B144F0030437F816302E2B01D0D0
:101A9000013EF9D100234FF0080A1F4639F8110022
:101AA0004A1C10B3202803D02E280FD1964211D003
:101AB00044F003041146F1E737F81630202B01D02B
:101AC0002E2BCDD1013ECAE70131D4E7534505D2D3
:101AD00096423AD1BAF10B0F30D102E0BAF10B0FB6
:101AE00027D144F003044FF00B0A95F82030E52B82
:101AF00004BF052385F82030BAF1080F04BFBF00EA
:101B0000FFB207F00C030C2B03D007F00302032AEB
:101B100001D144F00204A00700F1878007F0030719
:101B2000012F08BF44F01004042B08BF44F0080440
:101B30007BE0964202D044F00304D6D3BF00324685
:101B40004FF00B0A0823FFB2B4E77F280ED900211B
:101B500044F00204CDE9002300F0F8FCDDE90023A5
:101B600060B14649084410F8800C38B1DFF810C164
:101B70001CF8011B002972D08142F9D144F0030402
:101B80005F20E918013381F8200093E747F002074E
:101B9000F7E7002A08BF05205CE05A075AD4AB7962
:101BA000DB065AD529690BF138039BF80000C1F315
:101BB00008011944FFF7FFFAA8602B680026D3F844
:101BC0000C9008F1FF33A9F10207BA4613F8010F90
:101BD000741C1F280CD92F2802D05C287FF421AF59
:101BE00018F804302F2B3FF41AAF5C2B3FF417AFDB
:101BF0002028A04434BF04240024012E7FF428AF01
:101C0000B9F800302E2B7FF42AAF002305F1200213
:101C100029F816309E428CBF2E21202101330B2B38
:101C200002F8011BF6D144F02004284685F82B4029
:101C3000FFF766FC95F82B300028AED0042809D1B8
:101C4000990603F00402A4D5002AB6D08023002010
:101C500085F82B3003B0BDE8F08F0520FAE7A0F13E
:101C60004101192992D9A0F1610119299EBF20389B
:101C700047F0010780B284E7E0EE0124F0EE012492
:101C8000E9EE01241FB5CDE9001003A81446039125
:101C9000FEF766FF031E15DB0C4A52F8231009B14C
:101CA00000200870019808B10021017042F823005B
:101CB00030B1012C08D1002201A96846FFF786F84F
:101CC00004B010BD0B20FBE70020F9E798070020C7
:101CD0002DE9F04190B0174604460191002800F02C
:101CE000D48002F03F0603A901A83246FFF76EF840
:101CF000054600284FD1039B04A801990493FFF7E0
:101D000067FE20B99DF93B30002BB8BF062017F0C5
:101D10001C0F00F09A80002844D004283BD104A86E
:101D2000FFF79EFC002836D146F0080607F0D0FBEE
:101D30000146009020220B980E30FEF7CBFE0B9848
:101D400000991630FEF7C6FE0B9BDDF80C80DA72A8
:101D50000B9998F80000FFF72EFA0022074640463C
:101D6000FEF7E2FE0B9B002201211A775A779A7741
:101D7000DA77039BD970F7B1394604A8D3F83480D9
:101D8000FFF777FA38B941460398FEF7CCFF013FD9
:101D9000039B1F6178B1002305462360284610B0DD
:101DA000BDE8F0819DF8163013F0110F57D1780778
:101DB00065D43907BAD4039F31070B997B6B48BFB1
:101DC00046F04006616223623878FFF7F4F9A060BC
:101DD00001F11C000021FEF77BFEFB88276004F167
:101DE0002C074FF40072E060A1623846A38026748D
:101DF0006174E1616161FEF775FEB206CED5D4F87B
:101E00000C80B8F1000FC9D0039BA1685E89C4F8AB
:101E100014807602464524D30020A1610028BAD15F
:101E2000C8F30803002BB9D0039E3046FEF760FECE
:101E300048B300EB582201233946E2617078FEF77F
:101E40001DFE0028AAD00120A5E70028A3D19DF8F7
:101E50001630DA0615D4BF07ADD5D807ABD50720A5
:101E600099E72068A8EB0608FFF7ADF901280146BD
:101E700003D9431CCED10120CFE70220CDE70820B3
:101E800089E7042087E7022085E7092586E72DE911
:101E9000F04F87B016468946044601930023019A05
:101EA00005A91360FEF77CFE054618BB657C0DBBDB
:101EB000237C13F00103029300F09980E26804F19F
:101EC0002C0A6369D21A964228BF164696B16169F8
:101ED000C1F30803002B7CD1059BB3F80A8008F1FD
:101EE000FF3818EA51281BD141B9A068012810D841
:101EF00002256574284607B0BDE8F08FA36A1BB1C0
:101F00002046FEF700FEF1E7A1692068FFF75BF9C4
:101F1000ECE7431C03D10123029D6374EAE7A0614F
:101F2000DDF814B0A1695846FEF7E2FD0028DFD0C5
:101F3000B6F5007F08EB00072ED3BBF80A2008EBAC
:101F40005621730A9BF801009142494688BFA2EBD3
:101F500008033A460393FEF791FD0028DBD194F97C
:101F60001020039B002A0BDAE069C01B984207D2BD
:101F70004FF40072514609EB4020FEF79FFE039B91
:101F80005F026369B944019AF61B3B446361019B9C
:101F90001B683B44136099E7E269BA4218D094F990
:101FA0001030002B0BDA012351469BF80100FEF79D
:101FB00073FD0028AFD1237C03F07F0323740598C1
:101FC00001233A4651464078FEF758FD0028A2D139
:101FD000E76161694846C1F30801C1F500775144E2
:101FE000B74228BF37463A46FEF768FEC9E70725DD
:101FF00080E72DE9F04F994685B00023884603A974
:102000000446C9F800301646FEF7CAFD054650BB27
:10201000657C45BB237C9A0740F1AF80636904F17E
:102020002C0AF34228BFDE43CEB16169C1F3080335
:10203000002B40F09080039B5F89013F17EA5127F6
:1020400024D131B9A068A0B901462046FFF749F96B
:1020500004E0A36A5BB12046FEF755FD48B9237C36
:1020600043F040032374284605B0BDE8F08FA16912
:10207000EBE7012802D102256574F4E7431C01D186
:102080000125F9E7A368A06103B9A06094F91030B5
:10209000002B0CDA03980123E26951464078FEF7E1
:1020A000FBFC0028ECD1237C03F07F032374DDF8D4
:1020B0000CB0A1695846FEF71BFD0028DBD0B6F531
:1020C000007F07EB000234D3BBF80A1007EB562061
:1020D000730A88429BF8010088BFCB1B4146CDE9BB
:1020E0000023FEF7D9FC0028CAD1E169009A019BC0
:1020F000891A99420CD24FF4007208EB41215046E4
:102100000093FEF7DBFD227C009B02F07F0222742D
:102110005F026369B844E268F61B3B4463619A421C
:102120002CBFE260E360D9F800303B44C9F80030CE
:102130007AE7E36993420DD0E1686369994209D96E
:10214000012351469BF801000092FEF797FC009A8C
:10215000002895D1E26160694146C0F30800C0F5EE
:1021600000775044B74228BF37463A46FEF7A6FDEF
:10217000237C63F07F032374CBE7072573E7F7B570
:1021800001A90546FEF70CFD044600283BD12B7C37
:1021900013F0400437D01B060CD501980123EA69DF
:1021A00005F12C014078FEF777FC78BB2B7C03F01F
:1021B0007F032B7407F08CF9296A07460198FEF714
:1021C000B2FD0446F8B96E6AF37A314643F0200353
:1021D000F372AA682868FEF7A7FCE96806F11C00FC
:1021E000FEF778FC394606F11600FEF773FC012372
:1021F0000198B474F474C370FEF792FF2B7C04460C
:1022000023F040032B74204603B0F0BD0124FAE70D
:1022100013B50446FFF7B3FF28B901A92046FEF71E
:10222000BFFC00B9206002B010BD2DE9F04F85B0B1
:102230000D46044603A9FEF7B3FC0646E8B9667CE2
:10224000DEB9A36A002B7BD06A1C39D11D46D4F8B5
:102250000880022755F804BBB8F1000F28D040468B
:102260004FF0000A0146814620680AF1010AFEF794
:10227000AAFF012807D802266674304605B0BDE8DB
:10228000F08F8046EBE7431C01D10126F4E709F10A
:1022900001098145E6D00237BB4521BF2B4643F8F3
:1022A00008ABC5F804801D46039BDB698342E8D870
:1022B000A36A5F451F6000F2C38000232B60DCE748
:1022C000E768AF4228BF2F466761002FD5D07D1E3B
:1022D00020462946FEF717FCDDF80C800146A06178
:1022E0004046FEF705FC0028C5D0C7F30807002FBD
:1022F000C3D0B8F80A10E269013901EA55210D1876
:10230000AA42BAD094F9103004F12C01002B0CDA57
:10231000012398F801000191FEF7BEFB0028B4D11B
:10232000237C019903F07F032374039801232A4639
:102330004078FEF7A3FB06460028A6D1E5619CE79E
:10234000E368AB4204D2227C12F0020F08BF1D46A4
:10235000002263696261EDB90025E2686369934216
:1023600084BF227CE360C3F3080384BF42F04002D1
:102370002274002B81D0E269AA423FF47EAF94F927
:10238000103004F12C01002BCFDA039801230191C6
:102390004078C1E7039A57897F020BB3013B6A1E5D
:1023A000B3FBF7F1B2FBF7F28A4219D37A42A16983
:1023B0001340ED1A63610029CED0BD4263691ED877
:1023C00063692B446361C5F30803002BC4D00398F1
:1023D000FEF78EFB00283FF44EAF00EB5525BCE71F
:1023E000A16851B92046FEF77CFF012801463FF461
:1023F00042AF481C3FF449AFA160A161DBE73B4419
:10240000A5EB07086361237C9A0706D52046FEF7F3
:1024100068FF054628B90146D2E72068FEF7D3FEDB
:1024200005466B1C3FF431AF012D7FF624AF039BB3
:10243000DB69AB427FF61FAF2946A5614546BCE785
:1024400011261AE71FB50446019150B3002203A9D3
:1024500001A8FEF7BBFC70B9039B204601992360DD
:10246000FFF7B6FAF8B994F92B30002B0CDBA379FF
:10247000DB0603D405200023236010E0039BE16901
:102480001878FEF798FEA060039B00212046DB88A9
:10249000A380FEF77EFF0428ECD00028EBD104B027
:1024A00010BD0920FBE70428E4D0E4E713B501A937
:1024B0000446FEF775FB00B9206002B010BD73B58D
:1024C0000D4601A90446FEF76BFB20B92DB9014664
:1024D0002046FEF75EFF02B070BD2046FFF7FEF912
:1024E00010F0FB06F7D129462046FEF773FB314674
:1024F0002046FEF78FFF042808BF0020EBE700000E
:102500000F4B30B59C7B012C17D89D7B0024EDB27E
:102510005C559D7B03EB85056860987B18440273CE
:102520009A7B501C3032C0B298733A2320460A700E
:102530004B702F23CC708B7030BD0120FCE700BFA7
:10254000A40900200022FFF7DBBF00007F2810B5A0
:1025500006D931B1FF2812D880380A4B33F8100061
:1025600010BD084A32F8024B8BB2844203D00131CD
:102570008029F7D10B4603F18000C0B2F0E70020BC
:10258000EEE700BF7EEF01241E4B1F4AB0F5805FCF
:1025900028BF134670B5191D31F8043C0A46ABB18B
:1025A000984213D331F8024C250AE6B253FA84F468
:1025B000A04221DA082D09D8DFE805F005090F113E
:1025C000131517191B00C01A31F8100070BDC31A7B
:1025D00003F00103C01A80B2F8E71038FBE7203897
:1025E000F9E73038F7E71A38F5E70830F3E75038FD
:1025F000F1E7A0F5E350EEE70431002DCCD102EB7A
:102600004603C8E77EF0012470F20124704770474A
:10261000704770477047000008B50021094802F074
:10262000A7F8012003F070FD074803F05FFD074B9A
:10263000074A0849084800F075FD074801F0CCF941
:10264000002008BD04AD00202CF30124500B06C06F
:10265000508B06C0508B06C1C40D0020F8B5484E03
:102660000024484D484A3046484917F045FD05F5D5
:10267000C0702C606C612C62EC6303F07BFD444BFA
:102680002846414AC5F8383240F20F734149A5F84F
:102690003C3205F51473C5F89041C5F8403240F25C
:1026A0000113C5F84C423C4FC5E9913417F024FDA5
:1026B000354A3A493A4817F01FFD3A4BBC617E60F3
:1026C000C7E90235384BC7E90434384BC3E9005435
:1026D000C3E90244142400220021013C03F1300329
:1026E00003F8202C43F81C1C43F8181C4FF0010180
:1026F00043F8142C03F80C2C4FF0020243F8101C82
:10270000DA60E8D12A4E204A2A49284817F0F4FC1A
:102710004FF48262254906F12000F56119F042FC70
:102720001F4B3046C6F83074C6F8883406F50043AF
:10273000C6F8EC4483F82448C3F8284883F82C48AA
:10274000C3F83048C3F83448C3F84048C3F8444895
:10275000C3F84848C3F84C48C3F85048C3F8544835
:10276000C3F85848C3F85C48134BC6F8F044C6F8A1
:10277000F4441E60044A1149BDE8F84017F0BCBC9F
:10278000E83F012004AD0020000000200F260024B7
:102790000080707F11260024509800200D26002410
:1027A000000000C084A8002024960020B409002066
:1027B000C40D002013260024EC3F01201526002420
:1027C0007FB5032301260024054601A940688DF842
:1027D0000C40CDE9013605F005FC70B93146A8681A
:1027E00006F052FEA868324605490430FFF74AFA5F
:1027F000B0FA80F0400904B070BD2046FBE700BF8E
:1028000038F3012470B50546D2B000214FF4805250
:102810001C3005F5805619F0EDFB0024A9686846C8
:10282000F48301F27441FFF70DFE28B1214803F053
:102830005DFC204652B070BD0CA96846FFF73FFE14
:1028400078BB9DF8463063B3F48B1F2C29D89DF8D4
:10285000383013F0120FEFD1022217490DF1460064
:102860001AF092F90028E7D014490DF146001AF049
:102870009FF930B912490DF146001AF099F9002874
:10288000DAD005EBC4100DF146011C301AF074F9D2
:10289000F38B5A1C05EBC313F283002283F89B20B1
:1028A000CAE76846FFF702FEF08B003818BF012028
:1028B000C0E700BF3AF301245BF301245EF3012477
:1028C00063F301242DE9F0470C468EB005462C2217
:1028D0006B4603A92046FFF7DAFA08B1002097E01B
:1028E000009B2C2BFAD1584B039ADDF830809A428A
:1028F000F4D1A3F57003059AA3F2FB739A42EDD1CC
:10290000069E524FBE4209D105F58053099A1A62BC
:10291000BDF822201A85BDF82E205A85DFF83091A7
:10292000C84551D0F31B0C2120465E425E41FFF7A3
:102930007CFC04226B4620460DEB0201FFF7A7FA50
:1029400000287AD1DDF800A0BAF1040F75D1524603
:102950006B4602A92046FFF79AFA019ABA425AD169
:10296000616920460631FFF760FC05F581516B4631
:10297000022208312046FFF78AFA0028AED1009ED5
:10298000022EABD16B46524605F581512046FFF72A
:102990007EFA0028A2D1009B042B9FD161692046BA
:1029A0000631FFF742FC05F581516B4632460A318C
:1029B0002046FFF76CFA002890D1009B022B8DD1A6
:1029C000C84511D00126B4E705F580510D9AB1F93B
:1029D0002A304A62002BB8BF0733BE424FEAE303F6
:1029E000B2FBF3F3CB629DD105F580522869B2F9B1
:1029F0002A30516A002BB8BF0733DB10B1FBF3F369
:102A00006169D3621163FFF710FCB0FA80F04009EE
:102A10000EB0BDE8F0874A45029B06D105F580520D
:102A20005362002E3FF45AAFDEE761692046194435
:102A3000FFF7FBFB002EC3D17BE7002E3FF44EAF28
:102A4000C8457FF44BAFCFE752494646666D7420C8
:102A5000646174612DE9F34104460E460025206946
:102A60004269C3689A4243D0B54241D2731B04F510
:102A700080572168B3F5804FB7F9282028BF4FF45D
:102A800080435A4301AB5200FFF701FA034630B1CD
:102A9000184803F02BFB002002B0BDE8F081B7F925
:102AA0002800690042000198B0FBF2F083421DD07B
:102AB000B7F928802268B8F1010FD4E905EC1ABFF4
:102AC00032F9238002EB830232F9132003F1010370
:102AD0001BBF2EF80180B2F902202CF801202CF83F
:102AE000012008BF2EF801200231DFE71D44B6E7C0
:102AF0000120D1E768F3012410B504464FF080723D
:102B00000021406919F076FA4FF080720021A06927
:102B100019F070FA04F58053B3F92820D96AB1FB93
:102B2000F2F1B1F5000F04D82046BDE81040FFF7E0
:102B300091BF002010BD000070B500F5805604461E
:102B40000D46F38B8B4210D3B38B8B4202D00069BE
:102B5000FFF75EFB04EBC511012220691C31FFF772
:102B6000B7F820B10F4803F0C1FA002070BD216909
:102B70002046FFF7A7FE20B92069FFF749FB0A4866
:102B8000F1E7B6F92A30102B04D1326A4BF68033C4
:102B90009A4201D00548E6E72046BDE87040FFF7BD
:102BA000ABBF00BF89F30124A3F30124BFF30124C9
:102BB000C0E905120360704700234FF49652C0F835
:102BC000D833C0E9F8230123C0F8E8334FF07E532F
:102BD000C0F8EC334FF07C53C0F8F033704700007E
:102BE0002DE9F84304460E4615461F4600F110082D
:102BF00000F57479C360C0E90112C84507D04046AA
:102C00002A46314608F1300800F0BCFFF5E7054BD5
:102C100020461F60044B1E60044B1D60BDE8F84356
:102C2000FFF7CABFF03F0120F83F0120F43F012029
:102C3000C0F8DC137047C0F8D81370479FED0D7AC9
:102C4000DFED0D6AF0EE477AE0EE267AC7FE877A6E
:102C50009FED0A7AC7FEC77A9FED097A67EE877AF9
:102C60009FED087A67EE877AFCEEE77AC0EDF87A96
:102C7000704700BF0000C8420040354500803B451A
:102C80006F12833A00803B47C368013B07EE903ADE
:102C9000F8EE677A27EE800ABCEEC00A80EDF90AEA
:102CA0007047B7EE007AF3EE036AF0EE477AE0EE93
:102CB000267AC7FE877AB3EE047AC7FEC77AF8FE93
:102CC000677AFCEEE77AC0EDFA7A7047B6EE007AE2
:102CD000F7EE086AF0EE477AE0EE267AC7FE877ACA
:102CE000B0EE007AC7FEC77AC0EDFB7A704780ED80
:102CF000FC0A704703461022002110B4B2F5747F1D
:102D000003EB020012D09C5C14B101313032F5E7C4
:102D1000D3F8E8438C42F9D9D3EDFC0A93EDFB0AD2
:102D20005DF8044BD3E9F82100F048BF5DF8044B8F
:102D30007047002330B5102585B0C0F8D033044665
:102D4000C0F8D433FFF7D6FFB5F5747F04EB050068
:102D500019D0635DABB194EDF40AD4EDF50A00F03F
:102D60009DFFD4EDF47A8DED020A37EE800AD4EDA2
:102D7000F57ACDED030A77EEA00A84EDF40AC4EDEE
:102D8000F50A3035E0E7D4E9F40104AB03E90300C8
:102D90009DED020ADDED030A05B030BD10B5837A62
:102DA0000446FF2B0AD106F045FC07EE900AB8EE68
:102DB000670AD4ED037A30EE670A10BD9FED010A71
:102DC000FBE700BF00000000D0F83834012B0CD026
:102DD000032B04D013B90123C0F83C34704700F52D
:102DE0000042012382F82438F6E70223F4E70000CA
:102DF00010B50446E069403003F0C0F8E36993F889
:102E00004C20002AF6D093F85230802BF2D10B4898
:102E100003F06CF9D4F83834012B08DC002B0CDB00
:102E200004F50043012283F82428032303E0023B36
:102E3000012B02D80023C4F83C3410BDD1F3012487
:102E4000D0F8303410B503F58052D0F8EC44D28B72
:102E500021448C1894FBF2F102FB114400F59F62AF
:102E6000A1B2C0F8EC44104603EBC1111C3119F0BB
:102E700083FE214602460248BDE8104003F036B901
:102E8000E6F3012410B504460B4803F02FF9D4F8FB
:102E90004034062B08D8DFE803F004080A070707C8
:102EA0000C000123C4F8403410BD0223FAE70623C6
:102EB000F8E70023F6E700BFFAF30124D0F838342E
:102EC000022B01D1FFF7DEBF7047D0F84034052B4D
:102ED000DCBF83F00103C0F840347047D0F83834C9
:102EE000022B01D1FFF7F1BF7047D0F84034062B19
:102EF00004DDD0F84434C0F8403470470029C0F8ED
:102F0000443414BF07230823F5E7D0F83834022BE4
:102F100002D10121FFF7E9BF7047D0F83834022B06
:102F200002D10021FFF7E1BF7047000000F59C616E
:102F300010B50446D0F830040EC9FFF739FED4F8B6
:102F40003004FFF73DFC40B1044803F0CFF8D4F85B
:102F50003004BDE81040FFF755BC10BD0AF4012451
:102F6000D0F83024D0F8E01402F58052B2F92830BD
:102F7000D26A10B504462030B2FBF3F3D0F8C42473
:102F8000FFF72EFED4F83034054803F58053B3F92B
:102F90002820D96ABDE81040B1FBF2F103F0A6B8D1
:102FA0001CF4012438B500250446C0F8F05412483A
:102FB00003F09CF804F50043C3F8285893F824382C
:102FC0006BB9B4F8EC14D4F83004FFF7B5FD30B9A0
:102FD0000A4803F08BF80423C4F8383438BD084895
:102FE00003F084F8E069074901F0DAFA0648BDE821
:102FF000384003F07BB800BF37F4012444F40124C7
:1030000058F40124C135002464F4012410B50446A9
:103010004FF080720021D0F8E00418F0EBFFD4F8F4
:10302000E4044FF08072002118F0E4FF04F500443E
:103030000023C4F8283810BDD0F83C3410B504463D
:10304000042B0AD8DFE803F0030E120A1F00C06940
:1030500001F0A8FA0023C4F8383410BDFFF7D6FFFA
:103060000323F8E7FFF79EFF0123F4E7FFF778FF5C
:103070000C4803F03BF802230B48C4F83834BDE891
:10308000104003F033B8C069B7EE000AD83003F03F
:10309000B3F8E069B7EE000A00F5967003F0ACF8FB
:1030A0000423D8E77BF401248FF4012437B50446C8
:1030B000C06901F0A7FA04F5896004F28C4500F0BC
:1030C000BFFE9FED0F0AD4F888048DED010A01F0D0
:1030D000BFF89DED010A284600F0B4FF094B00221D
:1030E0000121AB60084B6B6004F59A639A6084F829
:1030F000DC141A604FF07E525A6003B030BD00BF3E
:1031000000803B4700409C463333333F00F5AF63BC
:1031100000F294504FF07C5243F8042B83429A61A2
:10312000F8D1704738B5044600252DED048BC0F862
:10313000E0140221C0F8E424C0F8E834C06901F0CA
:1031400033FAE069032101F047FA2046C4F8385405
:10315000FFF7ECFEB0B9304802F0C8FFE069B7EE07
:10316000000AD83003F048F8E069B7EE000A00F52D
:10317000967003F041F8E069BDEC048BBDE838407F
:1031800001F056BAE06901F03DFAE069F0EE408ADC
:1031900001F020FA07EE900AB8EEE78A06F0EEFB9F
:1031A00007EE900AB7EE007A9FED1C6A012388EEC5
:1031B000289A204623701A4BE360F8EE677A236161
:1031C000636167EE897AC7EE276AC4ED016AC8EECB
:1031D000886AC6EE267A37EE877AC7EE876AC4ED2C
:1031E000066AFFF763FF2046FFF790FF284619F0B5
:1031F000F5FC0C4BD4F8E424186004F120002B46B5
:10320000D4F8E014FFF7ECFCE069BDEC048BBDE8FA
:10321000384001F0F9B900BF9FF40124DB0FC94029
:103220000000C07FE43F0120F8B504460D46164675
:1032300006F002FAA0600020B0422FD0D4F830147B
:10324000D4F8F03401F58051B1F92870CA6AB2FBA4
:10325000F7F2934220D2D4F8E014DFED2C6A31F972
:1032600013102A6807EE101AD4F8E41402EB800257
:1032700031F91310B8EEC77A013307EE901A27EE32
:10328000267AF8EEE77A82ED007A67EEA67A6A6827
:10329000C2ED017AC4F8F0340130CDE706F0CCF984
:1032A000A36894ED017AC31A07EE903A2378F8EEFA
:1032B000677A67EE877A43B10023C4ED057AC4EDDF
:1032C000037AC4ED047A2370F8BD94ED047AD4ED4A
:1032D000066AF4EEC77A94ED037A94ED056AF1EE8E
:1032E00010FAF4EEC77AB7EE007AC8BFC4ED047ADC
:1032F000F1EE10FA37EE667A48BFC4ED037A27EE96
:10330000067AA7EEA67A84ED057ADDE7000000389C
:10331000F0B500259D4231D00E6800F5004C1468D0
:1033200006EB850604EB8504376827604C68D0F807
:10333000E07404EB8504D4ED007A546804EB850452
:103340000135C4ED007AFDEEE77A96ED007ADCF8FF
:103350002848BDEEC77A17EE106A27F8146017EEFA
:10336000907AD0F8E46426F814700134044EB4FB6B
:10337000F6F706FB1744CCF82848CBE7F0BD00BFB2
:1033800000E457002DE9F04F04460D469346002611
:103390002DED028B89B05E4500F0CB8004F120005A
:1033A0004FEA8608FFF7C5FC2B68B0EE608A04F58B
:1033B000896003EB8603CDED070AD4F8889483ED8A
:1033C000000A6B68039003EB86038DED060AC3EDDC
:1033D000000A00F0BDFD03988DED040AB0EE480A26
:1033E00000F0B6FD04A948468DED050AD5E9003286
:1033F00042444344009205AA01F0A4F804F50041B8
:1034000091F82C38002B00F09280D4F8DCC504F53C
:10341000B66307EE90CAF8EE676AD3ED0D7A86EED2
:10342000A77ADFED467AB4EEE77AF1EE10FA7ED5B0
:103430002B680020D4F8ECE543441A6801F6380301
:103440001A606B684344D4F8E0851A6801F63C03BF
:103450001A6004F50842D4F8E835383283424ADD70
:10346000BEF1100F05D0BEF1200F25D0013004327F
:10347000F4E7D2ED007A04F5BE699FED317A00EBF6
:10348000080AF4EEC77AF1EE10FA12D99FED2D7A00
:10349000F4EE477AF1EE10FA67FE277A9FED2A7A6A
:1034A00067EE877AFDEEE77A17EE907A29F81A70C0
:1034B000DCE7F0EE477AF1E7D2ED007A00EB08099D
:1034C0009FED1F7AF4EEC77AF1EE10FA10D99FED56
:1034D0001D7AF4EE477AF1EE10FA67FE277AFEEED7
:1034E000E07A04EB890917EE907AC9F8F075BDE728
:1034F000F0EE477AF3E70CF10102BEF1100F4344FE
:10350000C4F8DC250CBF4FF400524FF48052C4F8CD
:10351000E035934204BF0120C1F8F005B3EB420F40
:1035200021BF0023C4F8E0350223C1F8F03501368D
:1035300031E709B0BDEC028BBDE8F08F0000F0422E
:1035400004FF7FBF04FF7F3F00FEFF462DE9F041EF
:10355000D0F8384416461F46022C25D0032C1FD025
:10356000012C27D1D0F8303403F58053B3F928204B
:10357000DC6AD0F8F034B4FBF2F4013CA34209D386
:103580000D4B1B68D86901F00DF80C48BDE8F041FF
:1035900002F0ACBD3A463146BDE8F041FFF744BE0B
:1035A000BDE8F041FFF7B4BE31461A46BDE8F04130
:1035B000FFF7E8BEBDE8F081EC3F0120BBF4012439
:1035C00013460A46014602480068FFF7BFBF00BF26
:1035D000EC3F0120082946D8DFE801F005080E215C
:1035E00026290B2C31002030FFF728BB2030FFF7B5
:1035F0006DBB2030FFF77BBBDFED1B6AB1EE007ABD
:103600002030F0EE667AE0EE077AC7FEA67AC7FEB3
:10361000C77AFDEEE77A17EE901AFFF70CBB00F2BF
:10362000144080ED000A704700F58460F9E700F26D
:103630002C40F6E7D0F8883483ED000A7047B3EEEB
:10364000047ADFED0A6A20EE000A00F28C40F0EE08
:10365000477AE0EE267AC7FE877A9FED057AC7FEA5
:10366000C77AC0ED027A70470000000000A09B45B9
:1036700000409C4510B50446082914D8DFE801F045
:10368000050A14292C2F0F3239002030BDE81040D4
:10369000FFF7FABA2030BDE81040FFF702BB00F296
:1036A000244484ED000A10BDDFED276AB1EE007AF4
:1036B0002030F0EE667ABDE81040E0EE077AC7FEF3
:1036C000A67AC7FEC77AFDEEE77A17EE901AFFF7E3
:1036D000AFBA00F58364E4E700F21C44E1E700F5CB
:1036E0008564DEE7D0F8883403F5C12383EDD10A81
:1036F000D9E79FED167A20EE000ADFED156A04F592
:103700009A64F0EE477AE0EE267A9FED120AC7FE41
:10371000877A9FED117AC7FEC77AF4EEC77AF1EE89
:1037200010FA58BFF0EE477A27EE800A16F0E4FE52
:10373000F7EE007A84ED000A30EE270A87EE807AF1
:1037400084ED017AAFE700BF000000006F12833AFA
:10375000B7F3FD3EDB0F4940C976FE3ED0F8383462
:10376000022B70B504462DED048B57D1D0F8405490
:10377000C0699FED2F9A683002F080FBB4EEC90A51
:10378000F1EE10FA4DD9DFED2B7AB4EE670AF7EEC1
:10379000007AF1EE10FA67FE808AE069883002F064
:1037A0006DFBB4EEC90AF1EE10FA3DD9DFED217AD6
:1037B000B4EE670AF7EE007AF1EE10FA27FE808A7F
:1037C00004EB850505F5AF66D6ED007A78EEE77A6D
:1037D000F0EEE77AF4EEC97AF1EE10FA08DDB0EE19
:1037E000680AD4F840142046FFF7F4FEC6ED008ABC
:1037F00005F29455D5ED007A78EE677AF0EEE77A27
:10380000F4EEC97AF1EE10FA08DDB0EE480AD4F809
:1038100040142046FFF72EFF85ED008ABDEC048B97
:1038200070BDDFED058AB8E79FED038AC8E700BFEA
:103830000AD7233CA4707D3F0000000003290CD868
:10384000DFE801F002070905054802F04FBC054812
:10385000FBE70548F9E70548F7E70548F5E700BF46
:10386000CFF40124E8F40124FFF4012415F5012428
:103870002DF5012410B50446C0692DED028B00F032
:10388000C7FEE0699FED418A4830FFF787FAB4EE42
:10389000C80AF1EE10FA5CDD2046FFF7A9FAE369E9
:1038A00093F8B42032B193F8BA30802B02D120467D
:1038B000FFF704FBE36993F8C42032B193F8CA30F0
:1038C000802B02D12046FFF709FBD4F83834022BB5
:1038D00017D1E069B030FFF761FAB4EEC80AF1EE33
:1038E00010FA02DD2046FFF710FBE069C030FFF759
:1038F00055FAB4EEC80AF1EE10FA02DD2046FFF7E1
:103900000CFBE36993F844205AB1596E49B1D4F8DD
:103910003C345BBB04F50042204682F82438FFF7B4
:103920008FFAD4F83814D4F83C3499422AD020467F
:10393000FFF784FF164802F0D9FB2046D4F83C1468
:10394000FFF77CFF2046BDEC028BBDE81040FFF77F
:1039500073BBE36993F84C20002AA0D093F852304F
:10396000802B9CD12046FFF72FFA98E7D4F8383403
:10397000012B01BF002204F5004383F82428C4F87A
:103980003C24CEE7BDEC028B10BD00BF00007A44A2
:1039900041F5012437B500F50043002100F500454D
:1039A000044683F8441048350191D0E90E32534360
:1039B000C26A5343DB088362243343602846FEF720
:1039C00034FC01AB2C2221462846FEF712FB284688
:1039D000FEF71EFC03B030BD70B5044662482DED05
:1039E000068B82B002F082FB04F500454FF4FA66C4
:1039F000D5F834380133B3FBF6F206FB1236C5F8BE
:103A00003438002E6CD194ED049A9FED58AA584892
:103A1000D4ED058A94ED038A02F068FB29EE0A6A68
:103A200054489FED4F9BB5EEC06AB0EEC66AF1EE0A
:103A300010FAFDEEC67A4CBF2D212021B8EEE77AB0
:103A400017EE902A36EE476AB7EEC66A26EE096B85
:103A5000BDEEC67B17EE103A02F048FB28EE8A6AEC
:103A60004548B5EEC06AB0EEC66AF1EE10FAFDEE5A
:103A7000C67A4CBF2D212021B8EEE77A17EE902AA6
:103A800036EE476AB7EEC66A26EE096BBDEEC67B18
:103A900017EE103A02F02AFB28EE0A7A3748B5EE04
:103AA000C07AB0EEC77AF1EE10FAFDEEC76A4CBFED
:103AB0002D212021F8EEE67A16EE902A37EE677A6D
:103AC000B7EEC77A27EE097BFDEEC77B17EE903A7B
:103AD00002F00CFB4FF4FA70C5F8346805F0B2FD43
:103AE00095F82C3893B3D5F8F02504F5B666B2B145
:103AF00095F8F4359BB10023012A06F500404FF4F8
:103B000080420CBF19464FF4805101934830103168
:103B1000C5F8F03501AB06EB8101FEF76AFAD4F87F
:103B2000DC35D6ED0D6A07EE903AF8EE677A87EE4F
:103B3000A67ADFED137AB4EEE77AF1EE10FA05DD3E
:103B40003046FFF727FF002385F82C382046FFF783
:103B500091FE2046FFF702FE052005F073FD43E7C6
:103B60000000000000408F4052F501240000C842D0
:103B700061F5012474F5012483F5012492F50124F3
:103B80000000F042F7EE007A9FED0B7A8369012284
:103B900080ED017AC7EE876A9342C36008BF4FF099
:103BA000FF33026104BFC0ED017A03610023037596
:103BB000C0ED026A704700BF0000000007EE902AC7
:103BC000114B80ED0A0AF8EE677A1B68C0ED070A10
:103BD0008B4280EE277A98BFC91A8369C360C0E917
:103BE0000812012100228B424260016108BF4FF0A0
:103BF0007E53017002BF43604FF0FF330361002327
:103C000080ED027A03757047F03F0120000000004C
:103C100008B5C36A042B09D8DFE803F00307081AC4
:103C20002700F7EE007A37EEC00A08BDDFED1A7AFA
:103C3000B7EE007AB4EEE70AF1EE10FA05D970EEAD
:103C4000677AF1EE046AA7EEE67AB0EE470AECE78F
:103C5000B0EE007AFFEE007AE0EE077AB7EE000AE7
:103C6000F0EEE77A30EE670ADFE79FED097BB7EE0B
:103C7000C00A20EE070B16F063FBB7EE007B37EEB1
:103C8000400BB6EE007B20EE070BB7EEC00BCCE787
:103C9000182D4454FB211940CDCC4C3F10B503786E
:103CA00004462DED068B86B0F0EE409AB0EE609A99
:103CB0008DED020ACDED030A53B900230493059359
:103CC0009DED040ADDED050A06B0BDEC068B10BDC6
:103CD000037D13B100232370EFE790ED047AD0ED5C
:103CE000017AB8EEC77AD0ED026AC368E6EE877A49
:103CF000022BB0EE670A6FD0032B7ED0012B5FD072
:103D0000F7EE007AB4EEE70AF1EE10FA03DDB0EE5A
:103D1000670A01230375237D84ED010A002BD9D1A5
:103D2000D4ED097A204694ED0A7AF8EE677A236A90
:103D300067EE807A67EE877AFCEEE77A17EE902AD4
:103D4000DFED3A7A1A441346394A1268511E9942F5
:103D50009CBFB3FBF2F102FB1133364A126832F911
:103D6000132008EE902A344A1268F8EEE88A32F9F5
:103D7000133068EEA78A08EE103AB8EEC88A28EE2B
:103D8000278AFFF745FFB0EE40AAD4ED077AB7EED9
:103D9000000A30EE670A16F0D9FBF0EE40AA94ED67
:103DA000070A16F0D3FB68EE8A8A28EE0A8AE8EE44
:103DB000AA9AA8EE009ACDED049A8DED059A7FE7B8
:103DC000F5EEC07A4FF0FF320261F1EE10FAA2D5A3
:103DD0009FED1A0A03759EE7F7EE007AB4EEE70A44
:103DE000F1EE10FAC8BF30EE670AB5EEC00AF1EE88
:103DF00010FA90D530EE270A8DE7F7EE007AB4EE90
:103E0000E70AF1EE10FA07DDF0EE007A4FF0FF332B
:103E100037EEC00A23617EE7B5EEC00AF1EE10FA74
:103E20007FF579AFB1EE400A0123F3E700000038D7
:103E3000F03F0120F83F0120F43F01200000000086
:103E400010B52DED028BB7EE008A0446B4EEC80A19
:103E5000F1EE10FA71DDDFED3B7AB4EEE70AF1EE38
:103E600010FA6CDCFDEEC07A17EE903A07EE903A4D
:103E7000DFED358A2363B8EEE70AC4ED028AF0EE7F
:103E8000007A88EE007AC4ED007AC7EE806AD4ED3D
:103E9000087A78EE677A87EE280A84ED0E7AC4ED08
:103EA0000D6AFEEE006A67EEA67AC4ED097AB1EEFD
:103EB000400A16F085FA94ED0D7AD4ED027A84ED7D
:103EC0000A0A87EE270AB1EE400A16F079FA94ED55
:103ED000007A84ED080AC8EE077AC4ED038A77EE0B
:103EE000C87A38EE408A27EE888AD4ED0E7A87EEBB
:103EF000A80A84ED098AB1EE400A16F061FAFAEEDA
:103F0000087AD4ED006A0123C4ED078A87EEA67A09
:103F1000C4ED017AC4ED068A84ED0B0A84F83C30C6
:103F2000BDEC028B77EEC77AB6EE007AF0EEE77A58
:103F300067EE877AC4ED047A10BD012396E7034B40
:103F400094E700BF00803B48CDCCCC3D00EE0200A2
:103F500010B52DED048BF0EE408AD0ED066AB0EE80
:103F6000C00A82B0F7EE007A0446D0ED089AF4EE6B
:103F7000C06A90ED079A90ED098AF1EE10FACCBF75
:103F800090ED0B7A90ED0A7A77EEC77A67EE807A39
:103F9000E6EE877AC0ED067AB0EEE70A01A816F0E1
:103FA00081FA9FED207ADFED207ADFED206AE0EEE6
:103FB000077A9FED1F7AE0EE276AF0EE477A9DEDD3
:103FC000017AB8EEC77AE0EE267A94ED040AF3EEB1
:103FD000046A37EE277ADFED177A27EE277AD4EDD9
:103FE000017AD7EE267A9FED147AC7FE877A68EEBB
:103FF000277AE9EE897AC4ED077A77EE807A9FED29
:104000000F0A67EE807A9FED0E0A27EE800A16F0FF
:10401000D7F984ED050A28EE800A02B0BDEC048BC6
:1040200010BD00BFA8A19D3FF5CA83C0FBB3C0402F
:10403000E09248C09B209A3E00000000CDCC4C3D51
:104040008E5D134000230A4A80ED0E0A0360426031
:10405000C360084A4362036183624361C362836150
:10406000C36103620363044B82604363704700BF14
:10407000CDCCCC3E00007A44000080BF8B69B6EE08
:10408000005BD0ED054A002B9FED354AB8BF03F524
:10409000803310B5B8BF8B6143F609548B69634315
:1040A00001339CB21B042F4B48BFA4F580348C61B4
:1040B000140103EB0212D2ED027A84EEA76AD1ED6D
:1040C000007AB7EEC66A36EE056BBDEEC66BF8EE4B
:1040D000E76AD1ED037AB8EEE77AD1ED027A81EDA5
:1040E000076AF8EEE77AE7EE047A76EEE77AF5EE1D
:1040F000C07AF1EE10FA06D591ED017AB8EEC77AE2
:1041000077EE877AF3E787EEA47AD1ED067A234437
:1041100090ED034AD3ED016AF8EEE77AB8EEC66A8D
:1041200067EEA67ADFED106A67EEA67AD3ED006A35
:10413000E4EE276A77EE667AB7EE007AC7EE866A13
:10414000DFED0A7AA4EEA67A27EE277AB7EEC77AD1
:1041500037EE057BBDEEC77B81ED047A10BD00BF55
:1041600000008031A4F50124000000380000804DDB
:10417000334BB7EE026B90ED054A03EB0213D3ED20
:10418000004AD3ED013AB7EEE47AB7EEE35A70B5E0
:10419000A5EE067B00250C464D610D60B6EE005B7A
:1041A0009FED256BB7EEC77B27EE047AB7EEC77A93
:1041B00037EE067B93ED036AB7EEC66ABDEEC77BAA
:1041C000DFED207A36EE056B81ED017AB8EEC77A25
:1041D000BDEEC66B81ED066AB8EEC66A26EE236AAE
:1041E00026EE276AD0ED037AE7EE864AA4EE647ADB
:1041F000FDEEC77AC1ED027AF8EEE77A37EE677A1C
:10420000DFED117A27EE277AB7EEC77A37EE057B16
:10421000BDEEC77B81ED037AFFF730FF00216068B8
:104220002B462162984205DD626A02EB830201336C
:104230001160F7E7002070BD0000000000803040F2
:10424000A4F50124000000380000804D00000000AB
:10425000294B4FF07E522DE9F04103600025274B9A
:10426000044600F12408264F436000232E4680EDCB
:10427000020A0361C361012380ED050AC260826105
:10428000036204F5B27332464146204603EB8503D0
:104290000136C8F82430FFF76BFF97ED016A97ED00
:1042A000007AB7EE025BB7EEC66A082EB7EEC77AA1
:1042B000A6EE057B9FED0E6BB7EEC77B27EE007A6F
:1042C000B7EEC77A37EE067BBDEEC77B17EE103A26
:1042D00005EB830502D10020BDE8F081094B08F110
:1042E000280810379D42CCDD0120F5E7AFF30080B0
:1042F0000000000000803040EC51783F00401C4638
:10430000A4F50124788201002DE9F0411D46036ADD
:1043100006460F46002B90462DED028B40F304819C
:1043200090ED010AD0ED077AB4EE670AF1EE10FACB
:1043300040F0BC8090ED060A344606F5A072334684
:10434000DFED7D7A93ED117A28339A4277EE877A02
:10435000F8D1B5EE007A97ED002AD8ED002A0027B3
:10436000DFED753AE7EE872AA7EE872AB0EE633ACB
:1043700017F0010094ED117A616AA26C42FE227A74
:1043800077EEC77AA36A02EB8102C2ED007A626A15
:1043900001329A42A8BFD21A6262226BB2F1805FE8
:1043A00006DBE16A01EB227122F07042E1622263D6
:1043B000E26AFFEE006AB7EE006A9A42B6EE005A71
:1043C000B0EE667AA4BFD21AE262A26CD4E90B1CEA
:1043D0009FED574B05EE90CA0029FAEEC25AA5EEA2
:1043E000A57A35EE866AE6EE056AB7EEC77A27EE5D
:1043F000047BB7EEC77BF0EE087A67EE277AF0EE23
:10440000671A77EEE57AD6EE051A36EEC76A68DDEA
:10441000A3F1020E8E4564DD01F18041013902EB0A
:10442000810191ED004AD1ED016AD1ED024A91ED91
:10443000035A66EEA77A636B6344E4EE067A23635D
:10444000E4EEA17AE5EE077A96ED007AE7EEA56A4A
:10445000D4ED117AE7EE667A67EE807AE7EE267A97
:10446000C4ED117A00285CD073EEA73A236C013BAF
:10447000002B236405DC3A4604F124013046FFF7A3
:10448000FDFD01372834082F7FF472AFDFED2B7A62
:104490000020089B23EE273A63EEA73A85ED003A09
:1044A000C3ED003ABDEC028BBDE8F081DFED247A6C
:1044B00080ED070A20EE270AD0ED057A80EE270A64
:1044C00015F022FEF0EE007A37EEC08ABFEE000A49
:1044D000A8EE080A16F03AF838EE400A86ED060A09
:1044E0002AE7013948BFC91802EB810E01318B421E
:1044F0009EED004AD8BFC91A02EB810E01318B42F2
:10450000DEED006AD8BFC91A02EB810E01318B4281
:10451000DEED004AD8BFC91A02EB810191ED005AC5
:1045200087E733EE273AA1E70120BBE7AFF300802E
:10453000555555555555C53F000000003333B33E22
:10454000DB0FC940F0B585B01E4604460F4603ABED
:104550001546009302ABFFF7D7FE04F5C120F7EE36
:10456000007A97ED006AD0EDD16A0A9B37EEE67AC1
:1045700027EE067A9DED026AA6EE867A86ED007A2F
:1045800090EDD17AD5ED006A77EEC77A67EEA67A1C
:10459000DDED036AE7EE267AC3ED007A05B0F0BDE3
:1045A00000F07CB900F07EB938B5044600F09EF901
:1045B000D4F8A850204600F0BBF9284601F082FC50
:1045C000D4F8AC50204600F0B3F92846BDE8384096
:1045D00001F078BC00F0A6B938B5044600F066F9E1
:1045E000D4F8A850204600F0A3F9284601F06AFC50
:1045F000D4F8AC50204600F09BF92846BDE838407E
:1046000001F060BC00F06EB9183002F029B900BFAB
:1046100010B50446403001F0B1FC04F1B00001F0E7
:104620002BFE04F1C000BDE8104001F025BE00BF24
:1046300010B50446D83001F0F7FD04F59670BDE8DA
:10464000104001F0F1BD00BFF0B54FF481718FB0A3
:1046500000F1D80701254FF4C0624FF4E063ADF8D4
:10466000081000F5967402993846ADF80C2008AE93
:10467000ADF810300095DDE9032301F095FD40F21F
:1046800001134FF480722046ADF814304FF480636C
:10469000059900950BADADF81820ADF81C30DDE99B
:1046A000062301F081FD3046072105F081FE96E8E2
:1046B000070085E807002946384601F09FFD96E887
:1046C000070085E807002946204601F097FD384697
:1046D00001F0AAFD20460FB0BDE8F04001F0A4BDF6
:1046E0002DE9F04140F2024304460222002504F184
:1046F000180704F1A8062DED028B8EB09FED1B8AE2
:10470000ADF80C3005A8039901F088FE02220DF1E6
:104710002600ADF81020049901F080FE0423022247
:1047200005A9384601F08EFE04F1680204F1880301
:10473000C4E92A232946384656F8048B02F0A6F825
:1047400001462046019100F0F3F80023F0EE480AFC
:10475000019940461A4601F05FFB25B10EB0BDEC51
:10476000028BBDE8F0810125E4E700BF6F12033B37
:104770002DE9F04104469AB00027019100F08CF831
:104780000199204600F094F940F6061304F1B006B2
:104790009FED400AADF8143004F1C005304605998C
:1047A00001F050FD4FF4007328469FED3A0AADF832
:1047B000183004F5C878069901F044FD40F603323C
:1047C00040F201639FED330AADF8082004F1400088
:1047D0000299ADF80C70C4F8D0600FAEC4F8D45094
:1047E00007ADADF81030DDE9032301F097FB20465B
:1047F000FFF72AFF2046FFF773FF284601F0BAFCB7
:1048000001230DF12C0E04F5C07C1593189347F687
:104810001223169719930223179395E80F008CE83B
:104820000F008EE80F0086E80F00BDF840301490AE
:10483000ADF84E30BDF84230D4E9625EADF84C3090
:10484000C4E9655EBEF1000F04D0724639462846C1
:1048500017F0D0FB13A9404604F04CFC04F5D270CD
:1048600001F09CFC3021204600F040F8D4F8A8501C
:10487000204600F05DF8284601F024FBD4F8AC5047
:10488000204600F055F828461AB0BDE8F04101F086
:1048900019BB00BF00000000704700BF143001F0DA
:1048A00077BA00BF143001F095BA00BF38B500F1F7
:1048B000140504462DED028B284601F025FA284602
:1048C00001F01EFA2846B0EE408A01F007FAD0ED5A
:1048D000007AF8EE677A88EE277ABDEC028B84EDD9
:1048E0000E7A38BD143001F00BBA00BF38B500F1B4
:1048F000140504462DED028B284601F0F3F92846F5
:1049000001F0FEF92846B0EE408A01F0E7F9D0ED5B
:10491000007AF8EE677A88EE277ABDEC028B84ED98
:104920000E7A38BD08B5143001F0D8F9006808BD1A
:1049300090ED0E0A704700BF10B540F203338EB001
:1049400000244FF60B7240F20341ADF8083009A87D
:104950000123ADF81020ADF824202246ADF80C104C
:104960000094029907940C94CDE90544CDE90A44DA
:1049700002F08EF804A8012322460399009402F065
:1049800087F809A802F06AF910B901200EB010BD2D
:1049900004A802F063F9A0420CBF022020460EB02A
:1049A00010BD00BF2DE9F04103239AB00127002478
:1049B0000646CDE914373B4BCDE9104340F2045392
:1049C000CDE91647ADF84830FFF7B6FFB8420546C7
:1049D00025D0022845D040F60132334B0DF12C088A
:1049E0001894ADF82C200B981997CDF84A3000F0A8
:1049F000E3F810A906F13C0003F07AF93020032215
:104A00004FF07E5341460D930E93CDE90B02F26BAE
:104A100006F1140001F02AF91AB0BDE8F081102364
:104A2000214A06A906908DF828300DF12C081F4B5D
:104A3000CDF84A2007930294CDE91804CDE9080483
:104A400002A802F08BFB0823029A03A94046ADF8A6
:104A50000C508DF80E40049505930B9400F0ECF883
:104A6000C7E700200121104B0DF12C083A460094B5
:104A7000CDF84A304FF60B730C94ADF82C3023462A
:104A8000CDE9180140F601314046ADF818100699FD
:104A9000CDE90D4401F0FCFF2146404602F0EAF862
:104AA000A7E700BF04020404040604030704010B83
:104AB0002DE9F04704462DED028B82B000294DD040
:104AC000012140F2011200230091ADF804208DF87D
:104AD0000630364A0127364B04F10409354904F102
:104AE0002908626040F20272A36040F60663E1604A
:104AF00004F1250AA4F82520A4F82930278284F897
:104B0000277084F82B7004F03FFF054604F09CFDED
:104B10006946064650BB4DB304F130008DF806706F
:104B200004F0B4FE072D3CD104F114052046FFF734
:104B300039FF284601F0E4F82846B0EE408A01F03B
:104B4000CDF8D0ED007AF8EE677A88EE277A84ED1A
:104B50000E7A02B0BDEC028BBDE8F08740F2011383
:104B600000918DF80610ADF80430B2E704F1300082
:104B700004F08CFE072D11D04946204602F038FD86
:104B80000EB9002DD0D1504602F07EF8404602F01A
:104B90007BF804F1120000F079F9C5E7002EF2D19C
:104BA000C2E74946204602F023FDBDE70508050996
:104BB00005070506050A060610B584B0034601245C
:104BC000ADF8040003A8ADF80C30ADF80E4002F0CB
:104BD0005BF8214603A802F041F9204604F032FDBB
:104BE000002103A802F03AF9204604F02BFD2146EB
:104BF00003A802F033F904B010BD00BF10B5C2F332
:104C0000002384B00C46017C8DF80D2043EA440259
:104C1000FA2402238DF80C2003AA009402F034FB3E
:104C200018B10124204604B010BD04460A2004F047
:104C300009FD204604B010BD034670B543F8042BAF
:104C4000044684B007C983E80700A37983B91A2111
:104C50000B461E22FA2523742046ADF80C200223B1
:104C600003AA009502F010FB28B1012004B070BD2A
:104C70001B210B46EDE70A2004F0E4FC4FF4B85288
:104C800000950223ADF80C20204603AA217C02F0F7
:104C9000FBFA0028E9D10A2004F0D4FC41F20272A8
:104CA00000950223ADF80C20204603AA217C02F0D7
:104CB000EBFA0028D9D10A2004F0C4FC04220095A4
:104CC0000223ADF80C20204603AA217C02F0DCFA76
:104CD0000028CAD10A2004F0B5FC06220095022360
:104CE000ADF80C20204603AA217C02F0CDFA002862
:104CF000BBD10A2004F0A6FC41F208220095022351
:104D0000ADF80C20204603AA217C02F0BDFA002851
:104D1000ABD10A20064604F095FC0095022303AAB5
:104D2000217C2046ADF80C6002F0AEFA00289CD140
:104D3000304604F087FC009522790C232046002A97
:104D40008DF80C3003AA4FF0020314BF62214221F8
:104D50008DF80D10217C02F097FA002885D130469D
:104D600004F070FC2279D4E902310B43DBB20AB9BA
:104D700043F0400362790AB143F020030E22FA2582
:104D80008DF80D302046009502238DF80C2003AAE3
:104D9000217C02F079FA00287FF467AF0A2004F042
:104DA00051FC102200950223ADF80C20204603AAE6
:104DB000217C02F069FA00287FF457AF0A2004F042
:104DC00041FC122100950223ADF80C1003AA217CAE
:104DD000204602F059FA00287FF447AF0A2004F079
:104DE00031FC012209212046FFF708FF003818BFD7
:104DF00001203BE7F0B5102387B0234C01220025AA
:104E00000126002702A920460195CDE902234FF48F
:104E10008052CDE904670DF0F7FB642005F084FEB5
:104E200002A94FF480522046CDE9046702261027DC
:104E3000CDE902670DF0E8FB0322102302A920460A
:104E4000CDE9022300230422CDE904234FF480524C
:104E50000DF0DAFB40F23223042202A90193102361
:104E60002046CDE90223019A012305924FF4805296
:104E700004930DF0C9FB40F6060120460DF0E4FB5B
:104E8000284607B0F0BD00BF044001201C4B0022A3
:104E90001C494FF0400C30B5054689B002205960DE
:104EA00007219A601A620124DA620A224FF4006E26
:104EB000DC6006922022CDE9000104200821CDE922
:104EC000020103201021CDE9040108206946C3E94D
:104ED00004024FF4C072181DC3E906C24FF4805299
:104EE000C3E909E20DF066FB38B92846FFF782FFF7
:104EF000003818BF012009B030BD204609B030BDD0
:104F00000040012040410052614A0021D0B51368A1
:104F10008EB00A91002B40F0B9805E4B01214FF614
:104F200083700C2411600221D3F8D42000260327BB
:104F300042F48052C3F8D420D3F8D42002F4805233
:104F40000092009AD3F8E02042F01002C3F8E0206B
:104F5000D3F8E02002F010020192019AD3F8E02089
:104F600042F04002C3F8E020D3F8E02002F0400213
:104F70000292029AD3F8E02042F00802C3F8E0203F
:104F8000D3F8E02002F008020392039AD3F8E0205D
:104F900042F48072C3F8E020D3F8E02002F480727B
:104FA0000492049AD3F8E02042F08002C3F8E02093
:104FB000D3F8E02002F080020592059AD3F8E020B1
:104FC00042F02002C3F8E020D3F8E02002F02002F3
:104FD0000692069AD3F8E02042F00402C3F8E020DB
:104FE000D3F8E0300C9403F0040307930323079AEB
:104FF0000B93CDE9080108A9274807F029FD48F2DD
:105000003712022308A925480C94CDE90823CDE9DD
:105010000A6707F01DFD4CF20372022308A920481D
:105020000C94CDE90823CDE90A6707F011FD40F2A1
:10503000FF62022308A91B480C94CDE90823CDE99F
:105040000A6707F005FD4FF60C72022308A91648FF
:105050000C94CDE90823CDE90A6707F0F9FC4FF677
:105060003F02022308A911480C94CDE90823CDE999
:105070000A6707F0EDFC2022022308A90A480C94D5
:10508000CDE90A67CDE9082307F0E2FC0EB0D0BDF8
:10509000FC3F01200044025800100258001802583A
:1050A000000C025800200258001C0258001402583C
:1050B0002DE9F04FDFF8108406460D46144608F13E
:1050C00018002DED028B89B000AF02F009FFD8F86F
:1050D000183073B3D8F81C30D8F80490002B43690B
:1050E0000BBF4FF0080A4FF0100A4FF0020B4FF0C1
:1050F000040BB9F1000F2AD0A200EA46012B02F1FD
:10510000070222F00702ADEB020D6846ADEB020D7F
:10511000694600F03F81022B00F0D680002B6FD053
:105120002246C847D5462437BD46BDEC028BBDE8B4
:10513000F08FD8F81C30002BF5D0D8F804904FF041
:10514000080A4FF0020B4369B9F1000FD4D1FB619B
:10515000D8F80030BB61002BE5D0D54802F03EFF07
:105160006B46BBF1020F786108EE103AFB6900F064
:1051700083816A465146A2EBC40295466200EA4624
:10518000B2FBFBF2AAEBC40085460AEB8200EE46B6
:10519000F861ADEB010DF8690EEB820CC7F810C099
:1051A000EC46ADEB010D00EB8201CCF80400CCF82D
:1051B000081001EB82013869E946CCF80C1000EBCD
:1051C0008201CCF800A001EB8202C9E900E0C9E944
:1051D0000212012B00F06483022B00F06C82002B82
:1051E00000F08081620849466046BB69984718EE26
:1051F000103A24379D46BD46BDEC028BBDE8F08FCA
:10520000002C8DD01A46D8ED0C6A9FEDB27A8446F8
:10521000331D36F922E00CF1080C07EE90EA33F961
:1052200022E00232F8EEE77A944267EE877A67EE80
:10523000A67A4CED027A07EE90EAF8EEE77A67EE8E
:10524000877A67EEA67A4CED017AE2D8F9612246B8
:10525000C847984ED8ED0D6A0020F9692B1D9FEDC7
:105260009E7A9FED9E6ADFED9E5A22E0F4EEC67AAA
:10527000F1EE10FAC0F2C88447F6FE72D1ED017A61
:1052800045F8202066EEA77AF4EEC77AF1EE10FA20
:1052900040F2F080F4EEC67AF1EE10FAC0F2D58456
:1052A00047F6FE7243F820200230083184427FF630
:1052B00039AFD1ED007A66EEA77AF4EEC77AF1EE57
:1052C00010FAD3D83246D9E7002C3FF429AFD8EDF5
:1052D0000C6A84469FED787A0022331D8E4656F87C
:1052E00022100CF1080C07EE901A53F8221002322B
:1052F000F8EEE77A944267EE877A67EEA67A4CED8D
:10530000027A07EE901AF8EEE77A67EE877A67EE90
:10531000A67A4CED017AE2D871462246C7F81CE025
:10532000C847664ED8ED0D6A0020F9692B1D9FED28
:105330006A7A9FED6A6ADFF894C120E0F4EEC67ADB
:10534000F1EE10FAC0F279843246D1ED017A45F8D7
:10535000202066EEA77AF4EEC77AF1EE10FA40F25A
:105360008780F4EEC67AF1EE10FAC0F25E8432461F
:1053700043F820200230083184427FF6D3AED1EDCD
:10538000007A66EEA77AF4EEC77AF1EE10FAD5D875
:105390006246DAE7002C3FF4C3AED8ED0C6A8646CD
:1053A0009FED477A4FF0000C331D56F82C200EF17C
:1053B000080E82F40002A2F5000207EE902A53F8CC
:1053C0002C200CF1020CF8EEE77A82F4000264451E
:1053D000A2F5000267EE877A67EEA67A4EED027AB2
:1053E00007EE902AF8EEE77A67EE877A67EEA67AFC
:1053F0004EED017AD9D8F9612246C847314ED8ED31
:105400000D6A0020F9692B1D9FED337A9FED336AF9
:10541000DFF8BCC01FE0F4EEC67AF1EE10FAC0F27D
:10542000FC833246D1ED017A45F8202066EEA77A5A
:10543000F4EEC77AF1EE10FA18D9F4EEC67AF1EE6E
:1054400010FAC0F2DA83324643F8202002300831E5
:1054500084427FF667AED1ED007A66EEA77AF4EE6D
:10546000C77AF1EE10FAD6D86246DBE76246EBE780
:1054700062467DE7324615E7A100D646620807314D
:1054800021F00701ADEB010DEA46ADEB010D6946D8
:10549000ADEB0E0D0AEB8200EC46ADEB0E0D01EB11
:1054A0008202F861E946CCE900A0C9E9001290E661
:1054B000544001200280FFFF000000300082FF7F87
:1054C0000000003482FF7F0038400120007E008011
:1054D0007E0080FF0000003804FF7FBF04FF7F3F95
:1054E00000FEFF46002C00F0C982BBF1020FD8F885
:1054F000242000F0FA827969C7F8049002EB810E4B
:105500005FED0C5A8A00DCF808100EF104007A6195
:105510001A46DCF80C303B61331DD7F810903D6122
:10552000FD69C7E902CB8C46834636F92210D8EDD7
:105530000C7A06EE101A33F9221006EE901A3EF994
:105540002210B8EEC66A07EE101AF8EEE66A3BF9CA
:105550002210B8EEC77A26EE256A66EEA56A27EE17
:10556000257A26EE276A66EEA76A27EE277A07EEE7
:10557000901A51080232F8EEE77A0AEB8100944261
:1055800080ED006A05EB810067EEA57AC0ED006A48
:105590000CEB810009EB810180ED007A98ED0C7A2B
:1055A00067EE877AC1ED007ABFD8D7F804903D69DD
:1055B000D7E902CB60466208BB6949469847D8F8EC
:1055C0002C307A69D8ED0D6A1A441FED3D7A1FED33
:1055D0003D6A2B1D904602F1040A5FED3F5A0022FE
:1055E000A84ED9E900EC51E0F4EEC67AF1EE10FADB
:1055F000C0F2C78247F6FE7045F822000CEB0100AE
:10560000D0ED007A66EEA77AF4EEC77AF1EE10FAE2
:105610004BD9F4EEC67AF1EE10FAC0F2BA8247F630
:10562000FE70BBF1020F43F822002BD0D9F808001E
:105630000844D0ED007A66EEA77AF4EEC77AF1EE70
:1056400010FA36D9F4EEC67AF1EE10FAC0F2CD8235
:1056500047F6FE7048F82200D9F80C000144D1ED5D
:10566000007A66EEA77AF4EEC77AF1EE10FA1ED948
:10567000F4EEC67AF1EE10FAC0F2AF8247F6FE7190
:105680004AF82210023294427FF6B1AD51080EEB77
:1056900081008900D0ED007A66EEA77AF4EEC77A31
:1056A000F1EE10FAA0D83046A6E73046B9E7314609
:1056B000E6E73046CEE7002C00F0E081BBF1020FB8
:1056C000D8F8243000F0E1817A69DCF8081003EBA7
:1056D000820EC7F804909300DFED6B5A0EF10400C0
:1056E00000227B61DCF80C303B61331DD7F8109051
:1056F0003D61FD69C7E902CB8C46834656F822100E
:10570000D8ED0C7A07EE101A53F82210B8EEC76ADB
:1057100007EE101A5EF82210F8EEC76A07EE101AAC
:1057200026EE256A5BF82210B8EEC77A66EEA56A07
:1057300026EE276A27EE257A66EEA76A27EE277AF5
:1057400007EE901A51080232F8EEE77A0AEB810070
:10575000944280ED006A05EB810067EEA57AC0ED0A
:10576000006A0CEB810009EB810180ED007A98ED75
:105770000C7A67EE877AC1ED007ABFD8D7F804902B
:105780003D69D7E902CB60466208BB694946984744
:10579000D8F82C307A69D8ED0D6A1A449FED3E7A1C
:1057A0009FED3E6A131D9246DFF8E4C00022FB61C4
:1057B0002B1D364ED9E9008E4EE0F4EEC67AF1EE9E
:1057C00010FAC0F2FC81304645F822000EEB0100D1
:1057D000D0ED007A66EEA77AF4EEC77AF1EE10FA11
:1057E00049D9F4EEC67AF1EE10FAC0F2EF813046F4
:1057F000BBF1020F43F822002AD0D9F80800084470
:10580000D0ED007A66EEA77AF4EEC77AF1EE10FAE0
:1058100035D9F4EEC67AF1EE10FAC0F2C9813046FD
:105820004AF82200D9F80C000144D1ED007A66EE66
:10583000A77AF4EEC77AF1EE10FA1ED9F4EEC67A22
:10584000F1EE10FAC0F2AD813146F86940F822104D
:10585000023294427FF6CBAC510808EB81008900FC
:10586000D0ED007A66EEA77AF4EEC77AF1EE10FA80
:10587000A3D86046A8E76046BAE76146E5E7604618
:10588000CEE700BF0280FFFF000000300082FF7FF4
:10589000007E00800000003404FF7FBF04FF7F3FD4
:1058A000002C00F0EB807A690021D8F82430C7F88A
:1058B000109003EB820ED7F81C909300FD610EF15F
:1058C00004021FED0C6A7B61331D154656F821203A
:1058D0004808D8ED0C6ABBF1020F82F40002A2F571
:1058E000000207EE902A53F8212082F40002B8EE5D
:1058F000E77AA2F5000227EE067A07EE902A0AEB75
:105900008002F8EEE77A27EE267A67EE867A82ED55
:10591000007A09EB80024FEA800067EEA67AC2EDBA
:10592000007A27D05EF8212082F40002A2F500025E
:1059300007EE902A55F8212082F40002B8EEE77AAB
:10594000A2F5000227EE067A07EE902ADCF808207E
:10595000F8EEE77A024427EE267A67EE867A82ED41
:10596000007A98ED0C7ADCF80C2067EE877A024416
:10597000C2ED007A02318C42A8D8D7F81090604668
:105980006208BB694946FD699847D8F82C307A69A6
:10599000D8ED0D6A1A441FED407A1FED406A131DC1
:1059A0009246DFF8C4C20022FB612B1DAB4ED9E941
:1059B000008E4EE0F4EEC67AF1EE10FAC0F2C58029
:1059C000304645F822000EEB0100D0ED007A66EE7D
:1059D000A77AF4EEC77AF1EE10FA49D9F4EEC67A56
:1059E000F1EE10FAC0F2BF803046BBF1020F43F86F
:1059F00022002AD0D9F808000844D0ED007A66EEDB
:105A0000A77AF4EEC77AF1EE10FA35D9F4EEC67A39
:105A1000F1EE10FAC0F2AE8030464AF82200D9F812
:105A20000C000144D1ED007A66EEA77AF4EEC77A55
:105A3000F1EE10FA1ED9F4EEC67AF1EE10FAC0F2C9
:105A40008B803146F86940F82210023294427FF68A
:105A5000CEAB510808EB81008900D0ED007A66EEEC
:105A6000A77AF4EEC77AF1EE10FAA3D86046A8E759
:105A70006046BAE76146E5E76046CEE7224649461A
:105A80006046BB699847FFF7B2BBC7F810B0002269
:105A900098ED0C6A331DDFED726AD7F81CB0786997
:105AA00056F8221007EE901A53F82210B8EEE77A53
:105AB00007EE901A51080232F8EEE77A27EE267ABE
:105AC0000AEB810E94420BEB810167EEA67A27EE7A
:105AD000067A67EE867A8EED007AC1ED007ADFD81D
