:020000040800F2
:10000000000002208906000885060008255C00081B
:100010008506000885060008850600080000000027
:10002000000000000000000000000000850600083D
:10003000850600080000000085060008A95B00088E
:100040008506000885060008850600088506000864
:100050008506000885060008850600088506000854
:10006000850600088506000885060008F94700088F
:1000700005480008C5360008114800081D4800085A
:1000800029560008293D0008850600088506000855
:100090008506000885060008850600088506000814
:1000A0008506000885060008850600088506000804
:1000B000AD4F0108B94F0108C54F01085D3D00086B
:1000C00085060008693D0008850600081D480108EE
:1000D000294801085D54000889540008BD540008EF
:1000E0008506000885060008000000008506000857
:1000F00085060008850600088506000885060008B4
:1001000085060008A54B0008D14F010835480108B5
:10011000F1540008255500088506000885060008EA
:100120008506000885060008594801088D48010821
:100130005D5600088506000885060008850600084B
:1001400000000000000000000000000000000000AF
:100150008506000885060008850600085955000830
:10016000753D000885060008B95B0008DD5B0008E6
:1001700085060008015C0008850600088506000861
:1001800085060008850600088D550008C155000841
:10019000414801084D480108850600088506000809
:1001A0008506000885060008850600088506000803
:1001B0001945000885060008850600088506000820
:1001C0008506000885060008B1310008BD31000829
:1001D00085060008C9310008850600088506000864
:1001E00085060008850600088506000885060008C3
:1001F00085060008850600088506000885060008B3
:1002000085060008850600088506000885060008A2
:100210008506000885060008850600088506000892
:100220008506000885060008850600080000000015
:100230008506000885060008000000008506000805
:100240008506000885060008850600088506000862
:100250008506000885060008850600088506000852
:100260008506000885060008850600088506000842
:100270008506000885060008F55500080000000006
:1002800085060008850600088506000800000000B5
:080290000000000085060008D3
:1002A00010B5054C237833B9044B13B10448AFF3B0
:1002B00000800123237010BD080600240000000008
:1002C0009882010808B5034B1BB103490348AFF3FB
:1002D000008008BD000000000C0600249882010880
:1002E00001F0FF01102A2BDB10F0070F08D010F8E7
:1002F000013B013A8B422DD010F0070F42B3F6D1EB
:10030000F0B441EA012141EA014122F007047FF003
:1003100000070023F0E80256083C85EA010586EA5A
:10032000010685FA47F5A3FA87F586FA47F6A5FA96
:1003300087F68EB9EED1F0BC01F0FF0102F00702A2
:1003400032B110F8013B013A83EA010313B1F8D14D
:100350000020704701387047002D06BF354603382E
:10036000073815F0010F07D1013015F4807F02BF67
:10037000013015F4C03F0130F0BC0138704700BFB8
:1003800053B94AB9002908BF00281CBF4FF0FF31FC
:100390004FF0FF3000F074B9ADF1080C6DE904CEF8
:1003A00000F006F8DDF804E0DDE9022304B0704750
:1003B0002DE9F047089D04468E46002B4DD18A4218
:1003C000944669D9B2FA82F252B101FA02F3C2F14B
:1003D000200120FA01F10CFA02FC41EA030E9440DC
:1003E0004FEA1C48210CBEFBF8F61FFA8CF708FBFD
:1003F00016E341EA034306FB07F199420AD91CEBD5
:10040000030306F1FF3080F01F81994240F21C8106
:10041000023E63445B1AA4B2B3FBF8F008FB10334E
:1004200044EA034400FB07F7A7420AD91CEB040483
:1004300000F1FF3380F00A81A74240F20781644453
:10044000023840EA0640E41B00261DB1D4400023D8
:10045000C5E900433146BDE8F0878B4209D9002D3C
:1004600000F0EF800026C5E9000130463146BDE8C6
:10047000F087B3FA83F6002E4AD18B4202D3824230
:1004800000F2F980841A61EB030301209E46002DDF
:10049000E0D0C5E9004EDDE702B9FFDEB2FA82F234
:1004A000002A40F09280A1EB0C014FEA1C471FFA92
:1004B0008CFE0126200CB1FBF7F307FB131140EA79
:1004C00001410EFB03F0884208D91CEB010103F146
:1004D000FF3802D2884200F2CB804346091AA4B208
:1004E000B1FBF7F007FB101144EA01440EFB00FEDC
:1004F000A64508D91CEB040400F1FF3102D2A64541
:1005000000F2BB800846A4EB0E0440EA03409CE7DF
:10051000C6F12007B34022FA07FC4CEA030C20FA8C
:1005200007F401FA06F31C43F9404FEA1C4900FAAC
:1005300006F3B1FBF9F8200C1FFA8CFE09FB181129
:1005400040EA014108FB0EF0884202FA06F20BD99C
:100550001CEB010108F1FF3A80F08880884240F2EC
:100560008580A8F102086144091AA4B2B1FBF9F030
:1005700009FB101144EA014100FB0EFE8E4508D92B
:100580001CEB010100F1FF346CD28E456AD90238B0
:10059000614440EA0840A0FB0294A1EB0E01A14295
:1005A000C846A64656D353D05DB1B3EB080261EB03
:1005B0000E0101FA07F722FA06F3F1401F43C5E9DD
:1005C000007100263146BDE8F087C2F12003D84013
:1005D0000CFA02FC21FA03F3914001434FEA1C4755
:1005E0001FFA8CFEB3FBF7F007FB10360B0C43EA47
:1005F000064300FB0EF69E4204FA02F408D91CEBF7
:10060000030300F1FF382FD29E422DD902386344F4
:100610009B1B89B2B3FBF7F607FB163341EA034194
:1006200006FB0EF38B4208D91CEB010106F1FF38E3
:1006300016D28B4214D9023E6144C91A46EA0046DA
:1006400038E72E46284605E70646E3E61846F8E66C
:100650004B45A9D2B9EB020864EB0C0E0138A3E7B5
:100660004646EAE7204694E74046D1E7D0467BE796
:10067000023B614432E7304609E76444023842E70E
:10068000704700BFFEE700BF0B480C4A904203D002
:10069000121A0B4915F068FE0A480B4A904203D023
:1006A000121A002115F088FE05F014FD15F028FE41
:1006B00001F03EFCFEE700BF000000240806002415
:1006C000D08201080806002408250124034B03EB0F
:1006D000800203445268187B53681847340800248A
:1006E000074B1A5C52B903EB800219184FF0010C4A
:1006F000526803F800C0087B136818470020704751
:100700003408002430B4054C04EB800504446D68C3
:10071000207BAC68A44630BC604700BF340800248E
:1007200030B4054C04EB800504446D68207BEC6814
:10073000A44630BC604700BF3408002410B40468ED
:100740009CB12178844622463A2913D01F2911D919
:1007500012F8013F1F2B0ED93A2BF9D10134A1F128
:100760003000A24201D101280CD94FF0FF305DF8D2
:10077000044B70470B463A2BF0D0044B18785DF8C9
:10078000044B70470132CCF80020F8E7240600241F
:100790002DE9F0410026D0F800808E758369002B8A
:1007A0005AD0C36A07460D4601331ED0D8F80C3024
:1007B0001888002861D001F11506012400E01C46CC
:1007C000002101F043F9631C002856D0B4F5807F66
:1007D00053D006F8010FD8F80C2032F81400002886
:1007E000EDD12C440023A375AE7DD7F81CC00020AA
:1007F0004FF02E080CF1FF31024611F8013F013293
:10080000202B18D0052B08BFE523092A26D02C1849
:1008100063727EB9A3F14107192F0AD8082A9CF800
:100820000CE08CBF102708271EEA070F01D02033E9
:10083000DBB2A37501300B2ADFD12C18B6B100232F
:1008400063729CF80B302B72DCF81C302B60DCF8E8
:1008500016301A0CEB80AA80BDE8F0812C180EB976
:1008600084F81680013084F80980D0E7A6759CF8DA
:100870000C30002B08BF2C46E1E7002400232C4459
:10088000A375AE7DB1E700BF2DE9F041456B00F1E6
:100890003808044601232A4641464078FFF740FFC6
:1008A000C0B9A26A0746236AAA1AE0709A420ED219
:1008B000A678012E01D80AE0236A1D44013E0123D7
:1008C00041462A466078FFF72BFF012EF4D13846C7
:1008D000BDE8F08101273846BDE8F08138B5C3781E
:1008E00004460D4663B901232A4604F138016078B5
:1008F000FFF708FF10B101204FF0FF35656338BDE9
:10090000FFF7C2FF0028EED038BD00BF70B54FF032
:10091000FF3600230446B142C37046630CD00D4637
:100920000A46012300F138014078FFF7EBFE10B1D1
:100930000420666370BD65634AF65523B4F8362219
:100940009A421AD194F83830E92B07D0A36B0D4A9C
:1009500003F0FF13934201D0022070BDD4F86E3033
:10096000094A23F07F43934209D0D4F88A00074B09
:10097000984214BF0220002070BD032070BD0020EB
:1009800070BD00BFEB009000464154004641543317
:100990000023F0B50B6085B00E461446FFF7CEFE7F
:1009A000051EC0F2BC808C4B53F82570002F00F060
:1009B000C380376004F0FE043B787BB17878FFF7A2
:1009C00085FEC6070AD4002C00F0A28010F00404B3
:1009D00000F09E800A24204605B0F0BDE8B2002356
:1009E00078703B70FFF77CFEC50700F194800CB176
:1009F0004407EFD400213846FFF788FF02286DD066
:100A0000042800F09080012800F281800025B7F8CA
:100A10004330B3F5007F7AD1B7F84E2002B9FA6DB2
:100A200097F848303A62591EBB7001296FD897F881
:100A3000451088B27881002869D0481E084266D1E6
:100A4000B7F8496030073E8161D1B7F84B0000B973
:100A5000B86DB7F846E0BEF1000F58D002FB03F3C3
:100A60000EEB16141C44A04251D3001B8842B0FB6D
:100A7000F1FC4CD34FF6F5718C455FD840F6F5711B
:100A80000EEB05002C447D628C450CF102013C63A9
:100A9000F961B86273D8002E39D0034401EB4100EC
:100AA00001F00101FB6201EB5001012001F2FF1195
:100AB000B2EB512F2BD34FF0FF338022C7E9043321
:100AC0003A71464A0021464C1388FC600C460133BB
:100AD0003870B9619BB21380FB8019E06C4607F552
:100AE000FB7307F2362520461A79114602B1996840
:100AF000103340F8041B9D42F6D104F1100654F85F
:100B0000045B03208DB9B442F9D104280BD00D2425
:100B1000204605B0F0BD0324204605B0F0BD0B24EF
:100B2000204605B0F0BD0124F2E729463846FFF71C
:100B3000EDFE0128E7D86AE70C24E9E70EEB050192
:100B40000CF102032C447D62B962B7F862103C6379
:100B50003143FB61DBD19B00796E03F2FF13F96235
:100B6000B2EB532FD3D3B7F868204FF0FF33802177
:100B7000012A3971C7E9043308D00320A1E7002E08
:100B8000C5D0034449000220FB628FE7691C7B6BE0
:100B9000994204D03846FFF7A1FE0028EDD14AF66D
:100BA0005523B7F8362200219A423971E5D1BA6B44
:100BB0000C4B9A42E1D103F1FF53D7F81C2203F505
:100BC000005320339A42D8D1D7F820220320D7F8F7
:100BD0002432C7E9043274E72806002430060024D2
:100BE00034060024525261412DE9F843037804464B
:100BF0000D461646022B06D0032B6AD0012B27D0B8
:100C00000220BDE8F883876A436B07EB11279F42F8
:100C100000F09080C378002B40F0B68004F13808D3
:100C200001233A4660784146FFF76CFD00284AD11F
:100C300067636D00C6F307220123002005F4FF75EA
:100C400008EB050108F805604A70E370BDE8F88319
:100C500001EB5107826A436B02EB5728984563D03A
:100C6000C378002B40F08A8004F138090123424602
:100C700060784946FFF746FD28BBC4F8348015F07C
:100C8000010507F10108C7F308075ED019F807301E
:100C900003F00F0343EA061309F807300123A76A9C
:100CA000E37007EB5827636B9F4278D02046FFF72D
:100CB000EBFD0028A5D101233A4649466078FFF7AD
:100CC00021FD002839D04FF0FF3301206363BDE8D8
:100CD000F883826A436B02EBD118984527D0C3781A
:100CE000002B57D104F1380701234246607839467A
:100CF000FFF708FD0028E6D1C4F83480AD0026F0E7
:100D0000704205F4FE757B59791903F070431A435C
:100D1000130C7A55100A8B70120E01234870CA709A
:100D20000020E370BDE8F88300F13809A7E700F17F
:100D30003807E3E700F138087BE7C8F30801676389
:100D400049447DB1C6F3071212E009F80760012398
:100D5000A76AE37007EB5827636B9F42A6D1C8F3DD
:100D6000080149440B78C6F3032223F00F063243EF
:100D700001230A700020E370BDE8F883FFF784FDCB
:100D800000283FF471AF3CE7FFF77EFD00283FF4F9
:100D900045AF36E7FFF778FD0028A3D031E7C8F369
:100DA000080309EB0301CDE701294CD9C369994236
:100DB0002DE9F0410C46054602D30120BDE8F08143
:100DC0000378022B5AD0032B3FD0012BF5D101EB36
:100DD0005106826A436B02EB56279F420ED0C378BE
:100DE000002B79D101233A4605F138016878FFF7E5
:100DF00089FC00285FD1AA6A3B466F63771CC6F363
:100E0000080602EB57282E44434596F838600DD06B
:100E1000EB78002B65D10123424605F13801687853
:100E2000FFF770FC002846D1C5F83480C7F30807E7
:100E3000E3073D4495F8380046EA00204CBF00091E
:100E4000C0F30B00BAE701207047866A436B06EBDC
:100E5000D1169E4229D0C37893BB05F138070123F0
:100E6000324668783946FFF74DFC20BB6E63A4001C
:100E700004F4FE74385920F070409FE7866A436B93
:100E800006EB11269E4213D0C37803BB05F1380749
:100E90000123324668783946FFF734FC58B96E634F
:100EA000640004F4FF74385B88E700F13807DEE77C
:100EB00000F13807F4E74FF0FF3318466B637DE726
:100EC000FFF7E2FC0028C8D04FF0FF3076E7FFF7CD
:100ED000DBFC0028DAD0F7E7FFF7D6FC002881D04A
:100EE000F2E72846FFF7D0FC002894D0ECE700BFDB
:100EF0002DE9F04105460F46066800294BD1D6F88A
:100F00001080F369B8F1000F35D14FF00108444665
:100F100006E001283AD0431C38D0444538D0F36964
:100F200001349C4204D3B8F1010F4FF002042FD0DA
:100F300021462868FFF738FF0028EAD1012C24D980
:100F4000F3699C4221D24FF0FF3221463046FFF731
:100F50004BFE00B9A7B950BBF3697269023B34611B
:100F60009A4201D8013A72613379204643F0010375
:100F70003371BDE8F081434598BF4FF00108C6E7E3
:100F8000012F02D0F3699F4216D30120BDE8F08102
:100F90000020BDE8F0813046FFF706FF0128F4D9B4
:100FA000421C06D0F3698342F0D8B846AFE7012867
:100FB000EBD14FF0FF30E9E7224639463046FFF7E4
:100FC00013FEC8E72DE9F04F056983B0836920352A
:100FD000B5F5001F3BD2002B39D0C5F308080446F5
:100FE0000768B8F1000F08D007F138064644002022
:100FF0002561E66103B0BDE8F08F0E46013341691B
:10100000836141B3B7F80A9009F1FF3919EA55290C
:10101000EAD13846FFF7C8FE0128834623D9B0F14C
:10102000FF3F5DD0FA6982421FD9831E07F138065F
:101030000193023A0199C4F814B08A4204D9B7F86E
:101040000A903B6B01FB0939C4F81890CEE70420E5
:1010500003B0BDE8F08F3B89B3EB551FC4D8002324
:101060000420A361C6E70220C4E7002EF7D061691F
:101070002046FFF73DFF8346002839D00128F2D0F3
:10108000B0F1FF3F2CD0FA78002A33D107F13806AF
:10109000ABF102034FF4007200213046019315F0CA
:1010A0008BF9F869019B821E934229D279893A6BA8
:1010B000019B03FB01227A6329B34FF0000A05E08C
:1010C0007A6B7889013250457A630BD94FF001036E
:1010D00038460AF1010AFB70FFF7D6FB0028EFD073
:1010E000012087E7F869A2EB0A027A630246A0E7CB
:1010F00007207FE73846FFF7C7FB0028C6D0EFE799
:1011000079890022D7E78A46EDE700BF2DE9F0474D
:1011100004464FF0FF08042025684646D4F818908E
:1011200005F13807B9F1000F32D06B6B4B4513D086
:10113000EB78002B64D101234A4639466878FFF7E3
:10114000E1FA38B14FF0FF3301206B630023A36154
:10115000BDE8F087C5F83490E1690A78002A58D0D4
:10116000CB7AE52A03F03F03A37105D02E2A03D0E2
:1011700023F02000082810D1FF2600212046FFF789
:1011800021FF0028E2D1D4F81890B9F1000FCCD19A
:101190000028DBD10020BDE8F0870F2B46D1500698
:1011A00034D5236902F0BF0691F80D80E3624B7BD2
:1011B0004345E1D14B8B002BDED10B780122DFF8C8
:1011C00094E04FF6FF7A23F04003D5F80C900EF12F
:1011D0000C0C013B03EB430003EB8003104609E0DA
:1011E000FE2B1046C8D829F813200133E64512D04B
:1011F0001EF8012F8A5A0028F2D15245F6D0BBE7DB
:101200002846FFF741FB002895D09FE7B242B3D1B3
:10121000CDE704209AE70A78520604D5FE2BABD816
:10122000002229F81320013EF6B2A6E76EB901F1BB
:101230000B02F30143EA560611F8013B53FA86F616
:101240009142F6B2F5D14645A4D04FF0FF330020CD
:10125000E3627DE7A4790108B1F5001F42D2CA0616
:10126000F8B50D4620D18168064607680561E9B1E9
:101270007B89B5EB432F4FEA432435D3384607E04B
:10128000012811D9FB6983420ED9AC422DD83068B0
:10129000FFF78AFD431CA5EB04050146F0D10120B0
:1012A000F8BD0023C6E905130220F8BD3B78022BE8
:1012B00013D83B89B3EB551FF6D9FA6AB261716155
:1012C000002AF1D007F13803C5F3080102EB5522DB
:1012D00000200B44C6E90623F8BDFB6A002BE8D0CA
:1012E0001946C5E702207047FB69023B881E9842F9
:1012F000D7D27B893A6B00FB0322B261DFE700BFE4
:101300002DE9F04F0021054607682DED028B85B0D1
:10131000FFF7A2FFC8B94FF0FF094FF0FF3307F105
:101320003808CA46EB62AC697B6B9C4213D0FB78F1
:10133000002B4FD10123224641467878FFF7E2F98E
:1013400040B14FF0FF3301207B6305B0BDEC028B51
:10135000BDE8F08F7C63EC692678002E00F0AB804E
:10136000E27AE52E02F03F03AB7103D0100711D5EE
:101370000F2B39D04FF0FF334FF0FF0AEB62002103
:101380002846FFF71FFE0028CDD005B0BDEC028B2C
:10139000BDE8F08F0F2B27D0BAF1000F77D095F86A
:1013A0002B0010F00100E5D195F8201005F1210285
:1013B00014F8013B05F12B065B1A002BDAD112F869
:1013C000011B14F8013BB242A3EB0103F5D1002B42
:1013D000D0D1BAE73846FFF757FA0028AAD005B0AF
:1013E000BDEC028BBDE8F08F95F82B305906C6D4C2
:1013F000720647D52B6906F0BF0694F80D90EB6294
:10140000637B4B4540D1638B002B3DD194F800A00A
:101410000123F96808EE108A0AF03F0A0296019546
:101420000E460AF1FF3ADFF8C0B0184625460AEB2F
:101430004A02039100970AEB820A13E0BAF1FE0F09
:10144000204618D800F022FB804636F81A00BA462B
:1014500000F01CFB804520460DD1224B9B452CD033
:101460001BF8013F0AF10107EC5A0028E6D14FF6BC
:10147000FF739C42F1D0DDE9007518EE108A4FF041
:10148000FF0A7CE7B245BBD04FF0FF0A77E704F1D3
:101490000B0022464FEACA1312F8011B43EA5A0A0C
:1014A000824251FA8AFA5FFA8AFAF3D1D1457FF47F
:1014B00076AF002049E7042047E72C46009F029EB4
:1014C00018EE108A2378019D5B0600D520B906F13D
:1014D000FF3A5FFA8AFA52E7039B33F81A30002B7F
:1014E000F5D0D1E7B0790108A47901082DE9F04FD2
:1014F0000B7883B00E4607462F2BD0F800B037D0BC
:101500005C2B37D0DBF81830836033781F2B3AD947
:101510005A461F2BD56898B240F22181A5F10209E5
:10152000B046012408E029F8020F631C18F8010FE7
:101530001F2840F21A811C462F2804F1FF3A2CD0B4
:101540005C282AD0B4F5807F0ED0012100F07EFA0D
:1015500050B17F28E7D82223B14A03E012F8013FB7
:10156000002BE0D09842F9D1062003B0BDE8F08FFF
:1015700016F8013F2F2BFBD05C2BF9D00023BB606A
:1015800033781F2BC4D880230021384687F82B30AE
:1015900003B0BDE8F04FFFF75FBE335D32195C2B3F
:1015A00002D02F2B40F05C81631C33441E4613F89D
:1015B000012B2F2AFAD05C2AF8D0BAF1010F4FF094
:1015C000000800F0DA80BAF1020F40F0DC806B888E
:1015D0002E2B00F01381934A05EB420205E0BAF18D
:1015E000010A00F0BC8032F8023D202BF7D02E2BF0
:1015F000F5D04FF02033002225F81A207B623B62A1
:10160000C7F827302888202802D02E2840F0FC80F8
:101610002A46002332F8020F1C4601332028F9D055
:101620002E28F7D048F00308023405EB4A0333F8BC
:10163000022D2E2A02D0BAF1010AF8D190B300236C
:101640000822BC46314699461F462E465B46154643
:10165000E3460A46202803D02E283AD1544538D0F4
:1016600048F0030836F8140001340028F2D1594636
:101670009B463B4616460F4691F820102A46E52920
:1016800002D1052187F82010082A00F0958003F088
:101690000C020C2A04D003F00303032B40F09680C5
:1016A00048F0020887F82B803846FFF729FE97F8A4
:1016B0002B3060B304287FF458AF9C0640F1E480DF
:1016C00059073AD58023002087F82B3003B0BDE8B6
:1016D000F08F4D4534D9A4EB0A01B1FA81F14909E3
:1016E00071BB7F2858D82B21DFF840C103E01CF8DC
:1016F000011F00297AD08142F9D148F003085F2008
:101700000BEB090109F1010981F82000AAE75A074A
:101710003FF52BAFBB79DB0640F1B4803B699BF80A
:101720000010C3F308020BF13803032913445A8B4A
:1017300002D19B8A42EA0342BA603A683378E8E60B
:101740000B2D00F08F80544502D048F003088ED84E
:10175000BF0054460B254FF00809FFB282E7002373
:1017600006202B8003B0BDE8F08FA2461E444FF048
:101770000408BAF1010F7FF426AF2B882E2B45D039
:101780004FF0004228E7BAF1000FE8D06FF00042B6
:10179000524435F812301FE7CDE9003200F056F917
:1017A000DDE90032F8B1204948F00208084410F899
:1017B000800C0028A1D096E79B0003F00C020C2AB5
:1017C0003FF46EAF18F0020F08D06BE718F0020F6D
:1017D0007FF468AF012B08BF48F01008042A08BF47
:1017E00048F008085EE748F0020886E7A0F14101EA
:1017F00019292CD847F00207C0B281E72A882E2A7F
:101800007FF4E9AE042302E001240EE70223002264
:101810002E242020EA5207F1200201230DE000BF10
:101820001079010801000080247901081C79010861
:101830000B2B107006D001330132591E8A45F7D99F
:101840001470F8E748F0200887F82B802CE7A0F107
:10185000610119299CBF203847F00107C0B24FE74A
:101860001646AAE6594616469B4648F0030891F8E4
:1018700020203B460F46E52A7FF409AF052281F878
:10188000202004E7052070E613F0040F08BF0520B0
:101890006BE600BF30B585B01546019003A80091F6
:1018A0000391FEF74BFF031E1BDB0F4C54F8231074
:1018B00009B100220A70019959B10022012D44F8A2
:1018C00023100A700AD101A96846FFF761F805B034
:1018D00030BD084644F8231005B030BD104605B0B1
:1018E00030BD0B2005B030BD2806002410B584B0F3
:1018F0000191002832D00446002203A901A8FFF775
:1019000047F818B10023236004B010BD039B2046A4
:1019100001992360FFF7EAFDE0B994F92B30002B21
:101920001FDBA379DB0617D5039BE16918784A8B87
:10193000032802D1898A42EA0142A260DB880021A1
:101940002046A380FFF788FC042805D00028D9D1C1
:1019500004B010BD0428D5D10520D3E7092004B078
:1019600010BD039BEAE700BF98B1036810B50446B9
:101970002BB11A781AB18188DA88914201D00920F6
:1019800010BD5878FEF7A2FE10F00100F7D12060DC
:1019900010BD0920704700BF20B3036870B504462E
:1019A00033B11A7822B10D46DA888188914201D08C
:1019B000092070BD5878FEF789FEC307F8D49DB1A1
:1019C0002046FFF7A3FB10F0FB06F2D12946204684
:1019D000FEF7DEFE31462046FFF7F4FA042808BF82
:1019E000002070BD0920704729462046BDE87040A0
:1019F000FFF732BC144B9A7B012A01D901207047B2
:101A000093F80EC000225FFA8CFC03F80C2093F8C8
:101A10000EC003EB8C0CCCF8040093F80EC0987B3E
:101A20009C448CF80C2000F1010C30305FFA8CFCE7
:101A300083F80EC04FF03A0C2F23087081F801C0D4
:101A400010468B70CA707047340800247F2814D960
:101A500081B90D4AC72303E080290DD032F8023F37
:101A600098421FFA81FC01F10101F5D10CF18000CF
:101A700080B27047FF2801D900207047024B8038A0
:101A800033F81000704700BFB4790108B0F5805FEB
:101A9000244A41F67D51244B34BF6121134610B5D1
:101AA000043303E00433DAB133F8041C1C46B1B14B
:101AB000884214D333F8022C5FFA82FC120A0CEB32
:101AC000010E7045EEDA082A09D8DFE802F00512A7
:101AD000181B1E2124270E00411A33F8110010BDD7
:101AE00004EB4C0334F81C10DAE7A0F5E35080B2A5
:101AF00010BD431A03F00103C01A80B210BD1038A4
:101B000080B210BD203880B210BD303880B210BD18
:101B10001A3880B210BD083080B210BD503880B283
:101B200010BD00BFA87C0108B47A0108704700BF4F
:101B3000704700BF704700BF70B5054682B00E46C3
:101B400002B141B3941B0F2C019411D8012C2868C9
:101B500008D1337803700023019C28686C6003551A
:101B600002B070BD64B900236C60035502B070BD53
:101B7000002201A9284614F079FB019B2860AB6084
:101B80002246314614F0F0FB019C286800236C606B
:101B9000035502B070BD014814F061FB647D01087B
:101BA000642810B525D0662802D1144801F08AF9BE
:101BB00014244FF4FA7004F0A7F89FED111A9FED6A
:101BC000110AF0EE410A104801F002FA0F4800F045
:101BD000CDFA4FF4FA7004F097F89FED091A0A480D
:101BE000F0EE410AB0EE410A01F0F2F9013CE0D119
:101BF00010BD074801F066F9DAE700BFA47D0108CF
:101C00000000000000007F439C0D0024C40C002451
:101C1000907D01082DE9F04FD0E90074584B0D4636
:101C2000E61B584983B0F61003FB06F68E4200F01F
:101C3000A380012E33468046A5EB070B38BF012356
:101C4000F61880F09780002E40F084804FF0180A3C
:101C5000B14609EB0B00D2E9001200F108030A4477
:101C600049F80B30FFF768FFBD4236D009F1080391
:101C700007F108003A460BE043F8081C9168196028
:101C80005168183218331830954243F81C1C13D091
:101C900043F8083C11688142EED1D0F800A0D0F89A
:101CA00004E0D0F808C0C168C3F800A0C3F804E09D
:101CB000C3F808C0D960E3E7A5F1180A324BAAEBD4
:101CC000070A4FEADA0A03FB0AFA2AF0604A0AF125
:101CD000020A0AEB4A0A09EBCA0AA5422CD00AF109
:101CE000080305F108002A460BE043F8081C916838
:101CF00019605168183218331830944243F81C1C8C
:101D00000DD0116843F8083C8142EED1016819609A
:101D10004168596081689960C168D960E9E7631BCF
:101D2000194A183BDB0802FB03F323F0604301333D
:101D300003EB43030AEBC30A2FB1D8F80810384667
:101D4000C91B14F076FAC8F80860C8E9009A03B015
:101D5000BDE8F08F8E4228BF0E4606EB4606F60021
:101D60003046019214F067FA019A8146064400F168
:101D7000180A6EE7054EF3E7054814F073FA00BF42
:101D8000ABAAAAAA55555505ABAAAA0AF8FFFF7F28
:101D9000B47D0108F0B5ADF51D7D002701460AA808
:101DA0000397CDE90177FFF7A1FD002840F0AE8051
:101DB000064656A90AA8FFF7EFFDB0B99DF86E31A7
:101DC0009BB19DF8603113F0120F3ED0DA0674D447
:101DD0009B07EED50DF5B7714F4801F073F856A982
:101DE0000AA8FFF7D9FD0028E8D00AA8FFF7BCFD34
:101DF000DDE90145AC4205D054F8180B01F062F85A
:101E0000A542F9D131464548012701F05BF8DDE9EB
:101E10000156B5420FD005F1080454F8080C84426D
:101E200004F1180403D0A968013114F002FA18353E
:101E3000AE42F2D1019E26B103993046891B14F0BF
:101E4000F8F938460DF51D7DF0BD16AD0DF5B771ED
:101E5000284614F031FC2B782E2B02D16B785F2BA7
:101E6000A7D0441B06AF0F2C049700943FD8012C39
:101E700029D12B788DF818303B460022059428494B
:101E800028461A5514F021FC00B30136DDE902039F
:101E9000984226D000F108030360DDE904120A44E9
:101EA000FFF74AFE029B183302930498B84280D091
:101EB0000699013114F0BDF97BE70DF5B7711948AA
:101EC00001F000F875E72CBB3B46D6E728461649DB
:101ED00014F0FBFB0028E8D00136DDE9020398424C
:101EE000D8D1014604AA01A8FFF794FEDDE700223D
:101EF000694604A814F0BAF9009B049006932246A0
:101F0000294614F031FA009C049BB6E7074800F01C
:101F1000D9FF7CE73846F2E71C7E0108E47D010822
:101F2000FC7D01080C7E0108047E0108D07D0108BB
:101F300030B5002185B03F48012500F0B7F90120F8
:101F400000F0CEFF3C4800F0BDFF0421394800F00E
:101F5000D5F8384800F0E8F80146384800F0B2FFFC
:101F6000344800F0E3F8FDEEC07A354817EE901AD9
:101F700000F0A8FF9FED331A3348F0EE410AB0EEAF
:101F8000410A01F025F82B4800F0F0F80322002365
:101F900001A92E488DF80C30CDE9012502F050FD45
:101FA00001A92A4802F04CFD002836D104462848F1
:101FB00000F088FF4FF4FA711E4800F09DF81D48AC
:101FC00000F0B6F82946234803F0C8FD2A46224906
:101FD0002248FFF75FFCD8B9214800F073FF214881
:101FE00000F01AFF2048214900F016FF1F48FFF7B4
:101FF000D1FEB0B11E4800F065FFB7EE000A1248EE
:1020000001F002F80B4800F0B1F8204605B030BDF1
:102010006920FFF7C5FD0124F7E76420FFF7C0FD45
:10202000F9E7144800F04EFFB7EE000A064800F04A
:10203000E9FFE7E7C40C0024347E0108447E010870
:10204000547E010800007F439C0D002444CB0024F3
:102050005C7E010844080024707E010848080024C2
:10206000747E0108847E0108907E0108B80C00246B
:10207000987E0108B47E010838B5174C002504F598
:10208000C070256065612562E56300F05FFF13495C
:1020900040F20F73124A2046C4F8381204F5147146
:1020A000A4F83C3240F20113C4F89051C4F84852ED
:1020B000C4F84C52C4E990130A4914F0B5F8084A20
:1020C00009490A4814F0B0F8054A09490948BDE829
:1020D000384014F0A9B800BFC40C00240080707F01
:1020E00000000024351B00082D1B000844CB0024F1
:1020F000311B0008A49F002400F06EB938B50446D7
:1021000000F072F9D4F8A850204600F08FF9284664
:1021100000F0DEFDD4F8AC50204600F087F92846E8
:10212000BDE8384000F0D4BD00F07AB900F058B9ED
:1021300070B586B0064607216D4603AC284604F00C
:10214000E1FC95E8070084E80700214606F1D80085
:1021500000F05EFF95E8070084E80700214606F5D9
:10216000967000F055FF06B070BD00BF10B5044674
:10217000D83000F063FF04F59670BDE8104000F021
:102180005DBF00BFF0B54FF481718FB000F1D8078B
:1021900001254FF4C0624FF4E063ADF8081000F57C
:1021A000967402993846ADF80C2008AEADF81030A0
:1021B0000095DDE9032300F0E3FE40F201134FF444
:1021C00080722046ADF814304FF480630599009575
:1021D0000BADADF81820ADF81C30DDE9062300F09A
:1021E000CFFE3046072104F08DFC96E8070085E815
:1021F00007002946384600F00BFF96E8070085E8FF
:1022000007002946204600F003FF384600F016FF7D
:1022100020460FB0BDE8F04000F010BF2DE9F041BE
:1022200040F2024304460222002504F1180704F19B
:10223000A8062DED028B8EB09FED1B8AADF80C30F9
:1022400005A8039900F0C6FF02220DF12600ADF8A3
:102250001020049900F0BEFF0423022205A938468D
:1022600000F0CCFF04F1680204F18803C4E92A23DA
:102270002946384656F8048B01F0CEF9014620462F
:10228000019100F0D3F80023F0EE480A019940468E
:102290001A4600F0EBFC25B10EB0BDEC028BBDE898
:1022A000F0810125E4E700BF6F12033B2DE9F04107
:1022B00004469AB00027019100F08CF8019920465D
:1022C00000F074F940F6061304F1B0069FED400AE1
:1022D000ADF8143004F1C0053046059900F0BCFE9D
:1022E0004FF4007328469FED3A0AADF8183004F514
:1022F000C878069900F0B0FE40F6033240F2016360
:102300009FED330AADF8082004F140000299ADF8C2
:102310000C70C4F8D0600FAEC4F8D45007ADADF85F
:102320001030DDE9032300F0FFFC2046FFF72AFF11
:102330002046FFF773FF284600F008FE01230DF149
:102340002C0E04F5C07C1593189347F612231697AC
:1023500019930223179395E80F008CE80F008EE87D
:102360000F0086E80F00BDF840301490ADF84E30F5
:10237000BDF84230D4E9625EADF84C30C4E9655E28
:10238000BEF1000F04D072463946284614F014F806
:1023900013A9404603F018FA04F5D27000F0EAFDE4
:1023A0003021204600F020F8D4F8A850204600F054
:1023B0003DF8284600F08CFCD4F8AC50204600F0E4
:1023C00035F828461AB0BDE8F04100F081BC00BFE6
:1023D00000000000704700BF084603F095BC00BF36
:1023E000143000F02DBC00BF38B500F114050446D0
:1023F0002DED028B284600F015FC284600F020FC4D
:102400002846B0EE408A00F009FCD0ED007AF8EEE4
:10241000677A88EE277ABDEC028B84ED0E7A38BDA0
:1024200008B5143000F0FAFB006808BD90ED0E0A04
:10243000704700BF10B540F203338EB000244FF652
:102440000B7240F20341ADF8083009A80123ADF842
:102450001020ADF824202246ADF80C10009402990B
:1024600007940C94CDE90544CDE90A4401F030F914
:1024700004A8012322460399009401F029F909A830
:1024800001F00CFA10B901200EB010BD04A801F043
:1024900005FAA0420CBF022020460EB010BD00BFBE
:1024A0002DE9F04103239AB0012700240646CDE927
:1024B00014373B4BCDE9104340F20453CDE91647A6
:1024C000ADF84830FFF7B6FFB842054625D00228E0
:1024D00045D040F60132334B0DF12C081894ADF87D
:1024E0002C200B981997CDF84A3000F0E3F810A98A
:1024F00006F13C0002F098F9302003224FF07E53A1
:1025000041460D930E93CDE90B02F26B06F11400D8
:1025100000F04CFB1AB0BDE8F0811023214A06A957
:1025200006908DF828300DF12C081F4BCDF84A206D
:1025300007930294CDE91804CDE9080402A801F03C
:102540001FFC0823029A03A94046ADF80C508DF8F1
:102550000E40049505930B9400F0ECF8C7E70020BB
:102560000121104B0DF12C083A460094CDF84A3069
:102570004FF60B730C94ADF82C302346CDE91801BF
:1025800040F601314046ADF818100699CDE90D44EA
:1025900001F09EF82146404601F08CF9A7E700BF04
:1025A00004020404040604030704010B2DE9F047A8
:1025B00004462DED028B82B000294DD0012140F25E
:1025C000011200230091ADF804208DF80630364A40
:1025D0000127364B04F10409354904F129086260EA
:1025E00040F20272A36040F60663E16004F1250A3E
:1025F000A4F82520A4F82930278284F8277084F8CD
:102600002B7003F01DFD054603F080FB694606466E
:1026100050BB4DB304F130008DF8067003F098FC08
:10262000072D3CD104F114052046FFF739FF284659
:1026300000F006FB2846B0EE408A00F0EFFAD0ED3D
:10264000007AF8EE677A88EE277A84ED0E7A02B087
:10265000BDEC028BBDE8F08740F2011300918DF8CC
:102660000610ADF80430B2E704F1300003F070FC5E
:10267000072D11D04946204601F0CAFD0EB9002DA4
:10268000D0D1504601F020F9404601F01DF904F187
:10269000120000F079F9C5E7002EF2D1C2E74946F1
:1026A000204601F0B5FDBDE705080509050705064B
:1026B000050A060610B584B003460124ADF80400EF
:1026C00003A8ADF80C30ADF80E4001F0FDF821463E
:1026D00003A801F0D5F9204603F016FB002103A85A
:1026E00001F0CEF9204603F00FFB214603A801F0CC
:1026F000C7F904B010BD00BF10B5C2F3002384B009
:102700000C46017C8DF80D2043EA4402FA24022392
:102710008DF80C2003AA009401F0C8FB18B1012425
:10272000204604B010BD04460A2003F0EDFA20460E
:1027300004B010BD034670B543F8042B044684B0C2
:1027400007C983E80700A37983B91A210B461E2223
:10275000FA2523742046ADF80C20022303AA009525
:1027600001F0A4FB28B1012004B070BD1B210B4671
:10277000EDE70A2003F0C8FA4FF4B852009502239F
:10278000ADF80C20204603AA217C01F08FFB002825
:10279000E9D10A2003F0B8FA41F20272009502234F
:1027A000ADF80C20204603AA217C01F07FFB002815
:1027B000D9D10A2003F0A8FA042200950223ADF82B
:1027C0000C20204603AA217C01F070FB0028CAD10E
:1027D0000A2003F099FA062200950223ADF80C2096
:1027E000204603AA217C01F061FB0028BBD10A200E
:1027F00003F08AFA41F2082200950223ADF80C207A
:10280000204603AA217C01F051FB0028ABD10A200D
:10281000064603F079FA0095022303AA217C20469C
:10282000ADF80C6001F042FB00289CD1304603F06B
:102830006BFA009522790C232046002A8DF80C3083
:1028400003AA4FF0020314BF622142218DF80D103C
:10285000217C01F02BFB002885D1304603F054FA8F
:102860002279D4E902310B43DBB20AB943F04003C9
:1028700062790AB143F020030E22FA258DF80D305B
:102880002046009502238DF80C2003AA217C01F03C
:102890000DFB00287FF467AF0A2003F035FA102201
:1028A00000950223ADF80C20204603AA217C01F0FC
:1028B000FDFA00287FF457AF0A2003F025FA122111
:1028C00000950223ADF80C1003AA217C204601F0EC
:1028D000EDFA00287FF447AF0A2003F015FA012231
:1028E00009212046FFF708FF003818BF01203BE709
:1028F000F0B5102387B0234C0122002501260027C4
:1029000002A920460195CDE902234FF48052CDE97A
:1029100004670BF051FD642004F0B0FC02A94FF4F1
:1029200080522046CDE9046702261027CDE90267D0
:102930000BF042FD0322102302A92046CDE9022319
:1029400000230422CDE904234FF480520BF034FD20
:1029500040F23223042202A9019310232046CDE93C
:102960000223019A012305924FF4805204930BF045
:1029700023FD40F6060120460BF03EFD284607B039
:10298000F0BD00BF50CB00241C4B00221C494FF06F
:10299000400C30B5054689B00220596007219A6085
:1029A0001A620124DA620A224FF4006EDC60069299
:1029B0002022CDE9000104200821CDE902010320F5
:1029C0001021CDE9040108206946C3E904024FF44F
:1029D000C072181DC3E906C24FF48052C3E909E270
:1029E0000BF0C0FC38B92846FFF782FF003818BF4B
:1029F000012009B030BD204609B030BD4CCB0024C9
:102A000040410052614A0021D0B513688EB00A914E
:102A1000002B40F0B9805E4B01214FF683700C24EF
:102A200011600221D3F8D4200026032742F48052FB
:102A3000C3F8D420D3F8D42002F480520092009A34
:102A4000D3F8E02042F01002C3F8E020D3F8E020F1
:102A500002F010020192019AD3F8E02042F0400205
:102A6000C3F8E020D3F8E02002F040020292029A7C
:102A7000D3F8E02042F00802C3F8E020D3F8E020C9
:102A800002F008020392039AD3F8E02042F4807225
:102A9000C3F8E020D3F8E02002F480720492049A94
:102AA000D3F8E02042F08002C3F8E020D3F8E02021
:102AB00002F080020592059AD3F8E02042F020024D
:102AC000C3F8E020D3F8E02002F020020692069A34
:102AD000D3F8E02042F00402C3F8E020D3F8E0305D
:102AE0000C9403F0040307930323079A0B93CDE997
:102AF000080108A9274806F095F848F23712022382
:102B000008A925480C94CDE90823CDE90A6706F009
:102B100089F84CF20372022308A920480C94CDE9ED
:102B20000823CDE90A6706F07DF840F2FF62022330
:102B300008A91B480C94CDE90823CDE90A6706F0E3
:102B400071F84FF60C72022308A916480C94CDE9CF
:102B50000823CDE90A6706F065F84FF63F02022325
:102B600008A911480C94CDE90823CDE90A6706F0BD
:102B700059F82022022308A90A480C94CDE90A67D3
:102B8000CDE9082306F04EF80EB0D0BD48CB0024A6
:102B9000004402580010025800180258000C025855
:102BA00000200258001C02580014025830B5184C7E
:102BB000154685B0046004F1080EEC460FC98EE896
:102BC0000F00D4ED047AF5EEC07A8CE80F00F1EE38
:102BD00010FA1ADDB7EE006A94ED057A27EE277A2F
:102BE000C6EE276A84ED0D7AC4ED0C6A6DB12046FD
:102BF00040F8185F01F010FF064903690020064AFB
:102C00002162A262E36005B030BD012005B030BD95
:102C100084CB002400200030000000300068083021
:102C2000704700BFB1F5807F03680A4628BF4FF4A4
:102C30008072B1F5807F9A6094BF002001207047B8
:102C40000068183001F0EABE10B4074B4FF07E5117
:102C500030240022032019619C60D8605DF8044B89
:102C60005961C3E90622704784CB0024F6EE007A4E
:102C70009FED166A20EE207A0160F7EE006A80ED83
:102C8000036A80ED020A27EE277AC6EE877AF4EE11
:102C9000E67AF1EE10FA11DDF0EE667A4FF07E5131
:102CA0004FF0000C02760022C0ED017AC0F814C08B
:102CB000016143768276C0ED070A7047F4EEC67A6A
:102CC000F1EE10FAEAD5F0EE467AE7E700000000F0
:102CD000837E80ED020AABB9D0ED077A27EE800A39
:102CE000F6EE007AB7EE007A20EE270AC7EE007AF9
:102CF000F4EEC77AF1EE10FA07DDF0EE477AC0ED98
:102D0000017A7047DFED067AE8E7F5EEC07AF1EE7A
:102D100010FAF4D5DFED037AC0ED017A704700BFF9
:102D20006F12033B0000000030B585B0044600255B
:102D3000ADF80C10ADF80820ADF8043002F0E2FF59
:102D4000BDF80C204FF48073206004F1180022833A
:102D5000BDF808206383E383A283257100F0B4FDEE
:102D600004F11C0000F0B0FD9FED060A019904F18A
:102D7000080000F071F94FF6FF736562238405B017
:102D800030BD00BF00000000704700BFF8B5134F12
:102D90003C687F2C07D98023114A42F224411C460B
:102DA0003B60A2F87E100F4D2B68012B0AD90C4E08
:102DB0000D4D22463146284600F0F0F90028F8D1A2
:102DC0003860F8BD22460649074800F0E7F90028B8
:102DD000F7D12B68386001332B60F8BDC0CB0024DD
:102DE000C4CB0024BCCB002444CC002410B5084C38
:102DF00002460B46074821680844C1F1800113F0E0
:102E0000A5FC236818442060FFF7C0FF10BD00BF79
:102E1000C0CB0024C4CB00240FB400B583B004A9F8
:102E200051F8040B0191FFF7E1FF03B05DF804EBEB
:102E300004B0704730B4154C2168F1B14B1E144DED
:102E4000E81810F801298C4619460A2A01D00D2AE3
:102E500002D14BB1013BF4E70CF102037F2B10D9F7
:102E60008023236030BC70470122022323600D20A1
:102E70000A236854AB5430BC704701220223044D2E
:102E8000F4E70CF101026146F0E700BFC0CB00247B
:102E9000C4CB002410B5094C02460B4608482168F3
:102EA0000844C1F1800113F051FC236818442060EC
:102EB000FFF7C0FFFFF76AFF10BD00BFC0CB0024C3
:102EC000C4CB00240FB400B583B004A951F8040B9F
:102ED0000191FFF7DFFF03B05DF804EB04B070472A
:102EE00010B5044600210A4800F0D2F8002C094B26
:102EF00014BF0222002208481A60FFF7E3FF0748C8
:102F0000FFF7E0FF0A20BDE8104002F0FDBE00BF61
:102F100044CC0024BCCB0024D07E0108E07E010814
:102F2000064A0749074808B513F07EF9034A0449E1
:102F30000548BDE8084013F077B900BF0000002441
:102F4000892D000844CC002448CC0024074A11886D
:102F500030B481800024064D91884FF480728560E2
:102F60000460C180C26030BC704700BFCC780108EB
:102F70000040003000220A2302700371704700BF36
:102F800030B585B004469FED110A9DF82050ADF88C
:102F90000C100399ADF808202A46ADF804308DEDE9
:102FA000000A10F0BDFF9DED000A2A46029904F1C7
:102FB0001C0010F0B5FF9DED000A2A46019904F1AE
:102FC000380005B0BDE8304010F0AABF00007A44D8
:102FD00010B52DED028BF0EE608A0446B0EE418A0A
:102FE00010F0C2FF04F11C00B0EE680A10F0BCFF44
:102FF000B0EE480A04F13800BDEC028BBDE8104089
:1030000010F0B2BF10F0B0BF1C3010F0ADBF00BF69
:1030100038B50C46054691ED000A10F0A5FF94ED79
:10302000010A05F11C0010F09FFF94ED020A05F162
:103030003800BDE8384010F097BF00BF10B5044617
:1030400010F0A4FF04F11C0010F0A0FF04F1380000
:10305000BDE8104010F09ABF70B5044682B0C1F3CD
:103060000726CDB2ADF8041002F04CFE4FF480728A
:103070004FF001232060A01DA571A280E671A3601E
:1030800002B0BDE8704000F01FBC00BF704700BF39
:10309000012910B506D0022915D051B1BDE8104064
:1030A00007F018BD0A46344834490FF055FDE8B121
:1030B000FEE7334B0A46334C334934481C600FF06B
:1030C0004BFD68B1FEE701222C492B480FF044FD6F
:1030D00000B1FEE72E4928480FF060FDC0B1FEE7C1
:1030E0002B492A480FF05AFD60B1FEE728492248D3
:1030F0000FF054FD00B1FEE726491F480FF0DCFC3D
:1031000008B3FEE7244921480FF0D6FCA8B1FEE73A
:10311000204919480FF0D0FC00B1FEE716480FF027
:1031200053FD024640B9164B164C174917481C6010
:103130000FF012FD68B1FEE7FEE714480FF044FD02
:103140000028ABD0FEE70C480FF03EFD0028A5D0CC
:10315000FEE70F490D480FF021FD00B1FEE70E49D3
:103160000A480FF0A9FC00B1FEE708480FF02CFD5B
:10317000002893D0FEE700BFE8CE00249002002490
:1031800084D100248D300008740200244CCC00242B
:10319000F80200245402002444020024084691B29C
:1031A00008B503F087F8003818BF012008BD00BF3C
:1031B000014806F06DBF00BF680C0124014806F00D
:1031C00067BF00BF680C0124014806F061BF00BF63
:1031D000680C012400B583B04FF0000E4FF0030CD3
:1031E0004274ADF80410BDF8043080F810E0A0F887
:1031F00002C0038003B05DF804FB00BF2DE9F04F6F
:10320000DFF81C8300258DB0C04C037008F140032B
:103210004260074601920E46202229464046C4F8E5
:103220006831C4F86481CDE90255CDE90455CDE992
:103230000655CDE90855CDE90A5513F0BDF8202211
:10324000294604F5A170C4F83151C4F83551C4F8C9
:103250003951C4F83D5113F0AFF8019B84F848523E
:1032600084F830317A68002A6AD02B4604F59871C8
:10327000454606F1100A9E46F01856F803B0E218CB
:103280000EF1010ED0F80CC0D0F80490D0F80880F0
:1032900044F803B0C2F80CC04FF0000CC2F8049020
:1032A000C2F80880008A25F802CB10821AF80320A1
:1032B00001F8012F002A70D07A684FF00100123314
:1032C000724584F84802D7D84FF4802290489DF880
:1032D000043008214FF000084FF00009C4F8843191
:1032E0000023C4E95B020122C4F8743184F8803100
:1032F000C4E95E2194F84812C4E96489A9B3C4F80A
:103300009821002284F8813184F888313B78C4E91F
:103310006722002B38D0012200200121013B84F8D4
:10332000A421C4E96C01082B30D8DFE813F0BD00FC
:10333000C200C700CC00D100D600DB00E100E800ED
:103340009DF804300121C4F87421C4F884314FF48D
:10335000802384F880216E4AC4E95B23082300227D
:10336000C4E95E130023C4E964230123002284F826
:103370008131002384F888310323C4F898313B78E5
:10338000C4E96722002BC6D184F8A431614804F057
:103390004DFA034638B1FFBEFEE77A681233724534
:1033A0003FF66AAF90E702A95A48029304F04AFB3D
:1033B0008246002876D1042240F2FF710A90CDE9BE
:1033C000081294F83021002A00F0F3804FF006082C
:1033D0000AEBCA034FEACA0904EB43035B7C072BE1
:1033E00007D8DFE803F0595C5653504D4A040723D1
:1033F00007930FFA8AF6D14406EBC60604EB490997
:1034000004EB46077500384600F05EFA99F8103074
:10341000042B00F3AA80022B00F3BD8000F0B980DA
:1034200004EB0A03002283F8202114F81630002B45
:1034300078D0022B00F08A80012B40F0B2807B789C
:10344000012B00F0B080002B334B18BF002305A9DF
:103450003048CDE9053803F029FF002840F0AC8062
:103460000AF1010A94F830315FFA8AFA534540F2C2
:10347000A0802A4B53F82A80AAE706230793B8E7CF
:1034800005230793B5E704230793B2E703230793C4
:10349000AFE702230793ACE700230793A9E70123D3
:1034A0000793A6E7FFBEFEE703224023C4E96A2391
:1034B0006CE707226023C4E96A2367E70F228023B1
:1034C000C4E96A2362E71F22A023C4E96A235DE7F7
:1034D0003F22C023C4E96A2358E77F22E023C4E9DE
:1034E0006A2353E7FF224FF48073C4E96A234DE750
:1034F00040F2FF124FF49073C4E96A2346E740F2AA
:10350000FF324FF4A073C4E96A233FE790D100244F
:1035100000200240FCD200240002B025F07E010809
:10352000004100307B78062B37D0072B3DD0022B93
:103530004AD0032B4AD0002B4CD0012B48D0042B6F
:103540004AD0052B254B18BF002380E77B78042B3E
:1035500025D0052B2BD08BB3012B31D0022B31D0B2
:10356000032B1F4B18BF002371E70323043504EB23
:103570000A0B4FF0000925448BF82031284609F149
:10358000010900F0A1F99BF8203104354B45F5DC29
:103590004BE70123EAE70223E8E7124B57E7124B18
:1035A00055E7002353E7114B51E7114B4FE7114B00
:1035B0004DE70DB0BDE8F08FFFBEFEE70E4B46E7CE
:1035C0000E4B44E70E4B42E70E4B40E70E4B3EE7F7
:1035D0000E4B3CE70E4B3AE70E4B38E70000B84F76
:1035E000002090360800900C1000C0102000F0144D
:1035F0008000501D000180210004002A0008302EA8
:10360000001060320040C03A0080F03E0000524797
:10361000000021430000844B034B0F29D3F86401C1
:1036200098BF00EB4100704790D10024214B026805
:103630009A4200D07047204A00232048D2F8D81080
:1036400030B51F4C41F0200183B0C4F8D0010920EF
:1036500004F5E875C4E975034FF48060C2F8D8102A
:10366000D2F8D8204FF40061C4E9773094F84802CA
:1036700002F02002C4F8E4114FF400519842019284
:103680002846C4F8E811C4E97C33019B14BF002329
:103690004FF48073C4F8EC3104F0FAFB08B1FFBEBC
:1036A000FEE704F5B673C4F8B851C4F8083203B0A5
:1036B00030BD00BF002002400044025840000240DC
:1036C00090D10024014804F05BBF00BF60D3002408
:1036D00010B592B0ADF804100180C9B2149C0B294A
:1036E000C460C0E901233FD090F801C0BCF10F0FC6
:1036F0003AD8022A3FD0032A02D0012A00D0002261
:103700000E92012B02D0022B18BF0023022C0F9324
:103710002CD0032C2AD0012C28D000230A29109366
:1037200027D85C4A02EB812202610A2914D8DFE81B
:1037300001F0A39587796B5D4F4133250600564B09
:10374000D3F8E01041F48061C3F8E010D3F8E03022
:1037500003F480630C930C9B01230DA9104603FA1C
:103760000CF30D9305F05EFA12B010BD0A29109407
:10377000D7D90022D8E711220E92C2E7464BD3F8E0
:10378000E01041F40071C3F8E010D3F8E03003F426
:1037900000730B930B9BDFE73F4BD3F8E01041F432
:1037A0008071C3F8E010D3F8E03003F480730A931B
:1037B0000A9BD1E7384BD3F8E01041F08001C3F801
:1037C000E010D3F8E03003F080030993099BC3E7CE
:1037D000314BD3F8E01041F04001C3F8E010D3F8CA
:1037E000E03003F040030893089BB5E72A4BD3F879
:1037F000E01041F02001C3F8E010D3F8E03003F00E
:1038000020030793079BA7E7234BD3F8E01041F071
:103810001001C3F8E010D3F8E03003F01003069372
:10382000069B99E71C4BD3F8E01041F00801C3F860
:10383000E010D3F8E03003F008030593059B8BE715
:10384000154BD3F8E01041F00401C3F8E010D3F8B1
:10385000E03003F004030493049B7DE70E4BD3F8A0
:10386000E01041F00201C3F8E010D3F8E03003F0BB
:1038700002030393039B6FE7074BD3F8E01041F07B
:103880000101C3F8E010D3F8E03003F00103029324
:10389000029B61E7000002580044025808B501216C
:1038A00043780069994089B205F0C4FB003818BF1D
:1038B000012008BD01230A464178006903FA01F19D
:1038C00089B205F0BDBB00BF8378022B30B504463A
:1038D0008FB037D0032B33D0012B31D000230A9384
:1038E000E378012B2AD0022B28D000230B9300234E
:1038F00020460C9303F016F90546204603F01AF90A
:1039000023780990082B13D8DFE803F01F324558BD
:103910006B7E91A40500594BD3F8E02042F48072ED
:10392000C3F8E020D3F8E03003F480730893089BD9
:1039300009A9284605F076F90FB030BD0B93D6E7FC
:103940000A93CDE711230A93CAE74C4B09A92846ED
:10395000D3F8E02042F00102C3F8E020D3F8E030D1
:1039600003F001030093009B05F05CF90FB030BD3C
:10397000424B09A92846D3F8E02042F00202C3F8DE
:10398000E020D3F8E03003F002030193019B05F03F
:1039900049F90FB030BD394B09A92846D3F8E020CA
:1039A00042F00402C3F8E020D3F8E03003F004034F
:1039B0000293029B05F036F90FB030BD2F4B09A9D9
:1039C0002846D3F8E02042F00802C3F8E020D3F8FC
:1039D000E03003F008030393039B05F023F90FB0D5
:1039E00030BD264B09A92846D3F8E02042F010024A
:1039F000C3F8E020D3F8E03003F010030493049BF5
:103A000005F010F90FB030BD1C4B09A92846D3F8BA
:103A1000E02042F02002C3F8E020D3F8E03003F0C9
:103A200020030593059B05F0FDF80FB030BD134B47
:103A300009A92846D3F8E02042F04002C3F8E0206C
:103A4000D3F8E03003F040030693069B05F0EAF854
:103A50000FB030BD094B09A92846D3F8E02042F049
:103A60008002C3F8E020D3F8E03003F0800307932E
:103A7000079B05F0D7F80FB030BD00BF00440258D7
:103A800070B506460D4603F04DF80446304603F087
:103A900051F82A1E0146204618BF0122BDE8704099
:103AA00005F0CEBA0023122270B586B0CDE902230C
:103AB00004930368032B01D804230593061D841D7A
:103AC000304603F02FF80546304603F033F803463E
:103AD00001A92846019305F0A5F8204603F022F835
:103AE000034620461C4603F025F801A9034620465C
:103AF000019305F097F806B070BD00BF634A0368F4
:103B0000934210B58CB028D0614A934258D0614A94
:103B1000934200F09480604A934201D00CB010BDF3
:103B20005E4C5F48D4F8E03043F00203C4F8E03064
:103B3000D4F8E03003F002030A930A9BFFF7B2FFC8
:103B4000D4F8F43043F08003C4F8F430D4F8F430FF
:103B500003F080030B930B9BE0E7504C5148D4F8E3
:103B6000E03043F00203C4F8E030D4F8E03003F072
:103B700002030193019BFFF795FFD4F8E830002280
:103B80001F2043F400131146C4F8E830D4F8E8309D
:103B900003F400130293029BD4F8D83043F00103DE
:103BA000C4F8D830D4F8D83003F001030393039B52
:103BB00003F0BCFF1F200CB0BDE8104003F0F4BFC1
:103BC000364C3948D4F8E03043F08003C4F8E03094
:103BD000D4F8E03003F080030493049BD4F8E03081
:103BE00043F00203C4F8E030D4F8E03003F00203FD
:103BF0000593059BFFF756FFD4F8E83000222120FB
:103C000043F480031146C4F8E830D4F8E83003F4F4
:103C100080030693069BD4F8D83043F00103C4F820
:103C2000D830D4F8D83003F001030793079B03F092
:103C30007DFF21200CB0BDE8104003F0B5BF1B484C
:103C4000FFF730FF154B00224820D3F8E84011461B
:103C500044F40004C3F8E840D3F8E84004F4000456
:103C60000894089CD3F8D84044F00104C3F8D84025
:103C7000D3F8D83003F001030993099B03F056FFF2
:103C800048200CB0BDE8104003F08EBF0054004047
:103C900000580040005C0040001C005800440258DE
:103CA00068D60024E0D30024B8D4002490D50024A2
:103CB0002DE9F0431A4B87B000254FF010099E46BE
:103CC000EC46184BFF22E04667461A700EF11806C4
:103CD0000EF13004CDE90055CDE90255ADF8009064
:103CE000BCE80F00CDE90455AEE80F009CE80300E6
:103CF0000095ADF800908EE80300B8E80F000FC6FD
:103D00009CE803000095ADF8009086E803000FCF13
:103D10000FC49CE8030084E8030007B0BDE8F0830B
:103D200004000024DCD3002410B5EFF3108472B635
:103D3000084B1A78120602D504B962B610BD1B787A
:103D4000D82205485BB202FB0300143004F018FCD3
:103D5000F2E700BFDCD30024E0D30024014806F0E2
:103D60007DB800BF6CD40024014806F077B800BFCE
:103D700044D50024014806F071B800BF1CD60024C9
:103D80002DE9F0430F68D8243F4D85B007FB04F4BC
:103D9000032F05EB0403036040DCCB680E46012BC8
:103DA0003CD84DD04FF0D808B646DFF8FC9008FB61
:103DB0000758BEE80F00C446ACE80F00DEF800303C
:103DC0000DF1100ECCF80030D8F808C099E80F00BB
:103DD0000EE90F000EEB8703BCF1010F53F8103C06
:103DE000C8F88C3031D0BCF1020F42D0BCF1000FCA
:103DF00035D0317C8C34D823002201202C4403FBA5
:103E000007534900C3E92602C3F894102046C3E9CA
:103E10002822C3E92A2205F013FE18B1012005B0BB
:103E2000BDE8F0830146204606F024F80028F5D1CD
:103E30000146204606F048F8003818BF0120EEE79A
:103E40000B7C103B672BADD9E8E702F0F7F80F4B7E
:103E500098420CBF0E4B0F4BC8F89030C9E702F0E8
:103E6000EDF80A4B98420CBF0B4B0C4BC8F8903046
:103E7000BFE702F0E3F8054B98420CBF084B094B33
:103E8000C8F89030B5E700BFE0D30024000E270744
:103E90002D0FB0303211D0205F4390608A62E03045
:103EA000200BA0101A098010D47801082DE9F041E8
:103EB000D0F8008082B00D4617461E4608F18C04EB
:103EC000204605F0D3FF2028FAD1D8F80C3073B97A
:103ED0006D002046089C33463A46A9B2009405F08E
:103EE00005FE003818BF012002B0BDE8F081089B34
:103EF00032463946204605F0CDFEF2E7044B10224B
:103F00001A7483F8E82083F8C02183F89822704758
:103F1000E0D3002430B5002395B04FF48071062221
:103F200004460B9306921393CDE90C13CDE90E339F
:103F3000CDE9113302F084F807282BD004F11005E5
:103F400041F2883206A9284606F010FF28B1012365
:103F5000184684F85C3015B030BD0222022306A951
:103F60002846CDE9002310220123CDE902230022B7
:103F70004FF48003CDE9042305224FF080730692AD
:103F80006A460F9341F2883307F05CF80028DED1CF
:103F900015B030BD0323012084F85C3015B030BD6E
:103FA00070B50023A4B04FF080724FF480750446C2
:103FB000ADF806300D93CDE910320122CDE90E5354
:103FC000CDE91223CDE91433002943D0F02300F1C9
:103FD000100508AEADF80630C02341F288323146F4
:103FE0002846089306F0C2FE28B10123184684F83B
:103FF0005C3024B070BD41F288320DF106012846D4
:1040000006F01EFF03460028EFD105224FF4807111
:104010001E93284616924FF080721B9321931F9295
:1040200002AA9FED1F7BCDE91C13CDE922338DED54
:10403000027B9FED1D7B41F2883316A98DED047B39
:104040009FED1B7B8DED067B06F0FCFF0028CCD19D
:1040500024B070BD00F1100508AE612341F2883232
:1040600031462846089306F081FE0028BDD141F272
:1040700088320DF10601284606F060FF0028B4D111
:10408000BDF80630204623F0780343F04003ADF836
:104090000630FFF73FFF00289ED0A6E7AFF3008071
:1040A00000000000010000001000000001000000FE
:1040B00000000000000040002DE9F04F00234FF405
:1040C000807501264FF0807804462DED028BABB051
:1040D0008DF8073013932193299314950E96CDF8FC
:1040E0005C80CDE91533CDE91863CDE91A33CDE90C
:1040F0002253CDE92433CDE9273306231C9301F065
:104100009FFF072808D004F1100741F288321CA94C
:10411000384606F02BFE40B10123184684F85C3087
:104120002BB0BDEC028BBDE8F08F4FF0020A4FF0D0
:10413000020B4FF0050941F2883308AA1CA9384642
:10414000CDF89480CDF870909FED2D8BCDE908AB24
:104150004FF0000A4FF4800B8DED0A8BCDE90CABCC
:1041600006F070FF0028D7D141F2883238460EA9F8
:1041700006F0FCFD0028CFD1402341F288320DF13A
:10418000070138468DF8073006F05AFE0028C3D1E3
:1041900041F288330EA902AA3846CDF83890CDF8FE
:1041A0005C809FED197B8DED048BCDE906AB8DED29
:1041B000027B06F047FF03460028ADD1CDF8709092
:1041C0004FF00109CDF894804FF00008219308AA20
:1041D00029931CA938462295CDE92333CDE927330D
:1041E00041F288338DED0A8BCDE90CABCDE908891E
:1041F00006F028FF002893D0304684F85C608FE7F3
:10420000100000000100000040000000400000001D
:104210002DE9F043624CA3B00D46046001F010FF9D
:10422000072800F0A980286823466968AA6807C3A0
:104230001E46AB8926F8043B3046257B677B06F09B
:1042400077FDE0B9574B012D4FF00108E061236184
:1042500014BF4FF480134FF40003C4E9058893FAA8
:10426000A3F3B3FA83F34FF48079013BC4F82490AD
:10427000C4E90B003046236206F0EEFC38B101229F
:10428000134684F85C20184623B0BDE8F08366230B
:104290000B90139041F2883206A90693CDE90C9059
:1042A000CDE90E00CDE91100304606F05FFD002893
:1042B000E5D1992341F2883206A93046069306F0EB
:1042C00055FD0028DBD105231C9019906A461493F4
:1042D0004FF08073219014A91D9341F288339FED14
:1042E0002A7BCDE91A90CDE91F008DED007B9FED73
:1042F000287B30468DED027B9FED277B8DED047B87
:1043000006F0A0FE0028BAD129462046FFF748FE55
:104310000028B4D12046FFF7CFFE03460028AED1D7
:10432000002FB0D1189330460027002606AA14A902
:10433000CDF86890CDE91F33EB2314934FF440631D
:104340001B934FF4005317934FF440431C93A02347
:104350001693062319934FF0805321934FF0407327
:10436000CDE906671D9306F0E5FE034600288AD0D6
:10437000434684F85C8086E701230322184684F8CC
:104380005C2023B0BDE8F0830000000001000000C5
:1043900010000000010000000000000000004000CC
:1043A00040D70024005000522DE9F04F8FB0414B10
:1043B0000024026800AF9A427C63C7E90944C7E958
:1043C0000B4403D03C37BD46BDE8F08F3A4B40F676
:1043D00009213A48EB46D3F8D42007F11C0607F12F
:1043E000220A4FF0020942F480424FF00308C3F85A
:1043F000D420D3F8D42002F48042BA60BA68D3F84B
:10440000E02042F04002C3F8E020D3F8E02002F0C0
:104410004002FA60FA68D3F8E02042F02002C3F8C4
:10442000E020D3F8E02002F020023A613A69D3F8A4
:10443000E02042F01002C3F8E020D3F8E02002F0C0
:1044400010027A617A69D3F8E02042F00202C3F8E0
:10445000E020D3F8E030F86103F002033984BB6157
:10446000174B7B60BB697B6853F8040F7B6002F0DD
:1044700059FB7B680546186802F05CFB16F8013BA7
:10448000786207F124012846C7F830807B63C7E9CA
:104490000A9404F0C7FB5645E5D100225C20114682
:1044A00003F044FB5C2003F07FFB3C37DD46BD4658
:1044B000BDE8F08F00500052004402580A0A090972
:1044C0009CD70024114B02689A4200D07047104AD2
:1044D00070B5D2F8D4300F4C23F4804304F11806A1
:1044E000C2F8D43054F8040F02F01CFB05462068D3
:1044F00002F020FB0146284604F0D4FCB442F1D17E
:104500005C20BDE8704003F05DBB00BF005000526E
:10451000004402589CD70024014806F097BE00BF13
:1045200050D70024084B1A1D981D03F1080110B440
:104530009C1C9A6603F10A02C3E91834C3E91B0103
:104540005DF8044B5A67704740D7002438B50368BC
:1045500071B9026A00F1280500F5AC74012A0CBF9C
:10456000002140218BBB1D4B5722C0F858310DE074
:10457000426A00F1C00500F5E874012A0CBF002171
:104580004021EBB1164B5A22C0F8D031002320460F
:10459000C4E901214FF480524FF48061636262618B
:1045A0004FF48042C4E903314FF48073C4E9062319
:1045B0004FF40033236203F06BFC58B1FFBEFEE7FB
:1045C000084B5822C0F8D031E0E7074B5922C0F819
:1045D0005831DBE7C5E92044A56338BD100002402F
:1045E0007000024028000240580002402DE9F043CC
:1045F000821D05468BB0031D05F10A010830CDE987
:10460000052305F10C02AB69CDE907010992002BE6
:104610003DD0EB69B3FA83F84FEA58180123022220
:1046200005AE0AAF4FF006090393CDE9012356F812
:10463000044B2B792278934216D02B68F3B1012BCF
:1046400002D1F2B10A230493204602F073FA034622
:104650002046009302F066FA694604F0E3FABE428F
:10466000E5D10BB0BDE8F083697963789942E4D174
:10467000B8F1000FF3D02B68002BE0D1CDF81090EB
:10468000E2E76378022B14BF0A230823DBE74FF02D
:104690000108C3E7534A0368934230B505468BB01F
:1046A00055D02032934252D04F4A934204D0203208
:1046B000934201D00BB030BD4C4C4D48D4F8E030A3
:1046C00043F00103C4F8E030D4F8E03003F0010314
:1046D0000593059BD4F8E03043F00803C4F8E030BC
:1046E000D4F8E03003F008030693069BD4F8E030DA
:1046F00043F04003C4F8E030D4F8E03003F0400366
:104700000793079BD4F8F03043F40003C4F8F0306B
:10471000D4F8F03003F400030893089BFFF766FF1A
:10472000D4F8D830296843F001032F4A3048C4F840
:10473000D830891AD4F8D83018BF012103F001030A
:104740000993099B0BB0BDE83040FFF7FFBE274C33
:104750002848D4F8E03043F00103C4F8E030D4F83E
:10476000E03003F001030093009BD4F8E03043F005
:104770001003C4F8E030D4F8E03003F010030193E4
:10478000019BD4F8E03043F04003C4F8E030D4F8A3
:10479000E03003F040030293029BD4F8F03043F47E
:1047A0008003C4F8F030D4F8F03003F480030393AE
:1047B000039BFFF71BFFD4F8D830296843F00103AF
:1047C000084A0C48C4F8D830891AD4F8D83018BF31
:1047D000012103F001030493049B0BB0BDE83040BA
:1047E000FFF7B4BE04580140045C01400044025885
:1047F00014DA0024B8D70024014803F0C1BE00BF7A
:1048000010D90024014803F0BBBE00BF88D90024A2
:10481000014803F0B5BE00BF6CDB0024014803F083
:10482000AFBE00BFE4DB00242DE9F04F0C684FF46D
:104830001776754F87B004FB06F6012C07EB060AC6
:10484000C0F800A000F3A0800D468E464FF000088F
:10485000D44669A3D3E9002369A1D1E90001CDE9D8
:10486000022306ABCAF8508203EB8403CDE90401AE
:1048700053F810BC53F8083CCAE992880193BEE88B
:104880000F00ACE80F00BEE80F00ACE80F00019B82
:104890009EE80300CAF828B0CAF8C0308CE80300CC
:1048A0002B69042B0CD8DFE803F0737D879103009C
:1048B0004FF41773554A03FB04739A64C3F8E0205E
:1048C000AA692B6A002A43D0002B4FF4177308BF44
:1048D000022203FB047318BF0322DA6201221A6367
:1048E000EA696B6A002A40D1191E4FF4177318BF8A
:1048F000012103FB0473C3E931126B69022B05D854
:10490000434A12F80380434A52F823904FF4177336
:1049100006F128004246494603FB0474002338444C
:1049200063646363E365C4F8DC30C4F8CC30C4F876
:10493000F430C4E90F33C4E91533C4E93533C4E9AD
:104940003B33022308F024FD002849D0FFBEFEE7D8
:10495000191E4FF4177318BF012103FB0473C3E939
:104960000B12EA696B6A002ABED0002B4FF4177352
:1049700008BF022203FB047318BF0322C3F8C4203C
:104980000122C3F8C820B8E7012007B0BDE8F08FC6
:104990004FF417734FF4FA5203FB04739A64C3F88D
:1049A000E0208DE74FF417734FF47A5203FB047342
:1049B0009A64C3F8E02083E74FF417734FF4FA4288
:1049C00003FB04739A64C3F8E02079E74FF417738C
:1049D0004BF6803203FB04739A64C3F8E0206FE760
:1049E00006F1C000022342464946384408F0D0FC94
:1049F0000028CAD0FFBEFEE704580140045C014015
:104A000024580140245C0140B8D7002400770100FD
:104A1000307F0108347F01080068704703681B6914
:104A2000042B05D8044A02EB830393ED000A704778
:104A30009FED020A704700BF407F010800803B479E
:104A4000002091F808C01C4B1C4A844510B4C3E9EF
:104A50000020D1E90024186118BF4FF48050002CC9
:104A60000CBF00214FF48041C3E90201042A06D89B
:104A7000DFE802F0090F151B030001225A61002034
:104A80005DF8044B7047FA2200205DF8044B5A6130
:104A90007047082200205DF8044B5A6170470422D9
:104AA00000205DF8044B5A617047022200205DF837
:104AB000044B5A61704700BF70DC00240070005244
:104AC000344A016870B5914288B04FF00004CDE9D6
:104AD00003440594CDE9064401D008B070BD2E4AC8
:104AE000D2F8D41041F48031C2F8D410D2F8D410E6
:104AF00001F4803100910099D2F8E01041F00401F6
:104B0000C2F8E010D2F8E01001F00401019101991F
:104B1000D2F8E01041F00801C2F8E010D2F8E0202D
:104B200002F00802029242690299082A30D0FA2A59
:104B300003D0042A14BF03240224C3684FF488520C
:104B4000B3F5804F03921FD00C26022513480DEBBE
:104B5000060104950694079604F064F8042304956E
:104B600000250DEB06010E48039306940595079664
:104B700004F058F82A462946312002F0D7FF3120A8
:104B800003F012F808B070BD4FF4F8530393DBE75D
:104B90000124D2E700700052004402580008025875
:104BA000000C0258014809F0B9BA00BF70DC0024BB
:104BB0001F4BC1680268F0B5D3F88C5083B003690D
:104BC000ADB24D1BA2B1AB4212D00446866811D2E1
:104BD000F018E91ACDE9001000F0AAFF0023DDE982
:104BE0000010D4E90062B047E3682561AB421BD0F6
:104BF00003B0F0BDF018C91ACDE9000100F098FF2C
:104C00000023DDE90001D4E90072B84730462946A7
:104C100000F08EFF00233046626829462668B047C0
:104C2000E3682561AB42E3D10023236103B0F0BD0B
:104C3000000002402DE9F84F04460F4690461E46FC
:104C400000F13405284609F005FE2028FAD14FF47A
:104C500080630020C4F8D030C4F848314FF44033AA
:104C6000C4F8CC00C4F8E030C4F858314E4BC4F856
:104C7000DC00C4F8C03003F57A73C4F8E400C4F86B
:104C800038314023C4F8C800C4F84031E369C4F89F
:104C90004401C4F85401C4F85C01C4E93500C4E916
:104CA0005300072B0BD8DFE803F061535A373E451A
:104CB0004C045123C4F8C4305223C4F83C3104F5E9
:104CC0009C79484603F0E4F808B1FFBEFEE7C4F85B
:104CD000A890C4F87051EFF3108972B6DFF8D0B025
:104CE00094F91C30DFF8CCA08BF800300A9B2F4CD5
:104CF000CAF800300B9B23600EB11846B0471FFA6C
:104D000088F23946284609F08FFBB0BBB9F1000F95
:104D100000D162B6BDE8F88F3F23C4F8C430402309
:104D2000C4F83C31CBE74123C4F8C4304223C4F873
:104D30003C31C4E74723C4F8C4304823C4F83C31AD
:104D4000BDE74F23C4F8C4305023C4F83C31B6E764
:104D50002B23C4F8C4302C23C4F83C31AFE72D23F7
:104D6000C4F8C4302E23C4F83C31A8E72923C4F882
:104D7000C4302A23C4F83C31A1E7FF238BF800306C
:104D80000023CAF8003023600A9B3BB10B98012135
:104D900098470120B9F1000FBCD1BAE70120B9F161
:104DA000000FB7D1B5E700BF8800024024EC002413
:104DB00020EC00241CEC00242DE9F84F04460F469B
:104DC00090461E4600F13405284609F043FD202890
:104DD000FAD14FF480630020C4F8D030C4F84831D1
:104DE0004FF44033C4F8CC00C4F8E030C4F8583174
:104DF0004E4BC4F8DC00C4F8C03003F57A73C4F835
:104E0000E400C4F838314023C4F8C800C4F8403185
:104E1000E369C4F84401C4F85401C4F85C01C4E96E
:104E20003500C4E95300072B0BD8DFE803F06153CA
:104E30005A373E454C045123C4F8C4305223C4F8B9
:104E40003C3104F1C009484603F022F808B1FFBE26
:104E5000FEE7C4F8AC90C4F8F850EFF3108972B6CE
:104E6000DFF8D0B094F91C30DFF8CCA08BF800301C
:104E70000A9B2F4CCAF800300B9B23600EB11846DA
:104E8000B0471FFA88F23946284609F01FFBB0BB2D
:104E9000B9F1000F00D162B6BDE8F88F3F23C4F826
:104EA000C4304023C4F83C31CBE74123C4F8C430BC
:104EB0004223C4F83C31C4E74723C4F8C430482334
:104EC000C4F83C31BDE74F23C4F8C4305023C4F8C4
:104ED0003C31B6E72B23C4F8C4302C23C4F83C3152
:104EE000AFE72D23C4F8C4302E23C4F83C31A8E723
:104EF0002923C4F8C4302A23C4F83C31A1E7FF2396
:104F00008BF800300023CAF8003023600A9B3BB1C5
:104F10000B98012198470120B9F1000FBCD1BAE7E5
:104F20000120B9F1000FB7D1B5E700BF88000240FA
:104F300024EC002420EC00241CEC00242DE9F0419A
:104F40000D4682B0EFF3108772B6002948D1FF23D7
:104F5000254A264C237013682BB100202946106087
:104F6000234A1068984723781B0625D5DFF88880E8
:104F70000025204E444605E001351C3406F5D87660
:104F8000092D19D0A369012B1BD0002BF4D1216866
:104F900030460029F0D06369019323690093E368E8
:104FA0002289FFF709FF0028E6D1C5EBC50508EB0C
:104FB000850348F82500586007B962B602B0BDE81D
:104FC000F08161680029D7D0636930460193236975
:104FD0000093E3682289FFF72DFE0028CCD1E4E797
:104FE0000AF034FFB3E700BF1CEC002420EC0024DF
:104FF00024EC0024ECDC00244C000024F0B5002359
:1050000087B0022204460493CDE90223027EC369DD
:105010000B2A4FEA430523D1A27E0B2A02D100209E
:1050200007B0F0BD48496B1C484851F8233045781B
:1050300001781878E67E884269D0824277D0D878A5
:1050400003F1030C81426ED0824278D0987903F14B
:10505000060C88426FD0824233D0012007B0F0BDE9
:10506000394B3A4853F8253001784678187894F847
:1050700019C081423DD0824241D0D87803F1030E5D
:10508000814240D082424AD0987903F1060E88428C
:1050900041D08242E1D1DB796345DED1734604F130
:1050A00018069B783046059301F03CFD03463046D8
:1050B0001E4601F03FFD01A90190304603F0B2FD0C
:1050C000AAE7DB79B342C8D163461A349B782046FD
:1050D000059301F027FD034620461C4601F02AFDFA
:1050E000034601A92046019303F09CFD002007B070
:1050F000F0BD93F801E0B645BFD08242BDD15878EB
:105100006045BAD1CBE71F79B742BBD1BCE75F7826
:10511000AF4292D193E7D979B142BAD19DE71879DC
:105120006045B1D1BAE71F79AF428DD18EE758788B
:10513000B04284D1C9E7D979A9428CD18DE71879D9
:10514000B04283D1C0E700BF6401002460010024A5
:105150007E4A03689342F0B58FB000F0E380A2F579
:105160004C42934200F0E08002F58062934200F0EE
:10517000DD8002F58062934200F0DA8002F5806201
:10518000934200F0D98002F54442934200F0D2806D
:10519000A2F51C42934200F0D18002F58062934256
:1051A00000F0CE806A4A934240F0CC800826694DD8
:1051B0004FF4D87404FB0654A07E01F0C3FC207E9B
:1051C00001F0C0FCE369082B13D8DFE803F03B498A
:1051D000576573818F9D05005F4BD3F8F42042F033
:1051E0000802C3F8F420D3F8F43003F0080308935E
:1051F000089B2046FFF702FF012801D1FFBEFEE712
:105200004FF4D8740EAA554F0DF1240C04FB06542C
:10521000E36902EB43050FCFACE80F003B680022C7
:10522000ACF80030114635F9140C02F07FFCE3694C
:105230000EAA02EB430333F9140C0FB0BDE8F040A3
:1052400002F0B2BC444BD3F8F02042F01002C3F895
:10525000F020D3F8F03003F010030093009BC8E770
:105260003D4BD3F8E82042F40032C3F8E820D3F8ED
:10527000E83003F400330193019BBAE7364BD3F8CF
:10528000E82042F48022C3F8E820D3F8E83003F4A1
:1052900080230293029BACE72F4BD3F8E82042F423
:1052A0000022C3F8E820D3F8E83003F40023039386
:1052B000039B9EE7284BD3F8E82042F48012C3F802
:1052C000E820D3F8E83003F480130493049B90E7BC
:1052D000214BD3F8F02042F02002C3F8F020D3F89D
:1052E000F03003F020030593059B82E71A4BD3F8B7
:1052F000E82042F08042C3F8E820D3F8E83003F019
:1053000080430693069B74E7134BD3F8E82042F0E2
:105310000042C3F8E820D3F8E83003F000430793D5
:10532000079B66E7002642E7012640E702263EE7A4
:1053300003263CE705263AE7042638E7062636E743
:10534000072634E700239B7EFFDE00BF00100140EC
:10535000000C0058ECDC002400440258E4780108FA
:105360002DE9F04F91B0002301223A490DF1240AB2
:1053700009938B4601F11C09CAF814305446CDF844
:1053800000A001F13808CDF804A001F15407CDF8D0
:1053900008A001F17006CDF80CA001F18C05CDF844
:1053A00014A001F1C40E01F1E00CCAE90133CAE90D
:1053B00003330F92FF22284B1A7001F1A803CDE9A5
:1053C00006AA0493BAE80F00ABE80F009AE80700BA
:1053D0008BE807000FCC009CA9E80F009AE80700B3
:1053E00089E807000FCC019CA8E80F009AE80700A5
:1053F00088E807000FCC029C0FC79AE8070087E8EF
:1054000007000FCC039C0FC69AE8070086E8070048
:105410000FCC0FC59AE80700059C85E807000FCC64
:10542000049C0FC49AE8070084E80700069C0FCC90
:10543000AEE80F009AE80700079C8EE807000FCC43
:10544000ACE80F009AE807008CE8070011B0BDE84F
:10545000F08F00BF4C00002420EC002410B5094C54
:1054600004F1340009F004F9237D1BB1636BDB699F
:10547000DB0600D410BD2046FFF79AFB636B1022B9
:105480001A6210BDECDC002410B50B4C04F5F27070
:1054900009F0EEF894F8C43123B1D4F8E431DB69B3
:1054A000DB0600D410BD04F5D870FFF781FBD4F8FB
:1054B000E43110221A6210BDECDC002410B50B4C54
:1054C00004F5657009F0D4F894F8743323B1D4F876
:1054D0009433DB69DB0600D410BD04F55870FFF788
:1054E00067FBD4F8943310221A6210BDECDC002460
:1054F00010B50B4C04F2445009F0BAF894F8243576
:1055000023B1D4F84435DB69DB0600D410BD04F5C3
:10551000A260FFF74DFBD4F8443510221A6210BD8B
:10552000ECDC002410B50B4C04F2F46009F0A0F898
:1055300094F8D43623B1D4F8F436DB69DB0600D412
:1055400010BD04F5D860FFF733FBD4F8F436102211
:105550001A6210BDECDC002410B50B4C04F6A4005C
:1055600009F086F894F8843823B1D4F8A438DB69BC
:10557000DB0600D410BD04F50760FFF719FBD4F873
:10558000A43810221A6210BDECDC002410B50B4CBC
:1055900004F6542009F06CF894F8343A23B1D4F8A6
:1055A000543ADB69DB0600D410BD04F52260FFF736
:1055B000FFFAD4F8543A10221A6210BDECDC002431
:1055C00010B50B4C04F6044009F052F894F8E43B93
:1055D00023B1D4F8043CDB69DB0600D410BD04F52C
:1055E0003D60FFF7E5FAD4F8043C10221A6210BDC2
:1055F000ECDC002410B50B4C04F6B45009F038F87C
:1056000094F8943D23B1D4F8B43DDB69DB0600D4B3
:1056100010BD04F55860FFF7CBFAD4F8B43D102262
:105620001A6210BDECDC002410B5EFF3108472B6E2
:10563000084B1A78120602D504B962B610BD1B7861
:105640004FF4D87204485BB202FB0300C03002F092
:1056500097FFF1E720EC0024ECDC002410B5EFF319
:10566000108472B6094B1A78120602D504B962B6D4
:1056700010BD1B784FF4D87205485BB202FB0300E3
:1056800000F59C7002F07CFFF0E700BF20EC0024E6
:10569000ECDC00240021FFF751BC00BF214A036865
:1056A00093422BD0A2F54C42934229D002F580625E
:1056B000934227D002F58062934225D002F58062A2
:1056C000934223D002F54442934221D0A2F51C42DA
:1056D00093421FD002F5806293421DD0124A93423A
:1056E0001CD108224FF4D871104B01FB0233197DF5
:1056F00011B11846FFF75CBAFFF720BC0022F1E7B2
:105700000122EFE70222EDE70322EBE70422E9E7BB
:105710000522E7E70622E5E70722E3E700231B7DF2
:10572000FFDE00BF00100140000C0058ECDC00243C
:10573000204A0368934229D0A2F54C42934227D0D5
:1057400002F58062934225D002F58062934223D015
:1057500002F58062934221D002F5444293421FD069
:10576000A2F51C4293421DD002F5806293421BD0E9
:10577000114A93421AD1082310484FF4D87202FB01
:105780000300037D03B97047FFF712BA0023F3E764
:105790000123F1E70223EFE70323EDE70423EBE71F
:1057A0000523E9E70623E7E70723E5E700231B7D59
:1057B000FFDE00BF00100140000C0058ECDC0024AC
:1057C0000121FFF7BBBB00BF2DE9F0414F684FF44B
:1057D000D876DFF8C0808E4607FB06F60C46082F09
:1057E00008EB0605056005F1180CBEE80F00ACE8F3
:1057F0000F009EE807008CE8070002D86B6A022BB6
:1058000002D90120BDE8F0812A6A032AF9D8A96AE1
:105810000229F6D8E86A0228F3D80131DFF878C007
:10582000343689005CF8277046446F63A469A96424
:105830001549AC6351F823306B64144B53F8223094
:10584000134A2B64002352F8201001223046EB65E6
:10585000E963C5E91333C5E915320AF0F7FA002800
:10586000CFD1014630460AF049FB0028C9D1014694
:1058700030460AF095FB0028C3D130460AF020FBE1
:105880000028BED12875BDE7787F0108847F010814
:10589000947F0108ECDC0024547F0108534B012263
:1058A000002047F6122130B4C3E97420C3E9772100
:1058B000C3E9E020C3E9E3211A62DA62586219639E
:1058C000C3F83025C3F83405C3F83C25C3F84015A8
:1058D000C3F8E026C3F8E406C3F8EC26C3F8F016D4
:1058E000C3F89028C3F89408C3F89C28C3F8A018FC
:1058F000C3F8402AC3F8440AC3F84C2AC3F8501A24
:10590000C3F8F02BC3F8F40BC3F8FC2BC3F8001C4E
:10591000C3F8A40D3648C3F8A02DC3F8AC2DC3F8C6
:10592000B01D0288837833490068334CCA804FEA3F
:10593000104C0B723149E2802372A1F80320A4F8C5
:10594000032063714B712E4CCA800B722D492E4D72
:10595000E2802372A1F80320A4F8032063714B7145
:105960002A4CCA800B722A49EA8008802B7281F87F
:1059700002C0E2802372A1F803204B71CA800B722F
:105980002449A1F803204B71CA800B722249A1F867
:1059900003204B71CA800B722049088081F802C035
:1059A000A1F803204B71CA800B721D49088081F851
:1059B00002C0A1F803204B71CA800B7219490880FC
:1059C00081F802C01848A1F803204B71CA800B72FD
:1059D0001649A0F803204371C2800372A1F8032086
:1059E0004B71CA800B7230BC704700BFECDC0024E6
:1059F00060010024E80100240C02002400020024BD
:105A00002402002418020024F4010024D001002400
:105A10004CEC002430020024DC01002428EC00249B
:105A200040EC002434EC00245401002448010024FC
:105A30003E4B00220B20114610B5D3F8D84082B05F
:105A400044F00104C3F8D840D3F8D84004F001046E
:105A50000094009CD3F8D84044F00204C3F8D84026
:105A6000D3F8D83003F002030193019B02F05EF8F3
:105A70000B2002F099F800220C20114602F056F893
:105A80000C2002F091F800220D20114602F04EF891
:105A90000D2002F089F800220E20114602F046F88F
:105AA0000E2002F081F800220F20114602F03EF88D
:105AB0000F2002F079F800221020114602F036F88B
:105AC000102002F071F800223C20114602F02EF85E
:105AD0003C2002F069F800221120114602F026F85D
